{
	"CrowdFunding/crowdfunding.sol": {
		"crowdfunding": {
			"abi": [
				{
					"inputs": [
						{
							"internalType": "uint256",
							"name": "_targetAmount",
							"type": "uint256"
						},
						{
							"internalType": "uint256",
							"name": "_deadline",
							"type": "uint256"
						}
					],
					"stateMutability": "nonpayable",
					"type": "constructor"
				},
				{
					"inputs": [
						{
							"internalType": "address",
							"name": "",
							"type": "address"
						}
					],
					"name": "contributors",
					"outputs": [
						{
							"internalType": "uint256",
							"name": "",
							"type": "uint256"
						}
					],
					"stateMutability": "view",
					"type": "function"
				},
				{
					"inputs": [],
					"name": "deadline",
					"outputs": [
						{
							"internalType": "uint256",
							"name": "",
							"type": "uint256"
						}
					],
					"stateMutability": "view",
					"type": "function"
				},
				{
					"inputs": [],
					"name": "getContractBalance",
					"outputs": [
						{
							"internalType": "uint256",
							"name": "",
							"type": "uint256"
						}
					],
					"stateMutability": "view",
					"type": "function"
				},
				{
					"inputs": [],
					"name": "manager",
					"outputs": [
						{
							"internalType": "address",
							"name": "",
							"type": "address"
						}
					],
					"stateMutability": "view",
					"type": "function"
				},
				{
					"inputs": [],
					"name": "minimumContribution",
					"outputs": [
						{
							"internalType": "uint256",
							"name": "",
							"type": "uint256"
						}
					],
					"stateMutability": "view",
					"type": "function"
				},
				{
					"inputs": [],
					"name": "noOfContributors",
					"outputs": [
						{
							"internalType": "uint256",
							"name": "",
							"type": "uint256"
						}
					],
					"stateMutability": "view",
					"type": "function"
				},
				{
					"inputs": [],
					"name": "raisedAmount",
					"outputs": [
						{
							"internalType": "uint256",
							"name": "",
							"type": "uint256"
						}
					],
					"stateMutability": "view",
					"type": "function"
				},
				{
					"inputs": [],
					"name": "refund",
					"outputs": [],
					"stateMutability": "nonpayable",
					"type": "function"
				},
				{
					"inputs": [],
					"name": "sendEth",
					"outputs": [],
					"stateMutability": "payable",
					"type": "function"
				},
				{
					"inputs": [],
					"name": "targetAmount",
					"outputs": [
						{
							"internalType": "uint256",
							"name": "",
							"type": "uint256"
						}
					],
					"stateMutability": "view",
					"type": "function"
				}
			],
			"devdoc": {
				"kind": "dev",
				"methods": {},
				"version": 1
			},
			"evm": {
				"assembly": "    /* \"CrowdFunding/crowdfunding.sol\":70:1271  contract crowdfunding{... */\n  mstore(0x40, 0x80)\n    /* \"CrowdFunding/crowdfunding.sol\":336:545  constructor(uint _targetAmount, uint _deadline){... */\n  callvalue\n  dup1\n  iszero\n  tag_1\n  jumpi\n  0x00\n  dup1\n  revert\ntag_1:\n  pop\n  mload(0x40)\n  sub(codesize, bytecodeSize)\n  dup1\n  bytecodeSize\n  dup4\n  codecopy\n  dup2\n  dup2\n  add\n  0x40\n  mstore\n  dup2\n  add\n  swap1\n  tag_2\n  swap2\n  swap1\n  tag_3\n  jump\t// in\ntag_2:\n    /* \"CrowdFunding/crowdfunding.sol\":408:421  _targetAmount */\n  dup2\n    /* \"CrowdFunding/crowdfunding.sol\":393:405  targetAmount */\n  0x04\n    /* \"CrowdFunding/crowdfunding.sol\":393:421  targetAmount = _targetAmount */\n  dup2\n  swap1\n  sstore\n  pop\n    /* \"CrowdFunding/crowdfunding.sol\":460:469  _deadline */\n  dup1\n    /* \"CrowdFunding/crowdfunding.sol\":442:457  block.timestamp */\n  timestamp\n    /* \"CrowdFunding/crowdfunding.sol\":442:469  block.timestamp + _deadline */\n  tag_6\n  swap2\n  swap1\n  tag_7\n  jump\t// in\ntag_6:\n    /* \"CrowdFunding/crowdfunding.sol\":431:439  deadline */\n  0x03\n    /* \"CrowdFunding/crowdfunding.sol\":431:469  deadline = block.timestamp + _deadline */\n  dup2\n  swap1\n  sstore\n  pop\n    /* \"CrowdFunding/crowdfunding.sol\":501:508  100 wei */\n  0x64\n    /* \"CrowdFunding/crowdfunding.sol\":479:498  minimumContribution */\n  0x02\n    /* \"CrowdFunding/crowdfunding.sol\":479:508  minimumContribution = 100 wei */\n  dup2\n  swap1\n  sstore\n  pop\n    /* \"CrowdFunding/crowdfunding.sol\":528:538  msg.sender */\n  caller\n    /* \"CrowdFunding/crowdfunding.sol\":518:525  manager */\n  0x01\n  0x00\n    /* \"CrowdFunding/crowdfunding.sol\":518:538  manager = msg.sender */\n  0x0100\n  exp\n  dup2\n  sload\n  dup2\n  0xffffffffffffffffffffffffffffffffffffffff\n  mul\n  not\n  and\n  swap1\n  dup4\n  0xffffffffffffffffffffffffffffffffffffffff\n  and\n  mul\n  or\n  swap1\n  sstore\n  pop\n    /* \"CrowdFunding/crowdfunding.sol\":336:545  constructor(uint _targetAmount, uint _deadline){... */\n  pop\n  pop\n    /* \"CrowdFunding/crowdfunding.sol\":70:1271  contract crowdfunding{... */\n  jump(tag_8)\n    /* \"#utility.yul\":7:150   */\ntag_10:\n    /* \"#utility.yul\":64:69   */\n  0x00\n    /* \"#utility.yul\":95:101   */\n  dup2\n    /* \"#utility.yul\":89:102   */\n  mload\n    /* \"#utility.yul\":80:102   */\n  swap1\n  pop\n    /* \"#utility.yul\":111:144   */\n  tag_12\n    /* \"#utility.yul\":138:143   */\n  dup2\n    /* \"#utility.yul\":111:144   */\n  tag_13\n  jump\t// in\ntag_12:\n    /* \"#utility.yul\":7:150   */\n  swap3\n  swap2\n  pop\n  pop\n  jump\t// out\n    /* \"#utility.yul\":156:663   */\ntag_3:\n    /* \"#utility.yul\":235:241   */\n  0x00\n    /* \"#utility.yul\":243:249   */\n  dup1\n    /* \"#utility.yul\":292:294   */\n  0x40\n    /* \"#utility.yul\":280:289   */\n  dup4\n    /* \"#utility.yul\":271:278   */\n  dup6\n    /* \"#utility.yul\":267:290   */\n  sub\n    /* \"#utility.yul\":263:295   */\n  slt\n    /* \"#utility.yul\":260:379   */\n  iszero\n  tag_15\n  jumpi\n    /* \"#utility.yul\":298:377   */\n  tag_16\n  tag_17\n  jump\t// in\ntag_16:\n    /* \"#utility.yul\":260:379   */\ntag_15:\n    /* \"#utility.yul\":418:419   */\n  0x00\n    /* \"#utility.yul\":443:507   */\n  tag_18\n    /* \"#utility.yul\":499:506   */\n  dup6\n    /* \"#utility.yul\":490:496   */\n  dup3\n    /* \"#utility.yul\":479:488   */\n  dup7\n    /* \"#utility.yul\":475:497   */\n  add\n    /* \"#utility.yul\":443:507   */\n  tag_10\n  jump\t// in\ntag_18:\n    /* \"#utility.yul\":433:507   */\n  swap3\n  pop\n    /* \"#utility.yul\":389:517   */\n  pop\n    /* \"#utility.yul\":556:558   */\n  0x20\n    /* \"#utility.yul\":582:646   */\n  tag_19\n    /* \"#utility.yul\":638:645   */\n  dup6\n    /* \"#utility.yul\":629:635   */\n  dup3\n    /* \"#utility.yul\":618:627   */\n  dup7\n    /* \"#utility.yul\":614:636   */\n  add\n    /* \"#utility.yul\":582:646   */\n  tag_10\n  jump\t// in\ntag_19:\n    /* \"#utility.yul\":572:646   */\n  swap2\n  pop\n    /* \"#utility.yul\":527:656   */\n  pop\n    /* \"#utility.yul\":156:663   */\n  swap3\n  pop\n  swap3\n  swap1\n  pop\n  jump\t// out\n    /* \"#utility.yul\":750:1055   */\ntag_7:\n    /* \"#utility.yul\":790:793   */\n  0x00\n    /* \"#utility.yul\":809:829   */\n  tag_23\n    /* \"#utility.yul\":827:828   */\n  dup3\n    /* \"#utility.yul\":809:829   */\n  tag_24\n  jump\t// in\ntag_23:\n    /* \"#utility.yul\":804:829   */\n  swap2\n  pop\n    /* \"#utility.yul\":843:863   */\n  tag_25\n    /* \"#utility.yul\":861:862   */\n  dup4\n    /* \"#utility.yul\":843:863   */\n  tag_24\n  jump\t// in\ntag_25:\n    /* \"#utility.yul\":838:863   */\n  swap3\n  pop\n    /* \"#utility.yul\":997:998   */\n  dup3\n    /* \"#utility.yul\":929:995   */\n  0xffffffffffffffffffffffffffffffffffffffffffffffffffffffffffffffff\n    /* \"#utility.yul\":925:999   */\n  sub\n    /* \"#utility.yul\":922:923   */\n  dup3\n    /* \"#utility.yul\":919:1000   */\n  gt\n    /* \"#utility.yul\":916:1023   */\n  iszero\n  tag_26\n  jumpi\n    /* \"#utility.yul\":1003:1021   */\n  tag_27\n  tag_28\n  jump\t// in\ntag_27:\n    /* \"#utility.yul\":916:1023   */\ntag_26:\n    /* \"#utility.yul\":1047:1048   */\n  dup3\n    /* \"#utility.yul\":1044:1045   */\n  dup3\n    /* \"#utility.yul\":1040:1049   */\n  add\n    /* \"#utility.yul\":1033:1049   */\n  swap1\n  pop\n    /* \"#utility.yul\":750:1055   */\n  swap3\n  swap2\n  pop\n  pop\n  jump\t// out\n    /* \"#utility.yul\":1061:1138   */\ntag_24:\n    /* \"#utility.yul\":1098:1105   */\n  0x00\n    /* \"#utility.yul\":1127:1132   */\n  dup2\n    /* \"#utility.yul\":1116:1132   */\n  swap1\n  pop\n    /* \"#utility.yul\":1061:1138   */\n  swap2\n  swap1\n  pop\n  jump\t// out\n    /* \"#utility.yul\":1144:1324   */\ntag_28:\n    /* \"#utility.yul\":1192:1269   */\n  0x4e487b7100000000000000000000000000000000000000000000000000000000\n    /* \"#utility.yul\":1189:1190   */\n  0x00\n    /* \"#utility.yul\":1182:1270   */\n  mstore\n    /* \"#utility.yul\":1289:1293   */\n  0x11\n    /* \"#utility.yul\":1286:1287   */\n  0x04\n    /* \"#utility.yul\":1279:1294   */\n  mstore\n    /* \"#utility.yul\":1313:1317   */\n  0x24\n    /* \"#utility.yul\":1310:1311   */\n  0x00\n    /* \"#utility.yul\":1303:1318   */\n  revert\n    /* \"#utility.yul\":1453:1570   */\ntag_17:\n    /* \"#utility.yul\":1562:1563   */\n  0x00\n    /* \"#utility.yul\":1559:1560   */\n  dup1\n    /* \"#utility.yul\":1552:1564   */\n  revert\n    /* \"#utility.yul\":1576:1698   */\ntag_13:\n    /* \"#utility.yul\":1649:1673   */\n  tag_35\n    /* \"#utility.yul\":1667:1672   */\n  dup2\n    /* \"#utility.yul\":1649:1673   */\n  tag_24\n  jump\t// in\ntag_35:\n    /* \"#utility.yul\":1642:1647   */\n  dup2\n    /* \"#utility.yul\":1639:1674   */\n  eq\n    /* \"#utility.yul\":1629:1692   */\n  tag_36\n  jumpi\n    /* \"#utility.yul\":1688:1689   */\n  0x00\n    /* \"#utility.yul\":1685:1686   */\n  dup1\n    /* \"#utility.yul\":1678:1690   */\n  revert\n    /* \"#utility.yul\":1629:1692   */\ntag_36:\n    /* \"#utility.yul\":1576:1698   */\n  pop\n  jump\t// out\n    /* \"CrowdFunding/crowdfunding.sol\":70:1271  contract crowdfunding{... */\ntag_8:\n  dataSize(sub_0)\n  dup1\n  dataOffset(sub_0)\n  0x00\n  codecopy\n  0x00\n  return\nstop\n\nsub_0: assembly {\n        /* \"CrowdFunding/crowdfunding.sol\":70:1271  contract crowdfunding{... */\n      mstore(0x40, 0x80)\n      jumpi(tag_1, lt(calldatasize, 0x04))\n      shr(0xe0, calldataload(0x00))\n      dup1\n      0x590e1ae3\n      gt\n      tag_12\n      jumpi\n      dup1\n      0x590e1ae3\n      eq\n      tag_7\n      jumpi\n      dup1\n      0x6f9fb98a\n      eq\n      tag_8\n      jumpi\n      dup1\n      0x937e09b1\n      eq\n      tag_9\n      jumpi\n      dup1\n      0x953b8fb8\n      eq\n      tag_10\n      jumpi\n      dup1\n      0xc59ee1dc\n      eq\n      tag_11\n      jumpi\n      jump(tag_1)\n    tag_12:\n      dup1\n      0x06e99fef\n      eq\n      tag_2\n      jumpi\n      dup1\n      0x1f6d4942\n      eq\n      tag_3\n      jumpi\n      dup1\n      0x29dcb0cf\n      eq\n      tag_4\n      jumpi\n      dup1\n      0x481c6a75\n      eq\n      tag_5\n      jumpi\n      dup1\n      0x4e260f6f\n      eq\n      tag_6\n      jumpi\n    tag_1:\n      0x00\n      dup1\n      revert\n        /* \"CrowdFunding/crowdfunding.sol\":551:918  function sendEth() public payable{... */\n    tag_2:\n      tag_13\n      tag_14\n      jump\t// in\n    tag_13:\n      stop\n        /* \"CrowdFunding/crowdfunding.sol\":102:144  mapping(address=>uint) public contributors */\n    tag_3:\n      callvalue\n      dup1\n      iszero\n      tag_15\n      jumpi\n      0x00\n      dup1\n      revert\n    tag_15:\n      pop\n      tag_16\n      0x04\n      dup1\n      calldatasize\n      sub\n      dup2\n      add\n      swap1\n      tag_17\n      swap2\n      swap1\n      tag_18\n      jump\t// in\n    tag_17:\n      tag_19\n      jump\t// in\n    tag_16:\n      mload(0x40)\n      tag_20\n      swap2\n      swap1\n      tag_21\n      jump\t// in\n    tag_20:\n      mload(0x40)\n      dup1\n      swap2\n      sub\n      swap1\n      return\n        /* \"CrowdFunding/crowdfunding.sol\":215:235  uint public deadline */\n    tag_4:\n      callvalue\n      dup1\n      iszero\n      tag_22\n      jumpi\n      0x00\n      dup1\n      revert\n    tag_22:\n      pop\n      tag_23\n      tag_24\n      jump\t// in\n    tag_23:\n      mload(0x40)\n      tag_25\n      swap2\n      swap1\n      tag_21\n      jump\t// in\n    tag_25:\n      mload(0x40)\n      dup1\n      swap2\n      sub\n      swap1\n      return\n        /* \"CrowdFunding/crowdfunding.sol\":150:172  address public manager */\n    tag_5:\n      callvalue\n      dup1\n      iszero\n      tag_26\n      jumpi\n      0x00\n      dup1\n      revert\n    tag_26:\n      pop\n      tag_27\n      tag_28\n      jump\t// in\n    tag_27:\n      mload(0x40)\n      tag_29\n      swap2\n      swap1\n      tag_30\n      jump\t// in\n    tag_29:\n      mload(0x40)\n      dup1\n      swap2\n      sub\n      swap1\n      return\n        /* \"CrowdFunding/crowdfunding.sol\":301:329  uint public noOfContributors */\n    tag_6:\n      callvalue\n      dup1\n      iszero\n      tag_31\n      jumpi\n      0x00\n      dup1\n      revert\n    tag_31:\n      pop\n      tag_32\n      tag_33\n      jump\t// in\n    tag_32:\n      mload(0x40)\n      tag_34\n      swap2\n      swap1\n      tag_21\n      jump\t// in\n    tag_34:\n      mload(0x40)\n      dup1\n      swap2\n      sub\n      swap1\n      return\n        /* \"CrowdFunding/crowdfunding.sol\":1032:1268  function refund() public{... */\n    tag_7:\n      callvalue\n      dup1\n      iszero\n      tag_35\n      jumpi\n      0x00\n      dup1\n      revert\n    tag_35:\n      pop\n      tag_36\n      tag_37\n      jump\t// in\n    tag_36:\n      stop\n        /* \"CrowdFunding/crowdfunding.sol\":925:1025  function getContractBalance() public view returns(uint){... */\n    tag_8:\n      callvalue\n      dup1\n      iszero\n      tag_38\n      jumpi\n      0x00\n      dup1\n      revert\n    tag_38:\n      pop\n      tag_39\n      tag_40\n      jump\t// in\n    tag_39:\n      mload(0x40)\n      tag_41\n      swap2\n      swap1\n      tag_21\n      jump\t// in\n    tag_41:\n      mload(0x40)\n      dup1\n      swap2\n      sub\n      swap1\n      return\n        /* \"CrowdFunding/crowdfunding.sol\":178:209  uint public minimumContribution */\n    tag_9:\n      callvalue\n      dup1\n      iszero\n      tag_42\n      jumpi\n      0x00\n      dup1\n      revert\n    tag_42:\n      pop\n      tag_43\n      tag_44\n      jump\t// in\n    tag_43:\n      mload(0x40)\n      tag_45\n      swap2\n      swap1\n      tag_21\n      jump\t// in\n    tag_45:\n      mload(0x40)\n      dup1\n      swap2\n      sub\n      swap1\n      return\n        /* \"CrowdFunding/crowdfunding.sol\":241:265  uint public targetAmount */\n    tag_10:\n      callvalue\n      dup1\n      iszero\n      tag_46\n      jumpi\n      0x00\n      dup1\n      revert\n    tag_46:\n      pop\n      tag_47\n      tag_48\n      jump\t// in\n    tag_47:\n      mload(0x40)\n      tag_49\n      swap2\n      swap1\n      tag_21\n      jump\t// in\n    tag_49:\n      mload(0x40)\n      dup1\n      swap2\n      sub\n      swap1\n      return\n        /* \"CrowdFunding/crowdfunding.sol\":271:295  uint public raisedAmount */\n    tag_11:\n      callvalue\n      dup1\n      iszero\n      tag_50\n      jumpi\n      0x00\n      dup1\n      revert\n    tag_50:\n      pop\n      tag_51\n      tag_52\n      jump\t// in\n    tag_51:\n      mload(0x40)\n      tag_53\n      swap2\n      swap1\n      tag_21\n      jump\t// in\n    tag_53:\n      mload(0x40)\n      dup1\n      swap2\n      sub\n      swap1\n      return\n        /* \"CrowdFunding/crowdfunding.sol\":551:918  function sendEth() public payable{... */\n    tag_14:\n        /* \"CrowdFunding/crowdfunding.sol\":620:628  deadline */\n      sload(0x03)\n        /* \"CrowdFunding/crowdfunding.sol\":602:617  block.timestamp */\n      timestamp\n        /* \"CrowdFunding/crowdfunding.sol\":602:628  block.timestamp < deadline */\n      lt\n        /* \"CrowdFunding/crowdfunding.sol\":594:669  require(block.timestamp < deadline, \"Sorry!! Deadline has already passed.\") */\n      tag_55\n      jumpi\n      mload(0x40)\n      0x08c379a000000000000000000000000000000000000000000000000000000000\n      dup2\n      mstore\n      0x04\n      add\n      tag_56\n      swap1\n      tag_57\n      jump\t// in\n    tag_56:\n      mload(0x40)\n      dup1\n      swap2\n      sub\n      swap1\n      revert\n    tag_55:\n        /* \"CrowdFunding/crowdfunding.sol\":700:719  minimumContribution */\n      sload(0x02)\n        /* \"CrowdFunding/crowdfunding.sol\":687:696  msg.value */\n      callvalue\n        /* \"CrowdFunding/crowdfunding.sol\":687:719  msg.value >= minimumContribution */\n      lt\n      iszero\n        /* \"CrowdFunding/crowdfunding.sol\":679:764  require(msg.value >= minimumContribution, \"Sorry!! you have to pay minimum 100 wei.\") */\n      tag_58\n      jumpi\n      mload(0x40)\n      0x08c379a000000000000000000000000000000000000000000000000000000000\n      dup2\n      mstore\n      0x04\n      add\n      tag_59\n      swap1\n      tag_60\n      jump\t// in\n    tag_59:\n      mload(0x40)\n      dup1\n      swap2\n      sub\n      swap1\n      revert\n    tag_58:\n        /* \"CrowdFunding/crowdfunding.sol\":806:807  0 */\n      0x00\n        /* \"CrowdFunding/crowdfunding.sol\":778:790  contributors */\n      dup1\n        /* \"CrowdFunding/crowdfunding.sol\":778:802  contributors[msg.sender] */\n      0x00\n        /* \"CrowdFunding/crowdfunding.sol\":791:801  msg.sender */\n      caller\n        /* \"CrowdFunding/crowdfunding.sol\":778:802  contributors[msg.sender] */\n      0xffffffffffffffffffffffffffffffffffffffff\n      and\n      0xffffffffffffffffffffffffffffffffffffffff\n      and\n      dup2\n      mstore\n      0x20\n      add\n      swap1\n      dup2\n      mstore\n      0x20\n      add\n      0x00\n      keccak256\n      sload\n        /* \"CrowdFunding/crowdfunding.sol\":778:807  contributors[msg.sender] == 0 */\n      eq\n        /* \"CrowdFunding/crowdfunding.sol\":775:827  if(contributors[msg.sender] == 0) noOfContributors++ */\n      iszero\n      tag_61\n      jumpi\n        /* \"CrowdFunding/crowdfunding.sol\":809:825  noOfContributors */\n      0x06\n      0x00\n        /* \"CrowdFunding/crowdfunding.sol\":809:827  noOfContributors++ */\n      dup2\n      sload\n      dup1\n      swap3\n      swap2\n      swap1\n      tag_62\n      swap1\n      tag_63\n      jump\t// in\n    tag_62:\n      swap2\n      swap1\n      pop\n      sstore\n      pop\n        /* \"CrowdFunding/crowdfunding.sol\":775:827  if(contributors[msg.sender] == 0) noOfContributors++ */\n    tag_61:\n        /* \"CrowdFunding/crowdfunding.sol\":866:875  msg.value */\n      callvalue\n        /* \"CrowdFunding/crowdfunding.sol\":838:850  contributors */\n      0x00\n        /* \"CrowdFunding/crowdfunding.sol\":838:862  contributors[msg.sender] */\n      dup1\n        /* \"CrowdFunding/crowdfunding.sol\":851:861  msg.sender */\n      caller\n        /* \"CrowdFunding/crowdfunding.sol\":838:862  contributors[msg.sender] */\n      0xffffffffffffffffffffffffffffffffffffffff\n      and\n      0xffffffffffffffffffffffffffffffffffffffff\n      and\n      dup2\n      mstore\n      0x20\n      add\n      swap1\n      dup2\n      mstore\n      0x20\n      add\n      0x00\n      keccak256\n      0x00\n        /* \"CrowdFunding/crowdfunding.sol\":838:875  contributors[msg.sender] += msg.value */\n      dup3\n      dup3\n      sload\n      tag_64\n      swap2\n      swap1\n      tag_65\n      jump\t// in\n    tag_64:\n      swap3\n      pop\n      pop\n      dup2\n      swap1\n      sstore\n      pop\n        /* \"CrowdFunding/crowdfunding.sol\":901:910  msg.value */\n      callvalue\n        /* \"CrowdFunding/crowdfunding.sol\":885:897  raisedAmount */\n      0x05\n      0x00\n        /* \"CrowdFunding/crowdfunding.sol\":885:910  raisedAmount += msg.value */\n      dup3\n      dup3\n      sload\n      tag_66\n      swap2\n      swap1\n      tag_65\n      jump\t// in\n    tag_66:\n      swap3\n      pop\n      pop\n      dup2\n      swap1\n      sstore\n      pop\n        /* \"CrowdFunding/crowdfunding.sol\":551:918  function sendEth() public payable{... */\n      jump\t// out\n        /* \"CrowdFunding/crowdfunding.sol\":102:144  mapping(address=>uint) public contributors */\n    tag_19:\n      mstore(0x20, 0x00)\n      dup1\n      0x00\n      mstore\n      keccak256(0x00, 0x40)\n      0x00\n      swap2\n      pop\n      swap1\n      pop\n      sload\n      dup2\n      jump\t// out\n        /* \"CrowdFunding/crowdfunding.sol\":215:235  uint public deadline */\n    tag_24:\n      sload(0x03)\n      dup2\n      jump\t// out\n        /* \"CrowdFunding/crowdfunding.sol\":150:172  address public manager */\n    tag_28:\n      0x01\n      0x00\n      swap1\n      sload\n      swap1\n      0x0100\n      exp\n      swap1\n      div\n      0xffffffffffffffffffffffffffffffffffffffff\n      and\n      dup2\n      jump\t// out\n        /* \"CrowdFunding/crowdfunding.sol\":301:329  uint public noOfContributors */\n    tag_33:\n      sload(0x06)\n      dup2\n      jump\t// out\n        /* \"CrowdFunding/crowdfunding.sol\":1032:1268  function refund() public{... */\n    tag_37:\n        /* \"CrowdFunding/crowdfunding.sol\":1093:1101  deadline */\n      sload(0x03)\n        /* \"CrowdFunding/crowdfunding.sol\":1074:1089  block.timestamp */\n      timestamp\n        /* \"CrowdFunding/crowdfunding.sol\":1074:1101  block.timestamp >= deadline */\n      lt\n      iszero\n        /* \"CrowdFunding/crowdfunding.sol\":1074:1132  block.timestamp >= deadline && raisedAmount < targetAmount */\n      dup1\n      iszero\n      tag_68\n      jumpi\n      pop\n        /* \"CrowdFunding/crowdfunding.sol\":1120:1132  targetAmount */\n      sload(0x04)\n        /* \"CrowdFunding/crowdfunding.sol\":1105:1117  raisedAmount */\n      sload(0x05)\n        /* \"CrowdFunding/crowdfunding.sol\":1105:1132  raisedAmount < targetAmount */\n      lt\n        /* \"CrowdFunding/crowdfunding.sol\":1074:1132  block.timestamp >= deadline && raisedAmount < targetAmount */\n    tag_68:\n        /* \"CrowdFunding/crowdfunding.sol\":1066:1175  require(block.timestamp >= deadline && raisedAmount < targetAmount, \"Sorry, you are not eligible for refund\") */\n      tag_69\n      jumpi\n      mload(0x40)\n      0x08c379a000000000000000000000000000000000000000000000000000000000\n      dup2\n      mstore\n      0x04\n      add\n      tag_70\n      swap1\n      tag_71\n      jump\t// in\n    tag_70:\n      mload(0x40)\n      dup1\n      swap2\n      sub\n      swap1\n      revert\n    tag_69:\n        /* \"CrowdFunding/crowdfunding.sol\":1220:1221  0 */\n      0x00\n        /* \"CrowdFunding/crowdfunding.sol\":1193:1205  contributors */\n      dup1\n        /* \"CrowdFunding/crowdfunding.sol\":1193:1217  contributors[msg.sender] */\n      0x00\n        /* \"CrowdFunding/crowdfunding.sol\":1206:1216  msg.sender */\n      caller\n        /* \"CrowdFunding/crowdfunding.sol\":1193:1217  contributors[msg.sender] */\n      0xffffffffffffffffffffffffffffffffffffffff\n      and\n      0xffffffffffffffffffffffffffffffffffffffff\n      and\n      dup2\n      mstore\n      0x20\n      add\n      swap1\n      dup2\n      mstore\n      0x20\n      add\n      0x00\n      keccak256\n      sload\n        /* \"CrowdFunding/crowdfunding.sol\":1193:1221  contributors[msg.sender] > 0 */\n      gt\n        /* \"CrowdFunding/crowdfunding.sol\":1185:1250  require(contributors[msg.sender] > 0, \"You haven't contributed.\") */\n      tag_72\n      jumpi\n      mload(0x40)\n      0x08c379a000000000000000000000000000000000000000000000000000000000\n      dup2\n      mstore\n      0x04\n      add\n      tag_73\n      swap1\n      tag_74\n      jump\t// in\n    tag_73:\n      mload(0x40)\n      dup1\n      swap2\n      sub\n      swap1\n      revert\n    tag_72:\n        /* \"CrowdFunding/crowdfunding.sol\":1032:1268  function refund() public{... */\n      jump\t// out\n        /* \"CrowdFunding/crowdfunding.sol\":925:1025  function getContractBalance() public view returns(uint){... */\n    tag_40:\n        /* \"CrowdFunding/crowdfunding.sol\":975:979  uint */\n      0x00\n        /* \"CrowdFunding/crowdfunding.sol\":997:1018  address(this).balance */\n      selfbalance\n        /* \"CrowdFunding/crowdfunding.sol\":990:1018  return address(this).balance */\n      swap1\n      pop\n        /* \"CrowdFunding/crowdfunding.sol\":925:1025  function getContractBalance() public view returns(uint){... */\n      swap1\n      jump\t// out\n        /* \"CrowdFunding/crowdfunding.sol\":178:209  uint public minimumContribution */\n    tag_44:\n      sload(0x02)\n      dup2\n      jump\t// out\n        /* \"CrowdFunding/crowdfunding.sol\":241:265  uint public targetAmount */\n    tag_48:\n      sload(0x04)\n      dup2\n      jump\t// out\n        /* \"CrowdFunding/crowdfunding.sol\":271:295  uint public raisedAmount */\n    tag_52:\n      sload(0x05)\n      dup2\n      jump\t// out\n        /* \"#utility.yul\":7:146   */\n    tag_77:\n        /* \"#utility.yul\":53:58   */\n      0x00\n        /* \"#utility.yul\":91:97   */\n      dup2\n        /* \"#utility.yul\":78:98   */\n      calldataload\n        /* \"#utility.yul\":69:98   */\n      swap1\n      pop\n        /* \"#utility.yul\":107:140   */\n      tag_79\n        /* \"#utility.yul\":134:139   */\n      dup2\n        /* \"#utility.yul\":107:140   */\n      tag_80\n      jump\t// in\n    tag_79:\n        /* \"#utility.yul\":7:146   */\n      swap3\n      swap2\n      pop\n      pop\n      jump\t// out\n        /* \"#utility.yul\":152:481   */\n    tag_18:\n        /* \"#utility.yul\":211:217   */\n      0x00\n        /* \"#utility.yul\":260:262   */\n      0x20\n        /* \"#utility.yul\":248:257   */\n      dup3\n        /* \"#utility.yul\":239:246   */\n      dup5\n        /* \"#utility.yul\":235:258   */\n      sub\n        /* \"#utility.yul\":231:263   */\n      slt\n        /* \"#utility.yul\":228:347   */\n      iszero\n      tag_82\n      jumpi\n        /* \"#utility.yul\":266:345   */\n      tag_83\n      tag_84\n      jump\t// in\n    tag_83:\n        /* \"#utility.yul\":228:347   */\n    tag_82:\n        /* \"#utility.yul\":386:387   */\n      0x00\n        /* \"#utility.yul\":411:464   */\n      tag_85\n        /* \"#utility.yul\":456:463   */\n      dup5\n        /* \"#utility.yul\":447:453   */\n      dup3\n        /* \"#utility.yul\":436:445   */\n      dup6\n        /* \"#utility.yul\":432:454   */\n      add\n        /* \"#utility.yul\":411:464   */\n      tag_77\n      jump\t// in\n    tag_85:\n        /* \"#utility.yul\":401:464   */\n      swap2\n      pop\n        /* \"#utility.yul\":357:474   */\n      pop\n        /* \"#utility.yul\":152:481   */\n      swap3\n      swap2\n      pop\n      pop\n      jump\t// out\n        /* \"#utility.yul\":487:605   */\n    tag_86:\n        /* \"#utility.yul\":574:598   */\n      tag_88\n        /* \"#utility.yul\":592:597   */\n      dup2\n        /* \"#utility.yul\":574:598   */\n      tag_89\n      jump\t// in\n    tag_88:\n        /* \"#utility.yul\":569:572   */\n      dup3\n        /* \"#utility.yul\":562:599   */\n      mstore\n        /* \"#utility.yul\":487:605   */\n      pop\n      pop\n      jump\t// out\n        /* \"#utility.yul\":611:977   */\n    tag_90:\n        /* \"#utility.yul\":753:756   */\n      0x00\n        /* \"#utility.yul\":774:841   */\n      tag_92\n        /* \"#utility.yul\":838:840   */\n      0x24\n        /* \"#utility.yul\":833:836   */\n      dup4\n        /* \"#utility.yul\":774:841   */\n      tag_93\n      jump\t// in\n    tag_92:\n        /* \"#utility.yul\":767:841   */\n      swap2\n      pop\n        /* \"#utility.yul\":850:943   */\n      tag_94\n        /* \"#utility.yul\":939:942   */\n      dup3\n        /* \"#utility.yul\":850:943   */\n      tag_95\n      jump\t// in\n    tag_94:\n        /* \"#utility.yul\":968:970   */\n      0x40\n        /* \"#utility.yul\":963:966   */\n      dup3\n        /* \"#utility.yul\":959:971   */\n      add\n        /* \"#utility.yul\":952:971   */\n      swap1\n      pop\n        /* \"#utility.yul\":611:977   */\n      swap2\n      swap1\n      pop\n      jump\t// out\n        /* \"#utility.yul\":983:1349   */\n    tag_96:\n        /* \"#utility.yul\":1125:1128   */\n      0x00\n        /* \"#utility.yul\":1146:1213   */\n      tag_98\n        /* \"#utility.yul\":1210:1212   */\n      0x18\n        /* \"#utility.yul\":1205:1208   */\n      dup4\n        /* \"#utility.yul\":1146:1213   */\n      tag_93\n      jump\t// in\n    tag_98:\n        /* \"#utility.yul\":1139:1213   */\n      swap2\n      pop\n        /* \"#utility.yul\":1222:1315   */\n      tag_99\n        /* \"#utility.yul\":1311:1314   */\n      dup3\n        /* \"#utility.yul\":1222:1315   */\n      tag_100\n      jump\t// in\n    tag_99:\n        /* \"#utility.yul\":1340:1342   */\n      0x20\n        /* \"#utility.yul\":1335:1338   */\n      dup3\n        /* \"#utility.yul\":1331:1343   */\n      add\n        /* \"#utility.yul\":1324:1343   */\n      swap1\n      pop\n        /* \"#utility.yul\":983:1349   */\n      swap2\n      swap1\n      pop\n      jump\t// out\n        /* \"#utility.yul\":1355:1721   */\n    tag_101:\n        /* \"#utility.yul\":1497:1500   */\n      0x00\n        /* \"#utility.yul\":1518:1585   */\n      tag_103\n        /* \"#utility.yul\":1582:1584   */\n      0x28\n        /* \"#utility.yul\":1577:1580   */\n      dup4\n        /* \"#utility.yul\":1518:1585   */\n      tag_93\n      jump\t// in\n    tag_103:\n        /* \"#utility.yul\":1511:1585   */\n      swap2\n      pop\n        /* \"#utility.yul\":1594:1687   */\n      tag_104\n        /* \"#utility.yul\":1683:1686   */\n      dup3\n        /* \"#utility.yul\":1594:1687   */\n      tag_105\n      jump\t// in\n    tag_104:\n        /* \"#utility.yul\":1712:1714   */\n      0x40\n        /* \"#utility.yul\":1707:1710   */\n      dup3\n        /* \"#utility.yul\":1703:1715   */\n      add\n        /* \"#utility.yul\":1696:1715   */\n      swap1\n      pop\n        /* \"#utility.yul\":1355:1721   */\n      swap2\n      swap1\n      pop\n      jump\t// out\n        /* \"#utility.yul\":1727:2093   */\n    tag_106:\n        /* \"#utility.yul\":1869:1872   */\n      0x00\n        /* \"#utility.yul\":1890:1957   */\n      tag_108\n        /* \"#utility.yul\":1954:1956   */\n      0x26\n        /* \"#utility.yul\":1949:1952   */\n      dup4\n        /* \"#utility.yul\":1890:1957   */\n      tag_93\n      jump\t// in\n    tag_108:\n        /* \"#utility.yul\":1883:1957   */\n      swap2\n      pop\n        /* \"#utility.yul\":1966:2059   */\n      tag_109\n        /* \"#utility.yul\":2055:2058   */\n      dup3\n        /* \"#utility.yul\":1966:2059   */\n      tag_110\n      jump\t// in\n    tag_109:\n        /* \"#utility.yul\":2084:2086   */\n      0x40\n        /* \"#utility.yul\":2079:2082   */\n      dup3\n        /* \"#utility.yul\":2075:2087   */\n      add\n        /* \"#utility.yul\":2068:2087   */\n      swap1\n      pop\n        /* \"#utility.yul\":1727:2093   */\n      swap2\n      swap1\n      pop\n      jump\t// out\n        /* \"#utility.yul\":2099:2217   */\n    tag_111:\n        /* \"#utility.yul\":2186:2210   */\n      tag_113\n        /* \"#utility.yul\":2204:2209   */\n      dup2\n        /* \"#utility.yul\":2186:2210   */\n      tag_114\n      jump\t// in\n    tag_113:\n        /* \"#utility.yul\":2181:2184   */\n      dup3\n        /* \"#utility.yul\":2174:2211   */\n      mstore\n        /* \"#utility.yul\":2099:2217   */\n      pop\n      pop\n      jump\t// out\n        /* \"#utility.yul\":2223:2445   */\n    tag_30:\n        /* \"#utility.yul\":2316:2320   */\n      0x00\n        /* \"#utility.yul\":2354:2356   */\n      0x20\n        /* \"#utility.yul\":2343:2352   */\n      dup3\n        /* \"#utility.yul\":2339:2357   */\n      add\n        /* \"#utility.yul\":2331:2357   */\n      swap1\n      pop\n        /* \"#utility.yul\":2367:2438   */\n      tag_116\n        /* \"#utility.yul\":2435:2436   */\n      0x00\n        /* \"#utility.yul\":2424:2433   */\n      dup4\n        /* \"#utility.yul\":2420:2437   */\n      add\n        /* \"#utility.yul\":2411:2417   */\n      dup5\n        /* \"#utility.yul\":2367:2438   */\n      tag_86\n      jump\t// in\n    tag_116:\n        /* \"#utility.yul\":2223:2445   */\n      swap3\n      swap2\n      pop\n      pop\n      jump\t// out\n        /* \"#utility.yul\":2451:2870   */\n    tag_57:\n        /* \"#utility.yul\":2617:2621   */\n      0x00\n        /* \"#utility.yul\":2655:2657   */\n      0x20\n        /* \"#utility.yul\":2644:2653   */\n      dup3\n        /* \"#utility.yul\":2640:2658   */\n      add\n        /* \"#utility.yul\":2632:2658   */\n      swap1\n      pop\n        /* \"#utility.yul\":2704:2713   */\n      dup2\n        /* \"#utility.yul\":2698:2702   */\n      dup2\n        /* \"#utility.yul\":2694:2714   */\n      sub\n        /* \"#utility.yul\":2690:2691   */\n      0x00\n        /* \"#utility.yul\":2679:2688   */\n      dup4\n        /* \"#utility.yul\":2675:2692   */\n      add\n        /* \"#utility.yul\":2668:2715   */\n      mstore\n        /* \"#utility.yul\":2732:2863   */\n      tag_118\n        /* \"#utility.yul\":2858:2862   */\n      dup2\n        /* \"#utility.yul\":2732:2863   */\n      tag_90\n      jump\t// in\n    tag_118:\n        /* \"#utility.yul\":2724:2863   */\n      swap1\n      pop\n        /* \"#utility.yul\":2451:2870   */\n      swap2\n      swap1\n      pop\n      jump\t// out\n        /* \"#utility.yul\":2876:3295   */\n    tag_74:\n        /* \"#utility.yul\":3042:3046   */\n      0x00\n        /* \"#utility.yul\":3080:3082   */\n      0x20\n        /* \"#utility.yul\":3069:3078   */\n      dup3\n        /* \"#utility.yul\":3065:3083   */\n      add\n        /* \"#utility.yul\":3057:3083   */\n      swap1\n      pop\n        /* \"#utility.yul\":3129:3138   */\n      dup2\n        /* \"#utility.yul\":3123:3127   */\n      dup2\n        /* \"#utility.yul\":3119:3139   */\n      sub\n        /* \"#utility.yul\":3115:3116   */\n      0x00\n        /* \"#utility.yul\":3104:3113   */\n      dup4\n        /* \"#utility.yul\":3100:3117   */\n      add\n        /* \"#utility.yul\":3093:3140   */\n      mstore\n        /* \"#utility.yul\":3157:3288   */\n      tag_120\n        /* \"#utility.yul\":3283:3287   */\n      dup2\n        /* \"#utility.yul\":3157:3288   */\n      tag_96\n      jump\t// in\n    tag_120:\n        /* \"#utility.yul\":3149:3288   */\n      swap1\n      pop\n        /* \"#utility.yul\":2876:3295   */\n      swap2\n      swap1\n      pop\n      jump\t// out\n        /* \"#utility.yul\":3301:3720   */\n    tag_60:\n        /* \"#utility.yul\":3467:3471   */\n      0x00\n        /* \"#utility.yul\":3505:3507   */\n      0x20\n        /* \"#utility.yul\":3494:3503   */\n      dup3\n        /* \"#utility.yul\":3490:3508   */\n      add\n        /* \"#utility.yul\":3482:3508   */\n      swap1\n      pop\n        /* \"#utility.yul\":3554:3563   */\n      dup2\n        /* \"#utility.yul\":3548:3552   */\n      dup2\n        /* \"#utility.yul\":3544:3564   */\n      sub\n        /* \"#utility.yul\":3540:3541   */\n      0x00\n        /* \"#utility.yul\":3529:3538   */\n      dup4\n        /* \"#utility.yul\":3525:3542   */\n      add\n        /* \"#utility.yul\":3518:3565   */\n      mstore\n        /* \"#utility.yul\":3582:3713   */\n      tag_122\n        /* \"#utility.yul\":3708:3712   */\n      dup2\n        /* \"#utility.yul\":3582:3713   */\n      tag_101\n      jump\t// in\n    tag_122:\n        /* \"#utility.yul\":3574:3713   */\n      swap1\n      pop\n        /* \"#utility.yul\":3301:3720   */\n      swap2\n      swap1\n      pop\n      jump\t// out\n        /* \"#utility.yul\":3726:4145   */\n    tag_71:\n        /* \"#utility.yul\":3892:3896   */\n      0x00\n        /* \"#utility.yul\":3930:3932   */\n      0x20\n        /* \"#utility.yul\":3919:3928   */\n      dup3\n        /* \"#utility.yul\":3915:3933   */\n      add\n        /* \"#utility.yul\":3907:3933   */\n      swap1\n      pop\n        /* \"#utility.yul\":3979:3988   */\n      dup2\n        /* \"#utility.yul\":3973:3977   */\n      dup2\n        /* \"#utility.yul\":3969:3989   */\n      sub\n        /* \"#utility.yul\":3965:3966   */\n      0x00\n        /* \"#utility.yul\":3954:3963   */\n      dup4\n        /* \"#utility.yul\":3950:3967   */\n      add\n        /* \"#utility.yul\":3943:3990   */\n      mstore\n        /* \"#utility.yul\":4007:4138   */\n      tag_124\n        /* \"#utility.yul\":4133:4137   */\n      dup2\n        /* \"#utility.yul\":4007:4138   */\n      tag_106\n      jump\t// in\n    tag_124:\n        /* \"#utility.yul\":3999:4138   */\n      swap1\n      pop\n        /* \"#utility.yul\":3726:4145   */\n      swap2\n      swap1\n      pop\n      jump\t// out\n        /* \"#utility.yul\":4151:4373   */\n    tag_21:\n        /* \"#utility.yul\":4244:4248   */\n      0x00\n        /* \"#utility.yul\":4282:4284   */\n      0x20\n        /* \"#utility.yul\":4271:4280   */\n      dup3\n        /* \"#utility.yul\":4267:4285   */\n      add\n        /* \"#utility.yul\":4259:4285   */\n      swap1\n      pop\n        /* \"#utility.yul\":4295:4366   */\n      tag_126\n        /* \"#utility.yul\":4363:4364   */\n      0x00\n        /* \"#utility.yul\":4352:4361   */\n      dup4\n        /* \"#utility.yul\":4348:4365   */\n      add\n        /* \"#utility.yul\":4339:4345   */\n      dup5\n        /* \"#utility.yul\":4295:4366   */\n      tag_111\n      jump\t// in\n    tag_126:\n        /* \"#utility.yul\":4151:4373   */\n      swap3\n      swap2\n      pop\n      pop\n      jump\t// out\n        /* \"#utility.yul\":4460:4629   */\n    tag_93:\n        /* \"#utility.yul\":4544:4555   */\n      0x00\n        /* \"#utility.yul\":4578:4584   */\n      dup3\n        /* \"#utility.yul\":4573:4576   */\n      dup3\n        /* \"#utility.yul\":4566:4585   */\n      mstore\n        /* \"#utility.yul\":4618:4622   */\n      0x20\n        /* \"#utility.yul\":4613:4616   */\n      dup3\n        /* \"#utility.yul\":4609:4623   */\n      add\n        /* \"#utility.yul\":4594:4623   */\n      swap1\n      pop\n        /* \"#utility.yul\":4460:4629   */\n      swap3\n      swap2\n      pop\n      pop\n      jump\t// out\n        /* \"#utility.yul\":4635:4940   */\n    tag_65:\n        /* \"#utility.yul\":4675:4678   */\n      0x00\n        /* \"#utility.yul\":4694:4714   */\n      tag_131\n        /* \"#utility.yul\":4712:4713   */\n      dup3\n        /* \"#utility.yul\":4694:4714   */\n      tag_114\n      jump\t// in\n    tag_131:\n        /* \"#utility.yul\":4689:4714   */\n      swap2\n      pop\n        /* \"#utility.yul\":4728:4748   */\n      tag_132\n        /* \"#utility.yul\":4746:4747   */\n      dup4\n        /* \"#utility.yul\":4728:4748   */\n      tag_114\n      jump\t// in\n    tag_132:\n        /* \"#utility.yul\":4723:4748   */\n      swap3\n      pop\n        /* \"#utility.yul\":4882:4883   */\n      dup3\n        /* \"#utility.yul\":4814:4880   */\n      0xffffffffffffffffffffffffffffffffffffffffffffffffffffffffffffffff\n        /* \"#utility.yul\":4810:4884   */\n      sub\n        /* \"#utility.yul\":4807:4808   */\n      dup3\n        /* \"#utility.yul\":4804:4885   */\n      gt\n        /* \"#utility.yul\":4801:4908   */\n      iszero\n      tag_133\n      jumpi\n        /* \"#utility.yul\":4888:4906   */\n      tag_134\n      tag_135\n      jump\t// in\n    tag_134:\n        /* \"#utility.yul\":4801:4908   */\n    tag_133:\n        /* \"#utility.yul\":4932:4933   */\n      dup3\n        /* \"#utility.yul\":4929:4930   */\n      dup3\n        /* \"#utility.yul\":4925:4934   */\n      add\n        /* \"#utility.yul\":4918:4934   */\n      swap1\n      pop\n        /* \"#utility.yul\":4635:4940   */\n      swap3\n      swap2\n      pop\n      pop\n      jump\t// out\n        /* \"#utility.yul\":4946:5042   */\n    tag_89:\n        /* \"#utility.yul\":4983:4990   */\n      0x00\n        /* \"#utility.yul\":5012:5036   */\n      tag_137\n        /* \"#utility.yul\":5030:5035   */\n      dup3\n        /* \"#utility.yul\":5012:5036   */\n      tag_138\n      jump\t// in\n    tag_137:\n        /* \"#utility.yul\":5001:5036   */\n      swap1\n      pop\n        /* \"#utility.yul\":4946:5042   */\n      swap2\n      swap1\n      pop\n      jump\t// out\n        /* \"#utility.yul\":5048:5174   */\n    tag_138:\n        /* \"#utility.yul\":5085:5092   */\n      0x00\n        /* \"#utility.yul\":5125:5167   */\n      0xffffffffffffffffffffffffffffffffffffffff\n        /* \"#utility.yul\":5118:5123   */\n      dup3\n        /* \"#utility.yul\":5114:5168   */\n      and\n        /* \"#utility.yul\":5103:5168   */\n      swap1\n      pop\n        /* \"#utility.yul\":5048:5174   */\n      swap2\n      swap1\n      pop\n      jump\t// out\n        /* \"#utility.yul\":5180:5257   */\n    tag_114:\n        /* \"#utility.yul\":5217:5224   */\n      0x00\n        /* \"#utility.yul\":5246:5251   */\n      dup2\n        /* \"#utility.yul\":5235:5251   */\n      swap1\n      pop\n        /* \"#utility.yul\":5180:5257   */\n      swap2\n      swap1\n      pop\n      jump\t// out\n        /* \"#utility.yul\":5263:5496   */\n    tag_63:\n        /* \"#utility.yul\":5302:5305   */\n      0x00\n        /* \"#utility.yul\":5325:5349   */\n      tag_142\n        /* \"#utility.yul\":5343:5348   */\n      dup3\n        /* \"#utility.yul\":5325:5349   */\n      tag_114\n      jump\t// in\n    tag_142:\n        /* \"#utility.yul\":5316:5349   */\n      swap2\n      pop\n        /* \"#utility.yul\":5371:5437   */\n      0xffffffffffffffffffffffffffffffffffffffffffffffffffffffffffffffff\n        /* \"#utility.yul\":5364:5369   */\n      dup3\n        /* \"#utility.yul\":5361:5438   */\n      eq\n        /* \"#utility.yul\":5358:5461   */\n      iszero\n      tag_143\n      jumpi\n        /* \"#utility.yul\":5441:5459   */\n      tag_144\n      tag_135\n      jump\t// in\n    tag_144:\n        /* \"#utility.yul\":5358:5461   */\n    tag_143:\n        /* \"#utility.yul\":5488:5489   */\n      0x01\n        /* \"#utility.yul\":5481:5486   */\n      dup3\n        /* \"#utility.yul\":5477:5490   */\n      add\n        /* \"#utility.yul\":5470:5490   */\n      swap1\n      pop\n        /* \"#utility.yul\":5263:5496   */\n      swap2\n      swap1\n      pop\n      jump\t// out\n        /* \"#utility.yul\":5502:5682   */\n    tag_135:\n        /* \"#utility.yul\":5550:5627   */\n      0x4e487b7100000000000000000000000000000000000000000000000000000000\n        /* \"#utility.yul\":5547:5548   */\n      0x00\n        /* \"#utility.yul\":5540:5628   */\n      mstore\n        /* \"#utility.yul\":5647:5651   */\n      0x11\n        /* \"#utility.yul\":5644:5645   */\n      0x04\n        /* \"#utility.yul\":5637:5652   */\n      mstore\n        /* \"#utility.yul\":5671:5675   */\n      0x24\n        /* \"#utility.yul\":5668:5669   */\n      0x00\n        /* \"#utility.yul\":5661:5676   */\n      revert\n        /* \"#utility.yul\":5811:5928   */\n    tag_84:\n        /* \"#utility.yul\":5920:5921   */\n      0x00\n        /* \"#utility.yul\":5917:5918   */\n      dup1\n        /* \"#utility.yul\":5910:5922   */\n      revert\n        /* \"#utility.yul\":5934:6157   */\n    tag_95:\n        /* \"#utility.yul\":6074:6108   */\n      0x536f727279212120446561646c696e652068617320616c726561647920706173\n        /* \"#utility.yul\":6070:6071   */\n      0x00\n        /* \"#utility.yul\":6062:6068   */\n      dup3\n        /* \"#utility.yul\":6058:6072   */\n      add\n        /* \"#utility.yul\":6051:6109   */\n      mstore\n        /* \"#utility.yul\":6143:6149   */\n      0x7365642e00000000000000000000000000000000000000000000000000000000\n        /* \"#utility.yul\":6138:6140   */\n      0x20\n        /* \"#utility.yul\":6130:6136   */\n      dup3\n        /* \"#utility.yul\":6126:6141   */\n      add\n        /* \"#utility.yul\":6119:6150   */\n      mstore\n        /* \"#utility.yul\":5934:6157   */\n      pop\n      jump\t// out\n        /* \"#utility.yul\":6163:6337   */\n    tag_100:\n        /* \"#utility.yul\":6303:6329   */\n      0x596f7520686176656e277420636f6e74726962757465642e0000000000000000\n        /* \"#utility.yul\":6299:6300   */\n      0x00\n        /* \"#utility.yul\":6291:6297   */\n      dup3\n        /* \"#utility.yul\":6287:6301   */\n      add\n        /* \"#utility.yul\":6280:6330   */\n      mstore\n        /* \"#utility.yul\":6163:6337   */\n      pop\n      jump\t// out\n        /* \"#utility.yul\":6343:6570   */\n    tag_105:\n        /* \"#utility.yul\":6483:6517   */\n      0x536f727279212120796f75206861766520746f20706179206d696e696d756d20\n        /* \"#utility.yul\":6479:6480   */\n      0x00\n        /* \"#utility.yul\":6471:6477   */\n      dup3\n        /* \"#utility.yul\":6467:6481   */\n      add\n        /* \"#utility.yul\":6460:6518   */\n      mstore\n        /* \"#utility.yul\":6552:6562   */\n      0x313030207765692e000000000000000000000000000000000000000000000000\n        /* \"#utility.yul\":6547:6549   */\n      0x20\n        /* \"#utility.yul\":6539:6545   */\n      dup3\n        /* \"#utility.yul\":6535:6550   */\n      add\n        /* \"#utility.yul\":6528:6563   */\n      mstore\n        /* \"#utility.yul\":6343:6570   */\n      pop\n      jump\t// out\n        /* \"#utility.yul\":6576:6801   */\n    tag_110:\n        /* \"#utility.yul\":6716:6750   */\n      0x536f7272792c20796f7520617265206e6f7420656c696769626c6520666f7220\n        /* \"#utility.yul\":6712:6713   */\n      0x00\n        /* \"#utility.yul\":6704:6710   */\n      dup3\n        /* \"#utility.yul\":6700:6714   */\n      add\n        /* \"#utility.yul\":6693:6751   */\n      mstore\n        /* \"#utility.yul\":6785:6793   */\n      0x726566756e640000000000000000000000000000000000000000000000000000\n        /* \"#utility.yul\":6780:6782   */\n      0x20\n        /* \"#utility.yul\":6772:6778   */\n      dup3\n        /* \"#utility.yul\":6768:6783   */\n      add\n        /* \"#utility.yul\":6761:6794   */\n      mstore\n        /* \"#utility.yul\":6576:6801   */\n      pop\n      jump\t// out\n        /* \"#utility.yul\":6807:6929   */\n    tag_80:\n        /* \"#utility.yul\":6880:6904   */\n      tag_154\n        /* \"#utility.yul\":6898:6903   */\n      dup2\n        /* \"#utility.yul\":6880:6904   */\n      tag_89\n      jump\t// in\n    tag_154:\n        /* \"#utility.yul\":6873:6878   */\n      dup2\n        /* \"#utility.yul\":6870:6905   */\n      eq\n        /* \"#utility.yul\":6860:6923   */\n      tag_155\n      jumpi\n        /* \"#utility.yul\":6919:6920   */\n      0x00\n        /* \"#utility.yul\":6916:6917   */\n      dup1\n        /* \"#utility.yul\":6909:6921   */\n      revert\n        /* \"#utility.yul\":6860:6923   */\n    tag_155:\n        /* \"#utility.yul\":6807:6929   */\n      pop\n      jump\t// out\n\n    auxdata: 0xa26469706673582212208d423ea56740b01132fef3ac4cb4496c84c0a7d662620a052529e59e16d95f3c64736f6c63430008070033\n}\n",
				"bytecode": {
					"linkReferences": {},
					"object": "608060405234801561001057600080fd5b50604051610a84380380610a84833981810160405281019061003291906100b0565b81600481905550804261004591906100f0565b600381905550606460028190555033600160006101000a81548173ffffffffffffffffffffffffffffffffffffffff021916908373ffffffffffffffffffffffffffffffffffffffff160217905550505061019b565b6000815190506100aa81610184565b92915050565b600080604083850312156100c7576100c661017f565b5b60006100d58582860161009b565b92505060206100e68582860161009b565b9150509250929050565b60006100fb82610146565b915061010683610146565b9250827fffffffffffffffffffffffffffffffffffffffffffffffffffffffffffffffff0382111561013b5761013a610150565b5b828201905092915050565b6000819050919050565b7f4e487b7100000000000000000000000000000000000000000000000000000000600052601160045260246000fd5b600080fd5b61018d81610146565b811461019857600080fd5b50565b6108da806101aa6000396000f3fe6080604052600436106100915760003560e01c8063590e1ae311610059578063590e1ae31461015e5780636f9fb98a14610175578063937e09b1146101a0578063953b8fb8146101cb578063c59ee1dc146101f657610091565b806306e99fef146100965780631f6d4942146100a057806329dcb0cf146100dd578063481c6a75146101085780634e260f6f14610133575b600080fd5b61009e610221565b005b3480156100ac57600080fd5b506100c760048036038101906100c291906104ca565b61037a565b6040516100d4919061063c565b60405180910390f35b3480156100e957600080fd5b506100f2610392565b6040516100ff919061063c565b60405180910390f35b34801561011457600080fd5b5061011d610398565b60405161012a91906105a1565b60405180910390f35b34801561013f57600080fd5b506101486103be565b604051610155919061063c565b60405180910390f35b34801561016a57600080fd5b506101736103c4565b005b34801561018157600080fd5b5061018a61049b565b604051610197919061063c565b60405180910390f35b3480156101ac57600080fd5b506101b56104a3565b6040516101c2919061063c565b60405180910390f35b3480156101d757600080fd5b506101e06104a9565b6040516101ed919061063c565b60405180910390f35b34801561020257600080fd5b5061020b6104af565b604051610218919061063c565b60405180910390f35b6003544210610265576040517f08c379a000000000000000000000000000000000000000000000000000000000815260040161025c906105bc565b60405180910390fd5b6002543410156102aa576040517f08c379a00000000000000000000000000000000000000000000000000000000081526004016102a1906105fc565b60405180910390fd5b60008060003373ffffffffffffffffffffffffffffffffffffffff1673ffffffffffffffffffffffffffffffffffffffff16815260200190815260200160002054141561030a5760066000815480929190610304906106fa565b91905055505b346000803373ffffffffffffffffffffffffffffffffffffffff1673ffffffffffffffffffffffffffffffffffffffff16815260200190815260200160002060008282546103589190610668565b9250508190555034600560008282546103719190610668565b92505081905550565b60006020528060005260406000206000915090505481565b60035481565b600160009054906101000a900473ffffffffffffffffffffffffffffffffffffffff1681565b60065481565b60035442101580156103d95750600454600554105b610418576040517f08c379a000000000000000000000000000000000000000000000000000000000815260040161040f9061061c565b60405180910390fd5b60008060003373ffffffffffffffffffffffffffffffffffffffff1673ffffffffffffffffffffffffffffffffffffffff1681526020019081526020016000205411610499576040517f08c379a0000000000000000000000000000000000000000000000000000000008152600401610490906105dc565b60405180910390fd5b565b600047905090565b60025481565b60045481565b60055481565b6000813590506104c48161088d565b92915050565b6000602082840312156104e0576104df610772565b5b60006104ee848285016104b5565b91505092915050565b610500816106be565b82525050565b6000610513602483610657565b915061051e82610777565b604082019050919050565b6000610536601883610657565b9150610541826107c6565b602082019050919050565b6000610559602883610657565b9150610564826107ef565b604082019050919050565b600061057c602683610657565b91506105878261083e565b604082019050919050565b61059b816106f0565b82525050565b60006020820190506105b660008301846104f7565b92915050565b600060208201905081810360008301526105d581610506565b9050919050565b600060208201905081810360008301526105f581610529565b9050919050565b600060208201905081810360008301526106158161054c565b9050919050565b600060208201905081810360008301526106358161056f565b9050919050565b60006020820190506106516000830184610592565b92915050565b600082825260208201905092915050565b6000610673826106f0565b915061067e836106f0565b9250827fffffffffffffffffffffffffffffffffffffffffffffffffffffffffffffffff038211156106b3576106b2610743565b5b828201905092915050565b60006106c9826106d0565b9050919050565b600073ffffffffffffffffffffffffffffffffffffffff82169050919050565b6000819050919050565b6000610705826106f0565b91507fffffffffffffffffffffffffffffffffffffffffffffffffffffffffffffffff82141561073857610737610743565b5b600182019050919050565b7f4e487b7100000000000000000000000000000000000000000000000000000000600052601160045260246000fd5b600080fd5b7f536f727279212120446561646c696e652068617320616c72656164792070617360008201527f7365642e00000000000000000000000000000000000000000000000000000000602082015250565b7f596f7520686176656e277420636f6e74726962757465642e0000000000000000600082015250565b7f536f727279212120796f75206861766520746f20706179206d696e696d756d2060008201527f313030207765692e000000000000000000000000000000000000000000000000602082015250565b7f536f7272792c20796f7520617265206e6f7420656c696769626c6520666f722060008201527f726566756e640000000000000000000000000000000000000000000000000000602082015250565b610896816106be565b81146108a157600080fd5b5056fea26469706673582212208d423ea56740b01132fef3ac4cb4496c84c0a7d662620a052529e59e16d95f3c64736f6c63430008070033",
					"opcodes": "PUSH1 0x80 PUSH1 0x40 MSTORE CALLVALUE DUP1 ISZERO PUSH2 0x10 JUMPI PUSH1 0x0 DUP1 REVERT JUMPDEST POP PUSH1 0x40 MLOAD PUSH2 0xA84 CODESIZE SUB DUP1 PUSH2 0xA84 DUP4 CODECOPY DUP2 DUP2 ADD PUSH1 0x40 MSTORE DUP2 ADD SWAP1 PUSH2 0x32 SWAP2 SWAP1 PUSH2 0xB0 JUMP JUMPDEST DUP2 PUSH1 0x4 DUP2 SWAP1 SSTORE POP DUP1 TIMESTAMP PUSH2 0x45 SWAP2 SWAP1 PUSH2 0xF0 JUMP JUMPDEST PUSH1 0x3 DUP2 SWAP1 SSTORE POP PUSH1 0x64 PUSH1 0x2 DUP2 SWAP1 SSTORE POP CALLER PUSH1 0x1 PUSH1 0x0 PUSH2 0x100 EXP DUP2 SLOAD DUP2 PUSH20 0xFFFFFFFFFFFFFFFFFFFFFFFFFFFFFFFFFFFFFFFF MUL NOT AND SWAP1 DUP4 PUSH20 0xFFFFFFFFFFFFFFFFFFFFFFFFFFFFFFFFFFFFFFFF AND MUL OR SWAP1 SSTORE POP POP POP PUSH2 0x19B JUMP JUMPDEST PUSH1 0x0 DUP2 MLOAD SWAP1 POP PUSH2 0xAA DUP2 PUSH2 0x184 JUMP JUMPDEST SWAP3 SWAP2 POP POP JUMP JUMPDEST PUSH1 0x0 DUP1 PUSH1 0x40 DUP4 DUP6 SUB SLT ISZERO PUSH2 0xC7 JUMPI PUSH2 0xC6 PUSH2 0x17F JUMP JUMPDEST JUMPDEST PUSH1 0x0 PUSH2 0xD5 DUP6 DUP3 DUP7 ADD PUSH2 0x9B JUMP JUMPDEST SWAP3 POP POP PUSH1 0x20 PUSH2 0xE6 DUP6 DUP3 DUP7 ADD PUSH2 0x9B JUMP JUMPDEST SWAP2 POP POP SWAP3 POP SWAP3 SWAP1 POP JUMP JUMPDEST PUSH1 0x0 PUSH2 0xFB DUP3 PUSH2 0x146 JUMP JUMPDEST SWAP2 POP PUSH2 0x106 DUP4 PUSH2 0x146 JUMP JUMPDEST SWAP3 POP DUP3 PUSH32 0xFFFFFFFFFFFFFFFFFFFFFFFFFFFFFFFFFFFFFFFFFFFFFFFFFFFFFFFFFFFFFFFF SUB DUP3 GT ISZERO PUSH2 0x13B JUMPI PUSH2 0x13A PUSH2 0x150 JUMP JUMPDEST JUMPDEST DUP3 DUP3 ADD SWAP1 POP SWAP3 SWAP2 POP POP JUMP JUMPDEST PUSH1 0x0 DUP2 SWAP1 POP SWAP2 SWAP1 POP JUMP JUMPDEST PUSH32 0x4E487B7100000000000000000000000000000000000000000000000000000000 PUSH1 0x0 MSTORE PUSH1 0x11 PUSH1 0x4 MSTORE PUSH1 0x24 PUSH1 0x0 REVERT JUMPDEST PUSH1 0x0 DUP1 REVERT JUMPDEST PUSH2 0x18D DUP2 PUSH2 0x146 JUMP JUMPDEST DUP2 EQ PUSH2 0x198 JUMPI PUSH1 0x0 DUP1 REVERT JUMPDEST POP JUMP JUMPDEST PUSH2 0x8DA DUP1 PUSH2 0x1AA PUSH1 0x0 CODECOPY PUSH1 0x0 RETURN INVALID PUSH1 0x80 PUSH1 0x40 MSTORE PUSH1 0x4 CALLDATASIZE LT PUSH2 0x91 JUMPI PUSH1 0x0 CALLDATALOAD PUSH1 0xE0 SHR DUP1 PUSH4 0x590E1AE3 GT PUSH2 0x59 JUMPI DUP1 PUSH4 0x590E1AE3 EQ PUSH2 0x15E JUMPI DUP1 PUSH4 0x6F9FB98A EQ PUSH2 0x175 JUMPI DUP1 PUSH4 0x937E09B1 EQ PUSH2 0x1A0 JUMPI DUP1 PUSH4 0x953B8FB8 EQ PUSH2 0x1CB JUMPI DUP1 PUSH4 0xC59EE1DC EQ PUSH2 0x1F6 JUMPI PUSH2 0x91 JUMP JUMPDEST DUP1 PUSH4 0x6E99FEF EQ PUSH2 0x96 JUMPI DUP1 PUSH4 0x1F6D4942 EQ PUSH2 0xA0 JUMPI DUP1 PUSH4 0x29DCB0CF EQ PUSH2 0xDD JUMPI DUP1 PUSH4 0x481C6A75 EQ PUSH2 0x108 JUMPI DUP1 PUSH4 0x4E260F6F EQ PUSH2 0x133 JUMPI JUMPDEST PUSH1 0x0 DUP1 REVERT JUMPDEST PUSH2 0x9E PUSH2 0x221 JUMP JUMPDEST STOP JUMPDEST CALLVALUE DUP1 ISZERO PUSH2 0xAC JUMPI PUSH1 0x0 DUP1 REVERT JUMPDEST POP PUSH2 0xC7 PUSH1 0x4 DUP1 CALLDATASIZE SUB DUP2 ADD SWAP1 PUSH2 0xC2 SWAP2 SWAP1 PUSH2 0x4CA JUMP JUMPDEST PUSH2 0x37A JUMP JUMPDEST PUSH1 0x40 MLOAD PUSH2 0xD4 SWAP2 SWAP1 PUSH2 0x63C JUMP JUMPDEST PUSH1 0x40 MLOAD DUP1 SWAP2 SUB SWAP1 RETURN JUMPDEST CALLVALUE DUP1 ISZERO PUSH2 0xE9 JUMPI PUSH1 0x0 DUP1 REVERT JUMPDEST POP PUSH2 0xF2 PUSH2 0x392 JUMP JUMPDEST PUSH1 0x40 MLOAD PUSH2 0xFF SWAP2 SWAP1 PUSH2 0x63C JUMP JUMPDEST PUSH1 0x40 MLOAD DUP1 SWAP2 SUB SWAP1 RETURN JUMPDEST CALLVALUE DUP1 ISZERO PUSH2 0x114 JUMPI PUSH1 0x0 DUP1 REVERT JUMPDEST POP PUSH2 0x11D PUSH2 0x398 JUMP JUMPDEST PUSH1 0x40 MLOAD PUSH2 0x12A SWAP2 SWAP1 PUSH2 0x5A1 JUMP JUMPDEST PUSH1 0x40 MLOAD DUP1 SWAP2 SUB SWAP1 RETURN JUMPDEST CALLVALUE DUP1 ISZERO PUSH2 0x13F JUMPI PUSH1 0x0 DUP1 REVERT JUMPDEST POP PUSH2 0x148 PUSH2 0x3BE JUMP JUMPDEST PUSH1 0x40 MLOAD PUSH2 0x155 SWAP2 SWAP1 PUSH2 0x63C JUMP JUMPDEST PUSH1 0x40 MLOAD DUP1 SWAP2 SUB SWAP1 RETURN JUMPDEST CALLVALUE DUP1 ISZERO PUSH2 0x16A JUMPI PUSH1 0x0 DUP1 REVERT JUMPDEST POP PUSH2 0x173 PUSH2 0x3C4 JUMP JUMPDEST STOP JUMPDEST CALLVALUE DUP1 ISZERO PUSH2 0x181 JUMPI PUSH1 0x0 DUP1 REVERT JUMPDEST POP PUSH2 0x18A PUSH2 0x49B JUMP JUMPDEST PUSH1 0x40 MLOAD PUSH2 0x197 SWAP2 SWAP1 PUSH2 0x63C JUMP JUMPDEST PUSH1 0x40 MLOAD DUP1 SWAP2 SUB SWAP1 RETURN JUMPDEST CALLVALUE DUP1 ISZERO PUSH2 0x1AC JUMPI PUSH1 0x0 DUP1 REVERT JUMPDEST POP PUSH2 0x1B5 PUSH2 0x4A3 JUMP JUMPDEST PUSH1 0x40 MLOAD PUSH2 0x1C2 SWAP2 SWAP1 PUSH2 0x63C JUMP JUMPDEST PUSH1 0x40 MLOAD DUP1 SWAP2 SUB SWAP1 RETURN JUMPDEST CALLVALUE DUP1 ISZERO PUSH2 0x1D7 JUMPI PUSH1 0x0 DUP1 REVERT JUMPDEST POP PUSH2 0x1E0 PUSH2 0x4A9 JUMP JUMPDEST PUSH1 0x40 MLOAD PUSH2 0x1ED SWAP2 SWAP1 PUSH2 0x63C JUMP JUMPDEST PUSH1 0x40 MLOAD DUP1 SWAP2 SUB SWAP1 RETURN JUMPDEST CALLVALUE DUP1 ISZERO PUSH2 0x202 JUMPI PUSH1 0x0 DUP1 REVERT JUMPDEST POP PUSH2 0x20B PUSH2 0x4AF JUMP JUMPDEST PUSH1 0x40 MLOAD PUSH2 0x218 SWAP2 SWAP1 PUSH2 0x63C JUMP JUMPDEST PUSH1 0x40 MLOAD DUP1 SWAP2 SUB SWAP1 RETURN JUMPDEST PUSH1 0x3 SLOAD TIMESTAMP LT PUSH2 0x265 JUMPI PUSH1 0x40 MLOAD PUSH32 0x8C379A000000000000000000000000000000000000000000000000000000000 DUP2 MSTORE PUSH1 0x4 ADD PUSH2 0x25C SWAP1 PUSH2 0x5BC JUMP JUMPDEST PUSH1 0x40 MLOAD DUP1 SWAP2 SUB SWAP1 REVERT JUMPDEST PUSH1 0x2 SLOAD CALLVALUE LT ISZERO PUSH2 0x2AA JUMPI PUSH1 0x40 MLOAD PUSH32 0x8C379A000000000000000000000000000000000000000000000000000000000 DUP2 MSTORE PUSH1 0x4 ADD PUSH2 0x2A1 SWAP1 PUSH2 0x5FC JUMP JUMPDEST PUSH1 0x40 MLOAD DUP1 SWAP2 SUB SWAP1 REVERT JUMPDEST PUSH1 0x0 DUP1 PUSH1 0x0 CALLER PUSH20 0xFFFFFFFFFFFFFFFFFFFFFFFFFFFFFFFFFFFFFFFF AND PUSH20 0xFFFFFFFFFFFFFFFFFFFFFFFFFFFFFFFFFFFFFFFF AND DUP2 MSTORE PUSH1 0x20 ADD SWAP1 DUP2 MSTORE PUSH1 0x20 ADD PUSH1 0x0 KECCAK256 SLOAD EQ ISZERO PUSH2 0x30A JUMPI PUSH1 0x6 PUSH1 0x0 DUP2 SLOAD DUP1 SWAP3 SWAP2 SWAP1 PUSH2 0x304 SWAP1 PUSH2 0x6FA JUMP JUMPDEST SWAP2 SWAP1 POP SSTORE POP JUMPDEST CALLVALUE PUSH1 0x0 DUP1 CALLER PUSH20 0xFFFFFFFFFFFFFFFFFFFFFFFFFFFFFFFFFFFFFFFF AND PUSH20 0xFFFFFFFFFFFFFFFFFFFFFFFFFFFFFFFFFFFFFFFF AND DUP2 MSTORE PUSH1 0x20 ADD SWAP1 DUP2 MSTORE PUSH1 0x20 ADD PUSH1 0x0 KECCAK256 PUSH1 0x0 DUP3 DUP3 SLOAD PUSH2 0x358 SWAP2 SWAP1 PUSH2 0x668 JUMP JUMPDEST SWAP3 POP POP DUP2 SWAP1 SSTORE POP CALLVALUE PUSH1 0x5 PUSH1 0x0 DUP3 DUP3 SLOAD PUSH2 0x371 SWAP2 SWAP1 PUSH2 0x668 JUMP JUMPDEST SWAP3 POP POP DUP2 SWAP1 SSTORE POP JUMP JUMPDEST PUSH1 0x0 PUSH1 0x20 MSTORE DUP1 PUSH1 0x0 MSTORE PUSH1 0x40 PUSH1 0x0 KECCAK256 PUSH1 0x0 SWAP2 POP SWAP1 POP SLOAD DUP2 JUMP JUMPDEST PUSH1 0x3 SLOAD DUP2 JUMP JUMPDEST PUSH1 0x1 PUSH1 0x0 SWAP1 SLOAD SWAP1 PUSH2 0x100 EXP SWAP1 DIV PUSH20 0xFFFFFFFFFFFFFFFFFFFFFFFFFFFFFFFFFFFFFFFF AND DUP2 JUMP JUMPDEST PUSH1 0x6 SLOAD DUP2 JUMP JUMPDEST PUSH1 0x3 SLOAD TIMESTAMP LT ISZERO DUP1 ISZERO PUSH2 0x3D9 JUMPI POP PUSH1 0x4 SLOAD PUSH1 0x5 SLOAD LT JUMPDEST PUSH2 0x418 JUMPI PUSH1 0x40 MLOAD PUSH32 0x8C379A000000000000000000000000000000000000000000000000000000000 DUP2 MSTORE PUSH1 0x4 ADD PUSH2 0x40F SWAP1 PUSH2 0x61C JUMP JUMPDEST PUSH1 0x40 MLOAD DUP1 SWAP2 SUB SWAP1 REVERT JUMPDEST PUSH1 0x0 DUP1 PUSH1 0x0 CALLER PUSH20 0xFFFFFFFFFFFFFFFFFFFFFFFFFFFFFFFFFFFFFFFF AND PUSH20 0xFFFFFFFFFFFFFFFFFFFFFFFFFFFFFFFFFFFFFFFF AND DUP2 MSTORE PUSH1 0x20 ADD SWAP1 DUP2 MSTORE PUSH1 0x20 ADD PUSH1 0x0 KECCAK256 SLOAD GT PUSH2 0x499 JUMPI PUSH1 0x40 MLOAD PUSH32 0x8C379A000000000000000000000000000000000000000000000000000000000 DUP2 MSTORE PUSH1 0x4 ADD PUSH2 0x490 SWAP1 PUSH2 0x5DC JUMP JUMPDEST PUSH1 0x40 MLOAD DUP1 SWAP2 SUB SWAP1 REVERT JUMPDEST JUMP JUMPDEST PUSH1 0x0 SELFBALANCE SWAP1 POP SWAP1 JUMP JUMPDEST PUSH1 0x2 SLOAD DUP2 JUMP JUMPDEST PUSH1 0x4 SLOAD DUP2 JUMP JUMPDEST PUSH1 0x5 SLOAD DUP2 JUMP JUMPDEST PUSH1 0x0 DUP2 CALLDATALOAD SWAP1 POP PUSH2 0x4C4 DUP2 PUSH2 0x88D JUMP JUMPDEST SWAP3 SWAP2 POP POP JUMP JUMPDEST PUSH1 0x0 PUSH1 0x20 DUP3 DUP5 SUB SLT ISZERO PUSH2 0x4E0 JUMPI PUSH2 0x4DF PUSH2 0x772 JUMP JUMPDEST JUMPDEST PUSH1 0x0 PUSH2 0x4EE DUP5 DUP3 DUP6 ADD PUSH2 0x4B5 JUMP JUMPDEST SWAP2 POP POP SWAP3 SWAP2 POP POP JUMP JUMPDEST PUSH2 0x500 DUP2 PUSH2 0x6BE JUMP JUMPDEST DUP3 MSTORE POP POP JUMP JUMPDEST PUSH1 0x0 PUSH2 0x513 PUSH1 0x24 DUP4 PUSH2 0x657 JUMP JUMPDEST SWAP2 POP PUSH2 0x51E DUP3 PUSH2 0x777 JUMP JUMPDEST PUSH1 0x40 DUP3 ADD SWAP1 POP SWAP2 SWAP1 POP JUMP JUMPDEST PUSH1 0x0 PUSH2 0x536 PUSH1 0x18 DUP4 PUSH2 0x657 JUMP JUMPDEST SWAP2 POP PUSH2 0x541 DUP3 PUSH2 0x7C6 JUMP JUMPDEST PUSH1 0x20 DUP3 ADD SWAP1 POP SWAP2 SWAP1 POP JUMP JUMPDEST PUSH1 0x0 PUSH2 0x559 PUSH1 0x28 DUP4 PUSH2 0x657 JUMP JUMPDEST SWAP2 POP PUSH2 0x564 DUP3 PUSH2 0x7EF JUMP JUMPDEST PUSH1 0x40 DUP3 ADD SWAP1 POP SWAP2 SWAP1 POP JUMP JUMPDEST PUSH1 0x0 PUSH2 0x57C PUSH1 0x26 DUP4 PUSH2 0x657 JUMP JUMPDEST SWAP2 POP PUSH2 0x587 DUP3 PUSH2 0x83E JUMP JUMPDEST PUSH1 0x40 DUP3 ADD SWAP1 POP SWAP2 SWAP1 POP JUMP JUMPDEST PUSH2 0x59B DUP2 PUSH2 0x6F0 JUMP JUMPDEST DUP3 MSTORE POP POP JUMP JUMPDEST PUSH1 0x0 PUSH1 0x20 DUP3 ADD SWAP1 POP PUSH2 0x5B6 PUSH1 0x0 DUP4 ADD DUP5 PUSH2 0x4F7 JUMP JUMPDEST SWAP3 SWAP2 POP POP JUMP JUMPDEST PUSH1 0x0 PUSH1 0x20 DUP3 ADD SWAP1 POP DUP2 DUP2 SUB PUSH1 0x0 DUP4 ADD MSTORE PUSH2 0x5D5 DUP2 PUSH2 0x506 JUMP JUMPDEST SWAP1 POP SWAP2 SWAP1 POP JUMP JUMPDEST PUSH1 0x0 PUSH1 0x20 DUP3 ADD SWAP1 POP DUP2 DUP2 SUB PUSH1 0x0 DUP4 ADD MSTORE PUSH2 0x5F5 DUP2 PUSH2 0x529 JUMP JUMPDEST SWAP1 POP SWAP2 SWAP1 POP JUMP JUMPDEST PUSH1 0x0 PUSH1 0x20 DUP3 ADD SWAP1 POP DUP2 DUP2 SUB PUSH1 0x0 DUP4 ADD MSTORE PUSH2 0x615 DUP2 PUSH2 0x54C JUMP JUMPDEST SWAP1 POP SWAP2 SWAP1 POP JUMP JUMPDEST PUSH1 0x0 PUSH1 0x20 DUP3 ADD SWAP1 POP DUP2 DUP2 SUB PUSH1 0x0 DUP4 ADD MSTORE PUSH2 0x635 DUP2 PUSH2 0x56F JUMP JUMPDEST SWAP1 POP SWAP2 SWAP1 POP JUMP JUMPDEST PUSH1 0x0 PUSH1 0x20 DUP3 ADD SWAP1 POP PUSH2 0x651 PUSH1 0x0 DUP4 ADD DUP5 PUSH2 0x592 JUMP JUMPDEST SWAP3 SWAP2 POP POP JUMP JUMPDEST PUSH1 0x0 DUP3 DUP3 MSTORE PUSH1 0x20 DUP3 ADD SWAP1 POP SWAP3 SWAP2 POP POP JUMP JUMPDEST PUSH1 0x0 PUSH2 0x673 DUP3 PUSH2 0x6F0 JUMP JUMPDEST SWAP2 POP PUSH2 0x67E DUP4 PUSH2 0x6F0 JUMP JUMPDEST SWAP3 POP DUP3 PUSH32 0xFFFFFFFFFFFFFFFFFFFFFFFFFFFFFFFFFFFFFFFFFFFFFFFFFFFFFFFFFFFFFFFF SUB DUP3 GT ISZERO PUSH2 0x6B3 JUMPI PUSH2 0x6B2 PUSH2 0x743 JUMP JUMPDEST JUMPDEST DUP3 DUP3 ADD SWAP1 POP SWAP3 SWAP2 POP POP JUMP JUMPDEST PUSH1 0x0 PUSH2 0x6C9 DUP3 PUSH2 0x6D0 JUMP JUMPDEST SWAP1 POP SWAP2 SWAP1 POP JUMP JUMPDEST PUSH1 0x0 PUSH20 0xFFFFFFFFFFFFFFFFFFFFFFFFFFFFFFFFFFFFFFFF DUP3 AND SWAP1 POP SWAP2 SWAP1 POP JUMP JUMPDEST PUSH1 0x0 DUP2 SWAP1 POP SWAP2 SWAP1 POP JUMP JUMPDEST PUSH1 0x0 PUSH2 0x705 DUP3 PUSH2 0x6F0 JUMP JUMPDEST SWAP2 POP PUSH32 0xFFFFFFFFFFFFFFFFFFFFFFFFFFFFFFFFFFFFFFFFFFFFFFFFFFFFFFFFFFFFFFFF DUP3 EQ ISZERO PUSH2 0x738 JUMPI PUSH2 0x737 PUSH2 0x743 JUMP JUMPDEST JUMPDEST PUSH1 0x1 DUP3 ADD SWAP1 POP SWAP2 SWAP1 POP JUMP JUMPDEST PUSH32 0x4E487B7100000000000000000000000000000000000000000000000000000000 PUSH1 0x0 MSTORE PUSH1 0x11 PUSH1 0x4 MSTORE PUSH1 0x24 PUSH1 0x0 REVERT JUMPDEST PUSH1 0x0 DUP1 REVERT JUMPDEST PUSH32 0x536F727279212120446561646C696E652068617320616C726561647920706173 PUSH1 0x0 DUP3 ADD MSTORE PUSH32 0x7365642E00000000000000000000000000000000000000000000000000000000 PUSH1 0x20 DUP3 ADD MSTORE POP JUMP JUMPDEST PUSH32 0x596F7520686176656E277420636F6E74726962757465642E0000000000000000 PUSH1 0x0 DUP3 ADD MSTORE POP JUMP JUMPDEST PUSH32 0x536F727279212120796F75206861766520746F20706179206D696E696D756D20 PUSH1 0x0 DUP3 ADD MSTORE PUSH32 0x313030207765692E000000000000000000000000000000000000000000000000 PUSH1 0x20 DUP3 ADD MSTORE POP JUMP JUMPDEST PUSH32 0x536F7272792C20796F7520617265206E6F7420656C696769626C6520666F7220 PUSH1 0x0 DUP3 ADD MSTORE PUSH32 0x726566756E640000000000000000000000000000000000000000000000000000 PUSH1 0x20 DUP3 ADD MSTORE POP JUMP JUMPDEST PUSH2 0x896 DUP2 PUSH2 0x6BE JUMP JUMPDEST DUP2 EQ PUSH2 0x8A1 JUMPI PUSH1 0x0 DUP1 REVERT JUMPDEST POP JUMP INVALID LOG2 PUSH5 0x6970667358 0x22 SLT KECCAK256 DUP14 TIMESTAMP RETURNDATACOPY 0xA5 PUSH8 0x40B01132FEF3AC4C 0xB4 0x49 PUSH13 0x84C0A7D662620A052529E59E16 0xD9 0x5F EXTCODECOPY PUSH5 0x736F6C6343 STOP ADDMOD SMOD STOP CALLER "
				},
				"gasEstimates": {
					"creation": {
						"codeDepositCost": "453200",
						"executionCost": "infinite",
						"totalCost": "infinite"
					},
					"external": {
						"contributors(address)": "2837",
						"deadline()": "2474",
						"getContractBalance()": "361",
						"manager()": "2581",
						"minimumContribution()": "2473",
						"noOfContributors()": "2518",
						"raisedAmount()": "2517",
						"refund()": "9001",
						"sendEth()": "infinite",
						"targetAmount()": "2495"
					}
				},
				"methodIdentifiers": {
					"contributors(address)": "1f6d4942",
					"deadline()": "29dcb0cf",
					"getContractBalance()": "6f9fb98a",
					"manager()": "481c6a75",
					"minimumContribution()": "937e09b1",
					"noOfContributors()": "4e260f6f",
					"raisedAmount()": "c59ee1dc",
					"refund()": "590e1ae3",
					"sendEth()": "06e99fef",
					"targetAmount()": "953b8fb8"
				}
			},
			"storageLayout": {
				"storage": [
					{
						"astId": 5,
						"contract": "CrowdFunding/crowdfunding.sol:crowdfunding",
						"label": "contributors",
						"offset": 0,
						"slot": "0",
						"type": "t_mapping(t_address,t_uint256)"
					},
					{
						"astId": 7,
						"contract": "CrowdFunding/crowdfunding.sol:crowdfunding",
						"label": "manager",
						"offset": 0,
						"slot": "1",
						"type": "t_address"
					},
					{
						"astId": 9,
						"contract": "CrowdFunding/crowdfunding.sol:crowdfunding",
						"label": "minimumContribution",
						"offset": 0,
						"slot": "2",
						"type": "t_uint256"
					},
					{
						"astId": 11,
						"contract": "CrowdFunding/crowdfunding.sol:crowdfunding",
						"label": "deadline",
						"offset": 0,
						"slot": "3",
						"type": "t_uint256"
					},
					{
						"astId": 13,
						"contract": "CrowdFunding/crowdfunding.sol:crowdfunding",
						"label": "targetAmount",
						"offset": 0,
						"slot": "4",
						"type": "t_uint256"
					},
					{
						"astId": 15,
						"contract": "CrowdFunding/crowdfunding.sol:crowdfunding",
						"label": "raisedAmount",
						"offset": 0,
						"slot": "5",
						"type": "t_uint256"
					},
					{
						"astId": 17,
						"contract": "CrowdFunding/crowdfunding.sol:crowdfunding",
						"label": "noOfContributors",
						"offset": 0,
						"slot": "6",
						"type": "t_uint256"
					}
				],
				"types": {
					"t_address": {
						"encoding": "inplace",
						"label": "address",
						"numberOfBytes": "20"
					},
					"t_mapping(t_address,t_uint256)": {
						"encoding": "mapping",
						"key": "t_address",
						"label": "mapping(address => uint256)",
						"numberOfBytes": "32",
						"value": "t_uint256"
					},
					"t_uint256": {
						"encoding": "inplace",
						"label": "uint256",
						"numberOfBytes": "32"
					}
				}
			},
			"userdoc": {
				"kind": "user",
				"methods": {},
				"version": 1
			}
		}
	}
}