{
	"CrowdFunding/crowdfunding.sol": {
		"crowdfunding": {
			"abi": [
				{
					"inputs": [
						{
							"internalType": "uint256",
							"name": "_targetAmount",
							"type": "uint256"
						},
						{
							"internalType": "uint256",
							"name": "_deadline",
							"type": "uint256"
						}
					],
					"stateMutability": "nonpayable",
					"type": "constructor"
				},
				{
					"inputs": [
						{
							"internalType": "address",
							"name": "",
							"type": "address"
						}
					],
					"name": "contributors",
					"outputs": [
						{
							"internalType": "uint256",
							"name": "",
							"type": "uint256"
						}
					],
					"stateMutability": "view",
					"type": "function"
				},
				{
					"inputs": [
						{
							"internalType": "string",
							"name": "_description",
							"type": "string"
						},
						{
							"internalType": "address payable",
							"name": "_recipient",
							"type": "address"
						},
						{
							"internalType": "uint256",
							"name": "_value",
							"type": "uint256"
						}
					],
					"name": "createRequest",
					"outputs": [],
					"stateMutability": "nonpayable",
					"type": "function"
				},
				{
					"inputs": [],
					"name": "deadline",
					"outputs": [
						{
							"internalType": "uint256",
							"name": "",
							"type": "uint256"
						}
					],
					"stateMutability": "view",
					"type": "function"
				},
				{
					"inputs": [],
					"name": "getContractBalance",
					"outputs": [
						{
							"internalType": "uint256",
							"name": "",
							"type": "uint256"
						}
					],
					"stateMutability": "view",
					"type": "function"
				},
				{
					"inputs": [
						{
							"internalType": "uint256",
							"name": "_requestNo",
							"type": "uint256"
						}
					],
					"name": "makePayment",
					"outputs": [],
					"stateMutability": "nonpayable",
					"type": "function"
				},
				{
					"inputs": [],
					"name": "manager",
					"outputs": [
						{
							"internalType": "address",
							"name": "",
							"type": "address"
						}
					],
					"stateMutability": "view",
					"type": "function"
				},
				{
					"inputs": [],
					"name": "minimumContribution",
					"outputs": [
						{
							"internalType": "uint256",
							"name": "",
							"type": "uint256"
						}
					],
					"stateMutability": "view",
					"type": "function"
				},
				{
					"inputs": [],
					"name": "noOfContributors",
					"outputs": [
						{
							"internalType": "uint256",
							"name": "",
							"type": "uint256"
						}
					],
					"stateMutability": "view",
					"type": "function"
				},
				{
					"inputs": [],
					"name": "numRequests",
					"outputs": [
						{
							"internalType": "uint256",
							"name": "",
							"type": "uint256"
						}
					],
					"stateMutability": "view",
					"type": "function"
				},
				{
					"inputs": [],
					"name": "raisedAmount",
					"outputs": [
						{
							"internalType": "uint256",
							"name": "",
							"type": "uint256"
						}
					],
					"stateMutability": "view",
					"type": "function"
				},
				{
					"inputs": [],
					"name": "refund",
					"outputs": [],
					"stateMutability": "nonpayable",
					"type": "function"
				},
				{
					"inputs": [
						{
							"internalType": "uint256",
							"name": "",
							"type": "uint256"
						}
					],
					"name": "requests",
					"outputs": [
						{
							"internalType": "string",
							"name": "description",
							"type": "string"
						},
						{
							"internalType": "uint256",
							"name": "value",
							"type": "uint256"
						},
						{
							"internalType": "address payable",
							"name": "receipient",
							"type": "address"
						},
						{
							"internalType": "bool",
							"name": "completed",
							"type": "bool"
						},
						{
							"internalType": "uint256",
							"name": "noOfVoters",
							"type": "uint256"
						}
					],
					"stateMutability": "view",
					"type": "function"
				},
				{
					"inputs": [],
					"name": "sendEth",
					"outputs": [],
					"stateMutability": "payable",
					"type": "function"
				},
				{
					"inputs": [],
					"name": "targetAmount",
					"outputs": [
						{
							"internalType": "uint256",
							"name": "",
							"type": "uint256"
						}
					],
					"stateMutability": "view",
					"type": "function"
				},
				{
					"inputs": [
						{
							"internalType": "uint256",
							"name": "_requestNo",
							"type": "uint256"
						}
					],
					"name": "voteRequest",
					"outputs": [],
					"stateMutability": "nonpayable",
					"type": "function"
				}
			],
			"devdoc": {
				"kind": "dev",
				"methods": {},
				"version": 1
			},
			"evm": {
				"assembly": "    /* \"CrowdFunding/crowdfunding.sol\":70:3320  contract crowdfunding{... */\n  mstore(0x40, 0x80)\n    /* \"CrowdFunding/crowdfunding.sol\":611:820  constructor(uint _targetAmount, uint _deadline){... */\n  callvalue\n  dup1\n  iszero\n  tag_1\n  jumpi\n  0x00\n  dup1\n  revert\ntag_1:\n  pop\n  mload(0x40)\n  sub(codesize, bytecodeSize)\n  dup1\n  bytecodeSize\n  dup4\n  codecopy\n  dup2\n  dup2\n  add\n  0x40\n  mstore\n  dup2\n  add\n  swap1\n  tag_2\n  swap2\n  swap1\n  tag_3\n  jump\t// in\ntag_2:\n    /* \"CrowdFunding/crowdfunding.sol\":683:696  _targetAmount */\n  dup2\n    /* \"CrowdFunding/crowdfunding.sol\":668:680  targetAmount */\n  0x04\n    /* \"CrowdFunding/crowdfunding.sol\":668:696  targetAmount = _targetAmount */\n  dup2\n  swap1\n  sstore\n  pop\n    /* \"CrowdFunding/crowdfunding.sol\":735:744  _deadline */\n  dup1\n    /* \"CrowdFunding/crowdfunding.sol\":717:732  block.timestamp */\n  timestamp\n    /* \"CrowdFunding/crowdfunding.sol\":717:744  block.timestamp + _deadline */\n  tag_6\n  swap2\n  swap1\n  tag_7\n  jump\t// in\ntag_6:\n    /* \"CrowdFunding/crowdfunding.sol\":706:714  deadline */\n  0x03\n    /* \"CrowdFunding/crowdfunding.sol\":706:744  deadline = block.timestamp + _deadline */\n  dup2\n  swap1\n  sstore\n  pop\n    /* \"CrowdFunding/crowdfunding.sol\":776:783  100 wei */\n  0x64\n    /* \"CrowdFunding/crowdfunding.sol\":754:773  minimumContribution */\n  0x02\n    /* \"CrowdFunding/crowdfunding.sol\":754:783  minimumContribution = 100 wei */\n  dup2\n  swap1\n  sstore\n  pop\n    /* \"CrowdFunding/crowdfunding.sol\":803:813  msg.sender */\n  caller\n    /* \"CrowdFunding/crowdfunding.sol\":793:800  manager */\n  0x01\n  0x00\n    /* \"CrowdFunding/crowdfunding.sol\":793:813  manager = msg.sender */\n  0x0100\n  exp\n  dup2\n  sload\n  dup2\n  0xffffffffffffffffffffffffffffffffffffffff\n  mul\n  not\n  and\n  swap1\n  dup4\n  0xffffffffffffffffffffffffffffffffffffffff\n  and\n  mul\n  or\n  swap1\n  sstore\n  pop\n    /* \"CrowdFunding/crowdfunding.sol\":611:820  constructor(uint _targetAmount, uint _deadline){... */\n  pop\n  pop\n    /* \"CrowdFunding/crowdfunding.sol\":70:3320  contract crowdfunding{... */\n  jump(tag_8)\n    /* \"#utility.yul\":7:150   */\ntag_10:\n    /* \"#utility.yul\":64:69   */\n  0x00\n    /* \"#utility.yul\":95:101   */\n  dup2\n    /* \"#utility.yul\":89:102   */\n  mload\n    /* \"#utility.yul\":80:102   */\n  swap1\n  pop\n    /* \"#utility.yul\":111:144   */\n  tag_12\n    /* \"#utility.yul\":138:143   */\n  dup2\n    /* \"#utility.yul\":111:144   */\n  tag_13\n  jump\t// in\ntag_12:\n    /* \"#utility.yul\":7:150   */\n  swap3\n  swap2\n  pop\n  pop\n  jump\t// out\n    /* \"#utility.yul\":156:663   */\ntag_3:\n    /* \"#utility.yul\":235:241   */\n  0x00\n    /* \"#utility.yul\":243:249   */\n  dup1\n    /* \"#utility.yul\":292:294   */\n  0x40\n    /* \"#utility.yul\":280:289   */\n  dup4\n    /* \"#utility.yul\":271:278   */\n  dup6\n    /* \"#utility.yul\":267:290   */\n  sub\n    /* \"#utility.yul\":263:295   */\n  slt\n    /* \"#utility.yul\":260:379   */\n  iszero\n  tag_15\n  jumpi\n    /* \"#utility.yul\":298:377   */\n  tag_16\n  tag_17\n  jump\t// in\ntag_16:\n    /* \"#utility.yul\":260:379   */\ntag_15:\n    /* \"#utility.yul\":418:419   */\n  0x00\n    /* \"#utility.yul\":443:507   */\n  tag_18\n    /* \"#utility.yul\":499:506   */\n  dup6\n    /* \"#utility.yul\":490:496   */\n  dup3\n    /* \"#utility.yul\":479:488   */\n  dup7\n    /* \"#utility.yul\":475:497   */\n  add\n    /* \"#utility.yul\":443:507   */\n  tag_10\n  jump\t// in\ntag_18:\n    /* \"#utility.yul\":433:507   */\n  swap3\n  pop\n    /* \"#utility.yul\":389:517   */\n  pop\n    /* \"#utility.yul\":556:558   */\n  0x20\n    /* \"#utility.yul\":582:646   */\n  tag_19\n    /* \"#utility.yul\":638:645   */\n  dup6\n    /* \"#utility.yul\":629:635   */\n  dup3\n    /* \"#utility.yul\":618:627   */\n  dup7\n    /* \"#utility.yul\":614:636   */\n  add\n    /* \"#utility.yul\":582:646   */\n  tag_10\n  jump\t// in\ntag_19:\n    /* \"#utility.yul\":572:646   */\n  swap2\n  pop\n    /* \"#utility.yul\":527:656   */\n  pop\n    /* \"#utility.yul\":156:663   */\n  swap3\n  pop\n  swap3\n  swap1\n  pop\n  jump\t// out\n    /* \"#utility.yul\":750:1055   */\ntag_7:\n    /* \"#utility.yul\":790:793   */\n  0x00\n    /* \"#utility.yul\":809:829   */\n  tag_23\n    /* \"#utility.yul\":827:828   */\n  dup3\n    /* \"#utility.yul\":809:829   */\n  tag_24\n  jump\t// in\ntag_23:\n    /* \"#utility.yul\":804:829   */\n  swap2\n  pop\n    /* \"#utility.yul\":843:863   */\n  tag_25\n    /* \"#utility.yul\":861:862   */\n  dup4\n    /* \"#utility.yul\":843:863   */\n  tag_24\n  jump\t// in\ntag_25:\n    /* \"#utility.yul\":838:863   */\n  swap3\n  pop\n    /* \"#utility.yul\":997:998   */\n  dup3\n    /* \"#utility.yul\":929:995   */\n  0xffffffffffffffffffffffffffffffffffffffffffffffffffffffffffffffff\n    /* \"#utility.yul\":925:999   */\n  sub\n    /* \"#utility.yul\":922:923   */\n  dup3\n    /* \"#utility.yul\":919:1000   */\n  gt\n    /* \"#utility.yul\":916:1023   */\n  iszero\n  tag_26\n  jumpi\n    /* \"#utility.yul\":1003:1021   */\n  tag_27\n  tag_28\n  jump\t// in\ntag_27:\n    /* \"#utility.yul\":916:1023   */\ntag_26:\n    /* \"#utility.yul\":1047:1048   */\n  dup3\n    /* \"#utility.yul\":1044:1045   */\n  dup3\n    /* \"#utility.yul\":1040:1049   */\n  add\n    /* \"#utility.yul\":1033:1049   */\n  swap1\n  pop\n    /* \"#utility.yul\":750:1055   */\n  swap3\n  swap2\n  pop\n  pop\n  jump\t// out\n    /* \"#utility.yul\":1061:1138   */\ntag_24:\n    /* \"#utility.yul\":1098:1105   */\n  0x00\n    /* \"#utility.yul\":1127:1132   */\n  dup2\n    /* \"#utility.yul\":1116:1132   */\n  swap1\n  pop\n    /* \"#utility.yul\":1061:1138   */\n  swap2\n  swap1\n  pop\n  jump\t// out\n    /* \"#utility.yul\":1144:1324   */\ntag_28:\n    /* \"#utility.yul\":1192:1269   */\n  0x4e487b7100000000000000000000000000000000000000000000000000000000\n    /* \"#utility.yul\":1189:1190   */\n  0x00\n    /* \"#utility.yul\":1182:1270   */\n  mstore\n    /* \"#utility.yul\":1289:1293   */\n  0x11\n    /* \"#utility.yul\":1286:1287   */\n  0x04\n    /* \"#utility.yul\":1279:1294   */\n  mstore\n    /* \"#utility.yul\":1313:1317   */\n  0x24\n    /* \"#utility.yul\":1310:1311   */\n  0x00\n    /* \"#utility.yul\":1303:1318   */\n  revert\n    /* \"#utility.yul\":1453:1570   */\ntag_17:\n    /* \"#utility.yul\":1562:1563   */\n  0x00\n    /* \"#utility.yul\":1559:1560   */\n  dup1\n    /* \"#utility.yul\":1552:1564   */\n  revert\n    /* \"#utility.yul\":1576:1698   */\ntag_13:\n    /* \"#utility.yul\":1649:1673   */\n  tag_35\n    /* \"#utility.yul\":1667:1672   */\n  dup2\n    /* \"#utility.yul\":1649:1673   */\n  tag_24\n  jump\t// in\ntag_35:\n    /* \"#utility.yul\":1642:1647   */\n  dup2\n    /* \"#utility.yul\":1639:1674   */\n  eq\n    /* \"#utility.yul\":1629:1692   */\n  tag_36\n  jumpi\n    /* \"#utility.yul\":1688:1689   */\n  0x00\n    /* \"#utility.yul\":1685:1686   */\n  dup1\n    /* \"#utility.yul\":1678:1690   */\n  revert\n    /* \"#utility.yul\":1629:1692   */\ntag_36:\n    /* \"#utility.yul\":1576:1698   */\n  pop\n  jump\t// out\n    /* \"CrowdFunding/crowdfunding.sol\":70:3320  contract crowdfunding{... */\ntag_8:\n  dataSize(sub_0)\n  dup1\n  dataOffset(sub_0)\n  0x00\n  codecopy\n  0x00\n  return\nstop\n\nsub_0: assembly {\n        /* \"CrowdFunding/crowdfunding.sol\":70:3320  contract crowdfunding{... */\n      mstore(0x40, 0x80)\n      jumpi(tag_1, lt(calldatasize, 0x04))\n      shr(0xe0, calldataload(0x00))\n      dup1\n      0x5114cb52\n      gt\n      tag_17\n      jumpi\n      dup1\n      0x937e09b1\n      gt\n      tag_18\n      jumpi\n      dup1\n      0x937e09b1\n      eq\n      tag_13\n      jumpi\n      dup1\n      0x953b8fb8\n      eq\n      tag_14\n      jumpi\n      dup1\n      0x9fb42b1f\n      eq\n      tag_15\n      jumpi\n      dup1\n      0xc59ee1dc\n      eq\n      tag_16\n      jumpi\n      jump(tag_1)\n    tag_18:\n      dup1\n      0x5114cb52\n      eq\n      tag_9\n      jumpi\n      dup1\n      0x590e1ae3\n      eq\n      tag_10\n      jumpi\n      dup1\n      0x6f9fb98a\n      eq\n      tag_11\n      jumpi\n      dup1\n      0x81d12c58\n      eq\n      tag_12\n      jumpi\n      jump(tag_1)\n    tag_17:\n      dup1\n      0x29dcb0cf\n      gt\n      tag_19\n      jumpi\n      dup1\n      0x29dcb0cf\n      eq\n      tag_5\n      jumpi\n      dup1\n      0x481c6a75\n      eq\n      tag_6\n      jumpi\n      dup1\n      0x4cb6f4a5\n      eq\n      tag_7\n      jumpi\n      dup1\n      0x4e260f6f\n      eq\n      tag_8\n      jumpi\n      jump(tag_1)\n    tag_19:\n      dup1\n      0x06e99fef\n      eq\n      tag_2\n      jumpi\n      dup1\n      0x1b16bb5c\n      eq\n      tag_3\n      jumpi\n      dup1\n      0x1f6d4942\n      eq\n      tag_4\n      jumpi\n    tag_1:\n      0x00\n      dup1\n      revert\n        /* \"CrowdFunding/crowdfunding.sol\":875:1242  function sendEth() public payable{... */\n    tag_2:\n      tag_20\n      tag_21\n      jump\t// in\n    tag_20:\n      stop\n        /* \"CrowdFunding/crowdfunding.sol\":2198:2598  function createRequest(string memory _description, address payable _recipient, uint _value) public onlyManager{... */\n    tag_3:\n      callvalue\n      dup1\n      iszero\n      tag_22\n      jumpi\n      0x00\n      dup1\n      revert\n    tag_22:\n      pop\n      tag_23\n      0x04\n      dup1\n      calldatasize\n      sub\n      dup2\n      add\n      swap1\n      tag_24\n      swap2\n      swap1\n      tag_25\n      jump\t// in\n    tag_24:\n      tag_26\n      jump\t// in\n    tag_23:\n      stop\n        /* \"CrowdFunding/crowdfunding.sol\":102:144  mapping(address=>uint) public contributors */\n    tag_4:\n      callvalue\n      dup1\n      iszero\n      tag_27\n      jumpi\n      0x00\n      dup1\n      revert\n    tag_27:\n      pop\n      tag_28\n      0x04\n      dup1\n      calldatasize\n      sub\n      dup2\n      add\n      swap1\n      tag_29\n      swap2\n      swap1\n      tag_30\n      jump\t// in\n    tag_29:\n      tag_31\n      jump\t// in\n    tag_28:\n      mload(0x40)\n      tag_32\n      swap2\n      swap1\n      tag_33\n      jump\t// in\n    tag_32:\n      mload(0x40)\n      dup1\n      swap2\n      sub\n      swap1\n      return\n        /* \"CrowdFunding/crowdfunding.sol\":215:235  uint public deadline */\n    tag_5:\n      callvalue\n      dup1\n      iszero\n      tag_34\n      jumpi\n      0x00\n      dup1\n      revert\n    tag_34:\n      pop\n      tag_35\n      tag_36\n      jump\t// in\n    tag_35:\n      mload(0x40)\n      tag_37\n      swap2\n      swap1\n      tag_33\n      jump\t// in\n    tag_37:\n      mload(0x40)\n      dup1\n      swap2\n      sub\n      swap1\n      return\n        /* \"CrowdFunding/crowdfunding.sol\":150:172  address public manager */\n    tag_6:\n      callvalue\n      dup1\n      iszero\n      tag_38\n      jumpi\n      0x00\n      dup1\n      revert\n    tag_38:\n      pop\n      tag_39\n      tag_40\n      jump\t// in\n    tag_39:\n      mload(0x40)\n      tag_41\n      swap2\n      swap1\n      tag_42\n      jump\t// in\n    tag_41:\n      mload(0x40)\n      dup1\n      swap2\n      sub\n      swap1\n      return\n        /* \"CrowdFunding/crowdfunding.sol\":2604:3166  function voteRequest(uint _requestNo) public{... */\n    tag_7:\n      callvalue\n      dup1\n      iszero\n      tag_43\n      jumpi\n      0x00\n      dup1\n      revert\n    tag_43:\n      pop\n      tag_44\n      0x04\n      dup1\n      calldatasize\n      sub\n      dup2\n      add\n      swap1\n      tag_45\n      swap2\n      swap1\n      tag_46\n      jump\t// in\n    tag_45:\n      tag_47\n      jump\t// in\n    tag_44:\n      stop\n        /* \"CrowdFunding/crowdfunding.sol\":301:329  uint public noOfContributors */\n    tag_8:\n      callvalue\n      dup1\n      iszero\n      tag_48\n      jumpi\n      0x00\n      dup1\n      revert\n    tag_48:\n      pop\n      tag_49\n      tag_50\n      jump\t// in\n    tag_49:\n      mload(0x40)\n      tag_51\n      swap2\n      swap1\n      tag_33\n      jump\t// in\n    tag_51:\n      mload(0x40)\n      dup1\n      swap2\n      sub\n      swap1\n      return\n        /* \"CrowdFunding/crowdfunding.sol\":3173:3316  function makePayment(uint _requestNo) public onlyManager{... */\n    tag_9:\n      callvalue\n      dup1\n      iszero\n      tag_52\n      jumpi\n      0x00\n      dup1\n      revert\n    tag_52:\n      pop\n      tag_53\n      0x04\n      dup1\n      calldatasize\n      sub\n      dup2\n      add\n      swap1\n      tag_54\n      swap2\n      swap1\n      tag_46\n      jump\t// in\n    tag_54:\n      tag_55\n      jump\t// in\n    tag_53:\n      stop\n        /* \"CrowdFunding/crowdfunding.sol\":1420:2066  function refund() public{... */\n    tag_10:\n      callvalue\n      dup1\n      iszero\n      tag_56\n      jumpi\n      0x00\n      dup1\n      revert\n    tag_56:\n      pop\n      tag_57\n      tag_58\n      jump\t// in\n    tag_57:\n      stop\n        /* \"CrowdFunding/crowdfunding.sol\":1249:1413  function getContractBalance() public view returns(uint){... */\n    tag_11:\n      callvalue\n      dup1\n      iszero\n      tag_59\n      jumpi\n      0x00\n      dup1\n      revert\n    tag_59:\n      pop\n      tag_60\n      tag_61\n      jump\t// in\n    tag_60:\n      mload(0x40)\n      tag_62\n      swap2\n      swap1\n      tag_33\n      jump\t// in\n    tag_62:\n      mload(0x40)\n      dup1\n      swap2\n      sub\n      swap1\n      return\n        /* \"CrowdFunding/crowdfunding.sol\":536:574  mapping(uint=>Request) public requests */\n    tag_12:\n      callvalue\n      dup1\n      iszero\n      tag_63\n      jumpi\n      0x00\n      dup1\n      revert\n    tag_63:\n      pop\n      tag_64\n      0x04\n      dup1\n      calldatasize\n      sub\n      dup2\n      add\n      swap1\n      tag_65\n      swap2\n      swap1\n      tag_46\n      jump\t// in\n    tag_65:\n      tag_66\n      jump\t// in\n    tag_64:\n      mload(0x40)\n      tag_67\n      swap6\n      swap5\n      swap4\n      swap3\n      swap2\n      swap1\n      tag_68\n      jump\t// in\n    tag_67:\n      mload(0x40)\n      dup1\n      swap2\n      sub\n      swap1\n      return\n        /* \"CrowdFunding/crowdfunding.sol\":178:209  uint public minimumContribution */\n    tag_13:\n      callvalue\n      dup1\n      iszero\n      tag_69\n      jumpi\n      0x00\n      dup1\n      revert\n    tag_69:\n      pop\n      tag_70\n      tag_71\n      jump\t// in\n    tag_70:\n      mload(0x40)\n      tag_72\n      swap2\n      swap1\n      tag_33\n      jump\t// in\n    tag_72:\n      mload(0x40)\n      dup1\n      swap2\n      sub\n      swap1\n      return\n        /* \"CrowdFunding/crowdfunding.sol\":241:265  uint public targetAmount */\n    tag_14:\n      callvalue\n      dup1\n      iszero\n      tag_73\n      jumpi\n      0x00\n      dup1\n      revert\n    tag_73:\n      pop\n      tag_74\n      tag_75\n      jump\t// in\n    tag_74:\n      mload(0x40)\n      tag_76\n      swap2\n      swap1\n      tag_33\n      jump\t// in\n    tag_76:\n      mload(0x40)\n      dup1\n      swap2\n      sub\n      swap1\n      return\n        /* \"CrowdFunding/crowdfunding.sol\":580:603  uint public numRequests */\n    tag_15:\n      callvalue\n      dup1\n      iszero\n      tag_77\n      jumpi\n      0x00\n      dup1\n      revert\n    tag_77:\n      pop\n      tag_78\n      tag_79\n      jump\t// in\n    tag_78:\n      mload(0x40)\n      tag_80\n      swap2\n      swap1\n      tag_33\n      jump\t// in\n    tag_80:\n      mload(0x40)\n      dup1\n      swap2\n      sub\n      swap1\n      return\n        /* \"CrowdFunding/crowdfunding.sol\":271:295  uint public raisedAmount */\n    tag_16:\n      callvalue\n      dup1\n      iszero\n      tag_81\n      jumpi\n      0x00\n      dup1\n      revert\n    tag_81:\n      pop\n      tag_82\n      tag_83\n      jump\t// in\n    tag_82:\n      mload(0x40)\n      tag_84\n      swap2\n      swap1\n      tag_33\n      jump\t// in\n    tag_84:\n      mload(0x40)\n      dup1\n      swap2\n      sub\n      swap1\n      return\n        /* \"CrowdFunding/crowdfunding.sol\":875:1242  function sendEth() public payable{... */\n    tag_21:\n        /* \"CrowdFunding/crowdfunding.sol\":944:952  deadline */\n      sload(0x03)\n        /* \"CrowdFunding/crowdfunding.sol\":926:941  block.timestamp */\n      timestamp\n        /* \"CrowdFunding/crowdfunding.sol\":926:952  block.timestamp < deadline */\n      lt\n        /* \"CrowdFunding/crowdfunding.sol\":918:993  require(block.timestamp < deadline, \"Sorry!! Deadline has already passed.\") */\n      tag_86\n      jumpi\n      mload(0x40)\n      0x08c379a000000000000000000000000000000000000000000000000000000000\n      dup2\n      mstore\n      0x04\n      add\n      tag_87\n      swap1\n      tag_88\n      jump\t// in\n    tag_87:\n      mload(0x40)\n      dup1\n      swap2\n      sub\n      swap1\n      revert\n    tag_86:\n        /* \"CrowdFunding/crowdfunding.sol\":1024:1043  minimumContribution */\n      sload(0x02)\n        /* \"CrowdFunding/crowdfunding.sol\":1011:1020  msg.value */\n      callvalue\n        /* \"CrowdFunding/crowdfunding.sol\":1011:1043  msg.value >= minimumContribution */\n      lt\n      iszero\n        /* \"CrowdFunding/crowdfunding.sol\":1003:1088  require(msg.value >= minimumContribution, \"Sorry!! you have to pay minimum 100 wei.\") */\n      tag_89\n      jumpi\n      mload(0x40)\n      0x08c379a000000000000000000000000000000000000000000000000000000000\n      dup2\n      mstore\n      0x04\n      add\n      tag_90\n      swap1\n      tag_91\n      jump\t// in\n    tag_90:\n      mload(0x40)\n      dup1\n      swap2\n      sub\n      swap1\n      revert\n    tag_89:\n        /* \"CrowdFunding/crowdfunding.sol\":1130:1131  0 */\n      0x00\n        /* \"CrowdFunding/crowdfunding.sol\":1102:1114  contributors */\n      dup1\n        /* \"CrowdFunding/crowdfunding.sol\":1102:1126  contributors[msg.sender] */\n      0x00\n        /* \"CrowdFunding/crowdfunding.sol\":1115:1125  msg.sender */\n      caller\n        /* \"CrowdFunding/crowdfunding.sol\":1102:1126  contributors[msg.sender] */\n      0xffffffffffffffffffffffffffffffffffffffff\n      and\n      0xffffffffffffffffffffffffffffffffffffffff\n      and\n      dup2\n      mstore\n      0x20\n      add\n      swap1\n      dup2\n      mstore\n      0x20\n      add\n      0x00\n      keccak256\n      sload\n        /* \"CrowdFunding/crowdfunding.sol\":1102:1131  contributors[msg.sender] == 0 */\n      eq\n        /* \"CrowdFunding/crowdfunding.sol\":1099:1151  if(contributors[msg.sender] == 0) noOfContributors++ */\n      iszero\n      tag_92\n      jumpi\n        /* \"CrowdFunding/crowdfunding.sol\":1133:1149  noOfContributors */\n      0x06\n      0x00\n        /* \"CrowdFunding/crowdfunding.sol\":1133:1151  noOfContributors++ */\n      dup2\n      sload\n      dup1\n      swap3\n      swap2\n      swap1\n      tag_93\n      swap1\n      tag_94\n      jump\t// in\n    tag_93:\n      swap2\n      swap1\n      pop\n      sstore\n      pop\n        /* \"CrowdFunding/crowdfunding.sol\":1099:1151  if(contributors[msg.sender] == 0) noOfContributors++ */\n    tag_92:\n        /* \"CrowdFunding/crowdfunding.sol\":1190:1199  msg.value */\n      callvalue\n        /* \"CrowdFunding/crowdfunding.sol\":1162:1174  contributors */\n      0x00\n        /* \"CrowdFunding/crowdfunding.sol\":1162:1186  contributors[msg.sender] */\n      dup1\n        /* \"CrowdFunding/crowdfunding.sol\":1175:1185  msg.sender */\n      caller\n        /* \"CrowdFunding/crowdfunding.sol\":1162:1186  contributors[msg.sender] */\n      0xffffffffffffffffffffffffffffffffffffffff\n      and\n      0xffffffffffffffffffffffffffffffffffffffff\n      and\n      dup2\n      mstore\n      0x20\n      add\n      swap1\n      dup2\n      mstore\n      0x20\n      add\n      0x00\n      keccak256\n      0x00\n        /* \"CrowdFunding/crowdfunding.sol\":1162:1199  contributors[msg.sender] += msg.value */\n      dup3\n      dup3\n      sload\n      tag_95\n      swap2\n      swap1\n      tag_96\n      jump\t// in\n    tag_95:\n      swap3\n      pop\n      pop\n      dup2\n      swap1\n      sstore\n      pop\n        /* \"CrowdFunding/crowdfunding.sol\":1225:1234  msg.value */\n      callvalue\n        /* \"CrowdFunding/crowdfunding.sol\":1209:1221  raisedAmount */\n      0x05\n      0x00\n        /* \"CrowdFunding/crowdfunding.sol\":1209:1234  raisedAmount += msg.value */\n      dup3\n      dup3\n      sload\n      tag_97\n      swap2\n      swap1\n      tag_96\n      jump\t// in\n    tag_97:\n      swap3\n      pop\n      pop\n      dup2\n      swap1\n      sstore\n      pop\n        /* \"CrowdFunding/crowdfunding.sol\":875:1242  function sendEth() public payable{... */\n      jump\t// out\n        /* \"CrowdFunding/crowdfunding.sol\":2198:2598  function createRequest(string memory _description, address payable _recipient, uint _value) public onlyManager{... */\n    tag_26:\n        /* \"CrowdFunding/crowdfunding.sol\":2127:2134  manager */\n      0x01\n      0x00\n      swap1\n      sload\n      swap1\n      0x0100\n      exp\n      swap1\n      div\n      0xffffffffffffffffffffffffffffffffffffffff\n      and\n        /* \"CrowdFunding/crowdfunding.sol\":2113:2134  msg.sender == manager */\n      0xffffffffffffffffffffffffffffffffffffffff\n      and\n        /* \"CrowdFunding/crowdfunding.sol\":2113:2123  msg.sender */\n      caller\n        /* \"CrowdFunding/crowdfunding.sol\":2113:2134  msg.sender == manager */\n      0xffffffffffffffffffffffffffffffffffffffff\n      and\n      eq\n        /* \"CrowdFunding/crowdfunding.sol\":2105:2174  require(msg.sender == manager, \"Only manager can call this feature.\") */\n      tag_99\n      jumpi\n      mload(0x40)\n      0x08c379a000000000000000000000000000000000000000000000000000000000\n      dup2\n      mstore\n      0x04\n      add\n      tag_100\n      swap1\n      tag_101\n      jump\t// in\n    tag_100:\n      mload(0x40)\n      dup1\n      swap2\n      sub\n      swap1\n      revert\n    tag_99:\n        /* \"CrowdFunding/crowdfunding.sol\":2318:2344  Request storage newRequest */\n      0x00\n        /* \"CrowdFunding/crowdfunding.sol\":2347:2355  requests */\n      0x07\n        /* \"CrowdFunding/crowdfunding.sol\":2347:2368  requests[numRequests] */\n      0x00\n        /* \"CrowdFunding/crowdfunding.sol\":2356:2367  numRequests */\n      sload(0x08)\n        /* \"CrowdFunding/crowdfunding.sol\":2347:2368  requests[numRequests] */\n      dup2\n      mstore\n      0x20\n      add\n      swap1\n      dup2\n      mstore\n      0x20\n      add\n      0x00\n      keccak256\n        /* \"CrowdFunding/crowdfunding.sol\":2318:2368  Request storage newRequest = requests[numRequests] */\n      swap1\n      pop\n        /* \"CrowdFunding/crowdfunding.sol\":2378:2389  numRequests */\n      0x08\n      0x00\n        /* \"CrowdFunding/crowdfunding.sol\":2378:2391  numRequests++ */\n      dup2\n      sload\n      dup1\n      swap3\n      swap2\n      swap1\n      tag_103\n      swap1\n      tag_94\n      jump\t// in\n    tag_103:\n      swap2\n      swap1\n      pop\n      sstore\n      pop\n        /* \"CrowdFunding/crowdfunding.sol\":2427:2439  _description */\n      dup4\n        /* \"CrowdFunding/crowdfunding.sol\":2402:2412  newRequest */\n      dup2\n        /* \"CrowdFunding/crowdfunding.sol\":2402:2424  newRequest.description */\n      0x00\n      add\n        /* \"CrowdFunding/crowdfunding.sol\":2402:2439  newRequest.description = _description */\n      swap1\n      dup1\n      mload\n      swap1\n      0x20\n      add\n      swap1\n      tag_104\n      swap3\n      swap2\n      swap1\n      tag_105\n      jump\t// in\n    tag_104:\n      pop\n        /* \"CrowdFunding/crowdfunding.sol\":2473:2483  _recipient */\n      dup3\n        /* \"CrowdFunding/crowdfunding.sol\":2449:2459  newRequest */\n      dup2\n        /* \"CrowdFunding/crowdfunding.sol\":2449:2470  newRequest.receipient */\n      0x02\n      add\n      0x00\n        /* \"CrowdFunding/crowdfunding.sol\":2449:2483  newRequest.receipient = _recipient */\n      0x0100\n      exp\n      dup2\n      sload\n      dup2\n      0xffffffffffffffffffffffffffffffffffffffff\n      mul\n      not\n      and\n      swap1\n      dup4\n      0xffffffffffffffffffffffffffffffffffffffff\n      and\n      mul\n      or\n      swap1\n      sstore\n      pop\n        /* \"CrowdFunding/crowdfunding.sol\":2512:2518  _value */\n      dup2\n        /* \"CrowdFunding/crowdfunding.sol\":2493:2503  newRequest */\n      dup2\n        /* \"CrowdFunding/crowdfunding.sol\":2493:2509  newRequest.value */\n      0x01\n      add\n        /* \"CrowdFunding/crowdfunding.sol\":2493:2518  newRequest.value = _value */\n      dup2\n      swap1\n      sstore\n      pop\n        /* \"CrowdFunding/crowdfunding.sol\":2551:2556  false */\n      0x00\n        /* \"CrowdFunding/crowdfunding.sol\":2528:2538  newRequest */\n      dup2\n        /* \"CrowdFunding/crowdfunding.sol\":2528:2548  newRequest.completed */\n      0x02\n      add\n      0x14\n        /* \"CrowdFunding/crowdfunding.sol\":2528:2556  newRequest.completed = false */\n      0x0100\n      exp\n      dup2\n      sload\n      dup2\n      0xff\n      mul\n      not\n      and\n      swap1\n      dup4\n      iszero\n      iszero\n      mul\n      or\n      swap1\n      sstore\n      pop\n        /* \"CrowdFunding/crowdfunding.sol\":2590:2591  0 */\n      0x00\n        /* \"CrowdFunding/crowdfunding.sol\":2566:2576  newRequest */\n      dup2\n        /* \"CrowdFunding/crowdfunding.sol\":2566:2587  newRequest.noOfVoters */\n      0x03\n      add\n        /* \"CrowdFunding/crowdfunding.sol\":2566:2591  newRequest.noOfVoters = 0 */\n      dup2\n      swap1\n      sstore\n      pop\n        /* \"CrowdFunding/crowdfunding.sol\":2308:2598  {... */\n      pop\n        /* \"CrowdFunding/crowdfunding.sol\":2198:2598  function createRequest(string memory _description, address payable _recipient, uint _value) public onlyManager{... */\n      pop\n      pop\n      pop\n      jump\t// out\n        /* \"CrowdFunding/crowdfunding.sol\":102:144  mapping(address=>uint) public contributors */\n    tag_31:\n      mstore(0x20, 0x00)\n      dup1\n      0x00\n      mstore\n      keccak256(0x00, 0x40)\n      0x00\n      swap2\n      pop\n      swap1\n      pop\n      sload\n      dup2\n      jump\t// out\n        /* \"CrowdFunding/crowdfunding.sol\":215:235  uint public deadline */\n    tag_36:\n      sload(0x03)\n      dup2\n      jump\t// out\n        /* \"CrowdFunding/crowdfunding.sol\":150:172  address public manager */\n    tag_40:\n      0x01\n      0x00\n      swap1\n      sload\n      swap1\n      0x0100\n      exp\n      swap1\n      div\n      0xffffffffffffffffffffffffffffffffffffffff\n      and\n      dup2\n      jump\t// out\n        /* \"CrowdFunding/crowdfunding.sol\":2604:3166  function voteRequest(uint _requestNo) public{... */\n    tag_47:\n        /* \"CrowdFunding/crowdfunding.sol\":2693:2694  0 */\n      0x00\n        /* \"CrowdFunding/crowdfunding.sol\":2666:2678  contributors */\n      dup1\n        /* \"CrowdFunding/crowdfunding.sol\":2666:2690  contributors[msg.sender] */\n      0x00\n        /* \"CrowdFunding/crowdfunding.sol\":2679:2689  msg.sender */\n      caller\n        /* \"CrowdFunding/crowdfunding.sol\":2666:2690  contributors[msg.sender] */\n      0xffffffffffffffffffffffffffffffffffffffff\n      and\n      0xffffffffffffffffffffffffffffffffffffffff\n      and\n      dup2\n      mstore\n      0x20\n      add\n      swap1\n      dup2\n      mstore\n      0x20\n      add\n      0x00\n      keccak256\n      sload\n        /* \"CrowdFunding/crowdfunding.sol\":2666:2694  contributors[msg.sender] > 0 */\n      gt\n        /* \"CrowdFunding/crowdfunding.sol\":2658:2766  require(contributors[msg.sender] > 0, \"Sorry!! You have to contribute first in order to eligible for vote.\") */\n      tag_107\n      jumpi\n      mload(0x40)\n      0x08c379a000000000000000000000000000000000000000000000000000000000\n      dup2\n      mstore\n      0x04\n      add\n      tag_108\n      swap1\n      tag_109\n      jump\t// in\n    tag_108:\n      mload(0x40)\n      dup1\n      swap2\n      sub\n      swap1\n      revert\n    tag_107:\n        /* \"CrowdFunding/crowdfunding.sol\":2798:2809  numRequests */\n      sload(0x08)\n        /* \"CrowdFunding/crowdfunding.sol\":2784:2794  _requestNo */\n      dup2\n        /* \"CrowdFunding/crowdfunding.sol\":2784:2809  _requestNo <= numRequests */\n      gt\n      iszero\n        /* \"CrowdFunding/crowdfunding.sol\":2784:2828  _requestNo <= numRequests && _requestNo >= 0 */\n      dup1\n      iszero\n      tag_110\n      jumpi\n      pop\n        /* \"CrowdFunding/crowdfunding.sol\":2827:2828  0 */\n      0x00\n        /* \"CrowdFunding/crowdfunding.sol\":2813:2823  _requestNo */\n      dup2\n        /* \"CrowdFunding/crowdfunding.sol\":2813:2828  _requestNo >= 0 */\n      lt\n      iszero\n        /* \"CrowdFunding/crowdfunding.sol\":2784:2828  _requestNo <= numRequests && _requestNo >= 0 */\n    tag_110:\n        /* \"CrowdFunding/crowdfunding.sol\":2776:2856  require(_requestNo <= numRequests && _requestNo >= 0, \"Invalid request number.\") */\n      tag_111\n      jumpi\n      mload(0x40)\n      0x08c379a000000000000000000000000000000000000000000000000000000000\n      dup2\n      mstore\n      0x04\n      add\n      tag_112\n      swap1\n      tag_113\n      jump\t// in\n    tag_112:\n      mload(0x40)\n      dup1\n      swap2\n      sub\n      swap1\n      revert\n    tag_111:\n        /* \"CrowdFunding/crowdfunding.sol\":2867:2897  Request storage currentRequest */\n      0x00\n        /* \"CrowdFunding/crowdfunding.sol\":2900:2908  requests */\n      0x07\n        /* \"CrowdFunding/crowdfunding.sol\":2900:2920  requests[_requestNo] */\n      0x00\n        /* \"CrowdFunding/crowdfunding.sol\":2909:2919  _requestNo */\n      dup4\n        /* \"CrowdFunding/crowdfunding.sol\":2900:2920  requests[_requestNo] */\n      dup2\n      mstore\n      0x20\n      add\n      swap1\n      dup2\n      mstore\n      0x20\n      add\n      0x00\n      keccak256\n        /* \"CrowdFunding/crowdfunding.sol\":2867:2920  Request storage currentRequest = requests[_requestNo] */\n      swap1\n      pop\n        /* \"CrowdFunding/crowdfunding.sol\":2976:2981  false */\n      0x00\n        /* \"CrowdFunding/crowdfunding.sol\":2939:2981  currentRequest.voters[msg.sender] == false */\n      iszero\n      iszero\n        /* \"CrowdFunding/crowdfunding.sol\":2939:2953  currentRequest */\n      dup2\n        /* \"CrowdFunding/crowdfunding.sol\":2939:2960  currentRequest.voters */\n      0x04\n      add\n        /* \"CrowdFunding/crowdfunding.sol\":2939:2972  currentRequest.voters[msg.sender] */\n      0x00\n        /* \"CrowdFunding/crowdfunding.sol\":2961:2971  msg.sender */\n      caller\n        /* \"CrowdFunding/crowdfunding.sol\":2939:2972  currentRequest.voters[msg.sender] */\n      0xffffffffffffffffffffffffffffffffffffffff\n      and\n      0xffffffffffffffffffffffffffffffffffffffff\n      and\n      dup2\n      mstore\n      0x20\n      add\n      swap1\n      dup2\n      mstore\n      0x20\n      add\n      0x00\n      keccak256\n      0x00\n      swap1\n      sload\n      swap1\n      0x0100\n      exp\n      swap1\n      div\n      0xff\n      and\n        /* \"CrowdFunding/crowdfunding.sol\":2939:2981  currentRequest.voters[msg.sender] == false */\n      iszero\n      iszero\n      eq\n        /* \"CrowdFunding/crowdfunding.sol\":2931:3072  require(currentRequest.voters[msg.sender] == false, \"Opps!! you already put your vote for this request. You can only vote once per request.\") */\n      tag_114\n      jumpi\n      mload(0x40)\n      0x08c379a000000000000000000000000000000000000000000000000000000000\n      dup2\n      mstore\n      0x04\n      add\n      tag_115\n      swap1\n      tag_116\n      jump\t// in\n    tag_115:\n      mload(0x40)\n      dup1\n      swap2\n      sub\n      swap1\n      revert\n    tag_114:\n        /* \"CrowdFunding/crowdfunding.sol\":3118:3122  true */\n      0x01\n        /* \"CrowdFunding/crowdfunding.sol\":3082:3096  currentRequest */\n      dup2\n        /* \"CrowdFunding/crowdfunding.sol\":3082:3103  currentRequest.voters */\n      0x04\n      add\n        /* \"CrowdFunding/crowdfunding.sol\":3082:3115  currentRequest.voters[msg.sender] */\n      0x00\n        /* \"CrowdFunding/crowdfunding.sol\":3104:3114  msg.sender */\n      caller\n        /* \"CrowdFunding/crowdfunding.sol\":3082:3115  currentRequest.voters[msg.sender] */\n      0xffffffffffffffffffffffffffffffffffffffff\n      and\n      0xffffffffffffffffffffffffffffffffffffffff\n      and\n      dup2\n      mstore\n      0x20\n      add\n      swap1\n      dup2\n      mstore\n      0x20\n      add\n      0x00\n      keccak256\n      0x00\n        /* \"CrowdFunding/crowdfunding.sol\":3082:3122  currentRequest.voters[msg.sender] = true */\n      0x0100\n      exp\n      dup2\n      sload\n      dup2\n      0xff\n      mul\n      not\n      and\n      swap1\n      dup4\n      iszero\n      iszero\n      mul\n      or\n      swap1\n      sstore\n      pop\n        /* \"CrowdFunding/crowdfunding.sol\":3132:3146  currentRequest */\n      dup1\n        /* \"CrowdFunding/crowdfunding.sol\":3132:3157  currentRequest.noOfVoters */\n      0x03\n      add\n      0x00\n        /* \"CrowdFunding/crowdfunding.sol\":3132:3159  currentRequest.noOfVoters++ */\n      dup2\n      sload\n      dup1\n      swap3\n      swap2\n      swap1\n      tag_117\n      swap1\n      tag_94\n      jump\t// in\n    tag_117:\n      swap2\n      swap1\n      pop\n      sstore\n      pop\n        /* \"CrowdFunding/crowdfunding.sol\":2648:3166  {... */\n      pop\n        /* \"CrowdFunding/crowdfunding.sol\":2604:3166  function voteRequest(uint _requestNo) public{... */\n      pop\n      jump\t// out\n        /* \"CrowdFunding/crowdfunding.sol\":301:329  uint public noOfContributors */\n    tag_50:\n      sload(0x06)\n      dup2\n      jump\t// out\n        /* \"CrowdFunding/crowdfunding.sol\":3173:3316  function makePayment(uint _requestNo) public onlyManager{... */\n    tag_55:\n        /* \"CrowdFunding/crowdfunding.sol\":2127:2134  manager */\n      0x01\n      0x00\n      swap1\n      sload\n      swap1\n      0x0100\n      exp\n      swap1\n      div\n      0xffffffffffffffffffffffffffffffffffffffff\n      and\n        /* \"CrowdFunding/crowdfunding.sol\":2113:2134  msg.sender == manager */\n      0xffffffffffffffffffffffffffffffffffffffff\n      and\n        /* \"CrowdFunding/crowdfunding.sol\":2113:2123  msg.sender */\n      caller\n        /* \"CrowdFunding/crowdfunding.sol\":2113:2134  msg.sender == manager */\n      0xffffffffffffffffffffffffffffffffffffffff\n      and\n      eq\n        /* \"CrowdFunding/crowdfunding.sol\":2105:2174  require(msg.sender == manager, \"Only manager can call this feature.\") */\n      tag_119\n      jumpi\n      mload(0x40)\n      0x08c379a000000000000000000000000000000000000000000000000000000000\n      dup2\n      mstore\n      0x04\n      add\n      tag_120\n      swap1\n      tag_101\n      jump\t// in\n    tag_120:\n      mload(0x40)\n      dup1\n      swap2\n      sub\n      swap1\n      revert\n    tag_119:\n        /* \"CrowdFunding/crowdfunding.sol\":3261:3272  numRequests */\n      sload(0x08)\n        /* \"CrowdFunding/crowdfunding.sol\":3247:3257  _requestNo */\n      dup2\n        /* \"CrowdFunding/crowdfunding.sol\":3247:3272  _requestNo <= numRequests */\n      gt\n      iszero\n        /* \"CrowdFunding/crowdfunding.sol\":3239:3300  require(_requestNo <= numRequests, \"Invalid Request Number.\") */\n      tag_122\n      jumpi\n      mload(0x40)\n      0x08c379a000000000000000000000000000000000000000000000000000000000\n      dup2\n      mstore\n      0x04\n      add\n      tag_123\n      swap1\n      tag_124\n      jump\t// in\n    tag_123:\n      mload(0x40)\n      dup1\n      swap2\n      sub\n      swap1\n      revert\n    tag_122:\n        /* \"CrowdFunding/crowdfunding.sol\":3173:3316  function makePayment(uint _requestNo) public onlyManager{... */\n      pop\n      jump\t// out\n        /* \"CrowdFunding/crowdfunding.sol\":1420:2066  function refund() public{... */\n    tag_58:\n        /* \"CrowdFunding/crowdfunding.sol\":1480:1488  deadline */\n      sload(0x03)\n        /* \"CrowdFunding/crowdfunding.sol\":1462:1477  block.timestamp */\n      timestamp\n        /* \"CrowdFunding/crowdfunding.sol\":1462:1488  block.timestamp > deadline */\n      gt\n        /* \"CrowdFunding/crowdfunding.sol\":1462:1519  block.timestamp > deadline && raisedAmount < targetAmount */\n      dup1\n      iszero\n      tag_126\n      jumpi\n      pop\n        /* \"CrowdFunding/crowdfunding.sol\":1507:1519  targetAmount */\n      sload(0x04)\n        /* \"CrowdFunding/crowdfunding.sol\":1492:1504  raisedAmount */\n      sload(0x05)\n        /* \"CrowdFunding/crowdfunding.sol\":1492:1519  raisedAmount < targetAmount */\n      lt\n        /* \"CrowdFunding/crowdfunding.sol\":1462:1519  block.timestamp > deadline && raisedAmount < targetAmount */\n    tag_126:\n        /* \"CrowdFunding/crowdfunding.sol\":1454:1664  require(block.timestamp > deadline && raisedAmount < targetAmount, \"Sorry, refund has not started yet for anyone because either deadline has not cross or the raised amount is equal or more than target amount.\") */\n      tag_127\n      jumpi\n      mload(0x40)\n      0x08c379a000000000000000000000000000000000000000000000000000000000\n      dup2\n      mstore\n      0x04\n      add\n      tag_128\n      swap1\n      tag_129\n      jump\t// in\n    tag_128:\n      mload(0x40)\n      dup1\n      swap2\n      sub\n      swap1\n      revert\n    tag_127:\n        /* \"CrowdFunding/crowdfunding.sol\":1709:1710  0 */\n      0x00\n        /* \"CrowdFunding/crowdfunding.sol\":1682:1694  contributors */\n      dup1\n        /* \"CrowdFunding/crowdfunding.sol\":1682:1706  contributors[msg.sender] */\n      0x00\n        /* \"CrowdFunding/crowdfunding.sol\":1695:1705  msg.sender */\n      caller\n        /* \"CrowdFunding/crowdfunding.sol\":1682:1706  contributors[msg.sender] */\n      0xffffffffffffffffffffffffffffffffffffffff\n      and\n      0xffffffffffffffffffffffffffffffffffffffff\n      and\n      dup2\n      mstore\n      0x20\n      add\n      swap1\n      dup2\n      mstore\n      0x20\n      add\n      0x00\n      keccak256\n      sload\n        /* \"CrowdFunding/crowdfunding.sol\":1682:1710  contributors[msg.sender] > 0 */\n      gt\n        /* \"CrowdFunding/crowdfunding.sol\":1674:1739  require(contributors[msg.sender] > 0, \"You haven't contributed.\") */\n      tag_130\n      jumpi\n      mload(0x40)\n      0x08c379a000000000000000000000000000000000000000000000000000000000\n      dup2\n      mstore\n      0x04\n      add\n      tag_131\n      swap1\n      tag_132\n      jump\t// in\n    tag_131:\n      mload(0x40)\n      dup1\n      swap2\n      sub\n      swap1\n      revert\n    tag_130:\n        /* \"CrowdFunding/crowdfunding.sol\":1750:1781  address payable receiverAddress */\n      0x00\n        /* \"CrowdFunding/crowdfunding.sol\":1792:1802  msg.sender */\n      caller\n        /* \"CrowdFunding/crowdfunding.sol\":1750:1803  address payable receiverAddress = payable(msg.sender) */\n      swap1\n      pop\n        /* \"CrowdFunding/crowdfunding.sol\":1813:1828  receiverAddress */\n      dup1\n        /* \"CrowdFunding/crowdfunding.sol\":1813:1837  receiverAddress.transfer */\n      0xffffffffffffffffffffffffffffffffffffffff\n      and\n        /* \"CrowdFunding/crowdfunding.sol\":1813:1863  receiverAddress.transfer(contributors[msg.sender]) */\n      0x08fc\n        /* \"CrowdFunding/crowdfunding.sol\":1838:1850  contributors */\n      0x00\n        /* \"CrowdFunding/crowdfunding.sol\":1838:1862  contributors[msg.sender] */\n      dup1\n        /* \"CrowdFunding/crowdfunding.sol\":1851:1861  msg.sender */\n      caller\n        /* \"CrowdFunding/crowdfunding.sol\":1838:1862  contributors[msg.sender] */\n      0xffffffffffffffffffffffffffffffffffffffff\n      and\n      0xffffffffffffffffffffffffffffffffffffffff\n      and\n      dup2\n      mstore\n      0x20\n      add\n      swap1\n      dup2\n      mstore\n      0x20\n      add\n      0x00\n      keccak256\n      sload\n        /* \"CrowdFunding/crowdfunding.sol\":1813:1863  receiverAddress.transfer(contributors[msg.sender]) */\n      swap1\n      dup2\n      iszero\n      mul\n      swap1\n      mload(0x40)\n      0x00\n      mload(0x40)\n      dup1\n      dup4\n      sub\n      dup2\n      dup6\n      dup9\n      dup9\n      call\n      swap4\n      pop\n      pop\n      pop\n      pop\n      iszero\n      dup1\n      iszero\n      tag_134\n      jumpi\n      returndatasize\n      0x00\n      dup1\n      returndatacopy\n      revert(0x00, returndatasize)\n    tag_134:\n      pop\n        /* \"CrowdFunding/crowdfunding.sol\":1890:1902  contributors */\n      0x00\n        /* \"CrowdFunding/crowdfunding.sol\":1890:1914  contributors[msg.sender] */\n      dup1\n        /* \"CrowdFunding/crowdfunding.sol\":1903:1913  msg.sender */\n      caller\n        /* \"CrowdFunding/crowdfunding.sol\":1890:1914  contributors[msg.sender] */\n      0xffffffffffffffffffffffffffffffffffffffff\n      and\n      0xffffffffffffffffffffffffffffffffffffffff\n      and\n      dup2\n      mstore\n      0x20\n      add\n      swap1\n      dup2\n      mstore\n      0x20\n      add\n      0x00\n      keccak256\n      sload\n        /* \"CrowdFunding/crowdfunding.sol\":1874:1886  raisedAmount */\n      0x05\n      0x00\n        /* \"CrowdFunding/crowdfunding.sol\":1874:1914  raisedAmount -= contributors[msg.sender] */\n      dup3\n      dup3\n      sload\n      tag_135\n      swap2\n      swap1\n      tag_136\n      jump\t// in\n    tag_135:\n      swap3\n      pop\n      pop\n      dup2\n      swap1\n      sstore\n      pop\n        /* \"CrowdFunding/crowdfunding.sol\":2029:2030  0 */\n      0x00\n        /* \"CrowdFunding/crowdfunding.sol\":2002:2014  contributors */\n      dup1\n        /* \"CrowdFunding/crowdfunding.sol\":2002:2026  contributors[msg.sender] */\n      0x00\n        /* \"CrowdFunding/crowdfunding.sol\":2015:2025  msg.sender */\n      caller\n        /* \"CrowdFunding/crowdfunding.sol\":2002:2026  contributors[msg.sender] */\n      0xffffffffffffffffffffffffffffffffffffffff\n      and\n      0xffffffffffffffffffffffffffffffffffffffff\n      and\n      dup2\n      mstore\n      0x20\n      add\n      swap1\n      dup2\n      mstore\n      0x20\n      add\n      0x00\n      keccak256\n        /* \"CrowdFunding/crowdfunding.sol\":2002:2030  contributors[msg.sender] = 0 */\n      dup2\n      swap1\n      sstore\n      pop\n        /* \"CrowdFunding/crowdfunding.sol\":2040:2056  noOfContributors */\n      0x06\n      0x00\n        /* \"CrowdFunding/crowdfunding.sol\":2040:2058  noOfContributors-- */\n      dup2\n      sload\n      dup1\n      swap3\n      swap2\n      swap1\n      tag_137\n      swap1\n      tag_138\n      jump\t// in\n    tag_137:\n      swap2\n      swap1\n      pop\n      sstore\n      pop\n        /* \"CrowdFunding/crowdfunding.sol\":1444:2066  {... */\n      pop\n        /* \"CrowdFunding/crowdfunding.sol\":1420:2066  function refund() public{... */\n      jump\t// out\n        /* \"CrowdFunding/crowdfunding.sol\":1249:1413  function getContractBalance() public view returns(uint){... */\n    tag_61:\n        /* \"CrowdFunding/crowdfunding.sol\":1299:1303  uint */\n      0x00\n        /* \"CrowdFunding/crowdfunding.sol\":1385:1406  address(this).balance */\n      selfbalance\n        /* \"CrowdFunding/crowdfunding.sol\":1378:1406  return address(this).balance */\n      swap1\n      pop\n        /* \"CrowdFunding/crowdfunding.sol\":1249:1413  function getContractBalance() public view returns(uint){... */\n      swap1\n      jump\t// out\n        /* \"CrowdFunding/crowdfunding.sol\":536:574  mapping(uint=>Request) public requests */\n    tag_66:\n      mstore(0x20, 0x07)\n      dup1\n      0x00\n      mstore\n      keccak256(0x00, 0x40)\n      0x00\n      swap2\n      pop\n      swap1\n      pop\n      dup1\n      0x00\n      add\n      dup1\n      sload\n      tag_140\n      swap1\n      tag_141\n      jump\t// in\n    tag_140:\n      dup1\n      0x1f\n      add\n      0x20\n      dup1\n      swap2\n      div\n      mul\n      0x20\n      add\n      mload(0x40)\n      swap1\n      dup2\n      add\n      0x40\n      mstore\n      dup1\n      swap3\n      swap2\n      swap1\n      dup2\n      dup2\n      mstore\n      0x20\n      add\n      dup3\n      dup1\n      sload\n      tag_142\n      swap1\n      tag_141\n      jump\t// in\n    tag_142:\n      dup1\n      iszero\n      tag_143\n      jumpi\n      dup1\n      0x1f\n      lt\n      tag_144\n      jumpi\n      0x0100\n      dup1\n      dup4\n      sload\n      div\n      mul\n      dup4\n      mstore\n      swap2\n      0x20\n      add\n      swap2\n      jump(tag_143)\n    tag_144:\n      dup3\n      add\n      swap2\n      swap1\n      0x00\n      mstore\n      keccak256(0x00, 0x20)\n      swap1\n    tag_145:\n      dup2\n      sload\n      dup2\n      mstore\n      swap1\n      0x01\n      add\n      swap1\n      0x20\n      add\n      dup1\n      dup4\n      gt\n      tag_145\n      jumpi\n      dup3\n      swap1\n      sub\n      0x1f\n      and\n      dup3\n      add\n      swap2\n    tag_143:\n      pop\n      pop\n      pop\n      pop\n      pop\n      swap1\n      dup1\n      0x01\n      add\n      sload\n      swap1\n      dup1\n      0x02\n      add\n      0x00\n      swap1\n      sload\n      swap1\n      0x0100\n      exp\n      swap1\n      div\n      0xffffffffffffffffffffffffffffffffffffffff\n      and\n      swap1\n      dup1\n      0x02\n      add\n      0x14\n      swap1\n      sload\n      swap1\n      0x0100\n      exp\n      swap1\n      div\n      0xff\n      and\n      swap1\n      dup1\n      0x03\n      add\n      sload\n      swap1\n      pop\n      dup6\n      jump\t// out\n        /* \"CrowdFunding/crowdfunding.sol\":178:209  uint public minimumContribution */\n    tag_71:\n      sload(0x02)\n      dup2\n      jump\t// out\n        /* \"CrowdFunding/crowdfunding.sol\":241:265  uint public targetAmount */\n    tag_75:\n      sload(0x04)\n      dup2\n      jump\t// out\n        /* \"CrowdFunding/crowdfunding.sol\":580:603  uint public numRequests */\n    tag_79:\n      sload(0x08)\n      dup2\n      jump\t// out\n        /* \"CrowdFunding/crowdfunding.sol\":271:295  uint public raisedAmount */\n    tag_83:\n      sload(0x05)\n      dup2\n      jump\t// out\n    tag_105:\n      dup3\n      dup1\n      sload\n      tag_146\n      swap1\n      tag_141\n      jump\t// in\n    tag_146:\n      swap1\n      0x00\n      mstore\n      keccak256(0x00, 0x20)\n      swap1\n      0x1f\n      add\n      0x20\n      swap1\n      div\n      dup2\n      add\n      swap3\n      dup3\n      tag_148\n      jumpi\n      0x00\n      dup6\n      sstore\n      jump(tag_147)\n    tag_148:\n      dup3\n      0x1f\n      lt\n      tag_149\n      jumpi\n      dup1\n      mload\n      not(0xff)\n      and\n      dup4\n      dup1\n      add\n      or\n      dup6\n      sstore\n      jump(tag_147)\n    tag_149:\n      dup3\n      dup1\n      add\n      0x01\n      add\n      dup6\n      sstore\n      dup3\n      iszero\n      tag_147\n      jumpi\n      swap2\n      dup3\n      add\n    tag_150:\n      dup3\n      dup2\n      gt\n      iszero\n      tag_151\n      jumpi\n      dup3\n      mload\n      dup3\n      sstore\n      swap2\n      0x20\n      add\n      swap2\n      swap1\n      0x01\n      add\n      swap1\n      jump(tag_150)\n    tag_151:\n    tag_147:\n      pop\n      swap1\n      pop\n      tag_152\n      swap2\n      swap1\n      tag_153\n      jump\t// in\n    tag_152:\n      pop\n      swap1\n      jump\t// out\n    tag_153:\n    tag_154:\n      dup1\n      dup3\n      gt\n      iszero\n      tag_155\n      jumpi\n      0x00\n      dup2\n      0x00\n      swap1\n      sstore\n      pop\n      0x01\n      add\n      jump(tag_154)\n    tag_155:\n      pop\n      swap1\n      jump\t// out\n        /* \"#utility.yul\":7:419   */\n    tag_157:\n        /* \"#utility.yul\":85:90   */\n      0x00\n        /* \"#utility.yul\":110:176   */\n      tag_159\n        /* \"#utility.yul\":126:175   */\n      tag_160\n        /* \"#utility.yul\":168:174   */\n      dup5\n        /* \"#utility.yul\":126:175   */\n      tag_161\n      jump\t// in\n    tag_160:\n        /* \"#utility.yul\":110:176   */\n      tag_162\n      jump\t// in\n    tag_159:\n        /* \"#utility.yul\":101:176   */\n      swap1\n      pop\n        /* \"#utility.yul\":199:205   */\n      dup3\n        /* \"#utility.yul\":192:197   */\n      dup2\n        /* \"#utility.yul\":185:206   */\n      mstore\n        /* \"#utility.yul\":237:241   */\n      0x20\n        /* \"#utility.yul\":230:235   */\n      dup2\n        /* \"#utility.yul\":226:242   */\n      add\n        /* \"#utility.yul\":275:278   */\n      dup5\n        /* \"#utility.yul\":266:272   */\n      dup5\n        /* \"#utility.yul\":261:264   */\n      dup5\n        /* \"#utility.yul\":257:273   */\n      add\n        /* \"#utility.yul\":254:279   */\n      gt\n        /* \"#utility.yul\":251:363   */\n      iszero\n      tag_163\n      jumpi\n        /* \"#utility.yul\":282:361   */\n      tag_164\n      tag_165\n      jump\t// in\n    tag_164:\n        /* \"#utility.yul\":251:363   */\n    tag_163:\n        /* \"#utility.yul\":372:413   */\n      tag_166\n        /* \"#utility.yul\":406:412   */\n      dup5\n        /* \"#utility.yul\":401:404   */\n      dup3\n        /* \"#utility.yul\":396:399   */\n      dup6\n        /* \"#utility.yul\":372:413   */\n      tag_167\n      jump\t// in\n    tag_166:\n        /* \"#utility.yul\":91:419   */\n      pop\n        /* \"#utility.yul\":7:419   */\n      swap4\n      swap3\n      pop\n      pop\n      pop\n      jump\t// out\n        /* \"#utility.yul\":425:564   */\n    tag_168:\n        /* \"#utility.yul\":471:476   */\n      0x00\n        /* \"#utility.yul\":509:515   */\n      dup2\n        /* \"#utility.yul\":496:516   */\n      calldataload\n        /* \"#utility.yul\":487:516   */\n      swap1\n      pop\n        /* \"#utility.yul\":525:558   */\n      tag_170\n        /* \"#utility.yul\":552:557   */\n      dup2\n        /* \"#utility.yul\":525:558   */\n      tag_171\n      jump\t// in\n    tag_170:\n        /* \"#utility.yul\":425:564   */\n      swap3\n      swap2\n      pop\n      pop\n      jump\t// out\n        /* \"#utility.yul\":570:725   */\n    tag_172:\n        /* \"#utility.yul\":624:629   */\n      0x00\n        /* \"#utility.yul\":662:668   */\n      dup2\n        /* \"#utility.yul\":649:669   */\n      calldataload\n        /* \"#utility.yul\":640:669   */\n      swap1\n      pop\n        /* \"#utility.yul\":678:719   */\n      tag_174\n        /* \"#utility.yul\":713:718   */\n      dup2\n        /* \"#utility.yul\":678:719   */\n      tag_175\n      jump\t// in\n    tag_174:\n        /* \"#utility.yul\":570:725   */\n      swap3\n      swap2\n      pop\n      pop\n      jump\t// out\n        /* \"#utility.yul\":745:1085   */\n    tag_176:\n        /* \"#utility.yul\":801:806   */\n      0x00\n        /* \"#utility.yul\":850:853   */\n      dup3\n        /* \"#utility.yul\":843:847   */\n      0x1f\n        /* \"#utility.yul\":835:841   */\n      dup4\n        /* \"#utility.yul\":831:848   */\n      add\n        /* \"#utility.yul\":827:854   */\n      slt\n        /* \"#utility.yul\":817:939   */\n      tag_178\n      jumpi\n        /* \"#utility.yul\":858:937   */\n      tag_179\n      tag_180\n      jump\t// in\n    tag_179:\n        /* \"#utility.yul\":817:939   */\n    tag_178:\n        /* \"#utility.yul\":975:981   */\n      dup2\n        /* \"#utility.yul\":962:982   */\n      calldataload\n        /* \"#utility.yul\":1000:1079   */\n      tag_181\n        /* \"#utility.yul\":1075:1078   */\n      dup5\n        /* \"#utility.yul\":1067:1073   */\n      dup3\n        /* \"#utility.yul\":1060:1064   */\n      0x20\n        /* \"#utility.yul\":1052:1058   */\n      dup7\n        /* \"#utility.yul\":1048:1065   */\n      add\n        /* \"#utility.yul\":1000:1079   */\n      tag_157\n      jump\t// in\n    tag_181:\n        /* \"#utility.yul\":991:1079   */\n      swap2\n      pop\n        /* \"#utility.yul\":807:1085   */\n      pop\n        /* \"#utility.yul\":745:1085   */\n      swap3\n      swap2\n      pop\n      pop\n      jump\t// out\n        /* \"#utility.yul\":1091:1230   */\n    tag_182:\n        /* \"#utility.yul\":1137:1142   */\n      0x00\n        /* \"#utility.yul\":1175:1181   */\n      dup2\n        /* \"#utility.yul\":1162:1182   */\n      calldataload\n        /* \"#utility.yul\":1153:1182   */\n      swap1\n      pop\n        /* \"#utility.yul\":1191:1224   */\n      tag_184\n        /* \"#utility.yul\":1218:1223   */\n      dup2\n        /* \"#utility.yul\":1191:1224   */\n      tag_185\n      jump\t// in\n    tag_184:\n        /* \"#utility.yul\":1091:1230   */\n      swap3\n      swap2\n      pop\n      pop\n      jump\t// out\n        /* \"#utility.yul\":1236:1565   */\n    tag_30:\n        /* \"#utility.yul\":1295:1301   */\n      0x00\n        /* \"#utility.yul\":1344:1346   */\n      0x20\n        /* \"#utility.yul\":1332:1341   */\n      dup3\n        /* \"#utility.yul\":1323:1330   */\n      dup5\n        /* \"#utility.yul\":1319:1342   */\n      sub\n        /* \"#utility.yul\":1315:1347   */\n      slt\n        /* \"#utility.yul\":1312:1431   */\n      iszero\n      tag_187\n      jumpi\n        /* \"#utility.yul\":1350:1429   */\n      tag_188\n      tag_189\n      jump\t// in\n    tag_188:\n        /* \"#utility.yul\":1312:1431   */\n    tag_187:\n        /* \"#utility.yul\":1470:1471   */\n      0x00\n        /* \"#utility.yul\":1495:1548   */\n      tag_190\n        /* \"#utility.yul\":1540:1547   */\n      dup5\n        /* \"#utility.yul\":1531:1537   */\n      dup3\n        /* \"#utility.yul\":1520:1529   */\n      dup6\n        /* \"#utility.yul\":1516:1538   */\n      add\n        /* \"#utility.yul\":1495:1548   */\n      tag_168\n      jump\t// in\n    tag_190:\n        /* \"#utility.yul\":1485:1548   */\n      swap2\n      pop\n        /* \"#utility.yul\":1441:1558   */\n      pop\n        /* \"#utility.yul\":1236:1565   */\n      swap3\n      swap2\n      pop\n      pop\n      jump\t// out\n        /* \"#utility.yul\":1571:2386   */\n    tag_25:\n        /* \"#utility.yul\":1666:1672   */\n      0x00\n        /* \"#utility.yul\":1674:1680   */\n      dup1\n        /* \"#utility.yul\":1682:1688   */\n      0x00\n        /* \"#utility.yul\":1731:1733   */\n      0x60\n        /* \"#utility.yul\":1719:1728   */\n      dup5\n        /* \"#utility.yul\":1710:1717   */\n      dup7\n        /* \"#utility.yul\":1706:1729   */\n      sub\n        /* \"#utility.yul\":1702:1734   */\n      slt\n        /* \"#utility.yul\":1699:1818   */\n      iszero\n      tag_192\n      jumpi\n        /* \"#utility.yul\":1737:1816   */\n      tag_193\n      tag_189\n      jump\t// in\n    tag_193:\n        /* \"#utility.yul\":1699:1818   */\n    tag_192:\n        /* \"#utility.yul\":1885:1886   */\n      0x00\n        /* \"#utility.yul\":1874:1883   */\n      dup5\n        /* \"#utility.yul\":1870:1887   */\n      add\n        /* \"#utility.yul\":1857:1888   */\n      calldataload\n        /* \"#utility.yul\":1915:1933   */\n      0xffffffffffffffff\n        /* \"#utility.yul\":1907:1913   */\n      dup2\n        /* \"#utility.yul\":1904:1934   */\n      gt\n        /* \"#utility.yul\":1901:2018   */\n      iszero\n      tag_194\n      jumpi\n        /* \"#utility.yul\":1937:2016   */\n      tag_195\n      tag_196\n      jump\t// in\n    tag_195:\n        /* \"#utility.yul\":1901:2018   */\n    tag_194:\n        /* \"#utility.yul\":2042:2105   */\n      tag_197\n        /* \"#utility.yul\":2097:2104   */\n      dup7\n        /* \"#utility.yul\":2088:2094   */\n      dup3\n        /* \"#utility.yul\":2077:2086   */\n      dup8\n        /* \"#utility.yul\":2073:2095   */\n      add\n        /* \"#utility.yul\":2042:2105   */\n      tag_176\n      jump\t// in\n    tag_197:\n        /* \"#utility.yul\":2032:2105   */\n      swap4\n      pop\n        /* \"#utility.yul\":1828:2115   */\n      pop\n        /* \"#utility.yul\":2154:2156   */\n      0x20\n        /* \"#utility.yul\":2180:2241   */\n      tag_198\n        /* \"#utility.yul\":2233:2240   */\n      dup7\n        /* \"#utility.yul\":2224:2230   */\n      dup3\n        /* \"#utility.yul\":2213:2222   */\n      dup8\n        /* \"#utility.yul\":2209:2231   */\n      add\n        /* \"#utility.yul\":2180:2241   */\n      tag_172\n      jump\t// in\n    tag_198:\n        /* \"#utility.yul\":2170:2241   */\n      swap3\n      pop\n        /* \"#utility.yul\":2125:2251   */\n      pop\n        /* \"#utility.yul\":2290:2292   */\n      0x40\n        /* \"#utility.yul\":2316:2369   */\n      tag_199\n        /* \"#utility.yul\":2361:2368   */\n      dup7\n        /* \"#utility.yul\":2352:2358   */\n      dup3\n        /* \"#utility.yul\":2341:2350   */\n      dup8\n        /* \"#utility.yul\":2337:2359   */\n      add\n        /* \"#utility.yul\":2316:2369   */\n      tag_182\n      jump\t// in\n    tag_199:\n        /* \"#utility.yul\":2306:2369   */\n      swap2\n      pop\n        /* \"#utility.yul\":2261:2379   */\n      pop\n        /* \"#utility.yul\":1571:2386   */\n      swap3\n      pop\n      swap3\n      pop\n      swap3\n      jump\t// out\n        /* \"#utility.yul\":2392:2721   */\n    tag_46:\n        /* \"#utility.yul\":2451:2457   */\n      0x00\n        /* \"#utility.yul\":2500:2502   */\n      0x20\n        /* \"#utility.yul\":2488:2497   */\n      dup3\n        /* \"#utility.yul\":2479:2486   */\n      dup5\n        /* \"#utility.yul\":2475:2498   */\n      sub\n        /* \"#utility.yul\":2471:2503   */\n      slt\n        /* \"#utility.yul\":2468:2587   */\n      iszero\n      tag_201\n      jumpi\n        /* \"#utility.yul\":2506:2585   */\n      tag_202\n      tag_189\n      jump\t// in\n    tag_202:\n        /* \"#utility.yul\":2468:2587   */\n    tag_201:\n        /* \"#utility.yul\":2626:2627   */\n      0x00\n        /* \"#utility.yul\":2651:2704   */\n      tag_203\n        /* \"#utility.yul\":2696:2703   */\n      dup5\n        /* \"#utility.yul\":2687:2693   */\n      dup3\n        /* \"#utility.yul\":2676:2685   */\n      dup6\n        /* \"#utility.yul\":2672:2694   */\n      add\n        /* \"#utility.yul\":2651:2704   */\n      tag_182\n      jump\t// in\n    tag_203:\n        /* \"#utility.yul\":2641:2704   */\n      swap2\n      pop\n        /* \"#utility.yul\":2597:2714   */\n      pop\n        /* \"#utility.yul\":2392:2721   */\n      swap3\n      swap2\n      pop\n      pop\n      jump\t// out\n        /* \"#utility.yul\":2727:2869   */\n    tag_204:\n        /* \"#utility.yul\":2830:2862   */\n      tag_206\n        /* \"#utility.yul\":2856:2861   */\n      dup2\n        /* \"#utility.yul\":2830:2862   */\n      tag_207\n      jump\t// in\n    tag_206:\n        /* \"#utility.yul\":2825:2828   */\n      dup3\n        /* \"#utility.yul\":2818:2863   */\n      mstore\n        /* \"#utility.yul\":2727:2869   */\n      pop\n      pop\n      jump\t// out\n        /* \"#utility.yul\":2875:2993   */\n    tag_208:\n        /* \"#utility.yul\":2962:2986   */\n      tag_210\n        /* \"#utility.yul\":2980:2985   */\n      dup2\n        /* \"#utility.yul\":2962:2986   */\n      tag_211\n      jump\t// in\n    tag_210:\n        /* \"#utility.yul\":2957:2960   */\n      dup3\n        /* \"#utility.yul\":2950:2987   */\n      mstore\n        /* \"#utility.yul\":2875:2993   */\n      pop\n      pop\n      jump\t// out\n        /* \"#utility.yul\":2999:3108   */\n    tag_212:\n        /* \"#utility.yul\":3080:3101   */\n      tag_214\n        /* \"#utility.yul\":3095:3100   */\n      dup2\n        /* \"#utility.yul\":3080:3101   */\n      tag_215\n      jump\t// in\n    tag_214:\n        /* \"#utility.yul\":3075:3078   */\n      dup3\n        /* \"#utility.yul\":3068:3102   */\n      mstore\n        /* \"#utility.yul\":2999:3108   */\n      pop\n      pop\n      jump\t// out\n        /* \"#utility.yul\":3114:3478   */\n    tag_216:\n        /* \"#utility.yul\":3202:3205   */\n      0x00\n        /* \"#utility.yul\":3230:3269   */\n      tag_218\n        /* \"#utility.yul\":3263:3268   */\n      dup3\n        /* \"#utility.yul\":3230:3269   */\n      tag_219\n      jump\t// in\n    tag_218:\n        /* \"#utility.yul\":3285:3356   */\n      tag_220\n        /* \"#utility.yul\":3349:3355   */\n      dup2\n        /* \"#utility.yul\":3344:3347   */\n      dup6\n        /* \"#utility.yul\":3285:3356   */\n      tag_221\n      jump\t// in\n    tag_220:\n        /* \"#utility.yul\":3278:3356   */\n      swap4\n      pop\n        /* \"#utility.yul\":3365:3417   */\n      tag_222\n        /* \"#utility.yul\":3410:3416   */\n      dup2\n        /* \"#utility.yul\":3405:3408   */\n      dup6\n        /* \"#utility.yul\":3398:3402   */\n      0x20\n        /* \"#utility.yul\":3391:3396   */\n      dup7\n        /* \"#utility.yul\":3387:3403   */\n      add\n        /* \"#utility.yul\":3365:3417   */\n      tag_223\n      jump\t// in\n    tag_222:\n        /* \"#utility.yul\":3442:3471   */\n      tag_224\n        /* \"#utility.yul\":3464:3470   */\n      dup2\n        /* \"#utility.yul\":3442:3471   */\n      tag_225\n      jump\t// in\n    tag_224:\n        /* \"#utility.yul\":3437:3440   */\n      dup5\n        /* \"#utility.yul\":3433:3472   */\n      add\n        /* \"#utility.yul\":3426:3472   */\n      swap2\n      pop\n        /* \"#utility.yul\":3206:3478   */\n      pop\n        /* \"#utility.yul\":3114:3478   */\n      swap3\n      swap2\n      pop\n      pop\n      jump\t// out\n        /* \"#utility.yul\":3484:3850   */\n    tag_226:\n        /* \"#utility.yul\":3626:3629   */\n      0x00\n        /* \"#utility.yul\":3647:3714   */\n      tag_228\n        /* \"#utility.yul\":3711:3713   */\n      0x24\n        /* \"#utility.yul\":3706:3709   */\n      dup4\n        /* \"#utility.yul\":3647:3714   */\n      tag_221\n      jump\t// in\n    tag_228:\n        /* \"#utility.yul\":3640:3714   */\n      swap2\n      pop\n        /* \"#utility.yul\":3723:3816   */\n      tag_229\n        /* \"#utility.yul\":3812:3815   */\n      dup3\n        /* \"#utility.yul\":3723:3816   */\n      tag_230\n      jump\t// in\n    tag_229:\n        /* \"#utility.yul\":3841:3843   */\n      0x40\n        /* \"#utility.yul\":3836:3839   */\n      dup3\n        /* \"#utility.yul\":3832:3844   */\n      add\n        /* \"#utility.yul\":3825:3844   */\n      swap1\n      pop\n        /* \"#utility.yul\":3484:3850   */\n      swap2\n      swap1\n      pop\n      jump\t// out\n        /* \"#utility.yul\":3856:4222   */\n    tag_231:\n        /* \"#utility.yul\":3998:4001   */\n      0x00\n        /* \"#utility.yul\":4019:4086   */\n      tag_233\n        /* \"#utility.yul\":4083:4085   */\n      0x17\n        /* \"#utility.yul\":4078:4081   */\n      dup4\n        /* \"#utility.yul\":4019:4086   */\n      tag_221\n      jump\t// in\n    tag_233:\n        /* \"#utility.yul\":4012:4086   */\n      swap2\n      pop\n        /* \"#utility.yul\":4095:4188   */\n      tag_234\n        /* \"#utility.yul\":4184:4187   */\n      dup3\n        /* \"#utility.yul\":4095:4188   */\n      tag_235\n      jump\t// in\n    tag_234:\n        /* \"#utility.yul\":4213:4215   */\n      0x20\n        /* \"#utility.yul\":4208:4211   */\n      dup3\n        /* \"#utility.yul\":4204:4216   */\n      add\n        /* \"#utility.yul\":4197:4216   */\n      swap1\n      pop\n        /* \"#utility.yul\":3856:4222   */\n      swap2\n      swap1\n      pop\n      jump\t// out\n        /* \"#utility.yul\":4228:4594   */\n    tag_236:\n        /* \"#utility.yul\":4370:4373   */\n      0x00\n        /* \"#utility.yul\":4391:4458   */\n      tag_238\n        /* \"#utility.yul\":4455:4457   */\n      0x17\n        /* \"#utility.yul\":4450:4453   */\n      dup4\n        /* \"#utility.yul\":4391:4458   */\n      tag_221\n      jump\t// in\n    tag_238:\n        /* \"#utility.yul\":4384:4458   */\n      swap2\n      pop\n        /* \"#utility.yul\":4467:4560   */\n      tag_239\n        /* \"#utility.yul\":4556:4559   */\n      dup3\n        /* \"#utility.yul\":4467:4560   */\n      tag_240\n      jump\t// in\n    tag_239:\n        /* \"#utility.yul\":4585:4587   */\n      0x20\n        /* \"#utility.yul\":4580:4583   */\n      dup3\n        /* \"#utility.yul\":4576:4588   */\n      add\n        /* \"#utility.yul\":4569:4588   */\n      swap1\n      pop\n        /* \"#utility.yul\":4228:4594   */\n      swap2\n      swap1\n      pop\n      jump\t// out\n        /* \"#utility.yul\":4600:4968   */\n    tag_241:\n        /* \"#utility.yul\":4742:4745   */\n      0x00\n        /* \"#utility.yul\":4763:4831   */\n      tag_243\n        /* \"#utility.yul\":4827:4830   */\n      0x8c\n        /* \"#utility.yul\":4822:4825   */\n      dup4\n        /* \"#utility.yul\":4763:4831   */\n      tag_221\n      jump\t// in\n    tag_243:\n        /* \"#utility.yul\":4756:4831   */\n      swap2\n      pop\n        /* \"#utility.yul\":4840:4933   */\n      tag_244\n        /* \"#utility.yul\":4929:4932   */\n      dup3\n        /* \"#utility.yul\":4840:4933   */\n      tag_245\n      jump\t// in\n    tag_244:\n        /* \"#utility.yul\":4958:4961   */\n      0xa0\n        /* \"#utility.yul\":4953:4956   */\n      dup3\n        /* \"#utility.yul\":4949:4962   */\n      add\n        /* \"#utility.yul\":4942:4962   */\n      swap1\n      pop\n        /* \"#utility.yul\":4600:4968   */\n      swap2\n      swap1\n      pop\n      jump\t// out\n        /* \"#utility.yul\":4974:5340   */\n    tag_246:\n        /* \"#utility.yul\":5116:5119   */\n      0x00\n        /* \"#utility.yul\":5137:5204   */\n      tag_248\n        /* \"#utility.yul\":5201:5203   */\n      0x18\n        /* \"#utility.yul\":5196:5199   */\n      dup4\n        /* \"#utility.yul\":5137:5204   */\n      tag_221\n      jump\t// in\n    tag_248:\n        /* \"#utility.yul\":5130:5204   */\n      swap2\n      pop\n        /* \"#utility.yul\":5213:5306   */\n      tag_249\n        /* \"#utility.yul\":5302:5305   */\n      dup3\n        /* \"#utility.yul\":5213:5306   */\n      tag_250\n      jump\t// in\n    tag_249:\n        /* \"#utility.yul\":5331:5333   */\n      0x20\n        /* \"#utility.yul\":5326:5329   */\n      dup3\n        /* \"#utility.yul\":5322:5334   */\n      add\n        /* \"#utility.yul\":5315:5334   */\n      swap1\n      pop\n        /* \"#utility.yul\":4974:5340   */\n      swap2\n      swap1\n      pop\n      jump\t// out\n        /* \"#utility.yul\":5346:5712   */\n    tag_251:\n        /* \"#utility.yul\":5488:5491   */\n      0x00\n        /* \"#utility.yul\":5509:5576   */\n      tag_253\n        /* \"#utility.yul\":5573:5575   */\n      0x28\n        /* \"#utility.yul\":5568:5571   */\n      dup4\n        /* \"#utility.yul\":5509:5576   */\n      tag_221\n      jump\t// in\n    tag_253:\n        /* \"#utility.yul\":5502:5576   */\n      swap2\n      pop\n        /* \"#utility.yul\":5585:5678   */\n      tag_254\n        /* \"#utility.yul\":5674:5677   */\n      dup3\n        /* \"#utility.yul\":5585:5678   */\n      tag_255\n      jump\t// in\n    tag_254:\n        /* \"#utility.yul\":5703:5705   */\n      0x40\n        /* \"#utility.yul\":5698:5701   */\n      dup3\n        /* \"#utility.yul\":5694:5706   */\n      add\n        /* \"#utility.yul\":5687:5706   */\n      swap1\n      pop\n        /* \"#utility.yul\":5346:5712   */\n      swap2\n      swap1\n      pop\n      jump\t// out\n        /* \"#utility.yul\":5718:6084   */\n    tag_256:\n        /* \"#utility.yul\":5860:5863   */\n      0x00\n        /* \"#utility.yul\":5881:5948   */\n      tag_258\n        /* \"#utility.yul\":5945:5947   */\n      0x43\n        /* \"#utility.yul\":5940:5943   */\n      dup4\n        /* \"#utility.yul\":5881:5948   */\n      tag_221\n      jump\t// in\n    tag_258:\n        /* \"#utility.yul\":5874:5948   */\n      swap2\n      pop\n        /* \"#utility.yul\":5957:6050   */\n      tag_259\n        /* \"#utility.yul\":6046:6049   */\n      dup3\n        /* \"#utility.yul\":5957:6050   */\n      tag_260\n      jump\t// in\n    tag_259:\n        /* \"#utility.yul\":6075:6077   */\n      0x60\n        /* \"#utility.yul\":6070:6073   */\n      dup3\n        /* \"#utility.yul\":6066:6078   */\n      add\n        /* \"#utility.yul\":6059:6078   */\n      swap1\n      pop\n        /* \"#utility.yul\":5718:6084   */\n      swap2\n      swap1\n      pop\n      jump\t// out\n        /* \"#utility.yul\":6090:6456   */\n    tag_261:\n        /* \"#utility.yul\":6232:6235   */\n      0x00\n        /* \"#utility.yul\":6253:6320   */\n      tag_263\n        /* \"#utility.yul\":6317:6319   */\n      0x23\n        /* \"#utility.yul\":6312:6315   */\n      dup4\n        /* \"#utility.yul\":6253:6320   */\n      tag_221\n      jump\t// in\n    tag_263:\n        /* \"#utility.yul\":6246:6320   */\n      swap2\n      pop\n        /* \"#utility.yul\":6329:6422   */\n      tag_264\n        /* \"#utility.yul\":6418:6421   */\n      dup3\n        /* \"#utility.yul\":6329:6422   */\n      tag_265\n      jump\t// in\n    tag_264:\n        /* \"#utility.yul\":6447:6449   */\n      0x40\n        /* \"#utility.yul\":6442:6445   */\n      dup3\n        /* \"#utility.yul\":6438:6450   */\n      add\n        /* \"#utility.yul\":6431:6450   */\n      swap1\n      pop\n        /* \"#utility.yul\":6090:6456   */\n      swap2\n      swap1\n      pop\n      jump\t// out\n        /* \"#utility.yul\":6462:6828   */\n    tag_266:\n        /* \"#utility.yul\":6604:6607   */\n      0x00\n        /* \"#utility.yul\":6625:6692   */\n      tag_268\n        /* \"#utility.yul\":6689:6691   */\n      0x56\n        /* \"#utility.yul\":6684:6687   */\n      dup4\n        /* \"#utility.yul\":6625:6692   */\n      tag_221\n      jump\t// in\n    tag_268:\n        /* \"#utility.yul\":6618:6692   */\n      swap2\n      pop\n        /* \"#utility.yul\":6701:6794   */\n      tag_269\n        /* \"#utility.yul\":6790:6793   */\n      dup3\n        /* \"#utility.yul\":6701:6794   */\n      tag_270\n      jump\t// in\n    tag_269:\n        /* \"#utility.yul\":6819:6821   */\n      0x60\n        /* \"#utility.yul\":6814:6817   */\n      dup3\n        /* \"#utility.yul\":6810:6822   */\n      add\n        /* \"#utility.yul\":6803:6822   */\n      swap1\n      pop\n        /* \"#utility.yul\":6462:6828   */\n      swap2\n      swap1\n      pop\n      jump\t// out\n        /* \"#utility.yul\":6834:6952   */\n    tag_271:\n        /* \"#utility.yul\":6921:6945   */\n      tag_273\n        /* \"#utility.yul\":6939:6944   */\n      dup2\n        /* \"#utility.yul\":6921:6945   */\n      tag_274\n      jump\t// in\n    tag_273:\n        /* \"#utility.yul\":6916:6919   */\n      dup3\n        /* \"#utility.yul\":6909:6946   */\n      mstore\n        /* \"#utility.yul\":6834:6952   */\n      pop\n      pop\n      jump\t// out\n        /* \"#utility.yul\":6958:7180   */\n    tag_42:\n        /* \"#utility.yul\":7051:7055   */\n      0x00\n        /* \"#utility.yul\":7089:7091   */\n      0x20\n        /* \"#utility.yul\":7078:7087   */\n      dup3\n        /* \"#utility.yul\":7074:7092   */\n      add\n        /* \"#utility.yul\":7066:7092   */\n      swap1\n      pop\n        /* \"#utility.yul\":7102:7173   */\n      tag_276\n        /* \"#utility.yul\":7170:7171   */\n      0x00\n        /* \"#utility.yul\":7159:7168   */\n      dup4\n        /* \"#utility.yul\":7155:7172   */\n      add\n        /* \"#utility.yul\":7146:7152   */\n      dup5\n        /* \"#utility.yul\":7102:7173   */\n      tag_208\n      jump\t// in\n    tag_276:\n        /* \"#utility.yul\":6958:7180   */\n      swap3\n      swap2\n      pop\n      pop\n      jump\t// out\n        /* \"#utility.yul\":7186:7961   */\n    tag_68:\n        /* \"#utility.yul\":7421:7425   */\n      0x00\n        /* \"#utility.yul\":7459:7462   */\n      0xa0\n        /* \"#utility.yul\":7448:7457   */\n      dup3\n        /* \"#utility.yul\":7444:7463   */\n      add\n        /* \"#utility.yul\":7436:7463   */\n      swap1\n      pop\n        /* \"#utility.yul\":7509:7518   */\n      dup2\n        /* \"#utility.yul\":7503:7507   */\n      dup2\n        /* \"#utility.yul\":7499:7519   */\n      sub\n        /* \"#utility.yul\":7495:7496   */\n      0x00\n        /* \"#utility.yul\":7484:7493   */\n      dup4\n        /* \"#utility.yul\":7480:7497   */\n      add\n        /* \"#utility.yul\":7473:7520   */\n      mstore\n        /* \"#utility.yul\":7537:7615   */\n      tag_278\n        /* \"#utility.yul\":7610:7614   */\n      dup2\n        /* \"#utility.yul\":7601:7607   */\n      dup9\n        /* \"#utility.yul\":7537:7615   */\n      tag_216\n      jump\t// in\n    tag_278:\n        /* \"#utility.yul\":7529:7615   */\n      swap1\n      pop\n        /* \"#utility.yul\":7625:7697   */\n      tag_279\n        /* \"#utility.yul\":7693:7695   */\n      0x20\n        /* \"#utility.yul\":7682:7691   */\n      dup4\n        /* \"#utility.yul\":7678:7696   */\n      add\n        /* \"#utility.yul\":7669:7675   */\n      dup8\n        /* \"#utility.yul\":7625:7697   */\n      tag_271\n      jump\t// in\n    tag_279:\n        /* \"#utility.yul\":7707:7795   */\n      tag_280\n        /* \"#utility.yul\":7791:7793   */\n      0x40\n        /* \"#utility.yul\":7780:7789   */\n      dup4\n        /* \"#utility.yul\":7776:7794   */\n      add\n        /* \"#utility.yul\":7767:7773   */\n      dup7\n        /* \"#utility.yul\":7707:7795   */\n      tag_204\n      jump\t// in\n    tag_280:\n        /* \"#utility.yul\":7805:7871   */\n      tag_281\n        /* \"#utility.yul\":7867:7869   */\n      0x60\n        /* \"#utility.yul\":7856:7865   */\n      dup4\n        /* \"#utility.yul\":7852:7870   */\n      add\n        /* \"#utility.yul\":7843:7849   */\n      dup6\n        /* \"#utility.yul\":7805:7871   */\n      tag_212\n      jump\t// in\n    tag_281:\n        /* \"#utility.yul\":7881:7954   */\n      tag_282\n        /* \"#utility.yul\":7949:7952   */\n      0x80\n        /* \"#utility.yul\":7938:7947   */\n      dup4\n        /* \"#utility.yul\":7934:7953   */\n      add\n        /* \"#utility.yul\":7925:7931   */\n      dup5\n        /* \"#utility.yul\":7881:7954   */\n      tag_271\n      jump\t// in\n    tag_282:\n        /* \"#utility.yul\":7186:7961   */\n      swap7\n      swap6\n      pop\n      pop\n      pop\n      pop\n      pop\n      pop\n      jump\t// out\n        /* \"#utility.yul\":7967:8386   */\n    tag_88:\n        /* \"#utility.yul\":8133:8137   */\n      0x00\n        /* \"#utility.yul\":8171:8173   */\n      0x20\n        /* \"#utility.yul\":8160:8169   */\n      dup3\n        /* \"#utility.yul\":8156:8174   */\n      add\n        /* \"#utility.yul\":8148:8174   */\n      swap1\n      pop\n        /* \"#utility.yul\":8220:8229   */\n      dup2\n        /* \"#utility.yul\":8214:8218   */\n      dup2\n        /* \"#utility.yul\":8210:8230   */\n      sub\n        /* \"#utility.yul\":8206:8207   */\n      0x00\n        /* \"#utility.yul\":8195:8204   */\n      dup4\n        /* \"#utility.yul\":8191:8208   */\n      add\n        /* \"#utility.yul\":8184:8231   */\n      mstore\n        /* \"#utility.yul\":8248:8379   */\n      tag_284\n        /* \"#utility.yul\":8374:8378   */\n      dup2\n        /* \"#utility.yul\":8248:8379   */\n      tag_226\n      jump\t// in\n    tag_284:\n        /* \"#utility.yul\":8240:8379   */\n      swap1\n      pop\n        /* \"#utility.yul\":7967:8386   */\n      swap2\n      swap1\n      pop\n      jump\t// out\n        /* \"#utility.yul\":8392:8811   */\n    tag_113:\n        /* \"#utility.yul\":8558:8562   */\n      0x00\n        /* \"#utility.yul\":8596:8598   */\n      0x20\n        /* \"#utility.yul\":8585:8594   */\n      dup3\n        /* \"#utility.yul\":8581:8599   */\n      add\n        /* \"#utility.yul\":8573:8599   */\n      swap1\n      pop\n        /* \"#utility.yul\":8645:8654   */\n      dup2\n        /* \"#utility.yul\":8639:8643   */\n      dup2\n        /* \"#utility.yul\":8635:8655   */\n      sub\n        /* \"#utility.yul\":8631:8632   */\n      0x00\n        /* \"#utility.yul\":8620:8629   */\n      dup4\n        /* \"#utility.yul\":8616:8633   */\n      add\n        /* \"#utility.yul\":8609:8656   */\n      mstore\n        /* \"#utility.yul\":8673:8804   */\n      tag_286\n        /* \"#utility.yul\":8799:8803   */\n      dup2\n        /* \"#utility.yul\":8673:8804   */\n      tag_231\n      jump\t// in\n    tag_286:\n        /* \"#utility.yul\":8665:8804   */\n      swap1\n      pop\n        /* \"#utility.yul\":8392:8811   */\n      swap2\n      swap1\n      pop\n      jump\t// out\n        /* \"#utility.yul\":8817:9236   */\n    tag_124:\n        /* \"#utility.yul\":8983:8987   */\n      0x00\n        /* \"#utility.yul\":9021:9023   */\n      0x20\n        /* \"#utility.yul\":9010:9019   */\n      dup3\n        /* \"#utility.yul\":9006:9024   */\n      add\n        /* \"#utility.yul\":8998:9024   */\n      swap1\n      pop\n        /* \"#utility.yul\":9070:9079   */\n      dup2\n        /* \"#utility.yul\":9064:9068   */\n      dup2\n        /* \"#utility.yul\":9060:9080   */\n      sub\n        /* \"#utility.yul\":9056:9057   */\n      0x00\n        /* \"#utility.yul\":9045:9054   */\n      dup4\n        /* \"#utility.yul\":9041:9058   */\n      add\n        /* \"#utility.yul\":9034:9081   */\n      mstore\n        /* \"#utility.yul\":9098:9229   */\n      tag_288\n        /* \"#utility.yul\":9224:9228   */\n      dup2\n        /* \"#utility.yul\":9098:9229   */\n      tag_236\n      jump\t// in\n    tag_288:\n        /* \"#utility.yul\":9090:9229   */\n      swap1\n      pop\n        /* \"#utility.yul\":8817:9236   */\n      swap2\n      swap1\n      pop\n      jump\t// out\n        /* \"#utility.yul\":9242:9661   */\n    tag_129:\n        /* \"#utility.yul\":9408:9412   */\n      0x00\n        /* \"#utility.yul\":9446:9448   */\n      0x20\n        /* \"#utility.yul\":9435:9444   */\n      dup3\n        /* \"#utility.yul\":9431:9449   */\n      add\n        /* \"#utility.yul\":9423:9449   */\n      swap1\n      pop\n        /* \"#utility.yul\":9495:9504   */\n      dup2\n        /* \"#utility.yul\":9489:9493   */\n      dup2\n        /* \"#utility.yul\":9485:9505   */\n      sub\n        /* \"#utility.yul\":9481:9482   */\n      0x00\n        /* \"#utility.yul\":9470:9479   */\n      dup4\n        /* \"#utility.yul\":9466:9483   */\n      add\n        /* \"#utility.yul\":9459:9506   */\n      mstore\n        /* \"#utility.yul\":9523:9654   */\n      tag_290\n        /* \"#utility.yul\":9649:9653   */\n      dup2\n        /* \"#utility.yul\":9523:9654   */\n      tag_241\n      jump\t// in\n    tag_290:\n        /* \"#utility.yul\":9515:9654   */\n      swap1\n      pop\n        /* \"#utility.yul\":9242:9661   */\n      swap2\n      swap1\n      pop\n      jump\t// out\n        /* \"#utility.yul\":9667:10086   */\n    tag_132:\n        /* \"#utility.yul\":9833:9837   */\n      0x00\n        /* \"#utility.yul\":9871:9873   */\n      0x20\n        /* \"#utility.yul\":9860:9869   */\n      dup3\n        /* \"#utility.yul\":9856:9874   */\n      add\n        /* \"#utility.yul\":9848:9874   */\n      swap1\n      pop\n        /* \"#utility.yul\":9920:9929   */\n      dup2\n        /* \"#utility.yul\":9914:9918   */\n      dup2\n        /* \"#utility.yul\":9910:9930   */\n      sub\n        /* \"#utility.yul\":9906:9907   */\n      0x00\n        /* \"#utility.yul\":9895:9904   */\n      dup4\n        /* \"#utility.yul\":9891:9908   */\n      add\n        /* \"#utility.yul\":9884:9931   */\n      mstore\n        /* \"#utility.yul\":9948:10079   */\n      tag_292\n        /* \"#utility.yul\":10074:10078   */\n      dup2\n        /* \"#utility.yul\":9948:10079   */\n      tag_246\n      jump\t// in\n    tag_292:\n        /* \"#utility.yul\":9940:10079   */\n      swap1\n      pop\n        /* \"#utility.yul\":9667:10086   */\n      swap2\n      swap1\n      pop\n      jump\t// out\n        /* \"#utility.yul\":10092:10511   */\n    tag_91:\n        /* \"#utility.yul\":10258:10262   */\n      0x00\n        /* \"#utility.yul\":10296:10298   */\n      0x20\n        /* \"#utility.yul\":10285:10294   */\n      dup3\n        /* \"#utility.yul\":10281:10299   */\n      add\n        /* \"#utility.yul\":10273:10299   */\n      swap1\n      pop\n        /* \"#utility.yul\":10345:10354   */\n      dup2\n        /* \"#utility.yul\":10339:10343   */\n      dup2\n        /* \"#utility.yul\":10335:10355   */\n      sub\n        /* \"#utility.yul\":10331:10332   */\n      0x00\n        /* \"#utility.yul\":10320:10329   */\n      dup4\n        /* \"#utility.yul\":10316:10333   */\n      add\n        /* \"#utility.yul\":10309:10356   */\n      mstore\n        /* \"#utility.yul\":10373:10504   */\n      tag_294\n        /* \"#utility.yul\":10499:10503   */\n      dup2\n        /* \"#utility.yul\":10373:10504   */\n      tag_251\n      jump\t// in\n    tag_294:\n        /* \"#utility.yul\":10365:10504   */\n      swap1\n      pop\n        /* \"#utility.yul\":10092:10511   */\n      swap2\n      swap1\n      pop\n      jump\t// out\n        /* \"#utility.yul\":10517:10936   */\n    tag_109:\n        /* \"#utility.yul\":10683:10687   */\n      0x00\n        /* \"#utility.yul\":10721:10723   */\n      0x20\n        /* \"#utility.yul\":10710:10719   */\n      dup3\n        /* \"#utility.yul\":10706:10724   */\n      add\n        /* \"#utility.yul\":10698:10724   */\n      swap1\n      pop\n        /* \"#utility.yul\":10770:10779   */\n      dup2\n        /* \"#utility.yul\":10764:10768   */\n      dup2\n        /* \"#utility.yul\":10760:10780   */\n      sub\n        /* \"#utility.yul\":10756:10757   */\n      0x00\n        /* \"#utility.yul\":10745:10754   */\n      dup4\n        /* \"#utility.yul\":10741:10758   */\n      add\n        /* \"#utility.yul\":10734:10781   */\n      mstore\n        /* \"#utility.yul\":10798:10929   */\n      tag_296\n        /* \"#utility.yul\":10924:10928   */\n      dup2\n        /* \"#utility.yul\":10798:10929   */\n      tag_256\n      jump\t// in\n    tag_296:\n        /* \"#utility.yul\":10790:10929   */\n      swap1\n      pop\n        /* \"#utility.yul\":10517:10936   */\n      swap2\n      swap1\n      pop\n      jump\t// out\n        /* \"#utility.yul\":10942:11361   */\n    tag_101:\n        /* \"#utility.yul\":11108:11112   */\n      0x00\n        /* \"#utility.yul\":11146:11148   */\n      0x20\n        /* \"#utility.yul\":11135:11144   */\n      dup3\n        /* \"#utility.yul\":11131:11149   */\n      add\n        /* \"#utility.yul\":11123:11149   */\n      swap1\n      pop\n        /* \"#utility.yul\":11195:11204   */\n      dup2\n        /* \"#utility.yul\":11189:11193   */\n      dup2\n        /* \"#utility.yul\":11185:11205   */\n      sub\n        /* \"#utility.yul\":11181:11182   */\n      0x00\n        /* \"#utility.yul\":11170:11179   */\n      dup4\n        /* \"#utility.yul\":11166:11183   */\n      add\n        /* \"#utility.yul\":11159:11206   */\n      mstore\n        /* \"#utility.yul\":11223:11354   */\n      tag_298\n        /* \"#utility.yul\":11349:11353   */\n      dup2\n        /* \"#utility.yul\":11223:11354   */\n      tag_261\n      jump\t// in\n    tag_298:\n        /* \"#utility.yul\":11215:11354   */\n      swap1\n      pop\n        /* \"#utility.yul\":10942:11361   */\n      swap2\n      swap1\n      pop\n      jump\t// out\n        /* \"#utility.yul\":11367:11786   */\n    tag_116:\n        /* \"#utility.yul\":11533:11537   */\n      0x00\n        /* \"#utility.yul\":11571:11573   */\n      0x20\n        /* \"#utility.yul\":11560:11569   */\n      dup3\n        /* \"#utility.yul\":11556:11574   */\n      add\n        /* \"#utility.yul\":11548:11574   */\n      swap1\n      pop\n        /* \"#utility.yul\":11620:11629   */\n      dup2\n        /* \"#utility.yul\":11614:11618   */\n      dup2\n        /* \"#utility.yul\":11610:11630   */\n      sub\n        /* \"#utility.yul\":11606:11607   */\n      0x00\n        /* \"#utility.yul\":11595:11604   */\n      dup4\n        /* \"#utility.yul\":11591:11608   */\n      add\n        /* \"#utility.yul\":11584:11631   */\n      mstore\n        /* \"#utility.yul\":11648:11779   */\n      tag_300\n        /* \"#utility.yul\":11774:11778   */\n      dup2\n        /* \"#utility.yul\":11648:11779   */\n      tag_266\n      jump\t// in\n    tag_300:\n        /* \"#utility.yul\":11640:11779   */\n      swap1\n      pop\n        /* \"#utility.yul\":11367:11786   */\n      swap2\n      swap1\n      pop\n      jump\t// out\n        /* \"#utility.yul\":11792:12014   */\n    tag_33:\n        /* \"#utility.yul\":11885:11889   */\n      0x00\n        /* \"#utility.yul\":11923:11925   */\n      0x20\n        /* \"#utility.yul\":11912:11921   */\n      dup3\n        /* \"#utility.yul\":11908:11926   */\n      add\n        /* \"#utility.yul\":11900:11926   */\n      swap1\n      pop\n        /* \"#utility.yul\":11936:12007   */\n      tag_302\n        /* \"#utility.yul\":12004:12005   */\n      0x00\n        /* \"#utility.yul\":11993:12002   */\n      dup4\n        /* \"#utility.yul\":11989:12006   */\n      add\n        /* \"#utility.yul\":11980:11986   */\n      dup5\n        /* \"#utility.yul\":11936:12007   */\n      tag_271\n      jump\t// in\n    tag_302:\n        /* \"#utility.yul\":11792:12014   */\n      swap3\n      swap2\n      pop\n      pop\n      jump\t// out\n        /* \"#utility.yul\":12020:12149   */\n    tag_162:\n        /* \"#utility.yul\":12054:12060   */\n      0x00\n        /* \"#utility.yul\":12081:12101   */\n      tag_304\n      tag_305\n      jump\t// in\n    tag_304:\n        /* \"#utility.yul\":12071:12101   */\n      swap1\n      pop\n        /* \"#utility.yul\":12110:12143   */\n      tag_306\n        /* \"#utility.yul\":12138:12142   */\n      dup3\n        /* \"#utility.yul\":12130:12136   */\n      dup3\n        /* \"#utility.yul\":12110:12143   */\n      tag_307\n      jump\t// in\n    tag_306:\n        /* \"#utility.yul\":12020:12149   */\n      swap2\n      swap1\n      pop\n      jump\t// out\n        /* \"#utility.yul\":12155:12230   */\n    tag_305:\n        /* \"#utility.yul\":12188:12194   */\n      0x00\n        /* \"#utility.yul\":12221:12223   */\n      0x40\n        /* \"#utility.yul\":12215:12224   */\n      mload\n        /* \"#utility.yul\":12205:12224   */\n      swap1\n      pop\n        /* \"#utility.yul\":12155:12230   */\n      swap1\n      jump\t// out\n        /* \"#utility.yul\":12236:12544   */\n    tag_161:\n        /* \"#utility.yul\":12298:12302   */\n      0x00\n        /* \"#utility.yul\":12388:12406   */\n      0xffffffffffffffff\n        /* \"#utility.yul\":12380:12386   */\n      dup3\n        /* \"#utility.yul\":12377:12407   */\n      gt\n        /* \"#utility.yul\":12374:12430   */\n      iszero\n      tag_310\n      jumpi\n        /* \"#utility.yul\":12410:12428   */\n      tag_311\n      tag_312\n      jump\t// in\n    tag_311:\n        /* \"#utility.yul\":12374:12430   */\n    tag_310:\n        /* \"#utility.yul\":12448:12477   */\n      tag_313\n        /* \"#utility.yul\":12470:12476   */\n      dup3\n        /* \"#utility.yul\":12448:12477   */\n      tag_225\n      jump\t// in\n    tag_313:\n        /* \"#utility.yul\":12440:12477   */\n      swap1\n      pop\n        /* \"#utility.yul\":12532:12536   */\n      0x20\n        /* \"#utility.yul\":12526:12530   */\n      dup2\n        /* \"#utility.yul\":12522:12537   */\n      add\n        /* \"#utility.yul\":12514:12537   */\n      swap1\n      pop\n        /* \"#utility.yul\":12236:12544   */\n      swap2\n      swap1\n      pop\n      jump\t// out\n        /* \"#utility.yul\":12550:12649   */\n    tag_219:\n        /* \"#utility.yul\":12602:12608   */\n      0x00\n        /* \"#utility.yul\":12636:12641   */\n      dup2\n        /* \"#utility.yul\":12630:12642   */\n      mload\n        /* \"#utility.yul\":12620:12642   */\n      swap1\n      pop\n        /* \"#utility.yul\":12550:12649   */\n      swap2\n      swap1\n      pop\n      jump\t// out\n        /* \"#utility.yul\":12655:12824   */\n    tag_221:\n        /* \"#utility.yul\":12739:12750   */\n      0x00\n        /* \"#utility.yul\":12773:12779   */\n      dup3\n        /* \"#utility.yul\":12768:12771   */\n      dup3\n        /* \"#utility.yul\":12761:12780   */\n      mstore\n        /* \"#utility.yul\":12813:12817   */\n      0x20\n        /* \"#utility.yul\":12808:12811   */\n      dup3\n        /* \"#utility.yul\":12804:12818   */\n      add\n        /* \"#utility.yul\":12789:12818   */\n      swap1\n      pop\n        /* \"#utility.yul\":12655:12824   */\n      swap3\n      swap2\n      pop\n      pop\n      jump\t// out\n        /* \"#utility.yul\":12830:13135   */\n    tag_96:\n        /* \"#utility.yul\":12870:12873   */\n      0x00\n        /* \"#utility.yul\":12889:12909   */\n      tag_317\n        /* \"#utility.yul\":12907:12908   */\n      dup3\n        /* \"#utility.yul\":12889:12909   */\n      tag_274\n      jump\t// in\n    tag_317:\n        /* \"#utility.yul\":12884:12909   */\n      swap2\n      pop\n        /* \"#utility.yul\":12923:12943   */\n      tag_318\n        /* \"#utility.yul\":12941:12942   */\n      dup4\n        /* \"#utility.yul\":12923:12943   */\n      tag_274\n      jump\t// in\n    tag_318:\n        /* \"#utility.yul\":12918:12943   */\n      swap3\n      pop\n        /* \"#utility.yul\":13077:13078   */\n      dup3\n        /* \"#utility.yul\":13009:13075   */\n      0xffffffffffffffffffffffffffffffffffffffffffffffffffffffffffffffff\n        /* \"#utility.yul\":13005:13079   */\n      sub\n        /* \"#utility.yul\":13002:13003   */\n      dup3\n        /* \"#utility.yul\":12999:13080   */\n      gt\n        /* \"#utility.yul\":12996:13103   */\n      iszero\n      tag_319\n      jumpi\n        /* \"#utility.yul\":13083:13101   */\n      tag_320\n      tag_321\n      jump\t// in\n    tag_320:\n        /* \"#utility.yul\":12996:13103   */\n    tag_319:\n        /* \"#utility.yul\":13127:13128   */\n      dup3\n        /* \"#utility.yul\":13124:13125   */\n      dup3\n        /* \"#utility.yul\":13120:13129   */\n      add\n        /* \"#utility.yul\":13113:13129   */\n      swap1\n      pop\n        /* \"#utility.yul\":12830:13135   */\n      swap3\n      swap2\n      pop\n      pop\n      jump\t// out\n        /* \"#utility.yul\":13141:13332   */\n    tag_136:\n        /* \"#utility.yul\":13181:13185   */\n      0x00\n        /* \"#utility.yul\":13201:13221   */\n      tag_323\n        /* \"#utility.yul\":13219:13220   */\n      dup3\n        /* \"#utility.yul\":13201:13221   */\n      tag_274\n      jump\t// in\n    tag_323:\n        /* \"#utility.yul\":13196:13221   */\n      swap2\n      pop\n        /* \"#utility.yul\":13235:13255   */\n      tag_324\n        /* \"#utility.yul\":13253:13254   */\n      dup4\n        /* \"#utility.yul\":13235:13255   */\n      tag_274\n      jump\t// in\n    tag_324:\n        /* \"#utility.yul\":13230:13255   */\n      swap3\n      pop\n        /* \"#utility.yul\":13274:13275   */\n      dup3\n        /* \"#utility.yul\":13271:13272   */\n      dup3\n        /* \"#utility.yul\":13268:13276   */\n      lt\n        /* \"#utility.yul\":13265:13299   */\n      iszero\n      tag_325\n      jumpi\n        /* \"#utility.yul\":13279:13297   */\n      tag_326\n      tag_321\n      jump\t// in\n    tag_326:\n        /* \"#utility.yul\":13265:13299   */\n    tag_325:\n        /* \"#utility.yul\":13324:13325   */\n      dup3\n        /* \"#utility.yul\":13321:13322   */\n      dup3\n        /* \"#utility.yul\":13317:13326   */\n      sub\n        /* \"#utility.yul\":13309:13326   */\n      swap1\n      pop\n        /* \"#utility.yul\":13141:13332   */\n      swap3\n      swap2\n      pop\n      pop\n      jump\t// out\n        /* \"#utility.yul\":13338:13434   */\n    tag_211:\n        /* \"#utility.yul\":13375:13382   */\n      0x00\n        /* \"#utility.yul\":13404:13428   */\n      tag_328\n        /* \"#utility.yul\":13422:13427   */\n      dup3\n        /* \"#utility.yul\":13404:13428   */\n      tag_329\n      jump\t// in\n    tag_328:\n        /* \"#utility.yul\":13393:13428   */\n      swap1\n      pop\n        /* \"#utility.yul\":13338:13434   */\n      swap2\n      swap1\n      pop\n      jump\t// out\n        /* \"#utility.yul\":13440:13544   */\n    tag_207:\n        /* \"#utility.yul\":13485:13492   */\n      0x00\n        /* \"#utility.yul\":13514:13538   */\n      tag_331\n        /* \"#utility.yul\":13532:13537   */\n      dup3\n        /* \"#utility.yul\":13514:13538   */\n      tag_329\n      jump\t// in\n    tag_331:\n        /* \"#utility.yul\":13503:13538   */\n      swap1\n      pop\n        /* \"#utility.yul\":13440:13544   */\n      swap2\n      swap1\n      pop\n      jump\t// out\n        /* \"#utility.yul\":13550:13640   */\n    tag_215:\n        /* \"#utility.yul\":13584:13591   */\n      0x00\n        /* \"#utility.yul\":13627:13632   */\n      dup2\n        /* \"#utility.yul\":13620:13633   */\n      iszero\n        /* \"#utility.yul\":13613:13634   */\n      iszero\n        /* \"#utility.yul\":13602:13634   */\n      swap1\n      pop\n        /* \"#utility.yul\":13550:13640   */\n      swap2\n      swap1\n      pop\n      jump\t// out\n        /* \"#utility.yul\":13646:13772   */\n    tag_329:\n        /* \"#utility.yul\":13683:13690   */\n      0x00\n        /* \"#utility.yul\":13723:13765   */\n      0xffffffffffffffffffffffffffffffffffffffff\n        /* \"#utility.yul\":13716:13721   */\n      dup3\n        /* \"#utility.yul\":13712:13766   */\n      and\n        /* \"#utility.yul\":13701:13766   */\n      swap1\n      pop\n        /* \"#utility.yul\":13646:13772   */\n      swap2\n      swap1\n      pop\n      jump\t// out\n        /* \"#utility.yul\":13778:13855   */\n    tag_274:\n        /* \"#utility.yul\":13815:13822   */\n      0x00\n        /* \"#utility.yul\":13844:13849   */\n      dup2\n        /* \"#utility.yul\":13833:13849   */\n      swap1\n      pop\n        /* \"#utility.yul\":13778:13855   */\n      swap2\n      swap1\n      pop\n      jump\t// out\n        /* \"#utility.yul\":13861:14015   */\n    tag_167:\n        /* \"#utility.yul\":13945:13951   */\n      dup3\n        /* \"#utility.yul\":13940:13943   */\n      dup2\n        /* \"#utility.yul\":13935:13938   */\n      dup4\n        /* \"#utility.yul\":13922:13952   */\n      calldatacopy\n        /* \"#utility.yul\":14007:14008   */\n      0x00\n        /* \"#utility.yul\":13998:14004   */\n      dup4\n        /* \"#utility.yul\":13993:13996   */\n      dup4\n        /* \"#utility.yul\":13989:14005   */\n      add\n        /* \"#utility.yul\":13982:14009   */\n      mstore\n        /* \"#utility.yul\":13861:14015   */\n      pop\n      pop\n      pop\n      jump\t// out\n        /* \"#utility.yul\":14021:14328   */\n    tag_223:\n        /* \"#utility.yul\":14089:14090   */\n      0x00\n        /* \"#utility.yul\":14099:14212   */\n    tag_337:\n        /* \"#utility.yul\":14113:14119   */\n      dup4\n        /* \"#utility.yul\":14110:14111   */\n      dup2\n        /* \"#utility.yul\":14107:14120   */\n      lt\n        /* \"#utility.yul\":14099:14212   */\n      iszero\n      tag_339\n      jumpi\n        /* \"#utility.yul\":14198:14199   */\n      dup1\n        /* \"#utility.yul\":14193:14196   */\n      dup3\n        /* \"#utility.yul\":14189:14200   */\n      add\n        /* \"#utility.yul\":14183:14201   */\n      mload\n        /* \"#utility.yul\":14179:14180   */\n      dup2\n        /* \"#utility.yul\":14174:14177   */\n      dup5\n        /* \"#utility.yul\":14170:14181   */\n      add\n        /* \"#utility.yul\":14163:14202   */\n      mstore\n        /* \"#utility.yul\":14135:14137   */\n      0x20\n        /* \"#utility.yul\":14132:14133   */\n      dup2\n        /* \"#utility.yul\":14128:14138   */\n      add\n        /* \"#utility.yul\":14123:14138   */\n      swap1\n      pop\n        /* \"#utility.yul\":14099:14212   */\n      jump(tag_337)\n    tag_339:\n        /* \"#utility.yul\":14230:14236   */\n      dup4\n        /* \"#utility.yul\":14227:14228   */\n      dup2\n        /* \"#utility.yul\":14224:14237   */\n      gt\n        /* \"#utility.yul\":14221:14322   */\n      iszero\n      tag_340\n      jumpi\n        /* \"#utility.yul\":14310:14311   */\n      0x00\n        /* \"#utility.yul\":14301:14307   */\n      dup5\n        /* \"#utility.yul\":14296:14299   */\n      dup5\n        /* \"#utility.yul\":14292:14308   */\n      add\n        /* \"#utility.yul\":14285:14312   */\n      mstore\n        /* \"#utility.yul\":14221:14322   */\n    tag_340:\n        /* \"#utility.yul\":14070:14328   */\n      pop\n        /* \"#utility.yul\":14021:14328   */\n      pop\n      pop\n      pop\n      jump\t// out\n        /* \"#utility.yul\":14334:14505   */\n    tag_138:\n        /* \"#utility.yul\":14373:14376   */\n      0x00\n        /* \"#utility.yul\":14396:14420   */\n      tag_342\n        /* \"#utility.yul\":14414:14419   */\n      dup3\n        /* \"#utility.yul\":14396:14420   */\n      tag_274\n      jump\t// in\n    tag_342:\n        /* \"#utility.yul\":14387:14420   */\n      swap2\n      pop\n        /* \"#utility.yul\":14442:14446   */\n      0x00\n        /* \"#utility.yul\":14435:14440   */\n      dup3\n        /* \"#utility.yul\":14432:14447   */\n      eq\n        /* \"#utility.yul\":14429:14470   */\n      iszero\n      tag_343\n      jumpi\n        /* \"#utility.yul\":14450:14468   */\n      tag_344\n      tag_321\n      jump\t// in\n    tag_344:\n        /* \"#utility.yul\":14429:14470   */\n    tag_343:\n        /* \"#utility.yul\":14497:14498   */\n      0x01\n        /* \"#utility.yul\":14490:14495   */\n      dup3\n        /* \"#utility.yul\":14486:14499   */\n      sub\n        /* \"#utility.yul\":14479:14499   */\n      swap1\n      pop\n        /* \"#utility.yul\":14334:14505   */\n      swap2\n      swap1\n      pop\n      jump\t// out\n        /* \"#utility.yul\":14511:14831   */\n    tag_141:\n        /* \"#utility.yul\":14555:14561   */\n      0x00\n        /* \"#utility.yul\":14592:14593   */\n      0x02\n        /* \"#utility.yul\":14586:14590   */\n      dup3\n        /* \"#utility.yul\":14582:14594   */\n      div\n        /* \"#utility.yul\":14572:14594   */\n      swap1\n      pop\n        /* \"#utility.yul\":14639:14640   */\n      0x01\n        /* \"#utility.yul\":14633:14637   */\n      dup3\n        /* \"#utility.yul\":14629:14641   */\n      and\n        /* \"#utility.yul\":14660:14678   */\n      dup1\n        /* \"#utility.yul\":14650:14731   */\n      tag_346\n      jumpi\n        /* \"#utility.yul\":14716:14720   */\n      0x7f\n        /* \"#utility.yul\":14708:14714   */\n      dup3\n        /* \"#utility.yul\":14704:14721   */\n      and\n        /* \"#utility.yul\":14694:14721   */\n      swap2\n      pop\n        /* \"#utility.yul\":14650:14731   */\n    tag_346:\n        /* \"#utility.yul\":14778:14780   */\n      0x20\n        /* \"#utility.yul\":14770:14776   */\n      dup3\n        /* \"#utility.yul\":14767:14781   */\n      lt\n        /* \"#utility.yul\":14747:14765   */\n      dup2\n        /* \"#utility.yul\":14744:14782   */\n      eq\n        /* \"#utility.yul\":14741:14825   */\n      iszero\n      tag_347\n      jumpi\n        /* \"#utility.yul\":14797:14815   */\n      tag_348\n      tag_349\n      jump\t// in\n    tag_348:\n        /* \"#utility.yul\":14741:14825   */\n    tag_347:\n        /* \"#utility.yul\":14562:14831   */\n      pop\n        /* \"#utility.yul\":14511:14831   */\n      swap2\n      swap1\n      pop\n      jump\t// out\n        /* \"#utility.yul\":14837:15118   */\n    tag_307:\n        /* \"#utility.yul\":14920:14947   */\n      tag_351\n        /* \"#utility.yul\":14942:14946   */\n      dup3\n        /* \"#utility.yul\":14920:14947   */\n      tag_225\n      jump\t// in\n    tag_351:\n        /* \"#utility.yul\":14912:14918   */\n      dup2\n        /* \"#utility.yul\":14908:14948   */\n      add\n        /* \"#utility.yul\":15050:15056   */\n      dup2\n        /* \"#utility.yul\":15038:15048   */\n      dup2\n        /* \"#utility.yul\":15035:15057   */\n      lt\n        /* \"#utility.yul\":15014:15032   */\n      0xffffffffffffffff\n        /* \"#utility.yul\":15002:15012   */\n      dup3\n        /* \"#utility.yul\":14999:15033   */\n      gt\n        /* \"#utility.yul\":14996:15058   */\n      or\n        /* \"#utility.yul\":14993:15081   */\n      iszero\n      tag_352\n      jumpi\n        /* \"#utility.yul\":15061:15079   */\n      tag_353\n      tag_312\n      jump\t// in\n    tag_353:\n        /* \"#utility.yul\":14993:15081   */\n    tag_352:\n        /* \"#utility.yul\":15101:15111   */\n      dup1\n        /* \"#utility.yul\":15097:15099   */\n      0x40\n        /* \"#utility.yul\":15090:15112   */\n      mstore\n        /* \"#utility.yul\":14880:15118   */\n      pop\n        /* \"#utility.yul\":14837:15118   */\n      pop\n      pop\n      jump\t// out\n        /* \"#utility.yul\":15124:15357   */\n    tag_94:\n        /* \"#utility.yul\":15163:15166   */\n      0x00\n        /* \"#utility.yul\":15186:15210   */\n      tag_355\n        /* \"#utility.yul\":15204:15209   */\n      dup3\n        /* \"#utility.yul\":15186:15210   */\n      tag_274\n      jump\t// in\n    tag_355:\n        /* \"#utility.yul\":15177:15210   */\n      swap2\n      pop\n        /* \"#utility.yul\":15232:15298   */\n      0xffffffffffffffffffffffffffffffffffffffffffffffffffffffffffffffff\n        /* \"#utility.yul\":15225:15230   */\n      dup3\n        /* \"#utility.yul\":15222:15299   */\n      eq\n        /* \"#utility.yul\":15219:15322   */\n      iszero\n      tag_356\n      jumpi\n        /* \"#utility.yul\":15302:15320   */\n      tag_357\n      tag_321\n      jump\t// in\n    tag_357:\n        /* \"#utility.yul\":15219:15322   */\n    tag_356:\n        /* \"#utility.yul\":15349:15350   */\n      0x01\n        /* \"#utility.yul\":15342:15347   */\n      dup3\n        /* \"#utility.yul\":15338:15351   */\n      add\n        /* \"#utility.yul\":15331:15351   */\n      swap1\n      pop\n        /* \"#utility.yul\":15124:15357   */\n      swap2\n      swap1\n      pop\n      jump\t// out\n        /* \"#utility.yul\":15363:15543   */\n    tag_321:\n        /* \"#utility.yul\":15411:15488   */\n      0x4e487b7100000000000000000000000000000000000000000000000000000000\n        /* \"#utility.yul\":15408:15409   */\n      0x00\n        /* \"#utility.yul\":15401:15489   */\n      mstore\n        /* \"#utility.yul\":15508:15512   */\n      0x11\n        /* \"#utility.yul\":15505:15506   */\n      0x04\n        /* \"#utility.yul\":15498:15513   */\n      mstore\n        /* \"#utility.yul\":15532:15536   */\n      0x24\n        /* \"#utility.yul\":15529:15530   */\n      0x00\n        /* \"#utility.yul\":15522:15537   */\n      revert\n        /* \"#utility.yul\":15549:15729   */\n    tag_349:\n        /* \"#utility.yul\":15597:15674   */\n      0x4e487b7100000000000000000000000000000000000000000000000000000000\n        /* \"#utility.yul\":15594:15595   */\n      0x00\n        /* \"#utility.yul\":15587:15675   */\n      mstore\n        /* \"#utility.yul\":15694:15698   */\n      0x22\n        /* \"#utility.yul\":15691:15692   */\n      0x04\n        /* \"#utility.yul\":15684:15699   */\n      mstore\n        /* \"#utility.yul\":15718:15722   */\n      0x24\n        /* \"#utility.yul\":15715:15716   */\n      0x00\n        /* \"#utility.yul\":15708:15723   */\n      revert\n        /* \"#utility.yul\":15735:15915   */\n    tag_312:\n        /* \"#utility.yul\":15783:15860   */\n      0x4e487b7100000000000000000000000000000000000000000000000000000000\n        /* \"#utility.yul\":15780:15781   */\n      0x00\n        /* \"#utility.yul\":15773:15861   */\n      mstore\n        /* \"#utility.yul\":15880:15884   */\n      0x41\n        /* \"#utility.yul\":15877:15878   */\n      0x04\n        /* \"#utility.yul\":15870:15885   */\n      mstore\n        /* \"#utility.yul\":15904:15908   */\n      0x24\n        /* \"#utility.yul\":15901:15902   */\n      0x00\n        /* \"#utility.yul\":15894:15909   */\n      revert\n        /* \"#utility.yul\":15921:16038   */\n    tag_180:\n        /* \"#utility.yul\":16030:16031   */\n      0x00\n        /* \"#utility.yul\":16027:16028   */\n      dup1\n        /* \"#utility.yul\":16020:16032   */\n      revert\n        /* \"#utility.yul\":16044:16161   */\n    tag_165:\n        /* \"#utility.yul\":16153:16154   */\n      0x00\n        /* \"#utility.yul\":16150:16151   */\n      dup1\n        /* \"#utility.yul\":16143:16155   */\n      revert\n        /* \"#utility.yul\":16167:16284   */\n    tag_196:\n        /* \"#utility.yul\":16276:16277   */\n      0x00\n        /* \"#utility.yul\":16273:16274   */\n      dup1\n        /* \"#utility.yul\":16266:16278   */\n      revert\n        /* \"#utility.yul\":16290:16407   */\n    tag_189:\n        /* \"#utility.yul\":16399:16400   */\n      0x00\n        /* \"#utility.yul\":16396:16397   */\n      dup1\n        /* \"#utility.yul\":16389:16401   */\n      revert\n        /* \"#utility.yul\":16413:16515   */\n    tag_225:\n        /* \"#utility.yul\":16454:16460   */\n      0x00\n        /* \"#utility.yul\":16505:16507   */\n      0x1f\n        /* \"#utility.yul\":16501:16508   */\n      not\n        /* \"#utility.yul\":16496:16498   */\n      0x1f\n        /* \"#utility.yul\":16489:16494   */\n      dup4\n        /* \"#utility.yul\":16485:16499   */\n      add\n        /* \"#utility.yul\":16481:16509   */\n      and\n        /* \"#utility.yul\":16471:16509   */\n      swap1\n      pop\n        /* \"#utility.yul\":16413:16515   */\n      swap2\n      swap1\n      pop\n      jump\t// out\n        /* \"#utility.yul\":16521:16744   */\n    tag_230:\n        /* \"#utility.yul\":16661:16695   */\n      0x536f727279212120446561646c696e652068617320616c726561647920706173\n        /* \"#utility.yul\":16657:16658   */\n      0x00\n        /* \"#utility.yul\":16649:16655   */\n      dup3\n        /* \"#utility.yul\":16645:16659   */\n      add\n        /* \"#utility.yul\":16638:16696   */\n      mstore\n        /* \"#utility.yul\":16730:16736   */\n      0x7365642e00000000000000000000000000000000000000000000000000000000\n        /* \"#utility.yul\":16725:16727   */\n      0x20\n        /* \"#utility.yul\":16717:16723   */\n      dup3\n        /* \"#utility.yul\":16713:16728   */\n      add\n        /* \"#utility.yul\":16706:16737   */\n      mstore\n        /* \"#utility.yul\":16521:16744   */\n      pop\n      jump\t// out\n        /* \"#utility.yul\":16750:16923   */\n    tag_235:\n        /* \"#utility.yul\":16890:16915   */\n      0x496e76616c69642072657175657374206e756d6265722e000000000000000000\n        /* \"#utility.yul\":16886:16887   */\n      0x00\n        /* \"#utility.yul\":16878:16884   */\n      dup3\n        /* \"#utility.yul\":16874:16888   */\n      add\n        /* \"#utility.yul\":16867:16916   */\n      mstore\n        /* \"#utility.yul\":16750:16923   */\n      pop\n      jump\t// out\n        /* \"#utility.yul\":16929:17102   */\n    tag_240:\n        /* \"#utility.yul\":17069:17094   */\n      0x496e76616c69642052657175657374204e756d6265722e000000000000000000\n        /* \"#utility.yul\":17065:17066   */\n      0x00\n        /* \"#utility.yul\":17057:17063   */\n      dup3\n        /* \"#utility.yul\":17053:17067   */\n      add\n        /* \"#utility.yul\":17046:17095   */\n      mstore\n        /* \"#utility.yul\":16929:17102   */\n      pop\n      jump\t// out\n        /* \"#utility.yul\":17108:17547   */\n    tag_245:\n        /* \"#utility.yul\":17248:17282   */\n      0x536f7272792c20726566756e6420686173206e6f742073746172746564207965\n        /* \"#utility.yul\":17244:17245   */\n      0x00\n        /* \"#utility.yul\":17236:17242   */\n      dup3\n        /* \"#utility.yul\":17232:17246   */\n      add\n        /* \"#utility.yul\":17225:17283   */\n      mstore\n        /* \"#utility.yul\":17317:17351   */\n      0x7420666f7220616e796f6e652062656361757365206569746865722064656164\n        /* \"#utility.yul\":17312:17314   */\n      0x20\n        /* \"#utility.yul\":17304:17310   */\n      dup3\n        /* \"#utility.yul\":17300:17315   */\n      add\n        /* \"#utility.yul\":17293:17352   */\n      mstore\n        /* \"#utility.yul\":17386:17420   */\n      0x6c696e6520686173206e6f742063726f7373206f722074686520726169736564\n        /* \"#utility.yul\":17381:17383   */\n      0x40\n        /* \"#utility.yul\":17373:17379   */\n      dup3\n        /* \"#utility.yul\":17369:17384   */\n      add\n        /* \"#utility.yul\":17362:17421   */\n      mstore\n        /* \"#utility.yul\":17455:17489   */\n      0x20616d6f756e7420697320657175616c206f72206d6f7265207468616e207461\n        /* \"#utility.yul\":17450:17452   */\n      0x60\n        /* \"#utility.yul\":17442:17448   */\n      dup3\n        /* \"#utility.yul\":17438:17453   */\n      add\n        /* \"#utility.yul\":17431:17490   */\n      mstore\n        /* \"#utility.yul\":17525:17539   */\n      0x7267657420616d6f756e742e0000000000000000000000000000000000000000\n        /* \"#utility.yul\":17519:17522   */\n      0x80\n        /* \"#utility.yul\":17511:17517   */\n      dup3\n        /* \"#utility.yul\":17507:17523   */\n      add\n        /* \"#utility.yul\":17500:17540   */\n      mstore\n        /* \"#utility.yul\":17108:17547   */\n      pop\n      jump\t// out\n        /* \"#utility.yul\":17553:17727   */\n    tag_250:\n        /* \"#utility.yul\":17693:17719   */\n      0x596f7520686176656e277420636f6e74726962757465642e0000000000000000\n        /* \"#utility.yul\":17689:17690   */\n      0x00\n        /* \"#utility.yul\":17681:17687   */\n      dup3\n        /* \"#utility.yul\":17677:17691   */\n      add\n        /* \"#utility.yul\":17670:17720   */\n      mstore\n        /* \"#utility.yul\":17553:17727   */\n      pop\n      jump\t// out\n        /* \"#utility.yul\":17733:17960   */\n    tag_255:\n        /* \"#utility.yul\":17873:17907   */\n      0x536f727279212120796f75206861766520746f20706179206d696e696d756d20\n        /* \"#utility.yul\":17869:17870   */\n      0x00\n        /* \"#utility.yul\":17861:17867   */\n      dup3\n        /* \"#utility.yul\":17857:17871   */\n      add\n        /* \"#utility.yul\":17850:17908   */\n      mstore\n        /* \"#utility.yul\":17942:17952   */\n      0x313030207765692e000000000000000000000000000000000000000000000000\n        /* \"#utility.yul\":17937:17939   */\n      0x20\n        /* \"#utility.yul\":17929:17935   */\n      dup3\n        /* \"#utility.yul\":17925:17940   */\n      add\n        /* \"#utility.yul\":17918:17953   */\n      mstore\n        /* \"#utility.yul\":17733:17960   */\n      pop\n      jump\t// out\n        /* \"#utility.yul\":17966:18257   */\n    tag_260:\n        /* \"#utility.yul\":18106:18140   */\n      0x536f727279212120596f75206861766520746f20636f6e747269627574652066\n        /* \"#utility.yul\":18102:18103   */\n      0x00\n        /* \"#utility.yul\":18094:18100   */\n      dup3\n        /* \"#utility.yul\":18090:18104   */\n      add\n        /* \"#utility.yul\":18083:18141   */\n      mstore\n        /* \"#utility.yul\":18175:18209   */\n      0x6972737420696e206f7264657220746f20656c696769626c6520666f7220766f\n        /* \"#utility.yul\":18170:18172   */\n      0x20\n        /* \"#utility.yul\":18162:18168   */\n      dup3\n        /* \"#utility.yul\":18158:18173   */\n      add\n        /* \"#utility.yul\":18151:18210   */\n      mstore\n        /* \"#utility.yul\":18244:18249   */\n      0x74652e0000000000000000000000000000000000000000000000000000000000\n        /* \"#utility.yul\":18239:18241   */\n      0x40\n        /* \"#utility.yul\":18231:18237   */\n      dup3\n        /* \"#utility.yul\":18227:18242   */\n      add\n        /* \"#utility.yul\":18220:18250   */\n      mstore\n        /* \"#utility.yul\":17966:18257   */\n      pop\n      jump\t// out\n        /* \"#utility.yul\":18263:18485   */\n    tag_265:\n        /* \"#utility.yul\":18403:18437   */\n      0x4f6e6c79206d616e616765722063616e2063616c6c2074686973206665617475\n        /* \"#utility.yul\":18399:18400   */\n      0x00\n        /* \"#utility.yul\":18391:18397   */\n      dup3\n        /* \"#utility.yul\":18387:18401   */\n      add\n        /* \"#utility.yul\":18380:18438   */\n      mstore\n        /* \"#utility.yul\":18472:18477   */\n      0x72652e0000000000000000000000000000000000000000000000000000000000\n        /* \"#utility.yul\":18467:18469   */\n      0x20\n        /* \"#utility.yul\":18459:18465   */\n      dup3\n        /* \"#utility.yul\":18455:18470   */\n      add\n        /* \"#utility.yul\":18448:18478   */\n      mstore\n        /* \"#utility.yul\":18263:18485   */\n      pop\n      jump\t// out\n        /* \"#utility.yul\":18491:18801   */\n    tag_270:\n        /* \"#utility.yul\":18631:18665   */\n      0x4f707073212120796f7520616c72656164792070757420796f757220766f7465\n        /* \"#utility.yul\":18627:18628   */\n      0x00\n        /* \"#utility.yul\":18619:18625   */\n      dup3\n        /* \"#utility.yul\":18615:18629   */\n      add\n        /* \"#utility.yul\":18608:18666   */\n      mstore\n        /* \"#utility.yul\":18700:18734   */\n      0x20666f72207468697320726571756573742e20596f752063616e206f6e6c7920\n        /* \"#utility.yul\":18695:18697   */\n      0x20\n        /* \"#utility.yul\":18687:18693   */\n      dup3\n        /* \"#utility.yul\":18683:18698   */\n      add\n        /* \"#utility.yul\":18676:18735   */\n      mstore\n        /* \"#utility.yul\":18769:18793   */\n      0x766f7465206f6e63652070657220726571756573742e00000000000000000000\n        /* \"#utility.yul\":18764:18766   */\n      0x40\n        /* \"#utility.yul\":18756:18762   */\n      dup3\n        /* \"#utility.yul\":18752:18767   */\n      add\n        /* \"#utility.yul\":18745:18794   */\n      mstore\n        /* \"#utility.yul\":18491:18801   */\n      pop\n      jump\t// out\n        /* \"#utility.yul\":18807:18929   */\n    tag_171:\n        /* \"#utility.yul\":18880:18904   */\n      tag_376\n        /* \"#utility.yul\":18898:18903   */\n      dup2\n        /* \"#utility.yul\":18880:18904   */\n      tag_211\n      jump\t// in\n    tag_376:\n        /* \"#utility.yul\":18873:18878   */\n      dup2\n        /* \"#utility.yul\":18870:18905   */\n      eq\n        /* \"#utility.yul\":18860:18923   */\n      tag_377\n      jumpi\n        /* \"#utility.yul\":18919:18920   */\n      0x00\n        /* \"#utility.yul\":18916:18917   */\n      dup1\n        /* \"#utility.yul\":18909:18921   */\n      revert\n        /* \"#utility.yul\":18860:18923   */\n    tag_377:\n        /* \"#utility.yul\":18807:18929   */\n      pop\n      jump\t// out\n        /* \"#utility.yul\":18935:19073   */\n    tag_175:\n        /* \"#utility.yul\":19016:19048   */\n      tag_379\n        /* \"#utility.yul\":19042:19047   */\n      dup2\n        /* \"#utility.yul\":19016:19048   */\n      tag_207\n      jump\t// in\n    tag_379:\n        /* \"#utility.yul\":19009:19014   */\n      dup2\n        /* \"#utility.yul\":19006:19049   */\n      eq\n        /* \"#utility.yul\":18996:19067   */\n      tag_380\n      jumpi\n        /* \"#utility.yul\":19063:19064   */\n      0x00\n        /* \"#utility.yul\":19060:19061   */\n      dup1\n        /* \"#utility.yul\":19053:19065   */\n      revert\n        /* \"#utility.yul\":18996:19067   */\n    tag_380:\n        /* \"#utility.yul\":18935:19073   */\n      pop\n      jump\t// out\n        /* \"#utility.yul\":19079:19201   */\n    tag_185:\n        /* \"#utility.yul\":19152:19176   */\n      tag_382\n        /* \"#utility.yul\":19170:19175   */\n      dup2\n        /* \"#utility.yul\":19152:19176   */\n      tag_274\n      jump\t// in\n    tag_382:\n        /* \"#utility.yul\":19145:19150   */\n      dup2\n        /* \"#utility.yul\":19142:19177   */\n      eq\n        /* \"#utility.yul\":19132:19195   */\n      tag_383\n      jumpi\n        /* \"#utility.yul\":19191:19192   */\n      0x00\n        /* \"#utility.yul\":19188:19189   */\n      dup1\n        /* \"#utility.yul\":19181:19193   */\n      revert\n        /* \"#utility.yul\":19132:19195   */\n    tag_383:\n        /* \"#utility.yul\":19079:19201   */\n      pop\n      jump\t// out\n\n    auxdata: 0xa26469706673582212207cf93dd0bdb5fcdb9d5454ed37a6946cb49ecdb8b47e732564b92b04b0c586e464736f6c63430008070033\n}\n",
				"bytecode": {
					"linkReferences": {},
					"object": "60806040523480156200001157600080fd5b5060405162001a3238038062001a328339818101604052810190620000379190620000ba565b8160048190555080426200004c919062000101565b600381905550606460028190555033600160006101000a81548173ffffffffffffffffffffffffffffffffffffffff021916908373ffffffffffffffffffffffffffffffffffffffff1602179055505050620001b6565b600081519050620000b4816200019c565b92915050565b60008060408385031215620000d457620000d362000197565b5b6000620000e485828601620000a3565b9250506020620000f785828601620000a3565b9150509250929050565b60006200010e826200015e565b91506200011b836200015e565b9250827fffffffffffffffffffffffffffffffffffffffffffffffffffffffffffffffff0382111562000153576200015262000168565b5b828201905092915050565b6000819050919050565b7f4e487b7100000000000000000000000000000000000000000000000000000000600052601160045260246000fd5b600080fd5b620001a7816200015e565b8114620001b357600080fd5b50565b61186c80620001c66000396000f3fe6080604052600436106100e85760003560e01c80635114cb521161008a578063937e09b111610059578063937e09b1146102b3578063953b8fb8146102de5780639fb42b1f14610309578063c59ee1dc14610334576100e8565b80635114cb5214610207578063590e1ae3146102305780636f9fb98a1461024757806381d12c5814610272576100e8565b806329dcb0cf116100c657806329dcb0cf1461015d578063481c6a75146101885780634cb6f4a5146101b35780634e260f6f146101dc576100e8565b806306e99fef146100ed5780631b16bb5c146100f75780631f6d494214610120575b600080fd5b6100f561035f565b005b34801561010357600080fd5b5061011e60048036038101906101199190610dc2565b6104b8565b005b34801561012c57600080fd5b5061014760048036038101906101429190610d95565b61060b565b60405161015491906111a3565b60405180910390f35b34801561016957600080fd5b50610172610623565b60405161017f91906111a3565b60405180910390f35b34801561019457600080fd5b5061019d610629565b6040516101aa919061100e565b60405180910390f35b3480156101bf57600080fd5b506101da60048036038101906101d59190610e31565b61064f565b005b3480156101e857600080fd5b506101f1610846565b6040516101fe91906111a3565b60405180910390f35b34801561021357600080fd5b5061022e60048036038101906102299190610e31565b61084c565b005b34801561023c57600080fd5b50610245610924565b005b34801561025357600080fd5b5061025c610b38565b60405161026991906111a3565b60405180910390f35b34801561027e57600080fd5b5061029960048036038101906102949190610e31565b610b40565b6040516102aa959493929190611029565b60405180910390f35b3480156102bf57600080fd5b506102c8610c2b565b6040516102d591906111a3565b60405180910390f35b3480156102ea57600080fd5b506102f3610c31565b60405161030091906111a3565b60405180910390f35b34801561031557600080fd5b5061031e610c37565b60405161032b91906111a3565b60405180910390f35b34801561034057600080fd5b50610349610c3d565b60405161035691906111a3565b60405180910390f35b60035442106103a3576040517f08c379a000000000000000000000000000000000000000000000000000000000815260040161039a90611083565b60405180910390fd5b6002543410156103e8576040517f08c379a00000000000000000000000000000000000000000000000000000000081526004016103df90611123565b60405180910390fd5b60008060003373ffffffffffffffffffffffffffffffffffffffff1673ffffffffffffffffffffffffffffffffffffffff1681526020019081526020016000205414156104485760066000815480929190610442906113e3565b91905055505b346000803373ffffffffffffffffffffffffffffffffffffffff1673ffffffffffffffffffffffffffffffffffffffff16815260200190815260200160002060008282546104969190611230565b9250508190555034600560008282546104af9190611230565b92505081905550565b600160009054906101000a900473ffffffffffffffffffffffffffffffffffffffff1673ffffffffffffffffffffffffffffffffffffffff163373ffffffffffffffffffffffffffffffffffffffff1614610548576040517f08c379a000000000000000000000000000000000000000000000000000000000815260040161053f90611163565b60405180910390fd5b6000600760006008548152602001908152602001600020905060086000815480929190610574906113e3565b919050555083816000019080519060200190610591929190610c43565b50828160020160006101000a81548173ffffffffffffffffffffffffffffffffffffffff021916908373ffffffffffffffffffffffffffffffffffffffff16021790555081816001018190555060008160020160146101000a81548160ff0219169083151502179055506000816003018190555050505050565b60006020528060005260406000206000915090505481565b60035481565b600160009054906101000a900473ffffffffffffffffffffffffffffffffffffffff1681565b60008060003373ffffffffffffffffffffffffffffffffffffffff1673ffffffffffffffffffffffffffffffffffffffff16815260200190815260200160002054116106d0576040517f08c379a00000000000000000000000000000000000000000000000000000000081526004016106c790611143565b60405180910390fd5b60085481111580156106e3575060008110155b610722576040517f08c379a0000000000000000000000000000000000000000000000000000000008152600401610719906110a3565b60405180910390fd5b6000600760008381526020019081526020016000209050600015158160040160003373ffffffffffffffffffffffffffffffffffffffff1673ffffffffffffffffffffffffffffffffffffffff16815260200190815260200160002060009054906101000a900460ff161515146107ce576040517f08c379a00000000000000000000000000000000000000000000000000000000081526004016107c590611183565b60405180910390fd5b60018160040160003373ffffffffffffffffffffffffffffffffffffffff1673ffffffffffffffffffffffffffffffffffffffff16815260200190815260200160002060006101000a81548160ff02191690831515021790555080600301600081548092919061083d906113e3565b91905055505050565b60065481565b600160009054906101000a900473ffffffffffffffffffffffffffffffffffffffff1673ffffffffffffffffffffffffffffffffffffffff163373ffffffffffffffffffffffffffffffffffffffff16146108dc576040517f08c379a00000000000000000000000000000000000000000000000000000000081526004016108d390611163565b60405180910390fd5b600854811115610921576040517f08c379a0000000000000000000000000000000000000000000000000000000008152600401610918906110c3565b60405180910390fd5b50565b600354421180156109385750600454600554105b610977576040517f08c379a000000000000000000000000000000000000000000000000000000000815260040161096e906110e3565b60405180910390fd5b60008060003373ffffffffffffffffffffffffffffffffffffffff1673ffffffffffffffffffffffffffffffffffffffff16815260200190815260200160002054116109f8576040517f08c379a00000000000000000000000000000000000000000000000000000000081526004016109ef90611103565b60405180910390fd5b60003390508073ffffffffffffffffffffffffffffffffffffffff166108fc6000803373ffffffffffffffffffffffffffffffffffffffff1673ffffffffffffffffffffffffffffffffffffffff168152602001908152602001600020549081150290604051600060405180830381858888f19350505050158015610a81573d6000803e3d6000fd5b506000803373ffffffffffffffffffffffffffffffffffffffff1673ffffffffffffffffffffffffffffffffffffffff1681526020019081526020016000205460056000828254610ad29190611286565b9250508190555060008060003373ffffffffffffffffffffffffffffffffffffffff1673ffffffffffffffffffffffffffffffffffffffff1681526020019081526020016000208190555060066000815480929190610b3090611356565b919050555050565b600047905090565b6007602052806000526040600020600091509050806000018054610b6390611380565b80601f0160208091040260200160405190810160405280929190818152602001828054610b8f90611380565b8015610bdc5780601f10610bb157610100808354040283529160200191610bdc565b820191906000526020600020905b815481529060010190602001808311610bbf57829003601f168201915b5050505050908060010154908060020160009054906101000a900473ffffffffffffffffffffffffffffffffffffffff16908060020160149054906101000a900460ff16908060030154905085565b60025481565b60045481565b60085481565b60055481565b828054610c4f90611380565b90600052602060002090601f016020900481019282610c715760008555610cb8565b82601f10610c8a57805160ff1916838001178555610cb8565b82800160010185558215610cb8579182015b82811115610cb7578251825591602001919060010190610c9c565b5b509050610cc59190610cc9565b5090565b5b80821115610ce2576000816000905550600101610cca565b5090565b6000610cf9610cf4846111e3565b6111be565b905082815260208101848484011115610d1557610d146114be565b5b610d20848285611314565b509392505050565b600081359050610d37816117f1565b92915050565b600081359050610d4c81611808565b92915050565b600082601f830112610d6757610d666114b9565b5b8135610d77848260208601610ce6565b91505092915050565b600081359050610d8f8161181f565b92915050565b600060208284031215610dab57610daa6114c8565b5b6000610db984828501610d28565b91505092915050565b600080600060608486031215610ddb57610dda6114c8565b5b600084013567ffffffffffffffff811115610df957610df86114c3565b5b610e0586828701610d52565b9350506020610e1686828701610d3d565b9250506040610e2786828701610d80565b9150509250925092565b600060208284031215610e4757610e466114c8565b5b6000610e5584828501610d80565b91505092915050565b610e67816112cc565b82525050565b610e76816112ba565b82525050565b610e85816112de565b82525050565b6000610e9682611214565b610ea0818561121f565b9350610eb0818560208601611323565b610eb9816114cd565b840191505092915050565b6000610ed160248361121f565b9150610edc826114de565b604082019050919050565b6000610ef460178361121f565b9150610eff8261152d565b602082019050919050565b6000610f1760178361121f565b9150610f2282611556565b602082019050919050565b6000610f3a608c8361121f565b9150610f458261157f565b60a082019050919050565b6000610f5d60188361121f565b9150610f6882611640565b602082019050919050565b6000610f8060288361121f565b9150610f8b82611669565b604082019050919050565b6000610fa360438361121f565b9150610fae826116b8565b606082019050919050565b6000610fc660238361121f565b9150610fd18261172d565b604082019050919050565b6000610fe960568361121f565b9150610ff48261177c565b606082019050919050565b6110088161130a565b82525050565b60006020820190506110236000830184610e6d565b92915050565b600060a08201905081810360008301526110438188610e8b565b90506110526020830187610fff565b61105f6040830186610e5e565b61106c6060830185610e7c565b6110796080830184610fff565b9695505050505050565b6000602082019050818103600083015261109c81610ec4565b9050919050565b600060208201905081810360008301526110bc81610ee7565b9050919050565b600060208201905081810360008301526110dc81610f0a565b9050919050565b600060208201905081810360008301526110fc81610f2d565b9050919050565b6000602082019050818103600083015261111c81610f50565b9050919050565b6000602082019050818103600083015261113c81610f73565b9050919050565b6000602082019050818103600083015261115c81610f96565b9050919050565b6000602082019050818103600083015261117c81610fb9565b9050919050565b6000602082019050818103600083015261119c81610fdc565b9050919050565b60006020820190506111b86000830184610fff565b92915050565b60006111c86111d9565b90506111d482826113b2565b919050565b6000604051905090565b600067ffffffffffffffff8211156111fe576111fd61148a565b5b611207826114cd565b9050602081019050919050565b600081519050919050565b600082825260208201905092915050565b600061123b8261130a565b91506112468361130a565b9250827fffffffffffffffffffffffffffffffffffffffffffffffffffffffffffffffff0382111561127b5761127a61142c565b5b828201905092915050565b60006112918261130a565b915061129c8361130a565b9250828210156112af576112ae61142c565b5b828203905092915050565b60006112c5826112ea565b9050919050565b60006112d7826112ea565b9050919050565b60008115159050919050565b600073ffffffffffffffffffffffffffffffffffffffff82169050919050565b6000819050919050565b82818337600083830152505050565b60005b83811015611341578082015181840152602081019050611326565b83811115611350576000848401525b50505050565b60006113618261130a565b915060008214156113755761137461142c565b5b600182039050919050565b6000600282049050600182168061139857607f821691505b602082108114156113ac576113ab61145b565b5b50919050565b6113bb826114cd565b810181811067ffffffffffffffff821117156113da576113d961148a565b5b80604052505050565b60006113ee8261130a565b91507fffffffffffffffffffffffffffffffffffffffffffffffffffffffffffffffff8214156114215761142061142c565b5b600182019050919050565b7f4e487b7100000000000000000000000000000000000000000000000000000000600052601160045260246000fd5b7f4e487b7100000000000000000000000000000000000000000000000000000000600052602260045260246000fd5b7f4e487b7100000000000000000000000000000000000000000000000000000000600052604160045260246000fd5b600080fd5b600080fd5b600080fd5b600080fd5b6000601f19601f8301169050919050565b7f536f727279212120446561646c696e652068617320616c72656164792070617360008201527f7365642e00000000000000000000000000000000000000000000000000000000602082015250565b7f496e76616c69642072657175657374206e756d6265722e000000000000000000600082015250565b7f496e76616c69642052657175657374204e756d6265722e000000000000000000600082015250565b7f536f7272792c20726566756e6420686173206e6f74207374617274656420796560008201527f7420666f7220616e796f6e65206265636175736520656974686572206465616460208201527f6c696e6520686173206e6f742063726f7373206f72207468652072616973656460408201527f20616d6f756e7420697320657175616c206f72206d6f7265207468616e20746160608201527f7267657420616d6f756e742e0000000000000000000000000000000000000000608082015250565b7f596f7520686176656e277420636f6e74726962757465642e0000000000000000600082015250565b7f536f727279212120796f75206861766520746f20706179206d696e696d756d2060008201527f313030207765692e000000000000000000000000000000000000000000000000602082015250565b7f536f727279212120596f75206861766520746f20636f6e74726962757465206660008201527f6972737420696e206f7264657220746f20656c696769626c6520666f7220766f60208201527f74652e0000000000000000000000000000000000000000000000000000000000604082015250565b7f4f6e6c79206d616e616765722063616e2063616c6c207468697320666561747560008201527f72652e0000000000000000000000000000000000000000000000000000000000602082015250565b7f4f707073212120796f7520616c72656164792070757420796f757220766f746560008201527f20666f72207468697320726571756573742e20596f752063616e206f6e6c792060208201527f766f7465206f6e63652070657220726571756573742e00000000000000000000604082015250565b6117fa816112ba565b811461180557600080fd5b50565b611811816112cc565b811461181c57600080fd5b50565b6118288161130a565b811461183357600080fd5b5056fea26469706673582212207cf93dd0bdb5fcdb9d5454ed37a6946cb49ecdb8b47e732564b92b04b0c586e464736f6c63430008070033",
					"opcodes": "PUSH1 0x80 PUSH1 0x40 MSTORE CALLVALUE DUP1 ISZERO PUSH3 0x11 JUMPI PUSH1 0x0 DUP1 REVERT JUMPDEST POP PUSH1 0x40 MLOAD PUSH3 0x1A32 CODESIZE SUB DUP1 PUSH3 0x1A32 DUP4 CODECOPY DUP2 DUP2 ADD PUSH1 0x40 MSTORE DUP2 ADD SWAP1 PUSH3 0x37 SWAP2 SWAP1 PUSH3 0xBA JUMP JUMPDEST DUP2 PUSH1 0x4 DUP2 SWAP1 SSTORE POP DUP1 TIMESTAMP PUSH3 0x4C SWAP2 SWAP1 PUSH3 0x101 JUMP JUMPDEST PUSH1 0x3 DUP2 SWAP1 SSTORE POP PUSH1 0x64 PUSH1 0x2 DUP2 SWAP1 SSTORE POP CALLER PUSH1 0x1 PUSH1 0x0 PUSH2 0x100 EXP DUP2 SLOAD DUP2 PUSH20 0xFFFFFFFFFFFFFFFFFFFFFFFFFFFFFFFFFFFFFFFF MUL NOT AND SWAP1 DUP4 PUSH20 0xFFFFFFFFFFFFFFFFFFFFFFFFFFFFFFFFFFFFFFFF AND MUL OR SWAP1 SSTORE POP POP POP PUSH3 0x1B6 JUMP JUMPDEST PUSH1 0x0 DUP2 MLOAD SWAP1 POP PUSH3 0xB4 DUP2 PUSH3 0x19C JUMP JUMPDEST SWAP3 SWAP2 POP POP JUMP JUMPDEST PUSH1 0x0 DUP1 PUSH1 0x40 DUP4 DUP6 SUB SLT ISZERO PUSH3 0xD4 JUMPI PUSH3 0xD3 PUSH3 0x197 JUMP JUMPDEST JUMPDEST PUSH1 0x0 PUSH3 0xE4 DUP6 DUP3 DUP7 ADD PUSH3 0xA3 JUMP JUMPDEST SWAP3 POP POP PUSH1 0x20 PUSH3 0xF7 DUP6 DUP3 DUP7 ADD PUSH3 0xA3 JUMP JUMPDEST SWAP2 POP POP SWAP3 POP SWAP3 SWAP1 POP JUMP JUMPDEST PUSH1 0x0 PUSH3 0x10E DUP3 PUSH3 0x15E JUMP JUMPDEST SWAP2 POP PUSH3 0x11B DUP4 PUSH3 0x15E JUMP JUMPDEST SWAP3 POP DUP3 PUSH32 0xFFFFFFFFFFFFFFFFFFFFFFFFFFFFFFFFFFFFFFFFFFFFFFFFFFFFFFFFFFFFFFFF SUB DUP3 GT ISZERO PUSH3 0x153 JUMPI PUSH3 0x152 PUSH3 0x168 JUMP JUMPDEST JUMPDEST DUP3 DUP3 ADD SWAP1 POP SWAP3 SWAP2 POP POP JUMP JUMPDEST PUSH1 0x0 DUP2 SWAP1 POP SWAP2 SWAP1 POP JUMP JUMPDEST PUSH32 0x4E487B7100000000000000000000000000000000000000000000000000000000 PUSH1 0x0 MSTORE PUSH1 0x11 PUSH1 0x4 MSTORE PUSH1 0x24 PUSH1 0x0 REVERT JUMPDEST PUSH1 0x0 DUP1 REVERT JUMPDEST PUSH3 0x1A7 DUP2 PUSH3 0x15E JUMP JUMPDEST DUP2 EQ PUSH3 0x1B3 JUMPI PUSH1 0x0 DUP1 REVERT JUMPDEST POP JUMP JUMPDEST PUSH2 0x186C DUP1 PUSH3 0x1C6 PUSH1 0x0 CODECOPY PUSH1 0x0 RETURN INVALID PUSH1 0x80 PUSH1 0x40 MSTORE PUSH1 0x4 CALLDATASIZE LT PUSH2 0xE8 JUMPI PUSH1 0x0 CALLDATALOAD PUSH1 0xE0 SHR DUP1 PUSH4 0x5114CB52 GT PUSH2 0x8A JUMPI DUP1 PUSH4 0x937E09B1 GT PUSH2 0x59 JUMPI DUP1 PUSH4 0x937E09B1 EQ PUSH2 0x2B3 JUMPI DUP1 PUSH4 0x953B8FB8 EQ PUSH2 0x2DE JUMPI DUP1 PUSH4 0x9FB42B1F EQ PUSH2 0x309 JUMPI DUP1 PUSH4 0xC59EE1DC EQ PUSH2 0x334 JUMPI PUSH2 0xE8 JUMP JUMPDEST DUP1 PUSH4 0x5114CB52 EQ PUSH2 0x207 JUMPI DUP1 PUSH4 0x590E1AE3 EQ PUSH2 0x230 JUMPI DUP1 PUSH4 0x6F9FB98A EQ PUSH2 0x247 JUMPI DUP1 PUSH4 0x81D12C58 EQ PUSH2 0x272 JUMPI PUSH2 0xE8 JUMP JUMPDEST DUP1 PUSH4 0x29DCB0CF GT PUSH2 0xC6 JUMPI DUP1 PUSH4 0x29DCB0CF EQ PUSH2 0x15D JUMPI DUP1 PUSH4 0x481C6A75 EQ PUSH2 0x188 JUMPI DUP1 PUSH4 0x4CB6F4A5 EQ PUSH2 0x1B3 JUMPI DUP1 PUSH4 0x4E260F6F EQ PUSH2 0x1DC JUMPI PUSH2 0xE8 JUMP JUMPDEST DUP1 PUSH4 0x6E99FEF EQ PUSH2 0xED JUMPI DUP1 PUSH4 0x1B16BB5C EQ PUSH2 0xF7 JUMPI DUP1 PUSH4 0x1F6D4942 EQ PUSH2 0x120 JUMPI JUMPDEST PUSH1 0x0 DUP1 REVERT JUMPDEST PUSH2 0xF5 PUSH2 0x35F JUMP JUMPDEST STOP JUMPDEST CALLVALUE DUP1 ISZERO PUSH2 0x103 JUMPI PUSH1 0x0 DUP1 REVERT JUMPDEST POP PUSH2 0x11E PUSH1 0x4 DUP1 CALLDATASIZE SUB DUP2 ADD SWAP1 PUSH2 0x119 SWAP2 SWAP1 PUSH2 0xDC2 JUMP JUMPDEST PUSH2 0x4B8 JUMP JUMPDEST STOP JUMPDEST CALLVALUE DUP1 ISZERO PUSH2 0x12C JUMPI PUSH1 0x0 DUP1 REVERT JUMPDEST POP PUSH2 0x147 PUSH1 0x4 DUP1 CALLDATASIZE SUB DUP2 ADD SWAP1 PUSH2 0x142 SWAP2 SWAP1 PUSH2 0xD95 JUMP JUMPDEST PUSH2 0x60B JUMP JUMPDEST PUSH1 0x40 MLOAD PUSH2 0x154 SWAP2 SWAP1 PUSH2 0x11A3 JUMP JUMPDEST PUSH1 0x40 MLOAD DUP1 SWAP2 SUB SWAP1 RETURN JUMPDEST CALLVALUE DUP1 ISZERO PUSH2 0x169 JUMPI PUSH1 0x0 DUP1 REVERT JUMPDEST POP PUSH2 0x172 PUSH2 0x623 JUMP JUMPDEST PUSH1 0x40 MLOAD PUSH2 0x17F SWAP2 SWAP1 PUSH2 0x11A3 JUMP JUMPDEST PUSH1 0x40 MLOAD DUP1 SWAP2 SUB SWAP1 RETURN JUMPDEST CALLVALUE DUP1 ISZERO PUSH2 0x194 JUMPI PUSH1 0x0 DUP1 REVERT JUMPDEST POP PUSH2 0x19D PUSH2 0x629 JUMP JUMPDEST PUSH1 0x40 MLOAD PUSH2 0x1AA SWAP2 SWAP1 PUSH2 0x100E JUMP JUMPDEST PUSH1 0x40 MLOAD DUP1 SWAP2 SUB SWAP1 RETURN JUMPDEST CALLVALUE DUP1 ISZERO PUSH2 0x1BF JUMPI PUSH1 0x0 DUP1 REVERT JUMPDEST POP PUSH2 0x1DA PUSH1 0x4 DUP1 CALLDATASIZE SUB DUP2 ADD SWAP1 PUSH2 0x1D5 SWAP2 SWAP1 PUSH2 0xE31 JUMP JUMPDEST PUSH2 0x64F JUMP JUMPDEST STOP JUMPDEST CALLVALUE DUP1 ISZERO PUSH2 0x1E8 JUMPI PUSH1 0x0 DUP1 REVERT JUMPDEST POP PUSH2 0x1F1 PUSH2 0x846 JUMP JUMPDEST PUSH1 0x40 MLOAD PUSH2 0x1FE SWAP2 SWAP1 PUSH2 0x11A3 JUMP JUMPDEST PUSH1 0x40 MLOAD DUP1 SWAP2 SUB SWAP1 RETURN JUMPDEST CALLVALUE DUP1 ISZERO PUSH2 0x213 JUMPI PUSH1 0x0 DUP1 REVERT JUMPDEST POP PUSH2 0x22E PUSH1 0x4 DUP1 CALLDATASIZE SUB DUP2 ADD SWAP1 PUSH2 0x229 SWAP2 SWAP1 PUSH2 0xE31 JUMP JUMPDEST PUSH2 0x84C JUMP JUMPDEST STOP JUMPDEST CALLVALUE DUP1 ISZERO PUSH2 0x23C JUMPI PUSH1 0x0 DUP1 REVERT JUMPDEST POP PUSH2 0x245 PUSH2 0x924 JUMP JUMPDEST STOP JUMPDEST CALLVALUE DUP1 ISZERO PUSH2 0x253 JUMPI PUSH1 0x0 DUP1 REVERT JUMPDEST POP PUSH2 0x25C PUSH2 0xB38 JUMP JUMPDEST PUSH1 0x40 MLOAD PUSH2 0x269 SWAP2 SWAP1 PUSH2 0x11A3 JUMP JUMPDEST PUSH1 0x40 MLOAD DUP1 SWAP2 SUB SWAP1 RETURN JUMPDEST CALLVALUE DUP1 ISZERO PUSH2 0x27E JUMPI PUSH1 0x0 DUP1 REVERT JUMPDEST POP PUSH2 0x299 PUSH1 0x4 DUP1 CALLDATASIZE SUB DUP2 ADD SWAP1 PUSH2 0x294 SWAP2 SWAP1 PUSH2 0xE31 JUMP JUMPDEST PUSH2 0xB40 JUMP JUMPDEST PUSH1 0x40 MLOAD PUSH2 0x2AA SWAP6 SWAP5 SWAP4 SWAP3 SWAP2 SWAP1 PUSH2 0x1029 JUMP JUMPDEST PUSH1 0x40 MLOAD DUP1 SWAP2 SUB SWAP1 RETURN JUMPDEST CALLVALUE DUP1 ISZERO PUSH2 0x2BF JUMPI PUSH1 0x0 DUP1 REVERT JUMPDEST POP PUSH2 0x2C8 PUSH2 0xC2B JUMP JUMPDEST PUSH1 0x40 MLOAD PUSH2 0x2D5 SWAP2 SWAP1 PUSH2 0x11A3 JUMP JUMPDEST PUSH1 0x40 MLOAD DUP1 SWAP2 SUB SWAP1 RETURN JUMPDEST CALLVALUE DUP1 ISZERO PUSH2 0x2EA JUMPI PUSH1 0x0 DUP1 REVERT JUMPDEST POP PUSH2 0x2F3 PUSH2 0xC31 JUMP JUMPDEST PUSH1 0x40 MLOAD PUSH2 0x300 SWAP2 SWAP1 PUSH2 0x11A3 JUMP JUMPDEST PUSH1 0x40 MLOAD DUP1 SWAP2 SUB SWAP1 RETURN JUMPDEST CALLVALUE DUP1 ISZERO PUSH2 0x315 JUMPI PUSH1 0x0 DUP1 REVERT JUMPDEST POP PUSH2 0x31E PUSH2 0xC37 JUMP JUMPDEST PUSH1 0x40 MLOAD PUSH2 0x32B SWAP2 SWAP1 PUSH2 0x11A3 JUMP JUMPDEST PUSH1 0x40 MLOAD DUP1 SWAP2 SUB SWAP1 RETURN JUMPDEST CALLVALUE DUP1 ISZERO PUSH2 0x340 JUMPI PUSH1 0x0 DUP1 REVERT JUMPDEST POP PUSH2 0x349 PUSH2 0xC3D JUMP JUMPDEST PUSH1 0x40 MLOAD PUSH2 0x356 SWAP2 SWAP1 PUSH2 0x11A3 JUMP JUMPDEST PUSH1 0x40 MLOAD DUP1 SWAP2 SUB SWAP1 RETURN JUMPDEST PUSH1 0x3 SLOAD TIMESTAMP LT PUSH2 0x3A3 JUMPI PUSH1 0x40 MLOAD PUSH32 0x8C379A000000000000000000000000000000000000000000000000000000000 DUP2 MSTORE PUSH1 0x4 ADD PUSH2 0x39A SWAP1 PUSH2 0x1083 JUMP JUMPDEST PUSH1 0x40 MLOAD DUP1 SWAP2 SUB SWAP1 REVERT JUMPDEST PUSH1 0x2 SLOAD CALLVALUE LT ISZERO PUSH2 0x3E8 JUMPI PUSH1 0x40 MLOAD PUSH32 0x8C379A000000000000000000000000000000000000000000000000000000000 DUP2 MSTORE PUSH1 0x4 ADD PUSH2 0x3DF SWAP1 PUSH2 0x1123 JUMP JUMPDEST PUSH1 0x40 MLOAD DUP1 SWAP2 SUB SWAP1 REVERT JUMPDEST PUSH1 0x0 DUP1 PUSH1 0x0 CALLER PUSH20 0xFFFFFFFFFFFFFFFFFFFFFFFFFFFFFFFFFFFFFFFF AND PUSH20 0xFFFFFFFFFFFFFFFFFFFFFFFFFFFFFFFFFFFFFFFF AND DUP2 MSTORE PUSH1 0x20 ADD SWAP1 DUP2 MSTORE PUSH1 0x20 ADD PUSH1 0x0 KECCAK256 SLOAD EQ ISZERO PUSH2 0x448 JUMPI PUSH1 0x6 PUSH1 0x0 DUP2 SLOAD DUP1 SWAP3 SWAP2 SWAP1 PUSH2 0x442 SWAP1 PUSH2 0x13E3 JUMP JUMPDEST SWAP2 SWAP1 POP SSTORE POP JUMPDEST CALLVALUE PUSH1 0x0 DUP1 CALLER PUSH20 0xFFFFFFFFFFFFFFFFFFFFFFFFFFFFFFFFFFFFFFFF AND PUSH20 0xFFFFFFFFFFFFFFFFFFFFFFFFFFFFFFFFFFFFFFFF AND DUP2 MSTORE PUSH1 0x20 ADD SWAP1 DUP2 MSTORE PUSH1 0x20 ADD PUSH1 0x0 KECCAK256 PUSH1 0x0 DUP3 DUP3 SLOAD PUSH2 0x496 SWAP2 SWAP1 PUSH2 0x1230 JUMP JUMPDEST SWAP3 POP POP DUP2 SWAP1 SSTORE POP CALLVALUE PUSH1 0x5 PUSH1 0x0 DUP3 DUP3 SLOAD PUSH2 0x4AF SWAP2 SWAP1 PUSH2 0x1230 JUMP JUMPDEST SWAP3 POP POP DUP2 SWAP1 SSTORE POP JUMP JUMPDEST PUSH1 0x1 PUSH1 0x0 SWAP1 SLOAD SWAP1 PUSH2 0x100 EXP SWAP1 DIV PUSH20 0xFFFFFFFFFFFFFFFFFFFFFFFFFFFFFFFFFFFFFFFF AND PUSH20 0xFFFFFFFFFFFFFFFFFFFFFFFFFFFFFFFFFFFFFFFF AND CALLER PUSH20 0xFFFFFFFFFFFFFFFFFFFFFFFFFFFFFFFFFFFFFFFF AND EQ PUSH2 0x548 JUMPI PUSH1 0x40 MLOAD PUSH32 0x8C379A000000000000000000000000000000000000000000000000000000000 DUP2 MSTORE PUSH1 0x4 ADD PUSH2 0x53F SWAP1 PUSH2 0x1163 JUMP JUMPDEST PUSH1 0x40 MLOAD DUP1 SWAP2 SUB SWAP1 REVERT JUMPDEST PUSH1 0x0 PUSH1 0x7 PUSH1 0x0 PUSH1 0x8 SLOAD DUP2 MSTORE PUSH1 0x20 ADD SWAP1 DUP2 MSTORE PUSH1 0x20 ADD PUSH1 0x0 KECCAK256 SWAP1 POP PUSH1 0x8 PUSH1 0x0 DUP2 SLOAD DUP1 SWAP3 SWAP2 SWAP1 PUSH2 0x574 SWAP1 PUSH2 0x13E3 JUMP JUMPDEST SWAP2 SWAP1 POP SSTORE POP DUP4 DUP2 PUSH1 0x0 ADD SWAP1 DUP1 MLOAD SWAP1 PUSH1 0x20 ADD SWAP1 PUSH2 0x591 SWAP3 SWAP2 SWAP1 PUSH2 0xC43 JUMP JUMPDEST POP DUP3 DUP2 PUSH1 0x2 ADD PUSH1 0x0 PUSH2 0x100 EXP DUP2 SLOAD DUP2 PUSH20 0xFFFFFFFFFFFFFFFFFFFFFFFFFFFFFFFFFFFFFFFF MUL NOT AND SWAP1 DUP4 PUSH20 0xFFFFFFFFFFFFFFFFFFFFFFFFFFFFFFFFFFFFFFFF AND MUL OR SWAP1 SSTORE POP DUP2 DUP2 PUSH1 0x1 ADD DUP2 SWAP1 SSTORE POP PUSH1 0x0 DUP2 PUSH1 0x2 ADD PUSH1 0x14 PUSH2 0x100 EXP DUP2 SLOAD DUP2 PUSH1 0xFF MUL NOT AND SWAP1 DUP4 ISZERO ISZERO MUL OR SWAP1 SSTORE POP PUSH1 0x0 DUP2 PUSH1 0x3 ADD DUP2 SWAP1 SSTORE POP POP POP POP POP JUMP JUMPDEST PUSH1 0x0 PUSH1 0x20 MSTORE DUP1 PUSH1 0x0 MSTORE PUSH1 0x40 PUSH1 0x0 KECCAK256 PUSH1 0x0 SWAP2 POP SWAP1 POP SLOAD DUP2 JUMP JUMPDEST PUSH1 0x3 SLOAD DUP2 JUMP JUMPDEST PUSH1 0x1 PUSH1 0x0 SWAP1 SLOAD SWAP1 PUSH2 0x100 EXP SWAP1 DIV PUSH20 0xFFFFFFFFFFFFFFFFFFFFFFFFFFFFFFFFFFFFFFFF AND DUP2 JUMP JUMPDEST PUSH1 0x0 DUP1 PUSH1 0x0 CALLER PUSH20 0xFFFFFFFFFFFFFFFFFFFFFFFFFFFFFFFFFFFFFFFF AND PUSH20 0xFFFFFFFFFFFFFFFFFFFFFFFFFFFFFFFFFFFFFFFF AND DUP2 MSTORE PUSH1 0x20 ADD SWAP1 DUP2 MSTORE PUSH1 0x20 ADD PUSH1 0x0 KECCAK256 SLOAD GT PUSH2 0x6D0 JUMPI PUSH1 0x40 MLOAD PUSH32 0x8C379A000000000000000000000000000000000000000000000000000000000 DUP2 MSTORE PUSH1 0x4 ADD PUSH2 0x6C7 SWAP1 PUSH2 0x1143 JUMP JUMPDEST PUSH1 0x40 MLOAD DUP1 SWAP2 SUB SWAP1 REVERT JUMPDEST PUSH1 0x8 SLOAD DUP2 GT ISZERO DUP1 ISZERO PUSH2 0x6E3 JUMPI POP PUSH1 0x0 DUP2 LT ISZERO JUMPDEST PUSH2 0x722 JUMPI PUSH1 0x40 MLOAD PUSH32 0x8C379A000000000000000000000000000000000000000000000000000000000 DUP2 MSTORE PUSH1 0x4 ADD PUSH2 0x719 SWAP1 PUSH2 0x10A3 JUMP JUMPDEST PUSH1 0x40 MLOAD DUP1 SWAP2 SUB SWAP1 REVERT JUMPDEST PUSH1 0x0 PUSH1 0x7 PUSH1 0x0 DUP4 DUP2 MSTORE PUSH1 0x20 ADD SWAP1 DUP2 MSTORE PUSH1 0x20 ADD PUSH1 0x0 KECCAK256 SWAP1 POP PUSH1 0x0 ISZERO ISZERO DUP2 PUSH1 0x4 ADD PUSH1 0x0 CALLER PUSH20 0xFFFFFFFFFFFFFFFFFFFFFFFFFFFFFFFFFFFFFFFF AND PUSH20 0xFFFFFFFFFFFFFFFFFFFFFFFFFFFFFFFFFFFFFFFF AND DUP2 MSTORE PUSH1 0x20 ADD SWAP1 DUP2 MSTORE PUSH1 0x20 ADD PUSH1 0x0 KECCAK256 PUSH1 0x0 SWAP1 SLOAD SWAP1 PUSH2 0x100 EXP SWAP1 DIV PUSH1 0xFF AND ISZERO ISZERO EQ PUSH2 0x7CE JUMPI PUSH1 0x40 MLOAD PUSH32 0x8C379A000000000000000000000000000000000000000000000000000000000 DUP2 MSTORE PUSH1 0x4 ADD PUSH2 0x7C5 SWAP1 PUSH2 0x1183 JUMP JUMPDEST PUSH1 0x40 MLOAD DUP1 SWAP2 SUB SWAP1 REVERT JUMPDEST PUSH1 0x1 DUP2 PUSH1 0x4 ADD PUSH1 0x0 CALLER PUSH20 0xFFFFFFFFFFFFFFFFFFFFFFFFFFFFFFFFFFFFFFFF AND PUSH20 0xFFFFFFFFFFFFFFFFFFFFFFFFFFFFFFFFFFFFFFFF AND DUP2 MSTORE PUSH1 0x20 ADD SWAP1 DUP2 MSTORE PUSH1 0x20 ADD PUSH1 0x0 KECCAK256 PUSH1 0x0 PUSH2 0x100 EXP DUP2 SLOAD DUP2 PUSH1 0xFF MUL NOT AND SWAP1 DUP4 ISZERO ISZERO MUL OR SWAP1 SSTORE POP DUP1 PUSH1 0x3 ADD PUSH1 0x0 DUP2 SLOAD DUP1 SWAP3 SWAP2 SWAP1 PUSH2 0x83D SWAP1 PUSH2 0x13E3 JUMP JUMPDEST SWAP2 SWAP1 POP SSTORE POP POP POP JUMP JUMPDEST PUSH1 0x6 SLOAD DUP2 JUMP JUMPDEST PUSH1 0x1 PUSH1 0x0 SWAP1 SLOAD SWAP1 PUSH2 0x100 EXP SWAP1 DIV PUSH20 0xFFFFFFFFFFFFFFFFFFFFFFFFFFFFFFFFFFFFFFFF AND PUSH20 0xFFFFFFFFFFFFFFFFFFFFFFFFFFFFFFFFFFFFFFFF AND CALLER PUSH20 0xFFFFFFFFFFFFFFFFFFFFFFFFFFFFFFFFFFFFFFFF AND EQ PUSH2 0x8DC JUMPI PUSH1 0x40 MLOAD PUSH32 0x8C379A000000000000000000000000000000000000000000000000000000000 DUP2 MSTORE PUSH1 0x4 ADD PUSH2 0x8D3 SWAP1 PUSH2 0x1163 JUMP JUMPDEST PUSH1 0x40 MLOAD DUP1 SWAP2 SUB SWAP1 REVERT JUMPDEST PUSH1 0x8 SLOAD DUP2 GT ISZERO PUSH2 0x921 JUMPI PUSH1 0x40 MLOAD PUSH32 0x8C379A000000000000000000000000000000000000000000000000000000000 DUP2 MSTORE PUSH1 0x4 ADD PUSH2 0x918 SWAP1 PUSH2 0x10C3 JUMP JUMPDEST PUSH1 0x40 MLOAD DUP1 SWAP2 SUB SWAP1 REVERT JUMPDEST POP JUMP JUMPDEST PUSH1 0x3 SLOAD TIMESTAMP GT DUP1 ISZERO PUSH2 0x938 JUMPI POP PUSH1 0x4 SLOAD PUSH1 0x5 SLOAD LT JUMPDEST PUSH2 0x977 JUMPI PUSH1 0x40 MLOAD PUSH32 0x8C379A000000000000000000000000000000000000000000000000000000000 DUP2 MSTORE PUSH1 0x4 ADD PUSH2 0x96E SWAP1 PUSH2 0x10E3 JUMP JUMPDEST PUSH1 0x40 MLOAD DUP1 SWAP2 SUB SWAP1 REVERT JUMPDEST PUSH1 0x0 DUP1 PUSH1 0x0 CALLER PUSH20 0xFFFFFFFFFFFFFFFFFFFFFFFFFFFFFFFFFFFFFFFF AND PUSH20 0xFFFFFFFFFFFFFFFFFFFFFFFFFFFFFFFFFFFFFFFF AND DUP2 MSTORE PUSH1 0x20 ADD SWAP1 DUP2 MSTORE PUSH1 0x20 ADD PUSH1 0x0 KECCAK256 SLOAD GT PUSH2 0x9F8 JUMPI PUSH1 0x40 MLOAD PUSH32 0x8C379A000000000000000000000000000000000000000000000000000000000 DUP2 MSTORE PUSH1 0x4 ADD PUSH2 0x9EF SWAP1 PUSH2 0x1103 JUMP JUMPDEST PUSH1 0x40 MLOAD DUP1 SWAP2 SUB SWAP1 REVERT JUMPDEST PUSH1 0x0 CALLER SWAP1 POP DUP1 PUSH20 0xFFFFFFFFFFFFFFFFFFFFFFFFFFFFFFFFFFFFFFFF AND PUSH2 0x8FC PUSH1 0x0 DUP1 CALLER PUSH20 0xFFFFFFFFFFFFFFFFFFFFFFFFFFFFFFFFFFFFFFFF AND PUSH20 0xFFFFFFFFFFFFFFFFFFFFFFFFFFFFFFFFFFFFFFFF AND DUP2 MSTORE PUSH1 0x20 ADD SWAP1 DUP2 MSTORE PUSH1 0x20 ADD PUSH1 0x0 KECCAK256 SLOAD SWAP1 DUP2 ISZERO MUL SWAP1 PUSH1 0x40 MLOAD PUSH1 0x0 PUSH1 0x40 MLOAD DUP1 DUP4 SUB DUP2 DUP6 DUP9 DUP9 CALL SWAP4 POP POP POP POP ISZERO DUP1 ISZERO PUSH2 0xA81 JUMPI RETURNDATASIZE PUSH1 0x0 DUP1 RETURNDATACOPY RETURNDATASIZE PUSH1 0x0 REVERT JUMPDEST POP PUSH1 0x0 DUP1 CALLER PUSH20 0xFFFFFFFFFFFFFFFFFFFFFFFFFFFFFFFFFFFFFFFF AND PUSH20 0xFFFFFFFFFFFFFFFFFFFFFFFFFFFFFFFFFFFFFFFF AND DUP2 MSTORE PUSH1 0x20 ADD SWAP1 DUP2 MSTORE PUSH1 0x20 ADD PUSH1 0x0 KECCAK256 SLOAD PUSH1 0x5 PUSH1 0x0 DUP3 DUP3 SLOAD PUSH2 0xAD2 SWAP2 SWAP1 PUSH2 0x1286 JUMP JUMPDEST SWAP3 POP POP DUP2 SWAP1 SSTORE POP PUSH1 0x0 DUP1 PUSH1 0x0 CALLER PUSH20 0xFFFFFFFFFFFFFFFFFFFFFFFFFFFFFFFFFFFFFFFF AND PUSH20 0xFFFFFFFFFFFFFFFFFFFFFFFFFFFFFFFFFFFFFFFF AND DUP2 MSTORE PUSH1 0x20 ADD SWAP1 DUP2 MSTORE PUSH1 0x20 ADD PUSH1 0x0 KECCAK256 DUP2 SWAP1 SSTORE POP PUSH1 0x6 PUSH1 0x0 DUP2 SLOAD DUP1 SWAP3 SWAP2 SWAP1 PUSH2 0xB30 SWAP1 PUSH2 0x1356 JUMP JUMPDEST SWAP2 SWAP1 POP SSTORE POP POP JUMP JUMPDEST PUSH1 0x0 SELFBALANCE SWAP1 POP SWAP1 JUMP JUMPDEST PUSH1 0x7 PUSH1 0x20 MSTORE DUP1 PUSH1 0x0 MSTORE PUSH1 0x40 PUSH1 0x0 KECCAK256 PUSH1 0x0 SWAP2 POP SWAP1 POP DUP1 PUSH1 0x0 ADD DUP1 SLOAD PUSH2 0xB63 SWAP1 PUSH2 0x1380 JUMP JUMPDEST DUP1 PUSH1 0x1F ADD PUSH1 0x20 DUP1 SWAP2 DIV MUL PUSH1 0x20 ADD PUSH1 0x40 MLOAD SWAP1 DUP2 ADD PUSH1 0x40 MSTORE DUP1 SWAP3 SWAP2 SWAP1 DUP2 DUP2 MSTORE PUSH1 0x20 ADD DUP3 DUP1 SLOAD PUSH2 0xB8F SWAP1 PUSH2 0x1380 JUMP JUMPDEST DUP1 ISZERO PUSH2 0xBDC JUMPI DUP1 PUSH1 0x1F LT PUSH2 0xBB1 JUMPI PUSH2 0x100 DUP1 DUP4 SLOAD DIV MUL DUP4 MSTORE SWAP2 PUSH1 0x20 ADD SWAP2 PUSH2 0xBDC JUMP JUMPDEST DUP3 ADD SWAP2 SWAP1 PUSH1 0x0 MSTORE PUSH1 0x20 PUSH1 0x0 KECCAK256 SWAP1 JUMPDEST DUP2 SLOAD DUP2 MSTORE SWAP1 PUSH1 0x1 ADD SWAP1 PUSH1 0x20 ADD DUP1 DUP4 GT PUSH2 0xBBF JUMPI DUP3 SWAP1 SUB PUSH1 0x1F AND DUP3 ADD SWAP2 JUMPDEST POP POP POP POP POP SWAP1 DUP1 PUSH1 0x1 ADD SLOAD SWAP1 DUP1 PUSH1 0x2 ADD PUSH1 0x0 SWAP1 SLOAD SWAP1 PUSH2 0x100 EXP SWAP1 DIV PUSH20 0xFFFFFFFFFFFFFFFFFFFFFFFFFFFFFFFFFFFFFFFF AND SWAP1 DUP1 PUSH1 0x2 ADD PUSH1 0x14 SWAP1 SLOAD SWAP1 PUSH2 0x100 EXP SWAP1 DIV PUSH1 0xFF AND SWAP1 DUP1 PUSH1 0x3 ADD SLOAD SWAP1 POP DUP6 JUMP JUMPDEST PUSH1 0x2 SLOAD DUP2 JUMP JUMPDEST PUSH1 0x4 SLOAD DUP2 JUMP JUMPDEST PUSH1 0x8 SLOAD DUP2 JUMP JUMPDEST PUSH1 0x5 SLOAD DUP2 JUMP JUMPDEST DUP3 DUP1 SLOAD PUSH2 0xC4F SWAP1 PUSH2 0x1380 JUMP JUMPDEST SWAP1 PUSH1 0x0 MSTORE PUSH1 0x20 PUSH1 0x0 KECCAK256 SWAP1 PUSH1 0x1F ADD PUSH1 0x20 SWAP1 DIV DUP2 ADD SWAP3 DUP3 PUSH2 0xC71 JUMPI PUSH1 0x0 DUP6 SSTORE PUSH2 0xCB8 JUMP JUMPDEST DUP3 PUSH1 0x1F LT PUSH2 0xC8A JUMPI DUP1 MLOAD PUSH1 0xFF NOT AND DUP4 DUP1 ADD OR DUP6 SSTORE PUSH2 0xCB8 JUMP JUMPDEST DUP3 DUP1 ADD PUSH1 0x1 ADD DUP6 SSTORE DUP3 ISZERO PUSH2 0xCB8 JUMPI SWAP2 DUP3 ADD JUMPDEST DUP3 DUP2 GT ISZERO PUSH2 0xCB7 JUMPI DUP3 MLOAD DUP3 SSTORE SWAP2 PUSH1 0x20 ADD SWAP2 SWAP1 PUSH1 0x1 ADD SWAP1 PUSH2 0xC9C JUMP JUMPDEST JUMPDEST POP SWAP1 POP PUSH2 0xCC5 SWAP2 SWAP1 PUSH2 0xCC9 JUMP JUMPDEST POP SWAP1 JUMP JUMPDEST JUMPDEST DUP1 DUP3 GT ISZERO PUSH2 0xCE2 JUMPI PUSH1 0x0 DUP2 PUSH1 0x0 SWAP1 SSTORE POP PUSH1 0x1 ADD PUSH2 0xCCA JUMP JUMPDEST POP SWAP1 JUMP JUMPDEST PUSH1 0x0 PUSH2 0xCF9 PUSH2 0xCF4 DUP5 PUSH2 0x11E3 JUMP JUMPDEST PUSH2 0x11BE JUMP JUMPDEST SWAP1 POP DUP3 DUP2 MSTORE PUSH1 0x20 DUP2 ADD DUP5 DUP5 DUP5 ADD GT ISZERO PUSH2 0xD15 JUMPI PUSH2 0xD14 PUSH2 0x14BE JUMP JUMPDEST JUMPDEST PUSH2 0xD20 DUP5 DUP3 DUP6 PUSH2 0x1314 JUMP JUMPDEST POP SWAP4 SWAP3 POP POP POP JUMP JUMPDEST PUSH1 0x0 DUP2 CALLDATALOAD SWAP1 POP PUSH2 0xD37 DUP2 PUSH2 0x17F1 JUMP JUMPDEST SWAP3 SWAP2 POP POP JUMP JUMPDEST PUSH1 0x0 DUP2 CALLDATALOAD SWAP1 POP PUSH2 0xD4C DUP2 PUSH2 0x1808 JUMP JUMPDEST SWAP3 SWAP2 POP POP JUMP JUMPDEST PUSH1 0x0 DUP3 PUSH1 0x1F DUP4 ADD SLT PUSH2 0xD67 JUMPI PUSH2 0xD66 PUSH2 0x14B9 JUMP JUMPDEST JUMPDEST DUP2 CALLDATALOAD PUSH2 0xD77 DUP5 DUP3 PUSH1 0x20 DUP7 ADD PUSH2 0xCE6 JUMP JUMPDEST SWAP2 POP POP SWAP3 SWAP2 POP POP JUMP JUMPDEST PUSH1 0x0 DUP2 CALLDATALOAD SWAP1 POP PUSH2 0xD8F DUP2 PUSH2 0x181F JUMP JUMPDEST SWAP3 SWAP2 POP POP JUMP JUMPDEST PUSH1 0x0 PUSH1 0x20 DUP3 DUP5 SUB SLT ISZERO PUSH2 0xDAB JUMPI PUSH2 0xDAA PUSH2 0x14C8 JUMP JUMPDEST JUMPDEST PUSH1 0x0 PUSH2 0xDB9 DUP5 DUP3 DUP6 ADD PUSH2 0xD28 JUMP JUMPDEST SWAP2 POP POP SWAP3 SWAP2 POP POP JUMP JUMPDEST PUSH1 0x0 DUP1 PUSH1 0x0 PUSH1 0x60 DUP5 DUP7 SUB SLT ISZERO PUSH2 0xDDB JUMPI PUSH2 0xDDA PUSH2 0x14C8 JUMP JUMPDEST JUMPDEST PUSH1 0x0 DUP5 ADD CALLDATALOAD PUSH8 0xFFFFFFFFFFFFFFFF DUP2 GT ISZERO PUSH2 0xDF9 JUMPI PUSH2 0xDF8 PUSH2 0x14C3 JUMP JUMPDEST JUMPDEST PUSH2 0xE05 DUP7 DUP3 DUP8 ADD PUSH2 0xD52 JUMP JUMPDEST SWAP4 POP POP PUSH1 0x20 PUSH2 0xE16 DUP7 DUP3 DUP8 ADD PUSH2 0xD3D JUMP JUMPDEST SWAP3 POP POP PUSH1 0x40 PUSH2 0xE27 DUP7 DUP3 DUP8 ADD PUSH2 0xD80 JUMP JUMPDEST SWAP2 POP POP SWAP3 POP SWAP3 POP SWAP3 JUMP JUMPDEST PUSH1 0x0 PUSH1 0x20 DUP3 DUP5 SUB SLT ISZERO PUSH2 0xE47 JUMPI PUSH2 0xE46 PUSH2 0x14C8 JUMP JUMPDEST JUMPDEST PUSH1 0x0 PUSH2 0xE55 DUP5 DUP3 DUP6 ADD PUSH2 0xD80 JUMP JUMPDEST SWAP2 POP POP SWAP3 SWAP2 POP POP JUMP JUMPDEST PUSH2 0xE67 DUP2 PUSH2 0x12CC JUMP JUMPDEST DUP3 MSTORE POP POP JUMP JUMPDEST PUSH2 0xE76 DUP2 PUSH2 0x12BA JUMP JUMPDEST DUP3 MSTORE POP POP JUMP JUMPDEST PUSH2 0xE85 DUP2 PUSH2 0x12DE JUMP JUMPDEST DUP3 MSTORE POP POP JUMP JUMPDEST PUSH1 0x0 PUSH2 0xE96 DUP3 PUSH2 0x1214 JUMP JUMPDEST PUSH2 0xEA0 DUP2 DUP6 PUSH2 0x121F JUMP JUMPDEST SWAP4 POP PUSH2 0xEB0 DUP2 DUP6 PUSH1 0x20 DUP7 ADD PUSH2 0x1323 JUMP JUMPDEST PUSH2 0xEB9 DUP2 PUSH2 0x14CD JUMP JUMPDEST DUP5 ADD SWAP2 POP POP SWAP3 SWAP2 POP POP JUMP JUMPDEST PUSH1 0x0 PUSH2 0xED1 PUSH1 0x24 DUP4 PUSH2 0x121F JUMP JUMPDEST SWAP2 POP PUSH2 0xEDC DUP3 PUSH2 0x14DE JUMP JUMPDEST PUSH1 0x40 DUP3 ADD SWAP1 POP SWAP2 SWAP1 POP JUMP JUMPDEST PUSH1 0x0 PUSH2 0xEF4 PUSH1 0x17 DUP4 PUSH2 0x121F JUMP JUMPDEST SWAP2 POP PUSH2 0xEFF DUP3 PUSH2 0x152D JUMP JUMPDEST PUSH1 0x20 DUP3 ADD SWAP1 POP SWAP2 SWAP1 POP JUMP JUMPDEST PUSH1 0x0 PUSH2 0xF17 PUSH1 0x17 DUP4 PUSH2 0x121F JUMP JUMPDEST SWAP2 POP PUSH2 0xF22 DUP3 PUSH2 0x1556 JUMP JUMPDEST PUSH1 0x20 DUP3 ADD SWAP1 POP SWAP2 SWAP1 POP JUMP JUMPDEST PUSH1 0x0 PUSH2 0xF3A PUSH1 0x8C DUP4 PUSH2 0x121F JUMP JUMPDEST SWAP2 POP PUSH2 0xF45 DUP3 PUSH2 0x157F JUMP JUMPDEST PUSH1 0xA0 DUP3 ADD SWAP1 POP SWAP2 SWAP1 POP JUMP JUMPDEST PUSH1 0x0 PUSH2 0xF5D PUSH1 0x18 DUP4 PUSH2 0x121F JUMP JUMPDEST SWAP2 POP PUSH2 0xF68 DUP3 PUSH2 0x1640 JUMP JUMPDEST PUSH1 0x20 DUP3 ADD SWAP1 POP SWAP2 SWAP1 POP JUMP JUMPDEST PUSH1 0x0 PUSH2 0xF80 PUSH1 0x28 DUP4 PUSH2 0x121F JUMP JUMPDEST SWAP2 POP PUSH2 0xF8B DUP3 PUSH2 0x1669 JUMP JUMPDEST PUSH1 0x40 DUP3 ADD SWAP1 POP SWAP2 SWAP1 POP JUMP JUMPDEST PUSH1 0x0 PUSH2 0xFA3 PUSH1 0x43 DUP4 PUSH2 0x121F JUMP JUMPDEST SWAP2 POP PUSH2 0xFAE DUP3 PUSH2 0x16B8 JUMP JUMPDEST PUSH1 0x60 DUP3 ADD SWAP1 POP SWAP2 SWAP1 POP JUMP JUMPDEST PUSH1 0x0 PUSH2 0xFC6 PUSH1 0x23 DUP4 PUSH2 0x121F JUMP JUMPDEST SWAP2 POP PUSH2 0xFD1 DUP3 PUSH2 0x172D JUMP JUMPDEST PUSH1 0x40 DUP3 ADD SWAP1 POP SWAP2 SWAP1 POP JUMP JUMPDEST PUSH1 0x0 PUSH2 0xFE9 PUSH1 0x56 DUP4 PUSH2 0x121F JUMP JUMPDEST SWAP2 POP PUSH2 0xFF4 DUP3 PUSH2 0x177C JUMP JUMPDEST PUSH1 0x60 DUP3 ADD SWAP1 POP SWAP2 SWAP1 POP JUMP JUMPDEST PUSH2 0x1008 DUP2 PUSH2 0x130A JUMP JUMPDEST DUP3 MSTORE POP POP JUMP JUMPDEST PUSH1 0x0 PUSH1 0x20 DUP3 ADD SWAP1 POP PUSH2 0x1023 PUSH1 0x0 DUP4 ADD DUP5 PUSH2 0xE6D JUMP JUMPDEST SWAP3 SWAP2 POP POP JUMP JUMPDEST PUSH1 0x0 PUSH1 0xA0 DUP3 ADD SWAP1 POP DUP2 DUP2 SUB PUSH1 0x0 DUP4 ADD MSTORE PUSH2 0x1043 DUP2 DUP9 PUSH2 0xE8B JUMP JUMPDEST SWAP1 POP PUSH2 0x1052 PUSH1 0x20 DUP4 ADD DUP8 PUSH2 0xFFF JUMP JUMPDEST PUSH2 0x105F PUSH1 0x40 DUP4 ADD DUP7 PUSH2 0xE5E JUMP JUMPDEST PUSH2 0x106C PUSH1 0x60 DUP4 ADD DUP6 PUSH2 0xE7C JUMP JUMPDEST PUSH2 0x1079 PUSH1 0x80 DUP4 ADD DUP5 PUSH2 0xFFF JUMP JUMPDEST SWAP7 SWAP6 POP POP POP POP POP POP JUMP JUMPDEST PUSH1 0x0 PUSH1 0x20 DUP3 ADD SWAP1 POP DUP2 DUP2 SUB PUSH1 0x0 DUP4 ADD MSTORE PUSH2 0x109C DUP2 PUSH2 0xEC4 JUMP JUMPDEST SWAP1 POP SWAP2 SWAP1 POP JUMP JUMPDEST PUSH1 0x0 PUSH1 0x20 DUP3 ADD SWAP1 POP DUP2 DUP2 SUB PUSH1 0x0 DUP4 ADD MSTORE PUSH2 0x10BC DUP2 PUSH2 0xEE7 JUMP JUMPDEST SWAP1 POP SWAP2 SWAP1 POP JUMP JUMPDEST PUSH1 0x0 PUSH1 0x20 DUP3 ADD SWAP1 POP DUP2 DUP2 SUB PUSH1 0x0 DUP4 ADD MSTORE PUSH2 0x10DC DUP2 PUSH2 0xF0A JUMP JUMPDEST SWAP1 POP SWAP2 SWAP1 POP JUMP JUMPDEST PUSH1 0x0 PUSH1 0x20 DUP3 ADD SWAP1 POP DUP2 DUP2 SUB PUSH1 0x0 DUP4 ADD MSTORE PUSH2 0x10FC DUP2 PUSH2 0xF2D JUMP JUMPDEST SWAP1 POP SWAP2 SWAP1 POP JUMP JUMPDEST PUSH1 0x0 PUSH1 0x20 DUP3 ADD SWAP1 POP DUP2 DUP2 SUB PUSH1 0x0 DUP4 ADD MSTORE PUSH2 0x111C DUP2 PUSH2 0xF50 JUMP JUMPDEST SWAP1 POP SWAP2 SWAP1 POP JUMP JUMPDEST PUSH1 0x0 PUSH1 0x20 DUP3 ADD SWAP1 POP DUP2 DUP2 SUB PUSH1 0x0 DUP4 ADD MSTORE PUSH2 0x113C DUP2 PUSH2 0xF73 JUMP JUMPDEST SWAP1 POP SWAP2 SWAP1 POP JUMP JUMPDEST PUSH1 0x0 PUSH1 0x20 DUP3 ADD SWAP1 POP DUP2 DUP2 SUB PUSH1 0x0 DUP4 ADD MSTORE PUSH2 0x115C DUP2 PUSH2 0xF96 JUMP JUMPDEST SWAP1 POP SWAP2 SWAP1 POP JUMP JUMPDEST PUSH1 0x0 PUSH1 0x20 DUP3 ADD SWAP1 POP DUP2 DUP2 SUB PUSH1 0x0 DUP4 ADD MSTORE PUSH2 0x117C DUP2 PUSH2 0xFB9 JUMP JUMPDEST SWAP1 POP SWAP2 SWAP1 POP JUMP JUMPDEST PUSH1 0x0 PUSH1 0x20 DUP3 ADD SWAP1 POP DUP2 DUP2 SUB PUSH1 0x0 DUP4 ADD MSTORE PUSH2 0x119C DUP2 PUSH2 0xFDC JUMP JUMPDEST SWAP1 POP SWAP2 SWAP1 POP JUMP JUMPDEST PUSH1 0x0 PUSH1 0x20 DUP3 ADD SWAP1 POP PUSH2 0x11B8 PUSH1 0x0 DUP4 ADD DUP5 PUSH2 0xFFF JUMP JUMPDEST SWAP3 SWAP2 POP POP JUMP JUMPDEST PUSH1 0x0 PUSH2 0x11C8 PUSH2 0x11D9 JUMP JUMPDEST SWAP1 POP PUSH2 0x11D4 DUP3 DUP3 PUSH2 0x13B2 JUMP JUMPDEST SWAP2 SWAP1 POP JUMP JUMPDEST PUSH1 0x0 PUSH1 0x40 MLOAD SWAP1 POP SWAP1 JUMP JUMPDEST PUSH1 0x0 PUSH8 0xFFFFFFFFFFFFFFFF DUP3 GT ISZERO PUSH2 0x11FE JUMPI PUSH2 0x11FD PUSH2 0x148A JUMP JUMPDEST JUMPDEST PUSH2 0x1207 DUP3 PUSH2 0x14CD JUMP JUMPDEST SWAP1 POP PUSH1 0x20 DUP2 ADD SWAP1 POP SWAP2 SWAP1 POP JUMP JUMPDEST PUSH1 0x0 DUP2 MLOAD SWAP1 POP SWAP2 SWAP1 POP JUMP JUMPDEST PUSH1 0x0 DUP3 DUP3 MSTORE PUSH1 0x20 DUP3 ADD SWAP1 POP SWAP3 SWAP2 POP POP JUMP JUMPDEST PUSH1 0x0 PUSH2 0x123B DUP3 PUSH2 0x130A JUMP JUMPDEST SWAP2 POP PUSH2 0x1246 DUP4 PUSH2 0x130A JUMP JUMPDEST SWAP3 POP DUP3 PUSH32 0xFFFFFFFFFFFFFFFFFFFFFFFFFFFFFFFFFFFFFFFFFFFFFFFFFFFFFFFFFFFFFFFF SUB DUP3 GT ISZERO PUSH2 0x127B JUMPI PUSH2 0x127A PUSH2 0x142C JUMP JUMPDEST JUMPDEST DUP3 DUP3 ADD SWAP1 POP SWAP3 SWAP2 POP POP JUMP JUMPDEST PUSH1 0x0 PUSH2 0x1291 DUP3 PUSH2 0x130A JUMP JUMPDEST SWAP2 POP PUSH2 0x129C DUP4 PUSH2 0x130A JUMP JUMPDEST SWAP3 POP DUP3 DUP3 LT ISZERO PUSH2 0x12AF JUMPI PUSH2 0x12AE PUSH2 0x142C JUMP JUMPDEST JUMPDEST DUP3 DUP3 SUB SWAP1 POP SWAP3 SWAP2 POP POP JUMP JUMPDEST PUSH1 0x0 PUSH2 0x12C5 DUP3 PUSH2 0x12EA JUMP JUMPDEST SWAP1 POP SWAP2 SWAP1 POP JUMP JUMPDEST PUSH1 0x0 PUSH2 0x12D7 DUP3 PUSH2 0x12EA JUMP JUMPDEST SWAP1 POP SWAP2 SWAP1 POP JUMP JUMPDEST PUSH1 0x0 DUP2 ISZERO ISZERO SWAP1 POP SWAP2 SWAP1 POP JUMP JUMPDEST PUSH1 0x0 PUSH20 0xFFFFFFFFFFFFFFFFFFFFFFFFFFFFFFFFFFFFFFFF DUP3 AND SWAP1 POP SWAP2 SWAP1 POP JUMP JUMPDEST PUSH1 0x0 DUP2 SWAP1 POP SWAP2 SWAP1 POP JUMP JUMPDEST DUP3 DUP2 DUP4 CALLDATACOPY PUSH1 0x0 DUP4 DUP4 ADD MSTORE POP POP POP JUMP JUMPDEST PUSH1 0x0 JUMPDEST DUP4 DUP2 LT ISZERO PUSH2 0x1341 JUMPI DUP1 DUP3 ADD MLOAD DUP2 DUP5 ADD MSTORE PUSH1 0x20 DUP2 ADD SWAP1 POP PUSH2 0x1326 JUMP JUMPDEST DUP4 DUP2 GT ISZERO PUSH2 0x1350 JUMPI PUSH1 0x0 DUP5 DUP5 ADD MSTORE JUMPDEST POP POP POP POP JUMP JUMPDEST PUSH1 0x0 PUSH2 0x1361 DUP3 PUSH2 0x130A JUMP JUMPDEST SWAP2 POP PUSH1 0x0 DUP3 EQ ISZERO PUSH2 0x1375 JUMPI PUSH2 0x1374 PUSH2 0x142C JUMP JUMPDEST JUMPDEST PUSH1 0x1 DUP3 SUB SWAP1 POP SWAP2 SWAP1 POP JUMP JUMPDEST PUSH1 0x0 PUSH1 0x2 DUP3 DIV SWAP1 POP PUSH1 0x1 DUP3 AND DUP1 PUSH2 0x1398 JUMPI PUSH1 0x7F DUP3 AND SWAP2 POP JUMPDEST PUSH1 0x20 DUP3 LT DUP2 EQ ISZERO PUSH2 0x13AC JUMPI PUSH2 0x13AB PUSH2 0x145B JUMP JUMPDEST JUMPDEST POP SWAP2 SWAP1 POP JUMP JUMPDEST PUSH2 0x13BB DUP3 PUSH2 0x14CD JUMP JUMPDEST DUP2 ADD DUP2 DUP2 LT PUSH8 0xFFFFFFFFFFFFFFFF DUP3 GT OR ISZERO PUSH2 0x13DA JUMPI PUSH2 0x13D9 PUSH2 0x148A JUMP JUMPDEST JUMPDEST DUP1 PUSH1 0x40 MSTORE POP POP POP JUMP JUMPDEST PUSH1 0x0 PUSH2 0x13EE DUP3 PUSH2 0x130A JUMP JUMPDEST SWAP2 POP PUSH32 0xFFFFFFFFFFFFFFFFFFFFFFFFFFFFFFFFFFFFFFFFFFFFFFFFFFFFFFFFFFFFFFFF DUP3 EQ ISZERO PUSH2 0x1421 JUMPI PUSH2 0x1420 PUSH2 0x142C JUMP JUMPDEST JUMPDEST PUSH1 0x1 DUP3 ADD SWAP1 POP SWAP2 SWAP1 POP JUMP JUMPDEST PUSH32 0x4E487B7100000000000000000000000000000000000000000000000000000000 PUSH1 0x0 MSTORE PUSH1 0x11 PUSH1 0x4 MSTORE PUSH1 0x24 PUSH1 0x0 REVERT JUMPDEST PUSH32 0x4E487B7100000000000000000000000000000000000000000000000000000000 PUSH1 0x0 MSTORE PUSH1 0x22 PUSH1 0x4 MSTORE PUSH1 0x24 PUSH1 0x0 REVERT JUMPDEST PUSH32 0x4E487B7100000000000000000000000000000000000000000000000000000000 PUSH1 0x0 MSTORE PUSH1 0x41 PUSH1 0x4 MSTORE PUSH1 0x24 PUSH1 0x0 REVERT JUMPDEST PUSH1 0x0 DUP1 REVERT JUMPDEST PUSH1 0x0 DUP1 REVERT JUMPDEST PUSH1 0x0 DUP1 REVERT JUMPDEST PUSH1 0x0 DUP1 REVERT JUMPDEST PUSH1 0x0 PUSH1 0x1F NOT PUSH1 0x1F DUP4 ADD AND SWAP1 POP SWAP2 SWAP1 POP JUMP JUMPDEST PUSH32 0x536F727279212120446561646C696E652068617320616C726561647920706173 PUSH1 0x0 DUP3 ADD MSTORE PUSH32 0x7365642E00000000000000000000000000000000000000000000000000000000 PUSH1 0x20 DUP3 ADD MSTORE POP JUMP JUMPDEST PUSH32 0x496E76616C69642072657175657374206E756D6265722E000000000000000000 PUSH1 0x0 DUP3 ADD MSTORE POP JUMP JUMPDEST PUSH32 0x496E76616C69642052657175657374204E756D6265722E000000000000000000 PUSH1 0x0 DUP3 ADD MSTORE POP JUMP JUMPDEST PUSH32 0x536F7272792C20726566756E6420686173206E6F742073746172746564207965 PUSH1 0x0 DUP3 ADD MSTORE PUSH32 0x7420666F7220616E796F6E652062656361757365206569746865722064656164 PUSH1 0x20 DUP3 ADD MSTORE PUSH32 0x6C696E6520686173206E6F742063726F7373206F722074686520726169736564 PUSH1 0x40 DUP3 ADD MSTORE PUSH32 0x20616D6F756E7420697320657175616C206F72206D6F7265207468616E207461 PUSH1 0x60 DUP3 ADD MSTORE PUSH32 0x7267657420616D6F756E742E0000000000000000000000000000000000000000 PUSH1 0x80 DUP3 ADD MSTORE POP JUMP JUMPDEST PUSH32 0x596F7520686176656E277420636F6E74726962757465642E0000000000000000 PUSH1 0x0 DUP3 ADD MSTORE POP JUMP JUMPDEST PUSH32 0x536F727279212120796F75206861766520746F20706179206D696E696D756D20 PUSH1 0x0 DUP3 ADD MSTORE PUSH32 0x313030207765692E000000000000000000000000000000000000000000000000 PUSH1 0x20 DUP3 ADD MSTORE POP JUMP JUMPDEST PUSH32 0x536F727279212120596F75206861766520746F20636F6E747269627574652066 PUSH1 0x0 DUP3 ADD MSTORE PUSH32 0x6972737420696E206F7264657220746F20656C696769626C6520666F7220766F PUSH1 0x20 DUP3 ADD MSTORE PUSH32 0x74652E0000000000000000000000000000000000000000000000000000000000 PUSH1 0x40 DUP3 ADD MSTORE POP JUMP JUMPDEST PUSH32 0x4F6E6C79206D616E616765722063616E2063616C6C2074686973206665617475 PUSH1 0x0 DUP3 ADD MSTORE PUSH32 0x72652E0000000000000000000000000000000000000000000000000000000000 PUSH1 0x20 DUP3 ADD MSTORE POP JUMP JUMPDEST PUSH32 0x4F707073212120796F7520616C72656164792070757420796F757220766F7465 PUSH1 0x0 DUP3 ADD MSTORE PUSH32 0x20666F72207468697320726571756573742E20596F752063616E206F6E6C7920 PUSH1 0x20 DUP3 ADD MSTORE PUSH32 0x766F7465206F6E63652070657220726571756573742E00000000000000000000 PUSH1 0x40 DUP3 ADD MSTORE POP JUMP JUMPDEST PUSH2 0x17FA DUP2 PUSH2 0x12BA JUMP JUMPDEST DUP2 EQ PUSH2 0x1805 JUMPI PUSH1 0x0 DUP1 REVERT JUMPDEST POP JUMP JUMPDEST PUSH2 0x1811 DUP2 PUSH2 0x12CC JUMP JUMPDEST DUP2 EQ PUSH2 0x181C JUMPI PUSH1 0x0 DUP1 REVERT JUMPDEST POP JUMP JUMPDEST PUSH2 0x1828 DUP2 PUSH2 0x130A JUMP JUMPDEST DUP2 EQ PUSH2 0x1833 JUMPI PUSH1 0x0 DUP1 REVERT JUMPDEST POP JUMP INVALID LOG2 PUSH5 0x6970667358 0x22 SLT KECCAK256 PUSH29 0xF93DD0BDB5FCDB9D5454ED37A6946CB49ECDB8B47E732564B92B04B0C5 DUP7 0xE4 PUSH5 0x736F6C6343 STOP ADDMOD SMOD STOP CALLER "
				},
				"gasEstimates": {
					"creation": {
						"codeDepositCost": "1250400",
						"executionCost": "infinite",
						"totalCost": "infinite"
					},
					"external": {
						"contributors(address)": "2882",
						"createRequest(string,address,uint256)": "infinite",
						"deadline()": "2452",
						"getContractBalance()": "406",
						"makePayment(uint256)": "5012",
						"manager()": "2559",
						"minimumContribution()": "2451",
						"noOfContributors()": "2518",
						"numRequests()": "2495",
						"raisedAmount()": "2517",
						"refund()": "infinite",
						"requests(uint256)": "infinite",
						"sendEth()": "infinite",
						"targetAmount()": "2473",
						"voteRequest(uint256)": "infinite"
					}
				},
				"methodIdentifiers": {
					"contributors(address)": "1f6d4942",
					"createRequest(string,address,uint256)": "1b16bb5c",
					"deadline()": "29dcb0cf",
					"getContractBalance()": "6f9fb98a",
					"makePayment(uint256)": "5114cb52",
					"manager()": "481c6a75",
					"minimumContribution()": "937e09b1",
					"noOfContributors()": "4e260f6f",
					"numRequests()": "9fb42b1f",
					"raisedAmount()": "c59ee1dc",
					"refund()": "590e1ae3",
					"requests(uint256)": "81d12c58",
					"sendEth()": "06e99fef",
					"targetAmount()": "953b8fb8",
					"voteRequest(uint256)": "4cb6f4a5"
				}
			},
			"storageLayout": {
				"storage": [
					{
						"astId": 5,
						"contract": "CrowdFunding/crowdfunding.sol:crowdfunding",
						"label": "contributors",
						"offset": 0,
						"slot": "0",
						"type": "t_mapping(t_address,t_uint256)"
					},
					{
						"astId": 7,
						"contract": "CrowdFunding/crowdfunding.sol:crowdfunding",
						"label": "manager",
						"offset": 0,
						"slot": "1",
						"type": "t_address"
					},
					{
						"astId": 9,
						"contract": "CrowdFunding/crowdfunding.sol:crowdfunding",
						"label": "minimumContribution",
						"offset": 0,
						"slot": "2",
						"type": "t_uint256"
					},
					{
						"astId": 11,
						"contract": "CrowdFunding/crowdfunding.sol:crowdfunding",
						"label": "deadline",
						"offset": 0,
						"slot": "3",
						"type": "t_uint256"
					},
					{
						"astId": 13,
						"contract": "CrowdFunding/crowdfunding.sol:crowdfunding",
						"label": "targetAmount",
						"offset": 0,
						"slot": "4",
						"type": "t_uint256"
					},
					{
						"astId": 15,
						"contract": "CrowdFunding/crowdfunding.sol:crowdfunding",
						"label": "raisedAmount",
						"offset": 0,
						"slot": "5",
						"type": "t_uint256"
					},
					{
						"astId": 17,
						"contract": "CrowdFunding/crowdfunding.sol:crowdfunding",
						"label": "noOfContributors",
						"offset": 0,
						"slot": "6",
						"type": "t_uint256"
					},
					{
						"astId": 37,
						"contract": "CrowdFunding/crowdfunding.sol:crowdfunding",
						"label": "requests",
						"offset": 0,
						"slot": "7",
						"type": "t_mapping(t_uint256,t_struct(Request)32_storage)"
					},
					{
						"astId": 39,
						"contract": "CrowdFunding/crowdfunding.sol:crowdfunding",
						"label": "numRequests",
						"offset": 0,
						"slot": "8",
						"type": "t_uint256"
					}
				],
				"types": {
					"t_address": {
						"encoding": "inplace",
						"label": "address",
						"numberOfBytes": "20"
					},
					"t_address_payable": {
						"encoding": "inplace",
						"label": "address payable",
						"numberOfBytes": "20"
					},
					"t_bool": {
						"encoding": "inplace",
						"label": "bool",
						"numberOfBytes": "1"
					},
					"t_mapping(t_address,t_bool)": {
						"encoding": "mapping",
						"key": "t_address",
						"label": "mapping(address => bool)",
						"numberOfBytes": "32",
						"value": "t_bool"
					},
					"t_mapping(t_address,t_uint256)": {
						"encoding": "mapping",
						"key": "t_address",
						"label": "mapping(address => uint256)",
						"numberOfBytes": "32",
						"value": "t_uint256"
					},
					"t_mapping(t_uint256,t_struct(Request)32_storage)": {
						"encoding": "mapping",
						"key": "t_uint256",
						"label": "mapping(uint256 => struct crowdfunding.Request)",
						"numberOfBytes": "32",
						"value": "t_struct(Request)32_storage"
					},
					"t_string_storage": {
						"encoding": "bytes",
						"label": "string",
						"numberOfBytes": "32"
					},
					"t_struct(Request)32_storage": {
						"encoding": "inplace",
						"label": "struct crowdfunding.Request",
						"members": [
							{
								"astId": 19,
								"contract": "CrowdFunding/crowdfunding.sol:crowdfunding",
								"label": "description",
								"offset": 0,
								"slot": "0",
								"type": "t_string_storage"
							},
							{
								"astId": 21,
								"contract": "CrowdFunding/crowdfunding.sol:crowdfunding",
								"label": "value",
								"offset": 0,
								"slot": "1",
								"type": "t_uint256"
							},
							{
								"astId": 23,
								"contract": "CrowdFunding/crowdfunding.sol:crowdfunding",
								"label": "receipient",
								"offset": 0,
								"slot": "2",
								"type": "t_address_payable"
							},
							{
								"astId": 25,
								"contract": "CrowdFunding/crowdfunding.sol:crowdfunding",
								"label": "completed",
								"offset": 20,
								"slot": "2",
								"type": "t_bool"
							},
							{
								"astId": 27,
								"contract": "CrowdFunding/crowdfunding.sol:crowdfunding",
								"label": "noOfVoters",
								"offset": 0,
								"slot": "3",
								"type": "t_uint256"
							},
							{
								"astId": 31,
								"contract": "CrowdFunding/crowdfunding.sol:crowdfunding",
								"label": "voters",
								"offset": 0,
								"slot": "4",
								"type": "t_mapping(t_address,t_bool)"
							}
						],
						"numberOfBytes": "160"
					},
					"t_uint256": {
						"encoding": "inplace",
						"label": "uint256",
						"numberOfBytes": "32"
					}
				}
			},
			"userdoc": {
				"kind": "user",
				"methods": {},
				"version": 1
			}
		}
	}
}