{
	"CrowdFunding/crowdfunding.sol": {
		"crowdfunding": {
			"abi": [
				{
					"inputs": [
						{
							"internalType": "uint256",
							"name": "_targetAmount",
							"type": "uint256"
						},
						{
							"internalType": "uint256",
							"name": "_deadline",
							"type": "uint256"
						}
					],
					"stateMutability": "nonpayable",
					"type": "constructor"
				},
				{
					"inputs": [
						{
							"internalType": "address",
							"name": "",
							"type": "address"
						}
					],
					"name": "contributors",
					"outputs": [
						{
							"internalType": "uint256",
							"name": "",
							"type": "uint256"
						}
					],
					"stateMutability": "view",
					"type": "function"
				},
				{
					"inputs": [
						{
							"internalType": "string",
							"name": "_description",
							"type": "string"
						},
						{
							"internalType": "address payable",
							"name": "_recipient",
							"type": "address"
						},
						{
							"internalType": "uint256",
							"name": "value",
							"type": "uint256"
						}
					],
					"name": "createRequest",
					"outputs": [],
					"stateMutability": "nonpayable",
					"type": "function"
				},
				{
					"inputs": [],
					"name": "deadline",
					"outputs": [
						{
							"internalType": "uint256",
							"name": "",
							"type": "uint256"
						}
					],
					"stateMutability": "view",
					"type": "function"
				},
				{
					"inputs": [],
					"name": "getContractBalance",
					"outputs": [
						{
							"internalType": "uint256",
							"name": "",
							"type": "uint256"
						}
					],
					"stateMutability": "view",
					"type": "function"
				},
				{
					"inputs": [],
					"name": "manager",
					"outputs": [
						{
							"internalType": "address",
							"name": "",
							"type": "address"
						}
					],
					"stateMutability": "view",
					"type": "function"
				},
				{
					"inputs": [],
					"name": "minimumContribution",
					"outputs": [
						{
							"internalType": "uint256",
							"name": "",
							"type": "uint256"
						}
					],
					"stateMutability": "view",
					"type": "function"
				},
				{
					"inputs": [],
					"name": "noOfContributors",
					"outputs": [
						{
							"internalType": "uint256",
							"name": "",
							"type": "uint256"
						}
					],
					"stateMutability": "view",
					"type": "function"
				},
				{
					"inputs": [],
					"name": "numRequests",
					"outputs": [
						{
							"internalType": "uint256",
							"name": "",
							"type": "uint256"
						}
					],
					"stateMutability": "view",
					"type": "function"
				},
				{
					"inputs": [],
					"name": "raisedAmount",
					"outputs": [
						{
							"internalType": "uint256",
							"name": "",
							"type": "uint256"
						}
					],
					"stateMutability": "view",
					"type": "function"
				},
				{
					"inputs": [],
					"name": "refund",
					"outputs": [],
					"stateMutability": "nonpayable",
					"type": "function"
				},
				{
					"inputs": [
						{
							"internalType": "uint256",
							"name": "",
							"type": "uint256"
						}
					],
					"name": "requests",
					"outputs": [
						{
							"internalType": "string",
							"name": "description",
							"type": "string"
						},
						{
							"internalType": "uint256",
							"name": "value",
							"type": "uint256"
						},
						{
							"internalType": "address payable",
							"name": "receipint",
							"type": "address"
						},
						{
							"internalType": "bool",
							"name": "completed",
							"type": "bool"
						},
						{
							"internalType": "uint256",
							"name": "noOfVoters",
							"type": "uint256"
						}
					],
					"stateMutability": "view",
					"type": "function"
				},
				{
					"inputs": [],
					"name": "sendEth",
					"outputs": [],
					"stateMutability": "payable",
					"type": "function"
				},
				{
					"inputs": [],
					"name": "targetAmount",
					"outputs": [
						{
							"internalType": "uint256",
							"name": "",
							"type": "uint256"
						}
					],
					"stateMutability": "view",
					"type": "function"
				}
			],
			"devdoc": {
				"kind": "dev",
				"methods": {},
				"version": 1
			},
			"evm": {
				"assembly": "    /* \"CrowdFunding/crowdfunding.sol\":70:2015  contract crowdfunding{... */\n  mstore(0x40, 0x80)\n    /* \"CrowdFunding/crowdfunding.sol\":610:819  constructor(uint _targetAmount, uint _deadline){... */\n  callvalue\n  dup1\n  iszero\n  tag_1\n  jumpi\n  0x00\n  dup1\n  revert\ntag_1:\n  pop\n  mload(0x40)\n  sub(codesize, bytecodeSize)\n  dup1\n  bytecodeSize\n  dup4\n  codecopy\n  dup2\n  dup2\n  add\n  0x40\n  mstore\n  dup2\n  add\n  swap1\n  tag_2\n  swap2\n  swap1\n  tag_3\n  jump\t// in\ntag_2:\n    /* \"CrowdFunding/crowdfunding.sol\":682:695  _targetAmount */\n  dup2\n    /* \"CrowdFunding/crowdfunding.sol\":667:679  targetAmount */\n  0x04\n    /* \"CrowdFunding/crowdfunding.sol\":667:695  targetAmount = _targetAmount */\n  dup2\n  swap1\n  sstore\n  pop\n    /* \"CrowdFunding/crowdfunding.sol\":734:743  _deadline */\n  dup1\n    /* \"CrowdFunding/crowdfunding.sol\":716:731  block.timestamp */\n  timestamp\n    /* \"CrowdFunding/crowdfunding.sol\":716:743  block.timestamp + _deadline */\n  tag_6\n  swap2\n  swap1\n  tag_7\n  jump\t// in\ntag_6:\n    /* \"CrowdFunding/crowdfunding.sol\":705:713  deadline */\n  0x03\n    /* \"CrowdFunding/crowdfunding.sol\":705:743  deadline = block.timestamp + _deadline */\n  dup2\n  swap1\n  sstore\n  pop\n    /* \"CrowdFunding/crowdfunding.sol\":775:782  100 wei */\n  0x64\n    /* \"CrowdFunding/crowdfunding.sol\":753:772  minimumContribution */\n  0x02\n    /* \"CrowdFunding/crowdfunding.sol\":753:782  minimumContribution = 100 wei */\n  dup2\n  swap1\n  sstore\n  pop\n    /* \"CrowdFunding/crowdfunding.sol\":802:812  msg.sender */\n  caller\n    /* \"CrowdFunding/crowdfunding.sol\":792:799  manager */\n  0x01\n  0x00\n    /* \"CrowdFunding/crowdfunding.sol\":792:812  manager = msg.sender */\n  0x0100\n  exp\n  dup2\n  sload\n  dup2\n  0xffffffffffffffffffffffffffffffffffffffff\n  mul\n  not\n  and\n  swap1\n  dup4\n  0xffffffffffffffffffffffffffffffffffffffff\n  and\n  mul\n  or\n  swap1\n  sstore\n  pop\n    /* \"CrowdFunding/crowdfunding.sol\":610:819  constructor(uint _targetAmount, uint _deadline){... */\n  pop\n  pop\n    /* \"CrowdFunding/crowdfunding.sol\":70:2015  contract crowdfunding{... */\n  jump(tag_8)\n    /* \"#utility.yul\":7:150   */\ntag_10:\n    /* \"#utility.yul\":64:69   */\n  0x00\n    /* \"#utility.yul\":95:101   */\n  dup2\n    /* \"#utility.yul\":89:102   */\n  mload\n    /* \"#utility.yul\":80:102   */\n  swap1\n  pop\n    /* \"#utility.yul\":111:144   */\n  tag_12\n    /* \"#utility.yul\":138:143   */\n  dup2\n    /* \"#utility.yul\":111:144   */\n  tag_13\n  jump\t// in\ntag_12:\n    /* \"#utility.yul\":7:150   */\n  swap3\n  swap2\n  pop\n  pop\n  jump\t// out\n    /* \"#utility.yul\":156:663   */\ntag_3:\n    /* \"#utility.yul\":235:241   */\n  0x00\n    /* \"#utility.yul\":243:249   */\n  dup1\n    /* \"#utility.yul\":292:294   */\n  0x40\n    /* \"#utility.yul\":280:289   */\n  dup4\n    /* \"#utility.yul\":271:278   */\n  dup6\n    /* \"#utility.yul\":267:290   */\n  sub\n    /* \"#utility.yul\":263:295   */\n  slt\n    /* \"#utility.yul\":260:379   */\n  iszero\n  tag_15\n  jumpi\n    /* \"#utility.yul\":298:377   */\n  tag_16\n  tag_17\n  jump\t// in\ntag_16:\n    /* \"#utility.yul\":260:379   */\ntag_15:\n    /* \"#utility.yul\":418:419   */\n  0x00\n    /* \"#utility.yul\":443:507   */\n  tag_18\n    /* \"#utility.yul\":499:506   */\n  dup6\n    /* \"#utility.yul\":490:496   */\n  dup3\n    /* \"#utility.yul\":479:488   */\n  dup7\n    /* \"#utility.yul\":475:497   */\n  add\n    /* \"#utility.yul\":443:507   */\n  tag_10\n  jump\t// in\ntag_18:\n    /* \"#utility.yul\":433:507   */\n  swap3\n  pop\n    /* \"#utility.yul\":389:517   */\n  pop\n    /* \"#utility.yul\":556:558   */\n  0x20\n    /* \"#utility.yul\":582:646   */\n  tag_19\n    /* \"#utility.yul\":638:645   */\n  dup6\n    /* \"#utility.yul\":629:635   */\n  dup3\n    /* \"#utility.yul\":618:627   */\n  dup7\n    /* \"#utility.yul\":614:636   */\n  add\n    /* \"#utility.yul\":582:646   */\n  tag_10\n  jump\t// in\ntag_19:\n    /* \"#utility.yul\":572:646   */\n  swap2\n  pop\n    /* \"#utility.yul\":527:656   */\n  pop\n    /* \"#utility.yul\":156:663   */\n  swap3\n  pop\n  swap3\n  swap1\n  pop\n  jump\t// out\n    /* \"#utility.yul\":750:1055   */\ntag_7:\n    /* \"#utility.yul\":790:793   */\n  0x00\n    /* \"#utility.yul\":809:829   */\n  tag_23\n    /* \"#utility.yul\":827:828   */\n  dup3\n    /* \"#utility.yul\":809:829   */\n  tag_24\n  jump\t// in\ntag_23:\n    /* \"#utility.yul\":804:829   */\n  swap2\n  pop\n    /* \"#utility.yul\":843:863   */\n  tag_25\n    /* \"#utility.yul\":861:862   */\n  dup4\n    /* \"#utility.yul\":843:863   */\n  tag_24\n  jump\t// in\ntag_25:\n    /* \"#utility.yul\":838:863   */\n  swap3\n  pop\n    /* \"#utility.yul\":997:998   */\n  dup3\n    /* \"#utility.yul\":929:995   */\n  0xffffffffffffffffffffffffffffffffffffffffffffffffffffffffffffffff\n    /* \"#utility.yul\":925:999   */\n  sub\n    /* \"#utility.yul\":922:923   */\n  dup3\n    /* \"#utility.yul\":919:1000   */\n  gt\n    /* \"#utility.yul\":916:1023   */\n  iszero\n  tag_26\n  jumpi\n    /* \"#utility.yul\":1003:1021   */\n  tag_27\n  tag_28\n  jump\t// in\ntag_27:\n    /* \"#utility.yul\":916:1023   */\ntag_26:\n    /* \"#utility.yul\":1047:1048   */\n  dup3\n    /* \"#utility.yul\":1044:1045   */\n  dup3\n    /* \"#utility.yul\":1040:1049   */\n  add\n    /* \"#utility.yul\":1033:1049   */\n  swap1\n  pop\n    /* \"#utility.yul\":750:1055   */\n  swap3\n  swap2\n  pop\n  pop\n  jump\t// out\n    /* \"#utility.yul\":1061:1138   */\ntag_24:\n    /* \"#utility.yul\":1098:1105   */\n  0x00\n    /* \"#utility.yul\":1127:1132   */\n  dup2\n    /* \"#utility.yul\":1116:1132   */\n  swap1\n  pop\n    /* \"#utility.yul\":1061:1138   */\n  swap2\n  swap1\n  pop\n  jump\t// out\n    /* \"#utility.yul\":1144:1324   */\ntag_28:\n    /* \"#utility.yul\":1192:1269   */\n  0x4e487b7100000000000000000000000000000000000000000000000000000000\n    /* \"#utility.yul\":1189:1190   */\n  0x00\n    /* \"#utility.yul\":1182:1270   */\n  mstore\n    /* \"#utility.yul\":1289:1293   */\n  0x11\n    /* \"#utility.yul\":1286:1287   */\n  0x04\n    /* \"#utility.yul\":1279:1294   */\n  mstore\n    /* \"#utility.yul\":1313:1317   */\n  0x24\n    /* \"#utility.yul\":1310:1311   */\n  0x00\n    /* \"#utility.yul\":1303:1318   */\n  revert\n    /* \"#utility.yul\":1453:1570   */\ntag_17:\n    /* \"#utility.yul\":1562:1563   */\n  0x00\n    /* \"#utility.yul\":1559:1560   */\n  dup1\n    /* \"#utility.yul\":1552:1564   */\n  revert\n    /* \"#utility.yul\":1576:1698   */\ntag_13:\n    /* \"#utility.yul\":1649:1673   */\n  tag_35\n    /* \"#utility.yul\":1667:1672   */\n  dup2\n    /* \"#utility.yul\":1649:1673   */\n  tag_24\n  jump\t// in\ntag_35:\n    /* \"#utility.yul\":1642:1647   */\n  dup2\n    /* \"#utility.yul\":1639:1674   */\n  eq\n    /* \"#utility.yul\":1629:1692   */\n  tag_36\n  jumpi\n    /* \"#utility.yul\":1688:1689   */\n  0x00\n    /* \"#utility.yul\":1685:1686   */\n  dup1\n    /* \"#utility.yul\":1678:1690   */\n  revert\n    /* \"#utility.yul\":1629:1692   */\ntag_36:\n    /* \"#utility.yul\":1576:1698   */\n  pop\n  jump\t// out\n    /* \"CrowdFunding/crowdfunding.sol\":70:2015  contract crowdfunding{... */\ntag_8:\n  dataSize(sub_0)\n  dup1\n  dataOffset(sub_0)\n  0x00\n  codecopy\n  0x00\n  return\nstop\n\nsub_0: assembly {\n        /* \"CrowdFunding/crowdfunding.sol\":70:2015  contract crowdfunding{... */\n      mstore(0x40, 0x80)\n      jumpi(tag_1, lt(calldatasize, 0x04))\n      shr(0xe0, calldataload(0x00))\n      dup1\n      0x590e1ae3\n      gt\n      tag_15\n      jumpi\n      dup1\n      0x937e09b1\n      gt\n      tag_16\n      jumpi\n      dup1\n      0x937e09b1\n      eq\n      tag_11\n      jumpi\n      dup1\n      0x953b8fb8\n      eq\n      tag_12\n      jumpi\n      dup1\n      0x9fb42b1f\n      eq\n      tag_13\n      jumpi\n      dup1\n      0xc59ee1dc\n      eq\n      tag_14\n      jumpi\n      jump(tag_1)\n    tag_16:\n      dup1\n      0x590e1ae3\n      eq\n      tag_8\n      jumpi\n      dup1\n      0x6f9fb98a\n      eq\n      tag_9\n      jumpi\n      dup1\n      0x81d12c58\n      eq\n      tag_10\n      jumpi\n      jump(tag_1)\n    tag_15:\n      dup1\n      0x06e99fef\n      eq\n      tag_2\n      jumpi\n      dup1\n      0x1b16bb5c\n      eq\n      tag_3\n      jumpi\n      dup1\n      0x1f6d4942\n      eq\n      tag_4\n      jumpi\n      dup1\n      0x29dcb0cf\n      eq\n      tag_5\n      jumpi\n      dup1\n      0x481c6a75\n      eq\n      tag_6\n      jumpi\n      dup1\n      0x4e260f6f\n      eq\n      tag_7\n      jumpi\n    tag_1:\n      0x00\n      dup1\n      revert\n        /* \"CrowdFunding/crowdfunding.sol\":825:1192  function sendEth() public payable{... */\n    tag_2:\n      tag_17\n      tag_18\n      jump\t// in\n    tag_17:\n      stop\n        /* \"CrowdFunding/crowdfunding.sol\":1905:2011  function createRequest(string memory _description, address payable _recipient, uint value) public {... */\n    tag_3:\n      callvalue\n      dup1\n      iszero\n      tag_19\n      jumpi\n      0x00\n      dup1\n      revert\n    tag_19:\n      pop\n      tag_20\n      0x04\n      dup1\n      calldatasize\n      sub\n      dup2\n      add\n      swap1\n      tag_21\n      swap2\n      swap1\n      tag_22\n      jump\t// in\n    tag_21:\n      tag_23\n      jump\t// in\n    tag_20:\n      stop\n        /* \"CrowdFunding/crowdfunding.sol\":102:144  mapping(address=>uint) public contributors */\n    tag_4:\n      callvalue\n      dup1\n      iszero\n      tag_24\n      jumpi\n      0x00\n      dup1\n      revert\n    tag_24:\n      pop\n      tag_25\n      0x04\n      dup1\n      calldatasize\n      sub\n      dup2\n      add\n      swap1\n      tag_26\n      swap2\n      swap1\n      tag_27\n      jump\t// in\n    tag_26:\n      tag_28\n      jump\t// in\n    tag_25:\n      mload(0x40)\n      tag_29\n      swap2\n      swap1\n      tag_30\n      jump\t// in\n    tag_29:\n      mload(0x40)\n      dup1\n      swap2\n      sub\n      swap1\n      return\n        /* \"CrowdFunding/crowdfunding.sol\":215:235  uint public deadline */\n    tag_5:\n      callvalue\n      dup1\n      iszero\n      tag_31\n      jumpi\n      0x00\n      dup1\n      revert\n    tag_31:\n      pop\n      tag_32\n      tag_33\n      jump\t// in\n    tag_32:\n      mload(0x40)\n      tag_34\n      swap2\n      swap1\n      tag_30\n      jump\t// in\n    tag_34:\n      mload(0x40)\n      dup1\n      swap2\n      sub\n      swap1\n      return\n        /* \"CrowdFunding/crowdfunding.sol\":150:172  address public manager */\n    tag_6:\n      callvalue\n      dup1\n      iszero\n      tag_35\n      jumpi\n      0x00\n      dup1\n      revert\n    tag_35:\n      pop\n      tag_36\n      tag_37\n      jump\t// in\n    tag_36:\n      mload(0x40)\n      tag_38\n      swap2\n      swap1\n      tag_39\n      jump\t// in\n    tag_38:\n      mload(0x40)\n      dup1\n      swap2\n      sub\n      swap1\n      return\n        /* \"CrowdFunding/crowdfunding.sol\":301:329  uint public noOfContributors */\n    tag_7:\n      callvalue\n      dup1\n      iszero\n      tag_40\n      jumpi\n      0x00\n      dup1\n      revert\n    tag_40:\n      pop\n      tag_41\n      tag_42\n      jump\t// in\n    tag_41:\n      mload(0x40)\n      tag_43\n      swap2\n      swap1\n      tag_30\n      jump\t// in\n    tag_43:\n      mload(0x40)\n      dup1\n      swap2\n      sub\n      swap1\n      return\n        /* \"CrowdFunding/crowdfunding.sol\":1306:1773  function refund() public{... */\n    tag_8:\n      callvalue\n      dup1\n      iszero\n      tag_44\n      jumpi\n      0x00\n      dup1\n      revert\n    tag_44:\n      pop\n      tag_45\n      tag_46\n      jump\t// in\n    tag_45:\n      stop\n        /* \"CrowdFunding/crowdfunding.sol\":1199:1299  function getContractBalance() public view returns(uint){... */\n    tag_9:\n      callvalue\n      dup1\n      iszero\n      tag_47\n      jumpi\n      0x00\n      dup1\n      revert\n    tag_47:\n      pop\n      tag_48\n      tag_49\n      jump\t// in\n    tag_48:\n      mload(0x40)\n      tag_50\n      swap2\n      swap1\n      tag_30\n      jump\t// in\n    tag_50:\n      mload(0x40)\n      dup1\n      swap2\n      sub\n      swap1\n      return\n        /* \"CrowdFunding/crowdfunding.sol\":535:573  mapping(uint=>Request) public requests */\n    tag_10:\n      callvalue\n      dup1\n      iszero\n      tag_51\n      jumpi\n      0x00\n      dup1\n      revert\n    tag_51:\n      pop\n      tag_52\n      0x04\n      dup1\n      calldatasize\n      sub\n      dup2\n      add\n      swap1\n      tag_53\n      swap2\n      swap1\n      tag_54\n      jump\t// in\n    tag_53:\n      tag_55\n      jump\t// in\n    tag_52:\n      mload(0x40)\n      tag_56\n      swap6\n      swap5\n      swap4\n      swap3\n      swap2\n      swap1\n      tag_57\n      jump\t// in\n    tag_56:\n      mload(0x40)\n      dup1\n      swap2\n      sub\n      swap1\n      return\n        /* \"CrowdFunding/crowdfunding.sol\":178:209  uint public minimumContribution */\n    tag_11:\n      callvalue\n      dup1\n      iszero\n      tag_58\n      jumpi\n      0x00\n      dup1\n      revert\n    tag_58:\n      pop\n      tag_59\n      tag_60\n      jump\t// in\n    tag_59:\n      mload(0x40)\n      tag_61\n      swap2\n      swap1\n      tag_30\n      jump\t// in\n    tag_61:\n      mload(0x40)\n      dup1\n      swap2\n      sub\n      swap1\n      return\n        /* \"CrowdFunding/crowdfunding.sol\":241:265  uint public targetAmount */\n    tag_12:\n      callvalue\n      dup1\n      iszero\n      tag_62\n      jumpi\n      0x00\n      dup1\n      revert\n    tag_62:\n      pop\n      tag_63\n      tag_64\n      jump\t// in\n    tag_63:\n      mload(0x40)\n      tag_65\n      swap2\n      swap1\n      tag_30\n      jump\t// in\n    tag_65:\n      mload(0x40)\n      dup1\n      swap2\n      sub\n      swap1\n      return\n        /* \"CrowdFunding/crowdfunding.sol\":579:602  uint public numRequests */\n    tag_13:\n      callvalue\n      dup1\n      iszero\n      tag_66\n      jumpi\n      0x00\n      dup1\n      revert\n    tag_66:\n      pop\n      tag_67\n      tag_68\n      jump\t// in\n    tag_67:\n      mload(0x40)\n      tag_69\n      swap2\n      swap1\n      tag_30\n      jump\t// in\n    tag_69:\n      mload(0x40)\n      dup1\n      swap2\n      sub\n      swap1\n      return\n        /* \"CrowdFunding/crowdfunding.sol\":271:295  uint public raisedAmount */\n    tag_14:\n      callvalue\n      dup1\n      iszero\n      tag_70\n      jumpi\n      0x00\n      dup1\n      revert\n    tag_70:\n      pop\n      tag_71\n      tag_72\n      jump\t// in\n    tag_71:\n      mload(0x40)\n      tag_73\n      swap2\n      swap1\n      tag_30\n      jump\t// in\n    tag_73:\n      mload(0x40)\n      dup1\n      swap2\n      sub\n      swap1\n      return\n        /* \"CrowdFunding/crowdfunding.sol\":825:1192  function sendEth() public payable{... */\n    tag_18:\n        /* \"CrowdFunding/crowdfunding.sol\":894:902  deadline */\n      sload(0x03)\n        /* \"CrowdFunding/crowdfunding.sol\":876:891  block.timestamp */\n      timestamp\n        /* \"CrowdFunding/crowdfunding.sol\":876:902  block.timestamp < deadline */\n      lt\n        /* \"CrowdFunding/crowdfunding.sol\":868:943  require(block.timestamp < deadline, \"Sorry!! Deadline has already passed.\") */\n      tag_75\n      jumpi\n      mload(0x40)\n      0x08c379a000000000000000000000000000000000000000000000000000000000\n      dup2\n      mstore\n      0x04\n      add\n      tag_76\n      swap1\n      tag_77\n      jump\t// in\n    tag_76:\n      mload(0x40)\n      dup1\n      swap2\n      sub\n      swap1\n      revert\n    tag_75:\n        /* \"CrowdFunding/crowdfunding.sol\":974:993  minimumContribution */\n      sload(0x02)\n        /* \"CrowdFunding/crowdfunding.sol\":961:970  msg.value */\n      callvalue\n        /* \"CrowdFunding/crowdfunding.sol\":961:993  msg.value >= minimumContribution */\n      lt\n      iszero\n        /* \"CrowdFunding/crowdfunding.sol\":953:1038  require(msg.value >= minimumContribution, \"Sorry!! you have to pay minimum 100 wei.\") */\n      tag_78\n      jumpi\n      mload(0x40)\n      0x08c379a000000000000000000000000000000000000000000000000000000000\n      dup2\n      mstore\n      0x04\n      add\n      tag_79\n      swap1\n      tag_80\n      jump\t// in\n    tag_79:\n      mload(0x40)\n      dup1\n      swap2\n      sub\n      swap1\n      revert\n    tag_78:\n        /* \"CrowdFunding/crowdfunding.sol\":1080:1081  0 */\n      0x00\n        /* \"CrowdFunding/crowdfunding.sol\":1052:1064  contributors */\n      dup1\n        /* \"CrowdFunding/crowdfunding.sol\":1052:1076  contributors[msg.sender] */\n      0x00\n        /* \"CrowdFunding/crowdfunding.sol\":1065:1075  msg.sender */\n      caller\n        /* \"CrowdFunding/crowdfunding.sol\":1052:1076  contributors[msg.sender] */\n      0xffffffffffffffffffffffffffffffffffffffff\n      and\n      0xffffffffffffffffffffffffffffffffffffffff\n      and\n      dup2\n      mstore\n      0x20\n      add\n      swap1\n      dup2\n      mstore\n      0x20\n      add\n      0x00\n      keccak256\n      sload\n        /* \"CrowdFunding/crowdfunding.sol\":1052:1081  contributors[msg.sender] == 0 */\n      eq\n        /* \"CrowdFunding/crowdfunding.sol\":1049:1101  if(contributors[msg.sender] == 0) noOfContributors++ */\n      iszero\n      tag_81\n      jumpi\n        /* \"CrowdFunding/crowdfunding.sol\":1083:1099  noOfContributors */\n      0x06\n      0x00\n        /* \"CrowdFunding/crowdfunding.sol\":1083:1101  noOfContributors++ */\n      dup2\n      sload\n      dup1\n      swap3\n      swap2\n      swap1\n      tag_82\n      swap1\n      tag_83\n      jump\t// in\n    tag_82:\n      swap2\n      swap1\n      pop\n      sstore\n      pop\n        /* \"CrowdFunding/crowdfunding.sol\":1049:1101  if(contributors[msg.sender] == 0) noOfContributors++ */\n    tag_81:\n        /* \"CrowdFunding/crowdfunding.sol\":1140:1149  msg.value */\n      callvalue\n        /* \"CrowdFunding/crowdfunding.sol\":1112:1124  contributors */\n      0x00\n        /* \"CrowdFunding/crowdfunding.sol\":1112:1136  contributors[msg.sender] */\n      dup1\n        /* \"CrowdFunding/crowdfunding.sol\":1125:1135  msg.sender */\n      caller\n        /* \"CrowdFunding/crowdfunding.sol\":1112:1136  contributors[msg.sender] */\n      0xffffffffffffffffffffffffffffffffffffffff\n      and\n      0xffffffffffffffffffffffffffffffffffffffff\n      and\n      dup2\n      mstore\n      0x20\n      add\n      swap1\n      dup2\n      mstore\n      0x20\n      add\n      0x00\n      keccak256\n      0x00\n        /* \"CrowdFunding/crowdfunding.sol\":1112:1149  contributors[msg.sender] += msg.value */\n      dup3\n      dup3\n      sload\n      tag_84\n      swap2\n      swap1\n      tag_85\n      jump\t// in\n    tag_84:\n      swap3\n      pop\n      pop\n      dup2\n      swap1\n      sstore\n      pop\n        /* \"CrowdFunding/crowdfunding.sol\":1175:1184  msg.value */\n      callvalue\n        /* \"CrowdFunding/crowdfunding.sol\":1159:1171  raisedAmount */\n      0x05\n      0x00\n        /* \"CrowdFunding/crowdfunding.sol\":1159:1184  raisedAmount += msg.value */\n      dup3\n      dup3\n      sload\n      tag_86\n      swap2\n      swap1\n      tag_85\n      jump\t// in\n    tag_86:\n      swap3\n      pop\n      pop\n      dup2\n      swap1\n      sstore\n      pop\n        /* \"CrowdFunding/crowdfunding.sol\":825:1192  function sendEth() public payable{... */\n      jump\t// out\n        /* \"CrowdFunding/crowdfunding.sol\":1905:2011  function createRequest(string memory _description, address payable _recipient, uint value) public {... */\n    tag_23:\n      pop\n      pop\n      pop\n      jump\t// out\n        /* \"CrowdFunding/crowdfunding.sol\":102:144  mapping(address=>uint) public contributors */\n    tag_28:\n      mstore(0x20, 0x00)\n      dup1\n      0x00\n      mstore\n      keccak256(0x00, 0x40)\n      0x00\n      swap2\n      pop\n      swap1\n      pop\n      sload\n      dup2\n      jump\t// out\n        /* \"CrowdFunding/crowdfunding.sol\":215:235  uint public deadline */\n    tag_33:\n      sload(0x03)\n      dup2\n      jump\t// out\n        /* \"CrowdFunding/crowdfunding.sol\":150:172  address public manager */\n    tag_37:\n      0x01\n      0x00\n      swap1\n      sload\n      swap1\n      0x0100\n      exp\n      swap1\n      div\n      0xffffffffffffffffffffffffffffffffffffffff\n      and\n      dup2\n      jump\t// out\n        /* \"CrowdFunding/crowdfunding.sol\":301:329  uint public noOfContributors */\n    tag_42:\n      sload(0x06)\n      dup2\n      jump\t// out\n        /* \"CrowdFunding/crowdfunding.sol\":1306:1773  function refund() public{... */\n    tag_46:\n        /* \"CrowdFunding/crowdfunding.sol\":1367:1375  deadline */\n      sload(0x03)\n        /* \"CrowdFunding/crowdfunding.sol\":1348:1363  block.timestamp */\n      timestamp\n        /* \"CrowdFunding/crowdfunding.sol\":1348:1375  block.timestamp >= deadline */\n      lt\n      iszero\n        /* \"CrowdFunding/crowdfunding.sol\":1348:1406  block.timestamp >= deadline && raisedAmount < targetAmount */\n      dup1\n      iszero\n      tag_89\n      jumpi\n      pop\n        /* \"CrowdFunding/crowdfunding.sol\":1394:1406  targetAmount */\n      sload(0x04)\n        /* \"CrowdFunding/crowdfunding.sol\":1379:1391  raisedAmount */\n      sload(0x05)\n        /* \"CrowdFunding/crowdfunding.sol\":1379:1406  raisedAmount < targetAmount */\n      lt\n        /* \"CrowdFunding/crowdfunding.sol\":1348:1406  block.timestamp >= deadline && raisedAmount < targetAmount */\n    tag_89:\n        /* \"CrowdFunding/crowdfunding.sol\":1340:1449  require(block.timestamp >= deadline && raisedAmount < targetAmount, \"Sorry, you are not eligible for refund\") */\n      tag_90\n      jumpi\n      mload(0x40)\n      0x08c379a000000000000000000000000000000000000000000000000000000000\n      dup2\n      mstore\n      0x04\n      add\n      tag_91\n      swap1\n      tag_92\n      jump\t// in\n    tag_91:\n      mload(0x40)\n      dup1\n      swap2\n      sub\n      swap1\n      revert\n    tag_90:\n        /* \"CrowdFunding/crowdfunding.sol\":1494:1495  0 */\n      0x00\n        /* \"CrowdFunding/crowdfunding.sol\":1467:1479  contributors */\n      dup1\n        /* \"CrowdFunding/crowdfunding.sol\":1467:1491  contributors[msg.sender] */\n      0x00\n        /* \"CrowdFunding/crowdfunding.sol\":1480:1490  msg.sender */\n      caller\n        /* \"CrowdFunding/crowdfunding.sol\":1467:1491  contributors[msg.sender] */\n      0xffffffffffffffffffffffffffffffffffffffff\n      and\n      0xffffffffffffffffffffffffffffffffffffffff\n      and\n      dup2\n      mstore\n      0x20\n      add\n      swap1\n      dup2\n      mstore\n      0x20\n      add\n      0x00\n      keccak256\n      sload\n        /* \"CrowdFunding/crowdfunding.sol\":1467:1495  contributors[msg.sender] > 0 */\n      gt\n        /* \"CrowdFunding/crowdfunding.sol\":1459:1524  require(contributors[msg.sender] > 0, \"You haven't contributed.\") */\n      tag_93\n      jumpi\n      mload(0x40)\n      0x08c379a000000000000000000000000000000000000000000000000000000000\n      dup2\n      mstore\n      0x04\n      add\n      tag_94\n      swap1\n      tag_95\n      jump\t// in\n    tag_94:\n      mload(0x40)\n      dup1\n      swap2\n      sub\n      swap1\n      revert\n    tag_93:\n        /* \"CrowdFunding/crowdfunding.sol\":1535:1566  address payable receiverAddress */\n      0x00\n        /* \"CrowdFunding/crowdfunding.sol\":1577:1587  msg.sender */\n      caller\n        /* \"CrowdFunding/crowdfunding.sol\":1535:1588  address payable receiverAddress = payable(msg.sender) */\n      swap1\n      pop\n        /* \"CrowdFunding/crowdfunding.sol\":1598:1613  receiverAddress */\n      dup1\n        /* \"CrowdFunding/crowdfunding.sol\":1598:1622  receiverAddress.transfer */\n      0xffffffffffffffffffffffffffffffffffffffff\n      and\n        /* \"CrowdFunding/crowdfunding.sol\":1598:1648  receiverAddress.transfer(contributors[msg.sender]) */\n      0x08fc\n        /* \"CrowdFunding/crowdfunding.sol\":1623:1635  contributors */\n      0x00\n        /* \"CrowdFunding/crowdfunding.sol\":1623:1647  contributors[msg.sender] */\n      dup1\n        /* \"CrowdFunding/crowdfunding.sol\":1636:1646  msg.sender */\n      caller\n        /* \"CrowdFunding/crowdfunding.sol\":1623:1647  contributors[msg.sender] */\n      0xffffffffffffffffffffffffffffffffffffffff\n      and\n      0xffffffffffffffffffffffffffffffffffffffff\n      and\n      dup2\n      mstore\n      0x20\n      add\n      swap1\n      dup2\n      mstore\n      0x20\n      add\n      0x00\n      keccak256\n      sload\n        /* \"CrowdFunding/crowdfunding.sol\":1598:1648  receiverAddress.transfer(contributors[msg.sender]) */\n      swap1\n      dup2\n      iszero\n      mul\n      swap1\n      mload(0x40)\n      0x00\n      mload(0x40)\n      dup1\n      dup4\n      sub\n      dup2\n      dup6\n      dup9\n      dup9\n      call\n      swap4\n      pop\n      pop\n      pop\n      pop\n      iszero\n      dup1\n      iszero\n      tag_97\n      jumpi\n      returndatasize\n      0x00\n      dup1\n      returndatacopy\n      revert(0x00, returndatasize)\n    tag_97:\n      pop\n        /* \"CrowdFunding/crowdfunding.sol\":1675:1687  contributors */\n      0x00\n        /* \"CrowdFunding/crowdfunding.sol\":1675:1699  contributors[msg.sender] */\n      dup1\n        /* \"CrowdFunding/crowdfunding.sol\":1688:1698  msg.sender */\n      caller\n        /* \"CrowdFunding/crowdfunding.sol\":1675:1699  contributors[msg.sender] */\n      0xffffffffffffffffffffffffffffffffffffffff\n      and\n      0xffffffffffffffffffffffffffffffffffffffff\n      and\n      dup2\n      mstore\n      0x20\n      add\n      swap1\n      dup2\n      mstore\n      0x20\n      add\n      0x00\n      keccak256\n      sload\n        /* \"CrowdFunding/crowdfunding.sol\":1659:1671  raisedAmount */\n      0x05\n      0x00\n        /* \"CrowdFunding/crowdfunding.sol\":1659:1699  raisedAmount -= contributors[msg.sender] */\n      dup3\n      dup3\n      sload\n      tag_98\n      swap2\n      swap1\n      tag_99\n      jump\t// in\n    tag_98:\n      swap3\n      pop\n      pop\n      dup2\n      swap1\n      sstore\n      pop\n        /* \"CrowdFunding/crowdfunding.sol\":1736:1737  0 */\n      0x00\n        /* \"CrowdFunding/crowdfunding.sol\":1709:1721  contributors */\n      dup1\n        /* \"CrowdFunding/crowdfunding.sol\":1709:1733  contributors[msg.sender] */\n      0x00\n        /* \"CrowdFunding/crowdfunding.sol\":1722:1732  msg.sender */\n      caller\n        /* \"CrowdFunding/crowdfunding.sol\":1709:1733  contributors[msg.sender] */\n      0xffffffffffffffffffffffffffffffffffffffff\n      and\n      0xffffffffffffffffffffffffffffffffffffffff\n      and\n      dup2\n      mstore\n      0x20\n      add\n      swap1\n      dup2\n      mstore\n      0x20\n      add\n      0x00\n      keccak256\n        /* \"CrowdFunding/crowdfunding.sol\":1709:1737  contributors[msg.sender] = 0 */\n      dup2\n      swap1\n      sstore\n      pop\n        /* \"CrowdFunding/crowdfunding.sol\":1747:1763  noOfContributors */\n      0x06\n      0x00\n        /* \"CrowdFunding/crowdfunding.sol\":1747:1765  noOfContributors-- */\n      dup2\n      sload\n      dup1\n      swap3\n      swap2\n      swap1\n      tag_100\n      swap1\n      tag_101\n      jump\t// in\n    tag_100:\n      swap2\n      swap1\n      pop\n      sstore\n      pop\n        /* \"CrowdFunding/crowdfunding.sol\":1330:1773  {... */\n      pop\n        /* \"CrowdFunding/crowdfunding.sol\":1306:1773  function refund() public{... */\n      jump\t// out\n        /* \"CrowdFunding/crowdfunding.sol\":1199:1299  function getContractBalance() public view returns(uint){... */\n    tag_49:\n        /* \"CrowdFunding/crowdfunding.sol\":1249:1253  uint */\n      0x00\n        /* \"CrowdFunding/crowdfunding.sol\":1271:1292  address(this).balance */\n      selfbalance\n        /* \"CrowdFunding/crowdfunding.sol\":1264:1292  return address(this).balance */\n      swap1\n      pop\n        /* \"CrowdFunding/crowdfunding.sol\":1199:1299  function getContractBalance() public view returns(uint){... */\n      swap1\n      jump\t// out\n        /* \"CrowdFunding/crowdfunding.sol\":535:573  mapping(uint=>Request) public requests */\n    tag_55:\n      mstore(0x20, 0x07)\n      dup1\n      0x00\n      mstore\n      keccak256(0x00, 0x40)\n      0x00\n      swap2\n      pop\n      swap1\n      pop\n      dup1\n      0x00\n      add\n      dup1\n      sload\n      tag_103\n      swap1\n      tag_104\n      jump\t// in\n    tag_103:\n      dup1\n      0x1f\n      add\n      0x20\n      dup1\n      swap2\n      div\n      mul\n      0x20\n      add\n      mload(0x40)\n      swap1\n      dup2\n      add\n      0x40\n      mstore\n      dup1\n      swap3\n      swap2\n      swap1\n      dup2\n      dup2\n      mstore\n      0x20\n      add\n      dup3\n      dup1\n      sload\n      tag_105\n      swap1\n      tag_104\n      jump\t// in\n    tag_105:\n      dup1\n      iszero\n      tag_106\n      jumpi\n      dup1\n      0x1f\n      lt\n      tag_107\n      jumpi\n      0x0100\n      dup1\n      dup4\n      sload\n      div\n      mul\n      dup4\n      mstore\n      swap2\n      0x20\n      add\n      swap2\n      jump(tag_106)\n    tag_107:\n      dup3\n      add\n      swap2\n      swap1\n      0x00\n      mstore\n      keccak256(0x00, 0x20)\n      swap1\n    tag_108:\n      dup2\n      sload\n      dup2\n      mstore\n      swap1\n      0x01\n      add\n      swap1\n      0x20\n      add\n      dup1\n      dup4\n      gt\n      tag_108\n      jumpi\n      dup3\n      swap1\n      sub\n      0x1f\n      and\n      dup3\n      add\n      swap2\n    tag_106:\n      pop\n      pop\n      pop\n      pop\n      pop\n      swap1\n      dup1\n      0x01\n      add\n      sload\n      swap1\n      dup1\n      0x02\n      add\n      0x00\n      swap1\n      sload\n      swap1\n      0x0100\n      exp\n      swap1\n      div\n      0xffffffffffffffffffffffffffffffffffffffff\n      and\n      swap1\n      dup1\n      0x02\n      add\n      0x14\n      swap1\n      sload\n      swap1\n      0x0100\n      exp\n      swap1\n      div\n      0xff\n      and\n      swap1\n      dup1\n      0x03\n      add\n      sload\n      swap1\n      pop\n      dup6\n      jump\t// out\n        /* \"CrowdFunding/crowdfunding.sol\":178:209  uint public minimumContribution */\n    tag_60:\n      sload(0x02)\n      dup2\n      jump\t// out\n        /* \"CrowdFunding/crowdfunding.sol\":241:265  uint public targetAmount */\n    tag_64:\n      sload(0x04)\n      dup2\n      jump\t// out\n        /* \"CrowdFunding/crowdfunding.sol\":579:602  uint public numRequests */\n    tag_68:\n      sload(0x08)\n      dup2\n      jump\t// out\n        /* \"CrowdFunding/crowdfunding.sol\":271:295  uint public raisedAmount */\n    tag_72:\n      sload(0x05)\n      dup2\n      jump\t// out\n        /* \"#utility.yul\":7:419   */\n    tag_110:\n        /* \"#utility.yul\":85:90   */\n      0x00\n        /* \"#utility.yul\":110:176   */\n      tag_112\n        /* \"#utility.yul\":126:175   */\n      tag_113\n        /* \"#utility.yul\":168:174   */\n      dup5\n        /* \"#utility.yul\":126:175   */\n      tag_114\n      jump\t// in\n    tag_113:\n        /* \"#utility.yul\":110:176   */\n      tag_115\n      jump\t// in\n    tag_112:\n        /* \"#utility.yul\":101:176   */\n      swap1\n      pop\n        /* \"#utility.yul\":199:205   */\n      dup3\n        /* \"#utility.yul\":192:197   */\n      dup2\n        /* \"#utility.yul\":185:206   */\n      mstore\n        /* \"#utility.yul\":237:241   */\n      0x20\n        /* \"#utility.yul\":230:235   */\n      dup2\n        /* \"#utility.yul\":226:242   */\n      add\n        /* \"#utility.yul\":275:278   */\n      dup5\n        /* \"#utility.yul\":266:272   */\n      dup5\n        /* \"#utility.yul\":261:264   */\n      dup5\n        /* \"#utility.yul\":257:273   */\n      add\n        /* \"#utility.yul\":254:279   */\n      gt\n        /* \"#utility.yul\":251:363   */\n      iszero\n      tag_116\n      jumpi\n        /* \"#utility.yul\":282:361   */\n      tag_117\n      tag_118\n      jump\t// in\n    tag_117:\n        /* \"#utility.yul\":251:363   */\n    tag_116:\n        /* \"#utility.yul\":372:413   */\n      tag_119\n        /* \"#utility.yul\":406:412   */\n      dup5\n        /* \"#utility.yul\":401:404   */\n      dup3\n        /* \"#utility.yul\":396:399   */\n      dup6\n        /* \"#utility.yul\":372:413   */\n      tag_120\n      jump\t// in\n    tag_119:\n        /* \"#utility.yul\":91:419   */\n      pop\n        /* \"#utility.yul\":7:419   */\n      swap4\n      swap3\n      pop\n      pop\n      pop\n      jump\t// out\n        /* \"#utility.yul\":425:564   */\n    tag_121:\n        /* \"#utility.yul\":471:476   */\n      0x00\n        /* \"#utility.yul\":509:515   */\n      dup2\n        /* \"#utility.yul\":496:516   */\n      calldataload\n        /* \"#utility.yul\":487:516   */\n      swap1\n      pop\n        /* \"#utility.yul\":525:558   */\n      tag_123\n        /* \"#utility.yul\":552:557   */\n      dup2\n        /* \"#utility.yul\":525:558   */\n      tag_124\n      jump\t// in\n    tag_123:\n        /* \"#utility.yul\":425:564   */\n      swap3\n      swap2\n      pop\n      pop\n      jump\t// out\n        /* \"#utility.yul\":570:725   */\n    tag_125:\n        /* \"#utility.yul\":624:629   */\n      0x00\n        /* \"#utility.yul\":662:668   */\n      dup2\n        /* \"#utility.yul\":649:669   */\n      calldataload\n        /* \"#utility.yul\":640:669   */\n      swap1\n      pop\n        /* \"#utility.yul\":678:719   */\n      tag_127\n        /* \"#utility.yul\":713:718   */\n      dup2\n        /* \"#utility.yul\":678:719   */\n      tag_128\n      jump\t// in\n    tag_127:\n        /* \"#utility.yul\":570:725   */\n      swap3\n      swap2\n      pop\n      pop\n      jump\t// out\n        /* \"#utility.yul\":745:1085   */\n    tag_129:\n        /* \"#utility.yul\":801:806   */\n      0x00\n        /* \"#utility.yul\":850:853   */\n      dup3\n        /* \"#utility.yul\":843:847   */\n      0x1f\n        /* \"#utility.yul\":835:841   */\n      dup4\n        /* \"#utility.yul\":831:848   */\n      add\n        /* \"#utility.yul\":827:854   */\n      slt\n        /* \"#utility.yul\":817:939   */\n      tag_131\n      jumpi\n        /* \"#utility.yul\":858:937   */\n      tag_132\n      tag_133\n      jump\t// in\n    tag_132:\n        /* \"#utility.yul\":817:939   */\n    tag_131:\n        /* \"#utility.yul\":975:981   */\n      dup2\n        /* \"#utility.yul\":962:982   */\n      calldataload\n        /* \"#utility.yul\":1000:1079   */\n      tag_134\n        /* \"#utility.yul\":1075:1078   */\n      dup5\n        /* \"#utility.yul\":1067:1073   */\n      dup3\n        /* \"#utility.yul\":1060:1064   */\n      0x20\n        /* \"#utility.yul\":1052:1058   */\n      dup7\n        /* \"#utility.yul\":1048:1065   */\n      add\n        /* \"#utility.yul\":1000:1079   */\n      tag_110\n      jump\t// in\n    tag_134:\n        /* \"#utility.yul\":991:1079   */\n      swap2\n      pop\n        /* \"#utility.yul\":807:1085   */\n      pop\n        /* \"#utility.yul\":745:1085   */\n      swap3\n      swap2\n      pop\n      pop\n      jump\t// out\n        /* \"#utility.yul\":1091:1230   */\n    tag_135:\n        /* \"#utility.yul\":1137:1142   */\n      0x00\n        /* \"#utility.yul\":1175:1181   */\n      dup2\n        /* \"#utility.yul\":1162:1182   */\n      calldataload\n        /* \"#utility.yul\":1153:1182   */\n      swap1\n      pop\n        /* \"#utility.yul\":1191:1224   */\n      tag_137\n        /* \"#utility.yul\":1218:1223   */\n      dup2\n        /* \"#utility.yul\":1191:1224   */\n      tag_138\n      jump\t// in\n    tag_137:\n        /* \"#utility.yul\":1091:1230   */\n      swap3\n      swap2\n      pop\n      pop\n      jump\t// out\n        /* \"#utility.yul\":1236:1565   */\n    tag_27:\n        /* \"#utility.yul\":1295:1301   */\n      0x00\n        /* \"#utility.yul\":1344:1346   */\n      0x20\n        /* \"#utility.yul\":1332:1341   */\n      dup3\n        /* \"#utility.yul\":1323:1330   */\n      dup5\n        /* \"#utility.yul\":1319:1342   */\n      sub\n        /* \"#utility.yul\":1315:1347   */\n      slt\n        /* \"#utility.yul\":1312:1431   */\n      iszero\n      tag_140\n      jumpi\n        /* \"#utility.yul\":1350:1429   */\n      tag_141\n      tag_142\n      jump\t// in\n    tag_141:\n        /* \"#utility.yul\":1312:1431   */\n    tag_140:\n        /* \"#utility.yul\":1470:1471   */\n      0x00\n        /* \"#utility.yul\":1495:1548   */\n      tag_143\n        /* \"#utility.yul\":1540:1547   */\n      dup5\n        /* \"#utility.yul\":1531:1537   */\n      dup3\n        /* \"#utility.yul\":1520:1529   */\n      dup6\n        /* \"#utility.yul\":1516:1538   */\n      add\n        /* \"#utility.yul\":1495:1548   */\n      tag_121\n      jump\t// in\n    tag_143:\n        /* \"#utility.yul\":1485:1548   */\n      swap2\n      pop\n        /* \"#utility.yul\":1441:1558   */\n      pop\n        /* \"#utility.yul\":1236:1565   */\n      swap3\n      swap2\n      pop\n      pop\n      jump\t// out\n        /* \"#utility.yul\":1571:2386   */\n    tag_22:\n        /* \"#utility.yul\":1666:1672   */\n      0x00\n        /* \"#utility.yul\":1674:1680   */\n      dup1\n        /* \"#utility.yul\":1682:1688   */\n      0x00\n        /* \"#utility.yul\":1731:1733   */\n      0x60\n        /* \"#utility.yul\":1719:1728   */\n      dup5\n        /* \"#utility.yul\":1710:1717   */\n      dup7\n        /* \"#utility.yul\":1706:1729   */\n      sub\n        /* \"#utility.yul\":1702:1734   */\n      slt\n        /* \"#utility.yul\":1699:1818   */\n      iszero\n      tag_145\n      jumpi\n        /* \"#utility.yul\":1737:1816   */\n      tag_146\n      tag_142\n      jump\t// in\n    tag_146:\n        /* \"#utility.yul\":1699:1818   */\n    tag_145:\n        /* \"#utility.yul\":1885:1886   */\n      0x00\n        /* \"#utility.yul\":1874:1883   */\n      dup5\n        /* \"#utility.yul\":1870:1887   */\n      add\n        /* \"#utility.yul\":1857:1888   */\n      calldataload\n        /* \"#utility.yul\":1915:1933   */\n      0xffffffffffffffff\n        /* \"#utility.yul\":1907:1913   */\n      dup2\n        /* \"#utility.yul\":1904:1934   */\n      gt\n        /* \"#utility.yul\":1901:2018   */\n      iszero\n      tag_147\n      jumpi\n        /* \"#utility.yul\":1937:2016   */\n      tag_148\n      tag_149\n      jump\t// in\n    tag_148:\n        /* \"#utility.yul\":1901:2018   */\n    tag_147:\n        /* \"#utility.yul\":2042:2105   */\n      tag_150\n        /* \"#utility.yul\":2097:2104   */\n      dup7\n        /* \"#utility.yul\":2088:2094   */\n      dup3\n        /* \"#utility.yul\":2077:2086   */\n      dup8\n        /* \"#utility.yul\":2073:2095   */\n      add\n        /* \"#utility.yul\":2042:2105   */\n      tag_129\n      jump\t// in\n    tag_150:\n        /* \"#utility.yul\":2032:2105   */\n      swap4\n      pop\n        /* \"#utility.yul\":1828:2115   */\n      pop\n        /* \"#utility.yul\":2154:2156   */\n      0x20\n        /* \"#utility.yul\":2180:2241   */\n      tag_151\n        /* \"#utility.yul\":2233:2240   */\n      dup7\n        /* \"#utility.yul\":2224:2230   */\n      dup3\n        /* \"#utility.yul\":2213:2222   */\n      dup8\n        /* \"#utility.yul\":2209:2231   */\n      add\n        /* \"#utility.yul\":2180:2241   */\n      tag_125\n      jump\t// in\n    tag_151:\n        /* \"#utility.yul\":2170:2241   */\n      swap3\n      pop\n        /* \"#utility.yul\":2125:2251   */\n      pop\n        /* \"#utility.yul\":2290:2292   */\n      0x40\n        /* \"#utility.yul\":2316:2369   */\n      tag_152\n        /* \"#utility.yul\":2361:2368   */\n      dup7\n        /* \"#utility.yul\":2352:2358   */\n      dup3\n        /* \"#utility.yul\":2341:2350   */\n      dup8\n        /* \"#utility.yul\":2337:2359   */\n      add\n        /* \"#utility.yul\":2316:2369   */\n      tag_135\n      jump\t// in\n    tag_152:\n        /* \"#utility.yul\":2306:2369   */\n      swap2\n      pop\n        /* \"#utility.yul\":2261:2379   */\n      pop\n        /* \"#utility.yul\":1571:2386   */\n      swap3\n      pop\n      swap3\n      pop\n      swap3\n      jump\t// out\n        /* \"#utility.yul\":2392:2721   */\n    tag_54:\n        /* \"#utility.yul\":2451:2457   */\n      0x00\n        /* \"#utility.yul\":2500:2502   */\n      0x20\n        /* \"#utility.yul\":2488:2497   */\n      dup3\n        /* \"#utility.yul\":2479:2486   */\n      dup5\n        /* \"#utility.yul\":2475:2498   */\n      sub\n        /* \"#utility.yul\":2471:2503   */\n      slt\n        /* \"#utility.yul\":2468:2587   */\n      iszero\n      tag_154\n      jumpi\n        /* \"#utility.yul\":2506:2585   */\n      tag_155\n      tag_142\n      jump\t// in\n    tag_155:\n        /* \"#utility.yul\":2468:2587   */\n    tag_154:\n        /* \"#utility.yul\":2626:2627   */\n      0x00\n        /* \"#utility.yul\":2651:2704   */\n      tag_156\n        /* \"#utility.yul\":2696:2703   */\n      dup5\n        /* \"#utility.yul\":2687:2693   */\n      dup3\n        /* \"#utility.yul\":2676:2685   */\n      dup6\n        /* \"#utility.yul\":2672:2694   */\n      add\n        /* \"#utility.yul\":2651:2704   */\n      tag_135\n      jump\t// in\n    tag_156:\n        /* \"#utility.yul\":2641:2704   */\n      swap2\n      pop\n        /* \"#utility.yul\":2597:2714   */\n      pop\n        /* \"#utility.yul\":2392:2721   */\n      swap3\n      swap2\n      pop\n      pop\n      jump\t// out\n        /* \"#utility.yul\":2727:2869   */\n    tag_157:\n        /* \"#utility.yul\":2830:2862   */\n      tag_159\n        /* \"#utility.yul\":2856:2861   */\n      dup2\n        /* \"#utility.yul\":2830:2862   */\n      tag_160\n      jump\t// in\n    tag_159:\n        /* \"#utility.yul\":2825:2828   */\n      dup3\n        /* \"#utility.yul\":2818:2863   */\n      mstore\n        /* \"#utility.yul\":2727:2869   */\n      pop\n      pop\n      jump\t// out\n        /* \"#utility.yul\":2875:2993   */\n    tag_161:\n        /* \"#utility.yul\":2962:2986   */\n      tag_163\n        /* \"#utility.yul\":2980:2985   */\n      dup2\n        /* \"#utility.yul\":2962:2986   */\n      tag_164\n      jump\t// in\n    tag_163:\n        /* \"#utility.yul\":2957:2960   */\n      dup3\n        /* \"#utility.yul\":2950:2987   */\n      mstore\n        /* \"#utility.yul\":2875:2993   */\n      pop\n      pop\n      jump\t// out\n        /* \"#utility.yul\":2999:3108   */\n    tag_165:\n        /* \"#utility.yul\":3080:3101   */\n      tag_167\n        /* \"#utility.yul\":3095:3100   */\n      dup2\n        /* \"#utility.yul\":3080:3101   */\n      tag_168\n      jump\t// in\n    tag_167:\n        /* \"#utility.yul\":3075:3078   */\n      dup3\n        /* \"#utility.yul\":3068:3102   */\n      mstore\n        /* \"#utility.yul\":2999:3108   */\n      pop\n      pop\n      jump\t// out\n        /* \"#utility.yul\":3114:3478   */\n    tag_169:\n        /* \"#utility.yul\":3202:3205   */\n      0x00\n        /* \"#utility.yul\":3230:3269   */\n      tag_171\n        /* \"#utility.yul\":3263:3268   */\n      dup3\n        /* \"#utility.yul\":3230:3269   */\n      tag_172\n      jump\t// in\n    tag_171:\n        /* \"#utility.yul\":3285:3356   */\n      tag_173\n        /* \"#utility.yul\":3349:3355   */\n      dup2\n        /* \"#utility.yul\":3344:3347   */\n      dup6\n        /* \"#utility.yul\":3285:3356   */\n      tag_174\n      jump\t// in\n    tag_173:\n        /* \"#utility.yul\":3278:3356   */\n      swap4\n      pop\n        /* \"#utility.yul\":3365:3417   */\n      tag_175\n        /* \"#utility.yul\":3410:3416   */\n      dup2\n        /* \"#utility.yul\":3405:3408   */\n      dup6\n        /* \"#utility.yul\":3398:3402   */\n      0x20\n        /* \"#utility.yul\":3391:3396   */\n      dup7\n        /* \"#utility.yul\":3387:3403   */\n      add\n        /* \"#utility.yul\":3365:3417   */\n      tag_176\n      jump\t// in\n    tag_175:\n        /* \"#utility.yul\":3442:3471   */\n      tag_177\n        /* \"#utility.yul\":3464:3470   */\n      dup2\n        /* \"#utility.yul\":3442:3471   */\n      tag_178\n      jump\t// in\n    tag_177:\n        /* \"#utility.yul\":3437:3440   */\n      dup5\n        /* \"#utility.yul\":3433:3472   */\n      add\n        /* \"#utility.yul\":3426:3472   */\n      swap2\n      pop\n        /* \"#utility.yul\":3206:3478   */\n      pop\n        /* \"#utility.yul\":3114:3478   */\n      swap3\n      swap2\n      pop\n      pop\n      jump\t// out\n        /* \"#utility.yul\":3484:3850   */\n    tag_179:\n        /* \"#utility.yul\":3626:3629   */\n      0x00\n        /* \"#utility.yul\":3647:3714   */\n      tag_181\n        /* \"#utility.yul\":3711:3713   */\n      0x24\n        /* \"#utility.yul\":3706:3709   */\n      dup4\n        /* \"#utility.yul\":3647:3714   */\n      tag_174\n      jump\t// in\n    tag_181:\n        /* \"#utility.yul\":3640:3714   */\n      swap2\n      pop\n        /* \"#utility.yul\":3723:3816   */\n      tag_182\n        /* \"#utility.yul\":3812:3815   */\n      dup3\n        /* \"#utility.yul\":3723:3816   */\n      tag_183\n      jump\t// in\n    tag_182:\n        /* \"#utility.yul\":3841:3843   */\n      0x40\n        /* \"#utility.yul\":3836:3839   */\n      dup3\n        /* \"#utility.yul\":3832:3844   */\n      add\n        /* \"#utility.yul\":3825:3844   */\n      swap1\n      pop\n        /* \"#utility.yul\":3484:3850   */\n      swap2\n      swap1\n      pop\n      jump\t// out\n        /* \"#utility.yul\":3856:4222   */\n    tag_184:\n        /* \"#utility.yul\":3998:4001   */\n      0x00\n        /* \"#utility.yul\":4019:4086   */\n      tag_186\n        /* \"#utility.yul\":4083:4085   */\n      0x18\n        /* \"#utility.yul\":4078:4081   */\n      dup4\n        /* \"#utility.yul\":4019:4086   */\n      tag_174\n      jump\t// in\n    tag_186:\n        /* \"#utility.yul\":4012:4086   */\n      swap2\n      pop\n        /* \"#utility.yul\":4095:4188   */\n      tag_187\n        /* \"#utility.yul\":4184:4187   */\n      dup3\n        /* \"#utility.yul\":4095:4188   */\n      tag_188\n      jump\t// in\n    tag_187:\n        /* \"#utility.yul\":4213:4215   */\n      0x20\n        /* \"#utility.yul\":4208:4211   */\n      dup3\n        /* \"#utility.yul\":4204:4216   */\n      add\n        /* \"#utility.yul\":4197:4216   */\n      swap1\n      pop\n        /* \"#utility.yul\":3856:4222   */\n      swap2\n      swap1\n      pop\n      jump\t// out\n        /* \"#utility.yul\":4228:4594   */\n    tag_189:\n        /* \"#utility.yul\":4370:4373   */\n      0x00\n        /* \"#utility.yul\":4391:4458   */\n      tag_191\n        /* \"#utility.yul\":4455:4457   */\n      0x28\n        /* \"#utility.yul\":4450:4453   */\n      dup4\n        /* \"#utility.yul\":4391:4458   */\n      tag_174\n      jump\t// in\n    tag_191:\n        /* \"#utility.yul\":4384:4458   */\n      swap2\n      pop\n        /* \"#utility.yul\":4467:4560   */\n      tag_192\n        /* \"#utility.yul\":4556:4559   */\n      dup3\n        /* \"#utility.yul\":4467:4560   */\n      tag_193\n      jump\t// in\n    tag_192:\n        /* \"#utility.yul\":4585:4587   */\n      0x40\n        /* \"#utility.yul\":4580:4583   */\n      dup3\n        /* \"#utility.yul\":4576:4588   */\n      add\n        /* \"#utility.yul\":4569:4588   */\n      swap1\n      pop\n        /* \"#utility.yul\":4228:4594   */\n      swap2\n      swap1\n      pop\n      jump\t// out\n        /* \"#utility.yul\":4600:4966   */\n    tag_194:\n        /* \"#utility.yul\":4742:4745   */\n      0x00\n        /* \"#utility.yul\":4763:4830   */\n      tag_196\n        /* \"#utility.yul\":4827:4829   */\n      0x26\n        /* \"#utility.yul\":4822:4825   */\n      dup4\n        /* \"#utility.yul\":4763:4830   */\n      tag_174\n      jump\t// in\n    tag_196:\n        /* \"#utility.yul\":4756:4830   */\n      swap2\n      pop\n        /* \"#utility.yul\":4839:4932   */\n      tag_197\n        /* \"#utility.yul\":4928:4931   */\n      dup3\n        /* \"#utility.yul\":4839:4932   */\n      tag_198\n      jump\t// in\n    tag_197:\n        /* \"#utility.yul\":4957:4959   */\n      0x40\n        /* \"#utility.yul\":4952:4955   */\n      dup3\n        /* \"#utility.yul\":4948:4960   */\n      add\n        /* \"#utility.yul\":4941:4960   */\n      swap1\n      pop\n        /* \"#utility.yul\":4600:4966   */\n      swap2\n      swap1\n      pop\n      jump\t// out\n        /* \"#utility.yul\":4972:5090   */\n    tag_199:\n        /* \"#utility.yul\":5059:5083   */\n      tag_201\n        /* \"#utility.yul\":5077:5082   */\n      dup2\n        /* \"#utility.yul\":5059:5083   */\n      tag_202\n      jump\t// in\n    tag_201:\n        /* \"#utility.yul\":5054:5057   */\n      dup3\n        /* \"#utility.yul\":5047:5084   */\n      mstore\n        /* \"#utility.yul\":4972:5090   */\n      pop\n      pop\n      jump\t// out\n        /* \"#utility.yul\":5096:5318   */\n    tag_39:\n        /* \"#utility.yul\":5189:5193   */\n      0x00\n        /* \"#utility.yul\":5227:5229   */\n      0x20\n        /* \"#utility.yul\":5216:5225   */\n      dup3\n        /* \"#utility.yul\":5212:5230   */\n      add\n        /* \"#utility.yul\":5204:5230   */\n      swap1\n      pop\n        /* \"#utility.yul\":5240:5311   */\n      tag_204\n        /* \"#utility.yul\":5308:5309   */\n      0x00\n        /* \"#utility.yul\":5297:5306   */\n      dup4\n        /* \"#utility.yul\":5293:5310   */\n      add\n        /* \"#utility.yul\":5284:5290   */\n      dup5\n        /* \"#utility.yul\":5240:5311   */\n      tag_161\n      jump\t// in\n    tag_204:\n        /* \"#utility.yul\":5096:5318   */\n      swap3\n      swap2\n      pop\n      pop\n      jump\t// out\n        /* \"#utility.yul\":5324:6099   */\n    tag_57:\n        /* \"#utility.yul\":5559:5563   */\n      0x00\n        /* \"#utility.yul\":5597:5600   */\n      0xa0\n        /* \"#utility.yul\":5586:5595   */\n      dup3\n        /* \"#utility.yul\":5582:5601   */\n      add\n        /* \"#utility.yul\":5574:5601   */\n      swap1\n      pop\n        /* \"#utility.yul\":5647:5656   */\n      dup2\n        /* \"#utility.yul\":5641:5645   */\n      dup2\n        /* \"#utility.yul\":5637:5657   */\n      sub\n        /* \"#utility.yul\":5633:5634   */\n      0x00\n        /* \"#utility.yul\":5622:5631   */\n      dup4\n        /* \"#utility.yul\":5618:5635   */\n      add\n        /* \"#utility.yul\":5611:5658   */\n      mstore\n        /* \"#utility.yul\":5675:5753   */\n      tag_206\n        /* \"#utility.yul\":5748:5752   */\n      dup2\n        /* \"#utility.yul\":5739:5745   */\n      dup9\n        /* \"#utility.yul\":5675:5753   */\n      tag_169\n      jump\t// in\n    tag_206:\n        /* \"#utility.yul\":5667:5753   */\n      swap1\n      pop\n        /* \"#utility.yul\":5763:5835   */\n      tag_207\n        /* \"#utility.yul\":5831:5833   */\n      0x20\n        /* \"#utility.yul\":5820:5829   */\n      dup4\n        /* \"#utility.yul\":5816:5834   */\n      add\n        /* \"#utility.yul\":5807:5813   */\n      dup8\n        /* \"#utility.yul\":5763:5835   */\n      tag_199\n      jump\t// in\n    tag_207:\n        /* \"#utility.yul\":5845:5933   */\n      tag_208\n        /* \"#utility.yul\":5929:5931   */\n      0x40\n        /* \"#utility.yul\":5918:5927   */\n      dup4\n        /* \"#utility.yul\":5914:5932   */\n      add\n        /* \"#utility.yul\":5905:5911   */\n      dup7\n        /* \"#utility.yul\":5845:5933   */\n      tag_157\n      jump\t// in\n    tag_208:\n        /* \"#utility.yul\":5943:6009   */\n      tag_209\n        /* \"#utility.yul\":6005:6007   */\n      0x60\n        /* \"#utility.yul\":5994:6003   */\n      dup4\n        /* \"#utility.yul\":5990:6008   */\n      add\n        /* \"#utility.yul\":5981:5987   */\n      dup6\n        /* \"#utility.yul\":5943:6009   */\n      tag_165\n      jump\t// in\n    tag_209:\n        /* \"#utility.yul\":6019:6092   */\n      tag_210\n        /* \"#utility.yul\":6087:6090   */\n      0x80\n        /* \"#utility.yul\":6076:6085   */\n      dup4\n        /* \"#utility.yul\":6072:6091   */\n      add\n        /* \"#utility.yul\":6063:6069   */\n      dup5\n        /* \"#utility.yul\":6019:6092   */\n      tag_199\n      jump\t// in\n    tag_210:\n        /* \"#utility.yul\":5324:6099   */\n      swap7\n      swap6\n      pop\n      pop\n      pop\n      pop\n      pop\n      pop\n      jump\t// out\n        /* \"#utility.yul\":6105:6524   */\n    tag_77:\n        /* \"#utility.yul\":6271:6275   */\n      0x00\n        /* \"#utility.yul\":6309:6311   */\n      0x20\n        /* \"#utility.yul\":6298:6307   */\n      dup3\n        /* \"#utility.yul\":6294:6312   */\n      add\n        /* \"#utility.yul\":6286:6312   */\n      swap1\n      pop\n        /* \"#utility.yul\":6358:6367   */\n      dup2\n        /* \"#utility.yul\":6352:6356   */\n      dup2\n        /* \"#utility.yul\":6348:6368   */\n      sub\n        /* \"#utility.yul\":6344:6345   */\n      0x00\n        /* \"#utility.yul\":6333:6342   */\n      dup4\n        /* \"#utility.yul\":6329:6346   */\n      add\n        /* \"#utility.yul\":6322:6369   */\n      mstore\n        /* \"#utility.yul\":6386:6517   */\n      tag_212\n        /* \"#utility.yul\":6512:6516   */\n      dup2\n        /* \"#utility.yul\":6386:6517   */\n      tag_179\n      jump\t// in\n    tag_212:\n        /* \"#utility.yul\":6378:6517   */\n      swap1\n      pop\n        /* \"#utility.yul\":6105:6524   */\n      swap2\n      swap1\n      pop\n      jump\t// out\n        /* \"#utility.yul\":6530:6949   */\n    tag_95:\n        /* \"#utility.yul\":6696:6700   */\n      0x00\n        /* \"#utility.yul\":6734:6736   */\n      0x20\n        /* \"#utility.yul\":6723:6732   */\n      dup3\n        /* \"#utility.yul\":6719:6737   */\n      add\n        /* \"#utility.yul\":6711:6737   */\n      swap1\n      pop\n        /* \"#utility.yul\":6783:6792   */\n      dup2\n        /* \"#utility.yul\":6777:6781   */\n      dup2\n        /* \"#utility.yul\":6773:6793   */\n      sub\n        /* \"#utility.yul\":6769:6770   */\n      0x00\n        /* \"#utility.yul\":6758:6767   */\n      dup4\n        /* \"#utility.yul\":6754:6771   */\n      add\n        /* \"#utility.yul\":6747:6794   */\n      mstore\n        /* \"#utility.yul\":6811:6942   */\n      tag_214\n        /* \"#utility.yul\":6937:6941   */\n      dup2\n        /* \"#utility.yul\":6811:6942   */\n      tag_184\n      jump\t// in\n    tag_214:\n        /* \"#utility.yul\":6803:6942   */\n      swap1\n      pop\n        /* \"#utility.yul\":6530:6949   */\n      swap2\n      swap1\n      pop\n      jump\t// out\n        /* \"#utility.yul\":6955:7374   */\n    tag_80:\n        /* \"#utility.yul\":7121:7125   */\n      0x00\n        /* \"#utility.yul\":7159:7161   */\n      0x20\n        /* \"#utility.yul\":7148:7157   */\n      dup3\n        /* \"#utility.yul\":7144:7162   */\n      add\n        /* \"#utility.yul\":7136:7162   */\n      swap1\n      pop\n        /* \"#utility.yul\":7208:7217   */\n      dup2\n        /* \"#utility.yul\":7202:7206   */\n      dup2\n        /* \"#utility.yul\":7198:7218   */\n      sub\n        /* \"#utility.yul\":7194:7195   */\n      0x00\n        /* \"#utility.yul\":7183:7192   */\n      dup4\n        /* \"#utility.yul\":7179:7196   */\n      add\n        /* \"#utility.yul\":7172:7219   */\n      mstore\n        /* \"#utility.yul\":7236:7367   */\n      tag_216\n        /* \"#utility.yul\":7362:7366   */\n      dup2\n        /* \"#utility.yul\":7236:7367   */\n      tag_189\n      jump\t// in\n    tag_216:\n        /* \"#utility.yul\":7228:7367   */\n      swap1\n      pop\n        /* \"#utility.yul\":6955:7374   */\n      swap2\n      swap1\n      pop\n      jump\t// out\n        /* \"#utility.yul\":7380:7799   */\n    tag_92:\n        /* \"#utility.yul\":7546:7550   */\n      0x00\n        /* \"#utility.yul\":7584:7586   */\n      0x20\n        /* \"#utility.yul\":7573:7582   */\n      dup3\n        /* \"#utility.yul\":7569:7587   */\n      add\n        /* \"#utility.yul\":7561:7587   */\n      swap1\n      pop\n        /* \"#utility.yul\":7633:7642   */\n      dup2\n        /* \"#utility.yul\":7627:7631   */\n      dup2\n        /* \"#utility.yul\":7623:7643   */\n      sub\n        /* \"#utility.yul\":7619:7620   */\n      0x00\n        /* \"#utility.yul\":7608:7617   */\n      dup4\n        /* \"#utility.yul\":7604:7621   */\n      add\n        /* \"#utility.yul\":7597:7644   */\n      mstore\n        /* \"#utility.yul\":7661:7792   */\n      tag_218\n        /* \"#utility.yul\":7787:7791   */\n      dup2\n        /* \"#utility.yul\":7661:7792   */\n      tag_194\n      jump\t// in\n    tag_218:\n        /* \"#utility.yul\":7653:7792   */\n      swap1\n      pop\n        /* \"#utility.yul\":7380:7799   */\n      swap2\n      swap1\n      pop\n      jump\t// out\n        /* \"#utility.yul\":7805:8027   */\n    tag_30:\n        /* \"#utility.yul\":7898:7902   */\n      0x00\n        /* \"#utility.yul\":7936:7938   */\n      0x20\n        /* \"#utility.yul\":7925:7934   */\n      dup3\n        /* \"#utility.yul\":7921:7939   */\n      add\n        /* \"#utility.yul\":7913:7939   */\n      swap1\n      pop\n        /* \"#utility.yul\":7949:8020   */\n      tag_220\n        /* \"#utility.yul\":8017:8018   */\n      0x00\n        /* \"#utility.yul\":8006:8015   */\n      dup4\n        /* \"#utility.yul\":8002:8019   */\n      add\n        /* \"#utility.yul\":7993:7999   */\n      dup5\n        /* \"#utility.yul\":7949:8020   */\n      tag_199\n      jump\t// in\n    tag_220:\n        /* \"#utility.yul\":7805:8027   */\n      swap3\n      swap2\n      pop\n      pop\n      jump\t// out\n        /* \"#utility.yul\":8033:8162   */\n    tag_115:\n        /* \"#utility.yul\":8067:8073   */\n      0x00\n        /* \"#utility.yul\":8094:8114   */\n      tag_222\n      tag_223\n      jump\t// in\n    tag_222:\n        /* \"#utility.yul\":8084:8114   */\n      swap1\n      pop\n        /* \"#utility.yul\":8123:8156   */\n      tag_224\n        /* \"#utility.yul\":8151:8155   */\n      dup3\n        /* \"#utility.yul\":8143:8149   */\n      dup3\n        /* \"#utility.yul\":8123:8156   */\n      tag_225\n      jump\t// in\n    tag_224:\n        /* \"#utility.yul\":8033:8162   */\n      swap2\n      swap1\n      pop\n      jump\t// out\n        /* \"#utility.yul\":8168:8243   */\n    tag_223:\n        /* \"#utility.yul\":8201:8207   */\n      0x00\n        /* \"#utility.yul\":8234:8236   */\n      0x40\n        /* \"#utility.yul\":8228:8237   */\n      mload\n        /* \"#utility.yul\":8218:8237   */\n      swap1\n      pop\n        /* \"#utility.yul\":8168:8243   */\n      swap1\n      jump\t// out\n        /* \"#utility.yul\":8249:8557   */\n    tag_114:\n        /* \"#utility.yul\":8311:8315   */\n      0x00\n        /* \"#utility.yul\":8401:8419   */\n      0xffffffffffffffff\n        /* \"#utility.yul\":8393:8399   */\n      dup3\n        /* \"#utility.yul\":8390:8420   */\n      gt\n        /* \"#utility.yul\":8387:8443   */\n      iszero\n      tag_228\n      jumpi\n        /* \"#utility.yul\":8423:8441   */\n      tag_229\n      tag_230\n      jump\t// in\n    tag_229:\n        /* \"#utility.yul\":8387:8443   */\n    tag_228:\n        /* \"#utility.yul\":8461:8490   */\n      tag_231\n        /* \"#utility.yul\":8483:8489   */\n      dup3\n        /* \"#utility.yul\":8461:8490   */\n      tag_178\n      jump\t// in\n    tag_231:\n        /* \"#utility.yul\":8453:8490   */\n      swap1\n      pop\n        /* \"#utility.yul\":8545:8549   */\n      0x20\n        /* \"#utility.yul\":8539:8543   */\n      dup2\n        /* \"#utility.yul\":8535:8550   */\n      add\n        /* \"#utility.yul\":8527:8550   */\n      swap1\n      pop\n        /* \"#utility.yul\":8249:8557   */\n      swap2\n      swap1\n      pop\n      jump\t// out\n        /* \"#utility.yul\":8563:8662   */\n    tag_172:\n        /* \"#utility.yul\":8615:8621   */\n      0x00\n        /* \"#utility.yul\":8649:8654   */\n      dup2\n        /* \"#utility.yul\":8643:8655   */\n      mload\n        /* \"#utility.yul\":8633:8655   */\n      swap1\n      pop\n        /* \"#utility.yul\":8563:8662   */\n      swap2\n      swap1\n      pop\n      jump\t// out\n        /* \"#utility.yul\":8668:8837   */\n    tag_174:\n        /* \"#utility.yul\":8752:8763   */\n      0x00\n        /* \"#utility.yul\":8786:8792   */\n      dup3\n        /* \"#utility.yul\":8781:8784   */\n      dup3\n        /* \"#utility.yul\":8774:8793   */\n      mstore\n        /* \"#utility.yul\":8826:8830   */\n      0x20\n        /* \"#utility.yul\":8821:8824   */\n      dup3\n        /* \"#utility.yul\":8817:8831   */\n      add\n        /* \"#utility.yul\":8802:8831   */\n      swap1\n      pop\n        /* \"#utility.yul\":8668:8837   */\n      swap3\n      swap2\n      pop\n      pop\n      jump\t// out\n        /* \"#utility.yul\":8843:9148   */\n    tag_85:\n        /* \"#utility.yul\":8883:8886   */\n      0x00\n        /* \"#utility.yul\":8902:8922   */\n      tag_235\n        /* \"#utility.yul\":8920:8921   */\n      dup3\n        /* \"#utility.yul\":8902:8922   */\n      tag_202\n      jump\t// in\n    tag_235:\n        /* \"#utility.yul\":8897:8922   */\n      swap2\n      pop\n        /* \"#utility.yul\":8936:8956   */\n      tag_236\n        /* \"#utility.yul\":8954:8955   */\n      dup4\n        /* \"#utility.yul\":8936:8956   */\n      tag_202\n      jump\t// in\n    tag_236:\n        /* \"#utility.yul\":8931:8956   */\n      swap3\n      pop\n        /* \"#utility.yul\":9090:9091   */\n      dup3\n        /* \"#utility.yul\":9022:9088   */\n      0xffffffffffffffffffffffffffffffffffffffffffffffffffffffffffffffff\n        /* \"#utility.yul\":9018:9092   */\n      sub\n        /* \"#utility.yul\":9015:9016   */\n      dup3\n        /* \"#utility.yul\":9012:9093   */\n      gt\n        /* \"#utility.yul\":9009:9116   */\n      iszero\n      tag_237\n      jumpi\n        /* \"#utility.yul\":9096:9114   */\n      tag_238\n      tag_239\n      jump\t// in\n    tag_238:\n        /* \"#utility.yul\":9009:9116   */\n    tag_237:\n        /* \"#utility.yul\":9140:9141   */\n      dup3\n        /* \"#utility.yul\":9137:9138   */\n      dup3\n        /* \"#utility.yul\":9133:9142   */\n      add\n        /* \"#utility.yul\":9126:9142   */\n      swap1\n      pop\n        /* \"#utility.yul\":8843:9148   */\n      swap3\n      swap2\n      pop\n      pop\n      jump\t// out\n        /* \"#utility.yul\":9154:9345   */\n    tag_99:\n        /* \"#utility.yul\":9194:9198   */\n      0x00\n        /* \"#utility.yul\":9214:9234   */\n      tag_241\n        /* \"#utility.yul\":9232:9233   */\n      dup3\n        /* \"#utility.yul\":9214:9234   */\n      tag_202\n      jump\t// in\n    tag_241:\n        /* \"#utility.yul\":9209:9234   */\n      swap2\n      pop\n        /* \"#utility.yul\":9248:9268   */\n      tag_242\n        /* \"#utility.yul\":9266:9267   */\n      dup4\n        /* \"#utility.yul\":9248:9268   */\n      tag_202\n      jump\t// in\n    tag_242:\n        /* \"#utility.yul\":9243:9268   */\n      swap3\n      pop\n        /* \"#utility.yul\":9287:9288   */\n      dup3\n        /* \"#utility.yul\":9284:9285   */\n      dup3\n        /* \"#utility.yul\":9281:9289   */\n      lt\n        /* \"#utility.yul\":9278:9312   */\n      iszero\n      tag_243\n      jumpi\n        /* \"#utility.yul\":9292:9310   */\n      tag_244\n      tag_239\n      jump\t// in\n    tag_244:\n        /* \"#utility.yul\":9278:9312   */\n    tag_243:\n        /* \"#utility.yul\":9337:9338   */\n      dup3\n        /* \"#utility.yul\":9334:9335   */\n      dup3\n        /* \"#utility.yul\":9330:9339   */\n      sub\n        /* \"#utility.yul\":9322:9339   */\n      swap1\n      pop\n        /* \"#utility.yul\":9154:9345   */\n      swap3\n      swap2\n      pop\n      pop\n      jump\t// out\n        /* \"#utility.yul\":9351:9447   */\n    tag_164:\n        /* \"#utility.yul\":9388:9395   */\n      0x00\n        /* \"#utility.yul\":9417:9441   */\n      tag_246\n        /* \"#utility.yul\":9435:9440   */\n      dup3\n        /* \"#utility.yul\":9417:9441   */\n      tag_247\n      jump\t// in\n    tag_246:\n        /* \"#utility.yul\":9406:9441   */\n      swap1\n      pop\n        /* \"#utility.yul\":9351:9447   */\n      swap2\n      swap1\n      pop\n      jump\t// out\n        /* \"#utility.yul\":9453:9557   */\n    tag_160:\n        /* \"#utility.yul\":9498:9505   */\n      0x00\n        /* \"#utility.yul\":9527:9551   */\n      tag_249\n        /* \"#utility.yul\":9545:9550   */\n      dup3\n        /* \"#utility.yul\":9527:9551   */\n      tag_247\n      jump\t// in\n    tag_249:\n        /* \"#utility.yul\":9516:9551   */\n      swap1\n      pop\n        /* \"#utility.yul\":9453:9557   */\n      swap2\n      swap1\n      pop\n      jump\t// out\n        /* \"#utility.yul\":9563:9653   */\n    tag_168:\n        /* \"#utility.yul\":9597:9604   */\n      0x00\n        /* \"#utility.yul\":9640:9645   */\n      dup2\n        /* \"#utility.yul\":9633:9646   */\n      iszero\n        /* \"#utility.yul\":9626:9647   */\n      iszero\n        /* \"#utility.yul\":9615:9647   */\n      swap1\n      pop\n        /* \"#utility.yul\":9563:9653   */\n      swap2\n      swap1\n      pop\n      jump\t// out\n        /* \"#utility.yul\":9659:9785   */\n    tag_247:\n        /* \"#utility.yul\":9696:9703   */\n      0x00\n        /* \"#utility.yul\":9736:9778   */\n      0xffffffffffffffffffffffffffffffffffffffff\n        /* \"#utility.yul\":9729:9734   */\n      dup3\n        /* \"#utility.yul\":9725:9779   */\n      and\n        /* \"#utility.yul\":9714:9779   */\n      swap1\n      pop\n        /* \"#utility.yul\":9659:9785   */\n      swap2\n      swap1\n      pop\n      jump\t// out\n        /* \"#utility.yul\":9791:9868   */\n    tag_202:\n        /* \"#utility.yul\":9828:9835   */\n      0x00\n        /* \"#utility.yul\":9857:9862   */\n      dup2\n        /* \"#utility.yul\":9846:9862   */\n      swap1\n      pop\n        /* \"#utility.yul\":9791:9868   */\n      swap2\n      swap1\n      pop\n      jump\t// out\n        /* \"#utility.yul\":9874:10028   */\n    tag_120:\n        /* \"#utility.yul\":9958:9964   */\n      dup3\n        /* \"#utility.yul\":9953:9956   */\n      dup2\n        /* \"#utility.yul\":9948:9951   */\n      dup4\n        /* \"#utility.yul\":9935:9965   */\n      calldatacopy\n        /* \"#utility.yul\":10020:10021   */\n      0x00\n        /* \"#utility.yul\":10011:10017   */\n      dup4\n        /* \"#utility.yul\":10006:10009   */\n      dup4\n        /* \"#utility.yul\":10002:10018   */\n      add\n        /* \"#utility.yul\":9995:10022   */\n      mstore\n        /* \"#utility.yul\":9874:10028   */\n      pop\n      pop\n      pop\n      jump\t// out\n        /* \"#utility.yul\":10034:10341   */\n    tag_176:\n        /* \"#utility.yul\":10102:10103   */\n      0x00\n        /* \"#utility.yul\":10112:10225   */\n    tag_255:\n        /* \"#utility.yul\":10126:10132   */\n      dup4\n        /* \"#utility.yul\":10123:10124   */\n      dup2\n        /* \"#utility.yul\":10120:10133   */\n      lt\n        /* \"#utility.yul\":10112:10225   */\n      iszero\n      tag_257\n      jumpi\n        /* \"#utility.yul\":10211:10212   */\n      dup1\n        /* \"#utility.yul\":10206:10209   */\n      dup3\n        /* \"#utility.yul\":10202:10213   */\n      add\n        /* \"#utility.yul\":10196:10214   */\n      mload\n        /* \"#utility.yul\":10192:10193   */\n      dup2\n        /* \"#utility.yul\":10187:10190   */\n      dup5\n        /* \"#utility.yul\":10183:10194   */\n      add\n        /* \"#utility.yul\":10176:10215   */\n      mstore\n        /* \"#utility.yul\":10148:10150   */\n      0x20\n        /* \"#utility.yul\":10145:10146   */\n      dup2\n        /* \"#utility.yul\":10141:10151   */\n      add\n        /* \"#utility.yul\":10136:10151   */\n      swap1\n      pop\n        /* \"#utility.yul\":10112:10225   */\n      jump(tag_255)\n    tag_257:\n        /* \"#utility.yul\":10243:10249   */\n      dup4\n        /* \"#utility.yul\":10240:10241   */\n      dup2\n        /* \"#utility.yul\":10237:10250   */\n      gt\n        /* \"#utility.yul\":10234:10335   */\n      iszero\n      tag_258\n      jumpi\n        /* \"#utility.yul\":10323:10324   */\n      0x00\n        /* \"#utility.yul\":10314:10320   */\n      dup5\n        /* \"#utility.yul\":10309:10312   */\n      dup5\n        /* \"#utility.yul\":10305:10321   */\n      add\n        /* \"#utility.yul\":10298:10325   */\n      mstore\n        /* \"#utility.yul\":10234:10335   */\n    tag_258:\n        /* \"#utility.yul\":10083:10341   */\n      pop\n        /* \"#utility.yul\":10034:10341   */\n      pop\n      pop\n      pop\n      jump\t// out\n        /* \"#utility.yul\":10347:10518   */\n    tag_101:\n        /* \"#utility.yul\":10386:10389   */\n      0x00\n        /* \"#utility.yul\":10409:10433   */\n      tag_260\n        /* \"#utility.yul\":10427:10432   */\n      dup3\n        /* \"#utility.yul\":10409:10433   */\n      tag_202\n      jump\t// in\n    tag_260:\n        /* \"#utility.yul\":10400:10433   */\n      swap2\n      pop\n        /* \"#utility.yul\":10455:10459   */\n      0x00\n        /* \"#utility.yul\":10448:10453   */\n      dup3\n        /* \"#utility.yul\":10445:10460   */\n      eq\n        /* \"#utility.yul\":10442:10483   */\n      iszero\n      tag_261\n      jumpi\n        /* \"#utility.yul\":10463:10481   */\n      tag_262\n      tag_239\n      jump\t// in\n    tag_262:\n        /* \"#utility.yul\":10442:10483   */\n    tag_261:\n        /* \"#utility.yul\":10510:10511   */\n      0x01\n        /* \"#utility.yul\":10503:10508   */\n      dup3\n        /* \"#utility.yul\":10499:10512   */\n      sub\n        /* \"#utility.yul\":10492:10512   */\n      swap1\n      pop\n        /* \"#utility.yul\":10347:10518   */\n      swap2\n      swap1\n      pop\n      jump\t// out\n        /* \"#utility.yul\":10524:10844   */\n    tag_104:\n        /* \"#utility.yul\":10568:10574   */\n      0x00\n        /* \"#utility.yul\":10605:10606   */\n      0x02\n        /* \"#utility.yul\":10599:10603   */\n      dup3\n        /* \"#utility.yul\":10595:10607   */\n      div\n        /* \"#utility.yul\":10585:10607   */\n      swap1\n      pop\n        /* \"#utility.yul\":10652:10653   */\n      0x01\n        /* \"#utility.yul\":10646:10650   */\n      dup3\n        /* \"#utility.yul\":10642:10654   */\n      and\n        /* \"#utility.yul\":10673:10691   */\n      dup1\n        /* \"#utility.yul\":10663:10744   */\n      tag_264\n      jumpi\n        /* \"#utility.yul\":10729:10733   */\n      0x7f\n        /* \"#utility.yul\":10721:10727   */\n      dup3\n        /* \"#utility.yul\":10717:10734   */\n      and\n        /* \"#utility.yul\":10707:10734   */\n      swap2\n      pop\n        /* \"#utility.yul\":10663:10744   */\n    tag_264:\n        /* \"#utility.yul\":10791:10793   */\n      0x20\n        /* \"#utility.yul\":10783:10789   */\n      dup3\n        /* \"#utility.yul\":10780:10794   */\n      lt\n        /* \"#utility.yul\":10760:10778   */\n      dup2\n        /* \"#utility.yul\":10757:10795   */\n      eq\n        /* \"#utility.yul\":10754:10838   */\n      iszero\n      tag_265\n      jumpi\n        /* \"#utility.yul\":10810:10828   */\n      tag_266\n      tag_267\n      jump\t// in\n    tag_266:\n        /* \"#utility.yul\":10754:10838   */\n    tag_265:\n        /* \"#utility.yul\":10575:10844   */\n      pop\n        /* \"#utility.yul\":10524:10844   */\n      swap2\n      swap1\n      pop\n      jump\t// out\n        /* \"#utility.yul\":10850:11131   */\n    tag_225:\n        /* \"#utility.yul\":10933:10960   */\n      tag_269\n        /* \"#utility.yul\":10955:10959   */\n      dup3\n        /* \"#utility.yul\":10933:10960   */\n      tag_178\n      jump\t// in\n    tag_269:\n        /* \"#utility.yul\":10925:10931   */\n      dup2\n        /* \"#utility.yul\":10921:10961   */\n      add\n        /* \"#utility.yul\":11063:11069   */\n      dup2\n        /* \"#utility.yul\":11051:11061   */\n      dup2\n        /* \"#utility.yul\":11048:11070   */\n      lt\n        /* \"#utility.yul\":11027:11045   */\n      0xffffffffffffffff\n        /* \"#utility.yul\":11015:11025   */\n      dup3\n        /* \"#utility.yul\":11012:11046   */\n      gt\n        /* \"#utility.yul\":11009:11071   */\n      or\n        /* \"#utility.yul\":11006:11094   */\n      iszero\n      tag_270\n      jumpi\n        /* \"#utility.yul\":11074:11092   */\n      tag_271\n      tag_230\n      jump\t// in\n    tag_271:\n        /* \"#utility.yul\":11006:11094   */\n    tag_270:\n        /* \"#utility.yul\":11114:11124   */\n      dup1\n        /* \"#utility.yul\":11110:11112   */\n      0x40\n        /* \"#utility.yul\":11103:11125   */\n      mstore\n        /* \"#utility.yul\":10893:11131   */\n      pop\n        /* \"#utility.yul\":10850:11131   */\n      pop\n      pop\n      jump\t// out\n        /* \"#utility.yul\":11137:11370   */\n    tag_83:\n        /* \"#utility.yul\":11176:11179   */\n      0x00\n        /* \"#utility.yul\":11199:11223   */\n      tag_273\n        /* \"#utility.yul\":11217:11222   */\n      dup3\n        /* \"#utility.yul\":11199:11223   */\n      tag_202\n      jump\t// in\n    tag_273:\n        /* \"#utility.yul\":11190:11223   */\n      swap2\n      pop\n        /* \"#utility.yul\":11245:11311   */\n      0xffffffffffffffffffffffffffffffffffffffffffffffffffffffffffffffff\n        /* \"#utility.yul\":11238:11243   */\n      dup3\n        /* \"#utility.yul\":11235:11312   */\n      eq\n        /* \"#utility.yul\":11232:11335   */\n      iszero\n      tag_274\n      jumpi\n        /* \"#utility.yul\":11315:11333   */\n      tag_275\n      tag_239\n      jump\t// in\n    tag_275:\n        /* \"#utility.yul\":11232:11335   */\n    tag_274:\n        /* \"#utility.yul\":11362:11363   */\n      0x01\n        /* \"#utility.yul\":11355:11360   */\n      dup3\n        /* \"#utility.yul\":11351:11364   */\n      add\n        /* \"#utility.yul\":11344:11364   */\n      swap1\n      pop\n        /* \"#utility.yul\":11137:11370   */\n      swap2\n      swap1\n      pop\n      jump\t// out\n        /* \"#utility.yul\":11376:11556   */\n    tag_239:\n        /* \"#utility.yul\":11424:11501   */\n      0x4e487b7100000000000000000000000000000000000000000000000000000000\n        /* \"#utility.yul\":11421:11422   */\n      0x00\n        /* \"#utility.yul\":11414:11502   */\n      mstore\n        /* \"#utility.yul\":11521:11525   */\n      0x11\n        /* \"#utility.yul\":11518:11519   */\n      0x04\n        /* \"#utility.yul\":11511:11526   */\n      mstore\n        /* \"#utility.yul\":11545:11549   */\n      0x24\n        /* \"#utility.yul\":11542:11543   */\n      0x00\n        /* \"#utility.yul\":11535:11550   */\n      revert\n        /* \"#utility.yul\":11562:11742   */\n    tag_267:\n        /* \"#utility.yul\":11610:11687   */\n      0x4e487b7100000000000000000000000000000000000000000000000000000000\n        /* \"#utility.yul\":11607:11608   */\n      0x00\n        /* \"#utility.yul\":11600:11688   */\n      mstore\n        /* \"#utility.yul\":11707:11711   */\n      0x22\n        /* \"#utility.yul\":11704:11705   */\n      0x04\n        /* \"#utility.yul\":11697:11712   */\n      mstore\n        /* \"#utility.yul\":11731:11735   */\n      0x24\n        /* \"#utility.yul\":11728:11729   */\n      0x00\n        /* \"#utility.yul\":11721:11736   */\n      revert\n        /* \"#utility.yul\":11748:11928   */\n    tag_230:\n        /* \"#utility.yul\":11796:11873   */\n      0x4e487b7100000000000000000000000000000000000000000000000000000000\n        /* \"#utility.yul\":11793:11794   */\n      0x00\n        /* \"#utility.yul\":11786:11874   */\n      mstore\n        /* \"#utility.yul\":11893:11897   */\n      0x41\n        /* \"#utility.yul\":11890:11891   */\n      0x04\n        /* \"#utility.yul\":11883:11898   */\n      mstore\n        /* \"#utility.yul\":11917:11921   */\n      0x24\n        /* \"#utility.yul\":11914:11915   */\n      0x00\n        /* \"#utility.yul\":11907:11922   */\n      revert\n        /* \"#utility.yul\":11934:12051   */\n    tag_133:\n        /* \"#utility.yul\":12043:12044   */\n      0x00\n        /* \"#utility.yul\":12040:12041   */\n      dup1\n        /* \"#utility.yul\":12033:12045   */\n      revert\n        /* \"#utility.yul\":12057:12174   */\n    tag_118:\n        /* \"#utility.yul\":12166:12167   */\n      0x00\n        /* \"#utility.yul\":12163:12164   */\n      dup1\n        /* \"#utility.yul\":12156:12168   */\n      revert\n        /* \"#utility.yul\":12180:12297   */\n    tag_149:\n        /* \"#utility.yul\":12289:12290   */\n      0x00\n        /* \"#utility.yul\":12286:12287   */\n      dup1\n        /* \"#utility.yul\":12279:12291   */\n      revert\n        /* \"#utility.yul\":12303:12420   */\n    tag_142:\n        /* \"#utility.yul\":12412:12413   */\n      0x00\n        /* \"#utility.yul\":12409:12410   */\n      dup1\n        /* \"#utility.yul\":12402:12414   */\n      revert\n        /* \"#utility.yul\":12426:12528   */\n    tag_178:\n        /* \"#utility.yul\":12467:12473   */\n      0x00\n        /* \"#utility.yul\":12518:12520   */\n      0x1f\n        /* \"#utility.yul\":12514:12521   */\n      not\n        /* \"#utility.yul\":12509:12511   */\n      0x1f\n        /* \"#utility.yul\":12502:12507   */\n      dup4\n        /* \"#utility.yul\":12498:12512   */\n      add\n        /* \"#utility.yul\":12494:12522   */\n      and\n        /* \"#utility.yul\":12484:12522   */\n      swap1\n      pop\n        /* \"#utility.yul\":12426:12528   */\n      swap2\n      swap1\n      pop\n      jump\t// out\n        /* \"#utility.yul\":12534:12757   */\n    tag_183:\n        /* \"#utility.yul\":12674:12708   */\n      0x536f727279212120446561646c696e652068617320616c726561647920706173\n        /* \"#utility.yul\":12670:12671   */\n      0x00\n        /* \"#utility.yul\":12662:12668   */\n      dup3\n        /* \"#utility.yul\":12658:12672   */\n      add\n        /* \"#utility.yul\":12651:12709   */\n      mstore\n        /* \"#utility.yul\":12743:12749   */\n      0x7365642e00000000000000000000000000000000000000000000000000000000\n        /* \"#utility.yul\":12738:12740   */\n      0x20\n        /* \"#utility.yul\":12730:12736   */\n      dup3\n        /* \"#utility.yul\":12726:12741   */\n      add\n        /* \"#utility.yul\":12719:12750   */\n      mstore\n        /* \"#utility.yul\":12534:12757   */\n      pop\n      jump\t// out\n        /* \"#utility.yul\":12763:12937   */\n    tag_188:\n        /* \"#utility.yul\":12903:12929   */\n      0x596f7520686176656e277420636f6e74726962757465642e0000000000000000\n        /* \"#utility.yul\":12899:12900   */\n      0x00\n        /* \"#utility.yul\":12891:12897   */\n      dup3\n        /* \"#utility.yul\":12887:12901   */\n      add\n        /* \"#utility.yul\":12880:12930   */\n      mstore\n        /* \"#utility.yul\":12763:12937   */\n      pop\n      jump\t// out\n        /* \"#utility.yul\":12943:13170   */\n    tag_193:\n        /* \"#utility.yul\":13083:13117   */\n      0x536f727279212120796f75206861766520746f20706179206d696e696d756d20\n        /* \"#utility.yul\":13079:13080   */\n      0x00\n        /* \"#utility.yul\":13071:13077   */\n      dup3\n        /* \"#utility.yul\":13067:13081   */\n      add\n        /* \"#utility.yul\":13060:13118   */\n      mstore\n        /* \"#utility.yul\":13152:13162   */\n      0x313030207765692e000000000000000000000000000000000000000000000000\n        /* \"#utility.yul\":13147:13149   */\n      0x20\n        /* \"#utility.yul\":13139:13145   */\n      dup3\n        /* \"#utility.yul\":13135:13150   */\n      add\n        /* \"#utility.yul\":13128:13163   */\n      mstore\n        /* \"#utility.yul\":12943:13170   */\n      pop\n      jump\t// out\n        /* \"#utility.yul\":13176:13401   */\n    tag_198:\n        /* \"#utility.yul\":13316:13350   */\n      0x536f7272792c20796f7520617265206e6f7420656c696769626c6520666f7220\n        /* \"#utility.yul\":13312:13313   */\n      0x00\n        /* \"#utility.yul\":13304:13310   */\n      dup3\n        /* \"#utility.yul\":13300:13314   */\n      add\n        /* \"#utility.yul\":13293:13351   */\n      mstore\n        /* \"#utility.yul\":13385:13393   */\n      0x726566756e640000000000000000000000000000000000000000000000000000\n        /* \"#utility.yul\":13380:13382   */\n      0x20\n        /* \"#utility.yul\":13372:13378   */\n      dup3\n        /* \"#utility.yul\":13368:13383   */\n      add\n        /* \"#utility.yul\":13361:13394   */\n      mstore\n        /* \"#utility.yul\":13176:13401   */\n      pop\n      jump\t// out\n        /* \"#utility.yul\":13407:13529   */\n    tag_124:\n        /* \"#utility.yul\":13480:13504   */\n      tag_289\n        /* \"#utility.yul\":13498:13503   */\n      dup2\n        /* \"#utility.yul\":13480:13504   */\n      tag_164\n      jump\t// in\n    tag_289:\n        /* \"#utility.yul\":13473:13478   */\n      dup2\n        /* \"#utility.yul\":13470:13505   */\n      eq\n        /* \"#utility.yul\":13460:13523   */\n      tag_290\n      jumpi\n        /* \"#utility.yul\":13519:13520   */\n      0x00\n        /* \"#utility.yul\":13516:13517   */\n      dup1\n        /* \"#utility.yul\":13509:13521   */\n      revert\n        /* \"#utility.yul\":13460:13523   */\n    tag_290:\n        /* \"#utility.yul\":13407:13529   */\n      pop\n      jump\t// out\n        /* \"#utility.yul\":13535:13673   */\n    tag_128:\n        /* \"#utility.yul\":13616:13648   */\n      tag_292\n        /* \"#utility.yul\":13642:13647   */\n      dup2\n        /* \"#utility.yul\":13616:13648   */\n      tag_160\n      jump\t// in\n    tag_292:\n        /* \"#utility.yul\":13609:13614   */\n      dup2\n        /* \"#utility.yul\":13606:13649   */\n      eq\n        /* \"#utility.yul\":13596:13667   */\n      tag_293\n      jumpi\n        /* \"#utility.yul\":13663:13664   */\n      0x00\n        /* \"#utility.yul\":13660:13661   */\n      dup1\n        /* \"#utility.yul\":13653:13665   */\n      revert\n        /* \"#utility.yul\":13596:13667   */\n    tag_293:\n        /* \"#utility.yul\":13535:13673   */\n      pop\n      jump\t// out\n        /* \"#utility.yul\":13679:13801   */\n    tag_138:\n        /* \"#utility.yul\":13752:13776   */\n      tag_295\n        /* \"#utility.yul\":13770:13775   */\n      dup2\n        /* \"#utility.yul\":13752:13776   */\n      tag_202\n      jump\t// in\n    tag_295:\n        /* \"#utility.yul\":13745:13750   */\n      dup2\n        /* \"#utility.yul\":13742:13777   */\n      eq\n        /* \"#utility.yul\":13732:13795   */\n      tag_296\n      jumpi\n        /* \"#utility.yul\":13791:13792   */\n      0x00\n        /* \"#utility.yul\":13788:13789   */\n      dup1\n        /* \"#utility.yul\":13781:13793   */\n      revert\n        /* \"#utility.yul\":13732:13795   */\n    tag_296:\n        /* \"#utility.yul\":13679:13801   */\n      pop\n      jump\t// out\n\n    auxdata: 0xa26469706673582212202c23f7c080736b7e42dffbc3bfa360ae7ed8afee9e4defb26fd5aad0348da6c864736f6c63430008070033\n}\n",
				"bytecode": {
					"linkReferences": {},
					"object": "60806040523480156200001157600080fd5b50604051620011af380380620011af8339818101604052810190620000379190620000ba565b8160048190555080426200004c919062000101565b600381905550606460028190555033600160006101000a81548173ffffffffffffffffffffffffffffffffffffffff021916908373ffffffffffffffffffffffffffffffffffffffff1602179055505050620001b6565b600081519050620000b4816200019c565b92915050565b60008060408385031215620000d457620000d362000197565b5b6000620000e485828601620000a3565b9250506020620000f785828601620000a3565b9150509250929050565b60006200010e826200015e565b91506200011b836200015e565b9250827fffffffffffffffffffffffffffffffffffffffffffffffffffffffffffffffff0382111562000153576200015262000168565b5b828201905092915050565b6000819050919050565b7f4e487b7100000000000000000000000000000000000000000000000000000000600052601160045260246000fd5b600080fd5b620001a7816200015e565b8114620001b357600080fd5b50565b610fe980620001c66000396000f3fe6080604052600436106100c25760003560e01c8063590e1ae31161007f578063937e09b111610059578063937e09b11461023b578063953b8fb8146102665780639fb42b1f14610291578063c59ee1dc146102bc576100c2565b8063590e1ae3146101b85780636f9fb98a146101cf57806381d12c58146101fa576100c2565b806306e99fef146100c75780631b16bb5c146100d15780631f6d4942146100fa57806329dcb0cf14610137578063481c6a75146101625780634e260f6f1461018d575b600080fd5b6100cf6102e7565b005b3480156100dd57600080fd5b506100f860048036038101906100f3919061088b565b610440565b005b34801561010657600080fd5b50610121600480360381019061011c919061085e565b610445565b60405161012e9190610b1d565b60405180910390f35b34801561014357600080fd5b5061014c61045d565b6040516101599190610b1d565b60405180910390f35b34801561016e57600080fd5b50610177610463565b6040516101849190610a28565b60405180910390f35b34801561019957600080fd5b506101a2610489565b6040516101af9190610b1d565b60405180910390f35b3480156101c457600080fd5b506101cd61048f565b005b3480156101db57600080fd5b506101e46106a4565b6040516101f19190610b1d565b60405180910390f35b34801561020657600080fd5b50610221600480360381019061021c91906108fa565b6106ac565b604051610232959493929190610a43565b60405180910390f35b34801561024757600080fd5b50610250610797565b60405161025d9190610b1d565b60405180910390f35b34801561027257600080fd5b5061027b61079d565b6040516102889190610b1d565b60405180910390f35b34801561029d57600080fd5b506102a66107a3565b6040516102b39190610b1d565b60405180910390f35b3480156102c857600080fd5b506102d16107a9565b6040516102de9190610b1d565b60405180910390f35b600354421061032b576040517f08c379a000000000000000000000000000000000000000000000000000000000815260040161032290610a9d565b60405180910390fd5b600254341015610370576040517f08c379a000000000000000000000000000000000000000000000000000000000815260040161036790610add565b60405180910390fd5b60008060003373ffffffffffffffffffffffffffffffffffffffff1673ffffffffffffffffffffffffffffffffffffffff1681526020019081526020016000205414156103d057600660008154809291906103ca90610d5d565b91905055505b346000803373ffffffffffffffffffffffffffffffffffffffff1673ffffffffffffffffffffffffffffffffffffffff168152602001908152602001600020600082825461041e9190610baa565b9250508190555034600560008282546104379190610baa565b92505081905550565b505050565b60006020528060005260406000206000915090505481565b60035481565b600160009054906101000a900473ffffffffffffffffffffffffffffffffffffffff1681565b60065481565b60035442101580156104a45750600454600554105b6104e3576040517f08c379a00000000000000000000000000000000000000000000000000000000081526004016104da90610afd565b60405180910390fd5b60008060003373ffffffffffffffffffffffffffffffffffffffff1673ffffffffffffffffffffffffffffffffffffffff1681526020019081526020016000205411610564576040517f08c379a000000000000000000000000000000000000000000000000000000000815260040161055b90610abd565b60405180910390fd5b60003390508073ffffffffffffffffffffffffffffffffffffffff166108fc6000803373ffffffffffffffffffffffffffffffffffffffff1673ffffffffffffffffffffffffffffffffffffffff168152602001908152602001600020549081150290604051600060405180830381858888f193505050501580156105ed573d6000803e3d6000fd5b506000803373ffffffffffffffffffffffffffffffffffffffff1673ffffffffffffffffffffffffffffffffffffffff168152602001908152602001600020546005600082825461063e9190610c00565b9250508190555060008060003373ffffffffffffffffffffffffffffffffffffffff1673ffffffffffffffffffffffffffffffffffffffff168152602001908152602001600020819055506006600081548092919061069c90610cd0565b919050555050565b600047905090565b60076020528060005260406000206000915090508060000180546106cf90610cfa565b80601f01602080910402602001604051908101604052809291908181526020018280546106fb90610cfa565b80156107485780601f1061071d57610100808354040283529160200191610748565b820191906000526020600020905b81548152906001019060200180831161072b57829003601f168201915b5050505050908060010154908060020160009054906101000a900473ffffffffffffffffffffffffffffffffffffffff16908060020160149054906101000a900460ff16908060030154905085565b60025481565b60045481565b60085481565b60055481565b60006107c26107bd84610b5d565b610b38565b9050828152602081018484840111156107de576107dd610e38565b5b6107e9848285610c8e565b509392505050565b60008135905061080081610f6e565b92915050565b60008135905061081581610f85565b92915050565b600082601f8301126108305761082f610e33565b5b81356108408482602086016107af565b91505092915050565b60008135905061085881610f9c565b92915050565b60006020828403121561087457610873610e42565b5b6000610882848285016107f1565b91505092915050565b6000806000606084860312156108a4576108a3610e42565b5b600084013567ffffffffffffffff8111156108c2576108c1610e3d565b5b6108ce8682870161081b565b93505060206108df86828701610806565b92505060406108f086828701610849565b9150509250925092565b6000602082840312156109105761090f610e42565b5b600061091e84828501610849565b91505092915050565b61093081610c46565b82525050565b61093f81610c34565b82525050565b61094e81610c58565b82525050565b600061095f82610b8e565b6109698185610b99565b9350610979818560208601610c9d565b61098281610e47565b840191505092915050565b600061099a602483610b99565b91506109a582610e58565b604082019050919050565b60006109bd601883610b99565b91506109c882610ea7565b602082019050919050565b60006109e0602883610b99565b91506109eb82610ed0565b604082019050919050565b6000610a03602683610b99565b9150610a0e82610f1f565b604082019050919050565b610a2281610c84565b82525050565b6000602082019050610a3d6000830184610936565b92915050565b600060a0820190508181036000830152610a5d8188610954565b9050610a6c6020830187610a19565b610a796040830186610927565b610a866060830185610945565b610a936080830184610a19565b9695505050505050565b60006020820190508181036000830152610ab68161098d565b9050919050565b60006020820190508181036000830152610ad6816109b0565b9050919050565b60006020820190508181036000830152610af6816109d3565b9050919050565b60006020820190508181036000830152610b16816109f6565b9050919050565b6000602082019050610b326000830184610a19565b92915050565b6000610b42610b53565b9050610b4e8282610d2c565b919050565b6000604051905090565b600067ffffffffffffffff821115610b7857610b77610e04565b5b610b8182610e47565b9050602081019050919050565b600081519050919050565b600082825260208201905092915050565b6000610bb582610c84565b9150610bc083610c84565b9250827fffffffffffffffffffffffffffffffffffffffffffffffffffffffffffffffff03821115610bf557610bf4610da6565b5b828201905092915050565b6000610c0b82610c84565b9150610c1683610c84565b925082821015610c2957610c28610da6565b5b828203905092915050565b6000610c3f82610c64565b9050919050565b6000610c5182610c64565b9050919050565b60008115159050919050565b600073ffffffffffffffffffffffffffffffffffffffff82169050919050565b6000819050919050565b82818337600083830152505050565b60005b83811015610cbb578082015181840152602081019050610ca0565b83811115610cca576000848401525b50505050565b6000610cdb82610c84565b91506000821415610cef57610cee610da6565b5b600182039050919050565b60006002820490506001821680610d1257607f821691505b60208210811415610d2657610d25610dd5565b5b50919050565b610d3582610e47565b810181811067ffffffffffffffff82111715610d5457610d53610e04565b5b80604052505050565b6000610d6882610c84565b91507fffffffffffffffffffffffffffffffffffffffffffffffffffffffffffffffff821415610d9b57610d9a610da6565b5b600182019050919050565b7f4e487b7100000000000000000000000000000000000000000000000000000000600052601160045260246000fd5b7f4e487b7100000000000000000000000000000000000000000000000000000000600052602260045260246000fd5b7f4e487b7100000000000000000000000000000000000000000000000000000000600052604160045260246000fd5b600080fd5b600080fd5b600080fd5b600080fd5b6000601f19601f8301169050919050565b7f536f727279212120446561646c696e652068617320616c72656164792070617360008201527f7365642e00000000000000000000000000000000000000000000000000000000602082015250565b7f596f7520686176656e277420636f6e74726962757465642e0000000000000000600082015250565b7f536f727279212120796f75206861766520746f20706179206d696e696d756d2060008201527f313030207765692e000000000000000000000000000000000000000000000000602082015250565b7f536f7272792c20796f7520617265206e6f7420656c696769626c6520666f722060008201527f726566756e640000000000000000000000000000000000000000000000000000602082015250565b610f7781610c34565b8114610f8257600080fd5b50565b610f8e81610c46565b8114610f9957600080fd5b50565b610fa581610c84565b8114610fb057600080fd5b5056fea26469706673582212202c23f7c080736b7e42dffbc3bfa360ae7ed8afee9e4defb26fd5aad0348da6c864736f6c63430008070033",
					"opcodes": "PUSH1 0x80 PUSH1 0x40 MSTORE CALLVALUE DUP1 ISZERO PUSH3 0x11 JUMPI PUSH1 0x0 DUP1 REVERT JUMPDEST POP PUSH1 0x40 MLOAD PUSH3 0x11AF CODESIZE SUB DUP1 PUSH3 0x11AF DUP4 CODECOPY DUP2 DUP2 ADD PUSH1 0x40 MSTORE DUP2 ADD SWAP1 PUSH3 0x37 SWAP2 SWAP1 PUSH3 0xBA JUMP JUMPDEST DUP2 PUSH1 0x4 DUP2 SWAP1 SSTORE POP DUP1 TIMESTAMP PUSH3 0x4C SWAP2 SWAP1 PUSH3 0x101 JUMP JUMPDEST PUSH1 0x3 DUP2 SWAP1 SSTORE POP PUSH1 0x64 PUSH1 0x2 DUP2 SWAP1 SSTORE POP CALLER PUSH1 0x1 PUSH1 0x0 PUSH2 0x100 EXP DUP2 SLOAD DUP2 PUSH20 0xFFFFFFFFFFFFFFFFFFFFFFFFFFFFFFFFFFFFFFFF MUL NOT AND SWAP1 DUP4 PUSH20 0xFFFFFFFFFFFFFFFFFFFFFFFFFFFFFFFFFFFFFFFF AND MUL OR SWAP1 SSTORE POP POP POP PUSH3 0x1B6 JUMP JUMPDEST PUSH1 0x0 DUP2 MLOAD SWAP1 POP PUSH3 0xB4 DUP2 PUSH3 0x19C JUMP JUMPDEST SWAP3 SWAP2 POP POP JUMP JUMPDEST PUSH1 0x0 DUP1 PUSH1 0x40 DUP4 DUP6 SUB SLT ISZERO PUSH3 0xD4 JUMPI PUSH3 0xD3 PUSH3 0x197 JUMP JUMPDEST JUMPDEST PUSH1 0x0 PUSH3 0xE4 DUP6 DUP3 DUP7 ADD PUSH3 0xA3 JUMP JUMPDEST SWAP3 POP POP PUSH1 0x20 PUSH3 0xF7 DUP6 DUP3 DUP7 ADD PUSH3 0xA3 JUMP JUMPDEST SWAP2 POP POP SWAP3 POP SWAP3 SWAP1 POP JUMP JUMPDEST PUSH1 0x0 PUSH3 0x10E DUP3 PUSH3 0x15E JUMP JUMPDEST SWAP2 POP PUSH3 0x11B DUP4 PUSH3 0x15E JUMP JUMPDEST SWAP3 POP DUP3 PUSH32 0xFFFFFFFFFFFFFFFFFFFFFFFFFFFFFFFFFFFFFFFFFFFFFFFFFFFFFFFFFFFFFFFF SUB DUP3 GT ISZERO PUSH3 0x153 JUMPI PUSH3 0x152 PUSH3 0x168 JUMP JUMPDEST JUMPDEST DUP3 DUP3 ADD SWAP1 POP SWAP3 SWAP2 POP POP JUMP JUMPDEST PUSH1 0x0 DUP2 SWAP1 POP SWAP2 SWAP1 POP JUMP JUMPDEST PUSH32 0x4E487B7100000000000000000000000000000000000000000000000000000000 PUSH1 0x0 MSTORE PUSH1 0x11 PUSH1 0x4 MSTORE PUSH1 0x24 PUSH1 0x0 REVERT JUMPDEST PUSH1 0x0 DUP1 REVERT JUMPDEST PUSH3 0x1A7 DUP2 PUSH3 0x15E JUMP JUMPDEST DUP2 EQ PUSH3 0x1B3 JUMPI PUSH1 0x0 DUP1 REVERT JUMPDEST POP JUMP JUMPDEST PUSH2 0xFE9 DUP1 PUSH3 0x1C6 PUSH1 0x0 CODECOPY PUSH1 0x0 RETURN INVALID PUSH1 0x80 PUSH1 0x40 MSTORE PUSH1 0x4 CALLDATASIZE LT PUSH2 0xC2 JUMPI PUSH1 0x0 CALLDATALOAD PUSH1 0xE0 SHR DUP1 PUSH4 0x590E1AE3 GT PUSH2 0x7F JUMPI DUP1 PUSH4 0x937E09B1 GT PUSH2 0x59 JUMPI DUP1 PUSH4 0x937E09B1 EQ PUSH2 0x23B JUMPI DUP1 PUSH4 0x953B8FB8 EQ PUSH2 0x266 JUMPI DUP1 PUSH4 0x9FB42B1F EQ PUSH2 0x291 JUMPI DUP1 PUSH4 0xC59EE1DC EQ PUSH2 0x2BC JUMPI PUSH2 0xC2 JUMP JUMPDEST DUP1 PUSH4 0x590E1AE3 EQ PUSH2 0x1B8 JUMPI DUP1 PUSH4 0x6F9FB98A EQ PUSH2 0x1CF JUMPI DUP1 PUSH4 0x81D12C58 EQ PUSH2 0x1FA JUMPI PUSH2 0xC2 JUMP JUMPDEST DUP1 PUSH4 0x6E99FEF EQ PUSH2 0xC7 JUMPI DUP1 PUSH4 0x1B16BB5C EQ PUSH2 0xD1 JUMPI DUP1 PUSH4 0x1F6D4942 EQ PUSH2 0xFA JUMPI DUP1 PUSH4 0x29DCB0CF EQ PUSH2 0x137 JUMPI DUP1 PUSH4 0x481C6A75 EQ PUSH2 0x162 JUMPI DUP1 PUSH4 0x4E260F6F EQ PUSH2 0x18D JUMPI JUMPDEST PUSH1 0x0 DUP1 REVERT JUMPDEST PUSH2 0xCF PUSH2 0x2E7 JUMP JUMPDEST STOP JUMPDEST CALLVALUE DUP1 ISZERO PUSH2 0xDD JUMPI PUSH1 0x0 DUP1 REVERT JUMPDEST POP PUSH2 0xF8 PUSH1 0x4 DUP1 CALLDATASIZE SUB DUP2 ADD SWAP1 PUSH2 0xF3 SWAP2 SWAP1 PUSH2 0x88B JUMP JUMPDEST PUSH2 0x440 JUMP JUMPDEST STOP JUMPDEST CALLVALUE DUP1 ISZERO PUSH2 0x106 JUMPI PUSH1 0x0 DUP1 REVERT JUMPDEST POP PUSH2 0x121 PUSH1 0x4 DUP1 CALLDATASIZE SUB DUP2 ADD SWAP1 PUSH2 0x11C SWAP2 SWAP1 PUSH2 0x85E JUMP JUMPDEST PUSH2 0x445 JUMP JUMPDEST PUSH1 0x40 MLOAD PUSH2 0x12E SWAP2 SWAP1 PUSH2 0xB1D JUMP JUMPDEST PUSH1 0x40 MLOAD DUP1 SWAP2 SUB SWAP1 RETURN JUMPDEST CALLVALUE DUP1 ISZERO PUSH2 0x143 JUMPI PUSH1 0x0 DUP1 REVERT JUMPDEST POP PUSH2 0x14C PUSH2 0x45D JUMP JUMPDEST PUSH1 0x40 MLOAD PUSH2 0x159 SWAP2 SWAP1 PUSH2 0xB1D JUMP JUMPDEST PUSH1 0x40 MLOAD DUP1 SWAP2 SUB SWAP1 RETURN JUMPDEST CALLVALUE DUP1 ISZERO PUSH2 0x16E JUMPI PUSH1 0x0 DUP1 REVERT JUMPDEST POP PUSH2 0x177 PUSH2 0x463 JUMP JUMPDEST PUSH1 0x40 MLOAD PUSH2 0x184 SWAP2 SWAP1 PUSH2 0xA28 JUMP JUMPDEST PUSH1 0x40 MLOAD DUP1 SWAP2 SUB SWAP1 RETURN JUMPDEST CALLVALUE DUP1 ISZERO PUSH2 0x199 JUMPI PUSH1 0x0 DUP1 REVERT JUMPDEST POP PUSH2 0x1A2 PUSH2 0x489 JUMP JUMPDEST PUSH1 0x40 MLOAD PUSH2 0x1AF SWAP2 SWAP1 PUSH2 0xB1D JUMP JUMPDEST PUSH1 0x40 MLOAD DUP1 SWAP2 SUB SWAP1 RETURN JUMPDEST CALLVALUE DUP1 ISZERO PUSH2 0x1C4 JUMPI PUSH1 0x0 DUP1 REVERT JUMPDEST POP PUSH2 0x1CD PUSH2 0x48F JUMP JUMPDEST STOP JUMPDEST CALLVALUE DUP1 ISZERO PUSH2 0x1DB JUMPI PUSH1 0x0 DUP1 REVERT JUMPDEST POP PUSH2 0x1E4 PUSH2 0x6A4 JUMP JUMPDEST PUSH1 0x40 MLOAD PUSH2 0x1F1 SWAP2 SWAP1 PUSH2 0xB1D JUMP JUMPDEST PUSH1 0x40 MLOAD DUP1 SWAP2 SUB SWAP1 RETURN JUMPDEST CALLVALUE DUP1 ISZERO PUSH2 0x206 JUMPI PUSH1 0x0 DUP1 REVERT JUMPDEST POP PUSH2 0x221 PUSH1 0x4 DUP1 CALLDATASIZE SUB DUP2 ADD SWAP1 PUSH2 0x21C SWAP2 SWAP1 PUSH2 0x8FA JUMP JUMPDEST PUSH2 0x6AC JUMP JUMPDEST PUSH1 0x40 MLOAD PUSH2 0x232 SWAP6 SWAP5 SWAP4 SWAP3 SWAP2 SWAP1 PUSH2 0xA43 JUMP JUMPDEST PUSH1 0x40 MLOAD DUP1 SWAP2 SUB SWAP1 RETURN JUMPDEST CALLVALUE DUP1 ISZERO PUSH2 0x247 JUMPI PUSH1 0x0 DUP1 REVERT JUMPDEST POP PUSH2 0x250 PUSH2 0x797 JUMP JUMPDEST PUSH1 0x40 MLOAD PUSH2 0x25D SWAP2 SWAP1 PUSH2 0xB1D JUMP JUMPDEST PUSH1 0x40 MLOAD DUP1 SWAP2 SUB SWAP1 RETURN JUMPDEST CALLVALUE DUP1 ISZERO PUSH2 0x272 JUMPI PUSH1 0x0 DUP1 REVERT JUMPDEST POP PUSH2 0x27B PUSH2 0x79D JUMP JUMPDEST PUSH1 0x40 MLOAD PUSH2 0x288 SWAP2 SWAP1 PUSH2 0xB1D JUMP JUMPDEST PUSH1 0x40 MLOAD DUP1 SWAP2 SUB SWAP1 RETURN JUMPDEST CALLVALUE DUP1 ISZERO PUSH2 0x29D JUMPI PUSH1 0x0 DUP1 REVERT JUMPDEST POP PUSH2 0x2A6 PUSH2 0x7A3 JUMP JUMPDEST PUSH1 0x40 MLOAD PUSH2 0x2B3 SWAP2 SWAP1 PUSH2 0xB1D JUMP JUMPDEST PUSH1 0x40 MLOAD DUP1 SWAP2 SUB SWAP1 RETURN JUMPDEST CALLVALUE DUP1 ISZERO PUSH2 0x2C8 JUMPI PUSH1 0x0 DUP1 REVERT JUMPDEST POP PUSH2 0x2D1 PUSH2 0x7A9 JUMP JUMPDEST PUSH1 0x40 MLOAD PUSH2 0x2DE SWAP2 SWAP1 PUSH2 0xB1D JUMP JUMPDEST PUSH1 0x40 MLOAD DUP1 SWAP2 SUB SWAP1 RETURN JUMPDEST PUSH1 0x3 SLOAD TIMESTAMP LT PUSH2 0x32B JUMPI PUSH1 0x40 MLOAD PUSH32 0x8C379A000000000000000000000000000000000000000000000000000000000 DUP2 MSTORE PUSH1 0x4 ADD PUSH2 0x322 SWAP1 PUSH2 0xA9D JUMP JUMPDEST PUSH1 0x40 MLOAD DUP1 SWAP2 SUB SWAP1 REVERT JUMPDEST PUSH1 0x2 SLOAD CALLVALUE LT ISZERO PUSH2 0x370 JUMPI PUSH1 0x40 MLOAD PUSH32 0x8C379A000000000000000000000000000000000000000000000000000000000 DUP2 MSTORE PUSH1 0x4 ADD PUSH2 0x367 SWAP1 PUSH2 0xADD JUMP JUMPDEST PUSH1 0x40 MLOAD DUP1 SWAP2 SUB SWAP1 REVERT JUMPDEST PUSH1 0x0 DUP1 PUSH1 0x0 CALLER PUSH20 0xFFFFFFFFFFFFFFFFFFFFFFFFFFFFFFFFFFFFFFFF AND PUSH20 0xFFFFFFFFFFFFFFFFFFFFFFFFFFFFFFFFFFFFFFFF AND DUP2 MSTORE PUSH1 0x20 ADD SWAP1 DUP2 MSTORE PUSH1 0x20 ADD PUSH1 0x0 KECCAK256 SLOAD EQ ISZERO PUSH2 0x3D0 JUMPI PUSH1 0x6 PUSH1 0x0 DUP2 SLOAD DUP1 SWAP3 SWAP2 SWAP1 PUSH2 0x3CA SWAP1 PUSH2 0xD5D JUMP JUMPDEST SWAP2 SWAP1 POP SSTORE POP JUMPDEST CALLVALUE PUSH1 0x0 DUP1 CALLER PUSH20 0xFFFFFFFFFFFFFFFFFFFFFFFFFFFFFFFFFFFFFFFF AND PUSH20 0xFFFFFFFFFFFFFFFFFFFFFFFFFFFFFFFFFFFFFFFF AND DUP2 MSTORE PUSH1 0x20 ADD SWAP1 DUP2 MSTORE PUSH1 0x20 ADD PUSH1 0x0 KECCAK256 PUSH1 0x0 DUP3 DUP3 SLOAD PUSH2 0x41E SWAP2 SWAP1 PUSH2 0xBAA JUMP JUMPDEST SWAP3 POP POP DUP2 SWAP1 SSTORE POP CALLVALUE PUSH1 0x5 PUSH1 0x0 DUP3 DUP3 SLOAD PUSH2 0x437 SWAP2 SWAP1 PUSH2 0xBAA JUMP JUMPDEST SWAP3 POP POP DUP2 SWAP1 SSTORE POP JUMP JUMPDEST POP POP POP JUMP JUMPDEST PUSH1 0x0 PUSH1 0x20 MSTORE DUP1 PUSH1 0x0 MSTORE PUSH1 0x40 PUSH1 0x0 KECCAK256 PUSH1 0x0 SWAP2 POP SWAP1 POP SLOAD DUP2 JUMP JUMPDEST PUSH1 0x3 SLOAD DUP2 JUMP JUMPDEST PUSH1 0x1 PUSH1 0x0 SWAP1 SLOAD SWAP1 PUSH2 0x100 EXP SWAP1 DIV PUSH20 0xFFFFFFFFFFFFFFFFFFFFFFFFFFFFFFFFFFFFFFFF AND DUP2 JUMP JUMPDEST PUSH1 0x6 SLOAD DUP2 JUMP JUMPDEST PUSH1 0x3 SLOAD TIMESTAMP LT ISZERO DUP1 ISZERO PUSH2 0x4A4 JUMPI POP PUSH1 0x4 SLOAD PUSH1 0x5 SLOAD LT JUMPDEST PUSH2 0x4E3 JUMPI PUSH1 0x40 MLOAD PUSH32 0x8C379A000000000000000000000000000000000000000000000000000000000 DUP2 MSTORE PUSH1 0x4 ADD PUSH2 0x4DA SWAP1 PUSH2 0xAFD JUMP JUMPDEST PUSH1 0x40 MLOAD DUP1 SWAP2 SUB SWAP1 REVERT JUMPDEST PUSH1 0x0 DUP1 PUSH1 0x0 CALLER PUSH20 0xFFFFFFFFFFFFFFFFFFFFFFFFFFFFFFFFFFFFFFFF AND PUSH20 0xFFFFFFFFFFFFFFFFFFFFFFFFFFFFFFFFFFFFFFFF AND DUP2 MSTORE PUSH1 0x20 ADD SWAP1 DUP2 MSTORE PUSH1 0x20 ADD PUSH1 0x0 KECCAK256 SLOAD GT PUSH2 0x564 JUMPI PUSH1 0x40 MLOAD PUSH32 0x8C379A000000000000000000000000000000000000000000000000000000000 DUP2 MSTORE PUSH1 0x4 ADD PUSH2 0x55B SWAP1 PUSH2 0xABD JUMP JUMPDEST PUSH1 0x40 MLOAD DUP1 SWAP2 SUB SWAP1 REVERT JUMPDEST PUSH1 0x0 CALLER SWAP1 POP DUP1 PUSH20 0xFFFFFFFFFFFFFFFFFFFFFFFFFFFFFFFFFFFFFFFF AND PUSH2 0x8FC PUSH1 0x0 DUP1 CALLER PUSH20 0xFFFFFFFFFFFFFFFFFFFFFFFFFFFFFFFFFFFFFFFF AND PUSH20 0xFFFFFFFFFFFFFFFFFFFFFFFFFFFFFFFFFFFFFFFF AND DUP2 MSTORE PUSH1 0x20 ADD SWAP1 DUP2 MSTORE PUSH1 0x20 ADD PUSH1 0x0 KECCAK256 SLOAD SWAP1 DUP2 ISZERO MUL SWAP1 PUSH1 0x40 MLOAD PUSH1 0x0 PUSH1 0x40 MLOAD DUP1 DUP4 SUB DUP2 DUP6 DUP9 DUP9 CALL SWAP4 POP POP POP POP ISZERO DUP1 ISZERO PUSH2 0x5ED JUMPI RETURNDATASIZE PUSH1 0x0 DUP1 RETURNDATACOPY RETURNDATASIZE PUSH1 0x0 REVERT JUMPDEST POP PUSH1 0x0 DUP1 CALLER PUSH20 0xFFFFFFFFFFFFFFFFFFFFFFFFFFFFFFFFFFFFFFFF AND PUSH20 0xFFFFFFFFFFFFFFFFFFFFFFFFFFFFFFFFFFFFFFFF AND DUP2 MSTORE PUSH1 0x20 ADD SWAP1 DUP2 MSTORE PUSH1 0x20 ADD PUSH1 0x0 KECCAK256 SLOAD PUSH1 0x5 PUSH1 0x0 DUP3 DUP3 SLOAD PUSH2 0x63E SWAP2 SWAP1 PUSH2 0xC00 JUMP JUMPDEST SWAP3 POP POP DUP2 SWAP1 SSTORE POP PUSH1 0x0 DUP1 PUSH1 0x0 CALLER PUSH20 0xFFFFFFFFFFFFFFFFFFFFFFFFFFFFFFFFFFFFFFFF AND PUSH20 0xFFFFFFFFFFFFFFFFFFFFFFFFFFFFFFFFFFFFFFFF AND DUP2 MSTORE PUSH1 0x20 ADD SWAP1 DUP2 MSTORE PUSH1 0x20 ADD PUSH1 0x0 KECCAK256 DUP2 SWAP1 SSTORE POP PUSH1 0x6 PUSH1 0x0 DUP2 SLOAD DUP1 SWAP3 SWAP2 SWAP1 PUSH2 0x69C SWAP1 PUSH2 0xCD0 JUMP JUMPDEST SWAP2 SWAP1 POP SSTORE POP POP JUMP JUMPDEST PUSH1 0x0 SELFBALANCE SWAP1 POP SWAP1 JUMP JUMPDEST PUSH1 0x7 PUSH1 0x20 MSTORE DUP1 PUSH1 0x0 MSTORE PUSH1 0x40 PUSH1 0x0 KECCAK256 PUSH1 0x0 SWAP2 POP SWAP1 POP DUP1 PUSH1 0x0 ADD DUP1 SLOAD PUSH2 0x6CF SWAP1 PUSH2 0xCFA JUMP JUMPDEST DUP1 PUSH1 0x1F ADD PUSH1 0x20 DUP1 SWAP2 DIV MUL PUSH1 0x20 ADD PUSH1 0x40 MLOAD SWAP1 DUP2 ADD PUSH1 0x40 MSTORE DUP1 SWAP3 SWAP2 SWAP1 DUP2 DUP2 MSTORE PUSH1 0x20 ADD DUP3 DUP1 SLOAD PUSH2 0x6FB SWAP1 PUSH2 0xCFA JUMP JUMPDEST DUP1 ISZERO PUSH2 0x748 JUMPI DUP1 PUSH1 0x1F LT PUSH2 0x71D JUMPI PUSH2 0x100 DUP1 DUP4 SLOAD DIV MUL DUP4 MSTORE SWAP2 PUSH1 0x20 ADD SWAP2 PUSH2 0x748 JUMP JUMPDEST DUP3 ADD SWAP2 SWAP1 PUSH1 0x0 MSTORE PUSH1 0x20 PUSH1 0x0 KECCAK256 SWAP1 JUMPDEST DUP2 SLOAD DUP2 MSTORE SWAP1 PUSH1 0x1 ADD SWAP1 PUSH1 0x20 ADD DUP1 DUP4 GT PUSH2 0x72B JUMPI DUP3 SWAP1 SUB PUSH1 0x1F AND DUP3 ADD SWAP2 JUMPDEST POP POP POP POP POP SWAP1 DUP1 PUSH1 0x1 ADD SLOAD SWAP1 DUP1 PUSH1 0x2 ADD PUSH1 0x0 SWAP1 SLOAD SWAP1 PUSH2 0x100 EXP SWAP1 DIV PUSH20 0xFFFFFFFFFFFFFFFFFFFFFFFFFFFFFFFFFFFFFFFF AND SWAP1 DUP1 PUSH1 0x2 ADD PUSH1 0x14 SWAP1 SLOAD SWAP1 PUSH2 0x100 EXP SWAP1 DIV PUSH1 0xFF AND SWAP1 DUP1 PUSH1 0x3 ADD SLOAD SWAP1 POP DUP6 JUMP JUMPDEST PUSH1 0x2 SLOAD DUP2 JUMP JUMPDEST PUSH1 0x4 SLOAD DUP2 JUMP JUMPDEST PUSH1 0x8 SLOAD DUP2 JUMP JUMPDEST PUSH1 0x5 SLOAD DUP2 JUMP JUMPDEST PUSH1 0x0 PUSH2 0x7C2 PUSH2 0x7BD DUP5 PUSH2 0xB5D JUMP JUMPDEST PUSH2 0xB38 JUMP JUMPDEST SWAP1 POP DUP3 DUP2 MSTORE PUSH1 0x20 DUP2 ADD DUP5 DUP5 DUP5 ADD GT ISZERO PUSH2 0x7DE JUMPI PUSH2 0x7DD PUSH2 0xE38 JUMP JUMPDEST JUMPDEST PUSH2 0x7E9 DUP5 DUP3 DUP6 PUSH2 0xC8E JUMP JUMPDEST POP SWAP4 SWAP3 POP POP POP JUMP JUMPDEST PUSH1 0x0 DUP2 CALLDATALOAD SWAP1 POP PUSH2 0x800 DUP2 PUSH2 0xF6E JUMP JUMPDEST SWAP3 SWAP2 POP POP JUMP JUMPDEST PUSH1 0x0 DUP2 CALLDATALOAD SWAP1 POP PUSH2 0x815 DUP2 PUSH2 0xF85 JUMP JUMPDEST SWAP3 SWAP2 POP POP JUMP JUMPDEST PUSH1 0x0 DUP3 PUSH1 0x1F DUP4 ADD SLT PUSH2 0x830 JUMPI PUSH2 0x82F PUSH2 0xE33 JUMP JUMPDEST JUMPDEST DUP2 CALLDATALOAD PUSH2 0x840 DUP5 DUP3 PUSH1 0x20 DUP7 ADD PUSH2 0x7AF JUMP JUMPDEST SWAP2 POP POP SWAP3 SWAP2 POP POP JUMP JUMPDEST PUSH1 0x0 DUP2 CALLDATALOAD SWAP1 POP PUSH2 0x858 DUP2 PUSH2 0xF9C JUMP JUMPDEST SWAP3 SWAP2 POP POP JUMP JUMPDEST PUSH1 0x0 PUSH1 0x20 DUP3 DUP5 SUB SLT ISZERO PUSH2 0x874 JUMPI PUSH2 0x873 PUSH2 0xE42 JUMP JUMPDEST JUMPDEST PUSH1 0x0 PUSH2 0x882 DUP5 DUP3 DUP6 ADD PUSH2 0x7F1 JUMP JUMPDEST SWAP2 POP POP SWAP3 SWAP2 POP POP JUMP JUMPDEST PUSH1 0x0 DUP1 PUSH1 0x0 PUSH1 0x60 DUP5 DUP7 SUB SLT ISZERO PUSH2 0x8A4 JUMPI PUSH2 0x8A3 PUSH2 0xE42 JUMP JUMPDEST JUMPDEST PUSH1 0x0 DUP5 ADD CALLDATALOAD PUSH8 0xFFFFFFFFFFFFFFFF DUP2 GT ISZERO PUSH2 0x8C2 JUMPI PUSH2 0x8C1 PUSH2 0xE3D JUMP JUMPDEST JUMPDEST PUSH2 0x8CE DUP7 DUP3 DUP8 ADD PUSH2 0x81B JUMP JUMPDEST SWAP4 POP POP PUSH1 0x20 PUSH2 0x8DF DUP7 DUP3 DUP8 ADD PUSH2 0x806 JUMP JUMPDEST SWAP3 POP POP PUSH1 0x40 PUSH2 0x8F0 DUP7 DUP3 DUP8 ADD PUSH2 0x849 JUMP JUMPDEST SWAP2 POP POP SWAP3 POP SWAP3 POP SWAP3 JUMP JUMPDEST PUSH1 0x0 PUSH1 0x20 DUP3 DUP5 SUB SLT ISZERO PUSH2 0x910 JUMPI PUSH2 0x90F PUSH2 0xE42 JUMP JUMPDEST JUMPDEST PUSH1 0x0 PUSH2 0x91E DUP5 DUP3 DUP6 ADD PUSH2 0x849 JUMP JUMPDEST SWAP2 POP POP SWAP3 SWAP2 POP POP JUMP JUMPDEST PUSH2 0x930 DUP2 PUSH2 0xC46 JUMP JUMPDEST DUP3 MSTORE POP POP JUMP JUMPDEST PUSH2 0x93F DUP2 PUSH2 0xC34 JUMP JUMPDEST DUP3 MSTORE POP POP JUMP JUMPDEST PUSH2 0x94E DUP2 PUSH2 0xC58 JUMP JUMPDEST DUP3 MSTORE POP POP JUMP JUMPDEST PUSH1 0x0 PUSH2 0x95F DUP3 PUSH2 0xB8E JUMP JUMPDEST PUSH2 0x969 DUP2 DUP6 PUSH2 0xB99 JUMP JUMPDEST SWAP4 POP PUSH2 0x979 DUP2 DUP6 PUSH1 0x20 DUP7 ADD PUSH2 0xC9D JUMP JUMPDEST PUSH2 0x982 DUP2 PUSH2 0xE47 JUMP JUMPDEST DUP5 ADD SWAP2 POP POP SWAP3 SWAP2 POP POP JUMP JUMPDEST PUSH1 0x0 PUSH2 0x99A PUSH1 0x24 DUP4 PUSH2 0xB99 JUMP JUMPDEST SWAP2 POP PUSH2 0x9A5 DUP3 PUSH2 0xE58 JUMP JUMPDEST PUSH1 0x40 DUP3 ADD SWAP1 POP SWAP2 SWAP1 POP JUMP JUMPDEST PUSH1 0x0 PUSH2 0x9BD PUSH1 0x18 DUP4 PUSH2 0xB99 JUMP JUMPDEST SWAP2 POP PUSH2 0x9C8 DUP3 PUSH2 0xEA7 JUMP JUMPDEST PUSH1 0x20 DUP3 ADD SWAP1 POP SWAP2 SWAP1 POP JUMP JUMPDEST PUSH1 0x0 PUSH2 0x9E0 PUSH1 0x28 DUP4 PUSH2 0xB99 JUMP JUMPDEST SWAP2 POP PUSH2 0x9EB DUP3 PUSH2 0xED0 JUMP JUMPDEST PUSH1 0x40 DUP3 ADD SWAP1 POP SWAP2 SWAP1 POP JUMP JUMPDEST PUSH1 0x0 PUSH2 0xA03 PUSH1 0x26 DUP4 PUSH2 0xB99 JUMP JUMPDEST SWAP2 POP PUSH2 0xA0E DUP3 PUSH2 0xF1F JUMP JUMPDEST PUSH1 0x40 DUP3 ADD SWAP1 POP SWAP2 SWAP1 POP JUMP JUMPDEST PUSH2 0xA22 DUP2 PUSH2 0xC84 JUMP JUMPDEST DUP3 MSTORE POP POP JUMP JUMPDEST PUSH1 0x0 PUSH1 0x20 DUP3 ADD SWAP1 POP PUSH2 0xA3D PUSH1 0x0 DUP4 ADD DUP5 PUSH2 0x936 JUMP JUMPDEST SWAP3 SWAP2 POP POP JUMP JUMPDEST PUSH1 0x0 PUSH1 0xA0 DUP3 ADD SWAP1 POP DUP2 DUP2 SUB PUSH1 0x0 DUP4 ADD MSTORE PUSH2 0xA5D DUP2 DUP9 PUSH2 0x954 JUMP JUMPDEST SWAP1 POP PUSH2 0xA6C PUSH1 0x20 DUP4 ADD DUP8 PUSH2 0xA19 JUMP JUMPDEST PUSH2 0xA79 PUSH1 0x40 DUP4 ADD DUP7 PUSH2 0x927 JUMP JUMPDEST PUSH2 0xA86 PUSH1 0x60 DUP4 ADD DUP6 PUSH2 0x945 JUMP JUMPDEST PUSH2 0xA93 PUSH1 0x80 DUP4 ADD DUP5 PUSH2 0xA19 JUMP JUMPDEST SWAP7 SWAP6 POP POP POP POP POP POP JUMP JUMPDEST PUSH1 0x0 PUSH1 0x20 DUP3 ADD SWAP1 POP DUP2 DUP2 SUB PUSH1 0x0 DUP4 ADD MSTORE PUSH2 0xAB6 DUP2 PUSH2 0x98D JUMP JUMPDEST SWAP1 POP SWAP2 SWAP1 POP JUMP JUMPDEST PUSH1 0x0 PUSH1 0x20 DUP3 ADD SWAP1 POP DUP2 DUP2 SUB PUSH1 0x0 DUP4 ADD MSTORE PUSH2 0xAD6 DUP2 PUSH2 0x9B0 JUMP JUMPDEST SWAP1 POP SWAP2 SWAP1 POP JUMP JUMPDEST PUSH1 0x0 PUSH1 0x20 DUP3 ADD SWAP1 POP DUP2 DUP2 SUB PUSH1 0x0 DUP4 ADD MSTORE PUSH2 0xAF6 DUP2 PUSH2 0x9D3 JUMP JUMPDEST SWAP1 POP SWAP2 SWAP1 POP JUMP JUMPDEST PUSH1 0x0 PUSH1 0x20 DUP3 ADD SWAP1 POP DUP2 DUP2 SUB PUSH1 0x0 DUP4 ADD MSTORE PUSH2 0xB16 DUP2 PUSH2 0x9F6 JUMP JUMPDEST SWAP1 POP SWAP2 SWAP1 POP JUMP JUMPDEST PUSH1 0x0 PUSH1 0x20 DUP3 ADD SWAP1 POP PUSH2 0xB32 PUSH1 0x0 DUP4 ADD DUP5 PUSH2 0xA19 JUMP JUMPDEST SWAP3 SWAP2 POP POP JUMP JUMPDEST PUSH1 0x0 PUSH2 0xB42 PUSH2 0xB53 JUMP JUMPDEST SWAP1 POP PUSH2 0xB4E DUP3 DUP3 PUSH2 0xD2C JUMP JUMPDEST SWAP2 SWAP1 POP JUMP JUMPDEST PUSH1 0x0 PUSH1 0x40 MLOAD SWAP1 POP SWAP1 JUMP JUMPDEST PUSH1 0x0 PUSH8 0xFFFFFFFFFFFFFFFF DUP3 GT ISZERO PUSH2 0xB78 JUMPI PUSH2 0xB77 PUSH2 0xE04 JUMP JUMPDEST JUMPDEST PUSH2 0xB81 DUP3 PUSH2 0xE47 JUMP JUMPDEST SWAP1 POP PUSH1 0x20 DUP2 ADD SWAP1 POP SWAP2 SWAP1 POP JUMP JUMPDEST PUSH1 0x0 DUP2 MLOAD SWAP1 POP SWAP2 SWAP1 POP JUMP JUMPDEST PUSH1 0x0 DUP3 DUP3 MSTORE PUSH1 0x20 DUP3 ADD SWAP1 POP SWAP3 SWAP2 POP POP JUMP JUMPDEST PUSH1 0x0 PUSH2 0xBB5 DUP3 PUSH2 0xC84 JUMP JUMPDEST SWAP2 POP PUSH2 0xBC0 DUP4 PUSH2 0xC84 JUMP JUMPDEST SWAP3 POP DUP3 PUSH32 0xFFFFFFFFFFFFFFFFFFFFFFFFFFFFFFFFFFFFFFFFFFFFFFFFFFFFFFFFFFFFFFFF SUB DUP3 GT ISZERO PUSH2 0xBF5 JUMPI PUSH2 0xBF4 PUSH2 0xDA6 JUMP JUMPDEST JUMPDEST DUP3 DUP3 ADD SWAP1 POP SWAP3 SWAP2 POP POP JUMP JUMPDEST PUSH1 0x0 PUSH2 0xC0B DUP3 PUSH2 0xC84 JUMP JUMPDEST SWAP2 POP PUSH2 0xC16 DUP4 PUSH2 0xC84 JUMP JUMPDEST SWAP3 POP DUP3 DUP3 LT ISZERO PUSH2 0xC29 JUMPI PUSH2 0xC28 PUSH2 0xDA6 JUMP JUMPDEST JUMPDEST DUP3 DUP3 SUB SWAP1 POP SWAP3 SWAP2 POP POP JUMP JUMPDEST PUSH1 0x0 PUSH2 0xC3F DUP3 PUSH2 0xC64 JUMP JUMPDEST SWAP1 POP SWAP2 SWAP1 POP JUMP JUMPDEST PUSH1 0x0 PUSH2 0xC51 DUP3 PUSH2 0xC64 JUMP JUMPDEST SWAP1 POP SWAP2 SWAP1 POP JUMP JUMPDEST PUSH1 0x0 DUP2 ISZERO ISZERO SWAP1 POP SWAP2 SWAP1 POP JUMP JUMPDEST PUSH1 0x0 PUSH20 0xFFFFFFFFFFFFFFFFFFFFFFFFFFFFFFFFFFFFFFFF DUP3 AND SWAP1 POP SWAP2 SWAP1 POP JUMP JUMPDEST PUSH1 0x0 DUP2 SWAP1 POP SWAP2 SWAP1 POP JUMP JUMPDEST DUP3 DUP2 DUP4 CALLDATACOPY PUSH1 0x0 DUP4 DUP4 ADD MSTORE POP POP POP JUMP JUMPDEST PUSH1 0x0 JUMPDEST DUP4 DUP2 LT ISZERO PUSH2 0xCBB JUMPI DUP1 DUP3 ADD MLOAD DUP2 DUP5 ADD MSTORE PUSH1 0x20 DUP2 ADD SWAP1 POP PUSH2 0xCA0 JUMP JUMPDEST DUP4 DUP2 GT ISZERO PUSH2 0xCCA JUMPI PUSH1 0x0 DUP5 DUP5 ADD MSTORE JUMPDEST POP POP POP POP JUMP JUMPDEST PUSH1 0x0 PUSH2 0xCDB DUP3 PUSH2 0xC84 JUMP JUMPDEST SWAP2 POP PUSH1 0x0 DUP3 EQ ISZERO PUSH2 0xCEF JUMPI PUSH2 0xCEE PUSH2 0xDA6 JUMP JUMPDEST JUMPDEST PUSH1 0x1 DUP3 SUB SWAP1 POP SWAP2 SWAP1 POP JUMP JUMPDEST PUSH1 0x0 PUSH1 0x2 DUP3 DIV SWAP1 POP PUSH1 0x1 DUP3 AND DUP1 PUSH2 0xD12 JUMPI PUSH1 0x7F DUP3 AND SWAP2 POP JUMPDEST PUSH1 0x20 DUP3 LT DUP2 EQ ISZERO PUSH2 0xD26 JUMPI PUSH2 0xD25 PUSH2 0xDD5 JUMP JUMPDEST JUMPDEST POP SWAP2 SWAP1 POP JUMP JUMPDEST PUSH2 0xD35 DUP3 PUSH2 0xE47 JUMP JUMPDEST DUP2 ADD DUP2 DUP2 LT PUSH8 0xFFFFFFFFFFFFFFFF DUP3 GT OR ISZERO PUSH2 0xD54 JUMPI PUSH2 0xD53 PUSH2 0xE04 JUMP JUMPDEST JUMPDEST DUP1 PUSH1 0x40 MSTORE POP POP POP JUMP JUMPDEST PUSH1 0x0 PUSH2 0xD68 DUP3 PUSH2 0xC84 JUMP JUMPDEST SWAP2 POP PUSH32 0xFFFFFFFFFFFFFFFFFFFFFFFFFFFFFFFFFFFFFFFFFFFFFFFFFFFFFFFFFFFFFFFF DUP3 EQ ISZERO PUSH2 0xD9B JUMPI PUSH2 0xD9A PUSH2 0xDA6 JUMP JUMPDEST JUMPDEST PUSH1 0x1 DUP3 ADD SWAP1 POP SWAP2 SWAP1 POP JUMP JUMPDEST PUSH32 0x4E487B7100000000000000000000000000000000000000000000000000000000 PUSH1 0x0 MSTORE PUSH1 0x11 PUSH1 0x4 MSTORE PUSH1 0x24 PUSH1 0x0 REVERT JUMPDEST PUSH32 0x4E487B7100000000000000000000000000000000000000000000000000000000 PUSH1 0x0 MSTORE PUSH1 0x22 PUSH1 0x4 MSTORE PUSH1 0x24 PUSH1 0x0 REVERT JUMPDEST PUSH32 0x4E487B7100000000000000000000000000000000000000000000000000000000 PUSH1 0x0 MSTORE PUSH1 0x41 PUSH1 0x4 MSTORE PUSH1 0x24 PUSH1 0x0 REVERT JUMPDEST PUSH1 0x0 DUP1 REVERT JUMPDEST PUSH1 0x0 DUP1 REVERT JUMPDEST PUSH1 0x0 DUP1 REVERT JUMPDEST PUSH1 0x0 DUP1 REVERT JUMPDEST PUSH1 0x0 PUSH1 0x1F NOT PUSH1 0x1F DUP4 ADD AND SWAP1 POP SWAP2 SWAP1 POP JUMP JUMPDEST PUSH32 0x536F727279212120446561646C696E652068617320616C726561647920706173 PUSH1 0x0 DUP3 ADD MSTORE PUSH32 0x7365642E00000000000000000000000000000000000000000000000000000000 PUSH1 0x20 DUP3 ADD MSTORE POP JUMP JUMPDEST PUSH32 0x596F7520686176656E277420636F6E74726962757465642E0000000000000000 PUSH1 0x0 DUP3 ADD MSTORE POP JUMP JUMPDEST PUSH32 0x536F727279212120796F75206861766520746F20706179206D696E696D756D20 PUSH1 0x0 DUP3 ADD MSTORE PUSH32 0x313030207765692E000000000000000000000000000000000000000000000000 PUSH1 0x20 DUP3 ADD MSTORE POP JUMP JUMPDEST PUSH32 0x536F7272792C20796F7520617265206E6F7420656C696769626C6520666F7220 PUSH1 0x0 DUP3 ADD MSTORE PUSH32 0x726566756E640000000000000000000000000000000000000000000000000000 PUSH1 0x20 DUP3 ADD MSTORE POP JUMP JUMPDEST PUSH2 0xF77 DUP2 PUSH2 0xC34 JUMP JUMPDEST DUP2 EQ PUSH2 0xF82 JUMPI PUSH1 0x0 DUP1 REVERT JUMPDEST POP JUMP JUMPDEST PUSH2 0xF8E DUP2 PUSH2 0xC46 JUMP JUMPDEST DUP2 EQ PUSH2 0xF99 JUMPI PUSH1 0x0 DUP1 REVERT JUMPDEST POP JUMP JUMPDEST PUSH2 0xFA5 DUP2 PUSH2 0xC84 JUMP JUMPDEST DUP2 EQ PUSH2 0xFB0 JUMPI PUSH1 0x0 DUP1 REVERT JUMPDEST POP JUMP INVALID LOG2 PUSH5 0x6970667358 0x22 SLT KECCAK256 0x2C 0x23 0xF7 0xC0 DUP1 PUSH20 0x6B7E42DFFBC3BFA360AE7ED8AFEE9E4DEFB26FD5 0xAA 0xD0 CALLVALUE DUP14 0xA6 0xC8 PUSH5 0x736F6C6343 STOP ADDMOD SMOD STOP CALLER "
				},
				"gasEstimates": {
					"creation": {
						"codeDepositCost": "814600",
						"executionCost": "infinite",
						"totalCost": "infinite"
					},
					"external": {
						"contributors(address)": "2859",
						"createRequest(string,address,uint256)": "infinite",
						"deadline()": "2496",
						"getContractBalance()": "384",
						"manager()": "2603",
						"minimumContribution()": "2451",
						"noOfContributors()": "2540",
						"numRequests()": "2495",
						"raisedAmount()": "2517",
						"refund()": "infinite",
						"requests(uint256)": "infinite",
						"sendEth()": "infinite",
						"targetAmount()": "2473"
					}
				},
				"methodIdentifiers": {
					"contributors(address)": "1f6d4942",
					"createRequest(string,address,uint256)": "1b16bb5c",
					"deadline()": "29dcb0cf",
					"getContractBalance()": "6f9fb98a",
					"manager()": "481c6a75",
					"minimumContribution()": "937e09b1",
					"noOfContributors()": "4e260f6f",
					"numRequests()": "9fb42b1f",
					"raisedAmount()": "c59ee1dc",
					"refund()": "590e1ae3",
					"requests(uint256)": "81d12c58",
					"sendEth()": "06e99fef",
					"targetAmount()": "953b8fb8"
				}
			},
			"storageLayout": {
				"storage": [
					{
						"astId": 5,
						"contract": "CrowdFunding/crowdfunding.sol:crowdfunding",
						"label": "contributors",
						"offset": 0,
						"slot": "0",
						"type": "t_mapping(t_address,t_uint256)"
					},
					{
						"astId": 7,
						"contract": "CrowdFunding/crowdfunding.sol:crowdfunding",
						"label": "manager",
						"offset": 0,
						"slot": "1",
						"type": "t_address"
					},
					{
						"astId": 9,
						"contract": "CrowdFunding/crowdfunding.sol:crowdfunding",
						"label": "minimumContribution",
						"offset": 0,
						"slot": "2",
						"type": "t_uint256"
					},
					{
						"astId": 11,
						"contract": "CrowdFunding/crowdfunding.sol:crowdfunding",
						"label": "deadline",
						"offset": 0,
						"slot": "3",
						"type": "t_uint256"
					},
					{
						"astId": 13,
						"contract": "CrowdFunding/crowdfunding.sol:crowdfunding",
						"label": "targetAmount",
						"offset": 0,
						"slot": "4",
						"type": "t_uint256"
					},
					{
						"astId": 15,
						"contract": "CrowdFunding/crowdfunding.sol:crowdfunding",
						"label": "raisedAmount",
						"offset": 0,
						"slot": "5",
						"type": "t_uint256"
					},
					{
						"astId": 17,
						"contract": "CrowdFunding/crowdfunding.sol:crowdfunding",
						"label": "noOfContributors",
						"offset": 0,
						"slot": "6",
						"type": "t_uint256"
					},
					{
						"astId": 37,
						"contract": "CrowdFunding/crowdfunding.sol:crowdfunding",
						"label": "requests",
						"offset": 0,
						"slot": "7",
						"type": "t_mapping(t_uint256,t_struct(Request)32_storage)"
					},
					{
						"astId": 39,
						"contract": "CrowdFunding/crowdfunding.sol:crowdfunding",
						"label": "numRequests",
						"offset": 0,
						"slot": "8",
						"type": "t_uint256"
					}
				],
				"types": {
					"t_address": {
						"encoding": "inplace",
						"label": "address",
						"numberOfBytes": "20"
					},
					"t_address_payable": {
						"encoding": "inplace",
						"label": "address payable",
						"numberOfBytes": "20"
					},
					"t_bool": {
						"encoding": "inplace",
						"label": "bool",
						"numberOfBytes": "1"
					},
					"t_mapping(t_address,t_bool)": {
						"encoding": "mapping",
						"key": "t_address",
						"label": "mapping(address => bool)",
						"numberOfBytes": "32",
						"value": "t_bool"
					},
					"t_mapping(t_address,t_uint256)": {
						"encoding": "mapping",
						"key": "t_address",
						"label": "mapping(address => uint256)",
						"numberOfBytes": "32",
						"value": "t_uint256"
					},
					"t_mapping(t_uint256,t_struct(Request)32_storage)": {
						"encoding": "mapping",
						"key": "t_uint256",
						"label": "mapping(uint256 => struct crowdfunding.Request)",
						"numberOfBytes": "32",
						"value": "t_struct(Request)32_storage"
					},
					"t_string_storage": {
						"encoding": "bytes",
						"label": "string",
						"numberOfBytes": "32"
					},
					"t_struct(Request)32_storage": {
						"encoding": "inplace",
						"label": "struct crowdfunding.Request",
						"members": [
							{
								"astId": 19,
								"contract": "CrowdFunding/crowdfunding.sol:crowdfunding",
								"label": "description",
								"offset": 0,
								"slot": "0",
								"type": "t_string_storage"
							},
							{
								"astId": 21,
								"contract": "CrowdFunding/crowdfunding.sol:crowdfunding",
								"label": "value",
								"offset": 0,
								"slot": "1",
								"type": "t_uint256"
							},
							{
								"astId": 23,
								"contract": "CrowdFunding/crowdfunding.sol:crowdfunding",
								"label": "receipint",
								"offset": 0,
								"slot": "2",
								"type": "t_address_payable"
							},
							{
								"astId": 25,
								"contract": "CrowdFunding/crowdfunding.sol:crowdfunding",
								"label": "completed",
								"offset": 20,
								"slot": "2",
								"type": "t_bool"
							},
							{
								"astId": 27,
								"contract": "CrowdFunding/crowdfunding.sol:crowdfunding",
								"label": "noOfVoters",
								"offset": 0,
								"slot": "3",
								"type": "t_uint256"
							},
							{
								"astId": 31,
								"contract": "CrowdFunding/crowdfunding.sol:crowdfunding",
								"label": "voters",
								"offset": 0,
								"slot": "4",
								"type": "t_mapping(t_address,t_bool)"
							}
						],
						"numberOfBytes": "160"
					},
					"t_uint256": {
						"encoding": "inplace",
						"label": "uint256",
						"numberOfBytes": "32"
					}
				}
			},
			"userdoc": {
				"kind": "user",
				"methods": {},
				"version": 1
			}
		}
	}
}