{
	"CrowdFunding/crowdfunding.sol": {
		"crowdfunding": {
			"abi": [
				{
					"inputs": [
						{
							"internalType": "uint256",
							"name": "_targetAmount",
							"type": "uint256"
						},
						{
							"internalType": "uint256",
							"name": "_deadline",
							"type": "uint256"
						}
					],
					"stateMutability": "nonpayable",
					"type": "constructor"
				},
				{
					"inputs": [
						{
							"internalType": "address",
							"name": "",
							"type": "address"
						}
					],
					"name": "contributors",
					"outputs": [
						{
							"internalType": "uint256",
							"name": "",
							"type": "uint256"
						}
					],
					"stateMutability": "view",
					"type": "function"
				},
				{
					"inputs": [
						{
							"internalType": "string",
							"name": "_description",
							"type": "string"
						},
						{
							"internalType": "address payable",
							"name": "_recipient",
							"type": "address"
						},
						{
							"internalType": "uint256",
							"name": "_value",
							"type": "uint256"
						}
					],
					"name": "createRequest",
					"outputs": [],
					"stateMutability": "nonpayable",
					"type": "function"
				},
				{
					"inputs": [],
					"name": "deadline",
					"outputs": [
						{
							"internalType": "uint256",
							"name": "",
							"type": "uint256"
						}
					],
					"stateMutability": "view",
					"type": "function"
				},
				{
					"inputs": [],
					"name": "getContractBalance",
					"outputs": [
						{
							"internalType": "uint256",
							"name": "",
							"type": "uint256"
						}
					],
					"stateMutability": "view",
					"type": "function"
				},
				{
					"inputs": [],
					"name": "manager",
					"outputs": [
						{
							"internalType": "address",
							"name": "",
							"type": "address"
						}
					],
					"stateMutability": "view",
					"type": "function"
				},
				{
					"inputs": [],
					"name": "minimumContribution",
					"outputs": [
						{
							"internalType": "uint256",
							"name": "",
							"type": "uint256"
						}
					],
					"stateMutability": "view",
					"type": "function"
				},
				{
					"inputs": [],
					"name": "noOfContributors",
					"outputs": [
						{
							"internalType": "uint256",
							"name": "",
							"type": "uint256"
						}
					],
					"stateMutability": "view",
					"type": "function"
				},
				{
					"inputs": [],
					"name": "numRequests",
					"outputs": [
						{
							"internalType": "uint256",
							"name": "",
							"type": "uint256"
						}
					],
					"stateMutability": "view",
					"type": "function"
				},
				{
					"inputs": [],
					"name": "raisedAmount",
					"outputs": [
						{
							"internalType": "uint256",
							"name": "",
							"type": "uint256"
						}
					],
					"stateMutability": "view",
					"type": "function"
				},
				{
					"inputs": [],
					"name": "refund",
					"outputs": [],
					"stateMutability": "nonpayable",
					"type": "function"
				},
				{
					"inputs": [
						{
							"internalType": "uint256",
							"name": "",
							"type": "uint256"
						}
					],
					"name": "requests",
					"outputs": [
						{
							"internalType": "string",
							"name": "description",
							"type": "string"
						},
						{
							"internalType": "uint256",
							"name": "value",
							"type": "uint256"
						},
						{
							"internalType": "address payable",
							"name": "receipient",
							"type": "address"
						},
						{
							"internalType": "bool",
							"name": "completed",
							"type": "bool"
						},
						{
							"internalType": "uint256",
							"name": "noOfVoters",
							"type": "uint256"
						}
					],
					"stateMutability": "view",
					"type": "function"
				},
				{
					"inputs": [],
					"name": "sendEth",
					"outputs": [],
					"stateMutability": "payable",
					"type": "function"
				},
				{
					"inputs": [],
					"name": "targetAmount",
					"outputs": [
						{
							"internalType": "uint256",
							"name": "",
							"type": "uint256"
						}
					],
					"stateMutability": "view",
					"type": "function"
				},
				{
					"inputs": [
						{
							"internalType": "uint256",
							"name": "_requestNo",
							"type": "uint256"
						}
					],
					"name": "voteRequest",
					"outputs": [],
					"stateMutability": "nonpayable",
					"type": "function"
				}
			],
			"devdoc": {
				"kind": "dev",
				"methods": {},
				"version": 1
			},
			"evm": {
				"assembly": "    /* \"CrowdFunding/crowdfunding.sol\":70:3113  contract crowdfunding{... */\n  mstore(0x40, 0x80)\n    /* \"CrowdFunding/crowdfunding.sol\":611:820  constructor(uint _targetAmount, uint _deadline){... */\n  callvalue\n  dup1\n  iszero\n  tag_1\n  jumpi\n  0x00\n  dup1\n  revert\ntag_1:\n  pop\n  mload(0x40)\n  sub(codesize, bytecodeSize)\n  dup1\n  bytecodeSize\n  dup4\n  codecopy\n  dup2\n  dup2\n  add\n  0x40\n  mstore\n  dup2\n  add\n  swap1\n  tag_2\n  swap2\n  swap1\n  tag_3\n  jump\t// in\ntag_2:\n    /* \"CrowdFunding/crowdfunding.sol\":683:696  _targetAmount */\n  dup2\n    /* \"CrowdFunding/crowdfunding.sol\":668:680  targetAmount */\n  0x04\n    /* \"CrowdFunding/crowdfunding.sol\":668:696  targetAmount = _targetAmount */\n  dup2\n  swap1\n  sstore\n  pop\n    /* \"CrowdFunding/crowdfunding.sol\":735:744  _deadline */\n  dup1\n    /* \"CrowdFunding/crowdfunding.sol\":717:732  block.timestamp */\n  timestamp\n    /* \"CrowdFunding/crowdfunding.sol\":717:744  block.timestamp + _deadline */\n  tag_6\n  swap2\n  swap1\n  tag_7\n  jump\t// in\ntag_6:\n    /* \"CrowdFunding/crowdfunding.sol\":706:714  deadline */\n  0x03\n    /* \"CrowdFunding/crowdfunding.sol\":706:744  deadline = block.timestamp + _deadline */\n  dup2\n  swap1\n  sstore\n  pop\n    /* \"CrowdFunding/crowdfunding.sol\":776:783  100 wei */\n  0x64\n    /* \"CrowdFunding/crowdfunding.sol\":754:773  minimumContribution */\n  0x02\n    /* \"CrowdFunding/crowdfunding.sol\":754:783  minimumContribution = 100 wei */\n  dup2\n  swap1\n  sstore\n  pop\n    /* \"CrowdFunding/crowdfunding.sol\":803:813  msg.sender */\n  caller\n    /* \"CrowdFunding/crowdfunding.sol\":793:800  manager */\n  0x01\n  0x00\n    /* \"CrowdFunding/crowdfunding.sol\":793:813  manager = msg.sender */\n  0x0100\n  exp\n  dup2\n  sload\n  dup2\n  0xffffffffffffffffffffffffffffffffffffffff\n  mul\n  not\n  and\n  swap1\n  dup4\n  0xffffffffffffffffffffffffffffffffffffffff\n  and\n  mul\n  or\n  swap1\n  sstore\n  pop\n    /* \"CrowdFunding/crowdfunding.sol\":611:820  constructor(uint _targetAmount, uint _deadline){... */\n  pop\n  pop\n    /* \"CrowdFunding/crowdfunding.sol\":70:3113  contract crowdfunding{... */\n  jump(tag_8)\n    /* \"#utility.yul\":7:150   */\ntag_10:\n    /* \"#utility.yul\":64:69   */\n  0x00\n    /* \"#utility.yul\":95:101   */\n  dup2\n    /* \"#utility.yul\":89:102   */\n  mload\n    /* \"#utility.yul\":80:102   */\n  swap1\n  pop\n    /* \"#utility.yul\":111:144   */\n  tag_12\n    /* \"#utility.yul\":138:143   */\n  dup2\n    /* \"#utility.yul\":111:144   */\n  tag_13\n  jump\t// in\ntag_12:\n    /* \"#utility.yul\":7:150   */\n  swap3\n  swap2\n  pop\n  pop\n  jump\t// out\n    /* \"#utility.yul\":156:663   */\ntag_3:\n    /* \"#utility.yul\":235:241   */\n  0x00\n    /* \"#utility.yul\":243:249   */\n  dup1\n    /* \"#utility.yul\":292:294   */\n  0x40\n    /* \"#utility.yul\":280:289   */\n  dup4\n    /* \"#utility.yul\":271:278   */\n  dup6\n    /* \"#utility.yul\":267:290   */\n  sub\n    /* \"#utility.yul\":263:295   */\n  slt\n    /* \"#utility.yul\":260:379   */\n  iszero\n  tag_15\n  jumpi\n    /* \"#utility.yul\":298:377   */\n  tag_16\n  tag_17\n  jump\t// in\ntag_16:\n    /* \"#utility.yul\":260:379   */\ntag_15:\n    /* \"#utility.yul\":418:419   */\n  0x00\n    /* \"#utility.yul\":443:507   */\n  tag_18\n    /* \"#utility.yul\":499:506   */\n  dup6\n    /* \"#utility.yul\":490:496   */\n  dup3\n    /* \"#utility.yul\":479:488   */\n  dup7\n    /* \"#utility.yul\":475:497   */\n  add\n    /* \"#utility.yul\":443:507   */\n  tag_10\n  jump\t// in\ntag_18:\n    /* \"#utility.yul\":433:507   */\n  swap3\n  pop\n    /* \"#utility.yul\":389:517   */\n  pop\n    /* \"#utility.yul\":556:558   */\n  0x20\n    /* \"#utility.yul\":582:646   */\n  tag_19\n    /* \"#utility.yul\":638:645   */\n  dup6\n    /* \"#utility.yul\":629:635   */\n  dup3\n    /* \"#utility.yul\":618:627   */\n  dup7\n    /* \"#utility.yul\":614:636   */\n  add\n    /* \"#utility.yul\":582:646   */\n  tag_10\n  jump\t// in\ntag_19:\n    /* \"#utility.yul\":572:646   */\n  swap2\n  pop\n    /* \"#utility.yul\":527:656   */\n  pop\n    /* \"#utility.yul\":156:663   */\n  swap3\n  pop\n  swap3\n  swap1\n  pop\n  jump\t// out\n    /* \"#utility.yul\":750:1055   */\ntag_7:\n    /* \"#utility.yul\":790:793   */\n  0x00\n    /* \"#utility.yul\":809:829   */\n  tag_23\n    /* \"#utility.yul\":827:828   */\n  dup3\n    /* \"#utility.yul\":809:829   */\n  tag_24\n  jump\t// in\ntag_23:\n    /* \"#utility.yul\":804:829   */\n  swap2\n  pop\n    /* \"#utility.yul\":843:863   */\n  tag_25\n    /* \"#utility.yul\":861:862   */\n  dup4\n    /* \"#utility.yul\":843:863   */\n  tag_24\n  jump\t// in\ntag_25:\n    /* \"#utility.yul\":838:863   */\n  swap3\n  pop\n    /* \"#utility.yul\":997:998   */\n  dup3\n    /* \"#utility.yul\":929:995   */\n  0xffffffffffffffffffffffffffffffffffffffffffffffffffffffffffffffff\n    /* \"#utility.yul\":925:999   */\n  sub\n    /* \"#utility.yul\":922:923   */\n  dup3\n    /* \"#utility.yul\":919:1000   */\n  gt\n    /* \"#utility.yul\":916:1023   */\n  iszero\n  tag_26\n  jumpi\n    /* \"#utility.yul\":1003:1021   */\n  tag_27\n  tag_28\n  jump\t// in\ntag_27:\n    /* \"#utility.yul\":916:1023   */\ntag_26:\n    /* \"#utility.yul\":1047:1048   */\n  dup3\n    /* \"#utility.yul\":1044:1045   */\n  dup3\n    /* \"#utility.yul\":1040:1049   */\n  add\n    /* \"#utility.yul\":1033:1049   */\n  swap1\n  pop\n    /* \"#utility.yul\":750:1055   */\n  swap3\n  swap2\n  pop\n  pop\n  jump\t// out\n    /* \"#utility.yul\":1061:1138   */\ntag_24:\n    /* \"#utility.yul\":1098:1105   */\n  0x00\n    /* \"#utility.yul\":1127:1132   */\n  dup2\n    /* \"#utility.yul\":1116:1132   */\n  swap1\n  pop\n    /* \"#utility.yul\":1061:1138   */\n  swap2\n  swap1\n  pop\n  jump\t// out\n    /* \"#utility.yul\":1144:1324   */\ntag_28:\n    /* \"#utility.yul\":1192:1269   */\n  0x4e487b7100000000000000000000000000000000000000000000000000000000\n    /* \"#utility.yul\":1189:1190   */\n  0x00\n    /* \"#utility.yul\":1182:1270   */\n  mstore\n    /* \"#utility.yul\":1289:1293   */\n  0x11\n    /* \"#utility.yul\":1286:1287   */\n  0x04\n    /* \"#utility.yul\":1279:1294   */\n  mstore\n    /* \"#utility.yul\":1313:1317   */\n  0x24\n    /* \"#utility.yul\":1310:1311   */\n  0x00\n    /* \"#utility.yul\":1303:1318   */\n  revert\n    /* \"#utility.yul\":1453:1570   */\ntag_17:\n    /* \"#utility.yul\":1562:1563   */\n  0x00\n    /* \"#utility.yul\":1559:1560   */\n  dup1\n    /* \"#utility.yul\":1552:1564   */\n  revert\n    /* \"#utility.yul\":1576:1698   */\ntag_13:\n    /* \"#utility.yul\":1649:1673   */\n  tag_35\n    /* \"#utility.yul\":1667:1672   */\n  dup2\n    /* \"#utility.yul\":1649:1673   */\n  tag_24\n  jump\t// in\ntag_35:\n    /* \"#utility.yul\":1642:1647   */\n  dup2\n    /* \"#utility.yul\":1639:1674   */\n  eq\n    /* \"#utility.yul\":1629:1692   */\n  tag_36\n  jumpi\n    /* \"#utility.yul\":1688:1689   */\n  0x00\n    /* \"#utility.yul\":1685:1686   */\n  dup1\n    /* \"#utility.yul\":1678:1690   */\n  revert\n    /* \"#utility.yul\":1629:1692   */\ntag_36:\n    /* \"#utility.yul\":1576:1698   */\n  pop\n  jump\t// out\n    /* \"CrowdFunding/crowdfunding.sol\":70:3113  contract crowdfunding{... */\ntag_8:\n  dataSize(sub_0)\n  dup1\n  dataOffset(sub_0)\n  0x00\n  codecopy\n  0x00\n  return\nstop\n\nsub_0: assembly {\n        /* \"CrowdFunding/crowdfunding.sol\":70:3113  contract crowdfunding{... */\n      mstore(0x40, 0x80)\n      jumpi(tag_1, lt(calldatasize, 0x04))\n      shr(0xe0, calldataload(0x00))\n      dup1\n      0x590e1ae3\n      gt\n      tag_16\n      jumpi\n      dup1\n      0x937e09b1\n      gt\n      tag_17\n      jumpi\n      dup1\n      0x937e09b1\n      eq\n      tag_12\n      jumpi\n      dup1\n      0x953b8fb8\n      eq\n      tag_13\n      jumpi\n      dup1\n      0x9fb42b1f\n      eq\n      tag_14\n      jumpi\n      dup1\n      0xc59ee1dc\n      eq\n      tag_15\n      jumpi\n      jump(tag_1)\n    tag_17:\n      dup1\n      0x590e1ae3\n      eq\n      tag_9\n      jumpi\n      dup1\n      0x6f9fb98a\n      eq\n      tag_10\n      jumpi\n      dup1\n      0x81d12c58\n      eq\n      tag_11\n      jumpi\n      jump(tag_1)\n    tag_16:\n      dup1\n      0x29dcb0cf\n      gt\n      tag_18\n      jumpi\n      dup1\n      0x29dcb0cf\n      eq\n      tag_5\n      jumpi\n      dup1\n      0x481c6a75\n      eq\n      tag_6\n      jumpi\n      dup1\n      0x4cb6f4a5\n      eq\n      tag_7\n      jumpi\n      dup1\n      0x4e260f6f\n      eq\n      tag_8\n      jumpi\n      jump(tag_1)\n    tag_18:\n      dup1\n      0x06e99fef\n      eq\n      tag_2\n      jumpi\n      dup1\n      0x1b16bb5c\n      eq\n      tag_3\n      jumpi\n      dup1\n      0x1f6d4942\n      eq\n      tag_4\n      jumpi\n    tag_1:\n      0x00\n      dup1\n      revert\n        /* \"CrowdFunding/crowdfunding.sol\":875:1242  function sendEth() public payable{... */\n    tag_2:\n      tag_19\n      tag_20\n      jump\t// in\n    tag_19:\n      stop\n        /* \"CrowdFunding/crowdfunding.sol\":2096:2543  function createRequest(string memory _description, address payable _recipient, uint _value) public onlyManager{... */\n    tag_3:\n      callvalue\n      dup1\n      iszero\n      tag_21\n      jumpi\n      0x00\n      dup1\n      revert\n    tag_21:\n      pop\n      tag_22\n      0x04\n      dup1\n      calldatasize\n      sub\n      dup2\n      add\n      swap1\n      tag_23\n      swap2\n      swap1\n      tag_24\n      jump\t// in\n    tag_23:\n      tag_25\n      jump\t// in\n    tag_22:\n      stop\n        /* \"CrowdFunding/crowdfunding.sol\":102:144  mapping(address=>uint) public contributors */\n    tag_4:\n      callvalue\n      dup1\n      iszero\n      tag_26\n      jumpi\n      0x00\n      dup1\n      revert\n    tag_26:\n      pop\n      tag_27\n      0x04\n      dup1\n      calldatasize\n      sub\n      dup2\n      add\n      swap1\n      tag_28\n      swap2\n      swap1\n      tag_29\n      jump\t// in\n    tag_28:\n      tag_30\n      jump\t// in\n    tag_27:\n      mload(0x40)\n      tag_31\n      swap2\n      swap1\n      tag_32\n      jump\t// in\n    tag_31:\n      mload(0x40)\n      dup1\n      swap2\n      sub\n      swap1\n      return\n        /* \"CrowdFunding/crowdfunding.sol\":215:235  uint public deadline */\n    tag_5:\n      callvalue\n      dup1\n      iszero\n      tag_33\n      jumpi\n      0x00\n      dup1\n      revert\n    tag_33:\n      pop\n      tag_34\n      tag_35\n      jump\t// in\n    tag_34:\n      mload(0x40)\n      tag_36\n      swap2\n      swap1\n      tag_32\n      jump\t// in\n    tag_36:\n      mload(0x40)\n      dup1\n      swap2\n      sub\n      swap1\n      return\n        /* \"CrowdFunding/crowdfunding.sol\":150:172  address public manager */\n    tag_6:\n      callvalue\n      dup1\n      iszero\n      tag_37\n      jumpi\n      0x00\n      dup1\n      revert\n    tag_37:\n      pop\n      tag_38\n      tag_39\n      jump\t// in\n    tag_38:\n      mload(0x40)\n      tag_40\n      swap2\n      swap1\n      tag_41\n      jump\t// in\n    tag_40:\n      mload(0x40)\n      dup1\n      swap2\n      sub\n      swap1\n      return\n        /* \"CrowdFunding/crowdfunding.sol\":2549:3109  function voteRequest(uint _requestNo) public{... */\n    tag_7:\n      callvalue\n      dup1\n      iszero\n      tag_42\n      jumpi\n      0x00\n      dup1\n      revert\n    tag_42:\n      pop\n      tag_43\n      0x04\n      dup1\n      calldatasize\n      sub\n      dup2\n      add\n      swap1\n      tag_44\n      swap2\n      swap1\n      tag_45\n      jump\t// in\n    tag_44:\n      tag_46\n      jump\t// in\n    tag_43:\n      stop\n        /* \"CrowdFunding/crowdfunding.sol\":301:329  uint public noOfContributors */\n    tag_8:\n      callvalue\n      dup1\n      iszero\n      tag_47\n      jumpi\n      0x00\n      dup1\n      revert\n    tag_47:\n      pop\n      tag_48\n      tag_49\n      jump\t// in\n    tag_48:\n      mload(0x40)\n      tag_50\n      swap2\n      swap1\n      tag_32\n      jump\t// in\n    tag_50:\n      mload(0x40)\n      dup1\n      swap2\n      sub\n      swap1\n      return\n        /* \"CrowdFunding/crowdfunding.sol\":1420:1964  function refund() public{... */\n    tag_9:\n      callvalue\n      dup1\n      iszero\n      tag_51\n      jumpi\n      0x00\n      dup1\n      revert\n    tag_51:\n      pop\n      tag_52\n      tag_53\n      jump\t// in\n    tag_52:\n      stop\n        /* \"CrowdFunding/crowdfunding.sol\":1249:1413  function getContractBalance() public view returns(uint){... */\n    tag_10:\n      callvalue\n      dup1\n      iszero\n      tag_54\n      jumpi\n      0x00\n      dup1\n      revert\n    tag_54:\n      pop\n      tag_55\n      tag_56\n      jump\t// in\n    tag_55:\n      mload(0x40)\n      tag_57\n      swap2\n      swap1\n      tag_32\n      jump\t// in\n    tag_57:\n      mload(0x40)\n      dup1\n      swap2\n      sub\n      swap1\n      return\n        /* \"CrowdFunding/crowdfunding.sol\":536:574  mapping(uint=>Request) public requests */\n    tag_11:\n      callvalue\n      dup1\n      iszero\n      tag_58\n      jumpi\n      0x00\n      dup1\n      revert\n    tag_58:\n      pop\n      tag_59\n      0x04\n      dup1\n      calldatasize\n      sub\n      dup2\n      add\n      swap1\n      tag_60\n      swap2\n      swap1\n      tag_45\n      jump\t// in\n    tag_60:\n      tag_61\n      jump\t// in\n    tag_59:\n      mload(0x40)\n      tag_62\n      swap6\n      swap5\n      swap4\n      swap3\n      swap2\n      swap1\n      tag_63\n      jump\t// in\n    tag_62:\n      mload(0x40)\n      dup1\n      swap2\n      sub\n      swap1\n      return\n        /* \"CrowdFunding/crowdfunding.sol\":178:209  uint public minimumContribution */\n    tag_12:\n      callvalue\n      dup1\n      iszero\n      tag_64\n      jumpi\n      0x00\n      dup1\n      revert\n    tag_64:\n      pop\n      tag_65\n      tag_66\n      jump\t// in\n    tag_65:\n      mload(0x40)\n      tag_67\n      swap2\n      swap1\n      tag_32\n      jump\t// in\n    tag_67:\n      mload(0x40)\n      dup1\n      swap2\n      sub\n      swap1\n      return\n        /* \"CrowdFunding/crowdfunding.sol\":241:265  uint public targetAmount */\n    tag_13:\n      callvalue\n      dup1\n      iszero\n      tag_68\n      jumpi\n      0x00\n      dup1\n      revert\n    tag_68:\n      pop\n      tag_69\n      tag_70\n      jump\t// in\n    tag_69:\n      mload(0x40)\n      tag_71\n      swap2\n      swap1\n      tag_32\n      jump\t// in\n    tag_71:\n      mload(0x40)\n      dup1\n      swap2\n      sub\n      swap1\n      return\n        /* \"CrowdFunding/crowdfunding.sol\":580:603  uint public numRequests */\n    tag_14:\n      callvalue\n      dup1\n      iszero\n      tag_72\n      jumpi\n      0x00\n      dup1\n      revert\n    tag_72:\n      pop\n      tag_73\n      tag_74\n      jump\t// in\n    tag_73:\n      mload(0x40)\n      tag_75\n      swap2\n      swap1\n      tag_32\n      jump\t// in\n    tag_75:\n      mload(0x40)\n      dup1\n      swap2\n      sub\n      swap1\n      return\n        /* \"CrowdFunding/crowdfunding.sol\":271:295  uint public raisedAmount */\n    tag_15:\n      callvalue\n      dup1\n      iszero\n      tag_76\n      jumpi\n      0x00\n      dup1\n      revert\n    tag_76:\n      pop\n      tag_77\n      tag_78\n      jump\t// in\n    tag_77:\n      mload(0x40)\n      tag_79\n      swap2\n      swap1\n      tag_32\n      jump\t// in\n    tag_79:\n      mload(0x40)\n      dup1\n      swap2\n      sub\n      swap1\n      return\n        /* \"CrowdFunding/crowdfunding.sol\":875:1242  function sendEth() public payable{... */\n    tag_20:\n        /* \"CrowdFunding/crowdfunding.sol\":944:952  deadline */\n      sload(0x03)\n        /* \"CrowdFunding/crowdfunding.sol\":926:941  block.timestamp */\n      timestamp\n        /* \"CrowdFunding/crowdfunding.sol\":926:952  block.timestamp < deadline */\n      lt\n        /* \"CrowdFunding/crowdfunding.sol\":918:993  require(block.timestamp < deadline, \"Sorry!! Deadline has already passed.\") */\n      tag_81\n      jumpi\n      mload(0x40)\n      0x08c379a000000000000000000000000000000000000000000000000000000000\n      dup2\n      mstore\n      0x04\n      add\n      tag_82\n      swap1\n      tag_83\n      jump\t// in\n    tag_82:\n      mload(0x40)\n      dup1\n      swap2\n      sub\n      swap1\n      revert\n    tag_81:\n        /* \"CrowdFunding/crowdfunding.sol\":1024:1043  minimumContribution */\n      sload(0x02)\n        /* \"CrowdFunding/crowdfunding.sol\":1011:1020  msg.value */\n      callvalue\n        /* \"CrowdFunding/crowdfunding.sol\":1011:1043  msg.value >= minimumContribution */\n      lt\n      iszero\n        /* \"CrowdFunding/crowdfunding.sol\":1003:1088  require(msg.value >= minimumContribution, \"Sorry!! you have to pay minimum 100 wei.\") */\n      tag_84\n      jumpi\n      mload(0x40)\n      0x08c379a000000000000000000000000000000000000000000000000000000000\n      dup2\n      mstore\n      0x04\n      add\n      tag_85\n      swap1\n      tag_86\n      jump\t// in\n    tag_85:\n      mload(0x40)\n      dup1\n      swap2\n      sub\n      swap1\n      revert\n    tag_84:\n        /* \"CrowdFunding/crowdfunding.sol\":1130:1131  0 */\n      0x00\n        /* \"CrowdFunding/crowdfunding.sol\":1102:1114  contributors */\n      dup1\n        /* \"CrowdFunding/crowdfunding.sol\":1102:1126  contributors[msg.sender] */\n      0x00\n        /* \"CrowdFunding/crowdfunding.sol\":1115:1125  msg.sender */\n      caller\n        /* \"CrowdFunding/crowdfunding.sol\":1102:1126  contributors[msg.sender] */\n      0xffffffffffffffffffffffffffffffffffffffff\n      and\n      0xffffffffffffffffffffffffffffffffffffffff\n      and\n      dup2\n      mstore\n      0x20\n      add\n      swap1\n      dup2\n      mstore\n      0x20\n      add\n      0x00\n      keccak256\n      sload\n        /* \"CrowdFunding/crowdfunding.sol\":1102:1131  contributors[msg.sender] == 0 */\n      eq\n        /* \"CrowdFunding/crowdfunding.sol\":1099:1151  if(contributors[msg.sender] == 0) noOfContributors++ */\n      iszero\n      tag_87\n      jumpi\n        /* \"CrowdFunding/crowdfunding.sol\":1133:1149  noOfContributors */\n      0x06\n      0x00\n        /* \"CrowdFunding/crowdfunding.sol\":1133:1151  noOfContributors++ */\n      dup2\n      sload\n      dup1\n      swap3\n      swap2\n      swap1\n      tag_88\n      swap1\n      tag_89\n      jump\t// in\n    tag_88:\n      swap2\n      swap1\n      pop\n      sstore\n      pop\n        /* \"CrowdFunding/crowdfunding.sol\":1099:1151  if(contributors[msg.sender] == 0) noOfContributors++ */\n    tag_87:\n        /* \"CrowdFunding/crowdfunding.sol\":1190:1199  msg.value */\n      callvalue\n        /* \"CrowdFunding/crowdfunding.sol\":1162:1174  contributors */\n      0x00\n        /* \"CrowdFunding/crowdfunding.sol\":1162:1186  contributors[msg.sender] */\n      dup1\n        /* \"CrowdFunding/crowdfunding.sol\":1175:1185  msg.sender */\n      caller\n        /* \"CrowdFunding/crowdfunding.sol\":1162:1186  contributors[msg.sender] */\n      0xffffffffffffffffffffffffffffffffffffffff\n      and\n      0xffffffffffffffffffffffffffffffffffffffff\n      and\n      dup2\n      mstore\n      0x20\n      add\n      swap1\n      dup2\n      mstore\n      0x20\n      add\n      0x00\n      keccak256\n      0x00\n        /* \"CrowdFunding/crowdfunding.sol\":1162:1199  contributors[msg.sender] += msg.value */\n      dup3\n      dup3\n      sload\n      tag_90\n      swap2\n      swap1\n      tag_91\n      jump\t// in\n    tag_90:\n      swap3\n      pop\n      pop\n      dup2\n      swap1\n      sstore\n      pop\n        /* \"CrowdFunding/crowdfunding.sol\":1225:1234  msg.value */\n      callvalue\n        /* \"CrowdFunding/crowdfunding.sol\":1209:1221  raisedAmount */\n      0x05\n      0x00\n        /* \"CrowdFunding/crowdfunding.sol\":1209:1234  raisedAmount += msg.value */\n      dup3\n      dup3\n      sload\n      tag_92\n      swap2\n      swap1\n      tag_91\n      jump\t// in\n    tag_92:\n      swap3\n      pop\n      pop\n      dup2\n      swap1\n      sstore\n      pop\n        /* \"CrowdFunding/crowdfunding.sol\":875:1242  function sendEth() public payable{... */\n      jump\t// out\n        /* \"CrowdFunding/crowdfunding.sol\":2096:2543  function createRequest(string memory _description, address payable _recipient, uint _value) public onlyManager{... */\n    tag_25:\n        /* \"CrowdFunding/crowdfunding.sol\":2025:2032  manager */\n      0x01\n      0x00\n      swap1\n      sload\n      swap1\n      0x0100\n      exp\n      swap1\n      div\n      0xffffffffffffffffffffffffffffffffffffffff\n      and\n        /* \"CrowdFunding/crowdfunding.sol\":2011:2032  msg.sender == manager */\n      0xffffffffffffffffffffffffffffffffffffffff\n      and\n        /* \"CrowdFunding/crowdfunding.sol\":2011:2021  msg.sender */\n      caller\n        /* \"CrowdFunding/crowdfunding.sol\":2011:2032  msg.sender == manager */\n      0xffffffffffffffffffffffffffffffffffffffff\n      and\n      eq\n        /* \"CrowdFunding/crowdfunding.sol\":2003:2072  require(msg.sender == manager, \"Only manager can call this feature.\") */\n      tag_94\n      jumpi\n      mload(0x40)\n      0x08c379a000000000000000000000000000000000000000000000000000000000\n      dup2\n      mstore\n      0x04\n      add\n      tag_95\n      swap1\n      tag_96\n      jump\t// in\n    tag_95:\n      mload(0x40)\n      dup1\n      swap2\n      sub\n      swap1\n      revert\n    tag_94:\n        /* \"CrowdFunding/crowdfunding.sol\":2216:2242  Request storage newRequest */\n      0x00\n        /* \"CrowdFunding/crowdfunding.sol\":2245:2253  requests */\n      0x07\n        /* \"CrowdFunding/crowdfunding.sol\":2245:2266  requests[numRequests] */\n      0x00\n        /* \"CrowdFunding/crowdfunding.sol\":2254:2265  numRequests */\n      sload(0x08)\n        /* \"CrowdFunding/crowdfunding.sol\":2245:2266  requests[numRequests] */\n      dup2\n      mstore\n      0x20\n      add\n      swap1\n      dup2\n      mstore\n      0x20\n      add\n      0x00\n      keccak256\n        /* \"CrowdFunding/crowdfunding.sol\":2216:2266  Request storage newRequest = requests[numRequests] */\n      swap1\n      pop\n        /* \"CrowdFunding/crowdfunding.sol\":2276:2287  numRequests */\n      0x08\n      0x00\n        /* \"CrowdFunding/crowdfunding.sol\":2276:2289  numRequests++ */\n      dup2\n      sload\n      dup1\n      swap3\n      swap2\n      swap1\n      tag_98\n      swap1\n      tag_89\n      jump\t// in\n    tag_98:\n      swap2\n      swap1\n      pop\n      sstore\n      pop\n        /* \"CrowdFunding/crowdfunding.sol\":2325:2337  _description */\n      dup4\n        /* \"CrowdFunding/crowdfunding.sol\":2300:2310  newRequest */\n      dup2\n        /* \"CrowdFunding/crowdfunding.sol\":2300:2322  newRequest.description */\n      0x00\n      add\n        /* \"CrowdFunding/crowdfunding.sol\":2300:2337  newRequest.description = _description */\n      swap1\n      dup1\n      mload\n      swap1\n      0x20\n      add\n      swap1\n      tag_99\n      swap3\n      swap2\n      swap1\n      tag_100\n      jump\t// in\n    tag_99:\n      pop\n        /* \"CrowdFunding/crowdfunding.sol\":2371:2381  _recipient */\n      dup3\n        /* \"CrowdFunding/crowdfunding.sol\":2347:2357  newRequest */\n      dup2\n        /* \"CrowdFunding/crowdfunding.sol\":2347:2368  newRequest.receipient */\n      0x02\n      add\n      0x00\n        /* \"CrowdFunding/crowdfunding.sol\":2347:2381  newRequest.receipient = _recipient */\n      0x0100\n      exp\n      dup2\n      sload\n      dup2\n      0xffffffffffffffffffffffffffffffffffffffff\n      mul\n      not\n      and\n      swap1\n      dup4\n      0xffffffffffffffffffffffffffffffffffffffff\n      and\n      mul\n      or\n      swap1\n      sstore\n      pop\n        /* \"CrowdFunding/crowdfunding.sol\":2410:2416  _value */\n      dup2\n        /* \"CrowdFunding/crowdfunding.sol\":2391:2401  newRequest */\n      dup2\n        /* \"CrowdFunding/crowdfunding.sol\":2391:2407  newRequest.value */\n      0x01\n      add\n        /* \"CrowdFunding/crowdfunding.sol\":2391:2416  newRequest.value = _value */\n      dup2\n      swap1\n      sstore\n      pop\n        /* \"CrowdFunding/crowdfunding.sol\":2449:2454  false */\n      0x00\n        /* \"CrowdFunding/crowdfunding.sol\":2426:2436  newRequest */\n      dup2\n        /* \"CrowdFunding/crowdfunding.sol\":2426:2446  newRequest.completed */\n      0x02\n      add\n      0x14\n        /* \"CrowdFunding/crowdfunding.sol\":2426:2454  newRequest.completed = false */\n      0x0100\n      exp\n      dup2\n      sload\n      dup2\n      0xff\n      mul\n      not\n      and\n      swap1\n      dup4\n      iszero\n      iszero\n      mul\n      or\n      swap1\n      sstore\n      pop\n        /* \"CrowdFunding/crowdfunding.sol\":2488:2489  0 */\n      0x00\n        /* \"CrowdFunding/crowdfunding.sol\":2464:2474  newRequest */\n      dup2\n        /* \"CrowdFunding/crowdfunding.sol\":2464:2485  newRequest.noOfVoters */\n      0x03\n      add\n        /* \"CrowdFunding/crowdfunding.sol\":2464:2489  newRequest.noOfVoters = 0 */\n      dup2\n      swap1\n      sstore\n      pop\n        /* \"CrowdFunding/crowdfunding.sol\":2531:2536  false */\n      0x00\n        /* \"CrowdFunding/crowdfunding.sol\":2499:2509  newRequest */\n      dup2\n        /* \"CrowdFunding/crowdfunding.sol\":2499:2516  newRequest.voters */\n      0x04\n      add\n        /* \"CrowdFunding/crowdfunding.sol\":2499:2528  newRequest.voters[msg.sender] */\n      0x00\n        /* \"CrowdFunding/crowdfunding.sol\":2517:2527  msg.sender */\n      caller\n        /* \"CrowdFunding/crowdfunding.sol\":2499:2528  newRequest.voters[msg.sender] */\n      0xffffffffffffffffffffffffffffffffffffffff\n      and\n      0xffffffffffffffffffffffffffffffffffffffff\n      and\n      dup2\n      mstore\n      0x20\n      add\n      swap1\n      dup2\n      mstore\n      0x20\n      add\n      0x00\n      keccak256\n      0x00\n        /* \"CrowdFunding/crowdfunding.sol\":2499:2536  newRequest.voters[msg.sender] = false */\n      0x0100\n      exp\n      dup2\n      sload\n      dup2\n      0xff\n      mul\n      not\n      and\n      swap1\n      dup4\n      iszero\n      iszero\n      mul\n      or\n      swap1\n      sstore\n      pop\n        /* \"CrowdFunding/crowdfunding.sol\":2206:2543  {... */\n      pop\n        /* \"CrowdFunding/crowdfunding.sol\":2096:2543  function createRequest(string memory _description, address payable _recipient, uint _value) public onlyManager{... */\n      pop\n      pop\n      pop\n      jump\t// out\n        /* \"CrowdFunding/crowdfunding.sol\":102:144  mapping(address=>uint) public contributors */\n    tag_30:\n      mstore(0x20, 0x00)\n      dup1\n      0x00\n      mstore\n      keccak256(0x00, 0x40)\n      0x00\n      swap2\n      pop\n      swap1\n      pop\n      sload\n      dup2\n      jump\t// out\n        /* \"CrowdFunding/crowdfunding.sol\":215:235  uint public deadline */\n    tag_35:\n      sload(0x03)\n      dup2\n      jump\t// out\n        /* \"CrowdFunding/crowdfunding.sol\":150:172  address public manager */\n    tag_39:\n      0x01\n      0x00\n      swap1\n      sload\n      swap1\n      0x0100\n      exp\n      swap1\n      div\n      0xffffffffffffffffffffffffffffffffffffffff\n      and\n      dup2\n      jump\t// out\n        /* \"CrowdFunding/crowdfunding.sol\":2549:3109  function voteRequest(uint _requestNo) public{... */\n    tag_46:\n        /* \"CrowdFunding/crowdfunding.sol\":2638:2639  0 */\n      0x00\n        /* \"CrowdFunding/crowdfunding.sol\":2611:2623  contributors */\n      dup1\n        /* \"CrowdFunding/crowdfunding.sol\":2611:2635  contributors[msg.sender] */\n      0x00\n        /* \"CrowdFunding/crowdfunding.sol\":2624:2634  msg.sender */\n      caller\n        /* \"CrowdFunding/crowdfunding.sol\":2611:2635  contributors[msg.sender] */\n      0xffffffffffffffffffffffffffffffffffffffff\n      and\n      0xffffffffffffffffffffffffffffffffffffffff\n      and\n      dup2\n      mstore\n      0x20\n      add\n      swap1\n      dup2\n      mstore\n      0x20\n      add\n      0x00\n      keccak256\n      sload\n        /* \"CrowdFunding/crowdfunding.sol\":2611:2639  contributors[msg.sender] > 0 */\n      gt\n        /* \"CrowdFunding/crowdfunding.sol\":2603:2711  require(contributors[msg.sender] > 0, \"Sorry!! You have to contribute first in order to eligible for vote.\") */\n      tag_102\n      jumpi\n      mload(0x40)\n      0x08c379a000000000000000000000000000000000000000000000000000000000\n      dup2\n      mstore\n      0x04\n      add\n      tag_103\n      swap1\n      tag_104\n      jump\t// in\n    tag_103:\n      mload(0x40)\n      dup1\n      swap2\n      sub\n      swap1\n      revert\n    tag_102:\n        /* \"CrowdFunding/crowdfunding.sol\":2743:2754  numRequests */\n      sload(0x08)\n        /* \"CrowdFunding/crowdfunding.sol\":2729:2739  _requestNo */\n      dup2\n        /* \"CrowdFunding/crowdfunding.sol\":2729:2754  _requestNo <= numRequests */\n      gt\n      iszero\n        /* \"CrowdFunding/crowdfunding.sol\":2729:2773  _requestNo <= numRequests && _requestNo >= 0 */\n      dup1\n      iszero\n      tag_105\n      jumpi\n      pop\n        /* \"CrowdFunding/crowdfunding.sol\":2772:2773  0 */\n      0x00\n        /* \"CrowdFunding/crowdfunding.sol\":2758:2768  _requestNo */\n      dup2\n        /* \"CrowdFunding/crowdfunding.sol\":2758:2773  _requestNo >= 0 */\n      lt\n      iszero\n        /* \"CrowdFunding/crowdfunding.sol\":2729:2773  _requestNo <= numRequests && _requestNo >= 0 */\n    tag_105:\n        /* \"CrowdFunding/crowdfunding.sol\":2721:2801  require(_requestNo <= numRequests && _requestNo >= 0, \"Invalid request number.\") */\n      tag_106\n      jumpi\n      mload(0x40)\n      0x08c379a000000000000000000000000000000000000000000000000000000000\n      dup2\n      mstore\n      0x04\n      add\n      tag_107\n      swap1\n      tag_108\n      jump\t// in\n    tag_107:\n      mload(0x40)\n      dup1\n      swap2\n      sub\n      swap1\n      revert\n    tag_106:\n        /* \"CrowdFunding/crowdfunding.sol\":2811:2841  Request storage currentRequest */\n      0x00\n        /* \"CrowdFunding/crowdfunding.sol\":2844:2852  requests */\n      0x07\n        /* \"CrowdFunding/crowdfunding.sol\":2844:2864  requests[_requestNo] */\n      0x00\n        /* \"CrowdFunding/crowdfunding.sol\":2853:2863  _requestNo */\n      dup4\n        /* \"CrowdFunding/crowdfunding.sol\":2844:2864  requests[_requestNo] */\n      dup2\n      mstore\n      0x20\n      add\n      swap1\n      dup2\n      mstore\n      0x20\n      add\n      0x00\n      keccak256\n        /* \"CrowdFunding/crowdfunding.sol\":2811:2864  Request storage currentRequest = requests[_requestNo] */\n      swap1\n      pop\n        /* \"CrowdFunding/crowdfunding.sol\":2919:2924  false */\n      0x00\n        /* \"CrowdFunding/crowdfunding.sol\":2883:2897  currentRequest */\n      dup2\n        /* \"CrowdFunding/crowdfunding.sol\":2883:2904  currentRequest.voters */\n      0x04\n      add\n        /* \"CrowdFunding/crowdfunding.sol\":2883:2916  currentRequest.voters[msg.sender] */\n      0x00\n        /* \"CrowdFunding/crowdfunding.sol\":2905:2915  msg.sender */\n      caller\n        /* \"CrowdFunding/crowdfunding.sol\":2883:2916  currentRequest.voters[msg.sender] */\n      0xffffffffffffffffffffffffffffffffffffffff\n      and\n      0xffffffffffffffffffffffffffffffffffffffff\n      and\n      dup2\n      mstore\n      0x20\n      add\n      swap1\n      dup2\n      mstore\n      0x20\n      add\n      0x00\n      keccak256\n      0x00\n        /* \"CrowdFunding/crowdfunding.sol\":2883:2924  currentRequest.voters[msg.sender] = false */\n      0x0100\n      exp\n      dup2\n      sload\n      dup2\n      0xff\n      mul\n      not\n      and\n      swap1\n      dup4\n      iszero\n      iszero\n      mul\n      or\n      swap1\n      sstore\n        /* \"CrowdFunding/crowdfunding.sol\":2875:3015  require(currentRequest.voters[msg.sender] = false, \"Opps!! you already put your vote for this request. You can only vote once per request.\") */\n      tag_109\n      jumpi\n      mload(0x40)\n      0x08c379a000000000000000000000000000000000000000000000000000000000\n      dup2\n      mstore\n      0x04\n      add\n      tag_110\n      swap1\n      tag_111\n      jump\t// in\n    tag_110:\n      mload(0x40)\n      dup1\n      swap2\n      sub\n      swap1\n      revert\n    tag_109:\n        /* \"CrowdFunding/crowdfunding.sol\":3061:3065  true */\n      0x01\n        /* \"CrowdFunding/crowdfunding.sol\":3025:3039  currentRequest */\n      dup2\n        /* \"CrowdFunding/crowdfunding.sol\":3025:3046  currentRequest.voters */\n      0x04\n      add\n        /* \"CrowdFunding/crowdfunding.sol\":3025:3058  currentRequest.voters[msg.sender] */\n      0x00\n        /* \"CrowdFunding/crowdfunding.sol\":3047:3057  msg.sender */\n      caller\n        /* \"CrowdFunding/crowdfunding.sol\":3025:3058  currentRequest.voters[msg.sender] */\n      0xffffffffffffffffffffffffffffffffffffffff\n      and\n      0xffffffffffffffffffffffffffffffffffffffff\n      and\n      dup2\n      mstore\n      0x20\n      add\n      swap1\n      dup2\n      mstore\n      0x20\n      add\n      0x00\n      keccak256\n      0x00\n        /* \"CrowdFunding/crowdfunding.sol\":3025:3065  currentRequest.voters[msg.sender] = true */\n      0x0100\n      exp\n      dup2\n      sload\n      dup2\n      0xff\n      mul\n      not\n      and\n      swap1\n      dup4\n      iszero\n      iszero\n      mul\n      or\n      swap1\n      sstore\n      pop\n        /* \"CrowdFunding/crowdfunding.sol\":3075:3089  currentRequest */\n      dup1\n        /* \"CrowdFunding/crowdfunding.sol\":3075:3100  currentRequest.noOfVoters */\n      0x03\n      add\n      0x00\n        /* \"CrowdFunding/crowdfunding.sol\":3075:3102  currentRequest.noOfVoters++ */\n      dup2\n      sload\n      dup1\n      swap3\n      swap2\n      swap1\n      tag_112\n      swap1\n      tag_89\n      jump\t// in\n    tag_112:\n      swap2\n      swap1\n      pop\n      sstore\n      pop\n        /* \"CrowdFunding/crowdfunding.sol\":2593:3109  {... */\n      pop\n        /* \"CrowdFunding/crowdfunding.sol\":2549:3109  function voteRequest(uint _requestNo) public{... */\n      pop\n      jump\t// out\n        /* \"CrowdFunding/crowdfunding.sol\":301:329  uint public noOfContributors */\n    tag_49:\n      sload(0x06)\n      dup2\n      jump\t// out\n        /* \"CrowdFunding/crowdfunding.sol\":1420:1964  function refund() public{... */\n    tag_53:\n        /* \"CrowdFunding/crowdfunding.sol\":1480:1488  deadline */\n      sload(0x03)\n        /* \"CrowdFunding/crowdfunding.sol\":1462:1477  block.timestamp */\n      timestamp\n        /* \"CrowdFunding/crowdfunding.sol\":1462:1488  block.timestamp > deadline */\n      gt\n        /* \"CrowdFunding/crowdfunding.sol\":1462:1519  block.timestamp > deadline && raisedAmount < targetAmount */\n      dup1\n      iszero\n      tag_114\n      jumpi\n      pop\n        /* \"CrowdFunding/crowdfunding.sol\":1507:1519  targetAmount */\n      sload(0x04)\n        /* \"CrowdFunding/crowdfunding.sol\":1492:1504  raisedAmount */\n      sload(0x05)\n        /* \"CrowdFunding/crowdfunding.sol\":1492:1519  raisedAmount < targetAmount */\n      lt\n        /* \"CrowdFunding/crowdfunding.sol\":1462:1519  block.timestamp > deadline && raisedAmount < targetAmount */\n    tag_114:\n        /* \"CrowdFunding/crowdfunding.sol\":1454:1562  require(block.timestamp > deadline && raisedAmount < targetAmount, \"Sorry, you are not eligible for refund\") */\n      tag_115\n      jumpi\n      mload(0x40)\n      0x08c379a000000000000000000000000000000000000000000000000000000000\n      dup2\n      mstore\n      0x04\n      add\n      tag_116\n      swap1\n      tag_117\n      jump\t// in\n    tag_116:\n      mload(0x40)\n      dup1\n      swap2\n      sub\n      swap1\n      revert\n    tag_115:\n        /* \"CrowdFunding/crowdfunding.sol\":1607:1608  0 */\n      0x00\n        /* \"CrowdFunding/crowdfunding.sol\":1580:1592  contributors */\n      dup1\n        /* \"CrowdFunding/crowdfunding.sol\":1580:1604  contributors[msg.sender] */\n      0x00\n        /* \"CrowdFunding/crowdfunding.sol\":1593:1603  msg.sender */\n      caller\n        /* \"CrowdFunding/crowdfunding.sol\":1580:1604  contributors[msg.sender] */\n      0xffffffffffffffffffffffffffffffffffffffff\n      and\n      0xffffffffffffffffffffffffffffffffffffffff\n      and\n      dup2\n      mstore\n      0x20\n      add\n      swap1\n      dup2\n      mstore\n      0x20\n      add\n      0x00\n      keccak256\n      sload\n        /* \"CrowdFunding/crowdfunding.sol\":1580:1608  contributors[msg.sender] > 0 */\n      gt\n        /* \"CrowdFunding/crowdfunding.sol\":1572:1637  require(contributors[msg.sender] > 0, \"You haven't contributed.\") */\n      tag_118\n      jumpi\n      mload(0x40)\n      0x08c379a000000000000000000000000000000000000000000000000000000000\n      dup2\n      mstore\n      0x04\n      add\n      tag_119\n      swap1\n      tag_120\n      jump\t// in\n    tag_119:\n      mload(0x40)\n      dup1\n      swap2\n      sub\n      swap1\n      revert\n    tag_118:\n        /* \"CrowdFunding/crowdfunding.sol\":1648:1679  address payable receiverAddress */\n      0x00\n        /* \"CrowdFunding/crowdfunding.sol\":1690:1700  msg.sender */\n      caller\n        /* \"CrowdFunding/crowdfunding.sol\":1648:1701  address payable receiverAddress = payable(msg.sender) */\n      swap1\n      pop\n        /* \"CrowdFunding/crowdfunding.sol\":1711:1726  receiverAddress */\n      dup1\n        /* \"CrowdFunding/crowdfunding.sol\":1711:1735  receiverAddress.transfer */\n      0xffffffffffffffffffffffffffffffffffffffff\n      and\n        /* \"CrowdFunding/crowdfunding.sol\":1711:1761  receiverAddress.transfer(contributors[msg.sender]) */\n      0x08fc\n        /* \"CrowdFunding/crowdfunding.sol\":1736:1748  contributors */\n      0x00\n        /* \"CrowdFunding/crowdfunding.sol\":1736:1760  contributors[msg.sender] */\n      dup1\n        /* \"CrowdFunding/crowdfunding.sol\":1749:1759  msg.sender */\n      caller\n        /* \"CrowdFunding/crowdfunding.sol\":1736:1760  contributors[msg.sender] */\n      0xffffffffffffffffffffffffffffffffffffffff\n      and\n      0xffffffffffffffffffffffffffffffffffffffff\n      and\n      dup2\n      mstore\n      0x20\n      add\n      swap1\n      dup2\n      mstore\n      0x20\n      add\n      0x00\n      keccak256\n      sload\n        /* \"CrowdFunding/crowdfunding.sol\":1711:1761  receiverAddress.transfer(contributors[msg.sender]) */\n      swap1\n      dup2\n      iszero\n      mul\n      swap1\n      mload(0x40)\n      0x00\n      mload(0x40)\n      dup1\n      dup4\n      sub\n      dup2\n      dup6\n      dup9\n      dup9\n      call\n      swap4\n      pop\n      pop\n      pop\n      pop\n      iszero\n      dup1\n      iszero\n      tag_122\n      jumpi\n      returndatasize\n      0x00\n      dup1\n      returndatacopy\n      revert(0x00, returndatasize)\n    tag_122:\n      pop\n        /* \"CrowdFunding/crowdfunding.sol\":1788:1800  contributors */\n      0x00\n        /* \"CrowdFunding/crowdfunding.sol\":1788:1812  contributors[msg.sender] */\n      dup1\n        /* \"CrowdFunding/crowdfunding.sol\":1801:1811  msg.sender */\n      caller\n        /* \"CrowdFunding/crowdfunding.sol\":1788:1812  contributors[msg.sender] */\n      0xffffffffffffffffffffffffffffffffffffffff\n      and\n      0xffffffffffffffffffffffffffffffffffffffff\n      and\n      dup2\n      mstore\n      0x20\n      add\n      swap1\n      dup2\n      mstore\n      0x20\n      add\n      0x00\n      keccak256\n      sload\n        /* \"CrowdFunding/crowdfunding.sol\":1772:1784  raisedAmount */\n      0x05\n      0x00\n        /* \"CrowdFunding/crowdfunding.sol\":1772:1812  raisedAmount -= contributors[msg.sender] */\n      dup3\n      dup3\n      sload\n      tag_123\n      swap2\n      swap1\n      tag_124\n      jump\t// in\n    tag_123:\n      swap3\n      pop\n      pop\n      dup2\n      swap1\n      sstore\n      pop\n        /* \"CrowdFunding/crowdfunding.sol\":1927:1928  0 */\n      0x00\n        /* \"CrowdFunding/crowdfunding.sol\":1900:1912  contributors */\n      dup1\n        /* \"CrowdFunding/crowdfunding.sol\":1900:1924  contributors[msg.sender] */\n      0x00\n        /* \"CrowdFunding/crowdfunding.sol\":1913:1923  msg.sender */\n      caller\n        /* \"CrowdFunding/crowdfunding.sol\":1900:1924  contributors[msg.sender] */\n      0xffffffffffffffffffffffffffffffffffffffff\n      and\n      0xffffffffffffffffffffffffffffffffffffffff\n      and\n      dup2\n      mstore\n      0x20\n      add\n      swap1\n      dup2\n      mstore\n      0x20\n      add\n      0x00\n      keccak256\n        /* \"CrowdFunding/crowdfunding.sol\":1900:1928  contributors[msg.sender] = 0 */\n      dup2\n      swap1\n      sstore\n      pop\n        /* \"CrowdFunding/crowdfunding.sol\":1938:1954  noOfContributors */\n      0x06\n      0x00\n        /* \"CrowdFunding/crowdfunding.sol\":1938:1956  noOfContributors-- */\n      dup2\n      sload\n      dup1\n      swap3\n      swap2\n      swap1\n      tag_125\n      swap1\n      tag_126\n      jump\t// in\n    tag_125:\n      swap2\n      swap1\n      pop\n      sstore\n      pop\n        /* \"CrowdFunding/crowdfunding.sol\":1444:1964  {... */\n      pop\n        /* \"CrowdFunding/crowdfunding.sol\":1420:1964  function refund() public{... */\n      jump\t// out\n        /* \"CrowdFunding/crowdfunding.sol\":1249:1413  function getContractBalance() public view returns(uint){... */\n    tag_56:\n        /* \"CrowdFunding/crowdfunding.sol\":1299:1303  uint */\n      0x00\n        /* \"CrowdFunding/crowdfunding.sol\":1385:1406  address(this).balance */\n      selfbalance\n        /* \"CrowdFunding/crowdfunding.sol\":1378:1406  return address(this).balance */\n      swap1\n      pop\n        /* \"CrowdFunding/crowdfunding.sol\":1249:1413  function getContractBalance() public view returns(uint){... */\n      swap1\n      jump\t// out\n        /* \"CrowdFunding/crowdfunding.sol\":536:574  mapping(uint=>Request) public requests */\n    tag_61:\n      mstore(0x20, 0x07)\n      dup1\n      0x00\n      mstore\n      keccak256(0x00, 0x40)\n      0x00\n      swap2\n      pop\n      swap1\n      pop\n      dup1\n      0x00\n      add\n      dup1\n      sload\n      tag_128\n      swap1\n      tag_129\n      jump\t// in\n    tag_128:\n      dup1\n      0x1f\n      add\n      0x20\n      dup1\n      swap2\n      div\n      mul\n      0x20\n      add\n      mload(0x40)\n      swap1\n      dup2\n      add\n      0x40\n      mstore\n      dup1\n      swap3\n      swap2\n      swap1\n      dup2\n      dup2\n      mstore\n      0x20\n      add\n      dup3\n      dup1\n      sload\n      tag_130\n      swap1\n      tag_129\n      jump\t// in\n    tag_130:\n      dup1\n      iszero\n      tag_131\n      jumpi\n      dup1\n      0x1f\n      lt\n      tag_132\n      jumpi\n      0x0100\n      dup1\n      dup4\n      sload\n      div\n      mul\n      dup4\n      mstore\n      swap2\n      0x20\n      add\n      swap2\n      jump(tag_131)\n    tag_132:\n      dup3\n      add\n      swap2\n      swap1\n      0x00\n      mstore\n      keccak256(0x00, 0x20)\n      swap1\n    tag_133:\n      dup2\n      sload\n      dup2\n      mstore\n      swap1\n      0x01\n      add\n      swap1\n      0x20\n      add\n      dup1\n      dup4\n      gt\n      tag_133\n      jumpi\n      dup3\n      swap1\n      sub\n      0x1f\n      and\n      dup3\n      add\n      swap2\n    tag_131:\n      pop\n      pop\n      pop\n      pop\n      pop\n      swap1\n      dup1\n      0x01\n      add\n      sload\n      swap1\n      dup1\n      0x02\n      add\n      0x00\n      swap1\n      sload\n      swap1\n      0x0100\n      exp\n      swap1\n      div\n      0xffffffffffffffffffffffffffffffffffffffff\n      and\n      swap1\n      dup1\n      0x02\n      add\n      0x14\n      swap1\n      sload\n      swap1\n      0x0100\n      exp\n      swap1\n      div\n      0xff\n      and\n      swap1\n      dup1\n      0x03\n      add\n      sload\n      swap1\n      pop\n      dup6\n      jump\t// out\n        /* \"CrowdFunding/crowdfunding.sol\":178:209  uint public minimumContribution */\n    tag_66:\n      sload(0x02)\n      dup2\n      jump\t// out\n        /* \"CrowdFunding/crowdfunding.sol\":241:265  uint public targetAmount */\n    tag_70:\n      sload(0x04)\n      dup2\n      jump\t// out\n        /* \"CrowdFunding/crowdfunding.sol\":580:603  uint public numRequests */\n    tag_74:\n      sload(0x08)\n      dup2\n      jump\t// out\n        /* \"CrowdFunding/crowdfunding.sol\":271:295  uint public raisedAmount */\n    tag_78:\n      sload(0x05)\n      dup2\n      jump\t// out\n    tag_100:\n      dup3\n      dup1\n      sload\n      tag_134\n      swap1\n      tag_129\n      jump\t// in\n    tag_134:\n      swap1\n      0x00\n      mstore\n      keccak256(0x00, 0x20)\n      swap1\n      0x1f\n      add\n      0x20\n      swap1\n      div\n      dup2\n      add\n      swap3\n      dup3\n      tag_136\n      jumpi\n      0x00\n      dup6\n      sstore\n      jump(tag_135)\n    tag_136:\n      dup3\n      0x1f\n      lt\n      tag_137\n      jumpi\n      dup1\n      mload\n      not(0xff)\n      and\n      dup4\n      dup1\n      add\n      or\n      dup6\n      sstore\n      jump(tag_135)\n    tag_137:\n      dup3\n      dup1\n      add\n      0x01\n      add\n      dup6\n      sstore\n      dup3\n      iszero\n      tag_135\n      jumpi\n      swap2\n      dup3\n      add\n    tag_138:\n      dup3\n      dup2\n      gt\n      iszero\n      tag_139\n      jumpi\n      dup3\n      mload\n      dup3\n      sstore\n      swap2\n      0x20\n      add\n      swap2\n      swap1\n      0x01\n      add\n      swap1\n      jump(tag_138)\n    tag_139:\n    tag_135:\n      pop\n      swap1\n      pop\n      tag_140\n      swap2\n      swap1\n      tag_141\n      jump\t// in\n    tag_140:\n      pop\n      swap1\n      jump\t// out\n    tag_141:\n    tag_142:\n      dup1\n      dup3\n      gt\n      iszero\n      tag_143\n      jumpi\n      0x00\n      dup2\n      0x00\n      swap1\n      sstore\n      pop\n      0x01\n      add\n      jump(tag_142)\n    tag_143:\n      pop\n      swap1\n      jump\t// out\n        /* \"#utility.yul\":7:419   */\n    tag_145:\n        /* \"#utility.yul\":85:90   */\n      0x00\n        /* \"#utility.yul\":110:176   */\n      tag_147\n        /* \"#utility.yul\":126:175   */\n      tag_148\n        /* \"#utility.yul\":168:174   */\n      dup5\n        /* \"#utility.yul\":126:175   */\n      tag_149\n      jump\t// in\n    tag_148:\n        /* \"#utility.yul\":110:176   */\n      tag_150\n      jump\t// in\n    tag_147:\n        /* \"#utility.yul\":101:176   */\n      swap1\n      pop\n        /* \"#utility.yul\":199:205   */\n      dup3\n        /* \"#utility.yul\":192:197   */\n      dup2\n        /* \"#utility.yul\":185:206   */\n      mstore\n        /* \"#utility.yul\":237:241   */\n      0x20\n        /* \"#utility.yul\":230:235   */\n      dup2\n        /* \"#utility.yul\":226:242   */\n      add\n        /* \"#utility.yul\":275:278   */\n      dup5\n        /* \"#utility.yul\":266:272   */\n      dup5\n        /* \"#utility.yul\":261:264   */\n      dup5\n        /* \"#utility.yul\":257:273   */\n      add\n        /* \"#utility.yul\":254:279   */\n      gt\n        /* \"#utility.yul\":251:363   */\n      iszero\n      tag_151\n      jumpi\n        /* \"#utility.yul\":282:361   */\n      tag_152\n      tag_153\n      jump\t// in\n    tag_152:\n        /* \"#utility.yul\":251:363   */\n    tag_151:\n        /* \"#utility.yul\":372:413   */\n      tag_154\n        /* \"#utility.yul\":406:412   */\n      dup5\n        /* \"#utility.yul\":401:404   */\n      dup3\n        /* \"#utility.yul\":396:399   */\n      dup6\n        /* \"#utility.yul\":372:413   */\n      tag_155\n      jump\t// in\n    tag_154:\n        /* \"#utility.yul\":91:419   */\n      pop\n        /* \"#utility.yul\":7:419   */\n      swap4\n      swap3\n      pop\n      pop\n      pop\n      jump\t// out\n        /* \"#utility.yul\":425:564   */\n    tag_156:\n        /* \"#utility.yul\":471:476   */\n      0x00\n        /* \"#utility.yul\":509:515   */\n      dup2\n        /* \"#utility.yul\":496:516   */\n      calldataload\n        /* \"#utility.yul\":487:516   */\n      swap1\n      pop\n        /* \"#utility.yul\":525:558   */\n      tag_158\n        /* \"#utility.yul\":552:557   */\n      dup2\n        /* \"#utility.yul\":525:558   */\n      tag_159\n      jump\t// in\n    tag_158:\n        /* \"#utility.yul\":425:564   */\n      swap3\n      swap2\n      pop\n      pop\n      jump\t// out\n        /* \"#utility.yul\":570:725   */\n    tag_160:\n        /* \"#utility.yul\":624:629   */\n      0x00\n        /* \"#utility.yul\":662:668   */\n      dup2\n        /* \"#utility.yul\":649:669   */\n      calldataload\n        /* \"#utility.yul\":640:669   */\n      swap1\n      pop\n        /* \"#utility.yul\":678:719   */\n      tag_162\n        /* \"#utility.yul\":713:718   */\n      dup2\n        /* \"#utility.yul\":678:719   */\n      tag_163\n      jump\t// in\n    tag_162:\n        /* \"#utility.yul\":570:725   */\n      swap3\n      swap2\n      pop\n      pop\n      jump\t// out\n        /* \"#utility.yul\":745:1085   */\n    tag_164:\n        /* \"#utility.yul\":801:806   */\n      0x00\n        /* \"#utility.yul\":850:853   */\n      dup3\n        /* \"#utility.yul\":843:847   */\n      0x1f\n        /* \"#utility.yul\":835:841   */\n      dup4\n        /* \"#utility.yul\":831:848   */\n      add\n        /* \"#utility.yul\":827:854   */\n      slt\n        /* \"#utility.yul\":817:939   */\n      tag_166\n      jumpi\n        /* \"#utility.yul\":858:937   */\n      tag_167\n      tag_168\n      jump\t// in\n    tag_167:\n        /* \"#utility.yul\":817:939   */\n    tag_166:\n        /* \"#utility.yul\":975:981   */\n      dup2\n        /* \"#utility.yul\":962:982   */\n      calldataload\n        /* \"#utility.yul\":1000:1079   */\n      tag_169\n        /* \"#utility.yul\":1075:1078   */\n      dup5\n        /* \"#utility.yul\":1067:1073   */\n      dup3\n        /* \"#utility.yul\":1060:1064   */\n      0x20\n        /* \"#utility.yul\":1052:1058   */\n      dup7\n        /* \"#utility.yul\":1048:1065   */\n      add\n        /* \"#utility.yul\":1000:1079   */\n      tag_145\n      jump\t// in\n    tag_169:\n        /* \"#utility.yul\":991:1079   */\n      swap2\n      pop\n        /* \"#utility.yul\":807:1085   */\n      pop\n        /* \"#utility.yul\":745:1085   */\n      swap3\n      swap2\n      pop\n      pop\n      jump\t// out\n        /* \"#utility.yul\":1091:1230   */\n    tag_170:\n        /* \"#utility.yul\":1137:1142   */\n      0x00\n        /* \"#utility.yul\":1175:1181   */\n      dup2\n        /* \"#utility.yul\":1162:1182   */\n      calldataload\n        /* \"#utility.yul\":1153:1182   */\n      swap1\n      pop\n        /* \"#utility.yul\":1191:1224   */\n      tag_172\n        /* \"#utility.yul\":1218:1223   */\n      dup2\n        /* \"#utility.yul\":1191:1224   */\n      tag_173\n      jump\t// in\n    tag_172:\n        /* \"#utility.yul\":1091:1230   */\n      swap3\n      swap2\n      pop\n      pop\n      jump\t// out\n        /* \"#utility.yul\":1236:1565   */\n    tag_29:\n        /* \"#utility.yul\":1295:1301   */\n      0x00\n        /* \"#utility.yul\":1344:1346   */\n      0x20\n        /* \"#utility.yul\":1332:1341   */\n      dup3\n        /* \"#utility.yul\":1323:1330   */\n      dup5\n        /* \"#utility.yul\":1319:1342   */\n      sub\n        /* \"#utility.yul\":1315:1347   */\n      slt\n        /* \"#utility.yul\":1312:1431   */\n      iszero\n      tag_175\n      jumpi\n        /* \"#utility.yul\":1350:1429   */\n      tag_176\n      tag_177\n      jump\t// in\n    tag_176:\n        /* \"#utility.yul\":1312:1431   */\n    tag_175:\n        /* \"#utility.yul\":1470:1471   */\n      0x00\n        /* \"#utility.yul\":1495:1548   */\n      tag_178\n        /* \"#utility.yul\":1540:1547   */\n      dup5\n        /* \"#utility.yul\":1531:1537   */\n      dup3\n        /* \"#utility.yul\":1520:1529   */\n      dup6\n        /* \"#utility.yul\":1516:1538   */\n      add\n        /* \"#utility.yul\":1495:1548   */\n      tag_156\n      jump\t// in\n    tag_178:\n        /* \"#utility.yul\":1485:1548   */\n      swap2\n      pop\n        /* \"#utility.yul\":1441:1558   */\n      pop\n        /* \"#utility.yul\":1236:1565   */\n      swap3\n      swap2\n      pop\n      pop\n      jump\t// out\n        /* \"#utility.yul\":1571:2386   */\n    tag_24:\n        /* \"#utility.yul\":1666:1672   */\n      0x00\n        /* \"#utility.yul\":1674:1680   */\n      dup1\n        /* \"#utility.yul\":1682:1688   */\n      0x00\n        /* \"#utility.yul\":1731:1733   */\n      0x60\n        /* \"#utility.yul\":1719:1728   */\n      dup5\n        /* \"#utility.yul\":1710:1717   */\n      dup7\n        /* \"#utility.yul\":1706:1729   */\n      sub\n        /* \"#utility.yul\":1702:1734   */\n      slt\n        /* \"#utility.yul\":1699:1818   */\n      iszero\n      tag_180\n      jumpi\n        /* \"#utility.yul\":1737:1816   */\n      tag_181\n      tag_177\n      jump\t// in\n    tag_181:\n        /* \"#utility.yul\":1699:1818   */\n    tag_180:\n        /* \"#utility.yul\":1885:1886   */\n      0x00\n        /* \"#utility.yul\":1874:1883   */\n      dup5\n        /* \"#utility.yul\":1870:1887   */\n      add\n        /* \"#utility.yul\":1857:1888   */\n      calldataload\n        /* \"#utility.yul\":1915:1933   */\n      0xffffffffffffffff\n        /* \"#utility.yul\":1907:1913   */\n      dup2\n        /* \"#utility.yul\":1904:1934   */\n      gt\n        /* \"#utility.yul\":1901:2018   */\n      iszero\n      tag_182\n      jumpi\n        /* \"#utility.yul\":1937:2016   */\n      tag_183\n      tag_184\n      jump\t// in\n    tag_183:\n        /* \"#utility.yul\":1901:2018   */\n    tag_182:\n        /* \"#utility.yul\":2042:2105   */\n      tag_185\n        /* \"#utility.yul\":2097:2104   */\n      dup7\n        /* \"#utility.yul\":2088:2094   */\n      dup3\n        /* \"#utility.yul\":2077:2086   */\n      dup8\n        /* \"#utility.yul\":2073:2095   */\n      add\n        /* \"#utility.yul\":2042:2105   */\n      tag_164\n      jump\t// in\n    tag_185:\n        /* \"#utility.yul\":2032:2105   */\n      swap4\n      pop\n        /* \"#utility.yul\":1828:2115   */\n      pop\n        /* \"#utility.yul\":2154:2156   */\n      0x20\n        /* \"#utility.yul\":2180:2241   */\n      tag_186\n        /* \"#utility.yul\":2233:2240   */\n      dup7\n        /* \"#utility.yul\":2224:2230   */\n      dup3\n        /* \"#utility.yul\":2213:2222   */\n      dup8\n        /* \"#utility.yul\":2209:2231   */\n      add\n        /* \"#utility.yul\":2180:2241   */\n      tag_160\n      jump\t// in\n    tag_186:\n        /* \"#utility.yul\":2170:2241   */\n      swap3\n      pop\n        /* \"#utility.yul\":2125:2251   */\n      pop\n        /* \"#utility.yul\":2290:2292   */\n      0x40\n        /* \"#utility.yul\":2316:2369   */\n      tag_187\n        /* \"#utility.yul\":2361:2368   */\n      dup7\n        /* \"#utility.yul\":2352:2358   */\n      dup3\n        /* \"#utility.yul\":2341:2350   */\n      dup8\n        /* \"#utility.yul\":2337:2359   */\n      add\n        /* \"#utility.yul\":2316:2369   */\n      tag_170\n      jump\t// in\n    tag_187:\n        /* \"#utility.yul\":2306:2369   */\n      swap2\n      pop\n        /* \"#utility.yul\":2261:2379   */\n      pop\n        /* \"#utility.yul\":1571:2386   */\n      swap3\n      pop\n      swap3\n      pop\n      swap3\n      jump\t// out\n        /* \"#utility.yul\":2392:2721   */\n    tag_45:\n        /* \"#utility.yul\":2451:2457   */\n      0x00\n        /* \"#utility.yul\":2500:2502   */\n      0x20\n        /* \"#utility.yul\":2488:2497   */\n      dup3\n        /* \"#utility.yul\":2479:2486   */\n      dup5\n        /* \"#utility.yul\":2475:2498   */\n      sub\n        /* \"#utility.yul\":2471:2503   */\n      slt\n        /* \"#utility.yul\":2468:2587   */\n      iszero\n      tag_189\n      jumpi\n        /* \"#utility.yul\":2506:2585   */\n      tag_190\n      tag_177\n      jump\t// in\n    tag_190:\n        /* \"#utility.yul\":2468:2587   */\n    tag_189:\n        /* \"#utility.yul\":2626:2627   */\n      0x00\n        /* \"#utility.yul\":2651:2704   */\n      tag_191\n        /* \"#utility.yul\":2696:2703   */\n      dup5\n        /* \"#utility.yul\":2687:2693   */\n      dup3\n        /* \"#utility.yul\":2676:2685   */\n      dup6\n        /* \"#utility.yul\":2672:2694   */\n      add\n        /* \"#utility.yul\":2651:2704   */\n      tag_170\n      jump\t// in\n    tag_191:\n        /* \"#utility.yul\":2641:2704   */\n      swap2\n      pop\n        /* \"#utility.yul\":2597:2714   */\n      pop\n        /* \"#utility.yul\":2392:2721   */\n      swap3\n      swap2\n      pop\n      pop\n      jump\t// out\n        /* \"#utility.yul\":2727:2869   */\n    tag_192:\n        /* \"#utility.yul\":2830:2862   */\n      tag_194\n        /* \"#utility.yul\":2856:2861   */\n      dup2\n        /* \"#utility.yul\":2830:2862   */\n      tag_195\n      jump\t// in\n    tag_194:\n        /* \"#utility.yul\":2825:2828   */\n      dup3\n        /* \"#utility.yul\":2818:2863   */\n      mstore\n        /* \"#utility.yul\":2727:2869   */\n      pop\n      pop\n      jump\t// out\n        /* \"#utility.yul\":2875:2993   */\n    tag_196:\n        /* \"#utility.yul\":2962:2986   */\n      tag_198\n        /* \"#utility.yul\":2980:2985   */\n      dup2\n        /* \"#utility.yul\":2962:2986   */\n      tag_199\n      jump\t// in\n    tag_198:\n        /* \"#utility.yul\":2957:2960   */\n      dup3\n        /* \"#utility.yul\":2950:2987   */\n      mstore\n        /* \"#utility.yul\":2875:2993   */\n      pop\n      pop\n      jump\t// out\n        /* \"#utility.yul\":2999:3108   */\n    tag_200:\n        /* \"#utility.yul\":3080:3101   */\n      tag_202\n        /* \"#utility.yul\":3095:3100   */\n      dup2\n        /* \"#utility.yul\":3080:3101   */\n      tag_203\n      jump\t// in\n    tag_202:\n        /* \"#utility.yul\":3075:3078   */\n      dup3\n        /* \"#utility.yul\":3068:3102   */\n      mstore\n        /* \"#utility.yul\":2999:3108   */\n      pop\n      pop\n      jump\t// out\n        /* \"#utility.yul\":3114:3478   */\n    tag_204:\n        /* \"#utility.yul\":3202:3205   */\n      0x00\n        /* \"#utility.yul\":3230:3269   */\n      tag_206\n        /* \"#utility.yul\":3263:3268   */\n      dup3\n        /* \"#utility.yul\":3230:3269   */\n      tag_207\n      jump\t// in\n    tag_206:\n        /* \"#utility.yul\":3285:3356   */\n      tag_208\n        /* \"#utility.yul\":3349:3355   */\n      dup2\n        /* \"#utility.yul\":3344:3347   */\n      dup6\n        /* \"#utility.yul\":3285:3356   */\n      tag_209\n      jump\t// in\n    tag_208:\n        /* \"#utility.yul\":3278:3356   */\n      swap4\n      pop\n        /* \"#utility.yul\":3365:3417   */\n      tag_210\n        /* \"#utility.yul\":3410:3416   */\n      dup2\n        /* \"#utility.yul\":3405:3408   */\n      dup6\n        /* \"#utility.yul\":3398:3402   */\n      0x20\n        /* \"#utility.yul\":3391:3396   */\n      dup7\n        /* \"#utility.yul\":3387:3403   */\n      add\n        /* \"#utility.yul\":3365:3417   */\n      tag_211\n      jump\t// in\n    tag_210:\n        /* \"#utility.yul\":3442:3471   */\n      tag_212\n        /* \"#utility.yul\":3464:3470   */\n      dup2\n        /* \"#utility.yul\":3442:3471   */\n      tag_213\n      jump\t// in\n    tag_212:\n        /* \"#utility.yul\":3437:3440   */\n      dup5\n        /* \"#utility.yul\":3433:3472   */\n      add\n        /* \"#utility.yul\":3426:3472   */\n      swap2\n      pop\n        /* \"#utility.yul\":3206:3478   */\n      pop\n        /* \"#utility.yul\":3114:3478   */\n      swap3\n      swap2\n      pop\n      pop\n      jump\t// out\n        /* \"#utility.yul\":3484:3850   */\n    tag_214:\n        /* \"#utility.yul\":3626:3629   */\n      0x00\n        /* \"#utility.yul\":3647:3714   */\n      tag_216\n        /* \"#utility.yul\":3711:3713   */\n      0x24\n        /* \"#utility.yul\":3706:3709   */\n      dup4\n        /* \"#utility.yul\":3647:3714   */\n      tag_209\n      jump\t// in\n    tag_216:\n        /* \"#utility.yul\":3640:3714   */\n      swap2\n      pop\n        /* \"#utility.yul\":3723:3816   */\n      tag_217\n        /* \"#utility.yul\":3812:3815   */\n      dup3\n        /* \"#utility.yul\":3723:3816   */\n      tag_218\n      jump\t// in\n    tag_217:\n        /* \"#utility.yul\":3841:3843   */\n      0x40\n        /* \"#utility.yul\":3836:3839   */\n      dup3\n        /* \"#utility.yul\":3832:3844   */\n      add\n        /* \"#utility.yul\":3825:3844   */\n      swap1\n      pop\n        /* \"#utility.yul\":3484:3850   */\n      swap2\n      swap1\n      pop\n      jump\t// out\n        /* \"#utility.yul\":3856:4222   */\n    tag_219:\n        /* \"#utility.yul\":3998:4001   */\n      0x00\n        /* \"#utility.yul\":4019:4086   */\n      tag_221\n        /* \"#utility.yul\":4083:4085   */\n      0x17\n        /* \"#utility.yul\":4078:4081   */\n      dup4\n        /* \"#utility.yul\":4019:4086   */\n      tag_209\n      jump\t// in\n    tag_221:\n        /* \"#utility.yul\":4012:4086   */\n      swap2\n      pop\n        /* \"#utility.yul\":4095:4188   */\n      tag_222\n        /* \"#utility.yul\":4184:4187   */\n      dup3\n        /* \"#utility.yul\":4095:4188   */\n      tag_223\n      jump\t// in\n    tag_222:\n        /* \"#utility.yul\":4213:4215   */\n      0x20\n        /* \"#utility.yul\":4208:4211   */\n      dup3\n        /* \"#utility.yul\":4204:4216   */\n      add\n        /* \"#utility.yul\":4197:4216   */\n      swap1\n      pop\n        /* \"#utility.yul\":3856:4222   */\n      swap2\n      swap1\n      pop\n      jump\t// out\n        /* \"#utility.yul\":4228:4594   */\n    tag_224:\n        /* \"#utility.yul\":4370:4373   */\n      0x00\n        /* \"#utility.yul\":4391:4458   */\n      tag_226\n        /* \"#utility.yul\":4455:4457   */\n      0x18\n        /* \"#utility.yul\":4450:4453   */\n      dup4\n        /* \"#utility.yul\":4391:4458   */\n      tag_209\n      jump\t// in\n    tag_226:\n        /* \"#utility.yul\":4384:4458   */\n      swap2\n      pop\n        /* \"#utility.yul\":4467:4560   */\n      tag_227\n        /* \"#utility.yul\":4556:4559   */\n      dup3\n        /* \"#utility.yul\":4467:4560   */\n      tag_228\n      jump\t// in\n    tag_227:\n        /* \"#utility.yul\":4585:4587   */\n      0x20\n        /* \"#utility.yul\":4580:4583   */\n      dup3\n        /* \"#utility.yul\":4576:4588   */\n      add\n        /* \"#utility.yul\":4569:4588   */\n      swap1\n      pop\n        /* \"#utility.yul\":4228:4594   */\n      swap2\n      swap1\n      pop\n      jump\t// out\n        /* \"#utility.yul\":4600:4966   */\n    tag_229:\n        /* \"#utility.yul\":4742:4745   */\n      0x00\n        /* \"#utility.yul\":4763:4830   */\n      tag_231\n        /* \"#utility.yul\":4827:4829   */\n      0x28\n        /* \"#utility.yul\":4822:4825   */\n      dup4\n        /* \"#utility.yul\":4763:4830   */\n      tag_209\n      jump\t// in\n    tag_231:\n        /* \"#utility.yul\":4756:4830   */\n      swap2\n      pop\n        /* \"#utility.yul\":4839:4932   */\n      tag_232\n        /* \"#utility.yul\":4928:4931   */\n      dup3\n        /* \"#utility.yul\":4839:4932   */\n      tag_233\n      jump\t// in\n    tag_232:\n        /* \"#utility.yul\":4957:4959   */\n      0x40\n        /* \"#utility.yul\":4952:4955   */\n      dup3\n        /* \"#utility.yul\":4948:4960   */\n      add\n        /* \"#utility.yul\":4941:4960   */\n      swap1\n      pop\n        /* \"#utility.yul\":4600:4966   */\n      swap2\n      swap1\n      pop\n      jump\t// out\n        /* \"#utility.yul\":4972:5338   */\n    tag_234:\n        /* \"#utility.yul\":5114:5117   */\n      0x00\n        /* \"#utility.yul\":5135:5202   */\n      tag_236\n        /* \"#utility.yul\":5199:5201   */\n      0x43\n        /* \"#utility.yul\":5194:5197   */\n      dup4\n        /* \"#utility.yul\":5135:5202   */\n      tag_209\n      jump\t// in\n    tag_236:\n        /* \"#utility.yul\":5128:5202   */\n      swap2\n      pop\n        /* \"#utility.yul\":5211:5304   */\n      tag_237\n        /* \"#utility.yul\":5300:5303   */\n      dup3\n        /* \"#utility.yul\":5211:5304   */\n      tag_238\n      jump\t// in\n    tag_237:\n        /* \"#utility.yul\":5329:5331   */\n      0x60\n        /* \"#utility.yul\":5324:5327   */\n      dup3\n        /* \"#utility.yul\":5320:5332   */\n      add\n        /* \"#utility.yul\":5313:5332   */\n      swap1\n      pop\n        /* \"#utility.yul\":4972:5338   */\n      swap2\n      swap1\n      pop\n      jump\t// out\n        /* \"#utility.yul\":5344:5710   */\n    tag_239:\n        /* \"#utility.yul\":5486:5489   */\n      0x00\n        /* \"#utility.yul\":5507:5574   */\n      tag_241\n        /* \"#utility.yul\":5571:5573   */\n      0x26\n        /* \"#utility.yul\":5566:5569   */\n      dup4\n        /* \"#utility.yul\":5507:5574   */\n      tag_209\n      jump\t// in\n    tag_241:\n        /* \"#utility.yul\":5500:5574   */\n      swap2\n      pop\n        /* \"#utility.yul\":5583:5676   */\n      tag_242\n        /* \"#utility.yul\":5672:5675   */\n      dup3\n        /* \"#utility.yul\":5583:5676   */\n      tag_243\n      jump\t// in\n    tag_242:\n        /* \"#utility.yul\":5701:5703   */\n      0x40\n        /* \"#utility.yul\":5696:5699   */\n      dup3\n        /* \"#utility.yul\":5692:5704   */\n      add\n        /* \"#utility.yul\":5685:5704   */\n      swap1\n      pop\n        /* \"#utility.yul\":5344:5710   */\n      swap2\n      swap1\n      pop\n      jump\t// out\n        /* \"#utility.yul\":5716:6082   */\n    tag_244:\n        /* \"#utility.yul\":5858:5861   */\n      0x00\n        /* \"#utility.yul\":5879:5946   */\n      tag_246\n        /* \"#utility.yul\":5943:5945   */\n      0x23\n        /* \"#utility.yul\":5938:5941   */\n      dup4\n        /* \"#utility.yul\":5879:5946   */\n      tag_209\n      jump\t// in\n    tag_246:\n        /* \"#utility.yul\":5872:5946   */\n      swap2\n      pop\n        /* \"#utility.yul\":5955:6048   */\n      tag_247\n        /* \"#utility.yul\":6044:6047   */\n      dup3\n        /* \"#utility.yul\":5955:6048   */\n      tag_248\n      jump\t// in\n    tag_247:\n        /* \"#utility.yul\":6073:6075   */\n      0x40\n        /* \"#utility.yul\":6068:6071   */\n      dup3\n        /* \"#utility.yul\":6064:6076   */\n      add\n        /* \"#utility.yul\":6057:6076   */\n      swap1\n      pop\n        /* \"#utility.yul\":5716:6082   */\n      swap2\n      swap1\n      pop\n      jump\t// out\n        /* \"#utility.yul\":6088:6454   */\n    tag_249:\n        /* \"#utility.yul\":6230:6233   */\n      0x00\n        /* \"#utility.yul\":6251:6318   */\n      tag_251\n        /* \"#utility.yul\":6315:6317   */\n      0x56\n        /* \"#utility.yul\":6310:6313   */\n      dup4\n        /* \"#utility.yul\":6251:6318   */\n      tag_209\n      jump\t// in\n    tag_251:\n        /* \"#utility.yul\":6244:6318   */\n      swap2\n      pop\n        /* \"#utility.yul\":6327:6420   */\n      tag_252\n        /* \"#utility.yul\":6416:6419   */\n      dup3\n        /* \"#utility.yul\":6327:6420   */\n      tag_253\n      jump\t// in\n    tag_252:\n        /* \"#utility.yul\":6445:6447   */\n      0x60\n        /* \"#utility.yul\":6440:6443   */\n      dup3\n        /* \"#utility.yul\":6436:6448   */\n      add\n        /* \"#utility.yul\":6429:6448   */\n      swap1\n      pop\n        /* \"#utility.yul\":6088:6454   */\n      swap2\n      swap1\n      pop\n      jump\t// out\n        /* \"#utility.yul\":6460:6578   */\n    tag_254:\n        /* \"#utility.yul\":6547:6571   */\n      tag_256\n        /* \"#utility.yul\":6565:6570   */\n      dup2\n        /* \"#utility.yul\":6547:6571   */\n      tag_257\n      jump\t// in\n    tag_256:\n        /* \"#utility.yul\":6542:6545   */\n      dup3\n        /* \"#utility.yul\":6535:6572   */\n      mstore\n        /* \"#utility.yul\":6460:6578   */\n      pop\n      pop\n      jump\t// out\n        /* \"#utility.yul\":6584:6806   */\n    tag_41:\n        /* \"#utility.yul\":6677:6681   */\n      0x00\n        /* \"#utility.yul\":6715:6717   */\n      0x20\n        /* \"#utility.yul\":6704:6713   */\n      dup3\n        /* \"#utility.yul\":6700:6718   */\n      add\n        /* \"#utility.yul\":6692:6718   */\n      swap1\n      pop\n        /* \"#utility.yul\":6728:6799   */\n      tag_259\n        /* \"#utility.yul\":6796:6797   */\n      0x00\n        /* \"#utility.yul\":6785:6794   */\n      dup4\n        /* \"#utility.yul\":6781:6798   */\n      add\n        /* \"#utility.yul\":6772:6778   */\n      dup5\n        /* \"#utility.yul\":6728:6799   */\n      tag_196\n      jump\t// in\n    tag_259:\n        /* \"#utility.yul\":6584:6806   */\n      swap3\n      swap2\n      pop\n      pop\n      jump\t// out\n        /* \"#utility.yul\":6812:7587   */\n    tag_63:\n        /* \"#utility.yul\":7047:7051   */\n      0x00\n        /* \"#utility.yul\":7085:7088   */\n      0xa0\n        /* \"#utility.yul\":7074:7083   */\n      dup3\n        /* \"#utility.yul\":7070:7089   */\n      add\n        /* \"#utility.yul\":7062:7089   */\n      swap1\n      pop\n        /* \"#utility.yul\":7135:7144   */\n      dup2\n        /* \"#utility.yul\":7129:7133   */\n      dup2\n        /* \"#utility.yul\":7125:7145   */\n      sub\n        /* \"#utility.yul\":7121:7122   */\n      0x00\n        /* \"#utility.yul\":7110:7119   */\n      dup4\n        /* \"#utility.yul\":7106:7123   */\n      add\n        /* \"#utility.yul\":7099:7146   */\n      mstore\n        /* \"#utility.yul\":7163:7241   */\n      tag_261\n        /* \"#utility.yul\":7236:7240   */\n      dup2\n        /* \"#utility.yul\":7227:7233   */\n      dup9\n        /* \"#utility.yul\":7163:7241   */\n      tag_204\n      jump\t// in\n    tag_261:\n        /* \"#utility.yul\":7155:7241   */\n      swap1\n      pop\n        /* \"#utility.yul\":7251:7323   */\n      tag_262\n        /* \"#utility.yul\":7319:7321   */\n      0x20\n        /* \"#utility.yul\":7308:7317   */\n      dup4\n        /* \"#utility.yul\":7304:7322   */\n      add\n        /* \"#utility.yul\":7295:7301   */\n      dup8\n        /* \"#utility.yul\":7251:7323   */\n      tag_254\n      jump\t// in\n    tag_262:\n        /* \"#utility.yul\":7333:7421   */\n      tag_263\n        /* \"#utility.yul\":7417:7419   */\n      0x40\n        /* \"#utility.yul\":7406:7415   */\n      dup4\n        /* \"#utility.yul\":7402:7420   */\n      add\n        /* \"#utility.yul\":7393:7399   */\n      dup7\n        /* \"#utility.yul\":7333:7421   */\n      tag_192\n      jump\t// in\n    tag_263:\n        /* \"#utility.yul\":7431:7497   */\n      tag_264\n        /* \"#utility.yul\":7493:7495   */\n      0x60\n        /* \"#utility.yul\":7482:7491   */\n      dup4\n        /* \"#utility.yul\":7478:7496   */\n      add\n        /* \"#utility.yul\":7469:7475   */\n      dup6\n        /* \"#utility.yul\":7431:7497   */\n      tag_200\n      jump\t// in\n    tag_264:\n        /* \"#utility.yul\":7507:7580   */\n      tag_265\n        /* \"#utility.yul\":7575:7578   */\n      0x80\n        /* \"#utility.yul\":7564:7573   */\n      dup4\n        /* \"#utility.yul\":7560:7579   */\n      add\n        /* \"#utility.yul\":7551:7557   */\n      dup5\n        /* \"#utility.yul\":7507:7580   */\n      tag_254\n      jump\t// in\n    tag_265:\n        /* \"#utility.yul\":6812:7587   */\n      swap7\n      swap6\n      pop\n      pop\n      pop\n      pop\n      pop\n      pop\n      jump\t// out\n        /* \"#utility.yul\":7593:8012   */\n    tag_83:\n        /* \"#utility.yul\":7759:7763   */\n      0x00\n        /* \"#utility.yul\":7797:7799   */\n      0x20\n        /* \"#utility.yul\":7786:7795   */\n      dup3\n        /* \"#utility.yul\":7782:7800   */\n      add\n        /* \"#utility.yul\":7774:7800   */\n      swap1\n      pop\n        /* \"#utility.yul\":7846:7855   */\n      dup2\n        /* \"#utility.yul\":7840:7844   */\n      dup2\n        /* \"#utility.yul\":7836:7856   */\n      sub\n        /* \"#utility.yul\":7832:7833   */\n      0x00\n        /* \"#utility.yul\":7821:7830   */\n      dup4\n        /* \"#utility.yul\":7817:7834   */\n      add\n        /* \"#utility.yul\":7810:7857   */\n      mstore\n        /* \"#utility.yul\":7874:8005   */\n      tag_267\n        /* \"#utility.yul\":8000:8004   */\n      dup2\n        /* \"#utility.yul\":7874:8005   */\n      tag_214\n      jump\t// in\n    tag_267:\n        /* \"#utility.yul\":7866:8005   */\n      swap1\n      pop\n        /* \"#utility.yul\":7593:8012   */\n      swap2\n      swap1\n      pop\n      jump\t// out\n        /* \"#utility.yul\":8018:8437   */\n    tag_108:\n        /* \"#utility.yul\":8184:8188   */\n      0x00\n        /* \"#utility.yul\":8222:8224   */\n      0x20\n        /* \"#utility.yul\":8211:8220   */\n      dup3\n        /* \"#utility.yul\":8207:8225   */\n      add\n        /* \"#utility.yul\":8199:8225   */\n      swap1\n      pop\n        /* \"#utility.yul\":8271:8280   */\n      dup2\n        /* \"#utility.yul\":8265:8269   */\n      dup2\n        /* \"#utility.yul\":8261:8281   */\n      sub\n        /* \"#utility.yul\":8257:8258   */\n      0x00\n        /* \"#utility.yul\":8246:8255   */\n      dup4\n        /* \"#utility.yul\":8242:8259   */\n      add\n        /* \"#utility.yul\":8235:8282   */\n      mstore\n        /* \"#utility.yul\":8299:8430   */\n      tag_269\n        /* \"#utility.yul\":8425:8429   */\n      dup2\n        /* \"#utility.yul\":8299:8430   */\n      tag_219\n      jump\t// in\n    tag_269:\n        /* \"#utility.yul\":8291:8430   */\n      swap1\n      pop\n        /* \"#utility.yul\":8018:8437   */\n      swap2\n      swap1\n      pop\n      jump\t// out\n        /* \"#utility.yul\":8443:8862   */\n    tag_120:\n        /* \"#utility.yul\":8609:8613   */\n      0x00\n        /* \"#utility.yul\":8647:8649   */\n      0x20\n        /* \"#utility.yul\":8636:8645   */\n      dup3\n        /* \"#utility.yul\":8632:8650   */\n      add\n        /* \"#utility.yul\":8624:8650   */\n      swap1\n      pop\n        /* \"#utility.yul\":8696:8705   */\n      dup2\n        /* \"#utility.yul\":8690:8694   */\n      dup2\n        /* \"#utility.yul\":8686:8706   */\n      sub\n        /* \"#utility.yul\":8682:8683   */\n      0x00\n        /* \"#utility.yul\":8671:8680   */\n      dup4\n        /* \"#utility.yul\":8667:8684   */\n      add\n        /* \"#utility.yul\":8660:8707   */\n      mstore\n        /* \"#utility.yul\":8724:8855   */\n      tag_271\n        /* \"#utility.yul\":8850:8854   */\n      dup2\n        /* \"#utility.yul\":8724:8855   */\n      tag_224\n      jump\t// in\n    tag_271:\n        /* \"#utility.yul\":8716:8855   */\n      swap1\n      pop\n        /* \"#utility.yul\":8443:8862   */\n      swap2\n      swap1\n      pop\n      jump\t// out\n        /* \"#utility.yul\":8868:9287   */\n    tag_86:\n        /* \"#utility.yul\":9034:9038   */\n      0x00\n        /* \"#utility.yul\":9072:9074   */\n      0x20\n        /* \"#utility.yul\":9061:9070   */\n      dup3\n        /* \"#utility.yul\":9057:9075   */\n      add\n        /* \"#utility.yul\":9049:9075   */\n      swap1\n      pop\n        /* \"#utility.yul\":9121:9130   */\n      dup2\n        /* \"#utility.yul\":9115:9119   */\n      dup2\n        /* \"#utility.yul\":9111:9131   */\n      sub\n        /* \"#utility.yul\":9107:9108   */\n      0x00\n        /* \"#utility.yul\":9096:9105   */\n      dup4\n        /* \"#utility.yul\":9092:9109   */\n      add\n        /* \"#utility.yul\":9085:9132   */\n      mstore\n        /* \"#utility.yul\":9149:9280   */\n      tag_273\n        /* \"#utility.yul\":9275:9279   */\n      dup2\n        /* \"#utility.yul\":9149:9280   */\n      tag_229\n      jump\t// in\n    tag_273:\n        /* \"#utility.yul\":9141:9280   */\n      swap1\n      pop\n        /* \"#utility.yul\":8868:9287   */\n      swap2\n      swap1\n      pop\n      jump\t// out\n        /* \"#utility.yul\":9293:9712   */\n    tag_104:\n        /* \"#utility.yul\":9459:9463   */\n      0x00\n        /* \"#utility.yul\":9497:9499   */\n      0x20\n        /* \"#utility.yul\":9486:9495   */\n      dup3\n        /* \"#utility.yul\":9482:9500   */\n      add\n        /* \"#utility.yul\":9474:9500   */\n      swap1\n      pop\n        /* \"#utility.yul\":9546:9555   */\n      dup2\n        /* \"#utility.yul\":9540:9544   */\n      dup2\n        /* \"#utility.yul\":9536:9556   */\n      sub\n        /* \"#utility.yul\":9532:9533   */\n      0x00\n        /* \"#utility.yul\":9521:9530   */\n      dup4\n        /* \"#utility.yul\":9517:9534   */\n      add\n        /* \"#utility.yul\":9510:9557   */\n      mstore\n        /* \"#utility.yul\":9574:9705   */\n      tag_275\n        /* \"#utility.yul\":9700:9704   */\n      dup2\n        /* \"#utility.yul\":9574:9705   */\n      tag_234\n      jump\t// in\n    tag_275:\n        /* \"#utility.yul\":9566:9705   */\n      swap1\n      pop\n        /* \"#utility.yul\":9293:9712   */\n      swap2\n      swap1\n      pop\n      jump\t// out\n        /* \"#utility.yul\":9718:10137   */\n    tag_117:\n        /* \"#utility.yul\":9884:9888   */\n      0x00\n        /* \"#utility.yul\":9922:9924   */\n      0x20\n        /* \"#utility.yul\":9911:9920   */\n      dup3\n        /* \"#utility.yul\":9907:9925   */\n      add\n        /* \"#utility.yul\":9899:9925   */\n      swap1\n      pop\n        /* \"#utility.yul\":9971:9980   */\n      dup2\n        /* \"#utility.yul\":9965:9969   */\n      dup2\n        /* \"#utility.yul\":9961:9981   */\n      sub\n        /* \"#utility.yul\":9957:9958   */\n      0x00\n        /* \"#utility.yul\":9946:9955   */\n      dup4\n        /* \"#utility.yul\":9942:9959   */\n      add\n        /* \"#utility.yul\":9935:9982   */\n      mstore\n        /* \"#utility.yul\":9999:10130   */\n      tag_277\n        /* \"#utility.yul\":10125:10129   */\n      dup2\n        /* \"#utility.yul\":9999:10130   */\n      tag_239\n      jump\t// in\n    tag_277:\n        /* \"#utility.yul\":9991:10130   */\n      swap1\n      pop\n        /* \"#utility.yul\":9718:10137   */\n      swap2\n      swap1\n      pop\n      jump\t// out\n        /* \"#utility.yul\":10143:10562   */\n    tag_96:\n        /* \"#utility.yul\":10309:10313   */\n      0x00\n        /* \"#utility.yul\":10347:10349   */\n      0x20\n        /* \"#utility.yul\":10336:10345   */\n      dup3\n        /* \"#utility.yul\":10332:10350   */\n      add\n        /* \"#utility.yul\":10324:10350   */\n      swap1\n      pop\n        /* \"#utility.yul\":10396:10405   */\n      dup2\n        /* \"#utility.yul\":10390:10394   */\n      dup2\n        /* \"#utility.yul\":10386:10406   */\n      sub\n        /* \"#utility.yul\":10382:10383   */\n      0x00\n        /* \"#utility.yul\":10371:10380   */\n      dup4\n        /* \"#utility.yul\":10367:10384   */\n      add\n        /* \"#utility.yul\":10360:10407   */\n      mstore\n        /* \"#utility.yul\":10424:10555   */\n      tag_279\n        /* \"#utility.yul\":10550:10554   */\n      dup2\n        /* \"#utility.yul\":10424:10555   */\n      tag_244\n      jump\t// in\n    tag_279:\n        /* \"#utility.yul\":10416:10555   */\n      swap1\n      pop\n        /* \"#utility.yul\":10143:10562   */\n      swap2\n      swap1\n      pop\n      jump\t// out\n        /* \"#utility.yul\":10568:10987   */\n    tag_111:\n        /* \"#utility.yul\":10734:10738   */\n      0x00\n        /* \"#utility.yul\":10772:10774   */\n      0x20\n        /* \"#utility.yul\":10761:10770   */\n      dup3\n        /* \"#utility.yul\":10757:10775   */\n      add\n        /* \"#utility.yul\":10749:10775   */\n      swap1\n      pop\n        /* \"#utility.yul\":10821:10830   */\n      dup2\n        /* \"#utility.yul\":10815:10819   */\n      dup2\n        /* \"#utility.yul\":10811:10831   */\n      sub\n        /* \"#utility.yul\":10807:10808   */\n      0x00\n        /* \"#utility.yul\":10796:10805   */\n      dup4\n        /* \"#utility.yul\":10792:10809   */\n      add\n        /* \"#utility.yul\":10785:10832   */\n      mstore\n        /* \"#utility.yul\":10849:10980   */\n      tag_281\n        /* \"#utility.yul\":10975:10979   */\n      dup2\n        /* \"#utility.yul\":10849:10980   */\n      tag_249\n      jump\t// in\n    tag_281:\n        /* \"#utility.yul\":10841:10980   */\n      swap1\n      pop\n        /* \"#utility.yul\":10568:10987   */\n      swap2\n      swap1\n      pop\n      jump\t// out\n        /* \"#utility.yul\":10993:11215   */\n    tag_32:\n        /* \"#utility.yul\":11086:11090   */\n      0x00\n        /* \"#utility.yul\":11124:11126   */\n      0x20\n        /* \"#utility.yul\":11113:11122   */\n      dup3\n        /* \"#utility.yul\":11109:11127   */\n      add\n        /* \"#utility.yul\":11101:11127   */\n      swap1\n      pop\n        /* \"#utility.yul\":11137:11208   */\n      tag_283\n        /* \"#utility.yul\":11205:11206   */\n      0x00\n        /* \"#utility.yul\":11194:11203   */\n      dup4\n        /* \"#utility.yul\":11190:11207   */\n      add\n        /* \"#utility.yul\":11181:11187   */\n      dup5\n        /* \"#utility.yul\":11137:11208   */\n      tag_254\n      jump\t// in\n    tag_283:\n        /* \"#utility.yul\":10993:11215   */\n      swap3\n      swap2\n      pop\n      pop\n      jump\t// out\n        /* \"#utility.yul\":11221:11350   */\n    tag_150:\n        /* \"#utility.yul\":11255:11261   */\n      0x00\n        /* \"#utility.yul\":11282:11302   */\n      tag_285\n      tag_286\n      jump\t// in\n    tag_285:\n        /* \"#utility.yul\":11272:11302   */\n      swap1\n      pop\n        /* \"#utility.yul\":11311:11344   */\n      tag_287\n        /* \"#utility.yul\":11339:11343   */\n      dup3\n        /* \"#utility.yul\":11331:11337   */\n      dup3\n        /* \"#utility.yul\":11311:11344   */\n      tag_288\n      jump\t// in\n    tag_287:\n        /* \"#utility.yul\":11221:11350   */\n      swap2\n      swap1\n      pop\n      jump\t// out\n        /* \"#utility.yul\":11356:11431   */\n    tag_286:\n        /* \"#utility.yul\":11389:11395   */\n      0x00\n        /* \"#utility.yul\":11422:11424   */\n      0x40\n        /* \"#utility.yul\":11416:11425   */\n      mload\n        /* \"#utility.yul\":11406:11425   */\n      swap1\n      pop\n        /* \"#utility.yul\":11356:11431   */\n      swap1\n      jump\t// out\n        /* \"#utility.yul\":11437:11745   */\n    tag_149:\n        /* \"#utility.yul\":11499:11503   */\n      0x00\n        /* \"#utility.yul\":11589:11607   */\n      0xffffffffffffffff\n        /* \"#utility.yul\":11581:11587   */\n      dup3\n        /* \"#utility.yul\":11578:11608   */\n      gt\n        /* \"#utility.yul\":11575:11631   */\n      iszero\n      tag_291\n      jumpi\n        /* \"#utility.yul\":11611:11629   */\n      tag_292\n      tag_293\n      jump\t// in\n    tag_292:\n        /* \"#utility.yul\":11575:11631   */\n    tag_291:\n        /* \"#utility.yul\":11649:11678   */\n      tag_294\n        /* \"#utility.yul\":11671:11677   */\n      dup3\n        /* \"#utility.yul\":11649:11678   */\n      tag_213\n      jump\t// in\n    tag_294:\n        /* \"#utility.yul\":11641:11678   */\n      swap1\n      pop\n        /* \"#utility.yul\":11733:11737   */\n      0x20\n        /* \"#utility.yul\":11727:11731   */\n      dup2\n        /* \"#utility.yul\":11723:11738   */\n      add\n        /* \"#utility.yul\":11715:11738   */\n      swap1\n      pop\n        /* \"#utility.yul\":11437:11745   */\n      swap2\n      swap1\n      pop\n      jump\t// out\n        /* \"#utility.yul\":11751:11850   */\n    tag_207:\n        /* \"#utility.yul\":11803:11809   */\n      0x00\n        /* \"#utility.yul\":11837:11842   */\n      dup2\n        /* \"#utility.yul\":11831:11843   */\n      mload\n        /* \"#utility.yul\":11821:11843   */\n      swap1\n      pop\n        /* \"#utility.yul\":11751:11850   */\n      swap2\n      swap1\n      pop\n      jump\t// out\n        /* \"#utility.yul\":11856:12025   */\n    tag_209:\n        /* \"#utility.yul\":11940:11951   */\n      0x00\n        /* \"#utility.yul\":11974:11980   */\n      dup3\n        /* \"#utility.yul\":11969:11972   */\n      dup3\n        /* \"#utility.yul\":11962:11981   */\n      mstore\n        /* \"#utility.yul\":12014:12018   */\n      0x20\n        /* \"#utility.yul\":12009:12012   */\n      dup3\n        /* \"#utility.yul\":12005:12019   */\n      add\n        /* \"#utility.yul\":11990:12019   */\n      swap1\n      pop\n        /* \"#utility.yul\":11856:12025   */\n      swap3\n      swap2\n      pop\n      pop\n      jump\t// out\n        /* \"#utility.yul\":12031:12336   */\n    tag_91:\n        /* \"#utility.yul\":12071:12074   */\n      0x00\n        /* \"#utility.yul\":12090:12110   */\n      tag_298\n        /* \"#utility.yul\":12108:12109   */\n      dup3\n        /* \"#utility.yul\":12090:12110   */\n      tag_257\n      jump\t// in\n    tag_298:\n        /* \"#utility.yul\":12085:12110   */\n      swap2\n      pop\n        /* \"#utility.yul\":12124:12144   */\n      tag_299\n        /* \"#utility.yul\":12142:12143   */\n      dup4\n        /* \"#utility.yul\":12124:12144   */\n      tag_257\n      jump\t// in\n    tag_299:\n        /* \"#utility.yul\":12119:12144   */\n      swap3\n      pop\n        /* \"#utility.yul\":12278:12279   */\n      dup3\n        /* \"#utility.yul\":12210:12276   */\n      0xffffffffffffffffffffffffffffffffffffffffffffffffffffffffffffffff\n        /* \"#utility.yul\":12206:12280   */\n      sub\n        /* \"#utility.yul\":12203:12204   */\n      dup3\n        /* \"#utility.yul\":12200:12281   */\n      gt\n        /* \"#utility.yul\":12197:12304   */\n      iszero\n      tag_300\n      jumpi\n        /* \"#utility.yul\":12284:12302   */\n      tag_301\n      tag_302\n      jump\t// in\n    tag_301:\n        /* \"#utility.yul\":12197:12304   */\n    tag_300:\n        /* \"#utility.yul\":12328:12329   */\n      dup3\n        /* \"#utility.yul\":12325:12326   */\n      dup3\n        /* \"#utility.yul\":12321:12330   */\n      add\n        /* \"#utility.yul\":12314:12330   */\n      swap1\n      pop\n        /* \"#utility.yul\":12031:12336   */\n      swap3\n      swap2\n      pop\n      pop\n      jump\t// out\n        /* \"#utility.yul\":12342:12533   */\n    tag_124:\n        /* \"#utility.yul\":12382:12386   */\n      0x00\n        /* \"#utility.yul\":12402:12422   */\n      tag_304\n        /* \"#utility.yul\":12420:12421   */\n      dup3\n        /* \"#utility.yul\":12402:12422   */\n      tag_257\n      jump\t// in\n    tag_304:\n        /* \"#utility.yul\":12397:12422   */\n      swap2\n      pop\n        /* \"#utility.yul\":12436:12456   */\n      tag_305\n        /* \"#utility.yul\":12454:12455   */\n      dup4\n        /* \"#utility.yul\":12436:12456   */\n      tag_257\n      jump\t// in\n    tag_305:\n        /* \"#utility.yul\":12431:12456   */\n      swap3\n      pop\n        /* \"#utility.yul\":12475:12476   */\n      dup3\n        /* \"#utility.yul\":12472:12473   */\n      dup3\n        /* \"#utility.yul\":12469:12477   */\n      lt\n        /* \"#utility.yul\":12466:12500   */\n      iszero\n      tag_306\n      jumpi\n        /* \"#utility.yul\":12480:12498   */\n      tag_307\n      tag_302\n      jump\t// in\n    tag_307:\n        /* \"#utility.yul\":12466:12500   */\n    tag_306:\n        /* \"#utility.yul\":12525:12526   */\n      dup3\n        /* \"#utility.yul\":12522:12523   */\n      dup3\n        /* \"#utility.yul\":12518:12527   */\n      sub\n        /* \"#utility.yul\":12510:12527   */\n      swap1\n      pop\n        /* \"#utility.yul\":12342:12533   */\n      swap3\n      swap2\n      pop\n      pop\n      jump\t// out\n        /* \"#utility.yul\":12539:12635   */\n    tag_199:\n        /* \"#utility.yul\":12576:12583   */\n      0x00\n        /* \"#utility.yul\":12605:12629   */\n      tag_309\n        /* \"#utility.yul\":12623:12628   */\n      dup3\n        /* \"#utility.yul\":12605:12629   */\n      tag_310\n      jump\t// in\n    tag_309:\n        /* \"#utility.yul\":12594:12629   */\n      swap1\n      pop\n        /* \"#utility.yul\":12539:12635   */\n      swap2\n      swap1\n      pop\n      jump\t// out\n        /* \"#utility.yul\":12641:12745   */\n    tag_195:\n        /* \"#utility.yul\":12686:12693   */\n      0x00\n        /* \"#utility.yul\":12715:12739   */\n      tag_312\n        /* \"#utility.yul\":12733:12738   */\n      dup3\n        /* \"#utility.yul\":12715:12739   */\n      tag_310\n      jump\t// in\n    tag_312:\n        /* \"#utility.yul\":12704:12739   */\n      swap1\n      pop\n        /* \"#utility.yul\":12641:12745   */\n      swap2\n      swap1\n      pop\n      jump\t// out\n        /* \"#utility.yul\":12751:12841   */\n    tag_203:\n        /* \"#utility.yul\":12785:12792   */\n      0x00\n        /* \"#utility.yul\":12828:12833   */\n      dup2\n        /* \"#utility.yul\":12821:12834   */\n      iszero\n        /* \"#utility.yul\":12814:12835   */\n      iszero\n        /* \"#utility.yul\":12803:12835   */\n      swap1\n      pop\n        /* \"#utility.yul\":12751:12841   */\n      swap2\n      swap1\n      pop\n      jump\t// out\n        /* \"#utility.yul\":12847:12973   */\n    tag_310:\n        /* \"#utility.yul\":12884:12891   */\n      0x00\n        /* \"#utility.yul\":12924:12966   */\n      0xffffffffffffffffffffffffffffffffffffffff\n        /* \"#utility.yul\":12917:12922   */\n      dup3\n        /* \"#utility.yul\":12913:12967   */\n      and\n        /* \"#utility.yul\":12902:12967   */\n      swap1\n      pop\n        /* \"#utility.yul\":12847:12973   */\n      swap2\n      swap1\n      pop\n      jump\t// out\n        /* \"#utility.yul\":12979:13056   */\n    tag_257:\n        /* \"#utility.yul\":13016:13023   */\n      0x00\n        /* \"#utility.yul\":13045:13050   */\n      dup2\n        /* \"#utility.yul\":13034:13050   */\n      swap1\n      pop\n        /* \"#utility.yul\":12979:13056   */\n      swap2\n      swap1\n      pop\n      jump\t// out\n        /* \"#utility.yul\":13062:13216   */\n    tag_155:\n        /* \"#utility.yul\":13146:13152   */\n      dup3\n        /* \"#utility.yul\":13141:13144   */\n      dup2\n        /* \"#utility.yul\":13136:13139   */\n      dup4\n        /* \"#utility.yul\":13123:13153   */\n      calldatacopy\n        /* \"#utility.yul\":13208:13209   */\n      0x00\n        /* \"#utility.yul\":13199:13205   */\n      dup4\n        /* \"#utility.yul\":13194:13197   */\n      dup4\n        /* \"#utility.yul\":13190:13206   */\n      add\n        /* \"#utility.yul\":13183:13210   */\n      mstore\n        /* \"#utility.yul\":13062:13216   */\n      pop\n      pop\n      pop\n      jump\t// out\n        /* \"#utility.yul\":13222:13529   */\n    tag_211:\n        /* \"#utility.yul\":13290:13291   */\n      0x00\n        /* \"#utility.yul\":13300:13413   */\n    tag_318:\n        /* \"#utility.yul\":13314:13320   */\n      dup4\n        /* \"#utility.yul\":13311:13312   */\n      dup2\n        /* \"#utility.yul\":13308:13321   */\n      lt\n        /* \"#utility.yul\":13300:13413   */\n      iszero\n      tag_320\n      jumpi\n        /* \"#utility.yul\":13399:13400   */\n      dup1\n        /* \"#utility.yul\":13394:13397   */\n      dup3\n        /* \"#utility.yul\":13390:13401   */\n      add\n        /* \"#utility.yul\":13384:13402   */\n      mload\n        /* \"#utility.yul\":13380:13381   */\n      dup2\n        /* \"#utility.yul\":13375:13378   */\n      dup5\n        /* \"#utility.yul\":13371:13382   */\n      add\n        /* \"#utility.yul\":13364:13403   */\n      mstore\n        /* \"#utility.yul\":13336:13338   */\n      0x20\n        /* \"#utility.yul\":13333:13334   */\n      dup2\n        /* \"#utility.yul\":13329:13339   */\n      add\n        /* \"#utility.yul\":13324:13339   */\n      swap1\n      pop\n        /* \"#utility.yul\":13300:13413   */\n      jump(tag_318)\n    tag_320:\n        /* \"#utility.yul\":13431:13437   */\n      dup4\n        /* \"#utility.yul\":13428:13429   */\n      dup2\n        /* \"#utility.yul\":13425:13438   */\n      gt\n        /* \"#utility.yul\":13422:13523   */\n      iszero\n      tag_321\n      jumpi\n        /* \"#utility.yul\":13511:13512   */\n      0x00\n        /* \"#utility.yul\":13502:13508   */\n      dup5\n        /* \"#utility.yul\":13497:13500   */\n      dup5\n        /* \"#utility.yul\":13493:13509   */\n      add\n        /* \"#utility.yul\":13486:13513   */\n      mstore\n        /* \"#utility.yul\":13422:13523   */\n    tag_321:\n        /* \"#utility.yul\":13271:13529   */\n      pop\n        /* \"#utility.yul\":13222:13529   */\n      pop\n      pop\n      pop\n      jump\t// out\n        /* \"#utility.yul\":13535:13706   */\n    tag_126:\n        /* \"#utility.yul\":13574:13577   */\n      0x00\n        /* \"#utility.yul\":13597:13621   */\n      tag_323\n        /* \"#utility.yul\":13615:13620   */\n      dup3\n        /* \"#utility.yul\":13597:13621   */\n      tag_257\n      jump\t// in\n    tag_323:\n        /* \"#utility.yul\":13588:13621   */\n      swap2\n      pop\n        /* \"#utility.yul\":13643:13647   */\n      0x00\n        /* \"#utility.yul\":13636:13641   */\n      dup3\n        /* \"#utility.yul\":13633:13648   */\n      eq\n        /* \"#utility.yul\":13630:13671   */\n      iszero\n      tag_324\n      jumpi\n        /* \"#utility.yul\":13651:13669   */\n      tag_325\n      tag_302\n      jump\t// in\n    tag_325:\n        /* \"#utility.yul\":13630:13671   */\n    tag_324:\n        /* \"#utility.yul\":13698:13699   */\n      0x01\n        /* \"#utility.yul\":13691:13696   */\n      dup3\n        /* \"#utility.yul\":13687:13700   */\n      sub\n        /* \"#utility.yul\":13680:13700   */\n      swap1\n      pop\n        /* \"#utility.yul\":13535:13706   */\n      swap2\n      swap1\n      pop\n      jump\t// out\n        /* \"#utility.yul\":13712:14032   */\n    tag_129:\n        /* \"#utility.yul\":13756:13762   */\n      0x00\n        /* \"#utility.yul\":13793:13794   */\n      0x02\n        /* \"#utility.yul\":13787:13791   */\n      dup3\n        /* \"#utility.yul\":13783:13795   */\n      div\n        /* \"#utility.yul\":13773:13795   */\n      swap1\n      pop\n        /* \"#utility.yul\":13840:13841   */\n      0x01\n        /* \"#utility.yul\":13834:13838   */\n      dup3\n        /* \"#utility.yul\":13830:13842   */\n      and\n        /* \"#utility.yul\":13861:13879   */\n      dup1\n        /* \"#utility.yul\":13851:13932   */\n      tag_327\n      jumpi\n        /* \"#utility.yul\":13917:13921   */\n      0x7f\n        /* \"#utility.yul\":13909:13915   */\n      dup3\n        /* \"#utility.yul\":13905:13922   */\n      and\n        /* \"#utility.yul\":13895:13922   */\n      swap2\n      pop\n        /* \"#utility.yul\":13851:13932   */\n    tag_327:\n        /* \"#utility.yul\":13979:13981   */\n      0x20\n        /* \"#utility.yul\":13971:13977   */\n      dup3\n        /* \"#utility.yul\":13968:13982   */\n      lt\n        /* \"#utility.yul\":13948:13966   */\n      dup2\n        /* \"#utility.yul\":13945:13983   */\n      eq\n        /* \"#utility.yul\":13942:14026   */\n      iszero\n      tag_328\n      jumpi\n        /* \"#utility.yul\":13998:14016   */\n      tag_329\n      tag_330\n      jump\t// in\n    tag_329:\n        /* \"#utility.yul\":13942:14026   */\n    tag_328:\n        /* \"#utility.yul\":13763:14032   */\n      pop\n        /* \"#utility.yul\":13712:14032   */\n      swap2\n      swap1\n      pop\n      jump\t// out\n        /* \"#utility.yul\":14038:14319   */\n    tag_288:\n        /* \"#utility.yul\":14121:14148   */\n      tag_332\n        /* \"#utility.yul\":14143:14147   */\n      dup3\n        /* \"#utility.yul\":14121:14148   */\n      tag_213\n      jump\t// in\n    tag_332:\n        /* \"#utility.yul\":14113:14119   */\n      dup2\n        /* \"#utility.yul\":14109:14149   */\n      add\n        /* \"#utility.yul\":14251:14257   */\n      dup2\n        /* \"#utility.yul\":14239:14249   */\n      dup2\n        /* \"#utility.yul\":14236:14258   */\n      lt\n        /* \"#utility.yul\":14215:14233   */\n      0xffffffffffffffff\n        /* \"#utility.yul\":14203:14213   */\n      dup3\n        /* \"#utility.yul\":14200:14234   */\n      gt\n        /* \"#utility.yul\":14197:14259   */\n      or\n        /* \"#utility.yul\":14194:14282   */\n      iszero\n      tag_333\n      jumpi\n        /* \"#utility.yul\":14262:14280   */\n      tag_334\n      tag_293\n      jump\t// in\n    tag_334:\n        /* \"#utility.yul\":14194:14282   */\n    tag_333:\n        /* \"#utility.yul\":14302:14312   */\n      dup1\n        /* \"#utility.yul\":14298:14300   */\n      0x40\n        /* \"#utility.yul\":14291:14313   */\n      mstore\n        /* \"#utility.yul\":14081:14319   */\n      pop\n        /* \"#utility.yul\":14038:14319   */\n      pop\n      pop\n      jump\t// out\n        /* \"#utility.yul\":14325:14558   */\n    tag_89:\n        /* \"#utility.yul\":14364:14367   */\n      0x00\n        /* \"#utility.yul\":14387:14411   */\n      tag_336\n        /* \"#utility.yul\":14405:14410   */\n      dup3\n        /* \"#utility.yul\":14387:14411   */\n      tag_257\n      jump\t// in\n    tag_336:\n        /* \"#utility.yul\":14378:14411   */\n      swap2\n      pop\n        /* \"#utility.yul\":14433:14499   */\n      0xffffffffffffffffffffffffffffffffffffffffffffffffffffffffffffffff\n        /* \"#utility.yul\":14426:14431   */\n      dup3\n        /* \"#utility.yul\":14423:14500   */\n      eq\n        /* \"#utility.yul\":14420:14523   */\n      iszero\n      tag_337\n      jumpi\n        /* \"#utility.yul\":14503:14521   */\n      tag_338\n      tag_302\n      jump\t// in\n    tag_338:\n        /* \"#utility.yul\":14420:14523   */\n    tag_337:\n        /* \"#utility.yul\":14550:14551   */\n      0x01\n        /* \"#utility.yul\":14543:14548   */\n      dup3\n        /* \"#utility.yul\":14539:14552   */\n      add\n        /* \"#utility.yul\":14532:14552   */\n      swap1\n      pop\n        /* \"#utility.yul\":14325:14558   */\n      swap2\n      swap1\n      pop\n      jump\t// out\n        /* \"#utility.yul\":14564:14744   */\n    tag_302:\n        /* \"#utility.yul\":14612:14689   */\n      0x4e487b7100000000000000000000000000000000000000000000000000000000\n        /* \"#utility.yul\":14609:14610   */\n      0x00\n        /* \"#utility.yul\":14602:14690   */\n      mstore\n        /* \"#utility.yul\":14709:14713   */\n      0x11\n        /* \"#utility.yul\":14706:14707   */\n      0x04\n        /* \"#utility.yul\":14699:14714   */\n      mstore\n        /* \"#utility.yul\":14733:14737   */\n      0x24\n        /* \"#utility.yul\":14730:14731   */\n      0x00\n        /* \"#utility.yul\":14723:14738   */\n      revert\n        /* \"#utility.yul\":14750:14930   */\n    tag_330:\n        /* \"#utility.yul\":14798:14875   */\n      0x4e487b7100000000000000000000000000000000000000000000000000000000\n        /* \"#utility.yul\":14795:14796   */\n      0x00\n        /* \"#utility.yul\":14788:14876   */\n      mstore\n        /* \"#utility.yul\":14895:14899   */\n      0x22\n        /* \"#utility.yul\":14892:14893   */\n      0x04\n        /* \"#utility.yul\":14885:14900   */\n      mstore\n        /* \"#utility.yul\":14919:14923   */\n      0x24\n        /* \"#utility.yul\":14916:14917   */\n      0x00\n        /* \"#utility.yul\":14909:14924   */\n      revert\n        /* \"#utility.yul\":14936:15116   */\n    tag_293:\n        /* \"#utility.yul\":14984:15061   */\n      0x4e487b7100000000000000000000000000000000000000000000000000000000\n        /* \"#utility.yul\":14981:14982   */\n      0x00\n        /* \"#utility.yul\":14974:15062   */\n      mstore\n        /* \"#utility.yul\":15081:15085   */\n      0x41\n        /* \"#utility.yul\":15078:15079   */\n      0x04\n        /* \"#utility.yul\":15071:15086   */\n      mstore\n        /* \"#utility.yul\":15105:15109   */\n      0x24\n        /* \"#utility.yul\":15102:15103   */\n      0x00\n        /* \"#utility.yul\":15095:15110   */\n      revert\n        /* \"#utility.yul\":15122:15239   */\n    tag_168:\n        /* \"#utility.yul\":15231:15232   */\n      0x00\n        /* \"#utility.yul\":15228:15229   */\n      dup1\n        /* \"#utility.yul\":15221:15233   */\n      revert\n        /* \"#utility.yul\":15245:15362   */\n    tag_153:\n        /* \"#utility.yul\":15354:15355   */\n      0x00\n        /* \"#utility.yul\":15351:15352   */\n      dup1\n        /* \"#utility.yul\":15344:15356   */\n      revert\n        /* \"#utility.yul\":15368:15485   */\n    tag_184:\n        /* \"#utility.yul\":15477:15478   */\n      0x00\n        /* \"#utility.yul\":15474:15475   */\n      dup1\n        /* \"#utility.yul\":15467:15479   */\n      revert\n        /* \"#utility.yul\":15491:15608   */\n    tag_177:\n        /* \"#utility.yul\":15600:15601   */\n      0x00\n        /* \"#utility.yul\":15597:15598   */\n      dup1\n        /* \"#utility.yul\":15590:15602   */\n      revert\n        /* \"#utility.yul\":15614:15716   */\n    tag_213:\n        /* \"#utility.yul\":15655:15661   */\n      0x00\n        /* \"#utility.yul\":15706:15708   */\n      0x1f\n        /* \"#utility.yul\":15702:15709   */\n      not\n        /* \"#utility.yul\":15697:15699   */\n      0x1f\n        /* \"#utility.yul\":15690:15695   */\n      dup4\n        /* \"#utility.yul\":15686:15700   */\n      add\n        /* \"#utility.yul\":15682:15710   */\n      and\n        /* \"#utility.yul\":15672:15710   */\n      swap1\n      pop\n        /* \"#utility.yul\":15614:15716   */\n      swap2\n      swap1\n      pop\n      jump\t// out\n        /* \"#utility.yul\":15722:15945   */\n    tag_218:\n        /* \"#utility.yul\":15862:15896   */\n      0x536f727279212120446561646c696e652068617320616c726561647920706173\n        /* \"#utility.yul\":15858:15859   */\n      0x00\n        /* \"#utility.yul\":15850:15856   */\n      dup3\n        /* \"#utility.yul\":15846:15860   */\n      add\n        /* \"#utility.yul\":15839:15897   */\n      mstore\n        /* \"#utility.yul\":15931:15937   */\n      0x7365642e00000000000000000000000000000000000000000000000000000000\n        /* \"#utility.yul\":15926:15928   */\n      0x20\n        /* \"#utility.yul\":15918:15924   */\n      dup3\n        /* \"#utility.yul\":15914:15929   */\n      add\n        /* \"#utility.yul\":15907:15938   */\n      mstore\n        /* \"#utility.yul\":15722:15945   */\n      pop\n      jump\t// out\n        /* \"#utility.yul\":15951:16124   */\n    tag_223:\n        /* \"#utility.yul\":16091:16116   */\n      0x496e76616c69642072657175657374206e756d6265722e000000000000000000\n        /* \"#utility.yul\":16087:16088   */\n      0x00\n        /* \"#utility.yul\":16079:16085   */\n      dup3\n        /* \"#utility.yul\":16075:16089   */\n      add\n        /* \"#utility.yul\":16068:16117   */\n      mstore\n        /* \"#utility.yul\":15951:16124   */\n      pop\n      jump\t// out\n        /* \"#utility.yul\":16130:16304   */\n    tag_228:\n        /* \"#utility.yul\":16270:16296   */\n      0x596f7520686176656e277420636f6e74726962757465642e0000000000000000\n        /* \"#utility.yul\":16266:16267   */\n      0x00\n        /* \"#utility.yul\":16258:16264   */\n      dup3\n        /* \"#utility.yul\":16254:16268   */\n      add\n        /* \"#utility.yul\":16247:16297   */\n      mstore\n        /* \"#utility.yul\":16130:16304   */\n      pop\n      jump\t// out\n        /* \"#utility.yul\":16310:16537   */\n    tag_233:\n        /* \"#utility.yul\":16450:16484   */\n      0x536f727279212120796f75206861766520746f20706179206d696e696d756d20\n        /* \"#utility.yul\":16446:16447   */\n      0x00\n        /* \"#utility.yul\":16438:16444   */\n      dup3\n        /* \"#utility.yul\":16434:16448   */\n      add\n        /* \"#utility.yul\":16427:16485   */\n      mstore\n        /* \"#utility.yul\":16519:16529   */\n      0x313030207765692e000000000000000000000000000000000000000000000000\n        /* \"#utility.yul\":16514:16516   */\n      0x20\n        /* \"#utility.yul\":16506:16512   */\n      dup3\n        /* \"#utility.yul\":16502:16517   */\n      add\n        /* \"#utility.yul\":16495:16530   */\n      mstore\n        /* \"#utility.yul\":16310:16537   */\n      pop\n      jump\t// out\n        /* \"#utility.yul\":16543:16834   */\n    tag_238:\n        /* \"#utility.yul\":16683:16717   */\n      0x536f727279212120596f75206861766520746f20636f6e747269627574652066\n        /* \"#utility.yul\":16679:16680   */\n      0x00\n        /* \"#utility.yul\":16671:16677   */\n      dup3\n        /* \"#utility.yul\":16667:16681   */\n      add\n        /* \"#utility.yul\":16660:16718   */\n      mstore\n        /* \"#utility.yul\":16752:16786   */\n      0x6972737420696e206f7264657220746f20656c696769626c6520666f7220766f\n        /* \"#utility.yul\":16747:16749   */\n      0x20\n        /* \"#utility.yul\":16739:16745   */\n      dup3\n        /* \"#utility.yul\":16735:16750   */\n      add\n        /* \"#utility.yul\":16728:16787   */\n      mstore\n        /* \"#utility.yul\":16821:16826   */\n      0x74652e0000000000000000000000000000000000000000000000000000000000\n        /* \"#utility.yul\":16816:16818   */\n      0x40\n        /* \"#utility.yul\":16808:16814   */\n      dup3\n        /* \"#utility.yul\":16804:16819   */\n      add\n        /* \"#utility.yul\":16797:16827   */\n      mstore\n        /* \"#utility.yul\":16543:16834   */\n      pop\n      jump\t// out\n        /* \"#utility.yul\":16840:17065   */\n    tag_243:\n        /* \"#utility.yul\":16980:17014   */\n      0x536f7272792c20796f7520617265206e6f7420656c696769626c6520666f7220\n        /* \"#utility.yul\":16976:16977   */\n      0x00\n        /* \"#utility.yul\":16968:16974   */\n      dup3\n        /* \"#utility.yul\":16964:16978   */\n      add\n        /* \"#utility.yul\":16957:17015   */\n      mstore\n        /* \"#utility.yul\":17049:17057   */\n      0x726566756e640000000000000000000000000000000000000000000000000000\n        /* \"#utility.yul\":17044:17046   */\n      0x20\n        /* \"#utility.yul\":17036:17042   */\n      dup3\n        /* \"#utility.yul\":17032:17047   */\n      add\n        /* \"#utility.yul\":17025:17058   */\n      mstore\n        /* \"#utility.yul\":16840:17065   */\n      pop\n      jump\t// out\n        /* \"#utility.yul\":17071:17293   */\n    tag_248:\n        /* \"#utility.yul\":17211:17245   */\n      0x4f6e6c79206d616e616765722063616e2063616c6c2074686973206665617475\n        /* \"#utility.yul\":17207:17208   */\n      0x00\n        /* \"#utility.yul\":17199:17205   */\n      dup3\n        /* \"#utility.yul\":17195:17209   */\n      add\n        /* \"#utility.yul\":17188:17246   */\n      mstore\n        /* \"#utility.yul\":17280:17285   */\n      0x72652e0000000000000000000000000000000000000000000000000000000000\n        /* \"#utility.yul\":17275:17277   */\n      0x20\n        /* \"#utility.yul\":17267:17273   */\n      dup3\n        /* \"#utility.yul\":17263:17278   */\n      add\n        /* \"#utility.yul\":17256:17286   */\n      mstore\n        /* \"#utility.yul\":17071:17293   */\n      pop\n      jump\t// out\n        /* \"#utility.yul\":17299:17609   */\n    tag_253:\n        /* \"#utility.yul\":17439:17473   */\n      0x4f707073212120796f7520616c72656164792070757420796f757220766f7465\n        /* \"#utility.yul\":17435:17436   */\n      0x00\n        /* \"#utility.yul\":17427:17433   */\n      dup3\n        /* \"#utility.yul\":17423:17437   */\n      add\n        /* \"#utility.yul\":17416:17474   */\n      mstore\n        /* \"#utility.yul\":17508:17542   */\n      0x20666f72207468697320726571756573742e20596f752063616e206f6e6c7920\n        /* \"#utility.yul\":17503:17505   */\n      0x20\n        /* \"#utility.yul\":17495:17501   */\n      dup3\n        /* \"#utility.yul\":17491:17506   */\n      add\n        /* \"#utility.yul\":17484:17543   */\n      mstore\n        /* \"#utility.yul\":17577:17601   */\n      0x766f7465206f6e63652070657220726571756573742e00000000000000000000\n        /* \"#utility.yul\":17572:17574   */\n      0x40\n        /* \"#utility.yul\":17564:17570   */\n      dup3\n        /* \"#utility.yul\":17560:17575   */\n      add\n        /* \"#utility.yul\":17553:17602   */\n      mstore\n        /* \"#utility.yul\":17299:17609   */\n      pop\n      jump\t// out\n        /* \"#utility.yul\":17615:17737   */\n    tag_159:\n        /* \"#utility.yul\":17688:17712   */\n      tag_356\n        /* \"#utility.yul\":17706:17711   */\n      dup2\n        /* \"#utility.yul\":17688:17712   */\n      tag_199\n      jump\t// in\n    tag_356:\n        /* \"#utility.yul\":17681:17686   */\n      dup2\n        /* \"#utility.yul\":17678:17713   */\n      eq\n        /* \"#utility.yul\":17668:17731   */\n      tag_357\n      jumpi\n        /* \"#utility.yul\":17727:17728   */\n      0x00\n        /* \"#utility.yul\":17724:17725   */\n      dup1\n        /* \"#utility.yul\":17717:17729   */\n      revert\n        /* \"#utility.yul\":17668:17731   */\n    tag_357:\n        /* \"#utility.yul\":17615:17737   */\n      pop\n      jump\t// out\n        /* \"#utility.yul\":17743:17881   */\n    tag_163:\n        /* \"#utility.yul\":17824:17856   */\n      tag_359\n        /* \"#utility.yul\":17850:17855   */\n      dup2\n        /* \"#utility.yul\":17824:17856   */\n      tag_195\n      jump\t// in\n    tag_359:\n        /* \"#utility.yul\":17817:17822   */\n      dup2\n        /* \"#utility.yul\":17814:17857   */\n      eq\n        /* \"#utility.yul\":17804:17875   */\n      tag_360\n      jumpi\n        /* \"#utility.yul\":17871:17872   */\n      0x00\n        /* \"#utility.yul\":17868:17869   */\n      dup1\n        /* \"#utility.yul\":17861:17873   */\n      revert\n        /* \"#utility.yul\":17804:17875   */\n    tag_360:\n        /* \"#utility.yul\":17743:17881   */\n      pop\n      jump\t// out\n        /* \"#utility.yul\":17887:18009   */\n    tag_173:\n        /* \"#utility.yul\":17960:17984   */\n      tag_362\n        /* \"#utility.yul\":17978:17983   */\n      dup2\n        /* \"#utility.yul\":17960:17984   */\n      tag_257\n      jump\t// in\n    tag_362:\n        /* \"#utility.yul\":17953:17958   */\n      dup2\n        /* \"#utility.yul\":17950:17985   */\n      eq\n        /* \"#utility.yul\":17940:18003   */\n      tag_363\n      jumpi\n        /* \"#utility.yul\":17999:18000   */\n      0x00\n        /* \"#utility.yul\":17996:17997   */\n      dup1\n        /* \"#utility.yul\":17989:18001   */\n      revert\n        /* \"#utility.yul\":17940:18003   */\n    tag_363:\n        /* \"#utility.yul\":17887:18009   */\n      pop\n      jump\t// out\n\n    auxdata: 0xa264697066735822122043876b3b85f6a7824ad2cd469035e62ddeab4a612c0160ae57179aa407099ac364736f6c63430008070033\n}\n",
				"bytecode": {
					"linkReferences": {},
					"object": "60806040523480156200001157600080fd5b50604051620018a5380380620018a58339818101604052810190620000379190620000ba565b8160048190555080426200004c919062000101565b600381905550606460028190555033600160006101000a81548173ffffffffffffffffffffffffffffffffffffffff021916908373ffffffffffffffffffffffffffffffffffffffff1602179055505050620001b6565b600081519050620000b4816200019c565b92915050565b60008060408385031215620000d457620000d362000197565b5b6000620000e485828601620000a3565b9250506020620000f785828601620000a3565b9150509250929050565b60006200010e826200015e565b91506200011b836200015e565b9250827fffffffffffffffffffffffffffffffffffffffffffffffffffffffffffffffff0382111562000153576200015262000168565b5b828201905092915050565b6000819050919050565b7f4e487b7100000000000000000000000000000000000000000000000000000000600052601160045260246000fd5b600080fd5b620001a7816200015e565b8114620001b357600080fd5b50565b6116df80620001c66000396000f3fe6080604052600436106100dd5760003560e01c8063590e1ae31161007f578063937e09b111610059578063937e09b11461027f578063953b8fb8146102aa5780639fb42b1f146102d5578063c59ee1dc14610300576100dd565b8063590e1ae3146101fc5780636f9fb98a1461021357806381d12c581461023e576100dd565b806329dcb0cf116100bb57806329dcb0cf14610152578063481c6a751461017d5780634cb6f4a5146101a85780634e260f6f146101d1576100dd565b806306e99fef146100e25780631b16bb5c146100ec5780631f6d494214610115575b600080fd5b6100ea61032b565b005b3480156100f857600080fd5b50610113600480360381019061010e9190610d13565b610484565b005b34801561012157600080fd5b5061013c60048036038101906101379190610ce6565b610631565b60405161014991906110b1565b60405180910390f35b34801561015e57600080fd5b50610167610649565b60405161017491906110b1565b60405180910390f35b34801561018957600080fd5b5061019261064f565b60405161019f9190610f3c565b60405180910390f35b3480156101b457600080fd5b506101cf60048036038101906101ca9190610d82565b610675565b005b3480156101dd57600080fd5b506101e661086f565b6040516101f391906110b1565b60405180910390f35b34801561020857600080fd5b50610211610875565b005b34801561021f57600080fd5b50610228610a89565b60405161023591906110b1565b60405180910390f35b34801561024a57600080fd5b5061026560048036038101906102609190610d82565b610a91565b604051610276959493929190610f57565b60405180910390f35b34801561028b57600080fd5b50610294610b7c565b6040516102a191906110b1565b60405180910390f35b3480156102b657600080fd5b506102bf610b82565b6040516102cc91906110b1565b60405180910390f35b3480156102e157600080fd5b506102ea610b88565b6040516102f791906110b1565b60405180910390f35b34801561030c57600080fd5b50610315610b8e565b60405161032291906110b1565b60405180910390f35b600354421061036f576040517f08c379a000000000000000000000000000000000000000000000000000000000815260040161036690610fb1565b60405180910390fd5b6002543410156103b4576040517f08c379a00000000000000000000000000000000000000000000000000000000081526004016103ab90611011565b60405180910390fd5b60008060003373ffffffffffffffffffffffffffffffffffffffff1673ffffffffffffffffffffffffffffffffffffffff168152602001908152602001600020541415610414576006600081548092919061040e906112f1565b91905055505b346000803373ffffffffffffffffffffffffffffffffffffffff1673ffffffffffffffffffffffffffffffffffffffff1681526020019081526020016000206000828254610462919061113e565b92505081905550346005600082825461047b919061113e565b92505081905550565b600160009054906101000a900473ffffffffffffffffffffffffffffffffffffffff1673ffffffffffffffffffffffffffffffffffffffff163373ffffffffffffffffffffffffffffffffffffffff1614610514576040517f08c379a000000000000000000000000000000000000000000000000000000000815260040161050b90611071565b60405180910390fd5b6000600760006008548152602001908152602001600020905060086000815480929190610540906112f1565b91905055508381600001908051906020019061055d929190610b94565b50828160020160006101000a81548173ffffffffffffffffffffffffffffffffffffffff021916908373ffffffffffffffffffffffffffffffffffffffff16021790555081816001018190555060008160020160146101000a81548160ff0219169083151502179055506000816003018190555060008160040160003373ffffffffffffffffffffffffffffffffffffffff1673ffffffffffffffffffffffffffffffffffffffff16815260200190815260200160002060006101000a81548160ff02191690831515021790555050505050565b60006020528060005260406000206000915090505481565b60035481565b600160009054906101000a900473ffffffffffffffffffffffffffffffffffffffff1681565b60008060003373ffffffffffffffffffffffffffffffffffffffff1673ffffffffffffffffffffffffffffffffffffffff16815260200190815260200160002054116106f6576040517f08c379a00000000000000000000000000000000000000000000000000000000081526004016106ed90611031565b60405180910390fd5b6008548111158015610709575060008110155b610748576040517f08c379a000000000000000000000000000000000000000000000000000000000815260040161073f90610fd1565b60405180910390fd5b600060076000838152602001908152602001600020905060008160040160003373ffffffffffffffffffffffffffffffffffffffff1673ffffffffffffffffffffffffffffffffffffffff16815260200190815260200160002060006101000a81548160ff02191690831515021790556107f7576040517f08c379a00000000000000000000000000000000000000000000000000000000081526004016107ee90611091565b60405180910390fd5b60018160040160003373ffffffffffffffffffffffffffffffffffffffff1673ffffffffffffffffffffffffffffffffffffffff16815260200190815260200160002060006101000a81548160ff021916908315150217905550806003016000815480929190610866906112f1565b91905055505050565b60065481565b600354421180156108895750600454600554105b6108c8576040517f08c379a00000000000000000000000000000000000000000000000000000000081526004016108bf90611051565b60405180910390fd5b60008060003373ffffffffffffffffffffffffffffffffffffffff1673ffffffffffffffffffffffffffffffffffffffff1681526020019081526020016000205411610949576040517f08c379a000000000000000000000000000000000000000000000000000000000815260040161094090610ff1565b60405180910390fd5b60003390508073ffffffffffffffffffffffffffffffffffffffff166108fc6000803373ffffffffffffffffffffffffffffffffffffffff1673ffffffffffffffffffffffffffffffffffffffff168152602001908152602001600020549081150290604051600060405180830381858888f193505050501580156109d2573d6000803e3d6000fd5b506000803373ffffffffffffffffffffffffffffffffffffffff1673ffffffffffffffffffffffffffffffffffffffff1681526020019081526020016000205460056000828254610a239190611194565b9250508190555060008060003373ffffffffffffffffffffffffffffffffffffffff1673ffffffffffffffffffffffffffffffffffffffff1681526020019081526020016000208190555060066000815480929190610a8190611264565b919050555050565b600047905090565b6007602052806000526040600020600091509050806000018054610ab49061128e565b80601f0160208091040260200160405190810160405280929190818152602001828054610ae09061128e565b8015610b2d5780601f10610b0257610100808354040283529160200191610b2d565b820191906000526020600020905b815481529060010190602001808311610b1057829003601f168201915b5050505050908060010154908060020160009054906101000a900473ffffffffffffffffffffffffffffffffffffffff16908060020160149054906101000a900460ff16908060030154905085565b60025481565b60045481565b60085481565b60055481565b828054610ba09061128e565b90600052602060002090601f016020900481019282610bc25760008555610c09565b82601f10610bdb57805160ff1916838001178555610c09565b82800160010185558215610c09579182015b82811115610c08578251825591602001919060010190610bed565b5b509050610c169190610c1a565b5090565b5b80821115610c33576000816000905550600101610c1b565b5090565b6000610c4a610c45846110f1565b6110cc565b905082815260208101848484011115610c6657610c656113cc565b5b610c71848285611222565b509392505050565b600081359050610c8881611664565b92915050565b600081359050610c9d8161167b565b92915050565b600082601f830112610cb857610cb76113c7565b5b8135610cc8848260208601610c37565b91505092915050565b600081359050610ce081611692565b92915050565b600060208284031215610cfc57610cfb6113d6565b5b6000610d0a84828501610c79565b91505092915050565b600080600060608486031215610d2c57610d2b6113d6565b5b600084013567ffffffffffffffff811115610d4a57610d496113d1565b5b610d5686828701610ca3565b9350506020610d6786828701610c8e565b9250506040610d7886828701610cd1565b9150509250925092565b600060208284031215610d9857610d976113d6565b5b6000610da684828501610cd1565b91505092915050565b610db8816111da565b82525050565b610dc7816111c8565b82525050565b610dd6816111ec565b82525050565b6000610de782611122565b610df1818561112d565b9350610e01818560208601611231565b610e0a816113db565b840191505092915050565b6000610e2260248361112d565b9150610e2d826113ec565b604082019050919050565b6000610e4560178361112d565b9150610e508261143b565b602082019050919050565b6000610e6860188361112d565b9150610e7382611464565b602082019050919050565b6000610e8b60288361112d565b9150610e968261148d565b604082019050919050565b6000610eae60438361112d565b9150610eb9826114dc565b606082019050919050565b6000610ed160268361112d565b9150610edc82611551565b604082019050919050565b6000610ef460238361112d565b9150610eff826115a0565b604082019050919050565b6000610f1760568361112d565b9150610f22826115ef565b606082019050919050565b610f3681611218565b82525050565b6000602082019050610f516000830184610dbe565b92915050565b600060a0820190508181036000830152610f718188610ddc565b9050610f806020830187610f2d565b610f8d6040830186610daf565b610f9a6060830185610dcd565b610fa76080830184610f2d565b9695505050505050565b60006020820190508181036000830152610fca81610e15565b9050919050565b60006020820190508181036000830152610fea81610e38565b9050919050565b6000602082019050818103600083015261100a81610e5b565b9050919050565b6000602082019050818103600083015261102a81610e7e565b9050919050565b6000602082019050818103600083015261104a81610ea1565b9050919050565b6000602082019050818103600083015261106a81610ec4565b9050919050565b6000602082019050818103600083015261108a81610ee7565b9050919050565b600060208201905081810360008301526110aa81610f0a565b9050919050565b60006020820190506110c66000830184610f2d565b92915050565b60006110d66110e7565b90506110e282826112c0565b919050565b6000604051905090565b600067ffffffffffffffff82111561110c5761110b611398565b5b611115826113db565b9050602081019050919050565b600081519050919050565b600082825260208201905092915050565b600061114982611218565b915061115483611218565b9250827fffffffffffffffffffffffffffffffffffffffffffffffffffffffffffffffff038211156111895761118861133a565b5b828201905092915050565b600061119f82611218565b91506111aa83611218565b9250828210156111bd576111bc61133a565b5b828203905092915050565b60006111d3826111f8565b9050919050565b60006111e5826111f8565b9050919050565b60008115159050919050565b600073ffffffffffffffffffffffffffffffffffffffff82169050919050565b6000819050919050565b82818337600083830152505050565b60005b8381101561124f578082015181840152602081019050611234565b8381111561125e576000848401525b50505050565b600061126f82611218565b915060008214156112835761128261133a565b5b600182039050919050565b600060028204905060018216806112a657607f821691505b602082108114156112ba576112b9611369565b5b50919050565b6112c9826113db565b810181811067ffffffffffffffff821117156112e8576112e7611398565b5b80604052505050565b60006112fc82611218565b91507fffffffffffffffffffffffffffffffffffffffffffffffffffffffffffffffff82141561132f5761132e61133a565b5b600182019050919050565b7f4e487b7100000000000000000000000000000000000000000000000000000000600052601160045260246000fd5b7f4e487b7100000000000000000000000000000000000000000000000000000000600052602260045260246000fd5b7f4e487b7100000000000000000000000000000000000000000000000000000000600052604160045260246000fd5b600080fd5b600080fd5b600080fd5b600080fd5b6000601f19601f8301169050919050565b7f536f727279212120446561646c696e652068617320616c72656164792070617360008201527f7365642e00000000000000000000000000000000000000000000000000000000602082015250565b7f496e76616c69642072657175657374206e756d6265722e000000000000000000600082015250565b7f596f7520686176656e277420636f6e74726962757465642e0000000000000000600082015250565b7f536f727279212120796f75206861766520746f20706179206d696e696d756d2060008201527f313030207765692e000000000000000000000000000000000000000000000000602082015250565b7f536f727279212120596f75206861766520746f20636f6e74726962757465206660008201527f6972737420696e206f7264657220746f20656c696769626c6520666f7220766f60208201527f74652e0000000000000000000000000000000000000000000000000000000000604082015250565b7f536f7272792c20796f7520617265206e6f7420656c696769626c6520666f722060008201527f726566756e640000000000000000000000000000000000000000000000000000602082015250565b7f4f6e6c79206d616e616765722063616e2063616c6c207468697320666561747560008201527f72652e0000000000000000000000000000000000000000000000000000000000602082015250565b7f4f707073212120796f7520616c72656164792070757420796f757220766f746560008201527f20666f72207468697320726571756573742e20596f752063616e206f6e6c792060208201527f766f7465206f6e63652070657220726571756573742e00000000000000000000604082015250565b61166d816111c8565b811461167857600080fd5b50565b611684816111da565b811461168f57600080fd5b50565b61169b81611218565b81146116a657600080fd5b5056fea264697066735822122043876b3b85f6a7824ad2cd469035e62ddeab4a612c0160ae57179aa407099ac364736f6c63430008070033",
					"opcodes": "PUSH1 0x80 PUSH1 0x40 MSTORE CALLVALUE DUP1 ISZERO PUSH3 0x11 JUMPI PUSH1 0x0 DUP1 REVERT JUMPDEST POP PUSH1 0x40 MLOAD PUSH3 0x18A5 CODESIZE SUB DUP1 PUSH3 0x18A5 DUP4 CODECOPY DUP2 DUP2 ADD PUSH1 0x40 MSTORE DUP2 ADD SWAP1 PUSH3 0x37 SWAP2 SWAP1 PUSH3 0xBA JUMP JUMPDEST DUP2 PUSH1 0x4 DUP2 SWAP1 SSTORE POP DUP1 TIMESTAMP PUSH3 0x4C SWAP2 SWAP1 PUSH3 0x101 JUMP JUMPDEST PUSH1 0x3 DUP2 SWAP1 SSTORE POP PUSH1 0x64 PUSH1 0x2 DUP2 SWAP1 SSTORE POP CALLER PUSH1 0x1 PUSH1 0x0 PUSH2 0x100 EXP DUP2 SLOAD DUP2 PUSH20 0xFFFFFFFFFFFFFFFFFFFFFFFFFFFFFFFFFFFFFFFF MUL NOT AND SWAP1 DUP4 PUSH20 0xFFFFFFFFFFFFFFFFFFFFFFFFFFFFFFFFFFFFFFFF AND MUL OR SWAP1 SSTORE POP POP POP PUSH3 0x1B6 JUMP JUMPDEST PUSH1 0x0 DUP2 MLOAD SWAP1 POP PUSH3 0xB4 DUP2 PUSH3 0x19C JUMP JUMPDEST SWAP3 SWAP2 POP POP JUMP JUMPDEST PUSH1 0x0 DUP1 PUSH1 0x40 DUP4 DUP6 SUB SLT ISZERO PUSH3 0xD4 JUMPI PUSH3 0xD3 PUSH3 0x197 JUMP JUMPDEST JUMPDEST PUSH1 0x0 PUSH3 0xE4 DUP6 DUP3 DUP7 ADD PUSH3 0xA3 JUMP JUMPDEST SWAP3 POP POP PUSH1 0x20 PUSH3 0xF7 DUP6 DUP3 DUP7 ADD PUSH3 0xA3 JUMP JUMPDEST SWAP2 POP POP SWAP3 POP SWAP3 SWAP1 POP JUMP JUMPDEST PUSH1 0x0 PUSH3 0x10E DUP3 PUSH3 0x15E JUMP JUMPDEST SWAP2 POP PUSH3 0x11B DUP4 PUSH3 0x15E JUMP JUMPDEST SWAP3 POP DUP3 PUSH32 0xFFFFFFFFFFFFFFFFFFFFFFFFFFFFFFFFFFFFFFFFFFFFFFFFFFFFFFFFFFFFFFFF SUB DUP3 GT ISZERO PUSH3 0x153 JUMPI PUSH3 0x152 PUSH3 0x168 JUMP JUMPDEST JUMPDEST DUP3 DUP3 ADD SWAP1 POP SWAP3 SWAP2 POP POP JUMP JUMPDEST PUSH1 0x0 DUP2 SWAP1 POP SWAP2 SWAP1 POP JUMP JUMPDEST PUSH32 0x4E487B7100000000000000000000000000000000000000000000000000000000 PUSH1 0x0 MSTORE PUSH1 0x11 PUSH1 0x4 MSTORE PUSH1 0x24 PUSH1 0x0 REVERT JUMPDEST PUSH1 0x0 DUP1 REVERT JUMPDEST PUSH3 0x1A7 DUP2 PUSH3 0x15E JUMP JUMPDEST DUP2 EQ PUSH3 0x1B3 JUMPI PUSH1 0x0 DUP1 REVERT JUMPDEST POP JUMP JUMPDEST PUSH2 0x16DF DUP1 PUSH3 0x1C6 PUSH1 0x0 CODECOPY PUSH1 0x0 RETURN INVALID PUSH1 0x80 PUSH1 0x40 MSTORE PUSH1 0x4 CALLDATASIZE LT PUSH2 0xDD JUMPI PUSH1 0x0 CALLDATALOAD PUSH1 0xE0 SHR DUP1 PUSH4 0x590E1AE3 GT PUSH2 0x7F JUMPI DUP1 PUSH4 0x937E09B1 GT PUSH2 0x59 JUMPI DUP1 PUSH4 0x937E09B1 EQ PUSH2 0x27F JUMPI DUP1 PUSH4 0x953B8FB8 EQ PUSH2 0x2AA JUMPI DUP1 PUSH4 0x9FB42B1F EQ PUSH2 0x2D5 JUMPI DUP1 PUSH4 0xC59EE1DC EQ PUSH2 0x300 JUMPI PUSH2 0xDD JUMP JUMPDEST DUP1 PUSH4 0x590E1AE3 EQ PUSH2 0x1FC JUMPI DUP1 PUSH4 0x6F9FB98A EQ PUSH2 0x213 JUMPI DUP1 PUSH4 0x81D12C58 EQ PUSH2 0x23E JUMPI PUSH2 0xDD JUMP JUMPDEST DUP1 PUSH4 0x29DCB0CF GT PUSH2 0xBB JUMPI DUP1 PUSH4 0x29DCB0CF EQ PUSH2 0x152 JUMPI DUP1 PUSH4 0x481C6A75 EQ PUSH2 0x17D JUMPI DUP1 PUSH4 0x4CB6F4A5 EQ PUSH2 0x1A8 JUMPI DUP1 PUSH4 0x4E260F6F EQ PUSH2 0x1D1 JUMPI PUSH2 0xDD JUMP JUMPDEST DUP1 PUSH4 0x6E99FEF EQ PUSH2 0xE2 JUMPI DUP1 PUSH4 0x1B16BB5C EQ PUSH2 0xEC JUMPI DUP1 PUSH4 0x1F6D4942 EQ PUSH2 0x115 JUMPI JUMPDEST PUSH1 0x0 DUP1 REVERT JUMPDEST PUSH2 0xEA PUSH2 0x32B JUMP JUMPDEST STOP JUMPDEST CALLVALUE DUP1 ISZERO PUSH2 0xF8 JUMPI PUSH1 0x0 DUP1 REVERT JUMPDEST POP PUSH2 0x113 PUSH1 0x4 DUP1 CALLDATASIZE SUB DUP2 ADD SWAP1 PUSH2 0x10E SWAP2 SWAP1 PUSH2 0xD13 JUMP JUMPDEST PUSH2 0x484 JUMP JUMPDEST STOP JUMPDEST CALLVALUE DUP1 ISZERO PUSH2 0x121 JUMPI PUSH1 0x0 DUP1 REVERT JUMPDEST POP PUSH2 0x13C PUSH1 0x4 DUP1 CALLDATASIZE SUB DUP2 ADD SWAP1 PUSH2 0x137 SWAP2 SWAP1 PUSH2 0xCE6 JUMP JUMPDEST PUSH2 0x631 JUMP JUMPDEST PUSH1 0x40 MLOAD PUSH2 0x149 SWAP2 SWAP1 PUSH2 0x10B1 JUMP JUMPDEST PUSH1 0x40 MLOAD DUP1 SWAP2 SUB SWAP1 RETURN JUMPDEST CALLVALUE DUP1 ISZERO PUSH2 0x15E JUMPI PUSH1 0x0 DUP1 REVERT JUMPDEST POP PUSH2 0x167 PUSH2 0x649 JUMP JUMPDEST PUSH1 0x40 MLOAD PUSH2 0x174 SWAP2 SWAP1 PUSH2 0x10B1 JUMP JUMPDEST PUSH1 0x40 MLOAD DUP1 SWAP2 SUB SWAP1 RETURN JUMPDEST CALLVALUE DUP1 ISZERO PUSH2 0x189 JUMPI PUSH1 0x0 DUP1 REVERT JUMPDEST POP PUSH2 0x192 PUSH2 0x64F JUMP JUMPDEST PUSH1 0x40 MLOAD PUSH2 0x19F SWAP2 SWAP1 PUSH2 0xF3C JUMP JUMPDEST PUSH1 0x40 MLOAD DUP1 SWAP2 SUB SWAP1 RETURN JUMPDEST CALLVALUE DUP1 ISZERO PUSH2 0x1B4 JUMPI PUSH1 0x0 DUP1 REVERT JUMPDEST POP PUSH2 0x1CF PUSH1 0x4 DUP1 CALLDATASIZE SUB DUP2 ADD SWAP1 PUSH2 0x1CA SWAP2 SWAP1 PUSH2 0xD82 JUMP JUMPDEST PUSH2 0x675 JUMP JUMPDEST STOP JUMPDEST CALLVALUE DUP1 ISZERO PUSH2 0x1DD JUMPI PUSH1 0x0 DUP1 REVERT JUMPDEST POP PUSH2 0x1E6 PUSH2 0x86F JUMP JUMPDEST PUSH1 0x40 MLOAD PUSH2 0x1F3 SWAP2 SWAP1 PUSH2 0x10B1 JUMP JUMPDEST PUSH1 0x40 MLOAD DUP1 SWAP2 SUB SWAP1 RETURN JUMPDEST CALLVALUE DUP1 ISZERO PUSH2 0x208 JUMPI PUSH1 0x0 DUP1 REVERT JUMPDEST POP PUSH2 0x211 PUSH2 0x875 JUMP JUMPDEST STOP JUMPDEST CALLVALUE DUP1 ISZERO PUSH2 0x21F JUMPI PUSH1 0x0 DUP1 REVERT JUMPDEST POP PUSH2 0x228 PUSH2 0xA89 JUMP JUMPDEST PUSH1 0x40 MLOAD PUSH2 0x235 SWAP2 SWAP1 PUSH2 0x10B1 JUMP JUMPDEST PUSH1 0x40 MLOAD DUP1 SWAP2 SUB SWAP1 RETURN JUMPDEST CALLVALUE DUP1 ISZERO PUSH2 0x24A JUMPI PUSH1 0x0 DUP1 REVERT JUMPDEST POP PUSH2 0x265 PUSH1 0x4 DUP1 CALLDATASIZE SUB DUP2 ADD SWAP1 PUSH2 0x260 SWAP2 SWAP1 PUSH2 0xD82 JUMP JUMPDEST PUSH2 0xA91 JUMP JUMPDEST PUSH1 0x40 MLOAD PUSH2 0x276 SWAP6 SWAP5 SWAP4 SWAP3 SWAP2 SWAP1 PUSH2 0xF57 JUMP JUMPDEST PUSH1 0x40 MLOAD DUP1 SWAP2 SUB SWAP1 RETURN JUMPDEST CALLVALUE DUP1 ISZERO PUSH2 0x28B JUMPI PUSH1 0x0 DUP1 REVERT JUMPDEST POP PUSH2 0x294 PUSH2 0xB7C JUMP JUMPDEST PUSH1 0x40 MLOAD PUSH2 0x2A1 SWAP2 SWAP1 PUSH2 0x10B1 JUMP JUMPDEST PUSH1 0x40 MLOAD DUP1 SWAP2 SUB SWAP1 RETURN JUMPDEST CALLVALUE DUP1 ISZERO PUSH2 0x2B6 JUMPI PUSH1 0x0 DUP1 REVERT JUMPDEST POP PUSH2 0x2BF PUSH2 0xB82 JUMP JUMPDEST PUSH1 0x40 MLOAD PUSH2 0x2CC SWAP2 SWAP1 PUSH2 0x10B1 JUMP JUMPDEST PUSH1 0x40 MLOAD DUP1 SWAP2 SUB SWAP1 RETURN JUMPDEST CALLVALUE DUP1 ISZERO PUSH2 0x2E1 JUMPI PUSH1 0x0 DUP1 REVERT JUMPDEST POP PUSH2 0x2EA PUSH2 0xB88 JUMP JUMPDEST PUSH1 0x40 MLOAD PUSH2 0x2F7 SWAP2 SWAP1 PUSH2 0x10B1 JUMP JUMPDEST PUSH1 0x40 MLOAD DUP1 SWAP2 SUB SWAP1 RETURN JUMPDEST CALLVALUE DUP1 ISZERO PUSH2 0x30C JUMPI PUSH1 0x0 DUP1 REVERT JUMPDEST POP PUSH2 0x315 PUSH2 0xB8E JUMP JUMPDEST PUSH1 0x40 MLOAD PUSH2 0x322 SWAP2 SWAP1 PUSH2 0x10B1 JUMP JUMPDEST PUSH1 0x40 MLOAD DUP1 SWAP2 SUB SWAP1 RETURN JUMPDEST PUSH1 0x3 SLOAD TIMESTAMP LT PUSH2 0x36F JUMPI PUSH1 0x40 MLOAD PUSH32 0x8C379A000000000000000000000000000000000000000000000000000000000 DUP2 MSTORE PUSH1 0x4 ADD PUSH2 0x366 SWAP1 PUSH2 0xFB1 JUMP JUMPDEST PUSH1 0x40 MLOAD DUP1 SWAP2 SUB SWAP1 REVERT JUMPDEST PUSH1 0x2 SLOAD CALLVALUE LT ISZERO PUSH2 0x3B4 JUMPI PUSH1 0x40 MLOAD PUSH32 0x8C379A000000000000000000000000000000000000000000000000000000000 DUP2 MSTORE PUSH1 0x4 ADD PUSH2 0x3AB SWAP1 PUSH2 0x1011 JUMP JUMPDEST PUSH1 0x40 MLOAD DUP1 SWAP2 SUB SWAP1 REVERT JUMPDEST PUSH1 0x0 DUP1 PUSH1 0x0 CALLER PUSH20 0xFFFFFFFFFFFFFFFFFFFFFFFFFFFFFFFFFFFFFFFF AND PUSH20 0xFFFFFFFFFFFFFFFFFFFFFFFFFFFFFFFFFFFFFFFF AND DUP2 MSTORE PUSH1 0x20 ADD SWAP1 DUP2 MSTORE PUSH1 0x20 ADD PUSH1 0x0 KECCAK256 SLOAD EQ ISZERO PUSH2 0x414 JUMPI PUSH1 0x6 PUSH1 0x0 DUP2 SLOAD DUP1 SWAP3 SWAP2 SWAP1 PUSH2 0x40E SWAP1 PUSH2 0x12F1 JUMP JUMPDEST SWAP2 SWAP1 POP SSTORE POP JUMPDEST CALLVALUE PUSH1 0x0 DUP1 CALLER PUSH20 0xFFFFFFFFFFFFFFFFFFFFFFFFFFFFFFFFFFFFFFFF AND PUSH20 0xFFFFFFFFFFFFFFFFFFFFFFFFFFFFFFFFFFFFFFFF AND DUP2 MSTORE PUSH1 0x20 ADD SWAP1 DUP2 MSTORE PUSH1 0x20 ADD PUSH1 0x0 KECCAK256 PUSH1 0x0 DUP3 DUP3 SLOAD PUSH2 0x462 SWAP2 SWAP1 PUSH2 0x113E JUMP JUMPDEST SWAP3 POP POP DUP2 SWAP1 SSTORE POP CALLVALUE PUSH1 0x5 PUSH1 0x0 DUP3 DUP3 SLOAD PUSH2 0x47B SWAP2 SWAP1 PUSH2 0x113E JUMP JUMPDEST SWAP3 POP POP DUP2 SWAP1 SSTORE POP JUMP JUMPDEST PUSH1 0x1 PUSH1 0x0 SWAP1 SLOAD SWAP1 PUSH2 0x100 EXP SWAP1 DIV PUSH20 0xFFFFFFFFFFFFFFFFFFFFFFFFFFFFFFFFFFFFFFFF AND PUSH20 0xFFFFFFFFFFFFFFFFFFFFFFFFFFFFFFFFFFFFFFFF AND CALLER PUSH20 0xFFFFFFFFFFFFFFFFFFFFFFFFFFFFFFFFFFFFFFFF AND EQ PUSH2 0x514 JUMPI PUSH1 0x40 MLOAD PUSH32 0x8C379A000000000000000000000000000000000000000000000000000000000 DUP2 MSTORE PUSH1 0x4 ADD PUSH2 0x50B SWAP1 PUSH2 0x1071 JUMP JUMPDEST PUSH1 0x40 MLOAD DUP1 SWAP2 SUB SWAP1 REVERT JUMPDEST PUSH1 0x0 PUSH1 0x7 PUSH1 0x0 PUSH1 0x8 SLOAD DUP2 MSTORE PUSH1 0x20 ADD SWAP1 DUP2 MSTORE PUSH1 0x20 ADD PUSH1 0x0 KECCAK256 SWAP1 POP PUSH1 0x8 PUSH1 0x0 DUP2 SLOAD DUP1 SWAP3 SWAP2 SWAP1 PUSH2 0x540 SWAP1 PUSH2 0x12F1 JUMP JUMPDEST SWAP2 SWAP1 POP SSTORE POP DUP4 DUP2 PUSH1 0x0 ADD SWAP1 DUP1 MLOAD SWAP1 PUSH1 0x20 ADD SWAP1 PUSH2 0x55D SWAP3 SWAP2 SWAP1 PUSH2 0xB94 JUMP JUMPDEST POP DUP3 DUP2 PUSH1 0x2 ADD PUSH1 0x0 PUSH2 0x100 EXP DUP2 SLOAD DUP2 PUSH20 0xFFFFFFFFFFFFFFFFFFFFFFFFFFFFFFFFFFFFFFFF MUL NOT AND SWAP1 DUP4 PUSH20 0xFFFFFFFFFFFFFFFFFFFFFFFFFFFFFFFFFFFFFFFF AND MUL OR SWAP1 SSTORE POP DUP2 DUP2 PUSH1 0x1 ADD DUP2 SWAP1 SSTORE POP PUSH1 0x0 DUP2 PUSH1 0x2 ADD PUSH1 0x14 PUSH2 0x100 EXP DUP2 SLOAD DUP2 PUSH1 0xFF MUL NOT AND SWAP1 DUP4 ISZERO ISZERO MUL OR SWAP1 SSTORE POP PUSH1 0x0 DUP2 PUSH1 0x3 ADD DUP2 SWAP1 SSTORE POP PUSH1 0x0 DUP2 PUSH1 0x4 ADD PUSH1 0x0 CALLER PUSH20 0xFFFFFFFFFFFFFFFFFFFFFFFFFFFFFFFFFFFFFFFF AND PUSH20 0xFFFFFFFFFFFFFFFFFFFFFFFFFFFFFFFFFFFFFFFF AND DUP2 MSTORE PUSH1 0x20 ADD SWAP1 DUP2 MSTORE PUSH1 0x20 ADD PUSH1 0x0 KECCAK256 PUSH1 0x0 PUSH2 0x100 EXP DUP2 SLOAD DUP2 PUSH1 0xFF MUL NOT AND SWAP1 DUP4 ISZERO ISZERO MUL OR SWAP1 SSTORE POP POP POP POP POP JUMP JUMPDEST PUSH1 0x0 PUSH1 0x20 MSTORE DUP1 PUSH1 0x0 MSTORE PUSH1 0x40 PUSH1 0x0 KECCAK256 PUSH1 0x0 SWAP2 POP SWAP1 POP SLOAD DUP2 JUMP JUMPDEST PUSH1 0x3 SLOAD DUP2 JUMP JUMPDEST PUSH1 0x1 PUSH1 0x0 SWAP1 SLOAD SWAP1 PUSH2 0x100 EXP SWAP1 DIV PUSH20 0xFFFFFFFFFFFFFFFFFFFFFFFFFFFFFFFFFFFFFFFF AND DUP2 JUMP JUMPDEST PUSH1 0x0 DUP1 PUSH1 0x0 CALLER PUSH20 0xFFFFFFFFFFFFFFFFFFFFFFFFFFFFFFFFFFFFFFFF AND PUSH20 0xFFFFFFFFFFFFFFFFFFFFFFFFFFFFFFFFFFFFFFFF AND DUP2 MSTORE PUSH1 0x20 ADD SWAP1 DUP2 MSTORE PUSH1 0x20 ADD PUSH1 0x0 KECCAK256 SLOAD GT PUSH2 0x6F6 JUMPI PUSH1 0x40 MLOAD PUSH32 0x8C379A000000000000000000000000000000000000000000000000000000000 DUP2 MSTORE PUSH1 0x4 ADD PUSH2 0x6ED SWAP1 PUSH2 0x1031 JUMP JUMPDEST PUSH1 0x40 MLOAD DUP1 SWAP2 SUB SWAP1 REVERT JUMPDEST PUSH1 0x8 SLOAD DUP2 GT ISZERO DUP1 ISZERO PUSH2 0x709 JUMPI POP PUSH1 0x0 DUP2 LT ISZERO JUMPDEST PUSH2 0x748 JUMPI PUSH1 0x40 MLOAD PUSH32 0x8C379A000000000000000000000000000000000000000000000000000000000 DUP2 MSTORE PUSH1 0x4 ADD PUSH2 0x73F SWAP1 PUSH2 0xFD1 JUMP JUMPDEST PUSH1 0x40 MLOAD DUP1 SWAP2 SUB SWAP1 REVERT JUMPDEST PUSH1 0x0 PUSH1 0x7 PUSH1 0x0 DUP4 DUP2 MSTORE PUSH1 0x20 ADD SWAP1 DUP2 MSTORE PUSH1 0x20 ADD PUSH1 0x0 KECCAK256 SWAP1 POP PUSH1 0x0 DUP2 PUSH1 0x4 ADD PUSH1 0x0 CALLER PUSH20 0xFFFFFFFFFFFFFFFFFFFFFFFFFFFFFFFFFFFFFFFF AND PUSH20 0xFFFFFFFFFFFFFFFFFFFFFFFFFFFFFFFFFFFFFFFF AND DUP2 MSTORE PUSH1 0x20 ADD SWAP1 DUP2 MSTORE PUSH1 0x20 ADD PUSH1 0x0 KECCAK256 PUSH1 0x0 PUSH2 0x100 EXP DUP2 SLOAD DUP2 PUSH1 0xFF MUL NOT AND SWAP1 DUP4 ISZERO ISZERO MUL OR SWAP1 SSTORE PUSH2 0x7F7 JUMPI PUSH1 0x40 MLOAD PUSH32 0x8C379A000000000000000000000000000000000000000000000000000000000 DUP2 MSTORE PUSH1 0x4 ADD PUSH2 0x7EE SWAP1 PUSH2 0x1091 JUMP JUMPDEST PUSH1 0x40 MLOAD DUP1 SWAP2 SUB SWAP1 REVERT JUMPDEST PUSH1 0x1 DUP2 PUSH1 0x4 ADD PUSH1 0x0 CALLER PUSH20 0xFFFFFFFFFFFFFFFFFFFFFFFFFFFFFFFFFFFFFFFF AND PUSH20 0xFFFFFFFFFFFFFFFFFFFFFFFFFFFFFFFFFFFFFFFF AND DUP2 MSTORE PUSH1 0x20 ADD SWAP1 DUP2 MSTORE PUSH1 0x20 ADD PUSH1 0x0 KECCAK256 PUSH1 0x0 PUSH2 0x100 EXP DUP2 SLOAD DUP2 PUSH1 0xFF MUL NOT AND SWAP1 DUP4 ISZERO ISZERO MUL OR SWAP1 SSTORE POP DUP1 PUSH1 0x3 ADD PUSH1 0x0 DUP2 SLOAD DUP1 SWAP3 SWAP2 SWAP1 PUSH2 0x866 SWAP1 PUSH2 0x12F1 JUMP JUMPDEST SWAP2 SWAP1 POP SSTORE POP POP POP JUMP JUMPDEST PUSH1 0x6 SLOAD DUP2 JUMP JUMPDEST PUSH1 0x3 SLOAD TIMESTAMP GT DUP1 ISZERO PUSH2 0x889 JUMPI POP PUSH1 0x4 SLOAD PUSH1 0x5 SLOAD LT JUMPDEST PUSH2 0x8C8 JUMPI PUSH1 0x40 MLOAD PUSH32 0x8C379A000000000000000000000000000000000000000000000000000000000 DUP2 MSTORE PUSH1 0x4 ADD PUSH2 0x8BF SWAP1 PUSH2 0x1051 JUMP JUMPDEST PUSH1 0x40 MLOAD DUP1 SWAP2 SUB SWAP1 REVERT JUMPDEST PUSH1 0x0 DUP1 PUSH1 0x0 CALLER PUSH20 0xFFFFFFFFFFFFFFFFFFFFFFFFFFFFFFFFFFFFFFFF AND PUSH20 0xFFFFFFFFFFFFFFFFFFFFFFFFFFFFFFFFFFFFFFFF AND DUP2 MSTORE PUSH1 0x20 ADD SWAP1 DUP2 MSTORE PUSH1 0x20 ADD PUSH1 0x0 KECCAK256 SLOAD GT PUSH2 0x949 JUMPI PUSH1 0x40 MLOAD PUSH32 0x8C379A000000000000000000000000000000000000000000000000000000000 DUP2 MSTORE PUSH1 0x4 ADD PUSH2 0x940 SWAP1 PUSH2 0xFF1 JUMP JUMPDEST PUSH1 0x40 MLOAD DUP1 SWAP2 SUB SWAP1 REVERT JUMPDEST PUSH1 0x0 CALLER SWAP1 POP DUP1 PUSH20 0xFFFFFFFFFFFFFFFFFFFFFFFFFFFFFFFFFFFFFFFF AND PUSH2 0x8FC PUSH1 0x0 DUP1 CALLER PUSH20 0xFFFFFFFFFFFFFFFFFFFFFFFFFFFFFFFFFFFFFFFF AND PUSH20 0xFFFFFFFFFFFFFFFFFFFFFFFFFFFFFFFFFFFFFFFF AND DUP2 MSTORE PUSH1 0x20 ADD SWAP1 DUP2 MSTORE PUSH1 0x20 ADD PUSH1 0x0 KECCAK256 SLOAD SWAP1 DUP2 ISZERO MUL SWAP1 PUSH1 0x40 MLOAD PUSH1 0x0 PUSH1 0x40 MLOAD DUP1 DUP4 SUB DUP2 DUP6 DUP9 DUP9 CALL SWAP4 POP POP POP POP ISZERO DUP1 ISZERO PUSH2 0x9D2 JUMPI RETURNDATASIZE PUSH1 0x0 DUP1 RETURNDATACOPY RETURNDATASIZE PUSH1 0x0 REVERT JUMPDEST POP PUSH1 0x0 DUP1 CALLER PUSH20 0xFFFFFFFFFFFFFFFFFFFFFFFFFFFFFFFFFFFFFFFF AND PUSH20 0xFFFFFFFFFFFFFFFFFFFFFFFFFFFFFFFFFFFFFFFF AND DUP2 MSTORE PUSH1 0x20 ADD SWAP1 DUP2 MSTORE PUSH1 0x20 ADD PUSH1 0x0 KECCAK256 SLOAD PUSH1 0x5 PUSH1 0x0 DUP3 DUP3 SLOAD PUSH2 0xA23 SWAP2 SWAP1 PUSH2 0x1194 JUMP JUMPDEST SWAP3 POP POP DUP2 SWAP1 SSTORE POP PUSH1 0x0 DUP1 PUSH1 0x0 CALLER PUSH20 0xFFFFFFFFFFFFFFFFFFFFFFFFFFFFFFFFFFFFFFFF AND PUSH20 0xFFFFFFFFFFFFFFFFFFFFFFFFFFFFFFFFFFFFFFFF AND DUP2 MSTORE PUSH1 0x20 ADD SWAP1 DUP2 MSTORE PUSH1 0x20 ADD PUSH1 0x0 KECCAK256 DUP2 SWAP1 SSTORE POP PUSH1 0x6 PUSH1 0x0 DUP2 SLOAD DUP1 SWAP3 SWAP2 SWAP1 PUSH2 0xA81 SWAP1 PUSH2 0x1264 JUMP JUMPDEST SWAP2 SWAP1 POP SSTORE POP POP JUMP JUMPDEST PUSH1 0x0 SELFBALANCE SWAP1 POP SWAP1 JUMP JUMPDEST PUSH1 0x7 PUSH1 0x20 MSTORE DUP1 PUSH1 0x0 MSTORE PUSH1 0x40 PUSH1 0x0 KECCAK256 PUSH1 0x0 SWAP2 POP SWAP1 POP DUP1 PUSH1 0x0 ADD DUP1 SLOAD PUSH2 0xAB4 SWAP1 PUSH2 0x128E JUMP JUMPDEST DUP1 PUSH1 0x1F ADD PUSH1 0x20 DUP1 SWAP2 DIV MUL PUSH1 0x20 ADD PUSH1 0x40 MLOAD SWAP1 DUP2 ADD PUSH1 0x40 MSTORE DUP1 SWAP3 SWAP2 SWAP1 DUP2 DUP2 MSTORE PUSH1 0x20 ADD DUP3 DUP1 SLOAD PUSH2 0xAE0 SWAP1 PUSH2 0x128E JUMP JUMPDEST DUP1 ISZERO PUSH2 0xB2D JUMPI DUP1 PUSH1 0x1F LT PUSH2 0xB02 JUMPI PUSH2 0x100 DUP1 DUP4 SLOAD DIV MUL DUP4 MSTORE SWAP2 PUSH1 0x20 ADD SWAP2 PUSH2 0xB2D JUMP JUMPDEST DUP3 ADD SWAP2 SWAP1 PUSH1 0x0 MSTORE PUSH1 0x20 PUSH1 0x0 KECCAK256 SWAP1 JUMPDEST DUP2 SLOAD DUP2 MSTORE SWAP1 PUSH1 0x1 ADD SWAP1 PUSH1 0x20 ADD DUP1 DUP4 GT PUSH2 0xB10 JUMPI DUP3 SWAP1 SUB PUSH1 0x1F AND DUP3 ADD SWAP2 JUMPDEST POP POP POP POP POP SWAP1 DUP1 PUSH1 0x1 ADD SLOAD SWAP1 DUP1 PUSH1 0x2 ADD PUSH1 0x0 SWAP1 SLOAD SWAP1 PUSH2 0x100 EXP SWAP1 DIV PUSH20 0xFFFFFFFFFFFFFFFFFFFFFFFFFFFFFFFFFFFFFFFF AND SWAP1 DUP1 PUSH1 0x2 ADD PUSH1 0x14 SWAP1 SLOAD SWAP1 PUSH2 0x100 EXP SWAP1 DIV PUSH1 0xFF AND SWAP1 DUP1 PUSH1 0x3 ADD SLOAD SWAP1 POP DUP6 JUMP JUMPDEST PUSH1 0x2 SLOAD DUP2 JUMP JUMPDEST PUSH1 0x4 SLOAD DUP2 JUMP JUMPDEST PUSH1 0x8 SLOAD DUP2 JUMP JUMPDEST PUSH1 0x5 SLOAD DUP2 JUMP JUMPDEST DUP3 DUP1 SLOAD PUSH2 0xBA0 SWAP1 PUSH2 0x128E JUMP JUMPDEST SWAP1 PUSH1 0x0 MSTORE PUSH1 0x20 PUSH1 0x0 KECCAK256 SWAP1 PUSH1 0x1F ADD PUSH1 0x20 SWAP1 DIV DUP2 ADD SWAP3 DUP3 PUSH2 0xBC2 JUMPI PUSH1 0x0 DUP6 SSTORE PUSH2 0xC09 JUMP JUMPDEST DUP3 PUSH1 0x1F LT PUSH2 0xBDB JUMPI DUP1 MLOAD PUSH1 0xFF NOT AND DUP4 DUP1 ADD OR DUP6 SSTORE PUSH2 0xC09 JUMP JUMPDEST DUP3 DUP1 ADD PUSH1 0x1 ADD DUP6 SSTORE DUP3 ISZERO PUSH2 0xC09 JUMPI SWAP2 DUP3 ADD JUMPDEST DUP3 DUP2 GT ISZERO PUSH2 0xC08 JUMPI DUP3 MLOAD DUP3 SSTORE SWAP2 PUSH1 0x20 ADD SWAP2 SWAP1 PUSH1 0x1 ADD SWAP1 PUSH2 0xBED JUMP JUMPDEST JUMPDEST POP SWAP1 POP PUSH2 0xC16 SWAP2 SWAP1 PUSH2 0xC1A JUMP JUMPDEST POP SWAP1 JUMP JUMPDEST JUMPDEST DUP1 DUP3 GT ISZERO PUSH2 0xC33 JUMPI PUSH1 0x0 DUP2 PUSH1 0x0 SWAP1 SSTORE POP PUSH1 0x1 ADD PUSH2 0xC1B JUMP JUMPDEST POP SWAP1 JUMP JUMPDEST PUSH1 0x0 PUSH2 0xC4A PUSH2 0xC45 DUP5 PUSH2 0x10F1 JUMP JUMPDEST PUSH2 0x10CC JUMP JUMPDEST SWAP1 POP DUP3 DUP2 MSTORE PUSH1 0x20 DUP2 ADD DUP5 DUP5 DUP5 ADD GT ISZERO PUSH2 0xC66 JUMPI PUSH2 0xC65 PUSH2 0x13CC JUMP JUMPDEST JUMPDEST PUSH2 0xC71 DUP5 DUP3 DUP6 PUSH2 0x1222 JUMP JUMPDEST POP SWAP4 SWAP3 POP POP POP JUMP JUMPDEST PUSH1 0x0 DUP2 CALLDATALOAD SWAP1 POP PUSH2 0xC88 DUP2 PUSH2 0x1664 JUMP JUMPDEST SWAP3 SWAP2 POP POP JUMP JUMPDEST PUSH1 0x0 DUP2 CALLDATALOAD SWAP1 POP PUSH2 0xC9D DUP2 PUSH2 0x167B JUMP JUMPDEST SWAP3 SWAP2 POP POP JUMP JUMPDEST PUSH1 0x0 DUP3 PUSH1 0x1F DUP4 ADD SLT PUSH2 0xCB8 JUMPI PUSH2 0xCB7 PUSH2 0x13C7 JUMP JUMPDEST JUMPDEST DUP2 CALLDATALOAD PUSH2 0xCC8 DUP5 DUP3 PUSH1 0x20 DUP7 ADD PUSH2 0xC37 JUMP JUMPDEST SWAP2 POP POP SWAP3 SWAP2 POP POP JUMP JUMPDEST PUSH1 0x0 DUP2 CALLDATALOAD SWAP1 POP PUSH2 0xCE0 DUP2 PUSH2 0x1692 JUMP JUMPDEST SWAP3 SWAP2 POP POP JUMP JUMPDEST PUSH1 0x0 PUSH1 0x20 DUP3 DUP5 SUB SLT ISZERO PUSH2 0xCFC JUMPI PUSH2 0xCFB PUSH2 0x13D6 JUMP JUMPDEST JUMPDEST PUSH1 0x0 PUSH2 0xD0A DUP5 DUP3 DUP6 ADD PUSH2 0xC79 JUMP JUMPDEST SWAP2 POP POP SWAP3 SWAP2 POP POP JUMP JUMPDEST PUSH1 0x0 DUP1 PUSH1 0x0 PUSH1 0x60 DUP5 DUP7 SUB SLT ISZERO PUSH2 0xD2C JUMPI PUSH2 0xD2B PUSH2 0x13D6 JUMP JUMPDEST JUMPDEST PUSH1 0x0 DUP5 ADD CALLDATALOAD PUSH8 0xFFFFFFFFFFFFFFFF DUP2 GT ISZERO PUSH2 0xD4A JUMPI PUSH2 0xD49 PUSH2 0x13D1 JUMP JUMPDEST JUMPDEST PUSH2 0xD56 DUP7 DUP3 DUP8 ADD PUSH2 0xCA3 JUMP JUMPDEST SWAP4 POP POP PUSH1 0x20 PUSH2 0xD67 DUP7 DUP3 DUP8 ADD PUSH2 0xC8E JUMP JUMPDEST SWAP3 POP POP PUSH1 0x40 PUSH2 0xD78 DUP7 DUP3 DUP8 ADD PUSH2 0xCD1 JUMP JUMPDEST SWAP2 POP POP SWAP3 POP SWAP3 POP SWAP3 JUMP JUMPDEST PUSH1 0x0 PUSH1 0x20 DUP3 DUP5 SUB SLT ISZERO PUSH2 0xD98 JUMPI PUSH2 0xD97 PUSH2 0x13D6 JUMP JUMPDEST JUMPDEST PUSH1 0x0 PUSH2 0xDA6 DUP5 DUP3 DUP6 ADD PUSH2 0xCD1 JUMP JUMPDEST SWAP2 POP POP SWAP3 SWAP2 POP POP JUMP JUMPDEST PUSH2 0xDB8 DUP2 PUSH2 0x11DA JUMP JUMPDEST DUP3 MSTORE POP POP JUMP JUMPDEST PUSH2 0xDC7 DUP2 PUSH2 0x11C8 JUMP JUMPDEST DUP3 MSTORE POP POP JUMP JUMPDEST PUSH2 0xDD6 DUP2 PUSH2 0x11EC JUMP JUMPDEST DUP3 MSTORE POP POP JUMP JUMPDEST PUSH1 0x0 PUSH2 0xDE7 DUP3 PUSH2 0x1122 JUMP JUMPDEST PUSH2 0xDF1 DUP2 DUP6 PUSH2 0x112D JUMP JUMPDEST SWAP4 POP PUSH2 0xE01 DUP2 DUP6 PUSH1 0x20 DUP7 ADD PUSH2 0x1231 JUMP JUMPDEST PUSH2 0xE0A DUP2 PUSH2 0x13DB JUMP JUMPDEST DUP5 ADD SWAP2 POP POP SWAP3 SWAP2 POP POP JUMP JUMPDEST PUSH1 0x0 PUSH2 0xE22 PUSH1 0x24 DUP4 PUSH2 0x112D JUMP JUMPDEST SWAP2 POP PUSH2 0xE2D DUP3 PUSH2 0x13EC JUMP JUMPDEST PUSH1 0x40 DUP3 ADD SWAP1 POP SWAP2 SWAP1 POP JUMP JUMPDEST PUSH1 0x0 PUSH2 0xE45 PUSH1 0x17 DUP4 PUSH2 0x112D JUMP JUMPDEST SWAP2 POP PUSH2 0xE50 DUP3 PUSH2 0x143B JUMP JUMPDEST PUSH1 0x20 DUP3 ADD SWAP1 POP SWAP2 SWAP1 POP JUMP JUMPDEST PUSH1 0x0 PUSH2 0xE68 PUSH1 0x18 DUP4 PUSH2 0x112D JUMP JUMPDEST SWAP2 POP PUSH2 0xE73 DUP3 PUSH2 0x1464 JUMP JUMPDEST PUSH1 0x20 DUP3 ADD SWAP1 POP SWAP2 SWAP1 POP JUMP JUMPDEST PUSH1 0x0 PUSH2 0xE8B PUSH1 0x28 DUP4 PUSH2 0x112D JUMP JUMPDEST SWAP2 POP PUSH2 0xE96 DUP3 PUSH2 0x148D JUMP JUMPDEST PUSH1 0x40 DUP3 ADD SWAP1 POP SWAP2 SWAP1 POP JUMP JUMPDEST PUSH1 0x0 PUSH2 0xEAE PUSH1 0x43 DUP4 PUSH2 0x112D JUMP JUMPDEST SWAP2 POP PUSH2 0xEB9 DUP3 PUSH2 0x14DC JUMP JUMPDEST PUSH1 0x60 DUP3 ADD SWAP1 POP SWAP2 SWAP1 POP JUMP JUMPDEST PUSH1 0x0 PUSH2 0xED1 PUSH1 0x26 DUP4 PUSH2 0x112D JUMP JUMPDEST SWAP2 POP PUSH2 0xEDC DUP3 PUSH2 0x1551 JUMP JUMPDEST PUSH1 0x40 DUP3 ADD SWAP1 POP SWAP2 SWAP1 POP JUMP JUMPDEST PUSH1 0x0 PUSH2 0xEF4 PUSH1 0x23 DUP4 PUSH2 0x112D JUMP JUMPDEST SWAP2 POP PUSH2 0xEFF DUP3 PUSH2 0x15A0 JUMP JUMPDEST PUSH1 0x40 DUP3 ADD SWAP1 POP SWAP2 SWAP1 POP JUMP JUMPDEST PUSH1 0x0 PUSH2 0xF17 PUSH1 0x56 DUP4 PUSH2 0x112D JUMP JUMPDEST SWAP2 POP PUSH2 0xF22 DUP3 PUSH2 0x15EF JUMP JUMPDEST PUSH1 0x60 DUP3 ADD SWAP1 POP SWAP2 SWAP1 POP JUMP JUMPDEST PUSH2 0xF36 DUP2 PUSH2 0x1218 JUMP JUMPDEST DUP3 MSTORE POP POP JUMP JUMPDEST PUSH1 0x0 PUSH1 0x20 DUP3 ADD SWAP1 POP PUSH2 0xF51 PUSH1 0x0 DUP4 ADD DUP5 PUSH2 0xDBE JUMP JUMPDEST SWAP3 SWAP2 POP POP JUMP JUMPDEST PUSH1 0x0 PUSH1 0xA0 DUP3 ADD SWAP1 POP DUP2 DUP2 SUB PUSH1 0x0 DUP4 ADD MSTORE PUSH2 0xF71 DUP2 DUP9 PUSH2 0xDDC JUMP JUMPDEST SWAP1 POP PUSH2 0xF80 PUSH1 0x20 DUP4 ADD DUP8 PUSH2 0xF2D JUMP JUMPDEST PUSH2 0xF8D PUSH1 0x40 DUP4 ADD DUP7 PUSH2 0xDAF JUMP JUMPDEST PUSH2 0xF9A PUSH1 0x60 DUP4 ADD DUP6 PUSH2 0xDCD JUMP JUMPDEST PUSH2 0xFA7 PUSH1 0x80 DUP4 ADD DUP5 PUSH2 0xF2D JUMP JUMPDEST SWAP7 SWAP6 POP POP POP POP POP POP JUMP JUMPDEST PUSH1 0x0 PUSH1 0x20 DUP3 ADD SWAP1 POP DUP2 DUP2 SUB PUSH1 0x0 DUP4 ADD MSTORE PUSH2 0xFCA DUP2 PUSH2 0xE15 JUMP JUMPDEST SWAP1 POP SWAP2 SWAP1 POP JUMP JUMPDEST PUSH1 0x0 PUSH1 0x20 DUP3 ADD SWAP1 POP DUP2 DUP2 SUB PUSH1 0x0 DUP4 ADD MSTORE PUSH2 0xFEA DUP2 PUSH2 0xE38 JUMP JUMPDEST SWAP1 POP SWAP2 SWAP1 POP JUMP JUMPDEST PUSH1 0x0 PUSH1 0x20 DUP3 ADD SWAP1 POP DUP2 DUP2 SUB PUSH1 0x0 DUP4 ADD MSTORE PUSH2 0x100A DUP2 PUSH2 0xE5B JUMP JUMPDEST SWAP1 POP SWAP2 SWAP1 POP JUMP JUMPDEST PUSH1 0x0 PUSH1 0x20 DUP3 ADD SWAP1 POP DUP2 DUP2 SUB PUSH1 0x0 DUP4 ADD MSTORE PUSH2 0x102A DUP2 PUSH2 0xE7E JUMP JUMPDEST SWAP1 POP SWAP2 SWAP1 POP JUMP JUMPDEST PUSH1 0x0 PUSH1 0x20 DUP3 ADD SWAP1 POP DUP2 DUP2 SUB PUSH1 0x0 DUP4 ADD MSTORE PUSH2 0x104A DUP2 PUSH2 0xEA1 JUMP JUMPDEST SWAP1 POP SWAP2 SWAP1 POP JUMP JUMPDEST PUSH1 0x0 PUSH1 0x20 DUP3 ADD SWAP1 POP DUP2 DUP2 SUB PUSH1 0x0 DUP4 ADD MSTORE PUSH2 0x106A DUP2 PUSH2 0xEC4 JUMP JUMPDEST SWAP1 POP SWAP2 SWAP1 POP JUMP JUMPDEST PUSH1 0x0 PUSH1 0x20 DUP3 ADD SWAP1 POP DUP2 DUP2 SUB PUSH1 0x0 DUP4 ADD MSTORE PUSH2 0x108A DUP2 PUSH2 0xEE7 JUMP JUMPDEST SWAP1 POP SWAP2 SWAP1 POP JUMP JUMPDEST PUSH1 0x0 PUSH1 0x20 DUP3 ADD SWAP1 POP DUP2 DUP2 SUB PUSH1 0x0 DUP4 ADD MSTORE PUSH2 0x10AA DUP2 PUSH2 0xF0A JUMP JUMPDEST SWAP1 POP SWAP2 SWAP1 POP JUMP JUMPDEST PUSH1 0x0 PUSH1 0x20 DUP3 ADD SWAP1 POP PUSH2 0x10C6 PUSH1 0x0 DUP4 ADD DUP5 PUSH2 0xF2D JUMP JUMPDEST SWAP3 SWAP2 POP POP JUMP JUMPDEST PUSH1 0x0 PUSH2 0x10D6 PUSH2 0x10E7 JUMP JUMPDEST SWAP1 POP PUSH2 0x10E2 DUP3 DUP3 PUSH2 0x12C0 JUMP JUMPDEST SWAP2 SWAP1 POP JUMP JUMPDEST PUSH1 0x0 PUSH1 0x40 MLOAD SWAP1 POP SWAP1 JUMP JUMPDEST PUSH1 0x0 PUSH8 0xFFFFFFFFFFFFFFFF DUP3 GT ISZERO PUSH2 0x110C JUMPI PUSH2 0x110B PUSH2 0x1398 JUMP JUMPDEST JUMPDEST PUSH2 0x1115 DUP3 PUSH2 0x13DB JUMP JUMPDEST SWAP1 POP PUSH1 0x20 DUP2 ADD SWAP1 POP SWAP2 SWAP1 POP JUMP JUMPDEST PUSH1 0x0 DUP2 MLOAD SWAP1 POP SWAP2 SWAP1 POP JUMP JUMPDEST PUSH1 0x0 DUP3 DUP3 MSTORE PUSH1 0x20 DUP3 ADD SWAP1 POP SWAP3 SWAP2 POP POP JUMP JUMPDEST PUSH1 0x0 PUSH2 0x1149 DUP3 PUSH2 0x1218 JUMP JUMPDEST SWAP2 POP PUSH2 0x1154 DUP4 PUSH2 0x1218 JUMP JUMPDEST SWAP3 POP DUP3 PUSH32 0xFFFFFFFFFFFFFFFFFFFFFFFFFFFFFFFFFFFFFFFFFFFFFFFFFFFFFFFFFFFFFFFF SUB DUP3 GT ISZERO PUSH2 0x1189 JUMPI PUSH2 0x1188 PUSH2 0x133A JUMP JUMPDEST JUMPDEST DUP3 DUP3 ADD SWAP1 POP SWAP3 SWAP2 POP POP JUMP JUMPDEST PUSH1 0x0 PUSH2 0x119F DUP3 PUSH2 0x1218 JUMP JUMPDEST SWAP2 POP PUSH2 0x11AA DUP4 PUSH2 0x1218 JUMP JUMPDEST SWAP3 POP DUP3 DUP3 LT ISZERO PUSH2 0x11BD JUMPI PUSH2 0x11BC PUSH2 0x133A JUMP JUMPDEST JUMPDEST DUP3 DUP3 SUB SWAP1 POP SWAP3 SWAP2 POP POP JUMP JUMPDEST PUSH1 0x0 PUSH2 0x11D3 DUP3 PUSH2 0x11F8 JUMP JUMPDEST SWAP1 POP SWAP2 SWAP1 POP JUMP JUMPDEST PUSH1 0x0 PUSH2 0x11E5 DUP3 PUSH2 0x11F8 JUMP JUMPDEST SWAP1 POP SWAP2 SWAP1 POP JUMP JUMPDEST PUSH1 0x0 DUP2 ISZERO ISZERO SWAP1 POP SWAP2 SWAP1 POP JUMP JUMPDEST PUSH1 0x0 PUSH20 0xFFFFFFFFFFFFFFFFFFFFFFFFFFFFFFFFFFFFFFFF DUP3 AND SWAP1 POP SWAP2 SWAP1 POP JUMP JUMPDEST PUSH1 0x0 DUP2 SWAP1 POP SWAP2 SWAP1 POP JUMP JUMPDEST DUP3 DUP2 DUP4 CALLDATACOPY PUSH1 0x0 DUP4 DUP4 ADD MSTORE POP POP POP JUMP JUMPDEST PUSH1 0x0 JUMPDEST DUP4 DUP2 LT ISZERO PUSH2 0x124F JUMPI DUP1 DUP3 ADD MLOAD DUP2 DUP5 ADD MSTORE PUSH1 0x20 DUP2 ADD SWAP1 POP PUSH2 0x1234 JUMP JUMPDEST DUP4 DUP2 GT ISZERO PUSH2 0x125E JUMPI PUSH1 0x0 DUP5 DUP5 ADD MSTORE JUMPDEST POP POP POP POP JUMP JUMPDEST PUSH1 0x0 PUSH2 0x126F DUP3 PUSH2 0x1218 JUMP JUMPDEST SWAP2 POP PUSH1 0x0 DUP3 EQ ISZERO PUSH2 0x1283 JUMPI PUSH2 0x1282 PUSH2 0x133A JUMP JUMPDEST JUMPDEST PUSH1 0x1 DUP3 SUB SWAP1 POP SWAP2 SWAP1 POP JUMP JUMPDEST PUSH1 0x0 PUSH1 0x2 DUP3 DIV SWAP1 POP PUSH1 0x1 DUP3 AND DUP1 PUSH2 0x12A6 JUMPI PUSH1 0x7F DUP3 AND SWAP2 POP JUMPDEST PUSH1 0x20 DUP3 LT DUP2 EQ ISZERO PUSH2 0x12BA JUMPI PUSH2 0x12B9 PUSH2 0x1369 JUMP JUMPDEST JUMPDEST POP SWAP2 SWAP1 POP JUMP JUMPDEST PUSH2 0x12C9 DUP3 PUSH2 0x13DB JUMP JUMPDEST DUP2 ADD DUP2 DUP2 LT PUSH8 0xFFFFFFFFFFFFFFFF DUP3 GT OR ISZERO PUSH2 0x12E8 JUMPI PUSH2 0x12E7 PUSH2 0x1398 JUMP JUMPDEST JUMPDEST DUP1 PUSH1 0x40 MSTORE POP POP POP JUMP JUMPDEST PUSH1 0x0 PUSH2 0x12FC DUP3 PUSH2 0x1218 JUMP JUMPDEST SWAP2 POP PUSH32 0xFFFFFFFFFFFFFFFFFFFFFFFFFFFFFFFFFFFFFFFFFFFFFFFFFFFFFFFFFFFFFFFF DUP3 EQ ISZERO PUSH2 0x132F JUMPI PUSH2 0x132E PUSH2 0x133A JUMP JUMPDEST JUMPDEST PUSH1 0x1 DUP3 ADD SWAP1 POP SWAP2 SWAP1 POP JUMP JUMPDEST PUSH32 0x4E487B7100000000000000000000000000000000000000000000000000000000 PUSH1 0x0 MSTORE PUSH1 0x11 PUSH1 0x4 MSTORE PUSH1 0x24 PUSH1 0x0 REVERT JUMPDEST PUSH32 0x4E487B7100000000000000000000000000000000000000000000000000000000 PUSH1 0x0 MSTORE PUSH1 0x22 PUSH1 0x4 MSTORE PUSH1 0x24 PUSH1 0x0 REVERT JUMPDEST PUSH32 0x4E487B7100000000000000000000000000000000000000000000000000000000 PUSH1 0x0 MSTORE PUSH1 0x41 PUSH1 0x4 MSTORE PUSH1 0x24 PUSH1 0x0 REVERT JUMPDEST PUSH1 0x0 DUP1 REVERT JUMPDEST PUSH1 0x0 DUP1 REVERT JUMPDEST PUSH1 0x0 DUP1 REVERT JUMPDEST PUSH1 0x0 DUP1 REVERT JUMPDEST PUSH1 0x0 PUSH1 0x1F NOT PUSH1 0x1F DUP4 ADD AND SWAP1 POP SWAP2 SWAP1 POP JUMP JUMPDEST PUSH32 0x536F727279212120446561646C696E652068617320616C726561647920706173 PUSH1 0x0 DUP3 ADD MSTORE PUSH32 0x7365642E00000000000000000000000000000000000000000000000000000000 PUSH1 0x20 DUP3 ADD MSTORE POP JUMP JUMPDEST PUSH32 0x496E76616C69642072657175657374206E756D6265722E000000000000000000 PUSH1 0x0 DUP3 ADD MSTORE POP JUMP JUMPDEST PUSH32 0x596F7520686176656E277420636F6E74726962757465642E0000000000000000 PUSH1 0x0 DUP3 ADD MSTORE POP JUMP JUMPDEST PUSH32 0x536F727279212120796F75206861766520746F20706179206D696E696D756D20 PUSH1 0x0 DUP3 ADD MSTORE PUSH32 0x313030207765692E000000000000000000000000000000000000000000000000 PUSH1 0x20 DUP3 ADD MSTORE POP JUMP JUMPDEST PUSH32 0x536F727279212120596F75206861766520746F20636F6E747269627574652066 PUSH1 0x0 DUP3 ADD MSTORE PUSH32 0x6972737420696E206F7264657220746F20656C696769626C6520666F7220766F PUSH1 0x20 DUP3 ADD MSTORE PUSH32 0x74652E0000000000000000000000000000000000000000000000000000000000 PUSH1 0x40 DUP3 ADD MSTORE POP JUMP JUMPDEST PUSH32 0x536F7272792C20796F7520617265206E6F7420656C696769626C6520666F7220 PUSH1 0x0 DUP3 ADD MSTORE PUSH32 0x726566756E640000000000000000000000000000000000000000000000000000 PUSH1 0x20 DUP3 ADD MSTORE POP JUMP JUMPDEST PUSH32 0x4F6E6C79206D616E616765722063616E2063616C6C2074686973206665617475 PUSH1 0x0 DUP3 ADD MSTORE PUSH32 0x72652E0000000000000000000000000000000000000000000000000000000000 PUSH1 0x20 DUP3 ADD MSTORE POP JUMP JUMPDEST PUSH32 0x4F707073212120796F7520616C72656164792070757420796F757220766F7465 PUSH1 0x0 DUP3 ADD MSTORE PUSH32 0x20666F72207468697320726571756573742E20596F752063616E206F6E6C7920 PUSH1 0x20 DUP3 ADD MSTORE PUSH32 0x766F7465206F6E63652070657220726571756573742E00000000000000000000 PUSH1 0x40 DUP3 ADD MSTORE POP JUMP JUMPDEST PUSH2 0x166D DUP2 PUSH2 0x11C8 JUMP JUMPDEST DUP2 EQ PUSH2 0x1678 JUMPI PUSH1 0x0 DUP1 REVERT JUMPDEST POP JUMP JUMPDEST PUSH2 0x1684 DUP2 PUSH2 0x11DA JUMP JUMPDEST DUP2 EQ PUSH2 0x168F JUMPI PUSH1 0x0 DUP1 REVERT JUMPDEST POP JUMP JUMPDEST PUSH2 0x169B DUP2 PUSH2 0x1218 JUMP JUMPDEST DUP2 EQ PUSH2 0x16A6 JUMPI PUSH1 0x0 DUP1 REVERT JUMPDEST POP JUMP INVALID LOG2 PUSH5 0x6970667358 0x22 SLT KECCAK256 NUMBER DUP8 PUSH12 0x3B85F6A7824AD2CD469035E6 0x2D 0xDE 0xAB 0x4A PUSH2 0x2C01 PUSH1 0xAE JUMPI OR SWAP11 LOG4 SMOD MULMOD SWAP11 0xC3 PUSH5 0x736F6C6343 STOP ADDMOD SMOD STOP CALLER "
				},
				"gasEstimates": {
					"creation": {
						"codeDepositCost": "1171000",
						"executionCost": "infinite",
						"totalCost": "infinite"
					},
					"external": {
						"contributors(address)": "2882",
						"createRequest(string,address,uint256)": "infinite",
						"deadline()": "2452",
						"getContractBalance()": "384",
						"manager()": "2559",
						"minimumContribution()": "2451",
						"noOfContributors()": "2518",
						"numRequests()": "2495",
						"raisedAmount()": "2517",
						"refund()": "infinite",
						"requests(uint256)": "infinite",
						"sendEth()": "infinite",
						"targetAmount()": "2473",
						"voteRequest(uint256)": "29631"
					}
				},
				"methodIdentifiers": {
					"contributors(address)": "1f6d4942",
					"createRequest(string,address,uint256)": "1b16bb5c",
					"deadline()": "29dcb0cf",
					"getContractBalance()": "6f9fb98a",
					"manager()": "481c6a75",
					"minimumContribution()": "937e09b1",
					"noOfContributors()": "4e260f6f",
					"numRequests()": "9fb42b1f",
					"raisedAmount()": "c59ee1dc",
					"refund()": "590e1ae3",
					"requests(uint256)": "81d12c58",
					"sendEth()": "06e99fef",
					"targetAmount()": "953b8fb8",
					"voteRequest(uint256)": "4cb6f4a5"
				}
			},
			"storageLayout": {
				"storage": [
					{
						"astId": 5,
						"contract": "CrowdFunding/crowdfunding.sol:crowdfunding",
						"label": "contributors",
						"offset": 0,
						"slot": "0",
						"type": "t_mapping(t_address,t_uint256)"
					},
					{
						"astId": 7,
						"contract": "CrowdFunding/crowdfunding.sol:crowdfunding",
						"label": "manager",
						"offset": 0,
						"slot": "1",
						"type": "t_address"
					},
					{
						"astId": 9,
						"contract": "CrowdFunding/crowdfunding.sol:crowdfunding",
						"label": "minimumContribution",
						"offset": 0,
						"slot": "2",
						"type": "t_uint256"
					},
					{
						"astId": 11,
						"contract": "CrowdFunding/crowdfunding.sol:crowdfunding",
						"label": "deadline",
						"offset": 0,
						"slot": "3",
						"type": "t_uint256"
					},
					{
						"astId": 13,
						"contract": "CrowdFunding/crowdfunding.sol:crowdfunding",
						"label": "targetAmount",
						"offset": 0,
						"slot": "4",
						"type": "t_uint256"
					},
					{
						"astId": 15,
						"contract": "CrowdFunding/crowdfunding.sol:crowdfunding",
						"label": "raisedAmount",
						"offset": 0,
						"slot": "5",
						"type": "t_uint256"
					},
					{
						"astId": 17,
						"contract": "CrowdFunding/crowdfunding.sol:crowdfunding",
						"label": "noOfContributors",
						"offset": 0,
						"slot": "6",
						"type": "t_uint256"
					},
					{
						"astId": 37,
						"contract": "CrowdFunding/crowdfunding.sol:crowdfunding",
						"label": "requests",
						"offset": 0,
						"slot": "7",
						"type": "t_mapping(t_uint256,t_struct(Request)32_storage)"
					},
					{
						"astId": 39,
						"contract": "CrowdFunding/crowdfunding.sol:crowdfunding",
						"label": "numRequests",
						"offset": 0,
						"slot": "8",
						"type": "t_uint256"
					}
				],
				"types": {
					"t_address": {
						"encoding": "inplace",
						"label": "address",
						"numberOfBytes": "20"
					},
					"t_address_payable": {
						"encoding": "inplace",
						"label": "address payable",
						"numberOfBytes": "20"
					},
					"t_bool": {
						"encoding": "inplace",
						"label": "bool",
						"numberOfBytes": "1"
					},
					"t_mapping(t_address,t_bool)": {
						"encoding": "mapping",
						"key": "t_address",
						"label": "mapping(address => bool)",
						"numberOfBytes": "32",
						"value": "t_bool"
					},
					"t_mapping(t_address,t_uint256)": {
						"encoding": "mapping",
						"key": "t_address",
						"label": "mapping(address => uint256)",
						"numberOfBytes": "32",
						"value": "t_uint256"
					},
					"t_mapping(t_uint256,t_struct(Request)32_storage)": {
						"encoding": "mapping",
						"key": "t_uint256",
						"label": "mapping(uint256 => struct crowdfunding.Request)",
						"numberOfBytes": "32",
						"value": "t_struct(Request)32_storage"
					},
					"t_string_storage": {
						"encoding": "bytes",
						"label": "string",
						"numberOfBytes": "32"
					},
					"t_struct(Request)32_storage": {
						"encoding": "inplace",
						"label": "struct crowdfunding.Request",
						"members": [
							{
								"astId": 19,
								"contract": "CrowdFunding/crowdfunding.sol:crowdfunding",
								"label": "description",
								"offset": 0,
								"slot": "0",
								"type": "t_string_storage"
							},
							{
								"astId": 21,
								"contract": "CrowdFunding/crowdfunding.sol:crowdfunding",
								"label": "value",
								"offset": 0,
								"slot": "1",
								"type": "t_uint256"
							},
							{
								"astId": 23,
								"contract": "CrowdFunding/crowdfunding.sol:crowdfunding",
								"label": "receipient",
								"offset": 0,
								"slot": "2",
								"type": "t_address_payable"
							},
							{
								"astId": 25,
								"contract": "CrowdFunding/crowdfunding.sol:crowdfunding",
								"label": "completed",
								"offset": 20,
								"slot": "2",
								"type": "t_bool"
							},
							{
								"astId": 27,
								"contract": "CrowdFunding/crowdfunding.sol:crowdfunding",
								"label": "noOfVoters",
								"offset": 0,
								"slot": "3",
								"type": "t_uint256"
							},
							{
								"astId": 31,
								"contract": "CrowdFunding/crowdfunding.sol:crowdfunding",
								"label": "voters",
								"offset": 0,
								"slot": "4",
								"type": "t_mapping(t_address,t_bool)"
							}
						],
						"numberOfBytes": "160"
					},
					"t_uint256": {
						"encoding": "inplace",
						"label": "uint256",
						"numberOfBytes": "32"
					}
				}
			},
			"userdoc": {
				"kind": "user",
				"methods": {},
				"version": 1
			}
		}
	}
}