{
	"CrowdFunding/crowdfunding.sol": {
		"crowdfunding": {
			"abi": [
				{
					"inputs": [
						{
							"internalType": "uint256",
							"name": "_targetAmount",
							"type": "uint256"
						},
						{
							"internalType": "uint256",
							"name": "_deadline",
							"type": "uint256"
						}
					],
					"stateMutability": "nonpayable",
					"type": "constructor"
				},
				{
					"inputs": [
						{
							"internalType": "address",
							"name": "",
							"type": "address"
						}
					],
					"name": "contributors",
					"outputs": [
						{
							"internalType": "uint256",
							"name": "",
							"type": "uint256"
						}
					],
					"stateMutability": "view",
					"type": "function"
				},
				{
					"inputs": [
						{
							"internalType": "string",
							"name": "_description",
							"type": "string"
						},
						{
							"internalType": "address payable",
							"name": "_recipient",
							"type": "address"
						},
						{
							"internalType": "uint256",
							"name": "_value",
							"type": "uint256"
						}
					],
					"name": "createRequest",
					"outputs": [],
					"stateMutability": "nonpayable",
					"type": "function"
				},
				{
					"inputs": [],
					"name": "deadline",
					"outputs": [
						{
							"internalType": "uint256",
							"name": "",
							"type": "uint256"
						}
					],
					"stateMutability": "view",
					"type": "function"
				},
				{
					"inputs": [],
					"name": "getContractBalance",
					"outputs": [
						{
							"internalType": "uint256",
							"name": "",
							"type": "uint256"
						}
					],
					"stateMutability": "view",
					"type": "function"
				},
				{
					"inputs": [],
					"name": "manager",
					"outputs": [
						{
							"internalType": "address",
							"name": "",
							"type": "address"
						}
					],
					"stateMutability": "view",
					"type": "function"
				},
				{
					"inputs": [],
					"name": "minimumContribution",
					"outputs": [
						{
							"internalType": "uint256",
							"name": "",
							"type": "uint256"
						}
					],
					"stateMutability": "view",
					"type": "function"
				},
				{
					"inputs": [],
					"name": "noOfContributors",
					"outputs": [
						{
							"internalType": "uint256",
							"name": "",
							"type": "uint256"
						}
					],
					"stateMutability": "view",
					"type": "function"
				},
				{
					"inputs": [],
					"name": "numRequests",
					"outputs": [
						{
							"internalType": "uint256",
							"name": "",
							"type": "uint256"
						}
					],
					"stateMutability": "view",
					"type": "function"
				},
				{
					"inputs": [],
					"name": "raisedAmount",
					"outputs": [
						{
							"internalType": "uint256",
							"name": "",
							"type": "uint256"
						}
					],
					"stateMutability": "view",
					"type": "function"
				},
				{
					"inputs": [],
					"name": "refund",
					"outputs": [],
					"stateMutability": "nonpayable",
					"type": "function"
				},
				{
					"inputs": [
						{
							"internalType": "uint256",
							"name": "",
							"type": "uint256"
						}
					],
					"name": "requests",
					"outputs": [
						{
							"internalType": "string",
							"name": "description",
							"type": "string"
						},
						{
							"internalType": "uint256",
							"name": "value",
							"type": "uint256"
						},
						{
							"internalType": "address payable",
							"name": "receipient",
							"type": "address"
						},
						{
							"internalType": "bool",
							"name": "completed",
							"type": "bool"
						},
						{
							"internalType": "uint256",
							"name": "noOfVoters",
							"type": "uint256"
						}
					],
					"stateMutability": "view",
					"type": "function"
				},
				{
					"inputs": [],
					"name": "sendEth",
					"outputs": [],
					"stateMutability": "payable",
					"type": "function"
				},
				{
					"inputs": [],
					"name": "targetAmount",
					"outputs": [
						{
							"internalType": "uint256",
							"name": "",
							"type": "uint256"
						}
					],
					"stateMutability": "view",
					"type": "function"
				},
				{
					"inputs": [
						{
							"internalType": "uint256",
							"name": "_requestNo",
							"type": "uint256"
						}
					],
					"name": "voteRequest",
					"outputs": [],
					"stateMutability": "nonpayable",
					"type": "function"
				}
			],
			"devdoc": {
				"kind": "dev",
				"methods": {},
				"version": 1
			},
			"evm": {
				"assembly": "    /* \"CrowdFunding/crowdfunding.sol\":70:3165  contract crowdfunding{... */\n  mstore(0x40, 0x80)\n    /* \"CrowdFunding/crowdfunding.sol\":611:820  constructor(uint _targetAmount, uint _deadline){... */\n  callvalue\n  dup1\n  iszero\n  tag_1\n  jumpi\n  0x00\n  dup1\n  revert\ntag_1:\n  pop\n  mload(0x40)\n  sub(codesize, bytecodeSize)\n  dup1\n  bytecodeSize\n  dup4\n  codecopy\n  dup2\n  dup2\n  add\n  0x40\n  mstore\n  dup2\n  add\n  swap1\n  tag_2\n  swap2\n  swap1\n  tag_3\n  jump\t// in\ntag_2:\n    /* \"CrowdFunding/crowdfunding.sol\":683:696  _targetAmount */\n  dup2\n    /* \"CrowdFunding/crowdfunding.sol\":668:680  targetAmount */\n  0x04\n    /* \"CrowdFunding/crowdfunding.sol\":668:696  targetAmount = _targetAmount */\n  dup2\n  swap1\n  sstore\n  pop\n    /* \"CrowdFunding/crowdfunding.sol\":735:744  _deadline */\n  dup1\n    /* \"CrowdFunding/crowdfunding.sol\":717:732  block.timestamp */\n  timestamp\n    /* \"CrowdFunding/crowdfunding.sol\":717:744  block.timestamp + _deadline */\n  tag_6\n  swap2\n  swap1\n  tag_7\n  jump\t// in\ntag_6:\n    /* \"CrowdFunding/crowdfunding.sol\":706:714  deadline */\n  0x03\n    /* \"CrowdFunding/crowdfunding.sol\":706:744  deadline = block.timestamp + _deadline */\n  dup2\n  swap1\n  sstore\n  pop\n    /* \"CrowdFunding/crowdfunding.sol\":776:783  100 wei */\n  0x64\n    /* \"CrowdFunding/crowdfunding.sol\":754:773  minimumContribution */\n  0x02\n    /* \"CrowdFunding/crowdfunding.sol\":754:783  minimumContribution = 100 wei */\n  dup2\n  swap1\n  sstore\n  pop\n    /* \"CrowdFunding/crowdfunding.sol\":803:813  msg.sender */\n  caller\n    /* \"CrowdFunding/crowdfunding.sol\":793:800  manager */\n  0x01\n  0x00\n    /* \"CrowdFunding/crowdfunding.sol\":793:813  manager = msg.sender */\n  0x0100\n  exp\n  dup2\n  sload\n  dup2\n  0xffffffffffffffffffffffffffffffffffffffff\n  mul\n  not\n  and\n  swap1\n  dup4\n  0xffffffffffffffffffffffffffffffffffffffff\n  and\n  mul\n  or\n  swap1\n  sstore\n  pop\n    /* \"CrowdFunding/crowdfunding.sol\":611:820  constructor(uint _targetAmount, uint _deadline){... */\n  pop\n  pop\n    /* \"CrowdFunding/crowdfunding.sol\":70:3165  contract crowdfunding{... */\n  jump(tag_8)\n    /* \"#utility.yul\":7:150   */\ntag_10:\n    /* \"#utility.yul\":64:69   */\n  0x00\n    /* \"#utility.yul\":95:101   */\n  dup2\n    /* \"#utility.yul\":89:102   */\n  mload\n    /* \"#utility.yul\":80:102   */\n  swap1\n  pop\n    /* \"#utility.yul\":111:144   */\n  tag_12\n    /* \"#utility.yul\":138:143   */\n  dup2\n    /* \"#utility.yul\":111:144   */\n  tag_13\n  jump\t// in\ntag_12:\n    /* \"#utility.yul\":7:150   */\n  swap3\n  swap2\n  pop\n  pop\n  jump\t// out\n    /* \"#utility.yul\":156:663   */\ntag_3:\n    /* \"#utility.yul\":235:241   */\n  0x00\n    /* \"#utility.yul\":243:249   */\n  dup1\n    /* \"#utility.yul\":292:294   */\n  0x40\n    /* \"#utility.yul\":280:289   */\n  dup4\n    /* \"#utility.yul\":271:278   */\n  dup6\n    /* \"#utility.yul\":267:290   */\n  sub\n    /* \"#utility.yul\":263:295   */\n  slt\n    /* \"#utility.yul\":260:379   */\n  iszero\n  tag_15\n  jumpi\n    /* \"#utility.yul\":298:377   */\n  tag_16\n  tag_17\n  jump\t// in\ntag_16:\n    /* \"#utility.yul\":260:379   */\ntag_15:\n    /* \"#utility.yul\":418:419   */\n  0x00\n    /* \"#utility.yul\":443:507   */\n  tag_18\n    /* \"#utility.yul\":499:506   */\n  dup6\n    /* \"#utility.yul\":490:496   */\n  dup3\n    /* \"#utility.yul\":479:488   */\n  dup7\n    /* \"#utility.yul\":475:497   */\n  add\n    /* \"#utility.yul\":443:507   */\n  tag_10\n  jump\t// in\ntag_18:\n    /* \"#utility.yul\":433:507   */\n  swap3\n  pop\n    /* \"#utility.yul\":389:517   */\n  pop\n    /* \"#utility.yul\":556:558   */\n  0x20\n    /* \"#utility.yul\":582:646   */\n  tag_19\n    /* \"#utility.yul\":638:645   */\n  dup6\n    /* \"#utility.yul\":629:635   */\n  dup3\n    /* \"#utility.yul\":618:627   */\n  dup7\n    /* \"#utility.yul\":614:636   */\n  add\n    /* \"#utility.yul\":582:646   */\n  tag_10\n  jump\t// in\ntag_19:\n    /* \"#utility.yul\":572:646   */\n  swap2\n  pop\n    /* \"#utility.yul\":527:656   */\n  pop\n    /* \"#utility.yul\":156:663   */\n  swap3\n  pop\n  swap3\n  swap1\n  pop\n  jump\t// out\n    /* \"#utility.yul\":750:1055   */\ntag_7:\n    /* \"#utility.yul\":790:793   */\n  0x00\n    /* \"#utility.yul\":809:829   */\n  tag_23\n    /* \"#utility.yul\":827:828   */\n  dup3\n    /* \"#utility.yul\":809:829   */\n  tag_24\n  jump\t// in\ntag_23:\n    /* \"#utility.yul\":804:829   */\n  swap2\n  pop\n    /* \"#utility.yul\":843:863   */\n  tag_25\n    /* \"#utility.yul\":861:862   */\n  dup4\n    /* \"#utility.yul\":843:863   */\n  tag_24\n  jump\t// in\ntag_25:\n    /* \"#utility.yul\":838:863   */\n  swap3\n  pop\n    /* \"#utility.yul\":997:998   */\n  dup3\n    /* \"#utility.yul\":929:995   */\n  0xffffffffffffffffffffffffffffffffffffffffffffffffffffffffffffffff\n    /* \"#utility.yul\":925:999   */\n  sub\n    /* \"#utility.yul\":922:923   */\n  dup3\n    /* \"#utility.yul\":919:1000   */\n  gt\n    /* \"#utility.yul\":916:1023   */\n  iszero\n  tag_26\n  jumpi\n    /* \"#utility.yul\":1003:1021   */\n  tag_27\n  tag_28\n  jump\t// in\ntag_27:\n    /* \"#utility.yul\":916:1023   */\ntag_26:\n    /* \"#utility.yul\":1047:1048   */\n  dup3\n    /* \"#utility.yul\":1044:1045   */\n  dup3\n    /* \"#utility.yul\":1040:1049   */\n  add\n    /* \"#utility.yul\":1033:1049   */\n  swap1\n  pop\n    /* \"#utility.yul\":750:1055   */\n  swap3\n  swap2\n  pop\n  pop\n  jump\t// out\n    /* \"#utility.yul\":1061:1138   */\ntag_24:\n    /* \"#utility.yul\":1098:1105   */\n  0x00\n    /* \"#utility.yul\":1127:1132   */\n  dup2\n    /* \"#utility.yul\":1116:1132   */\n  swap1\n  pop\n    /* \"#utility.yul\":1061:1138   */\n  swap2\n  swap1\n  pop\n  jump\t// out\n    /* \"#utility.yul\":1144:1324   */\ntag_28:\n    /* \"#utility.yul\":1192:1269   */\n  0x4e487b7100000000000000000000000000000000000000000000000000000000\n    /* \"#utility.yul\":1189:1190   */\n  0x00\n    /* \"#utility.yul\":1182:1270   */\n  mstore\n    /* \"#utility.yul\":1289:1293   */\n  0x11\n    /* \"#utility.yul\":1286:1287   */\n  0x04\n    /* \"#utility.yul\":1279:1294   */\n  mstore\n    /* \"#utility.yul\":1313:1317   */\n  0x24\n    /* \"#utility.yul\":1310:1311   */\n  0x00\n    /* \"#utility.yul\":1303:1318   */\n  revert\n    /* \"#utility.yul\":1453:1570   */\ntag_17:\n    /* \"#utility.yul\":1562:1563   */\n  0x00\n    /* \"#utility.yul\":1559:1560   */\n  dup1\n    /* \"#utility.yul\":1552:1564   */\n  revert\n    /* \"#utility.yul\":1576:1698   */\ntag_13:\n    /* \"#utility.yul\":1649:1673   */\n  tag_35\n    /* \"#utility.yul\":1667:1672   */\n  dup2\n    /* \"#utility.yul\":1649:1673   */\n  tag_24\n  jump\t// in\ntag_35:\n    /* \"#utility.yul\":1642:1647   */\n  dup2\n    /* \"#utility.yul\":1639:1674   */\n  eq\n    /* \"#utility.yul\":1629:1692   */\n  tag_36\n  jumpi\n    /* \"#utility.yul\":1688:1689   */\n  0x00\n    /* \"#utility.yul\":1685:1686   */\n  dup1\n    /* \"#utility.yul\":1678:1690   */\n  revert\n    /* \"#utility.yul\":1629:1692   */\ntag_36:\n    /* \"#utility.yul\":1576:1698   */\n  pop\n  jump\t// out\n    /* \"CrowdFunding/crowdfunding.sol\":70:3165  contract crowdfunding{... */\ntag_8:\n  dataSize(sub_0)\n  dup1\n  dataOffset(sub_0)\n  0x00\n  codecopy\n  0x00\n  return\nstop\n\nsub_0: assembly {\n        /* \"CrowdFunding/crowdfunding.sol\":70:3165  contract crowdfunding{... */\n      mstore(0x40, 0x80)\n      jumpi(tag_1, lt(calldatasize, 0x04))\n      shr(0xe0, calldataload(0x00))\n      dup1\n      0x590e1ae3\n      gt\n      tag_16\n      jumpi\n      dup1\n      0x937e09b1\n      gt\n      tag_17\n      jumpi\n      dup1\n      0x937e09b1\n      eq\n      tag_12\n      jumpi\n      dup1\n      0x953b8fb8\n      eq\n      tag_13\n      jumpi\n      dup1\n      0x9fb42b1f\n      eq\n      tag_14\n      jumpi\n      dup1\n      0xc59ee1dc\n      eq\n      tag_15\n      jumpi\n      jump(tag_1)\n    tag_17:\n      dup1\n      0x590e1ae3\n      eq\n      tag_9\n      jumpi\n      dup1\n      0x6f9fb98a\n      eq\n      tag_10\n      jumpi\n      dup1\n      0x81d12c58\n      eq\n      tag_11\n      jumpi\n      jump(tag_1)\n    tag_16:\n      dup1\n      0x29dcb0cf\n      gt\n      tag_18\n      jumpi\n      dup1\n      0x29dcb0cf\n      eq\n      tag_5\n      jumpi\n      dup1\n      0x481c6a75\n      eq\n      tag_6\n      jumpi\n      dup1\n      0x4cb6f4a5\n      eq\n      tag_7\n      jumpi\n      dup1\n      0x4e260f6f\n      eq\n      tag_8\n      jumpi\n      jump(tag_1)\n    tag_18:\n      dup1\n      0x06e99fef\n      eq\n      tag_2\n      jumpi\n      dup1\n      0x1b16bb5c\n      eq\n      tag_3\n      jumpi\n      dup1\n      0x1f6d4942\n      eq\n      tag_4\n      jumpi\n    tag_1:\n      0x00\n      dup1\n      revert\n        /* \"CrowdFunding/crowdfunding.sol\":875:1242  function sendEth() public payable{... */\n    tag_2:\n      tag_19\n      tag_20\n      jump\t// in\n    tag_19:\n      stop\n        /* \"CrowdFunding/crowdfunding.sol\":2193:2593  function createRequest(string memory _description, address payable _recipient, uint _value) public onlyManager{... */\n    tag_3:\n      callvalue\n      dup1\n      iszero\n      tag_21\n      jumpi\n      0x00\n      dup1\n      revert\n    tag_21:\n      pop\n      tag_22\n      0x04\n      dup1\n      calldatasize\n      sub\n      dup2\n      add\n      swap1\n      tag_23\n      swap2\n      swap1\n      tag_24\n      jump\t// in\n    tag_23:\n      tag_25\n      jump\t// in\n    tag_22:\n      stop\n        /* \"CrowdFunding/crowdfunding.sol\":102:144  mapping(address=>uint) public contributors */\n    tag_4:\n      callvalue\n      dup1\n      iszero\n      tag_26\n      jumpi\n      0x00\n      dup1\n      revert\n    tag_26:\n      pop\n      tag_27\n      0x04\n      dup1\n      calldatasize\n      sub\n      dup2\n      add\n      swap1\n      tag_28\n      swap2\n      swap1\n      tag_29\n      jump\t// in\n    tag_28:\n      tag_30\n      jump\t// in\n    tag_27:\n      mload(0x40)\n      tag_31\n      swap2\n      swap1\n      tag_32\n      jump\t// in\n    tag_31:\n      mload(0x40)\n      dup1\n      swap2\n      sub\n      swap1\n      return\n        /* \"CrowdFunding/crowdfunding.sol\":215:235  uint public deadline */\n    tag_5:\n      callvalue\n      dup1\n      iszero\n      tag_33\n      jumpi\n      0x00\n      dup1\n      revert\n    tag_33:\n      pop\n      tag_34\n      tag_35\n      jump\t// in\n    tag_34:\n      mload(0x40)\n      tag_36\n      swap2\n      swap1\n      tag_32\n      jump\t// in\n    tag_36:\n      mload(0x40)\n      dup1\n      swap2\n      sub\n      swap1\n      return\n        /* \"CrowdFunding/crowdfunding.sol\":150:172  address public manager */\n    tag_6:\n      callvalue\n      dup1\n      iszero\n      tag_37\n      jumpi\n      0x00\n      dup1\n      revert\n    tag_37:\n      pop\n      tag_38\n      tag_39\n      jump\t// in\n    tag_38:\n      mload(0x40)\n      tag_40\n      swap2\n      swap1\n      tag_41\n      jump\t// in\n    tag_40:\n      mload(0x40)\n      dup1\n      swap2\n      sub\n      swap1\n      return\n        /* \"CrowdFunding/crowdfunding.sol\":2599:3161  function voteRequest(uint _requestNo) public{... */\n    tag_7:\n      callvalue\n      dup1\n      iszero\n      tag_42\n      jumpi\n      0x00\n      dup1\n      revert\n    tag_42:\n      pop\n      tag_43\n      0x04\n      dup1\n      calldatasize\n      sub\n      dup2\n      add\n      swap1\n      tag_44\n      swap2\n      swap1\n      tag_45\n      jump\t// in\n    tag_44:\n      tag_46\n      jump\t// in\n    tag_43:\n      stop\n        /* \"CrowdFunding/crowdfunding.sol\":301:329  uint public noOfContributors */\n    tag_8:\n      callvalue\n      dup1\n      iszero\n      tag_47\n      jumpi\n      0x00\n      dup1\n      revert\n    tag_47:\n      pop\n      tag_48\n      tag_49\n      jump\t// in\n    tag_48:\n      mload(0x40)\n      tag_50\n      swap2\n      swap1\n      tag_32\n      jump\t// in\n    tag_50:\n      mload(0x40)\n      dup1\n      swap2\n      sub\n      swap1\n      return\n        /* \"CrowdFunding/crowdfunding.sol\":1420:2061  function refund() public{... */\n    tag_9:\n      callvalue\n      dup1\n      iszero\n      tag_51\n      jumpi\n      0x00\n      dup1\n      revert\n    tag_51:\n      pop\n      tag_52\n      tag_53\n      jump\t// in\n    tag_52:\n      stop\n        /* \"CrowdFunding/crowdfunding.sol\":1249:1413  function getContractBalance() public view returns(uint){... */\n    tag_10:\n      callvalue\n      dup1\n      iszero\n      tag_54\n      jumpi\n      0x00\n      dup1\n      revert\n    tag_54:\n      pop\n      tag_55\n      tag_56\n      jump\t// in\n    tag_55:\n      mload(0x40)\n      tag_57\n      swap2\n      swap1\n      tag_32\n      jump\t// in\n    tag_57:\n      mload(0x40)\n      dup1\n      swap2\n      sub\n      swap1\n      return\n        /* \"CrowdFunding/crowdfunding.sol\":536:574  mapping(uint=>Request) public requests */\n    tag_11:\n      callvalue\n      dup1\n      iszero\n      tag_58\n      jumpi\n      0x00\n      dup1\n      revert\n    tag_58:\n      pop\n      tag_59\n      0x04\n      dup1\n      calldatasize\n      sub\n      dup2\n      add\n      swap1\n      tag_60\n      swap2\n      swap1\n      tag_45\n      jump\t// in\n    tag_60:\n      tag_61\n      jump\t// in\n    tag_59:\n      mload(0x40)\n      tag_62\n      swap6\n      swap5\n      swap4\n      swap3\n      swap2\n      swap1\n      tag_63\n      jump\t// in\n    tag_62:\n      mload(0x40)\n      dup1\n      swap2\n      sub\n      swap1\n      return\n        /* \"CrowdFunding/crowdfunding.sol\":178:209  uint public minimumContribution */\n    tag_12:\n      callvalue\n      dup1\n      iszero\n      tag_64\n      jumpi\n      0x00\n      dup1\n      revert\n    tag_64:\n      pop\n      tag_65\n      tag_66\n      jump\t// in\n    tag_65:\n      mload(0x40)\n      tag_67\n      swap2\n      swap1\n      tag_32\n      jump\t// in\n    tag_67:\n      mload(0x40)\n      dup1\n      swap2\n      sub\n      swap1\n      return\n        /* \"CrowdFunding/crowdfunding.sol\":241:265  uint public targetAmount */\n    tag_13:\n      callvalue\n      dup1\n      iszero\n      tag_68\n      jumpi\n      0x00\n      dup1\n      revert\n    tag_68:\n      pop\n      tag_69\n      tag_70\n      jump\t// in\n    tag_69:\n      mload(0x40)\n      tag_71\n      swap2\n      swap1\n      tag_32\n      jump\t// in\n    tag_71:\n      mload(0x40)\n      dup1\n      swap2\n      sub\n      swap1\n      return\n        /* \"CrowdFunding/crowdfunding.sol\":580:603  uint public numRequests */\n    tag_14:\n      callvalue\n      dup1\n      iszero\n      tag_72\n      jumpi\n      0x00\n      dup1\n      revert\n    tag_72:\n      pop\n      tag_73\n      tag_74\n      jump\t// in\n    tag_73:\n      mload(0x40)\n      tag_75\n      swap2\n      swap1\n      tag_32\n      jump\t// in\n    tag_75:\n      mload(0x40)\n      dup1\n      swap2\n      sub\n      swap1\n      return\n        /* \"CrowdFunding/crowdfunding.sol\":271:295  uint public raisedAmount */\n    tag_15:\n      callvalue\n      dup1\n      iszero\n      tag_76\n      jumpi\n      0x00\n      dup1\n      revert\n    tag_76:\n      pop\n      tag_77\n      tag_78\n      jump\t// in\n    tag_77:\n      mload(0x40)\n      tag_79\n      swap2\n      swap1\n      tag_32\n      jump\t// in\n    tag_79:\n      mload(0x40)\n      dup1\n      swap2\n      sub\n      swap1\n      return\n        /* \"CrowdFunding/crowdfunding.sol\":875:1242  function sendEth() public payable{... */\n    tag_20:\n        /* \"CrowdFunding/crowdfunding.sol\":944:952  deadline */\n      sload(0x03)\n        /* \"CrowdFunding/crowdfunding.sol\":926:941  block.timestamp */\n      timestamp\n        /* \"CrowdFunding/crowdfunding.sol\":926:952  block.timestamp < deadline */\n      lt\n        /* \"CrowdFunding/crowdfunding.sol\":918:993  require(block.timestamp < deadline, \"Sorry!! Deadline has already passed.\") */\n      tag_81\n      jumpi\n      mload(0x40)\n      0x08c379a000000000000000000000000000000000000000000000000000000000\n      dup2\n      mstore\n      0x04\n      add\n      tag_82\n      swap1\n      tag_83\n      jump\t// in\n    tag_82:\n      mload(0x40)\n      dup1\n      swap2\n      sub\n      swap1\n      revert\n    tag_81:\n        /* \"CrowdFunding/crowdfunding.sol\":1024:1043  minimumContribution */\n      sload(0x02)\n        /* \"CrowdFunding/crowdfunding.sol\":1011:1020  msg.value */\n      callvalue\n        /* \"CrowdFunding/crowdfunding.sol\":1011:1043  msg.value >= minimumContribution */\n      lt\n      iszero\n        /* \"CrowdFunding/crowdfunding.sol\":1003:1088  require(msg.value >= minimumContribution, \"Sorry!! you have to pay minimum 100 wei.\") */\n      tag_84\n      jumpi\n      mload(0x40)\n      0x08c379a000000000000000000000000000000000000000000000000000000000\n      dup2\n      mstore\n      0x04\n      add\n      tag_85\n      swap1\n      tag_86\n      jump\t// in\n    tag_85:\n      mload(0x40)\n      dup1\n      swap2\n      sub\n      swap1\n      revert\n    tag_84:\n        /* \"CrowdFunding/crowdfunding.sol\":1130:1131  0 */\n      0x00\n        /* \"CrowdFunding/crowdfunding.sol\":1102:1114  contributors */\n      dup1\n        /* \"CrowdFunding/crowdfunding.sol\":1102:1126  contributors[msg.sender] */\n      0x00\n        /* \"CrowdFunding/crowdfunding.sol\":1115:1125  msg.sender */\n      caller\n        /* \"CrowdFunding/crowdfunding.sol\":1102:1126  contributors[msg.sender] */\n      0xffffffffffffffffffffffffffffffffffffffff\n      and\n      0xffffffffffffffffffffffffffffffffffffffff\n      and\n      dup2\n      mstore\n      0x20\n      add\n      swap1\n      dup2\n      mstore\n      0x20\n      add\n      0x00\n      keccak256\n      sload\n        /* \"CrowdFunding/crowdfunding.sol\":1102:1131  contributors[msg.sender] == 0 */\n      eq\n        /* \"CrowdFunding/crowdfunding.sol\":1099:1151  if(contributors[msg.sender] == 0) noOfContributors++ */\n      iszero\n      tag_87\n      jumpi\n        /* \"CrowdFunding/crowdfunding.sol\":1133:1149  noOfContributors */\n      0x06\n      0x00\n        /* \"CrowdFunding/crowdfunding.sol\":1133:1151  noOfContributors++ */\n      dup2\n      sload\n      dup1\n      swap3\n      swap2\n      swap1\n      tag_88\n      swap1\n      tag_89\n      jump\t// in\n    tag_88:\n      swap2\n      swap1\n      pop\n      sstore\n      pop\n        /* \"CrowdFunding/crowdfunding.sol\":1099:1151  if(contributors[msg.sender] == 0) noOfContributors++ */\n    tag_87:\n        /* \"CrowdFunding/crowdfunding.sol\":1190:1199  msg.value */\n      callvalue\n        /* \"CrowdFunding/crowdfunding.sol\":1162:1174  contributors */\n      0x00\n        /* \"CrowdFunding/crowdfunding.sol\":1162:1186  contributors[msg.sender] */\n      dup1\n        /* \"CrowdFunding/crowdfunding.sol\":1175:1185  msg.sender */\n      caller\n        /* \"CrowdFunding/crowdfunding.sol\":1162:1186  contributors[msg.sender] */\n      0xffffffffffffffffffffffffffffffffffffffff\n      and\n      0xffffffffffffffffffffffffffffffffffffffff\n      and\n      dup2\n      mstore\n      0x20\n      add\n      swap1\n      dup2\n      mstore\n      0x20\n      add\n      0x00\n      keccak256\n      0x00\n        /* \"CrowdFunding/crowdfunding.sol\":1162:1199  contributors[msg.sender] += msg.value */\n      dup3\n      dup3\n      sload\n      tag_90\n      swap2\n      swap1\n      tag_91\n      jump\t// in\n    tag_90:\n      swap3\n      pop\n      pop\n      dup2\n      swap1\n      sstore\n      pop\n        /* \"CrowdFunding/crowdfunding.sol\":1225:1234  msg.value */\n      callvalue\n        /* \"CrowdFunding/crowdfunding.sol\":1209:1221  raisedAmount */\n      0x05\n      0x00\n        /* \"CrowdFunding/crowdfunding.sol\":1209:1234  raisedAmount += msg.value */\n      dup3\n      dup3\n      sload\n      tag_92\n      swap2\n      swap1\n      tag_91\n      jump\t// in\n    tag_92:\n      swap3\n      pop\n      pop\n      dup2\n      swap1\n      sstore\n      pop\n        /* \"CrowdFunding/crowdfunding.sol\":875:1242  function sendEth() public payable{... */\n      jump\t// out\n        /* \"CrowdFunding/crowdfunding.sol\":2193:2593  function createRequest(string memory _description, address payable _recipient, uint _value) public onlyManager{... */\n    tag_25:\n        /* \"CrowdFunding/crowdfunding.sol\":2122:2129  manager */\n      0x01\n      0x00\n      swap1\n      sload\n      swap1\n      0x0100\n      exp\n      swap1\n      div\n      0xffffffffffffffffffffffffffffffffffffffff\n      and\n        /* \"CrowdFunding/crowdfunding.sol\":2108:2129  msg.sender == manager */\n      0xffffffffffffffffffffffffffffffffffffffff\n      and\n        /* \"CrowdFunding/crowdfunding.sol\":2108:2118  msg.sender */\n      caller\n        /* \"CrowdFunding/crowdfunding.sol\":2108:2129  msg.sender == manager */\n      0xffffffffffffffffffffffffffffffffffffffff\n      and\n      eq\n        /* \"CrowdFunding/crowdfunding.sol\":2100:2169  require(msg.sender == manager, \"Only manager can call this feature.\") */\n      tag_94\n      jumpi\n      mload(0x40)\n      0x08c379a000000000000000000000000000000000000000000000000000000000\n      dup2\n      mstore\n      0x04\n      add\n      tag_95\n      swap1\n      tag_96\n      jump\t// in\n    tag_95:\n      mload(0x40)\n      dup1\n      swap2\n      sub\n      swap1\n      revert\n    tag_94:\n        /* \"CrowdFunding/crowdfunding.sol\":2313:2339  Request storage newRequest */\n      0x00\n        /* \"CrowdFunding/crowdfunding.sol\":2342:2350  requests */\n      0x07\n        /* \"CrowdFunding/crowdfunding.sol\":2342:2363  requests[numRequests] */\n      0x00\n        /* \"CrowdFunding/crowdfunding.sol\":2351:2362  numRequests */\n      sload(0x08)\n        /* \"CrowdFunding/crowdfunding.sol\":2342:2363  requests[numRequests] */\n      dup2\n      mstore\n      0x20\n      add\n      swap1\n      dup2\n      mstore\n      0x20\n      add\n      0x00\n      keccak256\n        /* \"CrowdFunding/crowdfunding.sol\":2313:2363  Request storage newRequest = requests[numRequests] */\n      swap1\n      pop\n        /* \"CrowdFunding/crowdfunding.sol\":2373:2384  numRequests */\n      0x08\n      0x00\n        /* \"CrowdFunding/crowdfunding.sol\":2373:2386  numRequests++ */\n      dup2\n      sload\n      dup1\n      swap3\n      swap2\n      swap1\n      tag_98\n      swap1\n      tag_89\n      jump\t// in\n    tag_98:\n      swap2\n      swap1\n      pop\n      sstore\n      pop\n        /* \"CrowdFunding/crowdfunding.sol\":2422:2434  _description */\n      dup4\n        /* \"CrowdFunding/crowdfunding.sol\":2397:2407  newRequest */\n      dup2\n        /* \"CrowdFunding/crowdfunding.sol\":2397:2419  newRequest.description */\n      0x00\n      add\n        /* \"CrowdFunding/crowdfunding.sol\":2397:2434  newRequest.description = _description */\n      swap1\n      dup1\n      mload\n      swap1\n      0x20\n      add\n      swap1\n      tag_99\n      swap3\n      swap2\n      swap1\n      tag_100\n      jump\t// in\n    tag_99:\n      pop\n        /* \"CrowdFunding/crowdfunding.sol\":2468:2478  _recipient */\n      dup3\n        /* \"CrowdFunding/crowdfunding.sol\":2444:2454  newRequest */\n      dup2\n        /* \"CrowdFunding/crowdfunding.sol\":2444:2465  newRequest.receipient */\n      0x02\n      add\n      0x00\n        /* \"CrowdFunding/crowdfunding.sol\":2444:2478  newRequest.receipient = _recipient */\n      0x0100\n      exp\n      dup2\n      sload\n      dup2\n      0xffffffffffffffffffffffffffffffffffffffff\n      mul\n      not\n      and\n      swap1\n      dup4\n      0xffffffffffffffffffffffffffffffffffffffff\n      and\n      mul\n      or\n      swap1\n      sstore\n      pop\n        /* \"CrowdFunding/crowdfunding.sol\":2507:2513  _value */\n      dup2\n        /* \"CrowdFunding/crowdfunding.sol\":2488:2498  newRequest */\n      dup2\n        /* \"CrowdFunding/crowdfunding.sol\":2488:2504  newRequest.value */\n      0x01\n      add\n        /* \"CrowdFunding/crowdfunding.sol\":2488:2513  newRequest.value = _value */\n      dup2\n      swap1\n      sstore\n      pop\n        /* \"CrowdFunding/crowdfunding.sol\":2546:2551  false */\n      0x00\n        /* \"CrowdFunding/crowdfunding.sol\":2523:2533  newRequest */\n      dup2\n        /* \"CrowdFunding/crowdfunding.sol\":2523:2543  newRequest.completed */\n      0x02\n      add\n      0x14\n        /* \"CrowdFunding/crowdfunding.sol\":2523:2551  newRequest.completed = false */\n      0x0100\n      exp\n      dup2\n      sload\n      dup2\n      0xff\n      mul\n      not\n      and\n      swap1\n      dup4\n      iszero\n      iszero\n      mul\n      or\n      swap1\n      sstore\n      pop\n        /* \"CrowdFunding/crowdfunding.sol\":2585:2586  0 */\n      0x00\n        /* \"CrowdFunding/crowdfunding.sol\":2561:2571  newRequest */\n      dup2\n        /* \"CrowdFunding/crowdfunding.sol\":2561:2582  newRequest.noOfVoters */\n      0x03\n      add\n        /* \"CrowdFunding/crowdfunding.sol\":2561:2586  newRequest.noOfVoters = 0 */\n      dup2\n      swap1\n      sstore\n      pop\n        /* \"CrowdFunding/crowdfunding.sol\":2303:2593  {... */\n      pop\n        /* \"CrowdFunding/crowdfunding.sol\":2193:2593  function createRequest(string memory _description, address payable _recipient, uint _value) public onlyManager{... */\n      pop\n      pop\n      pop\n      jump\t// out\n        /* \"CrowdFunding/crowdfunding.sol\":102:144  mapping(address=>uint) public contributors */\n    tag_30:\n      mstore(0x20, 0x00)\n      dup1\n      0x00\n      mstore\n      keccak256(0x00, 0x40)\n      0x00\n      swap2\n      pop\n      swap1\n      pop\n      sload\n      dup2\n      jump\t// out\n        /* \"CrowdFunding/crowdfunding.sol\":215:235  uint public deadline */\n    tag_35:\n      sload(0x03)\n      dup2\n      jump\t// out\n        /* \"CrowdFunding/crowdfunding.sol\":150:172  address public manager */\n    tag_39:\n      0x01\n      0x00\n      swap1\n      sload\n      swap1\n      0x0100\n      exp\n      swap1\n      div\n      0xffffffffffffffffffffffffffffffffffffffff\n      and\n      dup2\n      jump\t// out\n        /* \"CrowdFunding/crowdfunding.sol\":2599:3161  function voteRequest(uint _requestNo) public{... */\n    tag_46:\n        /* \"CrowdFunding/crowdfunding.sol\":2688:2689  0 */\n      0x00\n        /* \"CrowdFunding/crowdfunding.sol\":2661:2673  contributors */\n      dup1\n        /* \"CrowdFunding/crowdfunding.sol\":2661:2685  contributors[msg.sender] */\n      0x00\n        /* \"CrowdFunding/crowdfunding.sol\":2674:2684  msg.sender */\n      caller\n        /* \"CrowdFunding/crowdfunding.sol\":2661:2685  contributors[msg.sender] */\n      0xffffffffffffffffffffffffffffffffffffffff\n      and\n      0xffffffffffffffffffffffffffffffffffffffff\n      and\n      dup2\n      mstore\n      0x20\n      add\n      swap1\n      dup2\n      mstore\n      0x20\n      add\n      0x00\n      keccak256\n      sload\n        /* \"CrowdFunding/crowdfunding.sol\":2661:2689  contributors[msg.sender] > 0 */\n      gt\n        /* \"CrowdFunding/crowdfunding.sol\":2653:2761  require(contributors[msg.sender] > 0, \"Sorry!! You have to contribute first in order to eligible for vote.\") */\n      tag_102\n      jumpi\n      mload(0x40)\n      0x08c379a000000000000000000000000000000000000000000000000000000000\n      dup2\n      mstore\n      0x04\n      add\n      tag_103\n      swap1\n      tag_104\n      jump\t// in\n    tag_103:\n      mload(0x40)\n      dup1\n      swap2\n      sub\n      swap1\n      revert\n    tag_102:\n        /* \"CrowdFunding/crowdfunding.sol\":2793:2804  numRequests */\n      sload(0x08)\n        /* \"CrowdFunding/crowdfunding.sol\":2779:2789  _requestNo */\n      dup2\n        /* \"CrowdFunding/crowdfunding.sol\":2779:2804  _requestNo <= numRequests */\n      gt\n      iszero\n        /* \"CrowdFunding/crowdfunding.sol\":2779:2823  _requestNo <= numRequests && _requestNo >= 0 */\n      dup1\n      iszero\n      tag_105\n      jumpi\n      pop\n        /* \"CrowdFunding/crowdfunding.sol\":2822:2823  0 */\n      0x00\n        /* \"CrowdFunding/crowdfunding.sol\":2808:2818  _requestNo */\n      dup2\n        /* \"CrowdFunding/crowdfunding.sol\":2808:2823  _requestNo >= 0 */\n      lt\n      iszero\n        /* \"CrowdFunding/crowdfunding.sol\":2779:2823  _requestNo <= numRequests && _requestNo >= 0 */\n    tag_105:\n        /* \"CrowdFunding/crowdfunding.sol\":2771:2851  require(_requestNo <= numRequests && _requestNo >= 0, \"Invalid request number.\") */\n      tag_106\n      jumpi\n      mload(0x40)\n      0x08c379a000000000000000000000000000000000000000000000000000000000\n      dup2\n      mstore\n      0x04\n      add\n      tag_107\n      swap1\n      tag_108\n      jump\t// in\n    tag_107:\n      mload(0x40)\n      dup1\n      swap2\n      sub\n      swap1\n      revert\n    tag_106:\n        /* \"CrowdFunding/crowdfunding.sol\":2862:2892  Request storage currentRequest */\n      0x00\n        /* \"CrowdFunding/crowdfunding.sol\":2895:2903  requests */\n      0x07\n        /* \"CrowdFunding/crowdfunding.sol\":2895:2915  requests[_requestNo] */\n      0x00\n        /* \"CrowdFunding/crowdfunding.sol\":2904:2914  _requestNo */\n      dup4\n        /* \"CrowdFunding/crowdfunding.sol\":2895:2915  requests[_requestNo] */\n      dup2\n      mstore\n      0x20\n      add\n      swap1\n      dup2\n      mstore\n      0x20\n      add\n      0x00\n      keccak256\n        /* \"CrowdFunding/crowdfunding.sol\":2862:2915  Request storage currentRequest = requests[_requestNo] */\n      swap1\n      pop\n        /* \"CrowdFunding/crowdfunding.sol\":2971:2976  false */\n      0x00\n        /* \"CrowdFunding/crowdfunding.sol\":2934:2976  currentRequest.voters[msg.sender] == false */\n      iszero\n      iszero\n        /* \"CrowdFunding/crowdfunding.sol\":2934:2948  currentRequest */\n      dup2\n        /* \"CrowdFunding/crowdfunding.sol\":2934:2955  currentRequest.voters */\n      0x04\n      add\n        /* \"CrowdFunding/crowdfunding.sol\":2934:2967  currentRequest.voters[msg.sender] */\n      0x00\n        /* \"CrowdFunding/crowdfunding.sol\":2956:2966  msg.sender */\n      caller\n        /* \"CrowdFunding/crowdfunding.sol\":2934:2967  currentRequest.voters[msg.sender] */\n      0xffffffffffffffffffffffffffffffffffffffff\n      and\n      0xffffffffffffffffffffffffffffffffffffffff\n      and\n      dup2\n      mstore\n      0x20\n      add\n      swap1\n      dup2\n      mstore\n      0x20\n      add\n      0x00\n      keccak256\n      0x00\n      swap1\n      sload\n      swap1\n      0x0100\n      exp\n      swap1\n      div\n      0xff\n      and\n        /* \"CrowdFunding/crowdfunding.sol\":2934:2976  currentRequest.voters[msg.sender] == false */\n      iszero\n      iszero\n      eq\n        /* \"CrowdFunding/crowdfunding.sol\":2926:3067  require(currentRequest.voters[msg.sender] == false, \"Opps!! you already put your vote for this request. You can only vote once per request.\") */\n      tag_109\n      jumpi\n      mload(0x40)\n      0x08c379a000000000000000000000000000000000000000000000000000000000\n      dup2\n      mstore\n      0x04\n      add\n      tag_110\n      swap1\n      tag_111\n      jump\t// in\n    tag_110:\n      mload(0x40)\n      dup1\n      swap2\n      sub\n      swap1\n      revert\n    tag_109:\n        /* \"CrowdFunding/crowdfunding.sol\":3113:3117  true */\n      0x01\n        /* \"CrowdFunding/crowdfunding.sol\":3077:3091  currentRequest */\n      dup2\n        /* \"CrowdFunding/crowdfunding.sol\":3077:3098  currentRequest.voters */\n      0x04\n      add\n        /* \"CrowdFunding/crowdfunding.sol\":3077:3110  currentRequest.voters[msg.sender] */\n      0x00\n        /* \"CrowdFunding/crowdfunding.sol\":3099:3109  msg.sender */\n      caller\n        /* \"CrowdFunding/crowdfunding.sol\":3077:3110  currentRequest.voters[msg.sender] */\n      0xffffffffffffffffffffffffffffffffffffffff\n      and\n      0xffffffffffffffffffffffffffffffffffffffff\n      and\n      dup2\n      mstore\n      0x20\n      add\n      swap1\n      dup2\n      mstore\n      0x20\n      add\n      0x00\n      keccak256\n      0x00\n        /* \"CrowdFunding/crowdfunding.sol\":3077:3117  currentRequest.voters[msg.sender] = true */\n      0x0100\n      exp\n      dup2\n      sload\n      dup2\n      0xff\n      mul\n      not\n      and\n      swap1\n      dup4\n      iszero\n      iszero\n      mul\n      or\n      swap1\n      sstore\n      pop\n        /* \"CrowdFunding/crowdfunding.sol\":3127:3141  currentRequest */\n      dup1\n        /* \"CrowdFunding/crowdfunding.sol\":3127:3152  currentRequest.noOfVoters */\n      0x03\n      add\n      0x00\n        /* \"CrowdFunding/crowdfunding.sol\":3127:3154  currentRequest.noOfVoters++ */\n      dup2\n      sload\n      dup1\n      swap3\n      swap2\n      swap1\n      tag_112\n      swap1\n      tag_89\n      jump\t// in\n    tag_112:\n      swap2\n      swap1\n      pop\n      sstore\n      pop\n        /* \"CrowdFunding/crowdfunding.sol\":2643:3161  {... */\n      pop\n        /* \"CrowdFunding/crowdfunding.sol\":2599:3161  function voteRequest(uint _requestNo) public{... */\n      pop\n      jump\t// out\n        /* \"CrowdFunding/crowdfunding.sol\":301:329  uint public noOfContributors */\n    tag_49:\n      sload(0x06)\n      dup2\n      jump\t// out\n        /* \"CrowdFunding/crowdfunding.sol\":1420:2061  function refund() public{... */\n    tag_53:\n        /* \"CrowdFunding/crowdfunding.sol\":1480:1488  deadline */\n      sload(0x03)\n        /* \"CrowdFunding/crowdfunding.sol\":1462:1477  block.timestamp */\n      timestamp\n        /* \"CrowdFunding/crowdfunding.sol\":1462:1488  block.timestamp > deadline */\n      gt\n        /* \"CrowdFunding/crowdfunding.sol\":1462:1519  block.timestamp > deadline && raisedAmount < targetAmount */\n      dup1\n      iszero\n      tag_114\n      jumpi\n      pop\n        /* \"CrowdFunding/crowdfunding.sol\":1507:1519  targetAmount */\n      sload(0x04)\n        /* \"CrowdFunding/crowdfunding.sol\":1492:1504  raisedAmount */\n      sload(0x05)\n        /* \"CrowdFunding/crowdfunding.sol\":1492:1519  raisedAmount < targetAmount */\n      lt\n        /* \"CrowdFunding/crowdfunding.sol\":1462:1519  block.timestamp > deadline && raisedAmount < targetAmount */\n    tag_114:\n        /* \"CrowdFunding/crowdfunding.sol\":1454:1659  require(block.timestamp > deadline && raisedAmount < targetAmount, \"Sorry, refund has not started yet for anyone because either deadline has not cross or the raised amount is equal or more than target am\") */\n      tag_115\n      jumpi\n      mload(0x40)\n      0x08c379a000000000000000000000000000000000000000000000000000000000\n      dup2\n      mstore\n      0x04\n      add\n      tag_116\n      swap1\n      tag_117\n      jump\t// in\n    tag_116:\n      mload(0x40)\n      dup1\n      swap2\n      sub\n      swap1\n      revert\n    tag_115:\n        /* \"CrowdFunding/crowdfunding.sol\":1704:1705  0 */\n      0x00\n        /* \"CrowdFunding/crowdfunding.sol\":1677:1689  contributors */\n      dup1\n        /* \"CrowdFunding/crowdfunding.sol\":1677:1701  contributors[msg.sender] */\n      0x00\n        /* \"CrowdFunding/crowdfunding.sol\":1690:1700  msg.sender */\n      caller\n        /* \"CrowdFunding/crowdfunding.sol\":1677:1701  contributors[msg.sender] */\n      0xffffffffffffffffffffffffffffffffffffffff\n      and\n      0xffffffffffffffffffffffffffffffffffffffff\n      and\n      dup2\n      mstore\n      0x20\n      add\n      swap1\n      dup2\n      mstore\n      0x20\n      add\n      0x00\n      keccak256\n      sload\n        /* \"CrowdFunding/crowdfunding.sol\":1677:1705  contributors[msg.sender] > 0 */\n      gt\n        /* \"CrowdFunding/crowdfunding.sol\":1669:1734  require(contributors[msg.sender] > 0, \"You haven't contributed.\") */\n      tag_118\n      jumpi\n      mload(0x40)\n      0x08c379a000000000000000000000000000000000000000000000000000000000\n      dup2\n      mstore\n      0x04\n      add\n      tag_119\n      swap1\n      tag_120\n      jump\t// in\n    tag_119:\n      mload(0x40)\n      dup1\n      swap2\n      sub\n      swap1\n      revert\n    tag_118:\n        /* \"CrowdFunding/crowdfunding.sol\":1745:1776  address payable receiverAddress */\n      0x00\n        /* \"CrowdFunding/crowdfunding.sol\":1787:1797  msg.sender */\n      caller\n        /* \"CrowdFunding/crowdfunding.sol\":1745:1798  address payable receiverAddress = payable(msg.sender) */\n      swap1\n      pop\n        /* \"CrowdFunding/crowdfunding.sol\":1808:1823  receiverAddress */\n      dup1\n        /* \"CrowdFunding/crowdfunding.sol\":1808:1832  receiverAddress.transfer */\n      0xffffffffffffffffffffffffffffffffffffffff\n      and\n        /* \"CrowdFunding/crowdfunding.sol\":1808:1858  receiverAddress.transfer(contributors[msg.sender]) */\n      0x08fc\n        /* \"CrowdFunding/crowdfunding.sol\":1833:1845  contributors */\n      0x00\n        /* \"CrowdFunding/crowdfunding.sol\":1833:1857  contributors[msg.sender] */\n      dup1\n        /* \"CrowdFunding/crowdfunding.sol\":1846:1856  msg.sender */\n      caller\n        /* \"CrowdFunding/crowdfunding.sol\":1833:1857  contributors[msg.sender] */\n      0xffffffffffffffffffffffffffffffffffffffff\n      and\n      0xffffffffffffffffffffffffffffffffffffffff\n      and\n      dup2\n      mstore\n      0x20\n      add\n      swap1\n      dup2\n      mstore\n      0x20\n      add\n      0x00\n      keccak256\n      sload\n        /* \"CrowdFunding/crowdfunding.sol\":1808:1858  receiverAddress.transfer(contributors[msg.sender]) */\n      swap1\n      dup2\n      iszero\n      mul\n      swap1\n      mload(0x40)\n      0x00\n      mload(0x40)\n      dup1\n      dup4\n      sub\n      dup2\n      dup6\n      dup9\n      dup9\n      call\n      swap4\n      pop\n      pop\n      pop\n      pop\n      iszero\n      dup1\n      iszero\n      tag_122\n      jumpi\n      returndatasize\n      0x00\n      dup1\n      returndatacopy\n      revert(0x00, returndatasize)\n    tag_122:\n      pop\n        /* \"CrowdFunding/crowdfunding.sol\":1885:1897  contributors */\n      0x00\n        /* \"CrowdFunding/crowdfunding.sol\":1885:1909  contributors[msg.sender] */\n      dup1\n        /* \"CrowdFunding/crowdfunding.sol\":1898:1908  msg.sender */\n      caller\n        /* \"CrowdFunding/crowdfunding.sol\":1885:1909  contributors[msg.sender] */\n      0xffffffffffffffffffffffffffffffffffffffff\n      and\n      0xffffffffffffffffffffffffffffffffffffffff\n      and\n      dup2\n      mstore\n      0x20\n      add\n      swap1\n      dup2\n      mstore\n      0x20\n      add\n      0x00\n      keccak256\n      sload\n        /* \"CrowdFunding/crowdfunding.sol\":1869:1881  raisedAmount */\n      0x05\n      0x00\n        /* \"CrowdFunding/crowdfunding.sol\":1869:1909  raisedAmount -= contributors[msg.sender] */\n      dup3\n      dup3\n      sload\n      tag_123\n      swap2\n      swap1\n      tag_124\n      jump\t// in\n    tag_123:\n      swap3\n      pop\n      pop\n      dup2\n      swap1\n      sstore\n      pop\n        /* \"CrowdFunding/crowdfunding.sol\":2024:2025  0 */\n      0x00\n        /* \"CrowdFunding/crowdfunding.sol\":1997:2009  contributors */\n      dup1\n        /* \"CrowdFunding/crowdfunding.sol\":1997:2021  contributors[msg.sender] */\n      0x00\n        /* \"CrowdFunding/crowdfunding.sol\":2010:2020  msg.sender */\n      caller\n        /* \"CrowdFunding/crowdfunding.sol\":1997:2021  contributors[msg.sender] */\n      0xffffffffffffffffffffffffffffffffffffffff\n      and\n      0xffffffffffffffffffffffffffffffffffffffff\n      and\n      dup2\n      mstore\n      0x20\n      add\n      swap1\n      dup2\n      mstore\n      0x20\n      add\n      0x00\n      keccak256\n        /* \"CrowdFunding/crowdfunding.sol\":1997:2025  contributors[msg.sender] = 0 */\n      dup2\n      swap1\n      sstore\n      pop\n        /* \"CrowdFunding/crowdfunding.sol\":2035:2051  noOfContributors */\n      0x06\n      0x00\n        /* \"CrowdFunding/crowdfunding.sol\":2035:2053  noOfContributors-- */\n      dup2\n      sload\n      dup1\n      swap3\n      swap2\n      swap1\n      tag_125\n      swap1\n      tag_126\n      jump\t// in\n    tag_125:\n      swap2\n      swap1\n      pop\n      sstore\n      pop\n        /* \"CrowdFunding/crowdfunding.sol\":1444:2061  {... */\n      pop\n        /* \"CrowdFunding/crowdfunding.sol\":1420:2061  function refund() public{... */\n      jump\t// out\n        /* \"CrowdFunding/crowdfunding.sol\":1249:1413  function getContractBalance() public view returns(uint){... */\n    tag_56:\n        /* \"CrowdFunding/crowdfunding.sol\":1299:1303  uint */\n      0x00\n        /* \"CrowdFunding/crowdfunding.sol\":1385:1406  address(this).balance */\n      selfbalance\n        /* \"CrowdFunding/crowdfunding.sol\":1378:1406  return address(this).balance */\n      swap1\n      pop\n        /* \"CrowdFunding/crowdfunding.sol\":1249:1413  function getContractBalance() public view returns(uint){... */\n      swap1\n      jump\t// out\n        /* \"CrowdFunding/crowdfunding.sol\":536:574  mapping(uint=>Request) public requests */\n    tag_61:\n      mstore(0x20, 0x07)\n      dup1\n      0x00\n      mstore\n      keccak256(0x00, 0x40)\n      0x00\n      swap2\n      pop\n      swap1\n      pop\n      dup1\n      0x00\n      add\n      dup1\n      sload\n      tag_128\n      swap1\n      tag_129\n      jump\t// in\n    tag_128:\n      dup1\n      0x1f\n      add\n      0x20\n      dup1\n      swap2\n      div\n      mul\n      0x20\n      add\n      mload(0x40)\n      swap1\n      dup2\n      add\n      0x40\n      mstore\n      dup1\n      swap3\n      swap2\n      swap1\n      dup2\n      dup2\n      mstore\n      0x20\n      add\n      dup3\n      dup1\n      sload\n      tag_130\n      swap1\n      tag_129\n      jump\t// in\n    tag_130:\n      dup1\n      iszero\n      tag_131\n      jumpi\n      dup1\n      0x1f\n      lt\n      tag_132\n      jumpi\n      0x0100\n      dup1\n      dup4\n      sload\n      div\n      mul\n      dup4\n      mstore\n      swap2\n      0x20\n      add\n      swap2\n      jump(tag_131)\n    tag_132:\n      dup3\n      add\n      swap2\n      swap1\n      0x00\n      mstore\n      keccak256(0x00, 0x20)\n      swap1\n    tag_133:\n      dup2\n      sload\n      dup2\n      mstore\n      swap1\n      0x01\n      add\n      swap1\n      0x20\n      add\n      dup1\n      dup4\n      gt\n      tag_133\n      jumpi\n      dup3\n      swap1\n      sub\n      0x1f\n      and\n      dup3\n      add\n      swap2\n    tag_131:\n      pop\n      pop\n      pop\n      pop\n      pop\n      swap1\n      dup1\n      0x01\n      add\n      sload\n      swap1\n      dup1\n      0x02\n      add\n      0x00\n      swap1\n      sload\n      swap1\n      0x0100\n      exp\n      swap1\n      div\n      0xffffffffffffffffffffffffffffffffffffffff\n      and\n      swap1\n      dup1\n      0x02\n      add\n      0x14\n      swap1\n      sload\n      swap1\n      0x0100\n      exp\n      swap1\n      div\n      0xff\n      and\n      swap1\n      dup1\n      0x03\n      add\n      sload\n      swap1\n      pop\n      dup6\n      jump\t// out\n        /* \"CrowdFunding/crowdfunding.sol\":178:209  uint public minimumContribution */\n    tag_66:\n      sload(0x02)\n      dup2\n      jump\t// out\n        /* \"CrowdFunding/crowdfunding.sol\":241:265  uint public targetAmount */\n    tag_70:\n      sload(0x04)\n      dup2\n      jump\t// out\n        /* \"CrowdFunding/crowdfunding.sol\":580:603  uint public numRequests */\n    tag_74:\n      sload(0x08)\n      dup2\n      jump\t// out\n        /* \"CrowdFunding/crowdfunding.sol\":271:295  uint public raisedAmount */\n    tag_78:\n      sload(0x05)\n      dup2\n      jump\t// out\n    tag_100:\n      dup3\n      dup1\n      sload\n      tag_134\n      swap1\n      tag_129\n      jump\t// in\n    tag_134:\n      swap1\n      0x00\n      mstore\n      keccak256(0x00, 0x20)\n      swap1\n      0x1f\n      add\n      0x20\n      swap1\n      div\n      dup2\n      add\n      swap3\n      dup3\n      tag_136\n      jumpi\n      0x00\n      dup6\n      sstore\n      jump(tag_135)\n    tag_136:\n      dup3\n      0x1f\n      lt\n      tag_137\n      jumpi\n      dup1\n      mload\n      not(0xff)\n      and\n      dup4\n      dup1\n      add\n      or\n      dup6\n      sstore\n      jump(tag_135)\n    tag_137:\n      dup3\n      dup1\n      add\n      0x01\n      add\n      dup6\n      sstore\n      dup3\n      iszero\n      tag_135\n      jumpi\n      swap2\n      dup3\n      add\n    tag_138:\n      dup3\n      dup2\n      gt\n      iszero\n      tag_139\n      jumpi\n      dup3\n      mload\n      dup3\n      sstore\n      swap2\n      0x20\n      add\n      swap2\n      swap1\n      0x01\n      add\n      swap1\n      jump(tag_138)\n    tag_139:\n    tag_135:\n      pop\n      swap1\n      pop\n      tag_140\n      swap2\n      swap1\n      tag_141\n      jump\t// in\n    tag_140:\n      pop\n      swap1\n      jump\t// out\n    tag_141:\n    tag_142:\n      dup1\n      dup3\n      gt\n      iszero\n      tag_143\n      jumpi\n      0x00\n      dup2\n      0x00\n      swap1\n      sstore\n      pop\n      0x01\n      add\n      jump(tag_142)\n    tag_143:\n      pop\n      swap1\n      jump\t// out\n        /* \"#utility.yul\":7:419   */\n    tag_145:\n        /* \"#utility.yul\":85:90   */\n      0x00\n        /* \"#utility.yul\":110:176   */\n      tag_147\n        /* \"#utility.yul\":126:175   */\n      tag_148\n        /* \"#utility.yul\":168:174   */\n      dup5\n        /* \"#utility.yul\":126:175   */\n      tag_149\n      jump\t// in\n    tag_148:\n        /* \"#utility.yul\":110:176   */\n      tag_150\n      jump\t// in\n    tag_147:\n        /* \"#utility.yul\":101:176   */\n      swap1\n      pop\n        /* \"#utility.yul\":199:205   */\n      dup3\n        /* \"#utility.yul\":192:197   */\n      dup2\n        /* \"#utility.yul\":185:206   */\n      mstore\n        /* \"#utility.yul\":237:241   */\n      0x20\n        /* \"#utility.yul\":230:235   */\n      dup2\n        /* \"#utility.yul\":226:242   */\n      add\n        /* \"#utility.yul\":275:278   */\n      dup5\n        /* \"#utility.yul\":266:272   */\n      dup5\n        /* \"#utility.yul\":261:264   */\n      dup5\n        /* \"#utility.yul\":257:273   */\n      add\n        /* \"#utility.yul\":254:279   */\n      gt\n        /* \"#utility.yul\":251:363   */\n      iszero\n      tag_151\n      jumpi\n        /* \"#utility.yul\":282:361   */\n      tag_152\n      tag_153\n      jump\t// in\n    tag_152:\n        /* \"#utility.yul\":251:363   */\n    tag_151:\n        /* \"#utility.yul\":372:413   */\n      tag_154\n        /* \"#utility.yul\":406:412   */\n      dup5\n        /* \"#utility.yul\":401:404   */\n      dup3\n        /* \"#utility.yul\":396:399   */\n      dup6\n        /* \"#utility.yul\":372:413   */\n      tag_155\n      jump\t// in\n    tag_154:\n        /* \"#utility.yul\":91:419   */\n      pop\n        /* \"#utility.yul\":7:419   */\n      swap4\n      swap3\n      pop\n      pop\n      pop\n      jump\t// out\n        /* \"#utility.yul\":425:564   */\n    tag_156:\n        /* \"#utility.yul\":471:476   */\n      0x00\n        /* \"#utility.yul\":509:515   */\n      dup2\n        /* \"#utility.yul\":496:516   */\n      calldataload\n        /* \"#utility.yul\":487:516   */\n      swap1\n      pop\n        /* \"#utility.yul\":525:558   */\n      tag_158\n        /* \"#utility.yul\":552:557   */\n      dup2\n        /* \"#utility.yul\":525:558   */\n      tag_159\n      jump\t// in\n    tag_158:\n        /* \"#utility.yul\":425:564   */\n      swap3\n      swap2\n      pop\n      pop\n      jump\t// out\n        /* \"#utility.yul\":570:725   */\n    tag_160:\n        /* \"#utility.yul\":624:629   */\n      0x00\n        /* \"#utility.yul\":662:668   */\n      dup2\n        /* \"#utility.yul\":649:669   */\n      calldataload\n        /* \"#utility.yul\":640:669   */\n      swap1\n      pop\n        /* \"#utility.yul\":678:719   */\n      tag_162\n        /* \"#utility.yul\":713:718   */\n      dup2\n        /* \"#utility.yul\":678:719   */\n      tag_163\n      jump\t// in\n    tag_162:\n        /* \"#utility.yul\":570:725   */\n      swap3\n      swap2\n      pop\n      pop\n      jump\t// out\n        /* \"#utility.yul\":745:1085   */\n    tag_164:\n        /* \"#utility.yul\":801:806   */\n      0x00\n        /* \"#utility.yul\":850:853   */\n      dup3\n        /* \"#utility.yul\":843:847   */\n      0x1f\n        /* \"#utility.yul\":835:841   */\n      dup4\n        /* \"#utility.yul\":831:848   */\n      add\n        /* \"#utility.yul\":827:854   */\n      slt\n        /* \"#utility.yul\":817:939   */\n      tag_166\n      jumpi\n        /* \"#utility.yul\":858:937   */\n      tag_167\n      tag_168\n      jump\t// in\n    tag_167:\n        /* \"#utility.yul\":817:939   */\n    tag_166:\n        /* \"#utility.yul\":975:981   */\n      dup2\n        /* \"#utility.yul\":962:982   */\n      calldataload\n        /* \"#utility.yul\":1000:1079   */\n      tag_169\n        /* \"#utility.yul\":1075:1078   */\n      dup5\n        /* \"#utility.yul\":1067:1073   */\n      dup3\n        /* \"#utility.yul\":1060:1064   */\n      0x20\n        /* \"#utility.yul\":1052:1058   */\n      dup7\n        /* \"#utility.yul\":1048:1065   */\n      add\n        /* \"#utility.yul\":1000:1079   */\n      tag_145\n      jump\t// in\n    tag_169:\n        /* \"#utility.yul\":991:1079   */\n      swap2\n      pop\n        /* \"#utility.yul\":807:1085   */\n      pop\n        /* \"#utility.yul\":745:1085   */\n      swap3\n      swap2\n      pop\n      pop\n      jump\t// out\n        /* \"#utility.yul\":1091:1230   */\n    tag_170:\n        /* \"#utility.yul\":1137:1142   */\n      0x00\n        /* \"#utility.yul\":1175:1181   */\n      dup2\n        /* \"#utility.yul\":1162:1182   */\n      calldataload\n        /* \"#utility.yul\":1153:1182   */\n      swap1\n      pop\n        /* \"#utility.yul\":1191:1224   */\n      tag_172\n        /* \"#utility.yul\":1218:1223   */\n      dup2\n        /* \"#utility.yul\":1191:1224   */\n      tag_173\n      jump\t// in\n    tag_172:\n        /* \"#utility.yul\":1091:1230   */\n      swap3\n      swap2\n      pop\n      pop\n      jump\t// out\n        /* \"#utility.yul\":1236:1565   */\n    tag_29:\n        /* \"#utility.yul\":1295:1301   */\n      0x00\n        /* \"#utility.yul\":1344:1346   */\n      0x20\n        /* \"#utility.yul\":1332:1341   */\n      dup3\n        /* \"#utility.yul\":1323:1330   */\n      dup5\n        /* \"#utility.yul\":1319:1342   */\n      sub\n        /* \"#utility.yul\":1315:1347   */\n      slt\n        /* \"#utility.yul\":1312:1431   */\n      iszero\n      tag_175\n      jumpi\n        /* \"#utility.yul\":1350:1429   */\n      tag_176\n      tag_177\n      jump\t// in\n    tag_176:\n        /* \"#utility.yul\":1312:1431   */\n    tag_175:\n        /* \"#utility.yul\":1470:1471   */\n      0x00\n        /* \"#utility.yul\":1495:1548   */\n      tag_178\n        /* \"#utility.yul\":1540:1547   */\n      dup5\n        /* \"#utility.yul\":1531:1537   */\n      dup3\n        /* \"#utility.yul\":1520:1529   */\n      dup6\n        /* \"#utility.yul\":1516:1538   */\n      add\n        /* \"#utility.yul\":1495:1548   */\n      tag_156\n      jump\t// in\n    tag_178:\n        /* \"#utility.yul\":1485:1548   */\n      swap2\n      pop\n        /* \"#utility.yul\":1441:1558   */\n      pop\n        /* \"#utility.yul\":1236:1565   */\n      swap3\n      swap2\n      pop\n      pop\n      jump\t// out\n        /* \"#utility.yul\":1571:2386   */\n    tag_24:\n        /* \"#utility.yul\":1666:1672   */\n      0x00\n        /* \"#utility.yul\":1674:1680   */\n      dup1\n        /* \"#utility.yul\":1682:1688   */\n      0x00\n        /* \"#utility.yul\":1731:1733   */\n      0x60\n        /* \"#utility.yul\":1719:1728   */\n      dup5\n        /* \"#utility.yul\":1710:1717   */\n      dup7\n        /* \"#utility.yul\":1706:1729   */\n      sub\n        /* \"#utility.yul\":1702:1734   */\n      slt\n        /* \"#utility.yul\":1699:1818   */\n      iszero\n      tag_180\n      jumpi\n        /* \"#utility.yul\":1737:1816   */\n      tag_181\n      tag_177\n      jump\t// in\n    tag_181:\n        /* \"#utility.yul\":1699:1818   */\n    tag_180:\n        /* \"#utility.yul\":1885:1886   */\n      0x00\n        /* \"#utility.yul\":1874:1883   */\n      dup5\n        /* \"#utility.yul\":1870:1887   */\n      add\n        /* \"#utility.yul\":1857:1888   */\n      calldataload\n        /* \"#utility.yul\":1915:1933   */\n      0xffffffffffffffff\n        /* \"#utility.yul\":1907:1913   */\n      dup2\n        /* \"#utility.yul\":1904:1934   */\n      gt\n        /* \"#utility.yul\":1901:2018   */\n      iszero\n      tag_182\n      jumpi\n        /* \"#utility.yul\":1937:2016   */\n      tag_183\n      tag_184\n      jump\t// in\n    tag_183:\n        /* \"#utility.yul\":1901:2018   */\n    tag_182:\n        /* \"#utility.yul\":2042:2105   */\n      tag_185\n        /* \"#utility.yul\":2097:2104   */\n      dup7\n        /* \"#utility.yul\":2088:2094   */\n      dup3\n        /* \"#utility.yul\":2077:2086   */\n      dup8\n        /* \"#utility.yul\":2073:2095   */\n      add\n        /* \"#utility.yul\":2042:2105   */\n      tag_164\n      jump\t// in\n    tag_185:\n        /* \"#utility.yul\":2032:2105   */\n      swap4\n      pop\n        /* \"#utility.yul\":1828:2115   */\n      pop\n        /* \"#utility.yul\":2154:2156   */\n      0x20\n        /* \"#utility.yul\":2180:2241   */\n      tag_186\n        /* \"#utility.yul\":2233:2240   */\n      dup7\n        /* \"#utility.yul\":2224:2230   */\n      dup3\n        /* \"#utility.yul\":2213:2222   */\n      dup8\n        /* \"#utility.yul\":2209:2231   */\n      add\n        /* \"#utility.yul\":2180:2241   */\n      tag_160\n      jump\t// in\n    tag_186:\n        /* \"#utility.yul\":2170:2241   */\n      swap3\n      pop\n        /* \"#utility.yul\":2125:2251   */\n      pop\n        /* \"#utility.yul\":2290:2292   */\n      0x40\n        /* \"#utility.yul\":2316:2369   */\n      tag_187\n        /* \"#utility.yul\":2361:2368   */\n      dup7\n        /* \"#utility.yul\":2352:2358   */\n      dup3\n        /* \"#utility.yul\":2341:2350   */\n      dup8\n        /* \"#utility.yul\":2337:2359   */\n      add\n        /* \"#utility.yul\":2316:2369   */\n      tag_170\n      jump\t// in\n    tag_187:\n        /* \"#utility.yul\":2306:2369   */\n      swap2\n      pop\n        /* \"#utility.yul\":2261:2379   */\n      pop\n        /* \"#utility.yul\":1571:2386   */\n      swap3\n      pop\n      swap3\n      pop\n      swap3\n      jump\t// out\n        /* \"#utility.yul\":2392:2721   */\n    tag_45:\n        /* \"#utility.yul\":2451:2457   */\n      0x00\n        /* \"#utility.yul\":2500:2502   */\n      0x20\n        /* \"#utility.yul\":2488:2497   */\n      dup3\n        /* \"#utility.yul\":2479:2486   */\n      dup5\n        /* \"#utility.yul\":2475:2498   */\n      sub\n        /* \"#utility.yul\":2471:2503   */\n      slt\n        /* \"#utility.yul\":2468:2587   */\n      iszero\n      tag_189\n      jumpi\n        /* \"#utility.yul\":2506:2585   */\n      tag_190\n      tag_177\n      jump\t// in\n    tag_190:\n        /* \"#utility.yul\":2468:2587   */\n    tag_189:\n        /* \"#utility.yul\":2626:2627   */\n      0x00\n        /* \"#utility.yul\":2651:2704   */\n      tag_191\n        /* \"#utility.yul\":2696:2703   */\n      dup5\n        /* \"#utility.yul\":2687:2693   */\n      dup3\n        /* \"#utility.yul\":2676:2685   */\n      dup6\n        /* \"#utility.yul\":2672:2694   */\n      add\n        /* \"#utility.yul\":2651:2704   */\n      tag_170\n      jump\t// in\n    tag_191:\n        /* \"#utility.yul\":2641:2704   */\n      swap2\n      pop\n        /* \"#utility.yul\":2597:2714   */\n      pop\n        /* \"#utility.yul\":2392:2721   */\n      swap3\n      swap2\n      pop\n      pop\n      jump\t// out\n        /* \"#utility.yul\":2727:2869   */\n    tag_192:\n        /* \"#utility.yul\":2830:2862   */\n      tag_194\n        /* \"#utility.yul\":2856:2861   */\n      dup2\n        /* \"#utility.yul\":2830:2862   */\n      tag_195\n      jump\t// in\n    tag_194:\n        /* \"#utility.yul\":2825:2828   */\n      dup3\n        /* \"#utility.yul\":2818:2863   */\n      mstore\n        /* \"#utility.yul\":2727:2869   */\n      pop\n      pop\n      jump\t// out\n        /* \"#utility.yul\":2875:2993   */\n    tag_196:\n        /* \"#utility.yul\":2962:2986   */\n      tag_198\n        /* \"#utility.yul\":2980:2985   */\n      dup2\n        /* \"#utility.yul\":2962:2986   */\n      tag_199\n      jump\t// in\n    tag_198:\n        /* \"#utility.yul\":2957:2960   */\n      dup3\n        /* \"#utility.yul\":2950:2987   */\n      mstore\n        /* \"#utility.yul\":2875:2993   */\n      pop\n      pop\n      jump\t// out\n        /* \"#utility.yul\":2999:3108   */\n    tag_200:\n        /* \"#utility.yul\":3080:3101   */\n      tag_202\n        /* \"#utility.yul\":3095:3100   */\n      dup2\n        /* \"#utility.yul\":3080:3101   */\n      tag_203\n      jump\t// in\n    tag_202:\n        /* \"#utility.yul\":3075:3078   */\n      dup3\n        /* \"#utility.yul\":3068:3102   */\n      mstore\n        /* \"#utility.yul\":2999:3108   */\n      pop\n      pop\n      jump\t// out\n        /* \"#utility.yul\":3114:3478   */\n    tag_204:\n        /* \"#utility.yul\":3202:3205   */\n      0x00\n        /* \"#utility.yul\":3230:3269   */\n      tag_206\n        /* \"#utility.yul\":3263:3268   */\n      dup3\n        /* \"#utility.yul\":3230:3269   */\n      tag_207\n      jump\t// in\n    tag_206:\n        /* \"#utility.yul\":3285:3356   */\n      tag_208\n        /* \"#utility.yul\":3349:3355   */\n      dup2\n        /* \"#utility.yul\":3344:3347   */\n      dup6\n        /* \"#utility.yul\":3285:3356   */\n      tag_209\n      jump\t// in\n    tag_208:\n        /* \"#utility.yul\":3278:3356   */\n      swap4\n      pop\n        /* \"#utility.yul\":3365:3417   */\n      tag_210\n        /* \"#utility.yul\":3410:3416   */\n      dup2\n        /* \"#utility.yul\":3405:3408   */\n      dup6\n        /* \"#utility.yul\":3398:3402   */\n      0x20\n        /* \"#utility.yul\":3391:3396   */\n      dup7\n        /* \"#utility.yul\":3387:3403   */\n      add\n        /* \"#utility.yul\":3365:3417   */\n      tag_211\n      jump\t// in\n    tag_210:\n        /* \"#utility.yul\":3442:3471   */\n      tag_212\n        /* \"#utility.yul\":3464:3470   */\n      dup2\n        /* \"#utility.yul\":3442:3471   */\n      tag_213\n      jump\t// in\n    tag_212:\n        /* \"#utility.yul\":3437:3440   */\n      dup5\n        /* \"#utility.yul\":3433:3472   */\n      add\n        /* \"#utility.yul\":3426:3472   */\n      swap2\n      pop\n        /* \"#utility.yul\":3206:3478   */\n      pop\n        /* \"#utility.yul\":3114:3478   */\n      swap3\n      swap2\n      pop\n      pop\n      jump\t// out\n        /* \"#utility.yul\":3484:3850   */\n    tag_214:\n        /* \"#utility.yul\":3626:3629   */\n      0x00\n        /* \"#utility.yul\":3647:3714   */\n      tag_216\n        /* \"#utility.yul\":3711:3713   */\n      0x24\n        /* \"#utility.yul\":3706:3709   */\n      dup4\n        /* \"#utility.yul\":3647:3714   */\n      tag_209\n      jump\t// in\n    tag_216:\n        /* \"#utility.yul\":3640:3714   */\n      swap2\n      pop\n        /* \"#utility.yul\":3723:3816   */\n      tag_217\n        /* \"#utility.yul\":3812:3815   */\n      dup3\n        /* \"#utility.yul\":3723:3816   */\n      tag_218\n      jump\t// in\n    tag_217:\n        /* \"#utility.yul\":3841:3843   */\n      0x40\n        /* \"#utility.yul\":3836:3839   */\n      dup3\n        /* \"#utility.yul\":3832:3844   */\n      add\n        /* \"#utility.yul\":3825:3844   */\n      swap1\n      pop\n        /* \"#utility.yul\":3484:3850   */\n      swap2\n      swap1\n      pop\n      jump\t// out\n        /* \"#utility.yul\":3856:4224   */\n    tag_219:\n        /* \"#utility.yul\":3998:4001   */\n      0x00\n        /* \"#utility.yul\":4019:4087   */\n      tag_221\n        /* \"#utility.yul\":4083:4086   */\n      0x87\n        /* \"#utility.yul\":4078:4081   */\n      dup4\n        /* \"#utility.yul\":4019:4087   */\n      tag_209\n      jump\t// in\n    tag_221:\n        /* \"#utility.yul\":4012:4087   */\n      swap2\n      pop\n        /* \"#utility.yul\":4096:4189   */\n      tag_222\n        /* \"#utility.yul\":4185:4188   */\n      dup3\n        /* \"#utility.yul\":4096:4189   */\n      tag_223\n      jump\t// in\n    tag_222:\n        /* \"#utility.yul\":4214:4217   */\n      0xa0\n        /* \"#utility.yul\":4209:4212   */\n      dup3\n        /* \"#utility.yul\":4205:4218   */\n      add\n        /* \"#utility.yul\":4198:4218   */\n      swap1\n      pop\n        /* \"#utility.yul\":3856:4224   */\n      swap2\n      swap1\n      pop\n      jump\t// out\n        /* \"#utility.yul\":4230:4596   */\n    tag_224:\n        /* \"#utility.yul\":4372:4375   */\n      0x00\n        /* \"#utility.yul\":4393:4460   */\n      tag_226\n        /* \"#utility.yul\":4457:4459   */\n      0x17\n        /* \"#utility.yul\":4452:4455   */\n      dup4\n        /* \"#utility.yul\":4393:4460   */\n      tag_209\n      jump\t// in\n    tag_226:\n        /* \"#utility.yul\":4386:4460   */\n      swap2\n      pop\n        /* \"#utility.yul\":4469:4562   */\n      tag_227\n        /* \"#utility.yul\":4558:4561   */\n      dup3\n        /* \"#utility.yul\":4469:4562   */\n      tag_228\n      jump\t// in\n    tag_227:\n        /* \"#utility.yul\":4587:4589   */\n      0x20\n        /* \"#utility.yul\":4582:4585   */\n      dup3\n        /* \"#utility.yul\":4578:4590   */\n      add\n        /* \"#utility.yul\":4571:4590   */\n      swap1\n      pop\n        /* \"#utility.yul\":4230:4596   */\n      swap2\n      swap1\n      pop\n      jump\t// out\n        /* \"#utility.yul\":4602:4968   */\n    tag_229:\n        /* \"#utility.yul\":4744:4747   */\n      0x00\n        /* \"#utility.yul\":4765:4832   */\n      tag_231\n        /* \"#utility.yul\":4829:4831   */\n      0x18\n        /* \"#utility.yul\":4824:4827   */\n      dup4\n        /* \"#utility.yul\":4765:4832   */\n      tag_209\n      jump\t// in\n    tag_231:\n        /* \"#utility.yul\":4758:4832   */\n      swap2\n      pop\n        /* \"#utility.yul\":4841:4934   */\n      tag_232\n        /* \"#utility.yul\":4930:4933   */\n      dup3\n        /* \"#utility.yul\":4841:4934   */\n      tag_233\n      jump\t// in\n    tag_232:\n        /* \"#utility.yul\":4959:4961   */\n      0x20\n        /* \"#utility.yul\":4954:4957   */\n      dup3\n        /* \"#utility.yul\":4950:4962   */\n      add\n        /* \"#utility.yul\":4943:4962   */\n      swap1\n      pop\n        /* \"#utility.yul\":4602:4968   */\n      swap2\n      swap1\n      pop\n      jump\t// out\n        /* \"#utility.yul\":4974:5340   */\n    tag_234:\n        /* \"#utility.yul\":5116:5119   */\n      0x00\n        /* \"#utility.yul\":5137:5204   */\n      tag_236\n        /* \"#utility.yul\":5201:5203   */\n      0x28\n        /* \"#utility.yul\":5196:5199   */\n      dup4\n        /* \"#utility.yul\":5137:5204   */\n      tag_209\n      jump\t// in\n    tag_236:\n        /* \"#utility.yul\":5130:5204   */\n      swap2\n      pop\n        /* \"#utility.yul\":5213:5306   */\n      tag_237\n        /* \"#utility.yul\":5302:5305   */\n      dup3\n        /* \"#utility.yul\":5213:5306   */\n      tag_238\n      jump\t// in\n    tag_237:\n        /* \"#utility.yul\":5331:5333   */\n      0x40\n        /* \"#utility.yul\":5326:5329   */\n      dup3\n        /* \"#utility.yul\":5322:5334   */\n      add\n        /* \"#utility.yul\":5315:5334   */\n      swap1\n      pop\n        /* \"#utility.yul\":4974:5340   */\n      swap2\n      swap1\n      pop\n      jump\t// out\n        /* \"#utility.yul\":5346:5712   */\n    tag_239:\n        /* \"#utility.yul\":5488:5491   */\n      0x00\n        /* \"#utility.yul\":5509:5576   */\n      tag_241\n        /* \"#utility.yul\":5573:5575   */\n      0x43\n        /* \"#utility.yul\":5568:5571   */\n      dup4\n        /* \"#utility.yul\":5509:5576   */\n      tag_209\n      jump\t// in\n    tag_241:\n        /* \"#utility.yul\":5502:5576   */\n      swap2\n      pop\n        /* \"#utility.yul\":5585:5678   */\n      tag_242\n        /* \"#utility.yul\":5674:5677   */\n      dup3\n        /* \"#utility.yul\":5585:5678   */\n      tag_243\n      jump\t// in\n    tag_242:\n        /* \"#utility.yul\":5703:5705   */\n      0x60\n        /* \"#utility.yul\":5698:5701   */\n      dup3\n        /* \"#utility.yul\":5694:5706   */\n      add\n        /* \"#utility.yul\":5687:5706   */\n      swap1\n      pop\n        /* \"#utility.yul\":5346:5712   */\n      swap2\n      swap1\n      pop\n      jump\t// out\n        /* \"#utility.yul\":5718:6084   */\n    tag_244:\n        /* \"#utility.yul\":5860:5863   */\n      0x00\n        /* \"#utility.yul\":5881:5948   */\n      tag_246\n        /* \"#utility.yul\":5945:5947   */\n      0x23\n        /* \"#utility.yul\":5940:5943   */\n      dup4\n        /* \"#utility.yul\":5881:5948   */\n      tag_209\n      jump\t// in\n    tag_246:\n        /* \"#utility.yul\":5874:5948   */\n      swap2\n      pop\n        /* \"#utility.yul\":5957:6050   */\n      tag_247\n        /* \"#utility.yul\":6046:6049   */\n      dup3\n        /* \"#utility.yul\":5957:6050   */\n      tag_248\n      jump\t// in\n    tag_247:\n        /* \"#utility.yul\":6075:6077   */\n      0x40\n        /* \"#utility.yul\":6070:6073   */\n      dup3\n        /* \"#utility.yul\":6066:6078   */\n      add\n        /* \"#utility.yul\":6059:6078   */\n      swap1\n      pop\n        /* \"#utility.yul\":5718:6084   */\n      swap2\n      swap1\n      pop\n      jump\t// out\n        /* \"#utility.yul\":6090:6456   */\n    tag_249:\n        /* \"#utility.yul\":6232:6235   */\n      0x00\n        /* \"#utility.yul\":6253:6320   */\n      tag_251\n        /* \"#utility.yul\":6317:6319   */\n      0x56\n        /* \"#utility.yul\":6312:6315   */\n      dup4\n        /* \"#utility.yul\":6253:6320   */\n      tag_209\n      jump\t// in\n    tag_251:\n        /* \"#utility.yul\":6246:6320   */\n      swap2\n      pop\n        /* \"#utility.yul\":6329:6422   */\n      tag_252\n        /* \"#utility.yul\":6418:6421   */\n      dup3\n        /* \"#utility.yul\":6329:6422   */\n      tag_253\n      jump\t// in\n    tag_252:\n        /* \"#utility.yul\":6447:6449   */\n      0x60\n        /* \"#utility.yul\":6442:6445   */\n      dup3\n        /* \"#utility.yul\":6438:6450   */\n      add\n        /* \"#utility.yul\":6431:6450   */\n      swap1\n      pop\n        /* \"#utility.yul\":6090:6456   */\n      swap2\n      swap1\n      pop\n      jump\t// out\n        /* \"#utility.yul\":6462:6580   */\n    tag_254:\n        /* \"#utility.yul\":6549:6573   */\n      tag_256\n        /* \"#utility.yul\":6567:6572   */\n      dup2\n        /* \"#utility.yul\":6549:6573   */\n      tag_257\n      jump\t// in\n    tag_256:\n        /* \"#utility.yul\":6544:6547   */\n      dup3\n        /* \"#utility.yul\":6537:6574   */\n      mstore\n        /* \"#utility.yul\":6462:6580   */\n      pop\n      pop\n      jump\t// out\n        /* \"#utility.yul\":6586:6808   */\n    tag_41:\n        /* \"#utility.yul\":6679:6683   */\n      0x00\n        /* \"#utility.yul\":6717:6719   */\n      0x20\n        /* \"#utility.yul\":6706:6715   */\n      dup3\n        /* \"#utility.yul\":6702:6720   */\n      add\n        /* \"#utility.yul\":6694:6720   */\n      swap1\n      pop\n        /* \"#utility.yul\":6730:6801   */\n      tag_259\n        /* \"#utility.yul\":6798:6799   */\n      0x00\n        /* \"#utility.yul\":6787:6796   */\n      dup4\n        /* \"#utility.yul\":6783:6800   */\n      add\n        /* \"#utility.yul\":6774:6780   */\n      dup5\n        /* \"#utility.yul\":6730:6801   */\n      tag_196\n      jump\t// in\n    tag_259:\n        /* \"#utility.yul\":6586:6808   */\n      swap3\n      swap2\n      pop\n      pop\n      jump\t// out\n        /* \"#utility.yul\":6814:7589   */\n    tag_63:\n        /* \"#utility.yul\":7049:7053   */\n      0x00\n        /* \"#utility.yul\":7087:7090   */\n      0xa0\n        /* \"#utility.yul\":7076:7085   */\n      dup3\n        /* \"#utility.yul\":7072:7091   */\n      add\n        /* \"#utility.yul\":7064:7091   */\n      swap1\n      pop\n        /* \"#utility.yul\":7137:7146   */\n      dup2\n        /* \"#utility.yul\":7131:7135   */\n      dup2\n        /* \"#utility.yul\":7127:7147   */\n      sub\n        /* \"#utility.yul\":7123:7124   */\n      0x00\n        /* \"#utility.yul\":7112:7121   */\n      dup4\n        /* \"#utility.yul\":7108:7125   */\n      add\n        /* \"#utility.yul\":7101:7148   */\n      mstore\n        /* \"#utility.yul\":7165:7243   */\n      tag_261\n        /* \"#utility.yul\":7238:7242   */\n      dup2\n        /* \"#utility.yul\":7229:7235   */\n      dup9\n        /* \"#utility.yul\":7165:7243   */\n      tag_204\n      jump\t// in\n    tag_261:\n        /* \"#utility.yul\":7157:7243   */\n      swap1\n      pop\n        /* \"#utility.yul\":7253:7325   */\n      tag_262\n        /* \"#utility.yul\":7321:7323   */\n      0x20\n        /* \"#utility.yul\":7310:7319   */\n      dup4\n        /* \"#utility.yul\":7306:7324   */\n      add\n        /* \"#utility.yul\":7297:7303   */\n      dup8\n        /* \"#utility.yul\":7253:7325   */\n      tag_254\n      jump\t// in\n    tag_262:\n        /* \"#utility.yul\":7335:7423   */\n      tag_263\n        /* \"#utility.yul\":7419:7421   */\n      0x40\n        /* \"#utility.yul\":7408:7417   */\n      dup4\n        /* \"#utility.yul\":7404:7422   */\n      add\n        /* \"#utility.yul\":7395:7401   */\n      dup7\n        /* \"#utility.yul\":7335:7423   */\n      tag_192\n      jump\t// in\n    tag_263:\n        /* \"#utility.yul\":7433:7499   */\n      tag_264\n        /* \"#utility.yul\":7495:7497   */\n      0x60\n        /* \"#utility.yul\":7484:7493   */\n      dup4\n        /* \"#utility.yul\":7480:7498   */\n      add\n        /* \"#utility.yul\":7471:7477   */\n      dup6\n        /* \"#utility.yul\":7433:7499   */\n      tag_200\n      jump\t// in\n    tag_264:\n        /* \"#utility.yul\":7509:7582   */\n      tag_265\n        /* \"#utility.yul\":7577:7580   */\n      0x80\n        /* \"#utility.yul\":7566:7575   */\n      dup4\n        /* \"#utility.yul\":7562:7581   */\n      add\n        /* \"#utility.yul\":7553:7559   */\n      dup5\n        /* \"#utility.yul\":7509:7582   */\n      tag_254\n      jump\t// in\n    tag_265:\n        /* \"#utility.yul\":6814:7589   */\n      swap7\n      swap6\n      pop\n      pop\n      pop\n      pop\n      pop\n      pop\n      jump\t// out\n        /* \"#utility.yul\":7595:8014   */\n    tag_83:\n        /* \"#utility.yul\":7761:7765   */\n      0x00\n        /* \"#utility.yul\":7799:7801   */\n      0x20\n        /* \"#utility.yul\":7788:7797   */\n      dup3\n        /* \"#utility.yul\":7784:7802   */\n      add\n        /* \"#utility.yul\":7776:7802   */\n      swap1\n      pop\n        /* \"#utility.yul\":7848:7857   */\n      dup2\n        /* \"#utility.yul\":7842:7846   */\n      dup2\n        /* \"#utility.yul\":7838:7858   */\n      sub\n        /* \"#utility.yul\":7834:7835   */\n      0x00\n        /* \"#utility.yul\":7823:7832   */\n      dup4\n        /* \"#utility.yul\":7819:7836   */\n      add\n        /* \"#utility.yul\":7812:7859   */\n      mstore\n        /* \"#utility.yul\":7876:8007   */\n      tag_267\n        /* \"#utility.yul\":8002:8006   */\n      dup2\n        /* \"#utility.yul\":7876:8007   */\n      tag_214\n      jump\t// in\n    tag_267:\n        /* \"#utility.yul\":7868:8007   */\n      swap1\n      pop\n        /* \"#utility.yul\":7595:8014   */\n      swap2\n      swap1\n      pop\n      jump\t// out\n        /* \"#utility.yul\":8020:8439   */\n    tag_117:\n        /* \"#utility.yul\":8186:8190   */\n      0x00\n        /* \"#utility.yul\":8224:8226   */\n      0x20\n        /* \"#utility.yul\":8213:8222   */\n      dup3\n        /* \"#utility.yul\":8209:8227   */\n      add\n        /* \"#utility.yul\":8201:8227   */\n      swap1\n      pop\n        /* \"#utility.yul\":8273:8282   */\n      dup2\n        /* \"#utility.yul\":8267:8271   */\n      dup2\n        /* \"#utility.yul\":8263:8283   */\n      sub\n        /* \"#utility.yul\":8259:8260   */\n      0x00\n        /* \"#utility.yul\":8248:8257   */\n      dup4\n        /* \"#utility.yul\":8244:8261   */\n      add\n        /* \"#utility.yul\":8237:8284   */\n      mstore\n        /* \"#utility.yul\":8301:8432   */\n      tag_269\n        /* \"#utility.yul\":8427:8431   */\n      dup2\n        /* \"#utility.yul\":8301:8432   */\n      tag_219\n      jump\t// in\n    tag_269:\n        /* \"#utility.yul\":8293:8432   */\n      swap1\n      pop\n        /* \"#utility.yul\":8020:8439   */\n      swap2\n      swap1\n      pop\n      jump\t// out\n        /* \"#utility.yul\":8445:8864   */\n    tag_108:\n        /* \"#utility.yul\":8611:8615   */\n      0x00\n        /* \"#utility.yul\":8649:8651   */\n      0x20\n        /* \"#utility.yul\":8638:8647   */\n      dup3\n        /* \"#utility.yul\":8634:8652   */\n      add\n        /* \"#utility.yul\":8626:8652   */\n      swap1\n      pop\n        /* \"#utility.yul\":8698:8707   */\n      dup2\n        /* \"#utility.yul\":8692:8696   */\n      dup2\n        /* \"#utility.yul\":8688:8708   */\n      sub\n        /* \"#utility.yul\":8684:8685   */\n      0x00\n        /* \"#utility.yul\":8673:8682   */\n      dup4\n        /* \"#utility.yul\":8669:8686   */\n      add\n        /* \"#utility.yul\":8662:8709   */\n      mstore\n        /* \"#utility.yul\":8726:8857   */\n      tag_271\n        /* \"#utility.yul\":8852:8856   */\n      dup2\n        /* \"#utility.yul\":8726:8857   */\n      tag_224\n      jump\t// in\n    tag_271:\n        /* \"#utility.yul\":8718:8857   */\n      swap1\n      pop\n        /* \"#utility.yul\":8445:8864   */\n      swap2\n      swap1\n      pop\n      jump\t// out\n        /* \"#utility.yul\":8870:9289   */\n    tag_120:\n        /* \"#utility.yul\":9036:9040   */\n      0x00\n        /* \"#utility.yul\":9074:9076   */\n      0x20\n        /* \"#utility.yul\":9063:9072   */\n      dup3\n        /* \"#utility.yul\":9059:9077   */\n      add\n        /* \"#utility.yul\":9051:9077   */\n      swap1\n      pop\n        /* \"#utility.yul\":9123:9132   */\n      dup2\n        /* \"#utility.yul\":9117:9121   */\n      dup2\n        /* \"#utility.yul\":9113:9133   */\n      sub\n        /* \"#utility.yul\":9109:9110   */\n      0x00\n        /* \"#utility.yul\":9098:9107   */\n      dup4\n        /* \"#utility.yul\":9094:9111   */\n      add\n        /* \"#utility.yul\":9087:9134   */\n      mstore\n        /* \"#utility.yul\":9151:9282   */\n      tag_273\n        /* \"#utility.yul\":9277:9281   */\n      dup2\n        /* \"#utility.yul\":9151:9282   */\n      tag_229\n      jump\t// in\n    tag_273:\n        /* \"#utility.yul\":9143:9282   */\n      swap1\n      pop\n        /* \"#utility.yul\":8870:9289   */\n      swap2\n      swap1\n      pop\n      jump\t// out\n        /* \"#utility.yul\":9295:9714   */\n    tag_86:\n        /* \"#utility.yul\":9461:9465   */\n      0x00\n        /* \"#utility.yul\":9499:9501   */\n      0x20\n        /* \"#utility.yul\":9488:9497   */\n      dup3\n        /* \"#utility.yul\":9484:9502   */\n      add\n        /* \"#utility.yul\":9476:9502   */\n      swap1\n      pop\n        /* \"#utility.yul\":9548:9557   */\n      dup2\n        /* \"#utility.yul\":9542:9546   */\n      dup2\n        /* \"#utility.yul\":9538:9558   */\n      sub\n        /* \"#utility.yul\":9534:9535   */\n      0x00\n        /* \"#utility.yul\":9523:9532   */\n      dup4\n        /* \"#utility.yul\":9519:9536   */\n      add\n        /* \"#utility.yul\":9512:9559   */\n      mstore\n        /* \"#utility.yul\":9576:9707   */\n      tag_275\n        /* \"#utility.yul\":9702:9706   */\n      dup2\n        /* \"#utility.yul\":9576:9707   */\n      tag_234\n      jump\t// in\n    tag_275:\n        /* \"#utility.yul\":9568:9707   */\n      swap1\n      pop\n        /* \"#utility.yul\":9295:9714   */\n      swap2\n      swap1\n      pop\n      jump\t// out\n        /* \"#utility.yul\":9720:10139   */\n    tag_104:\n        /* \"#utility.yul\":9886:9890   */\n      0x00\n        /* \"#utility.yul\":9924:9926   */\n      0x20\n        /* \"#utility.yul\":9913:9922   */\n      dup3\n        /* \"#utility.yul\":9909:9927   */\n      add\n        /* \"#utility.yul\":9901:9927   */\n      swap1\n      pop\n        /* \"#utility.yul\":9973:9982   */\n      dup2\n        /* \"#utility.yul\":9967:9971   */\n      dup2\n        /* \"#utility.yul\":9963:9983   */\n      sub\n        /* \"#utility.yul\":9959:9960   */\n      0x00\n        /* \"#utility.yul\":9948:9957   */\n      dup4\n        /* \"#utility.yul\":9944:9961   */\n      add\n        /* \"#utility.yul\":9937:9984   */\n      mstore\n        /* \"#utility.yul\":10001:10132   */\n      tag_277\n        /* \"#utility.yul\":10127:10131   */\n      dup2\n        /* \"#utility.yul\":10001:10132   */\n      tag_239\n      jump\t// in\n    tag_277:\n        /* \"#utility.yul\":9993:10132   */\n      swap1\n      pop\n        /* \"#utility.yul\":9720:10139   */\n      swap2\n      swap1\n      pop\n      jump\t// out\n        /* \"#utility.yul\":10145:10564   */\n    tag_96:\n        /* \"#utility.yul\":10311:10315   */\n      0x00\n        /* \"#utility.yul\":10349:10351   */\n      0x20\n        /* \"#utility.yul\":10338:10347   */\n      dup3\n        /* \"#utility.yul\":10334:10352   */\n      add\n        /* \"#utility.yul\":10326:10352   */\n      swap1\n      pop\n        /* \"#utility.yul\":10398:10407   */\n      dup2\n        /* \"#utility.yul\":10392:10396   */\n      dup2\n        /* \"#utility.yul\":10388:10408   */\n      sub\n        /* \"#utility.yul\":10384:10385   */\n      0x00\n        /* \"#utility.yul\":10373:10382   */\n      dup4\n        /* \"#utility.yul\":10369:10386   */\n      add\n        /* \"#utility.yul\":10362:10409   */\n      mstore\n        /* \"#utility.yul\":10426:10557   */\n      tag_279\n        /* \"#utility.yul\":10552:10556   */\n      dup2\n        /* \"#utility.yul\":10426:10557   */\n      tag_244\n      jump\t// in\n    tag_279:\n        /* \"#utility.yul\":10418:10557   */\n      swap1\n      pop\n        /* \"#utility.yul\":10145:10564   */\n      swap2\n      swap1\n      pop\n      jump\t// out\n        /* \"#utility.yul\":10570:10989   */\n    tag_111:\n        /* \"#utility.yul\":10736:10740   */\n      0x00\n        /* \"#utility.yul\":10774:10776   */\n      0x20\n        /* \"#utility.yul\":10763:10772   */\n      dup3\n        /* \"#utility.yul\":10759:10777   */\n      add\n        /* \"#utility.yul\":10751:10777   */\n      swap1\n      pop\n        /* \"#utility.yul\":10823:10832   */\n      dup2\n        /* \"#utility.yul\":10817:10821   */\n      dup2\n        /* \"#utility.yul\":10813:10833   */\n      sub\n        /* \"#utility.yul\":10809:10810   */\n      0x00\n        /* \"#utility.yul\":10798:10807   */\n      dup4\n        /* \"#utility.yul\":10794:10811   */\n      add\n        /* \"#utility.yul\":10787:10834   */\n      mstore\n        /* \"#utility.yul\":10851:10982   */\n      tag_281\n        /* \"#utility.yul\":10977:10981   */\n      dup2\n        /* \"#utility.yul\":10851:10982   */\n      tag_249\n      jump\t// in\n    tag_281:\n        /* \"#utility.yul\":10843:10982   */\n      swap1\n      pop\n        /* \"#utility.yul\":10570:10989   */\n      swap2\n      swap1\n      pop\n      jump\t// out\n        /* \"#utility.yul\":10995:11217   */\n    tag_32:\n        /* \"#utility.yul\":11088:11092   */\n      0x00\n        /* \"#utility.yul\":11126:11128   */\n      0x20\n        /* \"#utility.yul\":11115:11124   */\n      dup3\n        /* \"#utility.yul\":11111:11129   */\n      add\n        /* \"#utility.yul\":11103:11129   */\n      swap1\n      pop\n        /* \"#utility.yul\":11139:11210   */\n      tag_283\n        /* \"#utility.yul\":11207:11208   */\n      0x00\n        /* \"#utility.yul\":11196:11205   */\n      dup4\n        /* \"#utility.yul\":11192:11209   */\n      add\n        /* \"#utility.yul\":11183:11189   */\n      dup5\n        /* \"#utility.yul\":11139:11210   */\n      tag_254\n      jump\t// in\n    tag_283:\n        /* \"#utility.yul\":10995:11217   */\n      swap3\n      swap2\n      pop\n      pop\n      jump\t// out\n        /* \"#utility.yul\":11223:11352   */\n    tag_150:\n        /* \"#utility.yul\":11257:11263   */\n      0x00\n        /* \"#utility.yul\":11284:11304   */\n      tag_285\n      tag_286\n      jump\t// in\n    tag_285:\n        /* \"#utility.yul\":11274:11304   */\n      swap1\n      pop\n        /* \"#utility.yul\":11313:11346   */\n      tag_287\n        /* \"#utility.yul\":11341:11345   */\n      dup3\n        /* \"#utility.yul\":11333:11339   */\n      dup3\n        /* \"#utility.yul\":11313:11346   */\n      tag_288\n      jump\t// in\n    tag_287:\n        /* \"#utility.yul\":11223:11352   */\n      swap2\n      swap1\n      pop\n      jump\t// out\n        /* \"#utility.yul\":11358:11433   */\n    tag_286:\n        /* \"#utility.yul\":11391:11397   */\n      0x00\n        /* \"#utility.yul\":11424:11426   */\n      0x40\n        /* \"#utility.yul\":11418:11427   */\n      mload\n        /* \"#utility.yul\":11408:11427   */\n      swap1\n      pop\n        /* \"#utility.yul\":11358:11433   */\n      swap1\n      jump\t// out\n        /* \"#utility.yul\":11439:11747   */\n    tag_149:\n        /* \"#utility.yul\":11501:11505   */\n      0x00\n        /* \"#utility.yul\":11591:11609   */\n      0xffffffffffffffff\n        /* \"#utility.yul\":11583:11589   */\n      dup3\n        /* \"#utility.yul\":11580:11610   */\n      gt\n        /* \"#utility.yul\":11577:11633   */\n      iszero\n      tag_291\n      jumpi\n        /* \"#utility.yul\":11613:11631   */\n      tag_292\n      tag_293\n      jump\t// in\n    tag_292:\n        /* \"#utility.yul\":11577:11633   */\n    tag_291:\n        /* \"#utility.yul\":11651:11680   */\n      tag_294\n        /* \"#utility.yul\":11673:11679   */\n      dup3\n        /* \"#utility.yul\":11651:11680   */\n      tag_213\n      jump\t// in\n    tag_294:\n        /* \"#utility.yul\":11643:11680   */\n      swap1\n      pop\n        /* \"#utility.yul\":11735:11739   */\n      0x20\n        /* \"#utility.yul\":11729:11733   */\n      dup2\n        /* \"#utility.yul\":11725:11740   */\n      add\n        /* \"#utility.yul\":11717:11740   */\n      swap1\n      pop\n        /* \"#utility.yul\":11439:11747   */\n      swap2\n      swap1\n      pop\n      jump\t// out\n        /* \"#utility.yul\":11753:11852   */\n    tag_207:\n        /* \"#utility.yul\":11805:11811   */\n      0x00\n        /* \"#utility.yul\":11839:11844   */\n      dup2\n        /* \"#utility.yul\":11833:11845   */\n      mload\n        /* \"#utility.yul\":11823:11845   */\n      swap1\n      pop\n        /* \"#utility.yul\":11753:11852   */\n      swap2\n      swap1\n      pop\n      jump\t// out\n        /* \"#utility.yul\":11858:12027   */\n    tag_209:\n        /* \"#utility.yul\":11942:11953   */\n      0x00\n        /* \"#utility.yul\":11976:11982   */\n      dup3\n        /* \"#utility.yul\":11971:11974   */\n      dup3\n        /* \"#utility.yul\":11964:11983   */\n      mstore\n        /* \"#utility.yul\":12016:12020   */\n      0x20\n        /* \"#utility.yul\":12011:12014   */\n      dup3\n        /* \"#utility.yul\":12007:12021   */\n      add\n        /* \"#utility.yul\":11992:12021   */\n      swap1\n      pop\n        /* \"#utility.yul\":11858:12027   */\n      swap3\n      swap2\n      pop\n      pop\n      jump\t// out\n        /* \"#utility.yul\":12033:12338   */\n    tag_91:\n        /* \"#utility.yul\":12073:12076   */\n      0x00\n        /* \"#utility.yul\":12092:12112   */\n      tag_298\n        /* \"#utility.yul\":12110:12111   */\n      dup3\n        /* \"#utility.yul\":12092:12112   */\n      tag_257\n      jump\t// in\n    tag_298:\n        /* \"#utility.yul\":12087:12112   */\n      swap2\n      pop\n        /* \"#utility.yul\":12126:12146   */\n      tag_299\n        /* \"#utility.yul\":12144:12145   */\n      dup4\n        /* \"#utility.yul\":12126:12146   */\n      tag_257\n      jump\t// in\n    tag_299:\n        /* \"#utility.yul\":12121:12146   */\n      swap3\n      pop\n        /* \"#utility.yul\":12280:12281   */\n      dup3\n        /* \"#utility.yul\":12212:12278   */\n      0xffffffffffffffffffffffffffffffffffffffffffffffffffffffffffffffff\n        /* \"#utility.yul\":12208:12282   */\n      sub\n        /* \"#utility.yul\":12205:12206   */\n      dup3\n        /* \"#utility.yul\":12202:12283   */\n      gt\n        /* \"#utility.yul\":12199:12306   */\n      iszero\n      tag_300\n      jumpi\n        /* \"#utility.yul\":12286:12304   */\n      tag_301\n      tag_302\n      jump\t// in\n    tag_301:\n        /* \"#utility.yul\":12199:12306   */\n    tag_300:\n        /* \"#utility.yul\":12330:12331   */\n      dup3\n        /* \"#utility.yul\":12327:12328   */\n      dup3\n        /* \"#utility.yul\":12323:12332   */\n      add\n        /* \"#utility.yul\":12316:12332   */\n      swap1\n      pop\n        /* \"#utility.yul\":12033:12338   */\n      swap3\n      swap2\n      pop\n      pop\n      jump\t// out\n        /* \"#utility.yul\":12344:12535   */\n    tag_124:\n        /* \"#utility.yul\":12384:12388   */\n      0x00\n        /* \"#utility.yul\":12404:12424   */\n      tag_304\n        /* \"#utility.yul\":12422:12423   */\n      dup3\n        /* \"#utility.yul\":12404:12424   */\n      tag_257\n      jump\t// in\n    tag_304:\n        /* \"#utility.yul\":12399:12424   */\n      swap2\n      pop\n        /* \"#utility.yul\":12438:12458   */\n      tag_305\n        /* \"#utility.yul\":12456:12457   */\n      dup4\n        /* \"#utility.yul\":12438:12458   */\n      tag_257\n      jump\t// in\n    tag_305:\n        /* \"#utility.yul\":12433:12458   */\n      swap3\n      pop\n        /* \"#utility.yul\":12477:12478   */\n      dup3\n        /* \"#utility.yul\":12474:12475   */\n      dup3\n        /* \"#utility.yul\":12471:12479   */\n      lt\n        /* \"#utility.yul\":12468:12502   */\n      iszero\n      tag_306\n      jumpi\n        /* \"#utility.yul\":12482:12500   */\n      tag_307\n      tag_302\n      jump\t// in\n    tag_307:\n        /* \"#utility.yul\":12468:12502   */\n    tag_306:\n        /* \"#utility.yul\":12527:12528   */\n      dup3\n        /* \"#utility.yul\":12524:12525   */\n      dup3\n        /* \"#utility.yul\":12520:12529   */\n      sub\n        /* \"#utility.yul\":12512:12529   */\n      swap1\n      pop\n        /* \"#utility.yul\":12344:12535   */\n      swap3\n      swap2\n      pop\n      pop\n      jump\t// out\n        /* \"#utility.yul\":12541:12637   */\n    tag_199:\n        /* \"#utility.yul\":12578:12585   */\n      0x00\n        /* \"#utility.yul\":12607:12631   */\n      tag_309\n        /* \"#utility.yul\":12625:12630   */\n      dup3\n        /* \"#utility.yul\":12607:12631   */\n      tag_310\n      jump\t// in\n    tag_309:\n        /* \"#utility.yul\":12596:12631   */\n      swap1\n      pop\n        /* \"#utility.yul\":12541:12637   */\n      swap2\n      swap1\n      pop\n      jump\t// out\n        /* \"#utility.yul\":12643:12747   */\n    tag_195:\n        /* \"#utility.yul\":12688:12695   */\n      0x00\n        /* \"#utility.yul\":12717:12741   */\n      tag_312\n        /* \"#utility.yul\":12735:12740   */\n      dup3\n        /* \"#utility.yul\":12717:12741   */\n      tag_310\n      jump\t// in\n    tag_312:\n        /* \"#utility.yul\":12706:12741   */\n      swap1\n      pop\n        /* \"#utility.yul\":12643:12747   */\n      swap2\n      swap1\n      pop\n      jump\t// out\n        /* \"#utility.yul\":12753:12843   */\n    tag_203:\n        /* \"#utility.yul\":12787:12794   */\n      0x00\n        /* \"#utility.yul\":12830:12835   */\n      dup2\n        /* \"#utility.yul\":12823:12836   */\n      iszero\n        /* \"#utility.yul\":12816:12837   */\n      iszero\n        /* \"#utility.yul\":12805:12837   */\n      swap1\n      pop\n        /* \"#utility.yul\":12753:12843   */\n      swap2\n      swap1\n      pop\n      jump\t// out\n        /* \"#utility.yul\":12849:12975   */\n    tag_310:\n        /* \"#utility.yul\":12886:12893   */\n      0x00\n        /* \"#utility.yul\":12926:12968   */\n      0xffffffffffffffffffffffffffffffffffffffff\n        /* \"#utility.yul\":12919:12924   */\n      dup3\n        /* \"#utility.yul\":12915:12969   */\n      and\n        /* \"#utility.yul\":12904:12969   */\n      swap1\n      pop\n        /* \"#utility.yul\":12849:12975   */\n      swap2\n      swap1\n      pop\n      jump\t// out\n        /* \"#utility.yul\":12981:13058   */\n    tag_257:\n        /* \"#utility.yul\":13018:13025   */\n      0x00\n        /* \"#utility.yul\":13047:13052   */\n      dup2\n        /* \"#utility.yul\":13036:13052   */\n      swap1\n      pop\n        /* \"#utility.yul\":12981:13058   */\n      swap2\n      swap1\n      pop\n      jump\t// out\n        /* \"#utility.yul\":13064:13218   */\n    tag_155:\n        /* \"#utility.yul\":13148:13154   */\n      dup3\n        /* \"#utility.yul\":13143:13146   */\n      dup2\n        /* \"#utility.yul\":13138:13141   */\n      dup4\n        /* \"#utility.yul\":13125:13155   */\n      calldatacopy\n        /* \"#utility.yul\":13210:13211   */\n      0x00\n        /* \"#utility.yul\":13201:13207   */\n      dup4\n        /* \"#utility.yul\":13196:13199   */\n      dup4\n        /* \"#utility.yul\":13192:13208   */\n      add\n        /* \"#utility.yul\":13185:13212   */\n      mstore\n        /* \"#utility.yul\":13064:13218   */\n      pop\n      pop\n      pop\n      jump\t// out\n        /* \"#utility.yul\":13224:13531   */\n    tag_211:\n        /* \"#utility.yul\":13292:13293   */\n      0x00\n        /* \"#utility.yul\":13302:13415   */\n    tag_318:\n        /* \"#utility.yul\":13316:13322   */\n      dup4\n        /* \"#utility.yul\":13313:13314   */\n      dup2\n        /* \"#utility.yul\":13310:13323   */\n      lt\n        /* \"#utility.yul\":13302:13415   */\n      iszero\n      tag_320\n      jumpi\n        /* \"#utility.yul\":13401:13402   */\n      dup1\n        /* \"#utility.yul\":13396:13399   */\n      dup3\n        /* \"#utility.yul\":13392:13403   */\n      add\n        /* \"#utility.yul\":13386:13404   */\n      mload\n        /* \"#utility.yul\":13382:13383   */\n      dup2\n        /* \"#utility.yul\":13377:13380   */\n      dup5\n        /* \"#utility.yul\":13373:13384   */\n      add\n        /* \"#utility.yul\":13366:13405   */\n      mstore\n        /* \"#utility.yul\":13338:13340   */\n      0x20\n        /* \"#utility.yul\":13335:13336   */\n      dup2\n        /* \"#utility.yul\":13331:13341   */\n      add\n        /* \"#utility.yul\":13326:13341   */\n      swap1\n      pop\n        /* \"#utility.yul\":13302:13415   */\n      jump(tag_318)\n    tag_320:\n        /* \"#utility.yul\":13433:13439   */\n      dup4\n        /* \"#utility.yul\":13430:13431   */\n      dup2\n        /* \"#utility.yul\":13427:13440   */\n      gt\n        /* \"#utility.yul\":13424:13525   */\n      iszero\n      tag_321\n      jumpi\n        /* \"#utility.yul\":13513:13514   */\n      0x00\n        /* \"#utility.yul\":13504:13510   */\n      dup5\n        /* \"#utility.yul\":13499:13502   */\n      dup5\n        /* \"#utility.yul\":13495:13511   */\n      add\n        /* \"#utility.yul\":13488:13515   */\n      mstore\n        /* \"#utility.yul\":13424:13525   */\n    tag_321:\n        /* \"#utility.yul\":13273:13531   */\n      pop\n        /* \"#utility.yul\":13224:13531   */\n      pop\n      pop\n      pop\n      jump\t// out\n        /* \"#utility.yul\":13537:13708   */\n    tag_126:\n        /* \"#utility.yul\":13576:13579   */\n      0x00\n        /* \"#utility.yul\":13599:13623   */\n      tag_323\n        /* \"#utility.yul\":13617:13622   */\n      dup3\n        /* \"#utility.yul\":13599:13623   */\n      tag_257\n      jump\t// in\n    tag_323:\n        /* \"#utility.yul\":13590:13623   */\n      swap2\n      pop\n        /* \"#utility.yul\":13645:13649   */\n      0x00\n        /* \"#utility.yul\":13638:13643   */\n      dup3\n        /* \"#utility.yul\":13635:13650   */\n      eq\n        /* \"#utility.yul\":13632:13673   */\n      iszero\n      tag_324\n      jumpi\n        /* \"#utility.yul\":13653:13671   */\n      tag_325\n      tag_302\n      jump\t// in\n    tag_325:\n        /* \"#utility.yul\":13632:13673   */\n    tag_324:\n        /* \"#utility.yul\":13700:13701   */\n      0x01\n        /* \"#utility.yul\":13693:13698   */\n      dup3\n        /* \"#utility.yul\":13689:13702   */\n      sub\n        /* \"#utility.yul\":13682:13702   */\n      swap1\n      pop\n        /* \"#utility.yul\":13537:13708   */\n      swap2\n      swap1\n      pop\n      jump\t// out\n        /* \"#utility.yul\":13714:14034   */\n    tag_129:\n        /* \"#utility.yul\":13758:13764   */\n      0x00\n        /* \"#utility.yul\":13795:13796   */\n      0x02\n        /* \"#utility.yul\":13789:13793   */\n      dup3\n        /* \"#utility.yul\":13785:13797   */\n      div\n        /* \"#utility.yul\":13775:13797   */\n      swap1\n      pop\n        /* \"#utility.yul\":13842:13843   */\n      0x01\n        /* \"#utility.yul\":13836:13840   */\n      dup3\n        /* \"#utility.yul\":13832:13844   */\n      and\n        /* \"#utility.yul\":13863:13881   */\n      dup1\n        /* \"#utility.yul\":13853:13934   */\n      tag_327\n      jumpi\n        /* \"#utility.yul\":13919:13923   */\n      0x7f\n        /* \"#utility.yul\":13911:13917   */\n      dup3\n        /* \"#utility.yul\":13907:13924   */\n      and\n        /* \"#utility.yul\":13897:13924   */\n      swap2\n      pop\n        /* \"#utility.yul\":13853:13934   */\n    tag_327:\n        /* \"#utility.yul\":13981:13983   */\n      0x20\n        /* \"#utility.yul\":13973:13979   */\n      dup3\n        /* \"#utility.yul\":13970:13984   */\n      lt\n        /* \"#utility.yul\":13950:13968   */\n      dup2\n        /* \"#utility.yul\":13947:13985   */\n      eq\n        /* \"#utility.yul\":13944:14028   */\n      iszero\n      tag_328\n      jumpi\n        /* \"#utility.yul\":14000:14018   */\n      tag_329\n      tag_330\n      jump\t// in\n    tag_329:\n        /* \"#utility.yul\":13944:14028   */\n    tag_328:\n        /* \"#utility.yul\":13765:14034   */\n      pop\n        /* \"#utility.yul\":13714:14034   */\n      swap2\n      swap1\n      pop\n      jump\t// out\n        /* \"#utility.yul\":14040:14321   */\n    tag_288:\n        /* \"#utility.yul\":14123:14150   */\n      tag_332\n        /* \"#utility.yul\":14145:14149   */\n      dup3\n        /* \"#utility.yul\":14123:14150   */\n      tag_213\n      jump\t// in\n    tag_332:\n        /* \"#utility.yul\":14115:14121   */\n      dup2\n        /* \"#utility.yul\":14111:14151   */\n      add\n        /* \"#utility.yul\":14253:14259   */\n      dup2\n        /* \"#utility.yul\":14241:14251   */\n      dup2\n        /* \"#utility.yul\":14238:14260   */\n      lt\n        /* \"#utility.yul\":14217:14235   */\n      0xffffffffffffffff\n        /* \"#utility.yul\":14205:14215   */\n      dup3\n        /* \"#utility.yul\":14202:14236   */\n      gt\n        /* \"#utility.yul\":14199:14261   */\n      or\n        /* \"#utility.yul\":14196:14284   */\n      iszero\n      tag_333\n      jumpi\n        /* \"#utility.yul\":14264:14282   */\n      tag_334\n      tag_293\n      jump\t// in\n    tag_334:\n        /* \"#utility.yul\":14196:14284   */\n    tag_333:\n        /* \"#utility.yul\":14304:14314   */\n      dup1\n        /* \"#utility.yul\":14300:14302   */\n      0x40\n        /* \"#utility.yul\":14293:14315   */\n      mstore\n        /* \"#utility.yul\":14083:14321   */\n      pop\n        /* \"#utility.yul\":14040:14321   */\n      pop\n      pop\n      jump\t// out\n        /* \"#utility.yul\":14327:14560   */\n    tag_89:\n        /* \"#utility.yul\":14366:14369   */\n      0x00\n        /* \"#utility.yul\":14389:14413   */\n      tag_336\n        /* \"#utility.yul\":14407:14412   */\n      dup3\n        /* \"#utility.yul\":14389:14413   */\n      tag_257\n      jump\t// in\n    tag_336:\n        /* \"#utility.yul\":14380:14413   */\n      swap2\n      pop\n        /* \"#utility.yul\":14435:14501   */\n      0xffffffffffffffffffffffffffffffffffffffffffffffffffffffffffffffff\n        /* \"#utility.yul\":14428:14433   */\n      dup3\n        /* \"#utility.yul\":14425:14502   */\n      eq\n        /* \"#utility.yul\":14422:14525   */\n      iszero\n      tag_337\n      jumpi\n        /* \"#utility.yul\":14505:14523   */\n      tag_338\n      tag_302\n      jump\t// in\n    tag_338:\n        /* \"#utility.yul\":14422:14525   */\n    tag_337:\n        /* \"#utility.yul\":14552:14553   */\n      0x01\n        /* \"#utility.yul\":14545:14550   */\n      dup3\n        /* \"#utility.yul\":14541:14554   */\n      add\n        /* \"#utility.yul\":14534:14554   */\n      swap1\n      pop\n        /* \"#utility.yul\":14327:14560   */\n      swap2\n      swap1\n      pop\n      jump\t// out\n        /* \"#utility.yul\":14566:14746   */\n    tag_302:\n        /* \"#utility.yul\":14614:14691   */\n      0x4e487b7100000000000000000000000000000000000000000000000000000000\n        /* \"#utility.yul\":14611:14612   */\n      0x00\n        /* \"#utility.yul\":14604:14692   */\n      mstore\n        /* \"#utility.yul\":14711:14715   */\n      0x11\n        /* \"#utility.yul\":14708:14709   */\n      0x04\n        /* \"#utility.yul\":14701:14716   */\n      mstore\n        /* \"#utility.yul\":14735:14739   */\n      0x24\n        /* \"#utility.yul\":14732:14733   */\n      0x00\n        /* \"#utility.yul\":14725:14740   */\n      revert\n        /* \"#utility.yul\":14752:14932   */\n    tag_330:\n        /* \"#utility.yul\":14800:14877   */\n      0x4e487b7100000000000000000000000000000000000000000000000000000000\n        /* \"#utility.yul\":14797:14798   */\n      0x00\n        /* \"#utility.yul\":14790:14878   */\n      mstore\n        /* \"#utility.yul\":14897:14901   */\n      0x22\n        /* \"#utility.yul\":14894:14895   */\n      0x04\n        /* \"#utility.yul\":14887:14902   */\n      mstore\n        /* \"#utility.yul\":14921:14925   */\n      0x24\n        /* \"#utility.yul\":14918:14919   */\n      0x00\n        /* \"#utility.yul\":14911:14926   */\n      revert\n        /* \"#utility.yul\":14938:15118   */\n    tag_293:\n        /* \"#utility.yul\":14986:15063   */\n      0x4e487b7100000000000000000000000000000000000000000000000000000000\n        /* \"#utility.yul\":14983:14984   */\n      0x00\n        /* \"#utility.yul\":14976:15064   */\n      mstore\n        /* \"#utility.yul\":15083:15087   */\n      0x41\n        /* \"#utility.yul\":15080:15081   */\n      0x04\n        /* \"#utility.yul\":15073:15088   */\n      mstore\n        /* \"#utility.yul\":15107:15111   */\n      0x24\n        /* \"#utility.yul\":15104:15105   */\n      0x00\n        /* \"#utility.yul\":15097:15112   */\n      revert\n        /* \"#utility.yul\":15124:15241   */\n    tag_168:\n        /* \"#utility.yul\":15233:15234   */\n      0x00\n        /* \"#utility.yul\":15230:15231   */\n      dup1\n        /* \"#utility.yul\":15223:15235   */\n      revert\n        /* \"#utility.yul\":15247:15364   */\n    tag_153:\n        /* \"#utility.yul\":15356:15357   */\n      0x00\n        /* \"#utility.yul\":15353:15354   */\n      dup1\n        /* \"#utility.yul\":15346:15358   */\n      revert\n        /* \"#utility.yul\":15370:15487   */\n    tag_184:\n        /* \"#utility.yul\":15479:15480   */\n      0x00\n        /* \"#utility.yul\":15476:15477   */\n      dup1\n        /* \"#utility.yul\":15469:15481   */\n      revert\n        /* \"#utility.yul\":15493:15610   */\n    tag_177:\n        /* \"#utility.yul\":15602:15603   */\n      0x00\n        /* \"#utility.yul\":15599:15600   */\n      dup1\n        /* \"#utility.yul\":15592:15604   */\n      revert\n        /* \"#utility.yul\":15616:15718   */\n    tag_213:\n        /* \"#utility.yul\":15657:15663   */\n      0x00\n        /* \"#utility.yul\":15708:15710   */\n      0x1f\n        /* \"#utility.yul\":15704:15711   */\n      not\n        /* \"#utility.yul\":15699:15701   */\n      0x1f\n        /* \"#utility.yul\":15692:15697   */\n      dup4\n        /* \"#utility.yul\":15688:15702   */\n      add\n        /* \"#utility.yul\":15684:15712   */\n      and\n        /* \"#utility.yul\":15674:15712   */\n      swap1\n      pop\n        /* \"#utility.yul\":15616:15718   */\n      swap2\n      swap1\n      pop\n      jump\t// out\n        /* \"#utility.yul\":15724:15947   */\n    tag_218:\n        /* \"#utility.yul\":15864:15898   */\n      0x536f727279212120446561646c696e652068617320616c726561647920706173\n        /* \"#utility.yul\":15860:15861   */\n      0x00\n        /* \"#utility.yul\":15852:15858   */\n      dup3\n        /* \"#utility.yul\":15848:15862   */\n      add\n        /* \"#utility.yul\":15841:15899   */\n      mstore\n        /* \"#utility.yul\":15933:15939   */\n      0x7365642e00000000000000000000000000000000000000000000000000000000\n        /* \"#utility.yul\":15928:15930   */\n      0x20\n        /* \"#utility.yul\":15920:15926   */\n      dup3\n        /* \"#utility.yul\":15916:15931   */\n      add\n        /* \"#utility.yul\":15909:15940   */\n      mstore\n        /* \"#utility.yul\":15724:15947   */\n      pop\n      jump\t// out\n        /* \"#utility.yul\":15953:16387   */\n    tag_223:\n        /* \"#utility.yul\":16093:16127   */\n      0x536f7272792c20726566756e6420686173206e6f742073746172746564207965\n        /* \"#utility.yul\":16089:16090   */\n      0x00\n        /* \"#utility.yul\":16081:16087   */\n      dup3\n        /* \"#utility.yul\":16077:16091   */\n      add\n        /* \"#utility.yul\":16070:16128   */\n      mstore\n        /* \"#utility.yul\":16162:16196   */\n      0x7420666f7220616e796f6e652062656361757365206569746865722064656164\n        /* \"#utility.yul\":16157:16159   */\n      0x20\n        /* \"#utility.yul\":16149:16155   */\n      dup3\n        /* \"#utility.yul\":16145:16160   */\n      add\n        /* \"#utility.yul\":16138:16197   */\n      mstore\n        /* \"#utility.yul\":16231:16265   */\n      0x6c696e6520686173206e6f742063726f7373206f722074686520726169736564\n        /* \"#utility.yul\":16226:16228   */\n      0x40\n        /* \"#utility.yul\":16218:16224   */\n      dup3\n        /* \"#utility.yul\":16214:16229   */\n      add\n        /* \"#utility.yul\":16207:16266   */\n      mstore\n        /* \"#utility.yul\":16300:16334   */\n      0x20616d6f756e7420697320657175616c206f72206d6f7265207468616e207461\n        /* \"#utility.yul\":16295:16297   */\n      0x60\n        /* \"#utility.yul\":16287:16293   */\n      dup3\n        /* \"#utility.yul\":16283:16298   */\n      add\n        /* \"#utility.yul\":16276:16335   */\n      mstore\n        /* \"#utility.yul\":16370:16379   */\n      0x7267657420616d00000000000000000000000000000000000000000000000000\n        /* \"#utility.yul\":16364:16367   */\n      0x80\n        /* \"#utility.yul\":16356:16362   */\n      dup3\n        /* \"#utility.yul\":16352:16368   */\n      add\n        /* \"#utility.yul\":16345:16380   */\n      mstore\n        /* \"#utility.yul\":15953:16387   */\n      pop\n      jump\t// out\n        /* \"#utility.yul\":16393:16566   */\n    tag_228:\n        /* \"#utility.yul\":16533:16558   */\n      0x496e76616c69642072657175657374206e756d6265722e000000000000000000\n        /* \"#utility.yul\":16529:16530   */\n      0x00\n        /* \"#utility.yul\":16521:16527   */\n      dup3\n        /* \"#utility.yul\":16517:16531   */\n      add\n        /* \"#utility.yul\":16510:16559   */\n      mstore\n        /* \"#utility.yul\":16393:16566   */\n      pop\n      jump\t// out\n        /* \"#utility.yul\":16572:16746   */\n    tag_233:\n        /* \"#utility.yul\":16712:16738   */\n      0x596f7520686176656e277420636f6e74726962757465642e0000000000000000\n        /* \"#utility.yul\":16708:16709   */\n      0x00\n        /* \"#utility.yul\":16700:16706   */\n      dup3\n        /* \"#utility.yul\":16696:16710   */\n      add\n        /* \"#utility.yul\":16689:16739   */\n      mstore\n        /* \"#utility.yul\":16572:16746   */\n      pop\n      jump\t// out\n        /* \"#utility.yul\":16752:16979   */\n    tag_238:\n        /* \"#utility.yul\":16892:16926   */\n      0x536f727279212120796f75206861766520746f20706179206d696e696d756d20\n        /* \"#utility.yul\":16888:16889   */\n      0x00\n        /* \"#utility.yul\":16880:16886   */\n      dup3\n        /* \"#utility.yul\":16876:16890   */\n      add\n        /* \"#utility.yul\":16869:16927   */\n      mstore\n        /* \"#utility.yul\":16961:16971   */\n      0x313030207765692e000000000000000000000000000000000000000000000000\n        /* \"#utility.yul\":16956:16958   */\n      0x20\n        /* \"#utility.yul\":16948:16954   */\n      dup3\n        /* \"#utility.yul\":16944:16959   */\n      add\n        /* \"#utility.yul\":16937:16972   */\n      mstore\n        /* \"#utility.yul\":16752:16979   */\n      pop\n      jump\t// out\n        /* \"#utility.yul\":16985:17276   */\n    tag_243:\n        /* \"#utility.yul\":17125:17159   */\n      0x536f727279212120596f75206861766520746f20636f6e747269627574652066\n        /* \"#utility.yul\":17121:17122   */\n      0x00\n        /* \"#utility.yul\":17113:17119   */\n      dup3\n        /* \"#utility.yul\":17109:17123   */\n      add\n        /* \"#utility.yul\":17102:17160   */\n      mstore\n        /* \"#utility.yul\":17194:17228   */\n      0x6972737420696e206f7264657220746f20656c696769626c6520666f7220766f\n        /* \"#utility.yul\":17189:17191   */\n      0x20\n        /* \"#utility.yul\":17181:17187   */\n      dup3\n        /* \"#utility.yul\":17177:17192   */\n      add\n        /* \"#utility.yul\":17170:17229   */\n      mstore\n        /* \"#utility.yul\":17263:17268   */\n      0x74652e0000000000000000000000000000000000000000000000000000000000\n        /* \"#utility.yul\":17258:17260   */\n      0x40\n        /* \"#utility.yul\":17250:17256   */\n      dup3\n        /* \"#utility.yul\":17246:17261   */\n      add\n        /* \"#utility.yul\":17239:17269   */\n      mstore\n        /* \"#utility.yul\":16985:17276   */\n      pop\n      jump\t// out\n        /* \"#utility.yul\":17282:17504   */\n    tag_248:\n        /* \"#utility.yul\":17422:17456   */\n      0x4f6e6c79206d616e616765722063616e2063616c6c2074686973206665617475\n        /* \"#utility.yul\":17418:17419   */\n      0x00\n        /* \"#utility.yul\":17410:17416   */\n      dup3\n        /* \"#utility.yul\":17406:17420   */\n      add\n        /* \"#utility.yul\":17399:17457   */\n      mstore\n        /* \"#utility.yul\":17491:17496   */\n      0x72652e0000000000000000000000000000000000000000000000000000000000\n        /* \"#utility.yul\":17486:17488   */\n      0x20\n        /* \"#utility.yul\":17478:17484   */\n      dup3\n        /* \"#utility.yul\":17474:17489   */\n      add\n        /* \"#utility.yul\":17467:17497   */\n      mstore\n        /* \"#utility.yul\":17282:17504   */\n      pop\n      jump\t// out\n        /* \"#utility.yul\":17510:17820   */\n    tag_253:\n        /* \"#utility.yul\":17650:17684   */\n      0x4f707073212120796f7520616c72656164792070757420796f757220766f7465\n        /* \"#utility.yul\":17646:17647   */\n      0x00\n        /* \"#utility.yul\":17638:17644   */\n      dup3\n        /* \"#utility.yul\":17634:17648   */\n      add\n        /* \"#utility.yul\":17627:17685   */\n      mstore\n        /* \"#utility.yul\":17719:17753   */\n      0x20666f72207468697320726571756573742e20596f752063616e206f6e6c7920\n        /* \"#utility.yul\":17714:17716   */\n      0x20\n        /* \"#utility.yul\":17706:17712   */\n      dup3\n        /* \"#utility.yul\":17702:17717   */\n      add\n        /* \"#utility.yul\":17695:17754   */\n      mstore\n        /* \"#utility.yul\":17788:17812   */\n      0x766f7465206f6e63652070657220726571756573742e00000000000000000000\n        /* \"#utility.yul\":17783:17785   */\n      0x40\n        /* \"#utility.yul\":17775:17781   */\n      dup3\n        /* \"#utility.yul\":17771:17786   */\n      add\n        /* \"#utility.yul\":17764:17813   */\n      mstore\n        /* \"#utility.yul\":17510:17820   */\n      pop\n      jump\t// out\n        /* \"#utility.yul\":17826:17948   */\n    tag_159:\n        /* \"#utility.yul\":17899:17923   */\n      tag_356\n        /* \"#utility.yul\":17917:17922   */\n      dup2\n        /* \"#utility.yul\":17899:17923   */\n      tag_199\n      jump\t// in\n    tag_356:\n        /* \"#utility.yul\":17892:17897   */\n      dup2\n        /* \"#utility.yul\":17889:17924   */\n      eq\n        /* \"#utility.yul\":17879:17942   */\n      tag_357\n      jumpi\n        /* \"#utility.yul\":17938:17939   */\n      0x00\n        /* \"#utility.yul\":17935:17936   */\n      dup1\n        /* \"#utility.yul\":17928:17940   */\n      revert\n        /* \"#utility.yul\":17879:17942   */\n    tag_357:\n        /* \"#utility.yul\":17826:17948   */\n      pop\n      jump\t// out\n        /* \"#utility.yul\":17954:18092   */\n    tag_163:\n        /* \"#utility.yul\":18035:18067   */\n      tag_359\n        /* \"#utility.yul\":18061:18066   */\n      dup2\n        /* \"#utility.yul\":18035:18067   */\n      tag_195\n      jump\t// in\n    tag_359:\n        /* \"#utility.yul\":18028:18033   */\n      dup2\n        /* \"#utility.yul\":18025:18068   */\n      eq\n        /* \"#utility.yul\":18015:18086   */\n      tag_360\n      jumpi\n        /* \"#utility.yul\":18082:18083   */\n      0x00\n        /* \"#utility.yul\":18079:18080   */\n      dup1\n        /* \"#utility.yul\":18072:18084   */\n      revert\n        /* \"#utility.yul\":18015:18086   */\n    tag_360:\n        /* \"#utility.yul\":17954:18092   */\n      pop\n      jump\t// out\n        /* \"#utility.yul\":18098:18220   */\n    tag_173:\n        /* \"#utility.yul\":18171:18195   */\n      tag_362\n        /* \"#utility.yul\":18189:18194   */\n      dup2\n        /* \"#utility.yul\":18171:18195   */\n      tag_257\n      jump\t// in\n    tag_362:\n        /* \"#utility.yul\":18164:18169   */\n      dup2\n        /* \"#utility.yul\":18161:18196   */\n      eq\n        /* \"#utility.yul\":18151:18214   */\n      tag_363\n      jumpi\n        /* \"#utility.yul\":18210:18211   */\n      0x00\n        /* \"#utility.yul\":18207:18208   */\n      dup1\n        /* \"#utility.yul\":18200:18212   */\n      revert\n        /* \"#utility.yul\":18151:18214   */\n    tag_363:\n        /* \"#utility.yul\":18098:18220   */\n      pop\n      jump\t// out\n\n    auxdata: 0xa264697066735822122018d687f3fd34927403c9267a273a518ebe0695abc18f1f14e31beab56db881a264736f6c63430008070033\n}\n",
				"bytecode": {
					"linkReferences": {},
					"object": "60806040523480156200001157600080fd5b50604051620018ba380380620018ba8339818101604052810190620000379190620000ba565b8160048190555080426200004c919062000101565b600381905550606460028190555033600160006101000a81548173ffffffffffffffffffffffffffffffffffffffff021916908373ffffffffffffffffffffffffffffffffffffffff1602179055505050620001b6565b600081519050620000b4816200019c565b92915050565b60008060408385031215620000d457620000d362000197565b5b6000620000e485828601620000a3565b9250506020620000f785828601620000a3565b9150509250929050565b60006200010e826200015e565b91506200011b836200015e565b9250827fffffffffffffffffffffffffffffffffffffffffffffffffffffffffffffffff0382111562000153576200015262000168565b5b828201905092915050565b6000819050919050565b7f4e487b7100000000000000000000000000000000000000000000000000000000600052601160045260246000fd5b600080fd5b620001a7816200015e565b8114620001b357600080fd5b50565b6116f480620001c66000396000f3fe6080604052600436106100dd5760003560e01c8063590e1ae31161007f578063937e09b111610059578063937e09b11461027f578063953b8fb8146102aa5780639fb42b1f146102d5578063c59ee1dc14610300576100dd565b8063590e1ae3146101fc5780636f9fb98a1461021357806381d12c581461023e576100dd565b806329dcb0cf116100bb57806329dcb0cf14610152578063481c6a751461017d5780634cb6f4a5146101a85780634e260f6f146101d1576100dd565b806306e99fef146100e25780631b16bb5c146100ec5780631f6d494214610115575b600080fd5b6100ea61032b565b005b3480156100f857600080fd5b50610113600480360381019061010e9190610cb6565b610484565b005b34801561012157600080fd5b5061013c60048036038101906101379190610c89565b6105d7565b6040516101499190611054565b60405180910390f35b34801561015e57600080fd5b506101676105ef565b6040516101749190611054565b60405180910390f35b34801561018957600080fd5b506101926105f5565b60405161019f9190610edf565b60405180910390f35b3480156101b457600080fd5b506101cf60048036038101906101ca9190610d25565b61061b565b005b3480156101dd57600080fd5b506101e6610812565b6040516101f39190611054565b60405180910390f35b34801561020857600080fd5b50610211610818565b005b34801561021f57600080fd5b50610228610a2c565b6040516102359190611054565b60405180910390f35b34801561024a57600080fd5b5061026560048036038101906102609190610d25565b610a34565b604051610276959493929190610efa565b60405180910390f35b34801561028b57600080fd5b50610294610b1f565b6040516102a19190611054565b60405180910390f35b3480156102b657600080fd5b506102bf610b25565b6040516102cc9190611054565b60405180910390f35b3480156102e157600080fd5b506102ea610b2b565b6040516102f79190611054565b60405180910390f35b34801561030c57600080fd5b50610315610b31565b6040516103229190611054565b60405180910390f35b600354421061036f576040517f08c379a000000000000000000000000000000000000000000000000000000000815260040161036690610f54565b60405180910390fd5b6002543410156103b4576040517f08c379a00000000000000000000000000000000000000000000000000000000081526004016103ab90610fd4565b60405180910390fd5b60008060003373ffffffffffffffffffffffffffffffffffffffff1673ffffffffffffffffffffffffffffffffffffffff168152602001908152602001600020541415610414576006600081548092919061040e90611294565b91905055505b346000803373ffffffffffffffffffffffffffffffffffffffff1673ffffffffffffffffffffffffffffffffffffffff168152602001908152602001600020600082825461046291906110e1565b92505081905550346005600082825461047b91906110e1565b92505081905550565b600160009054906101000a900473ffffffffffffffffffffffffffffffffffffffff1673ffffffffffffffffffffffffffffffffffffffff163373ffffffffffffffffffffffffffffffffffffffff1614610514576040517f08c379a000000000000000000000000000000000000000000000000000000000815260040161050b90611014565b60405180910390fd5b600060076000600854815260200190815260200160002090506008600081548092919061054090611294565b91905055508381600001908051906020019061055d929190610b37565b50828160020160006101000a81548173ffffffffffffffffffffffffffffffffffffffff021916908373ffffffffffffffffffffffffffffffffffffffff16021790555081816001018190555060008160020160146101000a81548160ff0219169083151502179055506000816003018190555050505050565b60006020528060005260406000206000915090505481565b60035481565b600160009054906101000a900473ffffffffffffffffffffffffffffffffffffffff1681565b60008060003373ffffffffffffffffffffffffffffffffffffffff1673ffffffffffffffffffffffffffffffffffffffff168152602001908152602001600020541161069c576040517f08c379a000000000000000000000000000000000000000000000000000000000815260040161069390610ff4565b60405180910390fd5b60085481111580156106af575060008110155b6106ee576040517f08c379a00000000000000000000000000000000000000000000000000000000081526004016106e590610f94565b60405180910390fd5b6000600760008381526020019081526020016000209050600015158160040160003373ffffffffffffffffffffffffffffffffffffffff1673ffffffffffffffffffffffffffffffffffffffff16815260200190815260200160002060009054906101000a900460ff1615151461079a576040517f08c379a000000000000000000000000000000000000000000000000000000000815260040161079190611034565b60405180910390fd5b60018160040160003373ffffffffffffffffffffffffffffffffffffffff1673ffffffffffffffffffffffffffffffffffffffff16815260200190815260200160002060006101000a81548160ff02191690831515021790555080600301600081548092919061080990611294565b91905055505050565b60065481565b6003544211801561082c5750600454600554105b61086b576040517f08c379a000000000000000000000000000000000000000000000000000000000815260040161086290610f74565b60405180910390fd5b60008060003373ffffffffffffffffffffffffffffffffffffffff1673ffffffffffffffffffffffffffffffffffffffff16815260200190815260200160002054116108ec576040517f08c379a00000000000000000000000000000000000000000000000000000000081526004016108e390610fb4565b60405180910390fd5b60003390508073ffffffffffffffffffffffffffffffffffffffff166108fc6000803373ffffffffffffffffffffffffffffffffffffffff1673ffffffffffffffffffffffffffffffffffffffff168152602001908152602001600020549081150290604051600060405180830381858888f19350505050158015610975573d6000803e3d6000fd5b506000803373ffffffffffffffffffffffffffffffffffffffff1673ffffffffffffffffffffffffffffffffffffffff16815260200190815260200160002054600560008282546109c69190611137565b9250508190555060008060003373ffffffffffffffffffffffffffffffffffffffff1673ffffffffffffffffffffffffffffffffffffffff1681526020019081526020016000208190555060066000815480929190610a2490611207565b919050555050565b600047905090565b6007602052806000526040600020600091509050806000018054610a5790611231565b80601f0160208091040260200160405190810160405280929190818152602001828054610a8390611231565b8015610ad05780601f10610aa557610100808354040283529160200191610ad0565b820191906000526020600020905b815481529060010190602001808311610ab357829003601f168201915b5050505050908060010154908060020160009054906101000a900473ffffffffffffffffffffffffffffffffffffffff16908060020160149054906101000a900460ff16908060030154905085565b60025481565b60045481565b60085481565b60055481565b828054610b4390611231565b90600052602060002090601f016020900481019282610b655760008555610bac565b82601f10610b7e57805160ff1916838001178555610bac565b82800160010185558215610bac579182015b82811115610bab578251825591602001919060010190610b90565b5b509050610bb99190610bbd565b5090565b5b80821115610bd6576000816000905550600101610bbe565b5090565b6000610bed610be884611094565b61106f565b905082815260208101848484011115610c0957610c0861136f565b5b610c148482856111c5565b509392505050565b600081359050610c2b81611679565b92915050565b600081359050610c4081611690565b92915050565b600082601f830112610c5b57610c5a61136a565b5b8135610c6b848260208601610bda565b91505092915050565b600081359050610c83816116a7565b92915050565b600060208284031215610c9f57610c9e611379565b5b6000610cad84828501610c1c565b91505092915050565b600080600060608486031215610ccf57610cce611379565b5b600084013567ffffffffffffffff811115610ced57610cec611374565b5b610cf986828701610c46565b9350506020610d0a86828701610c31565b9250506040610d1b86828701610c74565b9150509250925092565b600060208284031215610d3b57610d3a611379565b5b6000610d4984828501610c74565b91505092915050565b610d5b8161117d565b82525050565b610d6a8161116b565b82525050565b610d798161118f565b82525050565b6000610d8a826110c5565b610d9481856110d0565b9350610da48185602086016111d4565b610dad8161137e565b840191505092915050565b6000610dc56024836110d0565b9150610dd08261138f565b604082019050919050565b6000610de86087836110d0565b9150610df3826113de565b60a082019050919050565b6000610e0b6017836110d0565b9150610e168261149f565b602082019050919050565b6000610e2e6018836110d0565b9150610e39826114c8565b602082019050919050565b6000610e516028836110d0565b9150610e5c826114f1565b604082019050919050565b6000610e746043836110d0565b9150610e7f82611540565b606082019050919050565b6000610e976023836110d0565b9150610ea2826115b5565b604082019050919050565b6000610eba6056836110d0565b9150610ec582611604565b606082019050919050565b610ed9816111bb565b82525050565b6000602082019050610ef46000830184610d61565b92915050565b600060a0820190508181036000830152610f148188610d7f565b9050610f236020830187610ed0565b610f306040830186610d52565b610f3d6060830185610d70565b610f4a6080830184610ed0565b9695505050505050565b60006020820190508181036000830152610f6d81610db8565b9050919050565b60006020820190508181036000830152610f8d81610ddb565b9050919050565b60006020820190508181036000830152610fad81610dfe565b9050919050565b60006020820190508181036000830152610fcd81610e21565b9050919050565b60006020820190508181036000830152610fed81610e44565b9050919050565b6000602082019050818103600083015261100d81610e67565b9050919050565b6000602082019050818103600083015261102d81610e8a565b9050919050565b6000602082019050818103600083015261104d81610ead565b9050919050565b60006020820190506110696000830184610ed0565b92915050565b600061107961108a565b90506110858282611263565b919050565b6000604051905090565b600067ffffffffffffffff8211156110af576110ae61133b565b5b6110b88261137e565b9050602081019050919050565b600081519050919050565b600082825260208201905092915050565b60006110ec826111bb565b91506110f7836111bb565b9250827fffffffffffffffffffffffffffffffffffffffffffffffffffffffffffffffff0382111561112c5761112b6112dd565b5b828201905092915050565b6000611142826111bb565b915061114d836111bb565b9250828210156111605761115f6112dd565b5b828203905092915050565b60006111768261119b565b9050919050565b60006111888261119b565b9050919050565b60008115159050919050565b600073ffffffffffffffffffffffffffffffffffffffff82169050919050565b6000819050919050565b82818337600083830152505050565b60005b838110156111f25780820151818401526020810190506111d7565b83811115611201576000848401525b50505050565b6000611212826111bb565b91506000821415611226576112256112dd565b5b600182039050919050565b6000600282049050600182168061124957607f821691505b6020821081141561125d5761125c61130c565b5b50919050565b61126c8261137e565b810181811067ffffffffffffffff8211171561128b5761128a61133b565b5b80604052505050565b600061129f826111bb565b91507fffffffffffffffffffffffffffffffffffffffffffffffffffffffffffffffff8214156112d2576112d16112dd565b5b600182019050919050565b7f4e487b7100000000000000000000000000000000000000000000000000000000600052601160045260246000fd5b7f4e487b7100000000000000000000000000000000000000000000000000000000600052602260045260246000fd5b7f4e487b7100000000000000000000000000000000000000000000000000000000600052604160045260246000fd5b600080fd5b600080fd5b600080fd5b600080fd5b6000601f19601f8301169050919050565b7f536f727279212120446561646c696e652068617320616c72656164792070617360008201527f7365642e00000000000000000000000000000000000000000000000000000000602082015250565b7f536f7272792c20726566756e6420686173206e6f74207374617274656420796560008201527f7420666f7220616e796f6e65206265636175736520656974686572206465616460208201527f6c696e6520686173206e6f742063726f7373206f72207468652072616973656460408201527f20616d6f756e7420697320657175616c206f72206d6f7265207468616e20746160608201527f7267657420616d00000000000000000000000000000000000000000000000000608082015250565b7f496e76616c69642072657175657374206e756d6265722e000000000000000000600082015250565b7f596f7520686176656e277420636f6e74726962757465642e0000000000000000600082015250565b7f536f727279212120796f75206861766520746f20706179206d696e696d756d2060008201527f313030207765692e000000000000000000000000000000000000000000000000602082015250565b7f536f727279212120596f75206861766520746f20636f6e74726962757465206660008201527f6972737420696e206f7264657220746f20656c696769626c6520666f7220766f60208201527f74652e0000000000000000000000000000000000000000000000000000000000604082015250565b7f4f6e6c79206d616e616765722063616e2063616c6c207468697320666561747560008201527f72652e0000000000000000000000000000000000000000000000000000000000602082015250565b7f4f707073212120796f7520616c72656164792070757420796f757220766f746560008201527f20666f72207468697320726571756573742e20596f752063616e206f6e6c792060208201527f766f7465206f6e63652070657220726571756573742e00000000000000000000604082015250565b6116828161116b565b811461168d57600080fd5b50565b6116998161117d565b81146116a457600080fd5b50565b6116b0816111bb565b81146116bb57600080fd5b5056fea264697066735822122018d687f3fd34927403c9267a273a518ebe0695abc18f1f14e31beab56db881a264736f6c63430008070033",
					"opcodes": "PUSH1 0x80 PUSH1 0x40 MSTORE CALLVALUE DUP1 ISZERO PUSH3 0x11 JUMPI PUSH1 0x0 DUP1 REVERT JUMPDEST POP PUSH1 0x40 MLOAD PUSH3 0x18BA CODESIZE SUB DUP1 PUSH3 0x18BA DUP4 CODECOPY DUP2 DUP2 ADD PUSH1 0x40 MSTORE DUP2 ADD SWAP1 PUSH3 0x37 SWAP2 SWAP1 PUSH3 0xBA JUMP JUMPDEST DUP2 PUSH1 0x4 DUP2 SWAP1 SSTORE POP DUP1 TIMESTAMP PUSH3 0x4C SWAP2 SWAP1 PUSH3 0x101 JUMP JUMPDEST PUSH1 0x3 DUP2 SWAP1 SSTORE POP PUSH1 0x64 PUSH1 0x2 DUP2 SWAP1 SSTORE POP CALLER PUSH1 0x1 PUSH1 0x0 PUSH2 0x100 EXP DUP2 SLOAD DUP2 PUSH20 0xFFFFFFFFFFFFFFFFFFFFFFFFFFFFFFFFFFFFFFFF MUL NOT AND SWAP1 DUP4 PUSH20 0xFFFFFFFFFFFFFFFFFFFFFFFFFFFFFFFFFFFFFFFF AND MUL OR SWAP1 SSTORE POP POP POP PUSH3 0x1B6 JUMP JUMPDEST PUSH1 0x0 DUP2 MLOAD SWAP1 POP PUSH3 0xB4 DUP2 PUSH3 0x19C JUMP JUMPDEST SWAP3 SWAP2 POP POP JUMP JUMPDEST PUSH1 0x0 DUP1 PUSH1 0x40 DUP4 DUP6 SUB SLT ISZERO PUSH3 0xD4 JUMPI PUSH3 0xD3 PUSH3 0x197 JUMP JUMPDEST JUMPDEST PUSH1 0x0 PUSH3 0xE4 DUP6 DUP3 DUP7 ADD PUSH3 0xA3 JUMP JUMPDEST SWAP3 POP POP PUSH1 0x20 PUSH3 0xF7 DUP6 DUP3 DUP7 ADD PUSH3 0xA3 JUMP JUMPDEST SWAP2 POP POP SWAP3 POP SWAP3 SWAP1 POP JUMP JUMPDEST PUSH1 0x0 PUSH3 0x10E DUP3 PUSH3 0x15E JUMP JUMPDEST SWAP2 POP PUSH3 0x11B DUP4 PUSH3 0x15E JUMP JUMPDEST SWAP3 POP DUP3 PUSH32 0xFFFFFFFFFFFFFFFFFFFFFFFFFFFFFFFFFFFFFFFFFFFFFFFFFFFFFFFFFFFFFFFF SUB DUP3 GT ISZERO PUSH3 0x153 JUMPI PUSH3 0x152 PUSH3 0x168 JUMP JUMPDEST JUMPDEST DUP3 DUP3 ADD SWAP1 POP SWAP3 SWAP2 POP POP JUMP JUMPDEST PUSH1 0x0 DUP2 SWAP1 POP SWAP2 SWAP1 POP JUMP JUMPDEST PUSH32 0x4E487B7100000000000000000000000000000000000000000000000000000000 PUSH1 0x0 MSTORE PUSH1 0x11 PUSH1 0x4 MSTORE PUSH1 0x24 PUSH1 0x0 REVERT JUMPDEST PUSH1 0x0 DUP1 REVERT JUMPDEST PUSH3 0x1A7 DUP2 PUSH3 0x15E JUMP JUMPDEST DUP2 EQ PUSH3 0x1B3 JUMPI PUSH1 0x0 DUP1 REVERT JUMPDEST POP JUMP JUMPDEST PUSH2 0x16F4 DUP1 PUSH3 0x1C6 PUSH1 0x0 CODECOPY PUSH1 0x0 RETURN INVALID PUSH1 0x80 PUSH1 0x40 MSTORE PUSH1 0x4 CALLDATASIZE LT PUSH2 0xDD JUMPI PUSH1 0x0 CALLDATALOAD PUSH1 0xE0 SHR DUP1 PUSH4 0x590E1AE3 GT PUSH2 0x7F JUMPI DUP1 PUSH4 0x937E09B1 GT PUSH2 0x59 JUMPI DUP1 PUSH4 0x937E09B1 EQ PUSH2 0x27F JUMPI DUP1 PUSH4 0x953B8FB8 EQ PUSH2 0x2AA JUMPI DUP1 PUSH4 0x9FB42B1F EQ PUSH2 0x2D5 JUMPI DUP1 PUSH4 0xC59EE1DC EQ PUSH2 0x300 JUMPI PUSH2 0xDD JUMP JUMPDEST DUP1 PUSH4 0x590E1AE3 EQ PUSH2 0x1FC JUMPI DUP1 PUSH4 0x6F9FB98A EQ PUSH2 0x213 JUMPI DUP1 PUSH4 0x81D12C58 EQ PUSH2 0x23E JUMPI PUSH2 0xDD JUMP JUMPDEST DUP1 PUSH4 0x29DCB0CF GT PUSH2 0xBB JUMPI DUP1 PUSH4 0x29DCB0CF EQ PUSH2 0x152 JUMPI DUP1 PUSH4 0x481C6A75 EQ PUSH2 0x17D JUMPI DUP1 PUSH4 0x4CB6F4A5 EQ PUSH2 0x1A8 JUMPI DUP1 PUSH4 0x4E260F6F EQ PUSH2 0x1D1 JUMPI PUSH2 0xDD JUMP JUMPDEST DUP1 PUSH4 0x6E99FEF EQ PUSH2 0xE2 JUMPI DUP1 PUSH4 0x1B16BB5C EQ PUSH2 0xEC JUMPI DUP1 PUSH4 0x1F6D4942 EQ PUSH2 0x115 JUMPI JUMPDEST PUSH1 0x0 DUP1 REVERT JUMPDEST PUSH2 0xEA PUSH2 0x32B JUMP JUMPDEST STOP JUMPDEST CALLVALUE DUP1 ISZERO PUSH2 0xF8 JUMPI PUSH1 0x0 DUP1 REVERT JUMPDEST POP PUSH2 0x113 PUSH1 0x4 DUP1 CALLDATASIZE SUB DUP2 ADD SWAP1 PUSH2 0x10E SWAP2 SWAP1 PUSH2 0xCB6 JUMP JUMPDEST PUSH2 0x484 JUMP JUMPDEST STOP JUMPDEST CALLVALUE DUP1 ISZERO PUSH2 0x121 JUMPI PUSH1 0x0 DUP1 REVERT JUMPDEST POP PUSH2 0x13C PUSH1 0x4 DUP1 CALLDATASIZE SUB DUP2 ADD SWAP1 PUSH2 0x137 SWAP2 SWAP1 PUSH2 0xC89 JUMP JUMPDEST PUSH2 0x5D7 JUMP JUMPDEST PUSH1 0x40 MLOAD PUSH2 0x149 SWAP2 SWAP1 PUSH2 0x1054 JUMP JUMPDEST PUSH1 0x40 MLOAD DUP1 SWAP2 SUB SWAP1 RETURN JUMPDEST CALLVALUE DUP1 ISZERO PUSH2 0x15E JUMPI PUSH1 0x0 DUP1 REVERT JUMPDEST POP PUSH2 0x167 PUSH2 0x5EF JUMP JUMPDEST PUSH1 0x40 MLOAD PUSH2 0x174 SWAP2 SWAP1 PUSH2 0x1054 JUMP JUMPDEST PUSH1 0x40 MLOAD DUP1 SWAP2 SUB SWAP1 RETURN JUMPDEST CALLVALUE DUP1 ISZERO PUSH2 0x189 JUMPI PUSH1 0x0 DUP1 REVERT JUMPDEST POP PUSH2 0x192 PUSH2 0x5F5 JUMP JUMPDEST PUSH1 0x40 MLOAD PUSH2 0x19F SWAP2 SWAP1 PUSH2 0xEDF JUMP JUMPDEST PUSH1 0x40 MLOAD DUP1 SWAP2 SUB SWAP1 RETURN JUMPDEST CALLVALUE DUP1 ISZERO PUSH2 0x1B4 JUMPI PUSH1 0x0 DUP1 REVERT JUMPDEST POP PUSH2 0x1CF PUSH1 0x4 DUP1 CALLDATASIZE SUB DUP2 ADD SWAP1 PUSH2 0x1CA SWAP2 SWAP1 PUSH2 0xD25 JUMP JUMPDEST PUSH2 0x61B JUMP JUMPDEST STOP JUMPDEST CALLVALUE DUP1 ISZERO PUSH2 0x1DD JUMPI PUSH1 0x0 DUP1 REVERT JUMPDEST POP PUSH2 0x1E6 PUSH2 0x812 JUMP JUMPDEST PUSH1 0x40 MLOAD PUSH2 0x1F3 SWAP2 SWAP1 PUSH2 0x1054 JUMP JUMPDEST PUSH1 0x40 MLOAD DUP1 SWAP2 SUB SWAP1 RETURN JUMPDEST CALLVALUE DUP1 ISZERO PUSH2 0x208 JUMPI PUSH1 0x0 DUP1 REVERT JUMPDEST POP PUSH2 0x211 PUSH2 0x818 JUMP JUMPDEST STOP JUMPDEST CALLVALUE DUP1 ISZERO PUSH2 0x21F JUMPI PUSH1 0x0 DUP1 REVERT JUMPDEST POP PUSH2 0x228 PUSH2 0xA2C JUMP JUMPDEST PUSH1 0x40 MLOAD PUSH2 0x235 SWAP2 SWAP1 PUSH2 0x1054 JUMP JUMPDEST PUSH1 0x40 MLOAD DUP1 SWAP2 SUB SWAP1 RETURN JUMPDEST CALLVALUE DUP1 ISZERO PUSH2 0x24A JUMPI PUSH1 0x0 DUP1 REVERT JUMPDEST POP PUSH2 0x265 PUSH1 0x4 DUP1 CALLDATASIZE SUB DUP2 ADD SWAP1 PUSH2 0x260 SWAP2 SWAP1 PUSH2 0xD25 JUMP JUMPDEST PUSH2 0xA34 JUMP JUMPDEST PUSH1 0x40 MLOAD PUSH2 0x276 SWAP6 SWAP5 SWAP4 SWAP3 SWAP2 SWAP1 PUSH2 0xEFA JUMP JUMPDEST PUSH1 0x40 MLOAD DUP1 SWAP2 SUB SWAP1 RETURN JUMPDEST CALLVALUE DUP1 ISZERO PUSH2 0x28B JUMPI PUSH1 0x0 DUP1 REVERT JUMPDEST POP PUSH2 0x294 PUSH2 0xB1F JUMP JUMPDEST PUSH1 0x40 MLOAD PUSH2 0x2A1 SWAP2 SWAP1 PUSH2 0x1054 JUMP JUMPDEST PUSH1 0x40 MLOAD DUP1 SWAP2 SUB SWAP1 RETURN JUMPDEST CALLVALUE DUP1 ISZERO PUSH2 0x2B6 JUMPI PUSH1 0x0 DUP1 REVERT JUMPDEST POP PUSH2 0x2BF PUSH2 0xB25 JUMP JUMPDEST PUSH1 0x40 MLOAD PUSH2 0x2CC SWAP2 SWAP1 PUSH2 0x1054 JUMP JUMPDEST PUSH1 0x40 MLOAD DUP1 SWAP2 SUB SWAP1 RETURN JUMPDEST CALLVALUE DUP1 ISZERO PUSH2 0x2E1 JUMPI PUSH1 0x0 DUP1 REVERT JUMPDEST POP PUSH2 0x2EA PUSH2 0xB2B JUMP JUMPDEST PUSH1 0x40 MLOAD PUSH2 0x2F7 SWAP2 SWAP1 PUSH2 0x1054 JUMP JUMPDEST PUSH1 0x40 MLOAD DUP1 SWAP2 SUB SWAP1 RETURN JUMPDEST CALLVALUE DUP1 ISZERO PUSH2 0x30C JUMPI PUSH1 0x0 DUP1 REVERT JUMPDEST POP PUSH2 0x315 PUSH2 0xB31 JUMP JUMPDEST PUSH1 0x40 MLOAD PUSH2 0x322 SWAP2 SWAP1 PUSH2 0x1054 JUMP JUMPDEST PUSH1 0x40 MLOAD DUP1 SWAP2 SUB SWAP1 RETURN JUMPDEST PUSH1 0x3 SLOAD TIMESTAMP LT PUSH2 0x36F JUMPI PUSH1 0x40 MLOAD PUSH32 0x8C379A000000000000000000000000000000000000000000000000000000000 DUP2 MSTORE PUSH1 0x4 ADD PUSH2 0x366 SWAP1 PUSH2 0xF54 JUMP JUMPDEST PUSH1 0x40 MLOAD DUP1 SWAP2 SUB SWAP1 REVERT JUMPDEST PUSH1 0x2 SLOAD CALLVALUE LT ISZERO PUSH2 0x3B4 JUMPI PUSH1 0x40 MLOAD PUSH32 0x8C379A000000000000000000000000000000000000000000000000000000000 DUP2 MSTORE PUSH1 0x4 ADD PUSH2 0x3AB SWAP1 PUSH2 0xFD4 JUMP JUMPDEST PUSH1 0x40 MLOAD DUP1 SWAP2 SUB SWAP1 REVERT JUMPDEST PUSH1 0x0 DUP1 PUSH1 0x0 CALLER PUSH20 0xFFFFFFFFFFFFFFFFFFFFFFFFFFFFFFFFFFFFFFFF AND PUSH20 0xFFFFFFFFFFFFFFFFFFFFFFFFFFFFFFFFFFFFFFFF AND DUP2 MSTORE PUSH1 0x20 ADD SWAP1 DUP2 MSTORE PUSH1 0x20 ADD PUSH1 0x0 KECCAK256 SLOAD EQ ISZERO PUSH2 0x414 JUMPI PUSH1 0x6 PUSH1 0x0 DUP2 SLOAD DUP1 SWAP3 SWAP2 SWAP1 PUSH2 0x40E SWAP1 PUSH2 0x1294 JUMP JUMPDEST SWAP2 SWAP1 POP SSTORE POP JUMPDEST CALLVALUE PUSH1 0x0 DUP1 CALLER PUSH20 0xFFFFFFFFFFFFFFFFFFFFFFFFFFFFFFFFFFFFFFFF AND PUSH20 0xFFFFFFFFFFFFFFFFFFFFFFFFFFFFFFFFFFFFFFFF AND DUP2 MSTORE PUSH1 0x20 ADD SWAP1 DUP2 MSTORE PUSH1 0x20 ADD PUSH1 0x0 KECCAK256 PUSH1 0x0 DUP3 DUP3 SLOAD PUSH2 0x462 SWAP2 SWAP1 PUSH2 0x10E1 JUMP JUMPDEST SWAP3 POP POP DUP2 SWAP1 SSTORE POP CALLVALUE PUSH1 0x5 PUSH1 0x0 DUP3 DUP3 SLOAD PUSH2 0x47B SWAP2 SWAP1 PUSH2 0x10E1 JUMP JUMPDEST SWAP3 POP POP DUP2 SWAP1 SSTORE POP JUMP JUMPDEST PUSH1 0x1 PUSH1 0x0 SWAP1 SLOAD SWAP1 PUSH2 0x100 EXP SWAP1 DIV PUSH20 0xFFFFFFFFFFFFFFFFFFFFFFFFFFFFFFFFFFFFFFFF AND PUSH20 0xFFFFFFFFFFFFFFFFFFFFFFFFFFFFFFFFFFFFFFFF AND CALLER PUSH20 0xFFFFFFFFFFFFFFFFFFFFFFFFFFFFFFFFFFFFFFFF AND EQ PUSH2 0x514 JUMPI PUSH1 0x40 MLOAD PUSH32 0x8C379A000000000000000000000000000000000000000000000000000000000 DUP2 MSTORE PUSH1 0x4 ADD PUSH2 0x50B SWAP1 PUSH2 0x1014 JUMP JUMPDEST PUSH1 0x40 MLOAD DUP1 SWAP2 SUB SWAP1 REVERT JUMPDEST PUSH1 0x0 PUSH1 0x7 PUSH1 0x0 PUSH1 0x8 SLOAD DUP2 MSTORE PUSH1 0x20 ADD SWAP1 DUP2 MSTORE PUSH1 0x20 ADD PUSH1 0x0 KECCAK256 SWAP1 POP PUSH1 0x8 PUSH1 0x0 DUP2 SLOAD DUP1 SWAP3 SWAP2 SWAP1 PUSH2 0x540 SWAP1 PUSH2 0x1294 JUMP JUMPDEST SWAP2 SWAP1 POP SSTORE POP DUP4 DUP2 PUSH1 0x0 ADD SWAP1 DUP1 MLOAD SWAP1 PUSH1 0x20 ADD SWAP1 PUSH2 0x55D SWAP3 SWAP2 SWAP1 PUSH2 0xB37 JUMP JUMPDEST POP DUP3 DUP2 PUSH1 0x2 ADD PUSH1 0x0 PUSH2 0x100 EXP DUP2 SLOAD DUP2 PUSH20 0xFFFFFFFFFFFFFFFFFFFFFFFFFFFFFFFFFFFFFFFF MUL NOT AND SWAP1 DUP4 PUSH20 0xFFFFFFFFFFFFFFFFFFFFFFFFFFFFFFFFFFFFFFFF AND MUL OR SWAP1 SSTORE POP DUP2 DUP2 PUSH1 0x1 ADD DUP2 SWAP1 SSTORE POP PUSH1 0x0 DUP2 PUSH1 0x2 ADD PUSH1 0x14 PUSH2 0x100 EXP DUP2 SLOAD DUP2 PUSH1 0xFF MUL NOT AND SWAP1 DUP4 ISZERO ISZERO MUL OR SWAP1 SSTORE POP PUSH1 0x0 DUP2 PUSH1 0x3 ADD DUP2 SWAP1 SSTORE POP POP POP POP POP JUMP JUMPDEST PUSH1 0x0 PUSH1 0x20 MSTORE DUP1 PUSH1 0x0 MSTORE PUSH1 0x40 PUSH1 0x0 KECCAK256 PUSH1 0x0 SWAP2 POP SWAP1 POP SLOAD DUP2 JUMP JUMPDEST PUSH1 0x3 SLOAD DUP2 JUMP JUMPDEST PUSH1 0x1 PUSH1 0x0 SWAP1 SLOAD SWAP1 PUSH2 0x100 EXP SWAP1 DIV PUSH20 0xFFFFFFFFFFFFFFFFFFFFFFFFFFFFFFFFFFFFFFFF AND DUP2 JUMP JUMPDEST PUSH1 0x0 DUP1 PUSH1 0x0 CALLER PUSH20 0xFFFFFFFFFFFFFFFFFFFFFFFFFFFFFFFFFFFFFFFF AND PUSH20 0xFFFFFFFFFFFFFFFFFFFFFFFFFFFFFFFFFFFFFFFF AND DUP2 MSTORE PUSH1 0x20 ADD SWAP1 DUP2 MSTORE PUSH1 0x20 ADD PUSH1 0x0 KECCAK256 SLOAD GT PUSH2 0x69C JUMPI PUSH1 0x40 MLOAD PUSH32 0x8C379A000000000000000000000000000000000000000000000000000000000 DUP2 MSTORE PUSH1 0x4 ADD PUSH2 0x693 SWAP1 PUSH2 0xFF4 JUMP JUMPDEST PUSH1 0x40 MLOAD DUP1 SWAP2 SUB SWAP1 REVERT JUMPDEST PUSH1 0x8 SLOAD DUP2 GT ISZERO DUP1 ISZERO PUSH2 0x6AF JUMPI POP PUSH1 0x0 DUP2 LT ISZERO JUMPDEST PUSH2 0x6EE JUMPI PUSH1 0x40 MLOAD PUSH32 0x8C379A000000000000000000000000000000000000000000000000000000000 DUP2 MSTORE PUSH1 0x4 ADD PUSH2 0x6E5 SWAP1 PUSH2 0xF94 JUMP JUMPDEST PUSH1 0x40 MLOAD DUP1 SWAP2 SUB SWAP1 REVERT JUMPDEST PUSH1 0x0 PUSH1 0x7 PUSH1 0x0 DUP4 DUP2 MSTORE PUSH1 0x20 ADD SWAP1 DUP2 MSTORE PUSH1 0x20 ADD PUSH1 0x0 KECCAK256 SWAP1 POP PUSH1 0x0 ISZERO ISZERO DUP2 PUSH1 0x4 ADD PUSH1 0x0 CALLER PUSH20 0xFFFFFFFFFFFFFFFFFFFFFFFFFFFFFFFFFFFFFFFF AND PUSH20 0xFFFFFFFFFFFFFFFFFFFFFFFFFFFFFFFFFFFFFFFF AND DUP2 MSTORE PUSH1 0x20 ADD SWAP1 DUP2 MSTORE PUSH1 0x20 ADD PUSH1 0x0 KECCAK256 PUSH1 0x0 SWAP1 SLOAD SWAP1 PUSH2 0x100 EXP SWAP1 DIV PUSH1 0xFF AND ISZERO ISZERO EQ PUSH2 0x79A JUMPI PUSH1 0x40 MLOAD PUSH32 0x8C379A000000000000000000000000000000000000000000000000000000000 DUP2 MSTORE PUSH1 0x4 ADD PUSH2 0x791 SWAP1 PUSH2 0x1034 JUMP JUMPDEST PUSH1 0x40 MLOAD DUP1 SWAP2 SUB SWAP1 REVERT JUMPDEST PUSH1 0x1 DUP2 PUSH1 0x4 ADD PUSH1 0x0 CALLER PUSH20 0xFFFFFFFFFFFFFFFFFFFFFFFFFFFFFFFFFFFFFFFF AND PUSH20 0xFFFFFFFFFFFFFFFFFFFFFFFFFFFFFFFFFFFFFFFF AND DUP2 MSTORE PUSH1 0x20 ADD SWAP1 DUP2 MSTORE PUSH1 0x20 ADD PUSH1 0x0 KECCAK256 PUSH1 0x0 PUSH2 0x100 EXP DUP2 SLOAD DUP2 PUSH1 0xFF MUL NOT AND SWAP1 DUP4 ISZERO ISZERO MUL OR SWAP1 SSTORE POP DUP1 PUSH1 0x3 ADD PUSH1 0x0 DUP2 SLOAD DUP1 SWAP3 SWAP2 SWAP1 PUSH2 0x809 SWAP1 PUSH2 0x1294 JUMP JUMPDEST SWAP2 SWAP1 POP SSTORE POP POP POP JUMP JUMPDEST PUSH1 0x6 SLOAD DUP2 JUMP JUMPDEST PUSH1 0x3 SLOAD TIMESTAMP GT DUP1 ISZERO PUSH2 0x82C JUMPI POP PUSH1 0x4 SLOAD PUSH1 0x5 SLOAD LT JUMPDEST PUSH2 0x86B JUMPI PUSH1 0x40 MLOAD PUSH32 0x8C379A000000000000000000000000000000000000000000000000000000000 DUP2 MSTORE PUSH1 0x4 ADD PUSH2 0x862 SWAP1 PUSH2 0xF74 JUMP JUMPDEST PUSH1 0x40 MLOAD DUP1 SWAP2 SUB SWAP1 REVERT JUMPDEST PUSH1 0x0 DUP1 PUSH1 0x0 CALLER PUSH20 0xFFFFFFFFFFFFFFFFFFFFFFFFFFFFFFFFFFFFFFFF AND PUSH20 0xFFFFFFFFFFFFFFFFFFFFFFFFFFFFFFFFFFFFFFFF AND DUP2 MSTORE PUSH1 0x20 ADD SWAP1 DUP2 MSTORE PUSH1 0x20 ADD PUSH1 0x0 KECCAK256 SLOAD GT PUSH2 0x8EC JUMPI PUSH1 0x40 MLOAD PUSH32 0x8C379A000000000000000000000000000000000000000000000000000000000 DUP2 MSTORE PUSH1 0x4 ADD PUSH2 0x8E3 SWAP1 PUSH2 0xFB4 JUMP JUMPDEST PUSH1 0x40 MLOAD DUP1 SWAP2 SUB SWAP1 REVERT JUMPDEST PUSH1 0x0 CALLER SWAP1 POP DUP1 PUSH20 0xFFFFFFFFFFFFFFFFFFFFFFFFFFFFFFFFFFFFFFFF AND PUSH2 0x8FC PUSH1 0x0 DUP1 CALLER PUSH20 0xFFFFFFFFFFFFFFFFFFFFFFFFFFFFFFFFFFFFFFFF AND PUSH20 0xFFFFFFFFFFFFFFFFFFFFFFFFFFFFFFFFFFFFFFFF AND DUP2 MSTORE PUSH1 0x20 ADD SWAP1 DUP2 MSTORE PUSH1 0x20 ADD PUSH1 0x0 KECCAK256 SLOAD SWAP1 DUP2 ISZERO MUL SWAP1 PUSH1 0x40 MLOAD PUSH1 0x0 PUSH1 0x40 MLOAD DUP1 DUP4 SUB DUP2 DUP6 DUP9 DUP9 CALL SWAP4 POP POP POP POP ISZERO DUP1 ISZERO PUSH2 0x975 JUMPI RETURNDATASIZE PUSH1 0x0 DUP1 RETURNDATACOPY RETURNDATASIZE PUSH1 0x0 REVERT JUMPDEST POP PUSH1 0x0 DUP1 CALLER PUSH20 0xFFFFFFFFFFFFFFFFFFFFFFFFFFFFFFFFFFFFFFFF AND PUSH20 0xFFFFFFFFFFFFFFFFFFFFFFFFFFFFFFFFFFFFFFFF AND DUP2 MSTORE PUSH1 0x20 ADD SWAP1 DUP2 MSTORE PUSH1 0x20 ADD PUSH1 0x0 KECCAK256 SLOAD PUSH1 0x5 PUSH1 0x0 DUP3 DUP3 SLOAD PUSH2 0x9C6 SWAP2 SWAP1 PUSH2 0x1137 JUMP JUMPDEST SWAP3 POP POP DUP2 SWAP1 SSTORE POP PUSH1 0x0 DUP1 PUSH1 0x0 CALLER PUSH20 0xFFFFFFFFFFFFFFFFFFFFFFFFFFFFFFFFFFFFFFFF AND PUSH20 0xFFFFFFFFFFFFFFFFFFFFFFFFFFFFFFFFFFFFFFFF AND DUP2 MSTORE PUSH1 0x20 ADD SWAP1 DUP2 MSTORE PUSH1 0x20 ADD PUSH1 0x0 KECCAK256 DUP2 SWAP1 SSTORE POP PUSH1 0x6 PUSH1 0x0 DUP2 SLOAD DUP1 SWAP3 SWAP2 SWAP1 PUSH2 0xA24 SWAP1 PUSH2 0x1207 JUMP JUMPDEST SWAP2 SWAP1 POP SSTORE POP POP JUMP JUMPDEST PUSH1 0x0 SELFBALANCE SWAP1 POP SWAP1 JUMP JUMPDEST PUSH1 0x7 PUSH1 0x20 MSTORE DUP1 PUSH1 0x0 MSTORE PUSH1 0x40 PUSH1 0x0 KECCAK256 PUSH1 0x0 SWAP2 POP SWAP1 POP DUP1 PUSH1 0x0 ADD DUP1 SLOAD PUSH2 0xA57 SWAP1 PUSH2 0x1231 JUMP JUMPDEST DUP1 PUSH1 0x1F ADD PUSH1 0x20 DUP1 SWAP2 DIV MUL PUSH1 0x20 ADD PUSH1 0x40 MLOAD SWAP1 DUP2 ADD PUSH1 0x40 MSTORE DUP1 SWAP3 SWAP2 SWAP1 DUP2 DUP2 MSTORE PUSH1 0x20 ADD DUP3 DUP1 SLOAD PUSH2 0xA83 SWAP1 PUSH2 0x1231 JUMP JUMPDEST DUP1 ISZERO PUSH2 0xAD0 JUMPI DUP1 PUSH1 0x1F LT PUSH2 0xAA5 JUMPI PUSH2 0x100 DUP1 DUP4 SLOAD DIV MUL DUP4 MSTORE SWAP2 PUSH1 0x20 ADD SWAP2 PUSH2 0xAD0 JUMP JUMPDEST DUP3 ADD SWAP2 SWAP1 PUSH1 0x0 MSTORE PUSH1 0x20 PUSH1 0x0 KECCAK256 SWAP1 JUMPDEST DUP2 SLOAD DUP2 MSTORE SWAP1 PUSH1 0x1 ADD SWAP1 PUSH1 0x20 ADD DUP1 DUP4 GT PUSH2 0xAB3 JUMPI DUP3 SWAP1 SUB PUSH1 0x1F AND DUP3 ADD SWAP2 JUMPDEST POP POP POP POP POP SWAP1 DUP1 PUSH1 0x1 ADD SLOAD SWAP1 DUP1 PUSH1 0x2 ADD PUSH1 0x0 SWAP1 SLOAD SWAP1 PUSH2 0x100 EXP SWAP1 DIV PUSH20 0xFFFFFFFFFFFFFFFFFFFFFFFFFFFFFFFFFFFFFFFF AND SWAP1 DUP1 PUSH1 0x2 ADD PUSH1 0x14 SWAP1 SLOAD SWAP1 PUSH2 0x100 EXP SWAP1 DIV PUSH1 0xFF AND SWAP1 DUP1 PUSH1 0x3 ADD SLOAD SWAP1 POP DUP6 JUMP JUMPDEST PUSH1 0x2 SLOAD DUP2 JUMP JUMPDEST PUSH1 0x4 SLOAD DUP2 JUMP JUMPDEST PUSH1 0x8 SLOAD DUP2 JUMP JUMPDEST PUSH1 0x5 SLOAD DUP2 JUMP JUMPDEST DUP3 DUP1 SLOAD PUSH2 0xB43 SWAP1 PUSH2 0x1231 JUMP JUMPDEST SWAP1 PUSH1 0x0 MSTORE PUSH1 0x20 PUSH1 0x0 KECCAK256 SWAP1 PUSH1 0x1F ADD PUSH1 0x20 SWAP1 DIV DUP2 ADD SWAP3 DUP3 PUSH2 0xB65 JUMPI PUSH1 0x0 DUP6 SSTORE PUSH2 0xBAC JUMP JUMPDEST DUP3 PUSH1 0x1F LT PUSH2 0xB7E JUMPI DUP1 MLOAD PUSH1 0xFF NOT AND DUP4 DUP1 ADD OR DUP6 SSTORE PUSH2 0xBAC JUMP JUMPDEST DUP3 DUP1 ADD PUSH1 0x1 ADD DUP6 SSTORE DUP3 ISZERO PUSH2 0xBAC JUMPI SWAP2 DUP3 ADD JUMPDEST DUP3 DUP2 GT ISZERO PUSH2 0xBAB JUMPI DUP3 MLOAD DUP3 SSTORE SWAP2 PUSH1 0x20 ADD SWAP2 SWAP1 PUSH1 0x1 ADD SWAP1 PUSH2 0xB90 JUMP JUMPDEST JUMPDEST POP SWAP1 POP PUSH2 0xBB9 SWAP2 SWAP1 PUSH2 0xBBD JUMP JUMPDEST POP SWAP1 JUMP JUMPDEST JUMPDEST DUP1 DUP3 GT ISZERO PUSH2 0xBD6 JUMPI PUSH1 0x0 DUP2 PUSH1 0x0 SWAP1 SSTORE POP PUSH1 0x1 ADD PUSH2 0xBBE JUMP JUMPDEST POP SWAP1 JUMP JUMPDEST PUSH1 0x0 PUSH2 0xBED PUSH2 0xBE8 DUP5 PUSH2 0x1094 JUMP JUMPDEST PUSH2 0x106F JUMP JUMPDEST SWAP1 POP DUP3 DUP2 MSTORE PUSH1 0x20 DUP2 ADD DUP5 DUP5 DUP5 ADD GT ISZERO PUSH2 0xC09 JUMPI PUSH2 0xC08 PUSH2 0x136F JUMP JUMPDEST JUMPDEST PUSH2 0xC14 DUP5 DUP3 DUP6 PUSH2 0x11C5 JUMP JUMPDEST POP SWAP4 SWAP3 POP POP POP JUMP JUMPDEST PUSH1 0x0 DUP2 CALLDATALOAD SWAP1 POP PUSH2 0xC2B DUP2 PUSH2 0x1679 JUMP JUMPDEST SWAP3 SWAP2 POP POP JUMP JUMPDEST PUSH1 0x0 DUP2 CALLDATALOAD SWAP1 POP PUSH2 0xC40 DUP2 PUSH2 0x1690 JUMP JUMPDEST SWAP3 SWAP2 POP POP JUMP JUMPDEST PUSH1 0x0 DUP3 PUSH1 0x1F DUP4 ADD SLT PUSH2 0xC5B JUMPI PUSH2 0xC5A PUSH2 0x136A JUMP JUMPDEST JUMPDEST DUP2 CALLDATALOAD PUSH2 0xC6B DUP5 DUP3 PUSH1 0x20 DUP7 ADD PUSH2 0xBDA JUMP JUMPDEST SWAP2 POP POP SWAP3 SWAP2 POP POP JUMP JUMPDEST PUSH1 0x0 DUP2 CALLDATALOAD SWAP1 POP PUSH2 0xC83 DUP2 PUSH2 0x16A7 JUMP JUMPDEST SWAP3 SWAP2 POP POP JUMP JUMPDEST PUSH1 0x0 PUSH1 0x20 DUP3 DUP5 SUB SLT ISZERO PUSH2 0xC9F JUMPI PUSH2 0xC9E PUSH2 0x1379 JUMP JUMPDEST JUMPDEST PUSH1 0x0 PUSH2 0xCAD DUP5 DUP3 DUP6 ADD PUSH2 0xC1C JUMP JUMPDEST SWAP2 POP POP SWAP3 SWAP2 POP POP JUMP JUMPDEST PUSH1 0x0 DUP1 PUSH1 0x0 PUSH1 0x60 DUP5 DUP7 SUB SLT ISZERO PUSH2 0xCCF JUMPI PUSH2 0xCCE PUSH2 0x1379 JUMP JUMPDEST JUMPDEST PUSH1 0x0 DUP5 ADD CALLDATALOAD PUSH8 0xFFFFFFFFFFFFFFFF DUP2 GT ISZERO PUSH2 0xCED JUMPI PUSH2 0xCEC PUSH2 0x1374 JUMP JUMPDEST JUMPDEST PUSH2 0xCF9 DUP7 DUP3 DUP8 ADD PUSH2 0xC46 JUMP JUMPDEST SWAP4 POP POP PUSH1 0x20 PUSH2 0xD0A DUP7 DUP3 DUP8 ADD PUSH2 0xC31 JUMP JUMPDEST SWAP3 POP POP PUSH1 0x40 PUSH2 0xD1B DUP7 DUP3 DUP8 ADD PUSH2 0xC74 JUMP JUMPDEST SWAP2 POP POP SWAP3 POP SWAP3 POP SWAP3 JUMP JUMPDEST PUSH1 0x0 PUSH1 0x20 DUP3 DUP5 SUB SLT ISZERO PUSH2 0xD3B JUMPI PUSH2 0xD3A PUSH2 0x1379 JUMP JUMPDEST JUMPDEST PUSH1 0x0 PUSH2 0xD49 DUP5 DUP3 DUP6 ADD PUSH2 0xC74 JUMP JUMPDEST SWAP2 POP POP SWAP3 SWAP2 POP POP JUMP JUMPDEST PUSH2 0xD5B DUP2 PUSH2 0x117D JUMP JUMPDEST DUP3 MSTORE POP POP JUMP JUMPDEST PUSH2 0xD6A DUP2 PUSH2 0x116B JUMP JUMPDEST DUP3 MSTORE POP POP JUMP JUMPDEST PUSH2 0xD79 DUP2 PUSH2 0x118F JUMP JUMPDEST DUP3 MSTORE POP POP JUMP JUMPDEST PUSH1 0x0 PUSH2 0xD8A DUP3 PUSH2 0x10C5 JUMP JUMPDEST PUSH2 0xD94 DUP2 DUP6 PUSH2 0x10D0 JUMP JUMPDEST SWAP4 POP PUSH2 0xDA4 DUP2 DUP6 PUSH1 0x20 DUP7 ADD PUSH2 0x11D4 JUMP JUMPDEST PUSH2 0xDAD DUP2 PUSH2 0x137E JUMP JUMPDEST DUP5 ADD SWAP2 POP POP SWAP3 SWAP2 POP POP JUMP JUMPDEST PUSH1 0x0 PUSH2 0xDC5 PUSH1 0x24 DUP4 PUSH2 0x10D0 JUMP JUMPDEST SWAP2 POP PUSH2 0xDD0 DUP3 PUSH2 0x138F JUMP JUMPDEST PUSH1 0x40 DUP3 ADD SWAP1 POP SWAP2 SWAP1 POP JUMP JUMPDEST PUSH1 0x0 PUSH2 0xDE8 PUSH1 0x87 DUP4 PUSH2 0x10D0 JUMP JUMPDEST SWAP2 POP PUSH2 0xDF3 DUP3 PUSH2 0x13DE JUMP JUMPDEST PUSH1 0xA0 DUP3 ADD SWAP1 POP SWAP2 SWAP1 POP JUMP JUMPDEST PUSH1 0x0 PUSH2 0xE0B PUSH1 0x17 DUP4 PUSH2 0x10D0 JUMP JUMPDEST SWAP2 POP PUSH2 0xE16 DUP3 PUSH2 0x149F JUMP JUMPDEST PUSH1 0x20 DUP3 ADD SWAP1 POP SWAP2 SWAP1 POP JUMP JUMPDEST PUSH1 0x0 PUSH2 0xE2E PUSH1 0x18 DUP4 PUSH2 0x10D0 JUMP JUMPDEST SWAP2 POP PUSH2 0xE39 DUP3 PUSH2 0x14C8 JUMP JUMPDEST PUSH1 0x20 DUP3 ADD SWAP1 POP SWAP2 SWAP1 POP JUMP JUMPDEST PUSH1 0x0 PUSH2 0xE51 PUSH1 0x28 DUP4 PUSH2 0x10D0 JUMP JUMPDEST SWAP2 POP PUSH2 0xE5C DUP3 PUSH2 0x14F1 JUMP JUMPDEST PUSH1 0x40 DUP3 ADD SWAP1 POP SWAP2 SWAP1 POP JUMP JUMPDEST PUSH1 0x0 PUSH2 0xE74 PUSH1 0x43 DUP4 PUSH2 0x10D0 JUMP JUMPDEST SWAP2 POP PUSH2 0xE7F DUP3 PUSH2 0x1540 JUMP JUMPDEST PUSH1 0x60 DUP3 ADD SWAP1 POP SWAP2 SWAP1 POP JUMP JUMPDEST PUSH1 0x0 PUSH2 0xE97 PUSH1 0x23 DUP4 PUSH2 0x10D0 JUMP JUMPDEST SWAP2 POP PUSH2 0xEA2 DUP3 PUSH2 0x15B5 JUMP JUMPDEST PUSH1 0x40 DUP3 ADD SWAP1 POP SWAP2 SWAP1 POP JUMP JUMPDEST PUSH1 0x0 PUSH2 0xEBA PUSH1 0x56 DUP4 PUSH2 0x10D0 JUMP JUMPDEST SWAP2 POP PUSH2 0xEC5 DUP3 PUSH2 0x1604 JUMP JUMPDEST PUSH1 0x60 DUP3 ADD SWAP1 POP SWAP2 SWAP1 POP JUMP JUMPDEST PUSH2 0xED9 DUP2 PUSH2 0x11BB JUMP JUMPDEST DUP3 MSTORE POP POP JUMP JUMPDEST PUSH1 0x0 PUSH1 0x20 DUP3 ADD SWAP1 POP PUSH2 0xEF4 PUSH1 0x0 DUP4 ADD DUP5 PUSH2 0xD61 JUMP JUMPDEST SWAP3 SWAP2 POP POP JUMP JUMPDEST PUSH1 0x0 PUSH1 0xA0 DUP3 ADD SWAP1 POP DUP2 DUP2 SUB PUSH1 0x0 DUP4 ADD MSTORE PUSH2 0xF14 DUP2 DUP9 PUSH2 0xD7F JUMP JUMPDEST SWAP1 POP PUSH2 0xF23 PUSH1 0x20 DUP4 ADD DUP8 PUSH2 0xED0 JUMP JUMPDEST PUSH2 0xF30 PUSH1 0x40 DUP4 ADD DUP7 PUSH2 0xD52 JUMP JUMPDEST PUSH2 0xF3D PUSH1 0x60 DUP4 ADD DUP6 PUSH2 0xD70 JUMP JUMPDEST PUSH2 0xF4A PUSH1 0x80 DUP4 ADD DUP5 PUSH2 0xED0 JUMP JUMPDEST SWAP7 SWAP6 POP POP POP POP POP POP JUMP JUMPDEST PUSH1 0x0 PUSH1 0x20 DUP3 ADD SWAP1 POP DUP2 DUP2 SUB PUSH1 0x0 DUP4 ADD MSTORE PUSH2 0xF6D DUP2 PUSH2 0xDB8 JUMP JUMPDEST SWAP1 POP SWAP2 SWAP1 POP JUMP JUMPDEST PUSH1 0x0 PUSH1 0x20 DUP3 ADD SWAP1 POP DUP2 DUP2 SUB PUSH1 0x0 DUP4 ADD MSTORE PUSH2 0xF8D DUP2 PUSH2 0xDDB JUMP JUMPDEST SWAP1 POP SWAP2 SWAP1 POP JUMP JUMPDEST PUSH1 0x0 PUSH1 0x20 DUP3 ADD SWAP1 POP DUP2 DUP2 SUB PUSH1 0x0 DUP4 ADD MSTORE PUSH2 0xFAD DUP2 PUSH2 0xDFE JUMP JUMPDEST SWAP1 POP SWAP2 SWAP1 POP JUMP JUMPDEST PUSH1 0x0 PUSH1 0x20 DUP3 ADD SWAP1 POP DUP2 DUP2 SUB PUSH1 0x0 DUP4 ADD MSTORE PUSH2 0xFCD DUP2 PUSH2 0xE21 JUMP JUMPDEST SWAP1 POP SWAP2 SWAP1 POP JUMP JUMPDEST PUSH1 0x0 PUSH1 0x20 DUP3 ADD SWAP1 POP DUP2 DUP2 SUB PUSH1 0x0 DUP4 ADD MSTORE PUSH2 0xFED DUP2 PUSH2 0xE44 JUMP JUMPDEST SWAP1 POP SWAP2 SWAP1 POP JUMP JUMPDEST PUSH1 0x0 PUSH1 0x20 DUP3 ADD SWAP1 POP DUP2 DUP2 SUB PUSH1 0x0 DUP4 ADD MSTORE PUSH2 0x100D DUP2 PUSH2 0xE67 JUMP JUMPDEST SWAP1 POP SWAP2 SWAP1 POP JUMP JUMPDEST PUSH1 0x0 PUSH1 0x20 DUP3 ADD SWAP1 POP DUP2 DUP2 SUB PUSH1 0x0 DUP4 ADD MSTORE PUSH2 0x102D DUP2 PUSH2 0xE8A JUMP JUMPDEST SWAP1 POP SWAP2 SWAP1 POP JUMP JUMPDEST PUSH1 0x0 PUSH1 0x20 DUP3 ADD SWAP1 POP DUP2 DUP2 SUB PUSH1 0x0 DUP4 ADD MSTORE PUSH2 0x104D DUP2 PUSH2 0xEAD JUMP JUMPDEST SWAP1 POP SWAP2 SWAP1 POP JUMP JUMPDEST PUSH1 0x0 PUSH1 0x20 DUP3 ADD SWAP1 POP PUSH2 0x1069 PUSH1 0x0 DUP4 ADD DUP5 PUSH2 0xED0 JUMP JUMPDEST SWAP3 SWAP2 POP POP JUMP JUMPDEST PUSH1 0x0 PUSH2 0x1079 PUSH2 0x108A JUMP JUMPDEST SWAP1 POP PUSH2 0x1085 DUP3 DUP3 PUSH2 0x1263 JUMP JUMPDEST SWAP2 SWAP1 POP JUMP JUMPDEST PUSH1 0x0 PUSH1 0x40 MLOAD SWAP1 POP SWAP1 JUMP JUMPDEST PUSH1 0x0 PUSH8 0xFFFFFFFFFFFFFFFF DUP3 GT ISZERO PUSH2 0x10AF JUMPI PUSH2 0x10AE PUSH2 0x133B JUMP JUMPDEST JUMPDEST PUSH2 0x10B8 DUP3 PUSH2 0x137E JUMP JUMPDEST SWAP1 POP PUSH1 0x20 DUP2 ADD SWAP1 POP SWAP2 SWAP1 POP JUMP JUMPDEST PUSH1 0x0 DUP2 MLOAD SWAP1 POP SWAP2 SWAP1 POP JUMP JUMPDEST PUSH1 0x0 DUP3 DUP3 MSTORE PUSH1 0x20 DUP3 ADD SWAP1 POP SWAP3 SWAP2 POP POP JUMP JUMPDEST PUSH1 0x0 PUSH2 0x10EC DUP3 PUSH2 0x11BB JUMP JUMPDEST SWAP2 POP PUSH2 0x10F7 DUP4 PUSH2 0x11BB JUMP JUMPDEST SWAP3 POP DUP3 PUSH32 0xFFFFFFFFFFFFFFFFFFFFFFFFFFFFFFFFFFFFFFFFFFFFFFFFFFFFFFFFFFFFFFFF SUB DUP3 GT ISZERO PUSH2 0x112C JUMPI PUSH2 0x112B PUSH2 0x12DD JUMP JUMPDEST JUMPDEST DUP3 DUP3 ADD SWAP1 POP SWAP3 SWAP2 POP POP JUMP JUMPDEST PUSH1 0x0 PUSH2 0x1142 DUP3 PUSH2 0x11BB JUMP JUMPDEST SWAP2 POP PUSH2 0x114D DUP4 PUSH2 0x11BB JUMP JUMPDEST SWAP3 POP DUP3 DUP3 LT ISZERO PUSH2 0x1160 JUMPI PUSH2 0x115F PUSH2 0x12DD JUMP JUMPDEST JUMPDEST DUP3 DUP3 SUB SWAP1 POP SWAP3 SWAP2 POP POP JUMP JUMPDEST PUSH1 0x0 PUSH2 0x1176 DUP3 PUSH2 0x119B JUMP JUMPDEST SWAP1 POP SWAP2 SWAP1 POP JUMP JUMPDEST PUSH1 0x0 PUSH2 0x1188 DUP3 PUSH2 0x119B JUMP JUMPDEST SWAP1 POP SWAP2 SWAP1 POP JUMP JUMPDEST PUSH1 0x0 DUP2 ISZERO ISZERO SWAP1 POP SWAP2 SWAP1 POP JUMP JUMPDEST PUSH1 0x0 PUSH20 0xFFFFFFFFFFFFFFFFFFFFFFFFFFFFFFFFFFFFFFFF DUP3 AND SWAP1 POP SWAP2 SWAP1 POP JUMP JUMPDEST PUSH1 0x0 DUP2 SWAP1 POP SWAP2 SWAP1 POP JUMP JUMPDEST DUP3 DUP2 DUP4 CALLDATACOPY PUSH1 0x0 DUP4 DUP4 ADD MSTORE POP POP POP JUMP JUMPDEST PUSH1 0x0 JUMPDEST DUP4 DUP2 LT ISZERO PUSH2 0x11F2 JUMPI DUP1 DUP3 ADD MLOAD DUP2 DUP5 ADD MSTORE PUSH1 0x20 DUP2 ADD SWAP1 POP PUSH2 0x11D7 JUMP JUMPDEST DUP4 DUP2 GT ISZERO PUSH2 0x1201 JUMPI PUSH1 0x0 DUP5 DUP5 ADD MSTORE JUMPDEST POP POP POP POP JUMP JUMPDEST PUSH1 0x0 PUSH2 0x1212 DUP3 PUSH2 0x11BB JUMP JUMPDEST SWAP2 POP PUSH1 0x0 DUP3 EQ ISZERO PUSH2 0x1226 JUMPI PUSH2 0x1225 PUSH2 0x12DD JUMP JUMPDEST JUMPDEST PUSH1 0x1 DUP3 SUB SWAP1 POP SWAP2 SWAP1 POP JUMP JUMPDEST PUSH1 0x0 PUSH1 0x2 DUP3 DIV SWAP1 POP PUSH1 0x1 DUP3 AND DUP1 PUSH2 0x1249 JUMPI PUSH1 0x7F DUP3 AND SWAP2 POP JUMPDEST PUSH1 0x20 DUP3 LT DUP2 EQ ISZERO PUSH2 0x125D JUMPI PUSH2 0x125C PUSH2 0x130C JUMP JUMPDEST JUMPDEST POP SWAP2 SWAP1 POP JUMP JUMPDEST PUSH2 0x126C DUP3 PUSH2 0x137E JUMP JUMPDEST DUP2 ADD DUP2 DUP2 LT PUSH8 0xFFFFFFFFFFFFFFFF DUP3 GT OR ISZERO PUSH2 0x128B JUMPI PUSH2 0x128A PUSH2 0x133B JUMP JUMPDEST JUMPDEST DUP1 PUSH1 0x40 MSTORE POP POP POP JUMP JUMPDEST PUSH1 0x0 PUSH2 0x129F DUP3 PUSH2 0x11BB JUMP JUMPDEST SWAP2 POP PUSH32 0xFFFFFFFFFFFFFFFFFFFFFFFFFFFFFFFFFFFFFFFFFFFFFFFFFFFFFFFFFFFFFFFF DUP3 EQ ISZERO PUSH2 0x12D2 JUMPI PUSH2 0x12D1 PUSH2 0x12DD JUMP JUMPDEST JUMPDEST PUSH1 0x1 DUP3 ADD SWAP1 POP SWAP2 SWAP1 POP JUMP JUMPDEST PUSH32 0x4E487B7100000000000000000000000000000000000000000000000000000000 PUSH1 0x0 MSTORE PUSH1 0x11 PUSH1 0x4 MSTORE PUSH1 0x24 PUSH1 0x0 REVERT JUMPDEST PUSH32 0x4E487B7100000000000000000000000000000000000000000000000000000000 PUSH1 0x0 MSTORE PUSH1 0x22 PUSH1 0x4 MSTORE PUSH1 0x24 PUSH1 0x0 REVERT JUMPDEST PUSH32 0x4E487B7100000000000000000000000000000000000000000000000000000000 PUSH1 0x0 MSTORE PUSH1 0x41 PUSH1 0x4 MSTORE PUSH1 0x24 PUSH1 0x0 REVERT JUMPDEST PUSH1 0x0 DUP1 REVERT JUMPDEST PUSH1 0x0 DUP1 REVERT JUMPDEST PUSH1 0x0 DUP1 REVERT JUMPDEST PUSH1 0x0 DUP1 REVERT JUMPDEST PUSH1 0x0 PUSH1 0x1F NOT PUSH1 0x1F DUP4 ADD AND SWAP1 POP SWAP2 SWAP1 POP JUMP JUMPDEST PUSH32 0x536F727279212120446561646C696E652068617320616C726561647920706173 PUSH1 0x0 DUP3 ADD MSTORE PUSH32 0x7365642E00000000000000000000000000000000000000000000000000000000 PUSH1 0x20 DUP3 ADD MSTORE POP JUMP JUMPDEST PUSH32 0x536F7272792C20726566756E6420686173206E6F742073746172746564207965 PUSH1 0x0 DUP3 ADD MSTORE PUSH32 0x7420666F7220616E796F6E652062656361757365206569746865722064656164 PUSH1 0x20 DUP3 ADD MSTORE PUSH32 0x6C696E6520686173206E6F742063726F7373206F722074686520726169736564 PUSH1 0x40 DUP3 ADD MSTORE PUSH32 0x20616D6F756E7420697320657175616C206F72206D6F7265207468616E207461 PUSH1 0x60 DUP3 ADD MSTORE PUSH32 0x7267657420616D00000000000000000000000000000000000000000000000000 PUSH1 0x80 DUP3 ADD MSTORE POP JUMP JUMPDEST PUSH32 0x496E76616C69642072657175657374206E756D6265722E000000000000000000 PUSH1 0x0 DUP3 ADD MSTORE POP JUMP JUMPDEST PUSH32 0x596F7520686176656E277420636F6E74726962757465642E0000000000000000 PUSH1 0x0 DUP3 ADD MSTORE POP JUMP JUMPDEST PUSH32 0x536F727279212120796F75206861766520746F20706179206D696E696D756D20 PUSH1 0x0 DUP3 ADD MSTORE PUSH32 0x313030207765692E000000000000000000000000000000000000000000000000 PUSH1 0x20 DUP3 ADD MSTORE POP JUMP JUMPDEST PUSH32 0x536F727279212120596F75206861766520746F20636F6E747269627574652066 PUSH1 0x0 DUP3 ADD MSTORE PUSH32 0x6972737420696E206F7264657220746F20656C696769626C6520666F7220766F PUSH1 0x20 DUP3 ADD MSTORE PUSH32 0x74652E0000000000000000000000000000000000000000000000000000000000 PUSH1 0x40 DUP3 ADD MSTORE POP JUMP JUMPDEST PUSH32 0x4F6E6C79206D616E616765722063616E2063616C6C2074686973206665617475 PUSH1 0x0 DUP3 ADD MSTORE PUSH32 0x72652E0000000000000000000000000000000000000000000000000000000000 PUSH1 0x20 DUP3 ADD MSTORE POP JUMP JUMPDEST PUSH32 0x4F707073212120796F7520616C72656164792070757420796F757220766F7465 PUSH1 0x0 DUP3 ADD MSTORE PUSH32 0x20666F72207468697320726571756573742E20596F752063616E206F6E6C7920 PUSH1 0x20 DUP3 ADD MSTORE PUSH32 0x766F7465206F6E63652070657220726571756573742E00000000000000000000 PUSH1 0x40 DUP3 ADD MSTORE POP JUMP JUMPDEST PUSH2 0x1682 DUP2 PUSH2 0x116B JUMP JUMPDEST DUP2 EQ PUSH2 0x168D JUMPI PUSH1 0x0 DUP1 REVERT JUMPDEST POP JUMP JUMPDEST PUSH2 0x1699 DUP2 PUSH2 0x117D JUMP JUMPDEST DUP2 EQ PUSH2 0x16A4 JUMPI PUSH1 0x0 DUP1 REVERT JUMPDEST POP JUMP JUMPDEST PUSH2 0x16B0 DUP2 PUSH2 0x11BB JUMP JUMPDEST DUP2 EQ PUSH2 0x16BB JUMPI PUSH1 0x0 DUP1 REVERT JUMPDEST POP JUMP INVALID LOG2 PUSH5 0x6970667358 0x22 SLT KECCAK256 XOR 0xD6 DUP8 RETURN REVERT CALLVALUE SWAP3 PUSH21 0x3C9267A273A518EBE0695ABC18F1F14E31BEAB56D 0xB8 DUP2 LOG2 PUSH5 0x736F6C6343 STOP ADDMOD SMOD STOP CALLER "
				},
				"gasEstimates": {
					"creation": {
						"codeDepositCost": "1175200",
						"executionCost": "infinite",
						"totalCost": "infinite"
					},
					"external": {
						"contributors(address)": "2882",
						"createRequest(string,address,uint256)": "infinite",
						"deadline()": "2452",
						"getContractBalance()": "384",
						"manager()": "2559",
						"minimumContribution()": "2451",
						"noOfContributors()": "2518",
						"numRequests()": "2495",
						"raisedAmount()": "2517",
						"refund()": "infinite",
						"requests(uint256)": "infinite",
						"sendEth()": "infinite",
						"targetAmount()": "2473",
						"voteRequest(uint256)": "infinite"
					}
				},
				"methodIdentifiers": {
					"contributors(address)": "1f6d4942",
					"createRequest(string,address,uint256)": "1b16bb5c",
					"deadline()": "29dcb0cf",
					"getContractBalance()": "6f9fb98a",
					"manager()": "481c6a75",
					"minimumContribution()": "937e09b1",
					"noOfContributors()": "4e260f6f",
					"numRequests()": "9fb42b1f",
					"raisedAmount()": "c59ee1dc",
					"refund()": "590e1ae3",
					"requests(uint256)": "81d12c58",
					"sendEth()": "06e99fef",
					"targetAmount()": "953b8fb8",
					"voteRequest(uint256)": "4cb6f4a5"
				}
			},
			"storageLayout": {
				"storage": [
					{
						"astId": 5,
						"contract": "CrowdFunding/crowdfunding.sol:crowdfunding",
						"label": "contributors",
						"offset": 0,
						"slot": "0",
						"type": "t_mapping(t_address,t_uint256)"
					},
					{
						"astId": 7,
						"contract": "CrowdFunding/crowdfunding.sol:crowdfunding",
						"label": "manager",
						"offset": 0,
						"slot": "1",
						"type": "t_address"
					},
					{
						"astId": 9,
						"contract": "CrowdFunding/crowdfunding.sol:crowdfunding",
						"label": "minimumContribution",
						"offset": 0,
						"slot": "2",
						"type": "t_uint256"
					},
					{
						"astId": 11,
						"contract": "CrowdFunding/crowdfunding.sol:crowdfunding",
						"label": "deadline",
						"offset": 0,
						"slot": "3",
						"type": "t_uint256"
					},
					{
						"astId": 13,
						"contract": "CrowdFunding/crowdfunding.sol:crowdfunding",
						"label": "targetAmount",
						"offset": 0,
						"slot": "4",
						"type": "t_uint256"
					},
					{
						"astId": 15,
						"contract": "CrowdFunding/crowdfunding.sol:crowdfunding",
						"label": "raisedAmount",
						"offset": 0,
						"slot": "5",
						"type": "t_uint256"
					},
					{
						"astId": 17,
						"contract": "CrowdFunding/crowdfunding.sol:crowdfunding",
						"label": "noOfContributors",
						"offset": 0,
						"slot": "6",
						"type": "t_uint256"
					},
					{
						"astId": 37,
						"contract": "CrowdFunding/crowdfunding.sol:crowdfunding",
						"label": "requests",
						"offset": 0,
						"slot": "7",
						"type": "t_mapping(t_uint256,t_struct(Request)32_storage)"
					},
					{
						"astId": 39,
						"contract": "CrowdFunding/crowdfunding.sol:crowdfunding",
						"label": "numRequests",
						"offset": 0,
						"slot": "8",
						"type": "t_uint256"
					}
				],
				"types": {
					"t_address": {
						"encoding": "inplace",
						"label": "address",
						"numberOfBytes": "20"
					},
					"t_address_payable": {
						"encoding": "inplace",
						"label": "address payable",
						"numberOfBytes": "20"
					},
					"t_bool": {
						"encoding": "inplace",
						"label": "bool",
						"numberOfBytes": "1"
					},
					"t_mapping(t_address,t_bool)": {
						"encoding": "mapping",
						"key": "t_address",
						"label": "mapping(address => bool)",
						"numberOfBytes": "32",
						"value": "t_bool"
					},
					"t_mapping(t_address,t_uint256)": {
						"encoding": "mapping",
						"key": "t_address",
						"label": "mapping(address => uint256)",
						"numberOfBytes": "32",
						"value": "t_uint256"
					},
					"t_mapping(t_uint256,t_struct(Request)32_storage)": {
						"encoding": "mapping",
						"key": "t_uint256",
						"label": "mapping(uint256 => struct crowdfunding.Request)",
						"numberOfBytes": "32",
						"value": "t_struct(Request)32_storage"
					},
					"t_string_storage": {
						"encoding": "bytes",
						"label": "string",
						"numberOfBytes": "32"
					},
					"t_struct(Request)32_storage": {
						"encoding": "inplace",
						"label": "struct crowdfunding.Request",
						"members": [
							{
								"astId": 19,
								"contract": "CrowdFunding/crowdfunding.sol:crowdfunding",
								"label": "description",
								"offset": 0,
								"slot": "0",
								"type": "t_string_storage"
							},
							{
								"astId": 21,
								"contract": "CrowdFunding/crowdfunding.sol:crowdfunding",
								"label": "value",
								"offset": 0,
								"slot": "1",
								"type": "t_uint256"
							},
							{
								"astId": 23,
								"contract": "CrowdFunding/crowdfunding.sol:crowdfunding",
								"label": "receipient",
								"offset": 0,
								"slot": "2",
								"type": "t_address_payable"
							},
							{
								"astId": 25,
								"contract": "CrowdFunding/crowdfunding.sol:crowdfunding",
								"label": "completed",
								"offset": 20,
								"slot": "2",
								"type": "t_bool"
							},
							{
								"astId": 27,
								"contract": "CrowdFunding/crowdfunding.sol:crowdfunding",
								"label": "noOfVoters",
								"offset": 0,
								"slot": "3",
								"type": "t_uint256"
							},
							{
								"astId": 31,
								"contract": "CrowdFunding/crowdfunding.sol:crowdfunding",
								"label": "voters",
								"offset": 0,
								"slot": "4",
								"type": "t_mapping(t_address,t_bool)"
							}
						],
						"numberOfBytes": "160"
					},
					"t_uint256": {
						"encoding": "inplace",
						"label": "uint256",
						"numberOfBytes": "32"
					}
				}
			},
			"userdoc": {
				"kind": "user",
				"methods": {},
				"version": 1
			}
		}
	}
}